{
  "transactions": [
    {
      "hash": "0xf588a42ef04c3481b785c9775178711be31dd601e84584314effeb5bb995fb2a",
      "transactionType": "CALL",
      "contractName": null,
      "contractAddress": "0xc45f4894f769602e1fdc888c935b294188a98064",
      "function": "setBackgrounds(string[])",
      "arguments": [
        "[e1d7d5, f5e6d3, d5d7e1, d5e1e1]"
      ],
      "transaction": {
        "from": "0xf17b5dd382b048ff4c05c1c9e4e24cfc5c6adad9",
        "to": "0xc45f4894f769602e1fdc888c935b294188a98064",
        "gas": "0x3021e",
        "value": "0x0",
        "input": "0x04e2f8a100000000000000000000000000000000000000000000000000000000000000200000000000000000000000000000000000000000000000000000000000000004000000000000000000000000000000000000000000000000000000000000008000000000000000000000000000000000000000000000000000000000000000c00000000000000000000000000000000000000000000000000000000000000100000000000000000000000000000000000000000000000000000000000000014000000000000000000000000000000000000000000000000000000000000000066531643764350000000000000000000000000000000000000000000000000000000000000000000000000000000000000000000000000000000000000000000666356536643300000000000000000000000000000000000000000000000000000000000000000000000000000000000000000000000000000000000000000006643564376531000000000000000000000000000000000000000000000000000000000000000000000000000000000000000000000000000000000000000000066435653165310000000000000000000000000000000000000000000000000000",
        "nonce": "0x1a",
        "chainId": "0x2105"
      },
      "additionalContracts": [],
      "isFixedGasLimit": false
    }
  ],
  "receipts": [
    {
      "status": "0x1",
      "cumulativeGasUsed": "0xd14238",
      "logs": [],
      "logsBloom": "0x00000000000000000000000000000000000000000000000000000000000000000000000000000000000000000000000000000000000000000000000000000000000000000000000000000000000000000000000000000000000000000000000000000000000000000000000000000000000000000000000000000000000000000000000000000000000000000000000000000000000000000000000000000000000000000000000000000000000000000000000000000000000000000000000000000000000000000000000000000000000000000000000000000000000000000000000000000000000000000000000000000000000000000000000000000000",
      "type": "0x2",
      "transactionHash": "0xf588a42ef04c3481b785c9775178711be31dd601e84584314effeb5bb995fb2a",
      "transactionIndex": "0x42",
      "blockHash": "0x2197961e66a1c2dd08aeaff9727c357996ad387486d32ba2cf4ae3657a9368f6",
      "blockNumber": "0x27efabe",
      "gasUsed": "0x22d8e",
      "effectiveGasPrice": "0x415524",
      "blobGasUsed": "0x4b79",
      "from": "0xf17b5dd382b048ff4c05c1c9e4e24cfc5c6adad9",
      "to": "0xc45f4894f769602e1fdc888c935b294188a98064",
      "contractAddress": null,
      "daFootprintGasScalar": "0x8b",
      "l1BaseFeeScalar": "0x8dd",
      "l1BlobBaseFee": "0x2a7ec3",
      "l1BlobBaseFeeScalar": "0x101c12",
      "l1Fee": "0x266ac774",
      "l1GasPrice": "0x2be5c95",
      "l1GasUsed": "0x8bc"
    }
  ],
  "libraries": [],
  "pending": [],
  "returns": {},
  "timestamp": 1770541664716,
  "chain": 8453,
  "commit": "0c27293"
}