{
  "transactions": [
    {
      "hash": "0x27cd303552c1e286958969c3a19432c185c368404f0603c2295095c3e0c09259",
      "transactionType": "CALL",
      "contractName": null,
      "contractAddress": "0xd29f7491e2269ba1f6f7b89ff3bbe6a65301e9af",
      "function": "setBackgrounds(string[])",
      "arguments": [
        "[e1d7d5, f5e6d3, d5d7e1, d5e1e1]"
      ],
      "transaction": {
        "from": "0xf17b5dd382b048ff4c05c1c9e4e24cfc5c6adad9",
        "to": "0xd29f7491e2269ba1f6f7b89ff3bbe6a65301e9af",
        "gas": "0x3021e",
        "value": "0x0",
        "input": "0x04e2f8a100000000000000000000000000000000000000000000000000000000000000200000000000000000000000000000000000000000000000000000000000000004000000000000000000000000000000000000000000000000000000000000008000000000000000000000000000000000000000000000000000000000000000c00000000000000000000000000000000000000000000000000000000000000100000000000000000000000000000000000000000000000000000000000000014000000000000000000000000000000000000000000000000000000000000000066531643764350000000000000000000000000000000000000000000000000000000000000000000000000000000000000000000000000000000000000000000666356536643300000000000000000000000000000000000000000000000000000000000000000000000000000000000000000000000000000000000000000006643564376531000000000000000000000000000000000000000000000000000000000000000000000000000000000000000000000000000000000000000000066435653165310000000000000000000000000000000000000000000000000000",
        "nonce": "0x89",
        "chainId": "0x2105"
      },
      "additionalContracts": [],
      "isFixedGasLimit": false
    }
  ],
  "receipts": [
    {
      "status": "0x1",
      "cumulativeGasUsed": "0x12cdea6",
      "logs": [],
      "logsBloom": "0x00000000000000000000000000000000000000000000000000000000000000000000000000000000000000000000000000000000000000000000000000000000000000000000000000000000000000000000000000000000000000000000000000000000000000000000000000000000000000000000000000000000000000000000000000000000000000000000000000000000000000000000000000000000000000000000000000000000000000000000000000000000000000000000000000000000000000000000000000000000000000000000000000000000000000000000000000000000000000000000000000000000000000000000000000000000",
      "type": "0x2",
      "transactionHash": "0x27cd303552c1e286958969c3a19432c185c368404f0603c2295095c3e0c09259",
      "transactionIndex": "0x4e",
      "blockHash": "0x0000000000000000000000000000000000000000000000000000000000000000",
      "blockNumber": "0x27f4bce",
      "gasUsed": "0x22d8e",
      "effectiveGasPrice": "0xc88dd8",
      "blobGasUsed": "0x4c8f",
      "from": "0xf17b5dd382b048ff4c05c1c9e4e24cfc5c6adad9",
      "to": "0xd29f7491e2269ba1f6f7b89ff3bbe6a65301e9af",
      "contractAddress": null,
      "daFootprintGasScalar": "0x8b",
      "l1BaseFeeScalar": "0x8dd",
      "l1BlobBaseFee": "0x2d7376",
      "l1BlobBaseFeeScalar": "0x101c12",
      "l1Fee": "0x3c4dc9b7",
      "l1GasPrice": "0x30a12d1",
      "l1GasUsed": "0x8d7"
    }
  ],
  "libraries": [],
  "pending": [],
  "returns": {},
  "timestamp": 1770583165740,
  "chain": 8453,
  "commit": "f532988"
}