{
  "transactions": [
    {
      "hash": "0x9c8d16240c583404c8016f9d2c51f93d5976a198f2106dac37b2b161d1ee0570",
      "transactionType": "CALL",
      "contractName": "AnonsDescriptor",
      "contractAddress": "0x099cc999dd431de6529fbb516e8c59ab0cecdde8",
      "function": "addManySpecs(bytes[])",
      "arguments": [
        "[0x091b0f0502001201020001000201103a020101000301103a03010301103a030101000201106302010100020012010200, 0x091b0f050200120102000100020104fc042a057b031e02010100030104fc042a057b031e0301030104fc042a057b031e03010100020104fc042a057b031e02010100020012010200, 0x091b0f050200120102000100020101bc013a02bc033a02bc013a01bc023a01bc013a01bc02010100030101bc013a02bc033a02bc013a01bc023a01bc013a01bc0301030101bc013a02bc033a02bc013a01bc023a01bc013a01bc03010100020101bc013a02bc033a02bc013a01bc023a01bc013a01bc02010100020012010200, 0x091b0f0502001201020001000201014a012c024a032c024a012c014a022c014a012c014a020101000301014a012c024a032c024a012c014a022c014a012c014a03010301014a012c024a032c024a012c014a022c014a012c014a030101000201014a012c024a032c024a012c014a022c014a012c014a02010100020012010200, 0x091b0f050200120102000100020101d6015902d6035902d6015901d6025901d6015901d602010100030101d6015902d6035902d6015901d6025901d6015901d60301030101d6015902d6035902d6015901d6025901d6015901d603010100020101d6015902d6035902d6015901d6025901d6015901d602010100020012010200, 0x091b0f050200120102000100020103260bd9022602010100030110260301030103440b5c0244030101000201033b0b44023b02010100020012010200, 0x091b0f0502001201020001000201041d09cc031d020101000301025f016a0b1d016a015f03010301073c035f063c03010100020102e70d3c01e702010100020012010200, 0x091b0f0502001201020001000201047c02da036406ff0143020101000301047c02da036406ff014303010301047c02da036406ff0143030101000201047c02da036406ff014302010100020012010200, 0x091b0f0502001201020001000201023a015b0165025901fc022c018c015a0237011e0285020101000301023a015b0165025901fc022c018c015a0237011e028503010301023a015b0165025901fc022c018c015a0237011e0285030101000201023a015b0165025901fc022c018c015a0237011e028502010100020012010200, 0x091b0f0502001201020001000201016a0f1d020101000301023c065f016a065f013c0301030101e70f3c03010100020102460de7014602010100020012010200]"
      ],
      "transaction": {
        "from": "0x84d5e34ad1a91cf2ecad071a65948fa48f1b4216",
        "to": "0x099cc999dd431de6529fbb516e8c59ab0cecdde8",
        "gas": "0x121f91",
        "value": "0x0",
        "input": "0xb0b529dd0000000000000000000000000000000000000000000000000000000000000020000000000000000000000000000000000000000000000000000000000000000a000000000000000000000000000000000000000000000000000000000000014000000000000000000000000000000000000000000000000000000000000001a0000000000000000000000000000000000000000000000000000000000000022000000000000000000000000000000000000000000000000000000000000002c000000000000000000000000000000000000000000000000000000000000003600000000000000000000000000000000000000000000000000000000000000400000000000000000000000000000000000000000000000000000000000000046000000000000000000000000000000000000000000000000000000000000004e0000000000000000000000000000000000000000000000000000000000000056000000000000000000000000000000000000000000000000000000000000006000000000000000000000000000000000000000000000000000000000000000030091b0f0502001201020001000201103a020101000301103a03010301103a030101000201106302010100020012010200000000000000000000000000000000000000000000000000000000000000000000000000000000000000000000000048091b0f050200120102000100020104fc042a057b031e02010100030104fc042a057b031e0301030104fc042a057b031e03010100020104fc042a057b031e020101000200120102000000000000000000000000000000000000000000000000000000000000000000000000000000000000000000000000000000000000000080091b0f050200120102000100020101bc013a02bc033a02bc013a01bc023a01bc013a01bc02010100030101bc013a02bc033a02bc013a01bc023a01bc013a01bc0301030101bc013a02bc033a02bc013a01bc023a01bc013a01bc03010100020101bc013a02bc033a02bc013a01bc023a01bc013a01bc020101000200120102000000000000000000000000000000000000000000000000000000000000000080091b0f0502001201020001000201014a012c024a032c024a012c014a022c014a012c014a020101000301014a012c024a032c024a012c014a022c014a012c014a03010301014a012c024a032c024a012c014a022c014a012c014a030101000201014a012c024a032c024a012c014a022c014a012c014a020101000200120102000000000000000000000000000000000000000000000000000000000000000080091b0f050200120102000100020101d6015902d6035902d6015901d6025901d6015901d602010100030101d6015902d6035902d6015901d6025901d6015901d60301030101d6015902d6035902d6015901d6025901d6015901d603010100020101d6015902d6035902d6015901d6025901d6015901d602010100020012010200000000000000000000000000000000000000000000000000000000000000003c091b0f050200120102000100020103260bd9022602010100030110260301030103440b5c0244030101000201033b0b44023b02010100020012010200000000000000000000000000000000000000000000000000000000000000000000000044091b0f0502001201020001000201041d09cc031d020101000301025f016a0b1d016a015f03010301073c035f063c03010100020102e70d3c01e702010100020012010200000000000000000000000000000000000000000000000000000000000000000000000000000000000000000000000000000000000000000000000050091b0f0502001201020001000201047c02da036406ff0143020101000301047c02da036406ff014303010301047c02da036406ff0143030101000201047c02da036406ff014302010100020012010200000000000000000000000000000000000000000000000000000000000000000000000000000000000000000000000080091b0f0502001201020001000201023a015b0165025901fc022c018c015a0237011e0285020101000301023a015b0165025901fc022c018c015a0237011e028503010301023a015b0165025901fc022c018c015a0237011e0285030101000201023a015b0165025901fc022c018c015a0237011e0285020101000200120102000000000000000000000000000000000000000000000000000000000000000040091b0f0502001201020001000201016a0f1d020101000301023c065f016a065f013c0301030101e70f3c03010100020102460de7014602010100020012010200",
        "nonce": "0x53",
        "chainId": "0x14a34"
      },
      "additionalContracts": [
        {
          "transactionType": "CREATE",
          "contractName": null,
          "address": "0xa594a5050cf3691024455956fbade81478b6dd5a",
          "initCode": "0x61003180600c6000396000f300091b0f0502001201020001000201103a020101000301103a03010301103a030101000201106302010100020012010200"
        },
        {
          "transactionType": "CREATE",
          "contractName": null,
          "address": "0x65d4b4a843ce3170bb41cad44eb14fdb536ee723",
          "initCode": "0x61004980600c6000396000f300091b0f050200120102000100020104fc042a057b031e02010100030104fc042a057b031e0301030104fc042a057b031e03010100020104fc042a057b031e02010100020012010200"
        },
        {
          "transactionType": "CREATE",
          "contractName": null,
          "address": "0xd1ff1856fcadc207b07d7c05d4a3eac6abb8ef9d",
          "initCode": "0x61008180600c6000396000f300091b0f050200120102000100020101bc013a02bc033a02bc013a01bc023a01bc013a01bc02010100030101bc013a02bc033a02bc013a01bc023a01bc013a01bc0301030101bc013a02bc033a02bc013a01bc023a01bc013a01bc03010100020101bc013a02bc033a02bc013a01bc023a01bc013a01bc02010100020012010200"
        },
        {
          "transactionType": "CREATE",
          "contractName": null,
          "address": "0xf2c637db5a4a26d312bdb4cf35bf216f42b892d1",
          "initCode": "0x61008180600c6000396000f300091b0f0502001201020001000201014a012c024a032c024a012c014a022c014a012c014a020101000301014a012c024a032c024a012c014a022c014a012c014a03010301014a012c024a032c024a012c014a022c014a012c014a030101000201014a012c024a032c024a012c014a022c014a012c014a02010100020012010200"
        },
        {
          "transactionType": "CREATE",
          "contractName": null,
          "address": "0x048a5f3baa8baf2da282ee6068c6bb1c8857efe7",
          "initCode": "0x61008180600c6000396000f300091b0f050200120102000100020101d6015902d6035902d6015901d6025901d6015901d602010100030101d6015902d6035902d6015901d6025901d6015901d60301030101d6015902d6035902d6015901d6025901d6015901d603010100020101d6015902d6035902d6015901d6025901d6015901d602010100020012010200"
        },
        {
          "transactionType": "CREATE",
          "contractName": null,
          "address": "0x9b5c73301dbb1adc8f4bd58a18a63e5731c2a873",
          "initCode": "0x61003d80600c6000396000f300091b0f050200120102000100020103260bd9022602010100030110260301030103440b5c0244030101000201033b0b44023b02010100020012010200"
        },
        {
          "transactionType": "CREATE",
          "contractName": null,
          "address": "0x314c8c21181b104c873b9828eb2d4ce666b47a8e",
          "initCode": "0x61004580600c6000396000f300091b0f0502001201020001000201041d09cc031d020101000301025f016a0b1d016a015f03010301073c035f063c03010100020102e70d3c01e702010100020012010200"
        },
        {
          "transactionType": "CREATE",
          "contractName": null,
          "address": "0x6414997eb3b6d41fc4be8f9b132b21e888022fd9",
          "initCode": "0x61005180600c6000396000f300091b0f0502001201020001000201047c02da036406ff0143020101000301047c02da036406ff014303010301047c02da036406ff0143030101000201047c02da036406ff014302010100020012010200"
        },
        {
          "transactionType": "CREATE",
          "contractName": null,
          "address": "0x28b6e683d7a7c97cb502fc41536928a3947da82b",
          "initCode": "0x61008180600c6000396000f300091b0f0502001201020001000201023a015b0165025901fc022c018c015a0237011e0285020101000301023a015b0165025901fc022c018c015a0237011e028503010301023a015b0165025901fc022c018c015a0237011e0285030101000201023a015b0165025901fc022c018c015a0237011e028502010100020012010200"
        },
        {
          "transactionType": "CREATE",
          "contractName": null,
          "address": "0xdce6824c50e4514b79e38727f37bc0846fccce74",
          "initCode": "0x61004180600c6000396000f300091b0f0502001201020001000201016a0f1d020101000301023c065f016a065f013c0301030101e70f3c03010100020102460de7014602010100020012010200"
        }
      ],
      "isFixedGasLimit": false
    },
    {
      "hash": "0x5e3e016f7fba1e9e45f47d43abe4cde561dffdf534ffd4294535c21a3b317900",
      "transactionType": "CALL",
      "contractName": "AnonsDescriptor",
      "contractAddress": "0x099cc999dd431de6529fbb516e8c59ab0cecdde8",
      "function": "addManySpecs(bytes[])",
      "arguments": [
        "[0x091b0f0502001201020001000201106702010100030110ff0301030110ff030101000201012e051405ff051402010100020012010200, 0x091b0f0502001201020001000201102c020101000301102c0301030102e50d2c01e5030101000201018c0fe502010100020012010200, 0x091b0f0502001201020001000201045409d5035402010100030104bd095403bd0301030110bd03010100020110bd02010100020012010200, 0x091b0f0502001201020001000201084a012c074a020101000301074a032c064a03010301074a032c064a030101000201084a012c074a02010100020012010200, 0x091b0f05020012010200010002010845017c07450201010003010745037c0645030103010745037c06450301010002010845017c074502010100020012010200, 0x091b0f0502001201020001000201105a020101000301105a03010301105a030101000201103702010100020012010200, 0x091b0f0502001201020001000201057c04c303ca043a020101000301057c04c303ca043a03010301057c04c303ca043a030101000201057c04c303ca043a02010100020012010200, 0x091b0f05020012010200010002010263043a04ba043a02630201010003010263043a04ba043a0263030103010263043a04ba043a02630301010002010263043a04ba043a026302010100020012010200, 0x091b0f050200120102000100020102e5042c04c4042c028c02010100030102e5042c04c4042c028c0301030102e5042c04c4042c028c03010100020102e5042c04c4042c028c02010100020012010200, 0x091b0f0502001201020001000201065904d60659020101000301065904d6065903010301065904d60659030101000201065904d6065902010100020012010200]"
      ],
      "transaction": {
        "from": "0x84d5e34ad1a91cf2ecad071a65948fa48f1b4216",
        "to": "0x099cc999dd431de6529fbb516e8c59ab0cecdde8",
        "gas": "0x106b99",
        "value": "0x0",
        "input": "0xb0b529dd0000000000000000000000000000000000000000000000000000000000000020000000000000000000000000000000000000000000000000000000000000000a000000000000000000000000000000000000000000000000000000000000014000000000000000000000000000000000000000000000000000000000000001a00000000000000000000000000000000000000000000000000000000000000200000000000000000000000000000000000000000000000000000000000000026000000000000000000000000000000000000000000000000000000000000002c0000000000000000000000000000000000000000000000000000000000000032000000000000000000000000000000000000000000000000000000000000003800000000000000000000000000000000000000000000000000000000000000400000000000000000000000000000000000000000000000000000000000000048000000000000000000000000000000000000000000000000000000000000005000000000000000000000000000000000000000000000000000000000000000036091b0f0502001201020001000201106702010100030110ff0301030110ff030101000201012e051405ff051402010100020012010200000000000000000000000000000000000000000000000000000000000000000000000000000000000036091b0f0502001201020001000201102c020101000301102c0301030102e50d2c01e5030101000201018c0fe502010100020012010200000000000000000000000000000000000000000000000000000000000000000000000000000000000038091b0f0502001201020001000201045409d5035402010100030104bd095403bd0301030110bd03010100020110bd0201010002001201020000000000000000000000000000000000000000000000000000000000000000000000000000000040091b0f0502001201020001000201084a012c074a020101000301074a032c064a03010301074a032c064a030101000201084a012c074a020101000200120102000000000000000000000000000000000000000000000000000000000000000040091b0f05020012010200010002010845017c07450201010003010745037c0645030103010745037c06450301010002010845017c0745020101000200120102000000000000000000000000000000000000000000000000000000000000000030091b0f0502001201020001000201105a020101000301105a03010301105a030101000201103702010100020012010200000000000000000000000000000000000000000000000000000000000000000000000000000000000000000000000048091b0f0502001201020001000201057c04c303ca043a020101000301057c04c303ca043a03010301057c04c303ca043a030101000201057c04c303ca043a020101000200120102000000000000000000000000000000000000000000000000000000000000000000000000000000000000000000000000000000000000000050091b0f05020012010200010002010263043a04ba043a02630201010003010263043a04ba043a0263030103010263043a04ba043a02630301010002010263043a04ba043a026302010100020012010200000000000000000000000000000000000000000000000000000000000000000000000000000000000000000000000050091b0f050200120102000100020102e5042c04c4042c028c02010100030102e5042c04c4042c028c0301030102e5042c04c4042c028c03010100020102e5042c04c4042c028c02010100020012010200000000000000000000000000000000000000000000000000000000000000000000000000000000000000000000000040091b0f0502001201020001000201065904d60659020101000301065904d6065903010301065904d60659030101000201065904d6065902010100020012010200",
        "nonce": "0x54",
        "chainId": "0x14a34"
      },
      "additionalContracts": [
        {
          "transactionType": "CREATE",
          "contractName": null,
          "address": "0x4487fb56fe73cf26be7ca492088ade60cf0ed9c1",
          "initCode": "0x61003780600c6000396000f300091b0f0502001201020001000201106702010100030110ff0301030110ff030101000201012e051405ff051402010100020012010200"
        },
        {
          "transactionType": "CREATE",
          "contractName": null,
          "address": "0x0333ad68f60c386c7b11218633143eb8ec4cf70e",
          "initCode": "0x61003780600c6000396000f300091b0f0502001201020001000201102c020101000301102c0301030102e50d2c01e5030101000201018c0fe502010100020012010200"
        },
        {
          "transactionType": "CREATE",
          "contractName": null,
          "address": "0x3b714386789883dd3f9bdc98c86a201113463a9a",
          "initCode": "0x61003980600c6000396000f300091b0f0502001201020001000201045409d5035402010100030104bd095403bd0301030110bd03010100020110bd02010100020012010200"
        },
        {
          "transactionType": "CREATE",
          "contractName": null,
          "address": "0x96e9ff7e94226d0a859e7ba4940529603b20625b",
          "initCode": "0x61004180600c6000396000f300091b0f0502001201020001000201084a012c074a020101000301074a032c064a03010301074a032c064a030101000201084a012c074a02010100020012010200"
        },
        {
          "transactionType": "CREATE",
          "contractName": null,
          "address": "0xa588866b31fe98d3d353dfb04e520688523fdbc0",
          "initCode": "0x61004180600c6000396000f300091b0f05020012010200010002010845017c07450201010003010745037c0645030103010745037c06450301010002010845017c074502010100020012010200"
        },
        {
          "transactionType": "CREATE",
          "contractName": null,
          "address": "0x18f04745aa8eb8890ace1b9a0ea971f174be5fd9",
          "initCode": "0x61003180600c6000396000f300091b0f0502001201020001000201105a020101000301105a03010301105a030101000201103702010100020012010200"
        },
        {
          "transactionType": "CREATE",
          "contractName": null,
          "address": "0x33c6a9a21231154b90c2e73dab51bbc7389107da",
          "initCode": "0x61004980600c6000396000f300091b0f0502001201020001000201057c04c303ca043a020101000301057c04c303ca043a03010301057c04c303ca043a030101000201057c04c303ca043a02010100020012010200"
        },
        {
          "transactionType": "CREATE",
          "contractName": null,
          "address": "0xe7675fe9bd59b94e80132fe20058bb9933ac288f",
          "initCode": "0x61005180600c6000396000f300091b0f05020012010200010002010263043a04ba043a02630201010003010263043a04ba043a0263030103010263043a04ba043a02630301010002010263043a04ba043a026302010100020012010200"
        },
        {
          "transactionType": "CREATE",
          "contractName": null,
          "address": "0x687571aa9aa720e71cb5134203c375b9273e70f7",
          "initCode": "0x61005180600c6000396000f300091b0f050200120102000100020102e5042c04c4042c028c02010100030102e5042c04c4042c028c0301030102e5042c04c4042c028c03010100020102e5042c04c4042c028c02010100020012010200"
        },
        {
          "transactionType": "CREATE",
          "contractName": null,
          "address": "0xe4aa4de14b9d21af474cce10092e90fd4bda3bc3",
          "initCode": "0x61004180600c6000396000f300091b0f0502001201020001000201065904d60659020101000301065904d6065903010301065904d60659030101000201065904d6065902010100020012010200"
        }
      ],
      "isFixedGasLimit": false
    },
    {
      "hash": "0x72f616fcea2146554dc948860c3f83ced5e455f1d357623b031d259bf2095a31",
      "transactionType": "CALL",
      "contractName": "AnonsDescriptor",
      "contractAddress": "0x099cc999dd431de6529fbb516e8c59ab0cecdde8",
      "function": "addManySpecs(bytes[])",
      "arguments": [
        "[0x091b0f050200120102000100020102bc013a0abc013a02bc02010100030101bc033a08bc033a01bc0301030101bc033a08bc033a01bc03010100020102bc013a0abc013a02bc02010100020012010200, 0x091b0f0502001201020001000201024a012c0a4a012c024a020101000301014a032c084a032c014a03010301014a032c084a032c014a030101000201024a012c0a4a012c024a02010100020012010200, 0x091b0f05020012010200010002010245017c0a45017c02450201010003010145037c0845037c0145030103010145037c0845037c01450301010002010245017c0a45017c024502010100020012010200, 0x091b0f0502001201020001000201047c03c302ca073a020101000301047c03c302ca073a03010301047c03c302ca073a030101000201047c03c302ca073a02010100020012010200, 0x091b0f050200120102000100020110c302010100030110c30301030110db03010100020110db02010100020012010200, 0x091b0f0502001201020001000201043a095b033a020101000301103a03010301103a0301010002010763033a066302010100020012010200, 0x091b0f0502001201020001000201083a08bc020101000301083a08bc03010301083a08bc030101000201083a08bc02010100020012010200, 0x091b0f0502001201020001000201084a082c020101000301084a082c03010301084a082c030101000201084a082c02010100020012010200, 0x091b0f0502001201020001000201103a020101000301103a0301030110ca030101000201076303ca066302010100020012010200, 0x091b0f0502001201020001000201108502010100030103640b850264030103011064030101000201106402010100020012010200]"
      ],
      "transaction": {
        "from": "0x84d5e34ad1a91cf2ecad071a65948fa48f1b4216",
        "to": "0x099cc999dd431de6529fbb516e8c59ab0cecdde8",
        "gas": "0xf7de4",
        "value": "0x0",
        "input": "0xb0b529dd0000000000000000000000000000000000000000000000000000000000000020000000000000000000000000000000000000000000000000000000000000000a000000000000000000000000000000000000000000000000000000000000014000000000000000000000000000000000000000000000000000000000000001c0000000000000000000000000000000000000000000000000000000000000024000000000000000000000000000000000000000000000000000000000000002c0000000000000000000000000000000000000000000000000000000000000034000000000000000000000000000000000000000000000000000000000000003a00000000000000000000000000000000000000000000000000000000000000400000000000000000000000000000000000000000000000000000000000000046000000000000000000000000000000000000000000000000000000000000004c000000000000000000000000000000000000000000000000000000000000005200000000000000000000000000000000000000000000000000000000000000050091b0f050200120102000100020102bc013a0abc013a02bc02010100030101bc033a08bc033a01bc0301030101bc033a08bc033a01bc03010100020102bc013a0abc013a02bc02010100020012010200000000000000000000000000000000000000000000000000000000000000000000000000000000000000000000000050091b0f0502001201020001000201024a012c0a4a012c024a020101000301014a032c084a032c014a03010301014a032c084a032c014a030101000201024a012c0a4a012c024a02010100020012010200000000000000000000000000000000000000000000000000000000000000000000000000000000000000000000000050091b0f05020012010200010002010245017c0a45017c02450201010003010145037c0845037c0145030103010145037c0845037c01450301010002010245017c0a45017c024502010100020012010200000000000000000000000000000000000000000000000000000000000000000000000000000000000000000000000048091b0f0502001201020001000201047c03c302ca073a020101000301047c03c302ca073a03010301047c03c302ca073a030101000201047c03c302ca073a020101000200120102000000000000000000000000000000000000000000000000000000000000000000000000000000000000000000000000000000000000000030091b0f050200120102000100020110c302010100030110c30301030110db03010100020110db02010100020012010200000000000000000000000000000000000000000000000000000000000000000000000000000000000000000000000038091b0f0502001201020001000201043a095b033a020101000301103a03010301103a0301010002010763033a06630201010002001201020000000000000000000000000000000000000000000000000000000000000000000000000000000038091b0f0502001201020001000201083a08bc020101000301083a08bc03010301083a08bc030101000201083a08bc0201010002001201020000000000000000000000000000000000000000000000000000000000000000000000000000000038091b0f0502001201020001000201084a082c020101000301084a082c03010301084a082c030101000201084a082c0201010002001201020000000000000000000000000000000000000000000000000000000000000000000000000000000034091b0f0502001201020001000201103a020101000301103a0301030110ca030101000201076303ca0663020101000200120102000000000000000000000000000000000000000000000000000000000000000000000000000000000000000034091b0f0502001201020001000201108502010100030103640b850264030103011064030101000201106402010100020012010200000000000000000000000000",
        "nonce": "0x55",
        "chainId": "0x14a34"
      },
      "additionalContracts": [
        {
          "transactionType": "CREATE",
          "contractName": null,
          "address": "0xd8b2415609c0b617f3a5437cf5bf259e79d36f83",
          "initCode": "0x61005180600c6000396000f300091b0f050200120102000100020102bc013a0abc013a02bc02010100030101bc033a08bc033a01bc0301030101bc033a08bc033a01bc03010100020102bc013a0abc013a02bc02010100020012010200"
        },
        {
          "transactionType": "CREATE",
          "contractName": null,
          "address": "0x82d992adae967916a8b1e402170880f2c86e7d51",
          "initCode": "0x61005180600c6000396000f300091b0f0502001201020001000201024a012c0a4a012c024a020101000301014a032c084a032c014a03010301014a032c084a032c014a030101000201024a012c0a4a012c024a02010100020012010200"
        },
        {
          "transactionType": "CREATE",
          "contractName": null,
          "address": "0xa005d31d3ffec4c814f1f4d7d2e5910a95da2ffb",
          "initCode": "0x61005180600c6000396000f300091b0f05020012010200010002010245017c0a45017c02450201010003010145037c0845037c0145030103010145037c0845037c01450301010002010245017c0a45017c024502010100020012010200"
        },
        {
          "transactionType": "CREATE",
          "contractName": null,
          "address": "0x54f9df984ab7ca985bbb042ba34a55c3540d18fc",
          "initCode": "0x61004980600c6000396000f300091b0f0502001201020001000201047c03c302ca073a020101000301047c03c302ca073a03010301047c03c302ca073a030101000201047c03c302ca073a02010100020012010200"
        },
        {
          "transactionType": "CREATE",
          "contractName": null,
          "address": "0xf272d0ed4bdcbb8b94af48bde4d0846d244d514e",
          "initCode": "0x61003180600c6000396000f300091b0f050200120102000100020110c302010100030110c30301030110db03010100020110db02010100020012010200"
        },
        {
          "transactionType": "CREATE",
          "contractName": null,
          "address": "0x3bb726735a4b10ed9963b4c9b5dadcbd41b0350c",
          "initCode": "0x61003980600c6000396000f300091b0f0502001201020001000201043a095b033a020101000301103a03010301103a0301010002010763033a066302010100020012010200"
        },
        {
          "transactionType": "CREATE",
          "contractName": null,
          "address": "0x59a551d06533662f64aee0dd255e3064728042bb",
          "initCode": "0x61003980600c6000396000f300091b0f0502001201020001000201083a08bc020101000301083a08bc03010301083a08bc030101000201083a08bc02010100020012010200"
        },
        {
          "transactionType": "CREATE",
          "contractName": null,
          "address": "0x41bb310819914388906fe6f14a91edf740c5ee3e",
          "initCode": "0x61003980600c6000396000f300091b0f0502001201020001000201084a082c020101000301084a082c03010301084a082c030101000201084a082c02010100020012010200"
        },
        {
          "transactionType": "CREATE",
          "contractName": null,
          "address": "0xab03ba5b96c9544ca4eff09201acf09473a50848",
          "initCode": "0x61003580600c6000396000f300091b0f0502001201020001000201103a020101000301103a0301030110ca030101000201076303ca066302010100020012010200"
        },
        {
          "transactionType": "CREATE",
          "contractName": null,
          "address": "0xb2db6067d4c879ba40b350f1c83fe21a3f98a009",
          "initCode": "0x61003580600c6000396000f300091b0f0502001201020001000201108502010100030103640b850264030103011064030101000201106402010100020012010200"
        }
      ],
      "isFixedGasLimit": false
    },
    {
      "hash": "0xa6368e2118a4640bc3464cd4f8b398969caad6ce94b675bb52e44a17dbacc893",
      "transactionType": "CALL",
      "contractName": "AnonsDescriptor",
      "contractAddress": "0x099cc999dd431de6529fbb516e8c59ab0cecdde8",
      "function": "addManySpecs(bytes[])",
      "arguments": [
        "[0x091b0f050200120102000100020106df052b05df02010100030110df030103011051030101000201046c0951036c02010100020012010200, 0x091b0f05020012010200010002010105032b05df025102e5032c0201010003010105032b05df025102e5032c030103010105032b05df025102e5032c0301010002010105032b05df025102e5032c02010100020012010200, 0x091b0f0502001201020001000201041e09d5031e020101000301101e03010301101e03010100020104b8091e03b802010100020012010200, 0x091b0f050200120102000100020107d5034f06d502010100030110d50301030102090d54010903010100020108bd010907bd02010100020012010200, 0x091b0f05020012010200010002010665055b05650201010003011065030103011065030101000201036f0b65026f02010100020012010200, 0x091b0f0502001201020001000201057c0b45020101000301057c0b4503010301057c0b45030101000201057c0b4502010100020012010200, 0x091b0f0502001201020001000201093a07bc020101000301093a07bc03010301093a07bc030101000201093a07bc02010100020012010200, 0x091b0f05020012010200010002010d2c034a0201010003010d2c034a030103010d2c034a0301010002010d2c034a02010100020012010200, 0x091b0f050200120102000100020110590201010003011059030103011059030101000201105902010100020012010200, 0x091b0f050200120102000100020110d7020101000301061005d705100301030103b80b2202b803010100020110b802010100020012010200]"
      ],
      "transaction": {
        "from": "0x84d5e34ad1a91cf2ecad071a65948fa48f1b4216",
        "to": "0x099cc999dd431de6529fbb516e8c59ab0cecdde8",
        "gas": "0xf4729",
        "value": "0x0",
        "input": "0xb0b529dd0000000000000000000000000000000000000000000000000000000000000020000000000000000000000000000000000000000000000000000000000000000a000000000000000000000000000000000000000000000000000000000000014000000000000000000000000000000000000000000000000000000000000001a00000000000000000000000000000000000000000000000000000000000000220000000000000000000000000000000000000000000000000000000000000028000000000000000000000000000000000000000000000000000000000000002e0000000000000000000000000000000000000000000000000000000000000034000000000000000000000000000000000000000000000000000000000000003a00000000000000000000000000000000000000000000000000000000000000400000000000000000000000000000000000000000000000000000000000000046000000000000000000000000000000000000000000000000000000000000004c00000000000000000000000000000000000000000000000000000000000000038091b0f050200120102000100020106df052b05df02010100030110df030103011051030101000201046c0951036c0201010002001201020000000000000000000000000000000000000000000000000000000000000000000000000000000058091b0f05020012010200010002010105032b05df025102e5032c0201010003010105032b05df025102e5032c030103010105032b05df025102e5032c0301010002010105032b05df025102e5032c0201010002001201020000000000000000000000000000000000000000000000000000000000000000000000000000000038091b0f0502001201020001000201041e09d5031e020101000301101e03010301101e03010100020104b8091e03b8020101000200120102000000000000000000000000000000000000000000000000000000000000000000000000000000003c091b0f050200120102000100020107d5034f06d502010100030110d50301030102090d54010903010100020108bd010907bd02010100020012010200000000000000000000000000000000000000000000000000000000000000000000000038091b0f05020012010200010002010665055b05650201010003011065030103011065030101000201036f0b65026f0201010002001201020000000000000000000000000000000000000000000000000000000000000000000000000000000038091b0f0502001201020001000201057c0b45020101000301057c0b4503010301057c0b45030101000201057c0b450201010002001201020000000000000000000000000000000000000000000000000000000000000000000000000000000038091b0f0502001201020001000201093a07bc020101000301093a07bc03010301093a07bc030101000201093a07bc0201010002001201020000000000000000000000000000000000000000000000000000000000000000000000000000000038091b0f05020012010200010002010d2c034a0201010003010d2c034a030103010d2c034a0301010002010d2c034a0201010002001201020000000000000000000000000000000000000000000000000000000000000000000000000000000030091b0f050200120102000100020110590201010003011059030103011059030101000201105902010100020012010200000000000000000000000000000000000000000000000000000000000000000000000000000000000000000000000038091b0f050200120102000100020110d7020101000301061005d705100301030103b80b2202b803010100020110b8020101000200120102000000000000000000",
        "nonce": "0x56",
        "chainId": "0x14a34"
      },
      "additionalContracts": [
        {
          "transactionType": "CREATE",
          "contractName": null,
          "address": "0x8ae951a5633fcaba569ac15dcf9566b6f78f4a80",
          "initCode": "0x61003980600c6000396000f300091b0f050200120102000100020106df052b05df02010100030110df030103011051030101000201046c0951036c02010100020012010200"
        },
        {
          "transactionType": "CREATE",
          "contractName": null,
          "address": "0x746c6de087bd2a6f1d963b5b46f20304aeb16d97",
          "initCode": "0x61005980600c6000396000f300091b0f05020012010200010002010105032b05df025102e5032c0201010003010105032b05df025102e5032c030103010105032b05df025102e5032c0301010002010105032b05df025102e5032c02010100020012010200"
        },
        {
          "transactionType": "CREATE",
          "contractName": null,
          "address": "0x0b8f407a883577d08658a3374a3ae4f10f5d8d43",
          "initCode": "0x61003980600c6000396000f300091b0f0502001201020001000201041e09d5031e020101000301101e03010301101e03010100020104b8091e03b802010100020012010200"
        },
        {
          "transactionType": "CREATE",
          "contractName": null,
          "address": "0x05107f7eb8332fe7d65e0110469adf95f1aa7790",
          "initCode": "0x61003d80600c6000396000f300091b0f050200120102000100020107d5034f06d502010100030110d50301030102090d54010903010100020108bd010907bd02010100020012010200"
        },
        {
          "transactionType": "CREATE",
          "contractName": null,
          "address": "0x67e88d9b0c84fcfa8d21bcdc82670e9ed02e9a81",
          "initCode": "0x61003980600c6000396000f300091b0f05020012010200010002010665055b05650201010003011065030103011065030101000201036f0b65026f02010100020012010200"
        },
        {
          "transactionType": "CREATE",
          "contractName": null,
          "address": "0xeff8426d7a8e544811cd00d8b38a15fba1da850b",
          "initCode": "0x61003980600c6000396000f300091b0f0502001201020001000201057c0b45020101000301057c0b4503010301057c0b45030101000201057c0b4502010100020012010200"
        },
        {
          "transactionType": "CREATE",
          "contractName": null,
          "address": "0x1a5106d5940e99f3f283bcaed103a4ebdc1171b3",
          "initCode": "0x61003980600c6000396000f300091b0f0502001201020001000201093a07bc020101000301093a07bc03010301093a07bc030101000201093a07bc02010100020012010200"
        },
        {
          "transactionType": "CREATE",
          "contractName": null,
          "address": "0xfb5ee9e682bafbc8d0005eca62da2d100ec281a9",
          "initCode": "0x61003980600c6000396000f300091b0f05020012010200010002010d2c034a0201010003010d2c034a030103010d2c034a0301010002010d2c034a02010100020012010200"
        },
        {
          "transactionType": "CREATE",
          "contractName": null,
          "address": "0x1b74f2a9f27df91cbc802b73d17fbab0c1b34cf7",
          "initCode": "0x61003180600c6000396000f300091b0f050200120102000100020110590201010003011059030103011059030101000201105902010100020012010200"
        },
        {
          "transactionType": "CREATE",
          "contractName": null,
          "address": "0x27433407e74d116dcec0ec81dc2ee7a01889dc01",
          "initCode": "0x61003980600c6000396000f300091b0f050200120102000100020110d7020101000301061005d705100301030103b80b2202b803010100020110b802010100020012010200"
        }
      ],
      "isFixedGasLimit": false
    },
    {
      "hash": "0x8452080f92f792f522f91101f328da581ddbe90504d5228f744b02d68ee85b58",
      "transactionType": "CALL",
      "contractName": "AnonsDescriptor",
      "contractAddress": "0x099cc999dd431de6529fbb516e8c59ab0cecdde8",
      "function": "addManySpecs(bytes[])",
      "arguments": [
        "[0x091b0f0502001201020001000201066c0551056c020101000301106c03010301062a056c052a030101000201102a02010100020012010200, 0x091b0f05020012010200010002011059020101000301105903010301105903010100020110fc02010100020012010200, 0x091b0f05020012010200010002010163013a01bc0163013a016301bc0263013a0263013a011702630201010003010163013a01bc0163013a016301bc0263013a0263013a01170263030103010163013a01bc0163013a016301bc0263013a0263013a011702630301010002010163013a01bc0163013a016301bc0263013a0263013a0117026302010100020012010200, 0x091b0f050200120102000100020101c401e501c4022c018c012c01e5024a018c012c03c4018c02010100030101c401e501c4022c018c012c01e5024a018c012c03c4018c0301030101c401e501c4022c018c012c01e5024a018c012c03c4018c03010100020101c401e501c4022c018c012c01e5024a018c012c03c4018c02010100020012010200, 0x091b0f0502001201020001000201075901d6015901d6015901d6035901d6020101000301075901d6015901d6015901d6035901d603010301075901d6015901d6015901d6035901d6030101000201075901d6015901d6015901d6035901d602010100020012010200, 0x091b0f0502001201020001000201038c06e5072c020101000301038c06e5072c03010301038c06e5072c030101000201038c06e5072c02010100020012010200, 0x091b0f050200120102000100020110c802010100030110c8030103011052030101000201105202010100020012010200, 0x091b0f0502001201020001000201066705fd056702010100030103430b6702430301030101fa0f4303010100020110fa02010100020012010200, 0x091b0f0502001201020001000201018802170363053a03630217020101000301018802170363053a0363021703010301018802170363053a03630217030101000201018802170363053a0363021702010100020012010200, 0x091b0f050200120102000100020104c4018c01e5052c01e5018c03c402010100030104c4018c01e5052c01e5018c03c40301030104c4018c01e5052c01e5018c03c403010100020104c4018c01e5052c01e5018c03c402010100020012010200]"
      ],
      "transaction": {
        "from": "0x84d5e34ad1a91cf2ecad071a65948fa48f1b4216",
        "to": "0x099cc999dd431de6529fbb516e8c59ab0cecdde8",
        "gas": "0x1077f4",
        "value": "0x0",
        "input": "0xb0b529dd0000000000000000000000000000000000000000000000000000000000000020000000000000000000000000000000000000000000000000000000000000000a000000000000000000000000000000000000000000000000000000000000014000000000000000000000000000000000000000000000000000000000000001a0000000000000000000000000000000000000000000000000000000000000020000000000000000000000000000000000000000000000000000000000000002c000000000000000000000000000000000000000000000000000000000000003800000000000000000000000000000000000000000000000000000000000000420000000000000000000000000000000000000000000000000000000000000048000000000000000000000000000000000000000000000000000000000000004e0000000000000000000000000000000000000000000000000000000000000054000000000000000000000000000000000000000000000000000000000000005c00000000000000000000000000000000000000000000000000000000000000038091b0f0502001201020001000201066c0551056c020101000301106c03010301062a056c052a030101000201102a0201010002001201020000000000000000000000000000000000000000000000000000000000000000000000000000000030091b0f05020012010200010002011059020101000301105903010301105903010100020110fc02010100020012010200000000000000000000000000000000000000000000000000000000000000000000000000000000000000000000000090091b0f05020012010200010002010163013a01bc0163013a016301bc0263013a0263013a011702630201010003010163013a01bc0163013a016301bc0263013a0263013a01170263030103010163013a01bc0163013a016301bc0263013a0263013a011702630301010002010163013a01bc0163013a016301bc0263013a0263013a0117026302010100020012010200000000000000000000000000000000000000000000000000000000000000000000000000000000000000000000000088091b0f050200120102000100020101c401e501c4022c018c012c01e5024a018c012c03c4018c02010100030101c401e501c4022c018c012c01e5024a018c012c03c4018c0301030101c401e501c4022c018c012c01e5024a018c012c03c4018c03010100020101c401e501c4022c018c012c01e5024a018c012c03c4018c020101000200120102000000000000000000000000000000000000000000000000000000000000000000000000000000000000000000000000000000000000000068091b0f0502001201020001000201075901d6015901d6015901d6035901d6020101000301075901d6015901d6015901d6035901d603010301075901d6015901d6015901d6035901d6030101000201075901d6015901d6015901d6035901d6020101000200120102000000000000000000000000000000000000000000000000000000000000000000000000000000000000000000000000000000000000000040091b0f0502001201020001000201038c06e5072c020101000301038c06e5072c03010301038c06e5072c030101000201038c06e5072c020101000200120102000000000000000000000000000000000000000000000000000000000000000030091b0f050200120102000100020110c802010100030110c803010301105203010100020110520201010002001201020000000000000000000000000000000000000000000000000000000000000000000000000000000000000000000000003a091b0f0502001201020001000201066705fd056702010100030103430b6702430301030101fa0f4303010100020110fa020101000200120102000000000000000000000000000000000000000000000000000000000000000000000000000058091b0f0502001201020001000201018802170363053a03630217020101000301018802170363053a0363021703010301018802170363053a03630217030101000201018802170363053a036302170201010002001201020000000000000000000000000000000000000000000000000000000000000000000000000000000060091b0f050200120102000100020104c4018c01e5052c01e5018c03c402010100030104c4018c01e5052c01e5018c03c40301030104c4018c01e5052c01e5018c03c403010100020104c4018c01e5052c01e5018c03c402010100020012010200",
        "nonce": "0x57",
        "chainId": "0x14a34"
      },
      "additionalContracts": [
        {
          "transactionType": "CREATE",
          "contractName": null,
          "address": "0x41c7143dc3bc5bf77d413b04cb011cdc04b97951",
          "initCode": "0x61003980600c6000396000f300091b0f0502001201020001000201066c0551056c020101000301106c03010301062a056c052a030101000201102a02010100020012010200"
        },
        {
          "transactionType": "CREATE",
          "contractName": null,
          "address": "0x51ef0cdc60ce0c28685bedd27f10a89e2f46a16b",
          "initCode": "0x61003180600c6000396000f300091b0f05020012010200010002011059020101000301105903010301105903010100020110fc02010100020012010200"
        },
        {
          "transactionType": "CREATE",
          "contractName": null,
          "address": "0xb692d0a4425ae92783bb9a969b1576c242e6488e",
          "initCode": "0x61009180600c6000396000f300091b0f05020012010200010002010163013a01bc0163013a016301bc0263013a0263013a011702630201010003010163013a01bc0163013a016301bc0263013a0263013a01170263030103010163013a01bc0163013a016301bc0263013a0263013a011702630301010002010163013a01bc0163013a016301bc0263013a0263013a0117026302010100020012010200"
        },
        {
          "transactionType": "CREATE",
          "contractName": null,
          "address": "0x34e81b24032b4921f58878a7efcb7ca7f125d11a",
          "initCode": "0x61008980600c6000396000f300091b0f050200120102000100020101c401e501c4022c018c012c01e5024a018c012c03c4018c02010100030101c401e501c4022c018c012c01e5024a018c012c03c4018c0301030101c401e501c4022c018c012c01e5024a018c012c03c4018c03010100020101c401e501c4022c018c012c01e5024a018c012c03c4018c02010100020012010200"
        },
        {
          "transactionType": "CREATE",
          "contractName": null,
          "address": "0x6583800e08b7759a5c4efc2b8463caa2a013850b",
          "initCode": "0x61006980600c6000396000f300091b0f0502001201020001000201075901d6015901d6015901d6035901d6020101000301075901d6015901d6015901d6035901d603010301075901d6015901d6015901d6035901d6030101000201075901d6015901d6015901d6035901d602010100020012010200"
        },
        {
          "transactionType": "CREATE",
          "contractName": null,
          "address": "0x7a216eaaf37e987504b669786feb2982fd970420",
          "initCode": "0x61004180600c6000396000f300091b0f0502001201020001000201038c06e5072c020101000301038c06e5072c03010301038c06e5072c030101000201038c06e5072c02010100020012010200"
        },
        {
          "transactionType": "CREATE",
          "contractName": null,
          "address": "0x02afaa22c1640f47ad7697ca2bbab72ee1b7ab1e",
          "initCode": "0x61003180600c6000396000f300091b0f050200120102000100020110c802010100030110c8030103011052030101000201105202010100020012010200"
        },
        {
          "transactionType": "CREATE",
          "contractName": null,
          "address": "0xf2aa2db7235ba6ee755cfa834e815782e37a3a0a",
          "initCode": "0x61003b80600c6000396000f300091b0f0502001201020001000201066705fd056702010100030103430b6702430301030101fa0f4303010100020110fa02010100020012010200"
        },
        {
          "transactionType": "CREATE",
          "contractName": null,
          "address": "0x0652a732820f9b6cab770107a8a32dfed2c2f078",
          "initCode": "0x61005980600c6000396000f300091b0f0502001201020001000201018802170363053a03630217020101000301018802170363053a0363021703010301018802170363053a03630217030101000201018802170363053a0363021702010100020012010200"
        },
        {
          "transactionType": "CREATE",
          "contractName": null,
          "address": "0xb96ced3fdaf89deb37afa14390297ef8b371d94c",
          "initCode": "0x61006180600c6000396000f300091b0f050200120102000100020104c4018c01e5052c01e5018c03c402010100030104c4018c01e5052c01e5018c03c40301030104c4018c01e5052c01e5018c03c403010100020104c4018c01e5052c01e5018c03c402010100020012010200"
        }
      ],
      "isFixedGasLimit": false
    },
    {
      "hash": "0x6318a86da80b5d137ac66ed98d97f9f647d9dcf2de8ca6bd2db1bf730e73dd7b",
      "transactionType": "CALL",
      "contractName": "AnonsDescriptor",
      "contractAddress": "0x099cc999dd431de6529fbb516e8c59ab0cecdde8",
      "function": "addManySpecs(bytes[])",
      "arguments": [
        "[0x091b0f050200120102000100020104d6095903d602010100030104d6095903d60301030104d6095903d603010100020104d6095903d602010100020012010200, 0x091b0f05020012010200010002010745037c06450201010003010745037c0645030103010745037c06450301010002010745037c064502010100020012010200, 0x091b0f05020012010200010002010256039d0196029e019c029e0196039d015602010100030101aa030701a9019b029a0148029a019b01a9030703010301017002ab02a0029f031a029f02a002ab03010100020102ad037201a1057101a1037201ad02010100020012010200, 0x091b0f050200120102000100020110df0201010003011051030103011075030101000201077b0375067b02010100020012010200, 0x091b0f0502001201020001000201083a081e020101000301083a081e03010301083a081e030101000201083a081e02010100020012010200, 0x091b0f0502001201020001000201082c083a020101000301082c083a03010301082c083a030101000201082c083a02010100020012010200, 0x091b0f05020012010200010002010859087c0201010003010859087c030103010859087c0301010002010859087c02010100020012010200, 0x091b0f05020012010200010002010867082c0201010003010867082c030103010867082c0301010002010867082c02010100020012010200, 0x091b0f0502001201020001000201087c0837020101000301087c083703010301087c0837030101000201087c083702010100020012010200, 0x091b0f05020012010200010002010802088c0201010003010802088c030103010802088c0301010002010802088c02010100020012010200]"
      ],
      "transaction": {
        "from": "0x84d5e34ad1a91cf2ecad071a65948fa48f1b4216",
        "to": "0x099cc999dd431de6529fbb516e8c59ab0cecdde8",
        "gas": "0xf7295",
        "value": "0x0",
        "input": "0xb0b529dd0000000000000000000000000000000000000000000000000000000000000020000000000000000000000000000000000000000000000000000000000000000a000000000000000000000000000000000000000000000000000000000000014000000000000000000000000000000000000000000000000000000000000001a0000000000000000000000000000000000000000000000000000000000000020000000000000000000000000000000000000000000000000000000000000002a00000000000000000000000000000000000000000000000000000000000000300000000000000000000000000000000000000000000000000000000000000036000000000000000000000000000000000000000000000000000000000000003c00000000000000000000000000000000000000000000000000000000000000420000000000000000000000000000000000000000000000000000000000000048000000000000000000000000000000000000000000000000000000000000004e00000000000000000000000000000000000000000000000000000000000000040091b0f050200120102000100020104d6095903d602010100030104d6095903d60301030104d6095903d603010100020104d6095903d6020101000200120102000000000000000000000000000000000000000000000000000000000000000040091b0f05020012010200010002010745037c06450201010003010745037c0645030103010745037c06450301010002010745037c064502010100020012010200000000000000000000000000000000000000000000000000000000000000006c091b0f05020012010200010002010256039d0196029e019c029e0196039d015602010100030101aa030701a9019b029a0148029a019b01a9030703010301017002ab02a0029f031a029f02a002ab03010100020102ad037201a1057101a1037201ad0201010002001201020000000000000000000000000000000000000000000000000000000000000000000000000000000000000000000000000000000034091b0f050200120102000100020110df0201010003011051030103011075030101000201077b0375067b020101000200120102000000000000000000000000000000000000000000000000000000000000000000000000000000000000000038091b0f0502001201020001000201083a081e020101000301083a081e03010301083a081e030101000201083a081e0201010002001201020000000000000000000000000000000000000000000000000000000000000000000000000000000038091b0f0502001201020001000201082c083a020101000301082c083a03010301082c083a030101000201082c083a0201010002001201020000000000000000000000000000000000000000000000000000000000000000000000000000000038091b0f05020012010200010002010859087c0201010003010859087c030103010859087c0301010002010859087c0201010002001201020000000000000000000000000000000000000000000000000000000000000000000000000000000038091b0f05020012010200010002010867082c0201010003010867082c030103010867082c0301010002010867082c0201010002001201020000000000000000000000000000000000000000000000000000000000000000000000000000000038091b0f0502001201020001000201087c0837020101000301087c083703010301087c0837030101000201087c08370201010002001201020000000000000000000000000000000000000000000000000000000000000000000000000000000038091b0f05020012010200010002010802088c0201010003010802088c030103010802088c0301010002010802088c020101000200120102000000000000000000",
        "nonce": "0x58",
        "chainId": "0x14a34"
      },
      "additionalContracts": [
        {
          "transactionType": "CREATE",
          "contractName": null,
          "address": "0x3506c3e7585569e7263d905605a9a8a0f16f16e7",
          "initCode": "0x61004180600c6000396000f300091b0f050200120102000100020104d6095903d602010100030104d6095903d60301030104d6095903d603010100020104d6095903d602010100020012010200"
        },
        {
          "transactionType": "CREATE",
          "contractName": null,
          "address": "0x4b036eb25b3f7c24238a858673172395c028c7dc",
          "initCode": "0x61004180600c6000396000f300091b0f05020012010200010002010745037c06450201010003010745037c0645030103010745037c06450301010002010745037c064502010100020012010200"
        },
        {
          "transactionType": "CREATE",
          "contractName": null,
          "address": "0x4ada5913b11d3031bd6ddd54cd10c22b0b833502",
          "initCode": "0x61006d80600c6000396000f300091b0f05020012010200010002010256039d0196029e019c029e0196039d015602010100030101aa030701a9019b029a0148029a019b01a9030703010301017002ab02a0029f031a029f02a002ab03010100020102ad037201a1057101a1037201ad02010100020012010200"
        },
        {
          "transactionType": "CREATE",
          "contractName": null,
          "address": "0x6ce3aae4ebbd8a9ff90168012417bbb2ad54b413",
          "initCode": "0x61003580600c6000396000f300091b0f050200120102000100020110df0201010003011051030103011075030101000201077b0375067b02010100020012010200"
        },
        {
          "transactionType": "CREATE",
          "contractName": null,
          "address": "0x4f28aa1629a440846ba78c338ea665cd3d8fdb78",
          "initCode": "0x61003980600c6000396000f300091b0f0502001201020001000201083a081e020101000301083a081e03010301083a081e030101000201083a081e02010100020012010200"
        },
        {
          "transactionType": "CREATE",
          "contractName": null,
          "address": "0xfe17dc8329418db486bb9e7859b66b18f79a3e53",
          "initCode": "0x61003980600c6000396000f300091b0f0502001201020001000201082c083a020101000301082c083a03010301082c083a030101000201082c083a02010100020012010200"
        },
        {
          "transactionType": "CREATE",
          "contractName": null,
          "address": "0xbb0a747032d7e94f05425edfd2977b88eb9d5f79",
          "initCode": "0x61003980600c6000396000f300091b0f05020012010200010002010859087c0201010003010859087c030103010859087c0301010002010859087c02010100020012010200"
        },
        {
          "transactionType": "CREATE",
          "contractName": null,
          "address": "0x9c748983b0020850ad620b3f042b98e5ee52e9bf",
          "initCode": "0x61003980600c6000396000f300091b0f05020012010200010002010867082c0201010003010867082c030103010867082c0301010002010867082c02010100020012010200"
        },
        {
          "transactionType": "CREATE",
          "contractName": null,
          "address": "0xcfebffd9d6a3154722bdf0f8f8a84211dd876a68",
          "initCode": "0x61003980600c6000396000f300091b0f0502001201020001000201087c0837020101000301087c083703010301087c0837030101000201087c083702010100020012010200"
        },
        {
          "transactionType": "CREATE",
          "contractName": null,
          "address": "0x3c8fb089519598a1835c1ee525a61d7fc4c5fc44",
          "initCode": "0x61003980600c6000396000f300091b0f05020012010200010002010802088c0201010003010802088c030103010802088c0301010002010802088c02010100020012010200"
        }
      ],
      "isFixedGasLimit": false
    },
    {
      "hash": "0xf1d61de5525118605927255182dcb4bc857281c013f70935770ff863e03535cc",
      "transactionType": "CALL",
      "contractName": "AnonsDescriptor",
      "contractAddress": "0x099cc999dd431de6529fbb516e8c59ab0cecdde8",
      "function": "addManySpecs(bytes[])",
      "arguments": [
        "[0x091b0f050200120102000100020106100534051002010100030110100301030108c401b807c403010100020107d1034c06d102010100020012010200, 0x091b0f050200120102000100020102bc023a02bc023a02bc023a02bc023a02010100030102bc023a02bc023a02bc023a02bc023a0301030102bc023a02bc023a02bc023a02bc023a03010100020102bc023a02bc023a02bc023a02bc023a02010100020012010200, 0x091b0f0502001201020001000201024a022c024a022c024a022c024a022c020101000301024a022c024a022c024a022c024a022c03010301024a022c024a022c024a022c024a022c030101000201024a022c024a022c024a022c024a022c02010100020012010200, 0x091b0f0502001201020001000201015901d6015901d6015901d6015901d6015901d6015901d6015901d6015901d6020101000301015901d6015901d6015901d6015901d6015901d6015901d6015901d6015901d603010301015901d6015901d6015901d6015901d6015901d6015901d6015901d6015901d6030101000201015901d6015901d6015901d6015901d6015901d6015901d6015901d6015901d602010100020012010200, 0x091b0f0502001201020001000201017c0345037c0345037c0345020101000301017c0345037c0345037c034503010301017c0345037c0345037c0345030101000201017c0345037c0345037c034502010100020012010200, 0x091b0f0502001201020001000201038902de03a5011103a502de028902010100030101820f890301030103670b820267030101000201104b02010100020012010200, 0x091b0f050200120102000100020104c3031405fa04bd02010100030104c3031405fa04bd0301030104c3031405fa04bd03010100020104c3031405fa04bd02010100020012010200, 0x091b0f050200120102000100020110c802010100030108cc018607cc03010301071d03cc061d030101000201106a02010100020012010200, 0x091b0f0502001201020001000201018c0fe502010100030103c40b8c02c40301030110c403010100020110c402010100020012010200, 0x091b0f050200120102000100020102590865055b013a02010100030102590865055b013a0301030102590865055b013a03010100020102590865055b013a02010100020012010200]"
      ],
      "transaction": {
        "from": "0x84d5e34ad1a91cf2ecad071a65948fa48f1b4216",
        "to": "0x099cc999dd431de6529fbb516e8c59ab0cecdde8",
        "gas": "0x1174af",
        "value": "0x0",
        "input": "0xb0b529dd0000000000000000000000000000000000000000000000000000000000000020000000000000000000000000000000000000000000000000000000000000000a000000000000000000000000000000000000000000000000000000000000014000000000000000000000000000000000000000000000000000000000000001a0000000000000000000000000000000000000000000000000000000000000024000000000000000000000000000000000000000000000000000000000000002e000000000000000000000000000000000000000000000000000000000000003c0000000000000000000000000000000000000000000000000000000000000044000000000000000000000000000000000000000000000000000000000000004c0000000000000000000000000000000000000000000000000000000000000054000000000000000000000000000000000000000000000000000000000000005a00000000000000000000000000000000000000000000000000000000000000600000000000000000000000000000000000000000000000000000000000000003c091b0f050200120102000100020106100534051002010100030110100301030108c401b807c403010100020107d1034c06d102010100020012010200000000000000000000000000000000000000000000000000000000000000000000000068091b0f050200120102000100020102bc023a02bc023a02bc023a02bc023a02010100030102bc023a02bc023a02bc023a02bc023a0301030102bc023a02bc023a02bc023a02bc023a03010100020102bc023a02bc023a02bc023a02bc023a020101000200120102000000000000000000000000000000000000000000000000000000000000000000000000000000000000000000000000000000000000000068091b0f0502001201020001000201024a022c024a022c024a022c024a022c020101000301024a022c024a022c024a022c024a022c03010301024a022c024a022c024a022c024a022c030101000201024a022c024a022c024a022c024a022c0201010002001201020000000000000000000000000000000000000000000000000000000000000000000000000000000000000000000000000000000000000000a8091b0f0502001201020001000201015901d6015901d6015901d6015901d6015901d6015901d6015901d6015901d6020101000301015901d6015901d6015901d6015901d6015901d6015901d6015901d6015901d603010301015901d6015901d6015901d6015901d6015901d6015901d6015901d6015901d6030101000201015901d6015901d6015901d6015901d6015901d6015901d6015901d6015901d6020101000200120102000000000000000000000000000000000000000000000000000000000000000000000000000000000000000000000000000000000000000058091b0f0502001201020001000201017c0345037c0345037c0345020101000301017c0345037c0345037c034503010301017c0345037c0345037c0345030101000201017c0345037c0345037c03450201010002001201020000000000000000000000000000000000000000000000000000000000000000000000000000000042091b0f0502001201020001000201038902de03a5011103a502de028902010100030101820f890301030103670b820267030101000201104b020101000200120102000000000000000000000000000000000000000000000000000000000000000000000000000000000000000000000000000000000000000000000000000048091b0f050200120102000100020104c3031405fa04bd02010100030104c3031405fa04bd0301030104c3031405fa04bd03010100020104c3031405fa04bd020101000200120102000000000000000000000000000000000000000000000000000000000000000000000000000000000000000000000000000000000000000038091b0f050200120102000100020110c802010100030108cc018607cc03010301071d03cc061d030101000201106a0201010002001201020000000000000000000000000000000000000000000000000000000000000000000000000000000036091b0f0502001201020001000201018c0fe502010100030103c40b8c02c40301030110c403010100020110c402010100020012010200000000000000000000000000000000000000000000000000000000000000000000000000000000000048091b0f050200120102000100020102590865055b013a02010100030102590865055b013a0301030102590865055b013a03010100020102590865055b013a02010100020012010200000000000000000000000000000000000000000000000000",
        "nonce": "0x59",
        "chainId": "0x14a34"
      },
      "additionalContracts": [
        {
          "transactionType": "CREATE",
          "contractName": null,
          "address": "0x5d14bdcdcff2e7b70c8717367d882b7ca09bce41",
          "initCode": "0x61003d80600c6000396000f300091b0f050200120102000100020106100534051002010100030110100301030108c401b807c403010100020107d1034c06d102010100020012010200"
        },
        {
          "transactionType": "CREATE",
          "contractName": null,
          "address": "0xc89135ad0bad10d11ce014713ecf6617b8428c33",
          "initCode": "0x61006980600c6000396000f300091b0f050200120102000100020102bc023a02bc023a02bc023a02bc023a02010100030102bc023a02bc023a02bc023a02bc023a0301030102bc023a02bc023a02bc023a02bc023a03010100020102bc023a02bc023a02bc023a02bc023a02010100020012010200"
        },
        {
          "transactionType": "CREATE",
          "contractName": null,
          "address": "0xdc479ca664868eb4a8920864eabc8508d7951c17",
          "initCode": "0x61006980600c6000396000f300091b0f0502001201020001000201024a022c024a022c024a022c024a022c020101000301024a022c024a022c024a022c024a022c03010301024a022c024a022c024a022c024a022c030101000201024a022c024a022c024a022c024a022c02010100020012010200"
        },
        {
          "transactionType": "CREATE",
          "contractName": null,
          "address": "0x6c689d33138972739fdc539dd6ae9ffa97862db0",
          "initCode": "0x6100a980600c6000396000f300091b0f0502001201020001000201015901d6015901d6015901d6015901d6015901d6015901d6015901d6015901d6020101000301015901d6015901d6015901d6015901d6015901d6015901d6015901d6015901d603010301015901d6015901d6015901d6015901d6015901d6015901d6015901d6015901d6030101000201015901d6015901d6015901d6015901d6015901d6015901d6015901d6015901d602010100020012010200"
        },
        {
          "transactionType": "CREATE",
          "contractName": null,
          "address": "0xf5a8df3be4222825898d78c270d72bb0113cc085",
          "initCode": "0x61005980600c6000396000f300091b0f0502001201020001000201017c0345037c0345037c0345020101000301017c0345037c0345037c034503010301017c0345037c0345037c0345030101000201017c0345037c0345037c034502010100020012010200"
        },
        {
          "transactionType": "CREATE",
          "contractName": null,
          "address": "0xd58b113d5fd32dd06f437c8a83effd77ec9af5fa",
          "initCode": "0x61004380600c6000396000f300091b0f0502001201020001000201038902de03a5011103a502de028902010100030101820f890301030103670b820267030101000201104b02010100020012010200"
        },
        {
          "transactionType": "CREATE",
          "contractName": null,
          "address": "0x866513c96c54e586358deb5c2644cebbc7c7aa17",
          "initCode": "0x61004980600c6000396000f300091b0f050200120102000100020104c3031405fa04bd02010100030104c3031405fa04bd0301030104c3031405fa04bd03010100020104c3031405fa04bd02010100020012010200"
        },
        {
          "transactionType": "CREATE",
          "contractName": null,
          "address": "0x33db180a78c786b529cee43e5a6ebed972c82784",
          "initCode": "0x61003980600c6000396000f300091b0f050200120102000100020110c802010100030108cc018607cc03010301071d03cc061d030101000201106a02010100020012010200"
        },
        {
          "transactionType": "CREATE",
          "contractName": null,
          "address": "0x321350cb6b60babb52bfd65fdec3c09e55a50459",
          "initCode": "0x61003780600c6000396000f300091b0f0502001201020001000201018c0fe502010100030103c40b8c02c40301030110c403010100020110c402010100020012010200"
        },
        {
          "transactionType": "CREATE",
          "contractName": null,
          "address": "0xe4a2c830d1cded503d555be70a92c83608512cbe",
          "initCode": "0x61004980600c6000396000f300091b0f050200120102000100020102590865055b013a02010100030102590865055b013a0301030102590865055b013a03010100020102590865055b013a02010100020012010200"
        }
      ],
      "isFixedGasLimit": false
    },
    {
      "hash": "0xae062f73c796761aa6d3cf84c47d988b47c0009aa8aa3af3c3177102ae30efee",
      "transactionType": "CALL",
      "contractName": "AnonsDescriptor",
      "contractAddress": "0x099cc999dd431de6529fbb516e8c59ab0cecdde8",
      "function": "addManySpecs(bytes[])",
      "arguments": [
        "[0x091b0f0502001201020001000201101e020101000301101e03010301101e030101000201101e02010100020012010200, 0x091b0f050200120102000100020110d5020101000301051e07d5041e03010301101e03010100020104bd091e03bd02010100020012010200, 0x091b0f0502001201020001000201100202010100030101de0523013e0318013e052303010301042f02a6058902a6032f030101000201051c0750041c02010100020012010200, 0x091b0f0502001201020001000201013a016301cd01bc01cd0163023a016302bc0117033a0117020101000301013a016301cd01bc01cd0163023a016302bc0117033a011703010301013a016301cd01bc01cd0163023a016302bc0117033a0117030101000201013a016301cd01bc01cd0163023a016302bc0117033a011702010100020012010200, 0x091b0f0502001201020001000201032c02c4024a02c4042c02c4014a020101000301032c02c4024a02c4042c02c4014a03010301032c02c4024a02c4042c02c4014a030101000201032c02c4024a02c4042c02c4014a02010100020012010200, 0x091b0f0502001201020001000201055907d60459020101000301055907d6045903010301055907d60459030101000201055907d6045902010100020012010200, 0x091b0f0502001201020001000201100202010100030101a402180b0202180301030101a60256029d0196029e019c029e0196029d0256030101000201030701a9019b029a0348029a019b01a9020702010100020012010200]"
      ],
      "transaction": {
        "from": "0x84d5e34ad1a91cf2ecad071a65948fa48f1b4216",
        "to": "0x099cc999dd431de6529fbb516e8c59ab0cecdde8",
        "gas": "0xc42c3",
        "value": "0x0",
        "input": "0xb0b529dd0000000000000000000000000000000000000000000000000000000000000020000000000000000000000000000000000000000000000000000000000000000700000000000000000000000000000000000000000000000000000000000000e0000000000000000000000000000000000000000000000000000000000000014000000000000000000000000000000000000000000000000000000000000001a0000000000000000000000000000000000000000000000000000000000000022000000000000000000000000000000000000000000000000000000000000002e0000000000000000000000000000000000000000000000000000000000000036000000000000000000000000000000000000000000000000000000000000003c00000000000000000000000000000000000000000000000000000000000000030091b0f0502001201020001000201101e020101000301101e03010301101e030101000201101e02010100020012010200000000000000000000000000000000000000000000000000000000000000000000000000000000000000000000000038091b0f050200120102000100020110d5020101000301051e07d5041e03010301101e03010100020104bd091e03bd0201010002001201020000000000000000000000000000000000000000000000000000000000000000000000000000000046091b0f0502001201020001000201100202010100030101de0523013e0318013e052303010301042f02a6058902a6032f030101000201051c0750041c0201010002001201020000000000000000000000000000000000000000000000000000000000000000000000000000000000000000000000000000000000000000000088091b0f0502001201020001000201013a016301cd01bc01cd0163023a016302bc0117033a0117020101000301013a016301cd01bc01cd0163023a016302bc0117033a011703010301013a016301cd01bc01cd0163023a016302bc0117033a0117030101000201013a016301cd01bc01cd0163023a016302bc0117033a0117020101000200120102000000000000000000000000000000000000000000000000000000000000000000000000000000000000000000000000000000000000000060091b0f0502001201020001000201032c02c4024a02c4042c02c4014a020101000301032c02c4024a02c4042c02c4014a03010301032c02c4024a02c4042c02c4014a030101000201032c02c4024a02c4042c02c4014a020101000200120102000000000000000000000000000000000000000000000000000000000000000040091b0f0502001201020001000201055907d60459020101000301055907d6045903010301055907d60459030101000201055907d60459020101000200120102000000000000000000000000000000000000000000000000000000000000000058091b0f0502001201020001000201100202010100030101a402180b0202180301030101a60256029d0196029e019c029e0196029d0256030101000201030701a9019b029a0348029a019b01a90207020101000200120102000000000000000000",
        "nonce": "0x5a",
        "chainId": "0x14a34"
      },
      "additionalContracts": [
        {
          "transactionType": "CREATE",
          "contractName": null,
          "address": "0x28527242c93fdb71b0b1dc8f9b7324a45148d98f",
          "initCode": "0x61003180600c6000396000f300091b0f0502001201020001000201101e020101000301101e03010301101e030101000201101e02010100020012010200"
        },
        {
          "transactionType": "CREATE",
          "contractName": null,
          "address": "0x8b1278193bddc61618b2781e4b1f089a1721b928",
          "initCode": "0x61003980600c6000396000f300091b0f050200120102000100020110d5020101000301051e07d5041e03010301101e03010100020104bd091e03bd02010100020012010200"
        },
        {
          "transactionType": "CREATE",
          "contractName": null,
          "address": "0xc37b5d3ec743727c30af391e8848b80f2cd9c0af",
          "initCode": "0x61004780600c6000396000f300091b0f0502001201020001000201100202010100030101de0523013e0318013e052303010301042f02a6058902a6032f030101000201051c0750041c02010100020012010200"
        },
        {
          "transactionType": "CREATE",
          "contractName": null,
          "address": "0xf2c0c671b4dbdf375cf16a43050ab2dd6c3d40df",
          "initCode": "0x61008980600c6000396000f300091b0f0502001201020001000201013a016301cd01bc01cd0163023a016302bc0117033a0117020101000301013a016301cd01bc01cd0163023a016302bc0117033a011703010301013a016301cd01bc01cd0163023a016302bc0117033a0117030101000201013a016301cd01bc01cd0163023a016302bc0117033a011702010100020012010200"
        },
        {
          "transactionType": "CREATE",
          "contractName": null,
          "address": "0xa4508e6426a8b03461c5ad2487499fa8b6886359",
          "initCode": "0x61006180600c6000396000f300091b0f0502001201020001000201032c02c4024a02c4042c02c4014a020101000301032c02c4024a02c4042c02c4014a03010301032c02c4024a02c4042c02c4014a030101000201032c02c4024a02c4042c02c4014a02010100020012010200"
        },
        {
          "transactionType": "CREATE",
          "contractName": null,
          "address": "0xf0957d4b957d4ad9153e08b499e8eafa30a43122",
          "initCode": "0x61004180600c6000396000f300091b0f0502001201020001000201055907d60459020101000301055907d6045903010301055907d60459030101000201055907d6045902010100020012010200"
        },
        {
          "transactionType": "CREATE",
          "contractName": null,
          "address": "0x28fd2f945373021c3550c6b939e3962a56bbfedd",
          "initCode": "0x61005980600c6000396000f300091b0f0502001201020001000201100202010100030101a402180b0202180301030101a60256029d0196029e019c029e0196029d0256030101000201030701a9019b029a0348029a019b01a9020702010100020012010200"
        }
      ],
      "isFixedGasLimit": false
    }
  ],
  "receipts": [
    {
      "status": "0x1",
      "cumulativeGasUsed": "0x1900e4",
      "logs": [],
      "logsBloom": "0x00000000000000000000000000000000000000000000000000000000000000000000000000000000000000000000000000000000000000000000000000000000000000000000000000000000000000000000000000000000000000000000000000000000000000000000000000000000000000000000000000000000000000000000000000000000000000000000000000000000000000000000000000000000000000000000000000000000000000000000000000000000000000000000000000000000000000000000000000000000000000000000000000000000000000000000000000000000000000000000000000000000000000000000000000000000",
      "type": "0x0",
      "transactionHash": "0x72f616fcea2146554dc948860c3f83ced5e455f1d357623b031d259bf2095a31",
      "transactionIndex": "0x7",
      "blockHash": "0x0000000000000000000000000000000000000000000000000000000000000000",
      "blockNumber": "0x23a1b1b",
      "gasUsed": "0xc645b",
      "effectiveGasPrice": "0x124f80",
      "blobGasUsed": "0x253f8",
      "from": "0x84d5e34ad1a91cf2ecad071a65948fa48f1b4216",
      "to": "0x099cc999dd431de6529fbb516e8c59ab0cecdde8",
      "contractAddress": null,
      "daFootprintGasScalar": "0x138",
      "l1BaseFeeScalar": "0x44d",
      "l1BlobBaseFee": "0x38a5136",
      "l1BlobBaseFeeScalar": "0xa118b",
      "l1Fee": "0x2f83922d6",
      "l1GasPrice": "0x3ebd62fc",
      "l1GasUsed": "0x1e96"
    },
    {
      "status": "0x1",
      "cumulativeGasUsed": "0x243b26",
      "logs": [],
      "logsBloom": "0x00000000000000000000000000000000000000000000000000000000000000000000000000000000000000000000000000000000000000000000000000000000000000000000000000000000000000000000000000000000000000000000000000000000000000000000000000000000000000000000000000000000000000000000000000000000000000000000000000000000000000000000000000000000000000000000000000000000000000000000000000000000000000000000000000000000000000000000000000000000000000000000000000000000000000000000000000000000000000000000000000000000000000000000000000000000",
      "type": "0x0",
      "transactionHash": "0x9c8d16240c583404c8016f9d2c51f93d5976a198f2106dac37b2b161d1ee0570",
      "transactionIndex": "0x8",
      "blockHash": "0x0000000000000000000000000000000000000000000000000000000000000000",
      "blockNumber": "0x23a1b1b",
      "gasUsed": "0xb3a42",
      "effectiveGasPrice": "0x124f80",
      "blobGasUsed": "0x20118",
      "from": "0x84d5e34ad1a91cf2ecad071a65948fa48f1b4216",
      "to": "0x099cc999dd431de6529fbb516e8c59ab0cecdde8",
      "contractAddress": null,
      "daFootprintGasScalar": "0x138",
      "l1BaseFeeScalar": "0x44d",
      "l1BlobBaseFee": "0x38a5136",
      "l1BlobBaseFeeScalar": "0xa118b",
      "l1Fee": "0x2f83922d6",
      "l1GasPrice": "0x3ebd62fc",
      "l1GasUsed": "0x1a5a"
    },
    {
      "status": "0x1",
      "cumulativeGasUsed": "0x2f7263",
      "logs": [],
      "logsBloom": "0x00000000000000000000000000000000000000000000000000000000000000000000000000000000000000000000000000000000000000000000000000000000000000000000000000000000000000000000000000000000000000000000000000000000000000000000000000000000000000000000000000000000000000000000000000000000000000000000000000000000000000000000000000000000000000000000000000000000000000000000000000000000000000000000000000000000000000000000000000000000000000000000000000000000000000000000000000000000000000000000000000000000000000000000000000000000",
      "type": "0x0",
      "transactionHash": "0xa6368e2118a4640bc3464cd4f8b398969caad6ce94b675bb52e44a17dbacc893",
      "transactionIndex": "0x9",
      "blockHash": "0x0000000000000000000000000000000000000000000000000000000000000000",
      "blockNumber": "0x23a1b1b",
      "gasUsed": "0xb373d",
      "effectiveGasPrice": "0x124f80",
      "blobGasUsed": "0x1e168",
      "from": "0x84d5e34ad1a91cf2ecad071a65948fa48f1b4216",
      "to": "0x099cc999dd431de6529fbb516e8c59ab0cecdde8",
      "contractAddress": null,
      "daFootprintGasScalar": "0x138",
      "l1BaseFeeScalar": "0x44d",
      "l1BlobBaseFee": "0x38a5136",
      "l1BlobBaseFeeScalar": "0xa118b",
      "l1Fee": "0x2f83922d6",
      "l1GasPrice": "0x3ebd62fc",
      "l1GasUsed": "0x18bb"
    },
    {
      "status": "0x1",
      "cumulativeGasUsed": "0x3a8200",
      "logs": [],
      "logsBloom": "0x00000000000000000000000000000000000000000000000000000000000000000000000000000000000000000000000000000000000000000000000000000000000000000000000000000000000000000000000000000000000000000000000000000000000000000000000000000000000000000000000000000000000000000000000000000000000000000000000000000000000000000000000000000000000000000000000000000000000000000000000000000000000000000000000000000000000000000000000000000000000000000000000000000000000000000000000000000000000000000000000000000000000000000000000000000000",
      "type": "0x0",
      "transactionHash": "0x5e3e016f7fba1e9e45f47d43abe4cde561dffdf534ffd4294535c21a3b317900",
      "transactionIndex": "0xa",
      "blockHash": "0x0000000000000000000000000000000000000000000000000000000000000000",
      "blockNumber": "0x23a1b1b",
      "gasUsed": "0xb0f9d",
      "effectiveGasPrice": "0x124f80",
      "blobGasUsed": "0x1f758",
      "from": "0x84d5e34ad1a91cf2ecad071a65948fa48f1b4216",
      "to": "0x099cc999dd431de6529fbb516e8c59ab0cecdde8",
      "contractAddress": null,
      "daFootprintGasScalar": "0x138",
      "l1BaseFeeScalar": "0x44d",
      "l1BlobBaseFee": "0x38a5136",
      "l1BlobBaseFeeScalar": "0xa118b",
      "l1Fee": "0x2f83922d6",
      "l1GasPrice": "0x3ebd62fc",
      "l1GasUsed": "0x19d4"
    },
    {
      "status": "0x1",
      "cumulativeGasUsed": "0x466e47",
      "logs": [],
      "logsBloom": "0x00000000000000000000000000000000000000000000000000000000000000000000000000000000000000000000000000000000000000000000000000000000000000000000000000000000000000000000000000000000000000000000000000000000000000000000000000000000000000000000000000000000000000000000000000000000000000000000000000000000000000000000000000000000000000000000000000000000000000000000000000000000000000000000000000000000000000000000000000000000000000000000000000000000000000000000000000000000000000000000000000000000000000000000000000000000",
      "type": "0x0",
      "transactionHash": "0x8452080f92f792f522f91101f328da581ddbe90504d5228f744b02d68ee85b58",
      "transactionIndex": "0xb",
      "blockHash": "0x0000000000000000000000000000000000000000000000000000000000000000",
      "blockNumber": "0x23a1b1b",
      "gasUsed": "0xbec47",
      "effectiveGasPrice": "0x124f80",
      "blobGasUsed": "0x24420",
      "from": "0x84d5e34ad1a91cf2ecad071a65948fa48f1b4216",
      "to": "0x099cc999dd431de6529fbb516e8c59ab0cecdde8",
      "contractAddress": null,
      "daFootprintGasScalar": "0x138",
      "l1BaseFeeScalar": "0x44d",
      "l1BlobBaseFee": "0x38a5136",
      "l1BlobBaseFeeScalar": "0xa118b",
      "l1Fee": "0x2f83922d6",
      "l1GasPrice": "0x3ebd62fc",
      "l1GasUsed": "0x1dc0"
    },
    {
      "status": "0x1",
      "cumulativeGasUsed": "0x519d54",
      "logs": [],
      "logsBloom": "0x00000000000000000000000000000000000000000000000000000000000000000000000000000000000000000000000000000000000000000000000000000000000000000000000000000000000000000000000000000000000000000000000000000000000000000000000000000000000000000000000000000000000000000000000000000000000000000000000000000000000000000000000000000000000000000000000000000000000000000000000000000000000000000000000000000000000000000000000000000000000000000000000000000000000000000000000000000000000000000000000000000000000000000000000000000000",
      "type": "0x0",
      "transactionHash": "0xf1d61de5525118605927255182dcb4bc857281c013f70935770ff863e03535cc",
      "transactionIndex": "0xc",
      "blockHash": "0x0000000000000000000000000000000000000000000000000000000000000000",
      "blockNumber": "0x23a1b1b",
      "gasUsed": "0xb2f0d",
      "effectiveGasPrice": "0x124f80",
      "blobGasUsed": "0x1fc38",
      "from": "0x84d5e34ad1a91cf2ecad071a65948fa48f1b4216",
      "to": "0x099cc999dd431de6529fbb516e8c59ab0cecdde8",
      "contractAddress": null,
      "daFootprintGasScalar": "0x138",
      "l1BaseFeeScalar": "0x44d",
      "l1BlobBaseFee": "0x38a5136",
      "l1BlobBaseFeeScalar": "0xa118b",
      "l1Fee": "0x2f83922d6",
      "l1GasPrice": "0x3ebd62fc",
      "l1GasUsed": "0x1a17"
    },
    {
      "status": "0x1",
      "cumulativeGasUsed": "0x5d8cd7",
      "logs": [],
      "logsBloom": "0x00000000000000000000000000000000000000000000000000000000000000000000000000000000000000000000000000000000000000000000000000000000000000000000000000000000000000000000000000000000000000000000000000000000000000000000000000000000000000000000000000000000000000000000000000000000000000000000000000000000000000000000000000000000000000000000000000000000000000000000000000000000000000000000000000000000000000000000000000000000000000000000000000000000000000000000000000000000000000000000000000000000000000000000000000000000",
      "type": "0x0",
      "transactionHash": "0x6318a86da80b5d137ac66ed98d97f9f647d9dcf2de8ca6bd2db1bf730e73dd7b",
      "transactionIndex": "0xd",
      "blockHash": "0x0000000000000000000000000000000000000000000000000000000000000000",
      "blockNumber": "0x23a1b1b",
      "gasUsed": "0xbef83",
      "effectiveGasPrice": "0x124f80",
      "blobGasUsed": "0x22cf8",
      "from": "0x84d5e34ad1a91cf2ecad071a65948fa48f1b4216",
      "to": "0x099cc999dd431de6529fbb516e8c59ab0cecdde8",
      "contractAddress": null,
      "daFootprintGasScalar": "0x138",
      "l1BaseFeeScalar": "0x44d",
      "l1BlobBaseFee": "0x38a5136",
      "l1BlobBaseFeeScalar": "0xa118b",
      "l1Fee": "0x2f83922d6",
      "l1GasPrice": "0x3ebd62fc",
      "l1GasUsed": "0x1c9a"
    },
    {
      "status": "0x1",
      "cumulativeGasUsed": "0x68d19d",
      "logs": [],
      "logsBloom": "0x00000000000000000000000000000000000000000000000000000000000000000000000000000000000000000000000000000000000000000000000000000000000000000000000000000000000000000000000000000000000000000000000000000000000000000000000000000000000000000000000000000000000000000000000000000000000000000000000000000000000000000000000000000000000000000000000000000000000000000000000000000000000000000000000000000000000000000000000000000000000000000000000000000000000000000000000000000000000000000000000000000000000000000000000000000000",
      "type": "0x0",
      "transactionHash": "0xae062f73c796761aa6d3cf84c47d988b47c0009aa8aa3af3c3177102ae30efee",
      "transactionIndex": "0xf",
      "blockHash": "0x0000000000000000000000000000000000000000000000000000000000000000",
      "blockNumber": "0x23a1b1b",
      "gasUsed": "0x8622a",
      "effectiveGasPrice": "0x124f80",
      "blobGasUsed": "0x1cb78",
      "from": "0x84d5e34ad1a91cf2ecad071a65948fa48f1b4216",
      "to": "0x099cc999dd431de6529fbb516e8c59ab0cecdde8",
      "contractAddress": null,
      "daFootprintGasScalar": "0x138",
      "l1BaseFeeScalar": "0x44d",
      "l1BlobBaseFee": "0x38a5136",
      "l1BlobBaseFeeScalar": "0xa118b",
      "l1Fee": "0x2f83922d6",
      "l1GasPrice": "0x3ebd62fc",
      "l1GasUsed": "0x1795"
    }
  ],
  "libraries": [],
  "pending": [],
  "returns": {},
  "timestamp": 1770493204775,
  "chain": 84532,
  "commit": "bfb154c"
}