{
  "transactions": [
    {
      "hash": "0x28eba09c5aa85b6ccdbf25b346d33ab16a8ced591216a48ad548e7435a09f94f",
      "transactionType": "CALL",
      "contractName": null,
      "contractAddress": "0xd29f7491e2269ba1f6f7b89ff3bbe6a65301e9af",
      "function": "addManyAccessories(bytes[])",
      "arguments": [
        "[0x17141f0d01000129050002290500010001290300012901000100012902000129020003000129030002000129020002290100012902000129010001290400012901000129, 0x18151b0d0200039301000193010001000193016701930167019302000193010001930100019301000293, 0x17141e0e010d055c010d0332015c0100010d0132025c0200010d015c0100015c0200010d0200015c02000300015c02000300015c0200, 0x17121f0d0100017d0100017d01000500027d0100027d0500027d0100027d0500027d0100017d01000100017d0300, 0x18151b0d0100020302000203010001030200020302000103030002030300]"
      ],
      "transaction": {
        "from": "0xf17b5dd382b048ff4c05c1c9e4e24cfc5c6adad9",
        "to": "0xd29f7491e2269ba1f6f7b89ff3bbe6a65301e9af",
        "gas": "0x81228",
        "value": "0x0",
        "input": "0x0475d8630000000000000000000000000000000000000000000000000000000000000020000000000000000000000000000000000000000000000000000000000000000500000000000000000000000000000000000000000000000000000000000000a00000000000000000000000000000000000000000000000000000000000000120000000000000000000000000000000000000000000000000000000000000018000000000000000000000000000000000000000000000000000000000000001e00000000000000000000000000000000000000000000000000000000000000240000000000000000000000000000000000000000000000000000000000000004417141f0d0100012905000229050001000129030001290100010001290200012902000300012903000200012902000229010001290200012901000129040001290100012900000000000000000000000000000000000000000000000000000000000000000000000000000000000000000000000000000000000000000000002a18151b0d020003930100019301000100019301670193016701930200019301000193010001930100029300000000000000000000000000000000000000000000000000000000000000000000000000000000000000000000000000000000003617141e0e010d055c010d0332015c0100010d0132025c0200010d015c0100015c0200010d0200015c02000300015c02000300015c020000000000000000000000000000000000000000000000000000000000000000000000000000000000002e17121f0d0100017d0100017d01000500027d0100027d0500027d0100027d0500027d0100017d01000100017d0300000000000000000000000000000000000000000000000000000000000000000000000000000000000000000000000000001e18151b0d01000203020002030100010302000203020001030300020303000000",
        "nonce": "0xc0",
        "chainId": "0x2105"
      },
      "additionalContracts": [
        {
          "transactionType": "CREATE",
          "contractName": null,
          "address": "0xafe9f3b341df1babe99bfd8e62aec7b659d6b8d2",
          "initCode": "0x61004580600c6000396000f30017141f0d01000129050002290500010001290300012901000100012902000129020003000129030002000129020002290100012902000129010001290400012901000129"
        },
        {
          "transactionType": "CREATE",
          "contractName": null,
          "address": "0x9594075b5cc539a888fab6c826bbab3cc8898429",
          "initCode": "0x61002b80600c6000396000f30018151b0d0200039301000193010001000193016701930167019302000193010001930100019301000293"
        },
        {
          "transactionType": "CREATE",
          "contractName": null,
          "address": "0x5dfae49bfac1c184623e6e115252c8e5b523f26a",
          "initCode": "0x61003780600c6000396000f30017141e0e010d055c010d0332015c0100010d0132025c0200010d015c0100015c0200010d0200015c02000300015c02000300015c0200"
        },
        {
          "transactionType": "CREATE",
          "contractName": null,
          "address": "0x8523a8735726fccc9362a1717e4b63121293102e",
          "initCode": "0x61002f80600c6000396000f30017121f0d0100017d0100017d01000500027d0100027d0500027d0100027d0500027d0100017d01000100017d0300"
        },
        {
          "transactionType": "CREATE",
          "contractName": null,
          "address": "0x988cebd955f7b6f7beb35dafd188d1b6331cf3c9",
          "initCode": "0x61001f80600c6000396000f30018151b0d0100020302000203010001030200020302000103030002030300"
        }
      ],
      "isFixedGasLimit": false
    },
    {
      "hash": "0x74e5815153eef7183a9768eb78533890cb579b5d32f0791e6c9c77090f84718d",
      "transactionType": "CALL",
      "contractName": null,
      "contractAddress": "0xd29f7491e2269ba1f6f7b89ff3bbe6a65301e9af",
      "function": "addManyAccessories(bytes[])",
      "arguments": [
        "[0x17131d0d04000130010003000230010003300114010c01cd01000130021401300100020003300100010001300400, 0x15141e0d011705000117010001170300011701000200011701000117020003000117030003000117030002000117010a011702000300011703000100011701000117010001170100020003170200, 0x15161f0b016009000160010001600700016001000200016005000160020003000160030001600300040003600400050001400500020002400160015c03600200030001400115025c01600300040001400115014004000300024003600300, 0x18141f0d040003170500021704000117010001170300011703000100021704000117010a01170400010001170500, 0x15141f0c01170600011701000117040001170100020001170200011702000300021703000200011702000117020001000117010a0217010a01170100020001170136010a01360117010003000117020a0117010004000117013601170100050002170100]"
      ],
      "transaction": {
        "from": "0xf17b5dd382b048ff4c05c1c9e4e24cfc5c6adad9",
        "to": "0xd29f7491e2269ba1f6f7b89ff3bbe6a65301e9af",
        "gas": "0x8c443",
        "value": "0x0",
        "input": "0x0475d8630000000000000000000000000000000000000000000000000000000000000020000000000000000000000000000000000000000000000000000000000000000500000000000000000000000000000000000000000000000000000000000000a00000000000000000000000000000000000000000000000000000000000000100000000000000000000000000000000000000000000000000000000000000018000000000000000000000000000000000000000000000000000000000000002000000000000000000000000000000000000000000000000000000000000000260000000000000000000000000000000000000000000000000000000000000002e17131d0d04000130010003000230010003300114010c01cd01000130021401300100020003300100010001300400000000000000000000000000000000000000000000000000000000000000000000000000000000000000000000000000004e15141e0d011705000117010001170300011701000200011701000117020003000117030003000117030002000117010a011702000300011703000100011701000117010001170100020003170200000000000000000000000000000000000000000000000000000000000000000000000000000000000000000000000000005e15161f0b016009000160010001600700016001000200016005000160020003000160030001600300040003600400050001400500020002400160015c03600200030001400115025c016003000400014001150140040003000240036003000000000000000000000000000000000000000000000000000000000000000000002e18141f0d040003170500021704000117010001170300011703000100021704000117010a01170400010001170500000000000000000000000000000000000000000000000000000000000000000000000000000000000000000000000000006415141f0c01170600011701000117040001170100020001170200011702000300021703000200011702000117020001000117010a0217010a01170100020001170136010a01360117010003000117020a011701000400011701360117010005000217010000000000000000000000000000000000000000000000000000000000",
        "nonce": "0xc1",
        "chainId": "0x2105"
      },
      "additionalContracts": [
        {
          "transactionType": "CREATE",
          "contractName": null,
          "address": "0x1223243f06855cadd12336fd472fefde33f5e262",
          "initCode": "0x61002f80600c6000396000f30017131d0d04000130010003000230010003300114010c01cd01000130021401300100020003300100010001300400"
        },
        {
          "transactionType": "CREATE",
          "contractName": null,
          "address": "0xa6f16925ace70c8e9a1c14790bc3df7f243fdda0",
          "initCode": "0x61004f80600c6000396000f30015141e0d011705000117010001170300011701000200011701000117020003000117030003000117030002000117010a011702000300011703000100011701000117010001170100020003170200"
        },
        {
          "transactionType": "CREATE",
          "contractName": null,
          "address": "0x56cfed0de56c10899779c3d4bf3790805ab35baa",
          "initCode": "0x61005f80600c6000396000f30015161f0b016009000160010001600700016001000200016005000160020003000160030001600300040003600400050001400500020002400160015c03600200030001400115025c01600300040001400115014004000300024003600300"
        },
        {
          "transactionType": "CREATE",
          "contractName": null,
          "address": "0xeb66474d9a443c91c6b780bda840d0a370df32b3",
          "initCode": "0x61002f80600c6000396000f30018141f0d040003170500021704000117010001170300011703000100021704000117010a01170400010001170500"
        },
        {
          "transactionType": "CREATE",
          "contractName": null,
          "address": "0x122d919f1140bdf30a9ddc16fd6e4382407c5203",
          "initCode": "0x61006580600c6000396000f30015141f0c01170600011701000117040001170100020001170200011702000300021703000200011702000117020001000117010a0217010a01170100020001170136010a01360117010003000117020a0117010004000117013601170100050002170100"
        }
      ],
      "isFixedGasLimit": false
    },
    {
      "hash": "0x292bb59bb502c83a6f4bc0d2c1a4dc957d3b8bbfb32bd14cede34a1cc9a91401",
      "transactionType": "CALL",
      "contractName": null,
      "contractAddress": "0xd29f7491e2269ba1f6f7b89ff3bbe6a65301e9af",
      "function": "addManyAccessories(bytes[])",
      "arguments": [
        "[0x15141c0c01170600011701000117040001170100020001170200011702000300021703000100028e0249028e010001000117030a0149018e010001000417028e0100, 0x15141e0c0117060001170100011704000117010002000117020001170200030002170300020001170200011702000100011701360217010a0117010001000117040a0117010002000117020a01170200030002170300, 0x15141f0c011706000117010001170400011701000200011702000117020003000217030001000217020a02170100010001170100021701000117010001000217020a0217010002000117020a01170200010001170100021701000117010001000117040001170100, 0x17141e0d0300038e01000200018e0300018e0100018e017a018e0200018e018e0100018e0100018e0100018e018e0200018e017a018e0100018e0300018e02000100038e0300, 0x16131d0e0188030001880188030001880100018801000188010001000188010001880100020001880200028801000288028801000288]"
      ],
      "transaction": {
        "from": "0xf17b5dd382b048ff4c05c1c9e4e24cfc5c6adad9",
        "to": "0xd29f7491e2269ba1f6f7b89ff3bbe6a65301e9af",
        "gas": "0x85b6a",
        "value": "0x0",
        "input": "0x0475d8630000000000000000000000000000000000000000000000000000000000000020000000000000000000000000000000000000000000000000000000000000000500000000000000000000000000000000000000000000000000000000000000a0000000000000000000000000000000000000000000000000000000000000012000000000000000000000000000000000000000000000000000000000000001a0000000000000000000000000000000000000000000000000000000000000024000000000000000000000000000000000000000000000000000000000000002c0000000000000000000000000000000000000000000000000000000000000004215141c0c01170600011701000117040001170100020001170200011702000300021703000100028e0249028e010001000117030a0149018e010001000417028e0100000000000000000000000000000000000000000000000000000000000000000000000000000000000000000000000000000000000000000000000000005615141e0c0117060001170100011704000117010002000117020001170200030002170300020001170200011702000100011701360217010a0117010001000117040a0117010002000117020a0117020003000217030000000000000000000000000000000000000000000000000000000000000000000000000000000000006815141f0c011706000117010001170400011701000200011702000117020003000217030001000217020a02170100010001170100021701000117010001000217020a0217010002000117020a01170200010001170100021701000117010001000117040001170100000000000000000000000000000000000000000000000000000000000000000000000000000000000000000000000000000000000000004617141e0d0300038e01000200018e0300018e0100018e017a018e0200018e018e0100018e0100018e0100018e018e0200018e017a018e0100018e0300018e02000100038e03000000000000000000000000000000000000000000000000000000000000000000000000000000000000000000000000000000000000000000003616131d0e018803000188018803000188010001880100018801000100018801000188010002000188020002880100028802880100028800000000000000000000",
        "nonce": "0xc2",
        "chainId": "0x2105"
      },
      "additionalContracts": [
        {
          "transactionType": "CREATE",
          "contractName": null,
          "address": "0xb13c37837b97176976ff64b5a117f8c0ce5446ea",
          "initCode": "0x61004380600c6000396000f30015141c0c01170600011701000117040001170100020001170200011702000300021703000100028e0249028e010001000117030a0149018e010001000417028e0100"
        },
        {
          "transactionType": "CREATE",
          "contractName": null,
          "address": "0xa1a9825f3d534eed297cddf6a81704e6e73f8b79",
          "initCode": "0x61005780600c6000396000f30015141e0c0117060001170100011704000117010002000117020001170200030002170300020001170200011702000100011701360217010a0117010001000117040a0117010002000117020a01170200030002170300"
        },
        {
          "transactionType": "CREATE",
          "contractName": null,
          "address": "0x6a3421ae345e5e2386a3604d1c7db9adcacabdcf",
          "initCode": "0x61006980600c6000396000f30015141f0c011706000117010001170400011701000200011702000117020003000217030001000217020a02170100010001170100021701000117010001000217020a0217010002000117020a01170200010001170100021701000117010001000117040001170100"
        },
        {
          "transactionType": "CREATE",
          "contractName": null,
          "address": "0xcfe3cd8006897064de16bbd60c41b581e9443a05",
          "initCode": "0x61004780600c6000396000f30017141e0d0300038e01000200018e0300018e0100018e017a018e0200018e018e0100018e0100018e0100018e018e0200018e017a018e0100018e0300018e02000100038e0300"
        },
        {
          "transactionType": "CREATE",
          "contractName": null,
          "address": "0xc2d13c93f21f4b73bc65fa17168c7ffe63c92b71",
          "initCode": "0x61003780600c6000396000f30016131d0e0188030001880188030001880100018801000188010001000188010001880100020001880200028801000288028801000288"
        }
      ],
      "isFixedGasLimit": false
    },
    {
      "hash": "0xacbbe2b5202ec01896912f1dabb117c17b3c89a7dbc1f7f8819b4f6cd1755b27",
      "transactionType": "CALL",
      "contractName": null,
      "contractAddress": "0xd29f7491e2269ba1f6f7b89ff3bbe6a65301e9af",
      "function": "addManyAccessories(bytes[])",
      "arguments": [
        "[0x16141e0c0100011706000117010a011701000117020001170100011702000117030003000117010a0117020001000217030a021703000117010a01170200040001170300040001170300, 0x15172009023002030230020302300203023001300127020c0227020c0227020c012701300103010c0285020c0285020c0285010c01030103010c01990185020c0285020c0285010c0103026b01000103021e020c021e020c011e016b026b01000103021e020c021e020c011e016b020301000131020c0210020c0210010c0103020301000131020c0210020c0210010c010302c4010001030251020c0251020c015101c402c4010001030251020c0251020c015101c4020c0100012a020c022a020c022a020c, 0x151720090e8001800cc3018001ec0cbe01ec01ec01be01ec0abe01ec02e1010001e109cb01e102e1010001e109cb01e102e1010001e109c201e102e1010001e109c201e102e0010001e0099001e002e0010001e0099001e0029001000b90, 0x151720090e8001800cc3018001300c1401300130011401300a14013002930100019309520193029301000193095201930293010001930952019302930100019309520193023b0100013b0909013b023b0100013b0909013b020901000b09, 0x151720090eee01ee017501d7017501d7017501d7017501d7017501d7017501d701ee01ee0c7501ee01ee017501ee0a7501d102d1010001d1097501d102d1010001d1097501d102d1010001d1097501d101d1015c0100015c017501510175015101750151017501510175015c025c0100015c0951015c015c012601000126015101df015101df015101df015101df0151012602df01000bdf]"
      ],
      "transaction": {
        "from": "0xf17b5dd382b048ff4c05c1c9e4e24cfc5c6adad9",
        "to": "0xd29f7491e2269ba1f6f7b89ff3bbe6a65301e9af",
        "gas": "0x970b1",
        "value": "0x0",
        "input": "0x0475d8630000000000000000000000000000000000000000000000000000000000000020000000000000000000000000000000000000000000000000000000000000000500000000000000000000000000000000000000000000000000000000000000a00000000000000000000000000000000000000000000000000000000000000120000000000000000000000000000000000000000000000000000000000000022000000000000000000000000000000000000000000000000000000000000002a00000000000000000000000000000000000000000000000000000000000000320000000000000000000000000000000000000000000000000000000000000004a16141e0c0100011706000117010a011701000117020001170100011702000117030003000117010a0117020001000217030a021703000117010a011702000400011703000400011703000000000000000000000000000000000000000000000000000000000000000000000000000000000000000000000000000000000000c615172009023002030230020302300203023001300127020c0227020c0227020c012701300103010c0285020c0285020c0285010c01030103010c01990185020c0285020c0285010c0103026b01000103021e020c021e020c011e016b026b01000103021e020c021e020c011e016b020301000131020c0210020c0210010c0103020301000131020c0210020c0210010c010302c4010001030251020c0251020c015101c402c4010001030251020c0251020c015101c4020c0100012a020c022a020c022a020c0000000000000000000000000000000000000000000000000000000000000000000000000000000000000000000000000000000000000000005e151720090e8001800cc3018001ec0cbe01ec01ec01be01ec0abe01ec02e1010001e109cb01e102e1010001e109cb01e102e1010001e109c201e102e1010001e109c201e102e0010001e0099001e002e0010001e0099001e0029001000b900000000000000000000000000000000000000000000000000000000000000000005e151720090e8001800cc3018001300c1401300130011401300a14013002930100019309520193029301000193095201930293010001930952019302930100019309520193023b0100013b0909013b023b0100013b0909013b020901000b0900000000000000000000000000000000000000000000000000000000000000000098151720090eee01ee017501d7017501d7017501d7017501d7017501d7017501d701ee01ee0c7501ee01ee017501ee0a7501d102d1010001d1097501d102d1010001d1097501d102d1010001d1097501d101d1015c0100015c017501510175015101750151017501510175015c025c0100015c0951015c015c012601000126015101df015101df015101df015101df0151012602df01000bdf0000000000000000",
        "nonce": "0xc3",
        "chainId": "0x2105"
      },
      "additionalContracts": [
        {
          "transactionType": "CREATE",
          "contractName": null,
          "address": "0xbf95ad812085cf7d7aa0f117c6d4743c82313d5b",
          "initCode": "0x61004b80600c6000396000f30016141e0c0100011706000117010a011701000117020001170100011702000117030003000117010a0117020001000217030a021703000117010a01170200040001170300040001170300"
        },
        {
          "transactionType": "CREATE",
          "contractName": null,
          "address": "0x647710c321913d70a9db9f9f85e0d40964e98e7c",
          "initCode": "0x6100c780600c6000396000f30015172009023002030230020302300203023001300127020c0227020c0227020c012701300103010c0285020c0285020c0285010c01030103010c01990185020c0285020c0285010c0103026b01000103021e020c021e020c011e016b026b01000103021e020c021e020c011e016b020301000131020c0210020c0210010c0103020301000131020c0210020c0210010c010302c4010001030251020c0251020c015101c402c4010001030251020c0251020c015101c4020c0100012a020c022a020c022a020c"
        },
        {
          "transactionType": "CREATE",
          "contractName": null,
          "address": "0x02598457fd5fb84c70608fe6b2a1d00741aa03e9",
          "initCode": "0x61005f80600c6000396000f300151720090e8001800cc3018001ec0cbe01ec01ec01be01ec0abe01ec02e1010001e109cb01e102e1010001e109cb01e102e1010001e109c201e102e1010001e109c201e102e0010001e0099001e002e0010001e0099001e0029001000b90"
        },
        {
          "transactionType": "CREATE",
          "contractName": null,
          "address": "0x09b7ecb4179e4a2a3a769a18afd28fe423297a79",
          "initCode": "0x61005f80600c6000396000f300151720090e8001800cc3018001300c1401300130011401300a14013002930100019309520193029301000193095201930293010001930952019302930100019309520193023b0100013b0909013b023b0100013b0909013b020901000b09"
        },
        {
          "transactionType": "CREATE",
          "contractName": null,
          "address": "0x4941878f0eec22cd8e9be89d98b61b21a367d690",
          "initCode": "0x61009980600c6000396000f300151720090eee01ee017501d7017501d7017501d7017501d7017501d7017501d701ee01ee0c7501ee01ee017501ee0a7501d102d1010001d1097501d102d1010001d1097501d102d1010001d1097501d101d1015c0100015c017501510175015101750151017501510175015c025c0100015c0951015c015c012601000126015101df015101df015101df015101df0151012602df01000bdf"
        }
      ],
      "isFixedGasLimit": false
    },
    {
      "hash": "0xe2b379cac0f8caacfca36cddfd10ffd4ccaa1b9b4388c10498f73b47fc015a9f",
      "transactionType": "CALL",
      "contractName": null,
      "contractAddress": "0xd29f7491e2269ba1f6f7b89ff3bbe6a65301e9af",
      "function": "addManyAccessories(bytes[])",
      "arguments": [
        "[0x151720090e0801080cbf010801240c5101240124015101240a5101240224010001240951012402240100012409510124025c0100015c0951015c025c0100015c0951015c025c0100015c0951015c025c0100015c0951015c025101000b51, 0x151720090ed201d20cdb01d201880c1d01880188011d01880a1d0188028e0100018e097a018e028e0100018e097a018e025701000157096d0157025701000157096d0157023101000131091001310231010001310910013102bd01000bbd, 0x151720090e7701770c27017701770c27017701c501e901c50ae901c502c5010001c509e901c502c5010001c509e901c502c5010001c509e901c502c5010001c509e901c502c5010001c509e901c502cf010001cf09bd01cf02bd01000bbd, 0x151720090ef301f30c8601f301f30c8601f301cd01e301cd0ae301cd028801000188091d01880280010001800941018002300100013009be013002300100013009be013002c5010001c509e901c502c5010001c509e901c502e901000be9, 0x18141e0d01000273010002730100017302f7017301000273017301f701730100017301f701730100017301f7017301000173010002000173010001730200030001730300]"
      ],
      "transaction": {
        "from": "0xf17b5dd382b048ff4c05c1c9e4e24cfc5c6adad9",
        "to": "0xd29f7491e2269ba1f6f7b89ff3bbe6a65301e9af",
        "gas": "0x8a7b9",
        "value": "0x0",
        "input": "0x0475d8630000000000000000000000000000000000000000000000000000000000000020000000000000000000000000000000000000000000000000000000000000000500000000000000000000000000000000000000000000000000000000000000a0000000000000000000000000000000000000000000000000000000000000012000000000000000000000000000000000000000000000000000000000000001a0000000000000000000000000000000000000000000000000000000000000022000000000000000000000000000000000000000000000000000000000000002a0000000000000000000000000000000000000000000000000000000000000005e151720090e0801080cbf010801240c5101240124015101240a5101240224010001240951012402240100012409510124025c0100015c0951015c025c0100015c0951015c025c0100015c0951015c025c0100015c0951015c025101000b510000000000000000000000000000000000000000000000000000000000000000005e151720090ed201d20cdb01d201880c1d01880188011d01880a1d0188028e0100018e097a018e028e0100018e097a018e025701000157096d0157025701000157096d0157023101000131091001310231010001310910013102bd01000bbd0000000000000000000000000000000000000000000000000000000000000000005e151720090e7701770c27017701770c27017701c501e901c50ae901c502c5010001c509e901c502c5010001c509e901c502c5010001c509e901c502c5010001c509e901c502c5010001c509e901c502cf010001cf09bd01cf02bd01000bbd0000000000000000000000000000000000000000000000000000000000000000005e151720090ef301f30c8601f301f30c8601f301cd01e301cd0ae301cd028801000188091d01880280010001800941018002300100013009be013002300100013009be013002c5010001c509e901c502c5010001c509e901c502e901000be90000000000000000000000000000000000000000000000000000000000000000004418141e0d01000273010002730100017302f7017301000273017301f701730100017301f701730100017301f701730100017301000200017301000173020003000173030000000000000000000000000000000000000000000000000000000000",
        "nonce": "0xc4",
        "chainId": "0x2105"
      },
      "additionalContracts": [
        {
          "transactionType": "CREATE",
          "contractName": null,
          "address": "0xd2a7b6ee2b84665d837a42bb79de0c2f13928899",
          "initCode": "0x61005f80600c6000396000f300151720090e0801080cbf010801240c5101240124015101240a5101240224010001240951012402240100012409510124025c0100015c0951015c025c0100015c0951015c025c0100015c0951015c025c0100015c0951015c025101000b51"
        },
        {
          "transactionType": "CREATE",
          "contractName": null,
          "address": "0x6baaef6813a8edf034e5704ae42efd1ef9547a95",
          "initCode": "0x61005f80600c6000396000f300151720090ed201d20cdb01d201880c1d01880188011d01880a1d0188028e0100018e097a018e028e0100018e097a018e025701000157096d0157025701000157096d0157023101000131091001310231010001310910013102bd01000bbd"
        },
        {
          "transactionType": "CREATE",
          "contractName": null,
          "address": "0xf9d4de9f49f664b1397761804f8ce10990bac734",
          "initCode": "0x61005f80600c6000396000f300151720090e7701770c27017701770c27017701c501e901c50ae901c502c5010001c509e901c502c5010001c509e901c502c5010001c509e901c502c5010001c509e901c502c5010001c509e901c502cf010001cf09bd01cf02bd01000bbd"
        },
        {
          "transactionType": "CREATE",
          "contractName": null,
          "address": "0xc69297fe9cf9290f8bca297b16e288884e3fa387",
          "initCode": "0x61005f80600c6000396000f300151720090ef301f30c8601f301f30c8601f301cd01e301cd0ae301cd028801000188091d01880280010001800941018002300100013009be013002300100013009be013002c5010001c509e901c502c5010001c509e901c502e901000be9"
        },
        {
          "transactionType": "CREATE",
          "contractName": null,
          "address": "0x71e1acc90b10a7a3b96960afbd8f1feae1735be1",
          "initCode": "0x61004580600c6000396000f30018141e0d01000273010002730100017302f7017301000273017301f701730100017301f701730100017301f7017301000173010002000173010001730200030001730300"
        }
      ],
      "isFixedGasLimit": false
    },
    {
      "hash": "0x934dae34f9e9eec443068d80c942ff12dff69b6607331cebe12c8f628d3840b3",
      "transactionType": "CALL",
      "contractName": null,
      "contractAddress": "0xd29f7491e2269ba1f6f7b89ff3bbe6a65301e9af",
      "function": "addManyAccessories(bytes[])",
      "arguments": [
        "[0x18131e0e020001940100019403000194010002000288010001000288020001000188030001880400, 0x18171d090117010003170100031701000317010001000117030001170300011703000117021702000117010a011701000117010a0117010002170100011703000117030001170300011701170200021701000317010003170100, 0x151720090230028f02350230028f0235023001300114022a02220214022a022201140130013501220214022a02220214022a012201350135012201300114022a02220214022a01220135028f010001350214022a02220214012a018f028f010001350214022a02220214012a018f02300100018f02220214022a02220114013002300100018f02220214022a022201140130023501000130022a02220214022a01220135023501000130022a02220214022a01220135022a010001220214022a02220214022a, 0x151720090400036b0100036b0100026b036b0100016b011e016b0100036b0300016b011e016b0100036b0700036b0700036b01000600036b0100016b011e016b01000300026b0100016b011e016b0100036b0100016b0200026b0100036b0500016b0200026b0700026b016b0700036b0100026b0400036b0100016b011e016b0100026b021e0200031e0100031e0300, 0x15172009040003950100039501000295039501000195019e01950100039503000195019e019501000395070003950700039501000600039501000195019e019501000300029501000195019e019501000395010001950200029501000395050001950200029507000295019507000395010002950400039501000195019e019501000295029e0200039e0100039e0300]"
      ],
      "transaction": {
        "from": "0xf17b5dd382b048ff4c05c1c9e4e24cfc5c6adad9",
        "to": "0xd29f7491e2269ba1f6f7b89ff3bbe6a65301e9af",
        "gas": "0xa0187",
        "value": "0x0",
        "input": "0x0475d8630000000000000000000000000000000000000000000000000000000000000020000000000000000000000000000000000000000000000000000000000000000500000000000000000000000000000000000000000000000000000000000000a00000000000000000000000000000000000000000000000000000000000000100000000000000000000000000000000000000000000000000000000000000018000000000000000000000000000000000000000000000000000000000000002800000000000000000000000000000000000000000000000000000000000000340000000000000000000000000000000000000000000000000000000000000002818131e0e020001940100019403000194010002000288010001000288020001000188030001880400000000000000000000000000000000000000000000000000000000000000000000000000000000000000000000000000000000000000005a18171d090117010003170100031701000317010001000117030001170300011703000117021702000117010a011701000117010a011701000217010001170300011703000117030001170117020002170100031701000317010000000000000000000000000000000000000000000000000000000000000000000000000000c6151720090230028f02350230028f0235023001300114022a02220214022a022201140130013501220214022a02220214022a012201350135012201300114022a02220214022a01220135028f010001350214022a02220214012a018f028f010001350214022a02220214012a018f02300100018f02220214022a02220114013002300100018f02220214022a022201140130023501000130022a02220214022a01220135023501000130022a02220214022a01220135022a010001220214022a02220214022a00000000000000000000000000000000000000000000000000000000000000000000000000000000000000000000000000000000000000000090151720090400036b0100036b0100026b036b0100016b011e016b0100036b0300016b011e016b0100036b0700036b0700036b01000600036b0100016b011e016b01000300026b0100016b011e016b0100036b0100016b0200026b0100036b0500016b0200026b0700026b016b0700036b0100026b0400036b0100016b011e016b0100026b021e0200031e0100031e030000000000000000000000000000000000000000000000000000000000000000000000000000000000000000000000009015172009040003950100039501000295039501000195019e01950100039503000195019e019501000395070003950700039501000600039501000195019e019501000300029501000195019e019501000395010001950200029501000395050001950200029507000295019507000395010002950400039501000195019e019501000295029e0200039e0100039e030000000000000000000000000000000000",
        "nonce": "0xc5",
        "chainId": "0x2105"
      },
      "additionalContracts": [
        {
          "transactionType": "CREATE",
          "contractName": null,
          "address": "0xd6dc119faedeb3cbd651443b9547b6c35aa47fc3",
          "initCode": "0x61002980600c6000396000f30018131e0e020001940100019403000194010002000288010001000288020001000188030001880400"
        },
        {
          "transactionType": "CREATE",
          "contractName": null,
          "address": "0x5a7cf385aaa47e813b20d9913330d1c1311ee7d1",
          "initCode": "0x61005b80600c6000396000f30018171d090117010003170100031701000317010001000117030001170300011703000117021702000117010a011701000117010a0117010002170100011703000117030001170300011701170200021701000317010003170100"
        },
        {
          "transactionType": "CREATE",
          "contractName": null,
          "address": "0x480e031873b11fdc53527dee6f1cc26bbd81997e",
          "initCode": "0x6100c780600c6000396000f300151720090230028f02350230028f0235023001300114022a02220214022a022201140130013501220214022a02220214022a012201350135012201300114022a02220214022a01220135028f010001350214022a02220214012a018f028f010001350214022a02220214012a018f02300100018f02220214022a02220114013002300100018f02220214022a022201140130023501000130022a02220214022a01220135023501000130022a02220214022a01220135022a010001220214022a02220214022a"
        },
        {
          "transactionType": "CREATE",
          "contractName": null,
          "address": "0x14894a8be57cfab21d0ca01929162ed7622b3cc2",
          "initCode": "0x61009180600c6000396000f300151720090400036b0100036b0100026b036b0100016b011e016b0100036b0300016b011e016b0100036b0700036b0700036b01000600036b0100016b011e016b01000300026b0100016b011e016b0100036b0100016b0200026b0100036b0500016b0200026b0700026b016b0700036b0100026b0400036b0100016b011e016b0100026b021e0200031e0100031e0300"
        },
        {
          "transactionType": "CREATE",
          "contractName": null,
          "address": "0x313595c94b1e09cabe14777380356ae4b3a391b1",
          "initCode": "0x61009180600c6000396000f30015172009040003950100039501000295039501000195019e01950100039503000195019e019501000395070003950700039501000600039501000195019e019501000300029501000195019e019501000395010001950200029501000395050001950200029507000295019507000395010002950400039501000195019e019501000295029e0200039e0100039e0300"
        }
      ],
      "isFixedGasLimit": false
    },
    {
      "hash": "0x3e05fdd1f3282e35f83ac80c674ba5bf7cfb775b2f5e00918e909fbd587473ed",
      "transactionType": "CALL",
      "contractName": null,
      "contractAddress": "0xd29f7491e2269ba1f6f7b89ff3bbe6a65301e9af",
      "function": "addManyAccessories(bytes[])",
      "arguments": [
        "[0x15172009040003dc010003f3010002800347010001dc016d01dc010003f30300014701bd0147010003dc040003470347040003ec0100014701bd014703000380010001ec011301ec0100034702f30100018001410180010003ec040002f301000380040003f3010002f3040003dc010001f3018601f3010003000247010001dc016d01dc010003f3010001ec02000247010003dc040001470113020002bd04000313010001bd, 0x1517200903000203040002030300030002030400020303000e0002030400020304000203020304000203040002030e0003000203040002030300030002030400020303000e0002030400020304000203020c0400020c0400020c, 0x151720090300020d0400020d03000300020d0400020d03000e00020d0400020d0400020d020d0400020d0400020d0e000300020d0400020d03000300020d0400020d03000e00020d0400020d0400020d02020400020204000202, 0x15172009027d02310283027d02310283027d017d01f40210024302f40210024301f4017d0183014302f40210024302f402100143018301830143017d01f40210024302f402100143018302310100018302f40210024302f40110013102310100018302f40210024302f401100131027d01000131024302f40210024301f4017d027d01000131024302f40210024301f4017d02830100017d0210024302f402100143018302830100017d0210024302f402100143018302100100014302f40210024302f40210, 0x15172009035703000357030002570157016d015703000157016d015703000257035703000357030002570300035703000357020003000157016d015703000157016d015702000300035703000357020002570400035703000257025704000157016d01570300025702570400035703000257030003570300035702000300036d0300036d0200]"
      ],
      "transaction": {
        "from": "0xf17b5dd382b048ff4c05c1c9e4e24cfc5c6adad9",
        "to": "0xd29f7491e2269ba1f6f7b89ff3bbe6a65301e9af",
        "gas": "0xa4ecf",
        "value": "0x0",
        "input": "0x0475d8630000000000000000000000000000000000000000000000000000000000000020000000000000000000000000000000000000000000000000000000000000000500000000000000000000000000000000000000000000000000000000000000a0000000000000000000000000000000000000000000000000000000000000018000000000000000000000000000000000000000000000000000000000000002000000000000000000000000000000000000000000000000000000000000000280000000000000000000000000000000000000000000000000000000000000038000000000000000000000000000000000000000000000000000000000000000a615172009040003dc010003f3010002800347010001dc016d01dc010003f30300014701bd0147010003dc040003470347040003ec0100014701bd014703000380010001ec011301ec0100034702f30100018001410180010003ec040002f301000380040003f3010002f3040003dc010001f3018601f3010003000247010001dc016d01dc010003f3010001ec02000247010003dc040001470113020002bd04000313010001bd0000000000000000000000000000000000000000000000000000000000000000000000000000000000000000000000000000000000000000005a1517200903000203040002030300030002030400020303000e0002030400020304000203020304000203040002030e0003000203040002030300030002030400020303000e0002030400020304000203020c0400020c0400020c000000000000000000000000000000000000000000000000000000000000000000000000005a151720090300020d0400020d03000300020d0400020d03000e00020d0400020d0400020d020d0400020d0400020d0e000300020d0400020d03000300020d0400020d03000e00020d0400020d0400020d0202040002020400020200000000000000000000000000000000000000000000000000000000000000000000000000c615172009027d02310283027d02310283027d017d01f40210024302f40210024301f4017d0183014302f40210024302f402100143018301830143017d01f40210024302f402100143018302310100018302f40210024302f40110013102310100018302f40210024302f401100131027d01000131024302f40210024301f4017d027d01000131024302f40210024301f4017d02830100017d0210024302f402100143018302830100017d0210024302f402100143018302100100014302f40210024302f402100000000000000000000000000000000000000000000000000000000000000000000000000000000000000000000000000000000000000000008615172009035703000357030002570157016d015703000157016d015703000257035703000357030002570300035703000357020003000157016d015703000157016d015702000300035703000357020002570400035703000257025704000157016d01570300025702570400035703000257030003570300035702000300036d0300036d02000000000000000000000000000000000000000000000000000000",
        "nonce": "0xc6",
        "chainId": "0x2105"
      },
      "additionalContracts": [
        {
          "transactionType": "CREATE",
          "contractName": null,
          "address": "0x5e78f1f4eed77974606258622422d6724ea3198c",
          "initCode": "0x6100a780600c6000396000f30015172009040003dc010003f3010002800347010001dc016d01dc010003f30300014701bd0147010003dc040003470347040003ec0100014701bd014703000380010001ec011301ec0100034702f30100018001410180010003ec040002f301000380040003f3010002f3040003dc010001f3018601f3010003000247010001dc016d01dc010003f3010001ec02000247010003dc040001470113020002bd04000313010001bd"
        },
        {
          "transactionType": "CREATE",
          "contractName": null,
          "address": "0x34984fadc9a3bd9d26310a207e2c5a7352493450",
          "initCode": "0x61005b80600c6000396000f3001517200903000203040002030300030002030400020303000e0002030400020304000203020304000203040002030e0003000203040002030300030002030400020303000e0002030400020304000203020c0400020c0400020c"
        },
        {
          "transactionType": "CREATE",
          "contractName": null,
          "address": "0xb8be84d1eb37daa297c8dda10eb850397a4b7a73",
          "initCode": "0x61005b80600c6000396000f300151720090300020d0400020d03000300020d0400020d03000e00020d0400020d0400020d020d0400020d0400020d0e000300020d0400020d03000300020d0400020d03000e00020d0400020d0400020d02020400020204000202"
        },
        {
          "transactionType": "CREATE",
          "contractName": null,
          "address": "0x49c764dbe23f4d98686fb474a953d7a6341cb8c6",
          "initCode": "0x6100c780600c6000396000f30015172009027d02310283027d02310283027d017d01f40210024302f40210024301f4017d0183014302f40210024302f402100143018301830143017d01f40210024302f402100143018302310100018302f40210024302f40110013102310100018302f40210024302f401100131027d01000131024302f40210024301f4017d027d01000131024302f40210024301f4017d02830100017d0210024302f402100143018302830100017d0210024302f402100143018302100100014302f40210024302f40210"
        },
        {
          "transactionType": "CREATE",
          "contractName": null,
          "address": "0xbddacfe1e0d2abbd4dd961054bb53bc4016b02f0",
          "initCode": "0x61008780600c6000396000f30015172009035703000357030002570157016d015703000157016d015703000257035703000357030002570300035703000357020003000157016d015703000157016d015702000300035703000357020002570400035703000257025704000157016d01570300025702570400035703000257030003570300035702000300036d0300036d0200"
        }
      ],
      "isFixedGasLimit": false
    },
    {
      "hash": "0xf8314a97f655d1c41c59d38da61930b1057c2a8a527ba557ff7ca5f45f9210cf",
      "transactionType": "CALL",
      "contractName": null,
      "contractAddress": "0xd29f7491e2269ba1f6f7b89ff3bbe6a65301e9af",
      "function": "addManyAccessories(bytes[])",
      "arguments": [
        "[0x1517200903530300035303000253015301fa01530300015301fa01530300025303530300035303000253030003530300035302000300015301fa01530300015301fa01530200030003530300035302000253040003530300025302530400015301fa0153030002530253040003530300025303000353030003530200030003fa030003fa0200, 0x151720090200020302000203020002030200020002030200020302000203020002030200020302000203020002030203020002030200020302000203030001030200020302000203020003000103020002030200020302000203020002030200020302000203020302000203020002030200020303000103020002030200020302000300010302000203020002030200020c0200020c0200020c0200020c, 0x1517200902350200023502000235020002350235020002350200023502000235020002350200023502000235020002000235020002350200023502000235020002350200023502000235023502000235020002350200023503000135020002350200023502000300013502000235020002350200023502000235020002350200023502350200023502000235020002350300012202000222020002220200, 0x1517200902000293020002930200029302000200029302000293020002930200029302000293020002930200029302930200029302000293020002930300019302000293020002930200030001930200029302000293020002930200029302000293020002930293020002930200029302000293030001930200029302000293020003000193020002930200029302000267020002670200026702000267, 0x18131e0d030002300100020d0200010d01c10100040d01000200020d02000200010d0300020001c10300]"
      ],
      "transaction": {
        "from": "0xf17b5dd382b048ff4c05c1c9e4e24cfc5c6adad9",
        "to": "0xd29f7491e2269ba1f6f7b89ff3bbe6a65301e9af",
        "gas": "0x9968a",
        "value": "0x0",
        "input": "0x0475d8630000000000000000000000000000000000000000000000000000000000000020000000000000000000000000000000000000000000000000000000000000000500000000000000000000000000000000000000000000000000000000000000a00000000000000000000000000000000000000000000000000000000000000160000000000000000000000000000000000000000000000000000000000000022000000000000000000000000000000000000000000000000000000000000002e000000000000000000000000000000000000000000000000000000000000003a000000000000000000000000000000000000000000000000000000000000000861517200903530300035303000253015301fa01530300015301fa01530300025303530300035303000253030003530300035302000300015301fa01530300015301fa01530200030003530300035302000253040003530300025302530400015301fa0153030002530253040003530300025303000353030003530200030003fa030003fa02000000000000000000000000000000000000000000000000000000000000000000000000000000000000000000000000000000000000000000009e151720090200020302000203020002030200020002030200020302000203020002030200020302000203020002030203020002030200020302000203030001030200020302000203020003000103020002030200020302000203020002030200020302000203020302000203020002030200020303000103020002030200020302000300010302000203020002030200020c0200020c0200020c0200020c0000000000000000000000000000000000000000000000000000000000000000009e15172009023502000235020002350200023502350200023502000235020002350200023502000235020002350200020002350200023502000235020002350200023502000235020002350235020002350200023502000235030001350200023502000235020003000135020002350200023502000235020002350200023502000235023502000235020002350200023503000122020002220200022202000000000000000000000000000000000000000000000000000000000000000000009e15172009020002930200029302000293020002000293020002930200029302000293020002930200029302000293029302000293020002930200029303000193020002930200029302000300019302000293020002930200029302000293020002930200029302930200029302000293020002930300019302000293020002930200030001930200029302000293020002670200026702000267020002670000000000000000000000000000000000000000000000000000000000000000002a18131e0d030002300100020d0200010d01c10100040d01000200020d02000200010d0300020001c1030000000000000000000000000000000000000000000000",
        "nonce": "0xc7",
        "chainId": "0x2105"
      },
      "additionalContracts": [
        {
          "transactionType": "CREATE",
          "contractName": null,
          "address": "0x022685766bb64cf658bb2c3d6439d80c7202ae84",
          "initCode": "0x61008780600c6000396000f3001517200903530300035303000253015301fa01530300015301fa01530300025303530300035303000253030003530300035302000300015301fa01530300015301fa01530200030003530300035302000253040003530300025302530400015301fa0153030002530253040003530300025303000353030003530200030003fa030003fa0200"
        },
        {
          "transactionType": "CREATE",
          "contractName": null,
          "address": "0x8bb54eb6e544d5a087bb6f0782514f770d0cb6f7",
          "initCode": "0x61009f80600c6000396000f300151720090200020302000203020002030200020002030200020302000203020002030200020302000203020002030203020002030200020302000203030001030200020302000203020003000103020002030200020302000203020002030200020302000203020302000203020002030200020303000103020002030200020302000300010302000203020002030200020c0200020c0200020c0200020c"
        },
        {
          "transactionType": "CREATE",
          "contractName": null,
          "address": "0xf95d321ab9e0738de0501bdb3173000222570131",
          "initCode": "0x61009f80600c6000396000f3001517200902350200023502000235020002350235020002350200023502000235020002350200023502000235020002000235020002350200023502000235020002350200023502000235023502000235020002350200023503000135020002350200023502000300013502000235020002350200023502000235020002350200023502350200023502000235020002350300012202000222020002220200"
        },
        {
          "transactionType": "CREATE",
          "contractName": null,
          "address": "0x62c55c031bf9da964e7eb65f91eec85c00332f24",
          "initCode": "0x61009f80600c6000396000f3001517200902000293020002930200029302000200029302000293020002930200029302000293020002930200029302930200029302000293020002930300019302000293020002930200030001930200029302000293020002930200029302000293020002930293020002930200029302000293030001930200029302000293020003000193020002930200029302000267020002670200026702000267"
        },
        {
          "transactionType": "CREATE",
          "contractName": null,
          "address": "0xd2617409ea7716eb1312c03b957e7a08f07815e2",
          "initCode": "0x61002b80600c6000396000f30018131e0d030002300100020d0200010d01c10100040d01000200020d02000200010d0300020001c10300"
        }
      ],
      "isFixedGasLimit": false
    },
    {
      "hash": "0x4796ef8d625f5eb3390f05e78ffe055d945be8521bb9720cc82f709e9547151b",
      "transactionType": "CALL",
      "contractName": null,
      "contractAddress": "0xd29f7491e2269ba1f6f7b89ff3bbe6a65301e9af",
      "function": "addManyAccessories(bytes[])",
      "arguments": [
        "[0x18131b0d0200030d01000100010d0302010d060d, 0x17151f0d02000294040002000194014e0194030001000194010001940100029401000194014e019401000194014e0194010002940100019401000194020002000194014e019403000200029401000194020006000294, 0x151718090e5301170c0a01170e88, 0x18141d0d0500012801000100032801030111013b012801000128010c011101280100012801000128023b0128010002000128020001280100, 0x151720090e6002000160045c016003000160015c016002000160055c0360015c0160010001000260015c0160035c026001000260010002600100016001000160015c016002000460026001000360025c0360030001600200016002000160015c0160050003000560015c0260030003000160040002600100026001000100016001000560025c0160025c016003000b5c]"
      ],
      "transaction": {
        "from": "0xf17b5dd382b048ff4c05c1c9e4e24cfc5c6adad9",
        "to": "0xd29f7491e2269ba1f6f7b89ff3bbe6a65301e9af",
        "gas": "0x8143d",
        "value": "0x0",
        "input": "0x0475d8630000000000000000000000000000000000000000000000000000000000000020000000000000000000000000000000000000000000000000000000000000000500000000000000000000000000000000000000000000000000000000000000a000000000000000000000000000000000000000000000000000000000000000e0000000000000000000000000000000000000000000000000000000000000016000000000000000000000000000000000000000000000000000000000000001a00000000000000000000000000000000000000000000000000000000000000200000000000000000000000000000000000000000000000000000000000000001418131b0d0200030d01000100010d0302010d060d000000000000000000000000000000000000000000000000000000000000000000000000000000000000005617151f0d02000294040002000194014e0194030001000194010001940100029401000194014e019401000194014e0194010002940100019401000194020002000194014e01940300020002940100019402000600029400000000000000000000000000000000000000000000000000000000000000000000000000000000000e151718090e5301170c0a01170e88000000000000000000000000000000000000000000000000000000000000000000000000000000000000000000000000003818141d0d0500012801000100032801030111013b012801000128010c011101280100012801000128023b012801000200012802000128010000000000000000000000000000000000000000000000000000000000000000000000000000000090151720090e6002000160045c016003000160015c016002000160055c0360015c0160010001000260015c0160035c026001000260010002600100016001000160015c016002000460026001000360025c0360030001600200016002000160015c0160050003000560015c0260030003000160040002600100026001000100016001000560025c0160025c016003000b5c00000000000000000000000000000000",
        "nonce": "0xc8",
        "chainId": "0x2105"
      },
      "additionalContracts": [
        {
          "transactionType": "CREATE",
          "contractName": null,
          "address": "0x2310d984304fc8ab6fdc4d770fa06a35212d1b6f",
          "initCode": "0x61001580600c6000396000f30018131b0d0200030d01000100010d0302010d060d"
        },
        {
          "transactionType": "CREATE",
          "contractName": null,
          "address": "0xb6ccff88a8e5302c0a42eea6f883d8319ccab425",
          "initCode": "0x61005780600c6000396000f30017151f0d02000294040002000194014e0194030001000194010001940100029401000194014e019401000194014e0194010002940100019401000194020002000194014e019403000200029401000194020006000294"
        },
        {
          "transactionType": "CREATE",
          "contractName": null,
          "address": "0x11b17055a41c7426b86ec7fc554cdafee1270605",
          "initCode": "0x61000f80600c6000396000f300151718090e5301170c0a01170e88"
        },
        {
          "transactionType": "CREATE",
          "contractName": null,
          "address": "0xae30bf7358a0ab6997d3ab3f3fdb6a2dbe99d4f9",
          "initCode": "0x61003980600c6000396000f30018141d0d0500012801000100032801030111013b012801000128010c011101280100012801000128023b0128010002000128020001280100"
        },
        {
          "transactionType": "CREATE",
          "contractName": null,
          "address": "0x508f245d172d68594d3e142740b024ef0e5dcb6f",
          "initCode": "0x61009180600c6000396000f300151720090e6002000160045c016003000160015c016002000160055c0360015c0160010001000260015c0160035c026001000260010002600100016001000160015c016002000460026001000360025c0360030001600200016002000160015c0160050003000560015c0260030003000160040002600100026001000100016001000560025c0160025c016003000b5c"
        }
      ],
      "isFixedGasLimit": false
    },
    {
      "hash": "0x626e552c315227bdb91d52ef8f1897c50dab01e55b8c8431f9eb77bb1af7872c",
      "transactionType": "CALL",
      "contractName": null,
      "contractAddress": "0xd29f7491e2269ba1f6f7b89ff3bbe6a65301e9af",
      "function": "addManyAccessories(bytes[])",
      "arguments": [
        "[0x151720090e6001d201db065c03db025c01600188011d0b5c01880188015c0160075c011d025c0188026001000160017a035c027a035c0160026001000160075c027a018e0160015701000160026d035c046d0157025701000160075c026d01570231010001600410025c0110025c01310131016001000160095c016002bd01000b5c, 0x17131e0d020003dc0100020001dc010001dc0100020002dc016d01dc020001dc016d01dc010001dc010001dc016d01dc010003dc016d02dc030001dc0200, 0x15141f0c0117060001170117060001170100011704000117010002000417020003000217030002000117010a0217020002000217040004000217020002000217010a01170200030002170300, 0x17141f0d02570100035701000100035701000257025703000157010003000357010001000257040001570300025701000100035702000157020001570400, 0x18131b0e01ba010002ba0100010001ba02360180010003ba0100]"
      ],
      "transaction": {
        "from": "0xf17b5dd382b048ff4c05c1c9e4e24cfc5c6adad9",
        "to": "0xd29f7491e2269ba1f6f7b89ff3bbe6a65301e9af",
        "gas": "0x8bb07",
        "value": "0x0",
        "input": "0x0475d8630000000000000000000000000000000000000000000000000000000000000020000000000000000000000000000000000000000000000000000000000000000500000000000000000000000000000000000000000000000000000000000000a0000000000000000000000000000000000000000000000000000000000000016000000000000000000000000000000000000000000000000000000000000001c0000000000000000000000000000000000000000000000000000000000000024000000000000000000000000000000000000000000000000000000000000002a00000000000000000000000000000000000000000000000000000000000000082151720090e6001d201db065c03db025c01600188011d0b5c01880188015c0160075c011d025c0188026001000160017a035c027a035c0160026001000160075c027a018e0160015701000160026d035c046d0157025701000160075c026d01570231010001600410025c0110025c01310131016001000160095c016002bd01000b5c000000000000000000000000000000000000000000000000000000000000000000000000000000000000000000000000000000000000000000000000003e17131e0d020003dc0100020001dc010001dc0100020002dc016d01dc020001dc016d01dc010001dc010001dc016d01dc010003dc016d02dc030001dc02000000000000000000000000000000000000000000000000000000000000000000004c15141f0c0117060001170117060001170100011704000117010002000417020003000217030002000117010a0217020002000217040004000217020002000217010a011702000300021703000000000000000000000000000000000000000000000000000000000000000000000000000000000000000000000000000000003e17141f0d025701000357010001000357010002570257030001570100030003570100010002570400015703000257010001000357020001570200015704000000000000000000000000000000000000000000000000000000000000000000001a18131b0e01ba010002ba0100010001ba02360180010003ba0100000000000000",
        "nonce": "0xc9",
        "chainId": "0x2105"
      },
      "additionalContracts": [
        {
          "transactionType": "CREATE",
          "contractName": null,
          "address": "0x267e403222826f112cff7e2d6c108f228597312b",
          "initCode": "0x61008380600c6000396000f300151720090e6001d201db065c03db025c01600188011d0b5c01880188015c0160075c011d025c0188026001000160017a035c027a035c0160026001000160075c027a018e0160015701000160026d035c046d0157025701000160075c026d01570231010001600410025c0110025c01310131016001000160095c016002bd01000b5c"
        },
        {
          "transactionType": "CREATE",
          "contractName": null,
          "address": "0x60f4f96676d2588e821eb6074e6157199c97deef",
          "initCode": "0x61003f80600c6000396000f30017131e0d020003dc0100020001dc010001dc0100020002dc016d01dc020001dc016d01dc010001dc010001dc016d01dc010003dc016d02dc030001dc0200"
        },
        {
          "transactionType": "CREATE",
          "contractName": null,
          "address": "0x5e6bb6404fc25517d01f891f737b612da10e7784",
          "initCode": "0x61004d80600c6000396000f30015141f0c0117060001170117060001170100011704000117010002000417020003000217030002000117010a0217020002000217040004000217020002000217010a01170200030002170300"
        },
        {
          "transactionType": "CREATE",
          "contractName": null,
          "address": "0xd3d53872f4a1c013a373aa442b2f08d5663a436a",
          "initCode": "0x61003f80600c6000396000f30017141f0d02570100035701000100035701000257025703000157010003000357010001000257040001570300025701000100035702000157020001570400"
        },
        {
          "transactionType": "CREATE",
          "contractName": null,
          "address": "0x8a5d89c9c8541565d3195cb6a045310db705e411",
          "initCode": "0x61001b80600c6000396000f30018131b0e01ba010002ba0100010001ba02360180010003ba0100"
        }
      ],
      "isFixedGasLimit": false
    },
    {
      "hash": "0x089b5ebd41bdca6e873bb0de7b8e24d0aface02f0aca6058cc3764933fb083c2",
      "transactionType": "CALL",
      "contractName": null,
      "contractAddress": "0xd29f7491e2269ba1f6f7b89ff3bbe6a65301e9af",
      "function": "addManyAccessories(bytes[])",
      "arguments": [
        "[0x18131e0e02000131020002000131020001000331010001fb033101fb01000131015a01310100020001310200, 0x18151d0d020004fb0200010001fb010002fb010001fb010001fb020002fb020001fb010001fb040001fb0100020004fb0200, 0x17151e0d0100010d06000200020d04000300030d0200030d0202030d0200030d03000400020d02000600010d0100, 0x17131e0e011701900117019001170117013c010a013c01170177032701770177030a01770177020a012701770177010a022701770577, 0x18161b0d070302000103010c010301000103020c020303030100030301000103]"
      ],
      "transaction": {
        "from": "0xf17b5dd382b048ff4c05c1c9e4e24cfc5c6adad9",
        "to": "0xd29f7491e2269ba1f6f7b89ff3bbe6a65301e9af",
        "gas": "0x7a5bf",
        "value": "0x0",
        "input": "0x0475d8630000000000000000000000000000000000000000000000000000000000000020000000000000000000000000000000000000000000000000000000000000000500000000000000000000000000000000000000000000000000000000000000a00000000000000000000000000000000000000000000000000000000000000100000000000000000000000000000000000000000000000000000000000000016000000000000000000000000000000000000000000000000000000000000001c00000000000000000000000000000000000000000000000000000000000000220000000000000000000000000000000000000000000000000000000000000002c18131e0e02000131020002000131020001000331010001fb033101fb01000131015a013101000200013102000000000000000000000000000000000000000000000000000000000000000000000000000000000000000000000000000000003218151d0d020004fb0200010001fb010002fb010001fb010001fb020002fb020001fb010001fb040001fb0100020004fb02000000000000000000000000000000000000000000000000000000000000000000000000000000000000000000002e17151e0d0100010d06000200020d04000300030d0200030d0202030d0200030d03000400020d02000600010d0100000000000000000000000000000000000000000000000000000000000000000000000000000000000000000000000000003617131e0e011701900117019001170117013c010a013c01170177032701770177030a01770177020a012701770177010a02270177057700000000000000000000000000000000000000000000000000000000000000000000000000000000002018161b0d070302000103010c010301000103020c020303030100030301000103",
        "nonce": "0xca",
        "chainId": "0x2105"
      },
      "additionalContracts": [
        {
          "transactionType": "CREATE",
          "contractName": null,
          "address": "0xefad8373cb66233c9b3abdf79b37bcf98b148899",
          "initCode": "0x61002d80600c6000396000f30018131e0e02000131020002000131020001000331010001fb033101fb01000131015a01310100020001310200"
        },
        {
          "transactionType": "CREATE",
          "contractName": null,
          "address": "0x5b478fabd8aced4271bf5f859863cf68fc84f812",
          "initCode": "0x61003380600c6000396000f30018151d0d020004fb0200010001fb010002fb010001fb010001fb020002fb020001fb010001fb040001fb0100020004fb0200"
        },
        {
          "transactionType": "CREATE",
          "contractName": null,
          "address": "0x2bcd28b864acd7c60d0e52a540ee0a6a1b8b2cc9",
          "initCode": "0x61002f80600c6000396000f30017151e0d0100010d06000200020d04000300030d0200030d0202030d0200030d03000400020d02000600010d0100"
        },
        {
          "transactionType": "CREATE",
          "contractName": null,
          "address": "0xfcaba7d452b0be850d841a1ac8222b08bbe64db8",
          "initCode": "0x61003780600c6000396000f30017131e0e011701900117019001170117013c010a013c01170177032701770177030a01770177020a012701770177010a022701770577"
        },
        {
          "transactionType": "CREATE",
          "contractName": null,
          "address": "0x044bb704603b3b4fbc0a8b38ab0689b57e9d4fb2",
          "initCode": "0x61002180600c6000396000f30018161b0d070302000103010c010301000103020c020303030100030301000103"
        }
      ],
      "isFixedGasLimit": false
    },
    {
      "hash": "0x1552729f85a240b73168fa0d7f48093519b2dc5a887693994f534f044c3c3231",
      "transactionType": "CALL",
      "contractName": null,
      "contractAddress": "0xd29f7491e2269ba1f6f7b89ff3bbe6a65301e9af",
      "function": "addManyAccessories(bytes[])",
      "arguments": [
        "[0x18161b0d07c9020001c9010001c9010001c9010003c903c9010003c9010001c9, 0x17141e0d07c901c9010002c9010002c9020002c9010002c907000794019401000294010002940200029401000294, 0x19121c0f018e0100018e018e02c1028e01c1, 0x15171d090e8e038e01c8018e0100018e01c8028e01c8018e01c8018e018e0200018e0200028e0200018e0100028e018e0500018e0500018e01000600018e0300018e0100018e0100018e0b00018e01000600018e07000600018e0700, 0x16171f0901b0010001b0010001b0010001b0010001b0010001b0010001b001000e00010001b0010001b0010001b0010001b0010001b0010001b0010001b00e0001b0030001b0010001b0010001b0010001b0010001b001000e00010001b0010001b0010001b0010001b0010001b0010001b0010001b00e0001b0030001b0010001b0010001b0010001b0010001b00100]"
      ],
      "transaction": {
        "from": "0xf17b5dd382b048ff4c05c1c9e4e24cfc5c6adad9",
        "to": "0xd29f7491e2269ba1f6f7b89ff3bbe6a65301e9af",
        "gas": "0x8215f",
        "value": "0x0",
        "input": "0x0475d8630000000000000000000000000000000000000000000000000000000000000020000000000000000000000000000000000000000000000000000000000000000500000000000000000000000000000000000000000000000000000000000000a000000000000000000000000000000000000000000000000000000000000000e0000000000000000000000000000000000000000000000000000000000000014000000000000000000000000000000000000000000000000000000000000001800000000000000000000000000000000000000000000000000000000000000200000000000000000000000000000000000000000000000000000000000000002018161b0d07c9020001c9010001c9010001c9010003c903c9010003c9010001c9000000000000000000000000000000000000000000000000000000000000002e17141e0d07c901c9010002c9010002c9020002c9010002c907000794019401000294010002940200029401000294000000000000000000000000000000000000000000000000000000000000000000000000000000000000000000000000001219121c0f018e0100018e018e02c1028e01c10000000000000000000000000000000000000000000000000000000000000000000000000000000000000000005c15171d090e8e038e01c8018e0100018e01c8028e01c8018e01c8018e018e0200018e0200028e0200018e0100028e018e0500018e0500018e01000600018e0300018e0100018e0100018e0b00018e01000600018e07000600018e070000000000000000000000000000000000000000000000000000000000000000000000009016171f0901b0010001b0010001b0010001b0010001b0010001b0010001b001000e00010001b0010001b0010001b0010001b0010001b0010001b0010001b00e0001b0030001b0010001b0010001b0010001b0010001b001000e00010001b0010001b0010001b0010001b0010001b0010001b0010001b00e0001b0030001b0010001b0010001b0010001b0010001b0010000000000000000000000000000000000",
        "nonce": "0xcb",
        "chainId": "0x2105"
      },
      "additionalContracts": [
        {
          "transactionType": "CREATE",
          "contractName": null,
          "address": "0xc07b6d4ed249c54a2ea1f5667ff77e23a3e26510",
          "initCode": "0x61002180600c6000396000f30018161b0d07c9020001c9010001c9010001c9010003c903c9010003c9010001c9"
        },
        {
          "transactionType": "CREATE",
          "contractName": null,
          "address": "0x93c50ff588c77392ab48a81578dd944b4cb71fae",
          "initCode": "0x61002f80600c6000396000f30017141e0d07c901c9010002c9010002c9020002c9010002c907000794019401000294010002940200029401000294"
        },
        {
          "transactionType": "CREATE",
          "contractName": null,
          "address": "0x3d6317ce8c9174dc311d8deb86450a476a6c675c",
          "initCode": "0x61001380600c6000396000f30019121c0f018e0100018e018e02c1028e01c1"
        },
        {
          "transactionType": "CREATE",
          "contractName": null,
          "address": "0xdab3328d9693bca64f744be32f44fbddb58f6cfa",
          "initCode": "0x61005d80600c6000396000f30015171d090e8e038e01c8018e0100018e01c8028e01c8018e01c8018e018e0200018e0200028e0200018e0100028e018e0500018e0500018e01000600018e0300018e0100018e0100018e0b00018e01000600018e07000600018e0700"
        },
        {
          "transactionType": "CREATE",
          "contractName": null,
          "address": "0xaf1d865f4b6ba481575a717c8573e1fa9356dc82",
          "initCode": "0x61009180600c6000396000f30016171f0901b0010001b0010001b0010001b0010001b0010001b0010001b001000e00010001b0010001b0010001b0010001b0010001b0010001b0010001b00e0001b0030001b0010001b0010001b0010001b0010001b001000e00010001b0010001b0010001b0010001b0010001b0010001b0010001b00e0001b0030001b0010001b0010001b0010001b0010001b00100"
        }
      ],
      "isFixedGasLimit": false
    },
    {
      "hash": "0xb8000f2a317fc731298a04198477a7c05c1794ec01dad1e00980dd683cea9783",
      "transactionType": "CALL",
      "contractName": null,
      "contractAddress": "0xd29f7491e2269ba1f6f7b89ff3bbe6a65301e9af",
      "function": "addManyAccessories(bytes[])",
      "arguments": [
        "[0x18141e0d01000273010002730100017302f7017302f70173017305f701730100017303f7017301000200017301f701730200030001730300, 0x16121c0f010d0100010d010d0100010d010d0100010d010d010001b1010d020001b10200, 0x17151b100200010d02000217010a0217010d0302010d050d, 0x17141f0d0100023f0400013f0200013f0300013f06000100033f03000300033f01000600013f0300013f0200013f0400023f0100, 0x16131e0e020001cd0200010001cd016a01cd0100020001cd0200010001cd01e301cd010001cd036a01cd01cd01e3026a01cd01cd036a01cd010003cd0100]"
      ],
      "transaction": {
        "from": "0xf17b5dd382b048ff4c05c1c9e4e24cfc5c6adad9",
        "to": "0xd29f7491e2269ba1f6f7b89ff3bbe6a65301e9af",
        "gas": "0x7a9c9",
        "value": "0x0",
        "input": "0x0475d8630000000000000000000000000000000000000000000000000000000000000020000000000000000000000000000000000000000000000000000000000000000500000000000000000000000000000000000000000000000000000000000000a00000000000000000000000000000000000000000000000000000000000000100000000000000000000000000000000000000000000000000000000000000016000000000000000000000000000000000000000000000000000000000000001a00000000000000000000000000000000000000000000000000000000000000200000000000000000000000000000000000000000000000000000000000000003818141e0d01000273010002730100017302f7017302f70173017305f701730100017303f7017301000200017301f7017302000300017303000000000000000000000000000000000000000000000000000000000000000000000000000000002416121c0f010d0100010d010d0100010d010d0100010d010d010001b1010d020001b1020000000000000000000000000000000000000000000000000000000000000000000000000000000000000000000000000000000000000000000000001817151b100200010d02000217010a0217010d0302010d050d0000000000000000000000000000000000000000000000000000000000000000000000000000003417141f0d0100023f0400013f0200013f0300013f06000100033f03000300033f01000600013f0300013f0200013f0400023f0100000000000000000000000000000000000000000000000000000000000000000000000000000000000000003e16131e0e020001cd0200010001cd016a01cd0100020001cd0200010001cd01e301cd010001cd036a01cd01cd01e3026a01cd01cd036a01cd010003cd01000000",
        "nonce": "0xcc",
        "chainId": "0x2105"
      },
      "additionalContracts": [
        {
          "transactionType": "CREATE",
          "contractName": null,
          "address": "0xb0139fcfb4aa70060ec06be5d2ba7c8963a62a36",
          "initCode": "0x61003980600c6000396000f30018141e0d01000273010002730100017302f7017302f70173017305f701730100017303f7017301000200017301f701730200030001730300"
        },
        {
          "transactionType": "CREATE",
          "contractName": null,
          "address": "0x315a8f77a7ac1d740fd0fd488370a5995ee81a2d",
          "initCode": "0x61002580600c6000396000f30016121c0f010d0100010d010d0100010d010d0100010d010d010001b1010d020001b10200"
        },
        {
          "transactionType": "CREATE",
          "contractName": null,
          "address": "0xfa9ce50432d5c3da58a1e63312685f117e5454a7",
          "initCode": "0x61001980600c6000396000f30017151b100200010d02000217010a0217010d0302010d050d"
        },
        {
          "transactionType": "CREATE",
          "contractName": null,
          "address": "0xebc26cb5f7682ecafbc336dc37a01a28e98473bb",
          "initCode": "0x61003580600c6000396000f30017141f0d0100023f0400013f0200013f0300013f06000100033f03000300033f01000600013f0300013f0200013f0400023f0100"
        },
        {
          "transactionType": "CREATE",
          "contractName": null,
          "address": "0x13879ffc2bc87f3200060280d895b413345bbccf",
          "initCode": "0x61003f80600c6000396000f30016131e0e020001cd0200010001cd016a01cd0100020001cd0200010001cd01e301cd010001cd036a01cd01cd01e3026a01cd01cd036a01cd010003cd0100"
        }
      ],
      "isFixedGasLimit": false
    },
    {
      "hash": "0xdbbb27c13ab6f6bde35bc97d80e11cdfd2a04474873de1e5a61ccd02007a4e1e",
      "transactionType": "CALL",
      "contractName": null,
      "contractAddress": "0xd29f7491e2269ba1f6f7b89ff3bbe6a65301e9af",
      "function": "addManyAccessories(bytes[])",
      "arguments": [
        "[0x18141e0d030004400200014003dc01400200014003dc01400200014003dc014002000440010002400500, 0x17121d0e0492019202de0192019202de0192010002920100010002d80100010002d80100, 0x1517200902000157020001570200015702000157020001400200014002000140020001400200014001000100015702000157020001570200015702000157020001400200014002000140020001400200015702000157020001570200015702000157010001000140020001400200014002000140020001400500015702000157020001570200014002000140020001400200014002000140010001000157020001570200015702000157020001570500014002000140020001400200016d0200016d0200016d0200016d0200016d0100, 0x15172009020001b9020001b9020001b9020001b9020001b9020001b9020001b9020001b9020001b90100010001b9020001b9020001b9020001b9020001b9020001b9020001b9020001b9020001b9020001b9020001b9020001b9020001b9020001b90100010001b9020001b9020001b9020001b9020001b9050001b9020001b9020001b9020001b9020001b9020001b9020001b9020001b90100010001b9020001b9020001b9020001b9020001b9050001b9020001b9020001b90200019d0200019d0200019d0200019d0200019d0100, 0x17141e0d011301da030001da011302da030002da0100011301da010001da01130100020003da02000200011301da01130200020003da0200030001130300]"
      ],
      "transaction": {
        "from": "0xf17b5dd382b048ff4c05c1c9e4e24cfc5c6adad9",
        "to": "0xd29f7491e2269ba1f6f7b89ff3bbe6a65301e9af",
        "gas": "0x9294f",
        "value": "0x0",
        "input": "0x0475d8630000000000000000000000000000000000000000000000000000000000000020000000000000000000000000000000000000000000000000000000000000000500000000000000000000000000000000000000000000000000000000000000a00000000000000000000000000000000000000000000000000000000000000100000000000000000000000000000000000000000000000000000000000000016000000000000000000000000000000000000000000000000000000000000002600000000000000000000000000000000000000000000000000000000000000360000000000000000000000000000000000000000000000000000000000000002a18141e0d030004400200014003dc01400200014003dc01400200014003dc01400200044001000240050000000000000000000000000000000000000000000000000000000000000000000000000000000000000000000000000000000000002417121d0e0492019202de0192019202de0192010002920100010002d80100010002d801000000000000000000000000000000000000000000000000000000000000000000000000000000000000000000000000000000000000000000000000d01517200902000157020001570200015702000157020001400200014002000140020001400200014001000100015702000157020001570200015702000157020001400200014002000140020001400200015702000157020001570200015702000157010001000140020001400200014002000140020001400500015702000157020001570200014002000140020001400200014002000140010001000157020001570200015702000157020001570500014002000140020001400200016d0200016d0200016d0200016d0200016d01000000000000000000000000000000000000000000000000000000000000000000000000000000000000000000000000d015172009020001b9020001b9020001b9020001b9020001b9020001b9020001b9020001b9020001b90100010001b9020001b9020001b9020001b9020001b9020001b9020001b9020001b9020001b9020001b9020001b9020001b9020001b9020001b90100010001b9020001b9020001b9020001b9020001b9050001b9020001b9020001b9020001b9020001b9020001b9020001b9020001b90100010001b9020001b9020001b9020001b9020001b9050001b9020001b9020001b90200019d0200019d0200019d0200019d0200019d010000000000000000000000000000000000000000000000000000000000000000000000000000000000000000000000003e17141e0d011301da030001da011302da030002da0100011301da010001da01130100020003da02000200011301da01130200020003da02000300011303000000",
        "nonce": "0xcd",
        "chainId": "0x2105"
      },
      "additionalContracts": [
        {
          "transactionType": "CREATE",
          "contractName": null,
          "address": "0xade86910183860023e478e9cce96b26e026acbd0",
          "initCode": "0x61002b80600c6000396000f30018141e0d030004400200014003dc01400200014003dc01400200014003dc014002000440010002400500"
        },
        {
          "transactionType": "CREATE",
          "contractName": null,
          "address": "0x5bf86941df5e8d40275df020db62ff33363d162f",
          "initCode": "0x61002580600c6000396000f30017121d0e0492019202de0192019202de0192010002920100010002d80100010002d80100"
        },
        {
          "transactionType": "CREATE",
          "contractName": null,
          "address": "0xacf743aac49209974443a598b494db30c9a79d12",
          "initCode": "0x6100d180600c6000396000f3001517200902000157020001570200015702000157020001400200014002000140020001400200014001000100015702000157020001570200015702000157020001400200014002000140020001400200015702000157020001570200015702000157010001000140020001400200014002000140020001400500015702000157020001570200014002000140020001400200014002000140010001000157020001570200015702000157020001570500014002000140020001400200016d0200016d0200016d0200016d0200016d0100"
        },
        {
          "transactionType": "CREATE",
          "contractName": null,
          "address": "0x8008adaa84394a9a9d88e959d1498bba57bb5d1c",
          "initCode": "0x6100d180600c6000396000f30015172009020001b9020001b9020001b9020001b9020001b9020001b9020001b9020001b9020001b90100010001b9020001b9020001b9020001b9020001b9020001b9020001b9020001b9020001b9020001b9020001b9020001b9020001b9020001b90100010001b9020001b9020001b9020001b9020001b9050001b9020001b9020001b9020001b9020001b9020001b9020001b9020001b90100010001b9020001b9020001b9020001b9020001b9050001b9020001b9020001b90200019d0200019d0200019d0200019d0200019d0100"
        },
        {
          "transactionType": "CREATE",
          "contractName": null,
          "address": "0xce7fe48e5fadf85f11b8f431d4c068c1e2ad133a",
          "initCode": "0x61003f80600c6000396000f30017141e0d011301da030001da011302da030002da0100011301da010001da01130100020003da02000200011301da01130200020003da0200030001130300"
        }
      ],
      "isFixedGasLimit": false
    },
    {
      "hash": "0xd548e2af9ab78e3964190df2bdaa814e2a78a1a84aa6cde680a676462a304762",
      "transactionType": "CALL",
      "contractName": null,
      "contractAddress": "0xd29f7491e2269ba1f6f7b89ff3bbe6a65301e9af",
      "function": "addManyAccessories(bytes[])",
      "arguments": [
        "[0x16161f0d03000303030001000203030c0203010001000103050c010301000103020c0102010d0102020c01030103020c010d0100010d020c01030103020c0102010d0102020c010301000103050c0103010001000203030c02030100030003030300, 0x18131e0e040001030203010002030300020302000103010c0103030002030503, 0x18131d0e013f0100013f0100013f0500013f0100013f0100013f0500013f0100013f0100013f, 0x17131e0e055e015e0100015e0100015e0100015e0100015e0100015e0100015e0100015e0100015e0100015e0100035e0100015e015e0100035e, 0x00000000]"
      ],
      "transaction": {
        "from": "0xf17b5dd382b048ff4c05c1c9e4e24cfc5c6adad9",
        "to": "0xd29f7491e2269ba1f6f7b89ff3bbe6a65301e9af",
        "gas": "0x7abb2",
        "value": "0x0",
        "input": "0x0475d8630000000000000000000000000000000000000000000000000000000000000020000000000000000000000000000000000000000000000000000000000000000500000000000000000000000000000000000000000000000000000000000000a00000000000000000000000000000000000000000000000000000000000000140000000000000000000000000000000000000000000000000000000000000018000000000000000000000000000000000000000000000000000000000000001e00000000000000000000000000000000000000000000000000000000000000240000000000000000000000000000000000000000000000000000000000000006216161f0d03000303030001000203030c0203010001000103050c010301000103020c0102010d0102020c01030103020c010d0100010d020c01030103020c0102010d0102020c010301000103050c0103010001000203030c02030100030003030300000000000000000000000000000000000000000000000000000000000000000000000000000000000000000000000000000000000000000000000000002018131e0e040001030203010002030300020302000103010c0103030002030503000000000000000000000000000000000000000000000000000000000000002618131d0e013f0100013f0100013f0500013f0100013f0100013f0500013f0100013f0100013f0000000000000000000000000000000000000000000000000000000000000000000000000000000000000000000000000000000000000000003a17131e0e055e015e0100015e0100015e0100015e0100015e0100015e0100015e0100015e0100015e0100015e0100035e0100015e015e0100035e00000000000000000000000000000000000000000000000000000000000000000000000000040000000000000000000000000000000000000000000000000000000000000000",
        "nonce": "0xce",
        "chainId": "0x2105"
      },
      "additionalContracts": [
        {
          "transactionType": "CREATE",
          "contractName": null,
          "address": "0x97d0933a1a5444b1bfa6a4d649e84978455db8c3",
          "initCode": "0x61006380600c6000396000f30016161f0d03000303030001000203030c0203010001000103050c010301000103020c0102010d0102020c01030103020c010d0100010d020c01030103020c0102010d0102020c010301000103050c0103010001000203030c02030100030003030300"
        },
        {
          "transactionType": "CREATE",
          "contractName": null,
          "address": "0x58f532ba349d3493e13b8cd1c2a2e2ebb2241d5b",
          "initCode": "0x61002180600c6000396000f30018131e0e040001030203010002030300020302000103010c0103030002030503"
        },
        {
          "transactionType": "CREATE",
          "contractName": null,
          "address": "0x84f4394c8c116b534a3a4d79831a1f294662d12b",
          "initCode": "0x61002780600c6000396000f30018131d0e013f0100013f0100013f0500013f0100013f0100013f0500013f0100013f0100013f"
        },
        {
          "transactionType": "CREATE",
          "contractName": null,
          "address": "0xc4a64e9024bf3ff75b80e31c4919eddb7fa7aeef",
          "initCode": "0x61003b80600c6000396000f30017131e0e055e015e0100015e0100015e0100015e0100015e0100015e0100015e0100015e0100015e0100015e0100035e0100015e015e0100035e"
        },
        {
          "transactionType": "CREATE",
          "contractName": null,
          "address": "0x0393060923b89752ed56a96fb5171b021c4a3e94",
          "initCode": "0x61000580600c6000396000f30000000000"
        }
      ],
      "isFixedGasLimit": false
    },
    {
      "hash": "0x8d03d4d23c7ef4dc850705ff07dafc2a60f208b472c73fbd93b581ccc95d44d2",
      "transactionType": "CALL",
      "contractName": null,
      "contractAddress": "0xd29f7491e2269ba1f6f7b89ff3bbe6a65301e9af",
      "function": "addManyAccessories(bytes[])",
      "arguments": [
        "[0x151720090e7401740c2401740174032407f7022401740174012401740a24017402eb01000174012403f7022401f70224017402740100017401f7032402f70324017402eb01000174022401f70624017402740100017402f7012404f70224017402eb010001740924017402740100017407f702240174021901000b24, 0x15141e0c011706000117010001170400011701000200011702000117020003000217030003000217030002000117020a0117020002000117020a0117020001000117040a01170100010006170100, 0x17151a100100019303000100010d03000581, 0x18131e0e040001310100013102000131010001310300030001310100013102000131010001310400, 0x17171d090b000347070004ec02bd01470300048004ce034702f301000180034104ec030002f301000480070002f30c00]"
      ],
      "transaction": {
        "from": "0xf17b5dd382b048ff4c05c1c9e4e24cfc5c6adad9",
        "to": "0xd29f7491e2269ba1f6f7b89ff3bbe6a65301e9af",
        "gas": "0x87fee",
        "value": "0x0",
        "input": "0x0475d8630000000000000000000000000000000000000000000000000000000000000020000000000000000000000000000000000000000000000000000000000000000500000000000000000000000000000000000000000000000000000000000000a0000000000000000000000000000000000000000000000000000000000000014000000000000000000000000000000000000000000000000000000000000001c000000000000000000000000000000000000000000000000000000000000002000000000000000000000000000000000000000000000000000000000000000260000000000000000000000000000000000000000000000000000000000000007c151720090e7401740c2401740174032407f7022401740174012401740a24017402eb01000174012403f7022401f70224017402740100017401f7032402f70324017402eb01000174022401f70624017402740100017402f7012404f70224017402eb010001740924017402740100017407f702240174021901000b2400000000000000000000000000000000000000000000000000000000000000000000004e15141e0c011706000117010001170400011701000200011702000117020003000217030003000217030002000117020a0117020002000117020a0117020001000117040a01170100010006170100000000000000000000000000000000000000000000000000000000000000000000000000000000000000000000000000001217151a100100019303000100010d030005810000000000000000000000000000000000000000000000000000000000000000000000000000000000000000002818131e0e040001310100013102000131010001310300030001310100013102000131010001310400000000000000000000000000000000000000000000000000000000000000000000000000000000000000000000000000000000000000003017171d090b000347070004ec02bd01470300048004ce034702f301000180034104ec030002f301000480070002f30c0000000000000000000000000000000000",
        "nonce": "0xcf",
        "chainId": "0x2105"
      },
      "additionalContracts": [
        {
          "transactionType": "CREATE",
          "contractName": null,
          "address": "0x14d24d28ca065e204a755ccf0b0b684aee07f718",
          "initCode": "0x61007d80600c6000396000f300151720090e7401740c2401740174032407f7022401740174012401740a24017402eb01000174012403f7022401f70224017402740100017401f7032402f70324017402eb01000174022401f70624017402740100017402f7012404f70224017402eb010001740924017402740100017407f702240174021901000b24"
        },
        {
          "transactionType": "CREATE",
          "contractName": null,
          "address": "0x3ebcd24a04c9660eec0b9ddc560fef14290a9e9f",
          "initCode": "0x61004f80600c6000396000f30015141e0c011706000117010001170400011701000200011702000117020003000217030003000217030002000117020a0117020002000117020a0117020001000117040a01170100010006170100"
        },
        {
          "transactionType": "CREATE",
          "contractName": null,
          "address": "0xba8d76e98b10cbfd53cb1bd0f9e523d867185cf9",
          "initCode": "0x61001380600c6000396000f30017151a100100019303000100010d03000581"
        },
        {
          "transactionType": "CREATE",
          "contractName": null,
          "address": "0x1263f690112e65a871d450fca87d563d8a6b3278",
          "initCode": "0x61002980600c6000396000f30018131e0e040001310100013102000131010001310300030001310100013102000131010001310400"
        },
        {
          "transactionType": "CREATE",
          "contractName": null,
          "address": "0x9fa257fa1f2e9e0dae0b7cd4683b751a02877832",
          "initCode": "0x61003180600c6000396000f30017171d090b000347070004ec02bd01470300048004ce034702f301000180034104ec030002f301000480070002f30c00"
        }
      ],
      "isFixedGasLimit": false
    },
    {
      "hash": "0xd50fca0b2dad5e3199341d338d389e11d2966d79272dc338c8cc19a86abe269d",
      "transactionType": "CALL",
      "contractName": null,
      "contractAddress": "0xd29f7491e2269ba1f6f7b89ff3bbe6a65301e9af",
      "function": "addManyAccessories(bytes[])",
      "arguments": [
        "[0x18151f0d030002d20300020001d202da01d20200020001d202da01d202000100015d01ea02da013701350100015d03ea03370135015d02ea015d0135023701350100025d020002350100, 0x19171c0901030200010302000103020001030200010301000e00020301000b03, 0x1517200b04c1030005c101c102cc01c1030001c103cc01c101c102cc01c1030001c103cc01c101c102cc01c1030001c103cc01c1010001c7010201c7030001c7030201c7010001c7010201c7030001c7030201c7010001c7010201c7030001c7030201c7010001c7010201c7030001c7030201c7010001c101cc01c1030001c103cc01c1010001c101cc01c1030001c103cc01c1010003cc030005cc, 0x1515200c038f0300038f018f012a018f0300018f012a018f018f012a018f0300018f012a018f0103010c010303000103010c01030103010c010303000103010c01030103010c010303000103010c0103018f012a018f0300018f012a018f018f012a018f0300018f012a018f018f012a018f0300018f012a018f0103010c010303000103010c0103030c0300030c, 0x18121c0e018f0200018f0100028f01000100028f0100018f0200018f]"
      ],
      "transaction": {
        "from": "0xf17b5dd382b048ff4c05c1c9e4e24cfc5c6adad9",
        "to": "0xd29f7491e2269ba1f6f7b89ff3bbe6a65301e9af",
        "gas": "0x91b19",
        "value": "0x0",
        "input": "0x0475d8630000000000000000000000000000000000000000000000000000000000000020000000000000000000000000000000000000000000000000000000000000000500000000000000000000000000000000000000000000000000000000000000a000000000000000000000000000000000000000000000000000000000000001200000000000000000000000000000000000000000000000000000000000000160000000000000000000000000000000000000000000000000000000000000022000000000000000000000000000000000000000000000000000000000000002e0000000000000000000000000000000000000000000000000000000000000004a18151f0d030002d20300020001d202da01d20200020001d202da01d202000100015d01ea02da013701350100015d03ea03370135015d02ea015d0135023701350100025d02000235010000000000000000000000000000000000000000000000000000000000000000000000000000000000000000000000000000000000002019171c0901030200010302000103020001030200010301000e00020301000b03000000000000000000000000000000000000000000000000000000000000009c1517200b04c1030005c101c102cc01c1030001c103cc01c101c102cc01c1030001c103cc01c101c102cc01c1030001c103cc01c1010001c7010201c7030001c7030201c7010001c7010201c7030001c7030201c7010001c7010201c7030001c7030201c7010001c7010201c7030001c7030201c7010001c101cc01c1030001c103cc01c1010001c101cc01c1030001c103cc01c1010003cc030005cc00000000000000000000000000000000000000000000000000000000000000000000008e1515200c038f0300038f018f012a018f0300018f012a018f018f012a018f0300018f012a018f0103010c010303000103010c01030103010c010303000103010c01030103010c010303000103010c0103018f012a018f0300018f012a018f018f012a018f0300018f012a018f018f012a018f0300018f012a018f0103010c010303000103010c0103030c0300030c000000000000000000000000000000000000000000000000000000000000000000000000000000000000000000000000001c18121c0e018f0200018f0100028f01000100028f0100018f0200018f00000000",
        "nonce": "0xd0",
        "chainId": "0x2105"
      },
      "additionalContracts": [
        {
          "transactionType": "CREATE",
          "contractName": null,
          "address": "0x3e76c087e632afb04726ebe4f2d75bac9d4f6000",
          "initCode": "0x61004b80600c6000396000f30018151f0d030002d20300020001d202da01d20200020001d202da01d202000100015d01ea02da013701350100015d03ea03370135015d02ea015d0135023701350100025d020002350100"
        },
        {
          "transactionType": "CREATE",
          "contractName": null,
          "address": "0xcaeb234259c4d64139f2d31128c6481c68e9732e",
          "initCode": "0x61002180600c6000396000f30019171c0901030200010302000103020001030200010301000e00020301000b03"
        },
        {
          "transactionType": "CREATE",
          "contractName": null,
          "address": "0xc4c49c49bc47cf8bb215767de663dd1b66c0f5da",
          "initCode": "0x61009d80600c6000396000f3001517200b04c1030005c101c102cc01c1030001c103cc01c101c102cc01c1030001c103cc01c101c102cc01c1030001c103cc01c1010001c7010201c7030001c7030201c7010001c7010201c7030001c7030201c7010001c7010201c7030001c7030201c7010001c7010201c7030001c7030201c7010001c101cc01c1030001c103cc01c1010001c101cc01c1030001c103cc01c1010003cc030005cc"
        },
        {
          "transactionType": "CREATE",
          "contractName": null,
          "address": "0xb25f25b36338f0603d2a8e7ce5da5fd1013d342a",
          "initCode": "0x61008f80600c6000396000f3001515200c038f0300038f018f012a018f0300018f012a018f018f012a018f0300018f012a018f0103010c010303000103010c01030103010c010303000103010c01030103010c010303000103010c0103018f012a018f0300018f012a018f018f012a018f0300018f012a018f018f012a018f0300018f012a018f0103010c010303000103010c0103030c0300030c"
        },
        {
          "transactionType": "CREATE",
          "contractName": null,
          "address": "0xc4e2a8d948dad6a470aedaa62d0e9a03da5164b9",
          "initCode": "0x61001d80600c6000396000f30018121c0e018f0200018f0100028f01000100028f0100018f0200018f"
        }
      ],
      "isFixedGasLimit": false
    },
    {
      "hash": "0x930022284379c8d28e4c1e9f92ea24e6b657f6d93c51cccb67f8eb55664376c3",
      "transactionType": "CALL",
      "contractName": null,
      "contractAddress": "0xd29f7491e2269ba1f6f7b89ff3bbe6a65301e9af",
      "function": "addManyAccessories(bytes[])",
      "arguments": [
        "[0x1515200c09030103010c0103010c010301000103010c01030203010002030200020301030200010301c1030001030300020304000300020304000300020304000300020304000300010301c104000300020304000300020c0400, 0x18121d0e010002b9010001b9019d01b9010002b90200010001b90293020001930100, 0x17121e0d0200017d0100017d017d0100027d01000100017d01f4017d01000100027d0100017d017d0100017d02000300017d01000100017d0300, 0x1514180d01170500011701000117030001170100020003170200, 0x17141e0d0100010d0300010d0100020d0100010d0100020d0200010d0102010d02000100010d0302010d01000200010d0102010d0200020d0100010d0100020d0100010d0300010d0100]"
      ],
      "transaction": {
        "from": "0xf17b5dd382b048ff4c05c1c9e4e24cfc5c6adad9",
        "to": "0xd29f7491e2269ba1f6f7b89ff3bbe6a65301e9af",
        "gas": "0x85e04",
        "value": "0x0",
        "input": "0x0475d8630000000000000000000000000000000000000000000000000000000000000020000000000000000000000000000000000000000000000000000000000000000500000000000000000000000000000000000000000000000000000000000000a00000000000000000000000000000000000000000000000000000000000000120000000000000000000000000000000000000000000000000000000000000018000000000000000000000000000000000000000000000000000000000000001e00000000000000000000000000000000000000000000000000000000000000220000000000000000000000000000000000000000000000000000000000000005a1515200c09030103010c0103010c010301000103010c01030203010002030200020301030200010301c1030001030300020304000300020304000300020304000300020304000300010301c104000300020304000300020c0400000000000000000000000000000000000000000000000000000000000000000000000000002218121d0e010002b9010001b9019d01b9010002b90200010001b90293020001930100000000000000000000000000000000000000000000000000000000000000000000000000000000000000000000000000000000000000000000000000003a17121e0d0200017d0100017d017d0100027d01000100017d01f4017d01000100027d0100017d017d0100017d02000300017d01000100017d0300000000000000000000000000000000000000000000000000000000000000000000000000001a1514180d01170500011701000117030001170100020003170200000000000000000000000000000000000000000000000000000000000000000000000000004a17141e0d0100010d0300010d0100020d0100010d0100020d0200010d0102010d02000100010d0302010d01000200010d0102010d0200020d0100010d0100020d0100010d0300010d010000000000000000000000000000000000000000000000",
        "nonce": "0xd1",
        "chainId": "0x2105"
      },
      "additionalContracts": [
        {
          "transactionType": "CREATE",
          "contractName": null,
          "address": "0xd3904167805537d7fe2b97f32862956ddefae7a6",
          "initCode": "0x61005b80600c6000396000f3001515200c09030103010c0103010c010301000103010c01030203010002030200020301030200010301c1030001030300020304000300020304000300020304000300020304000300010301c104000300020304000300020c0400"
        },
        {
          "transactionType": "CREATE",
          "contractName": null,
          "address": "0xea526b29af4bd0b4a209010956887e47f8353c3e",
          "initCode": "0x61002380600c6000396000f30018121d0e010002b9010001b9019d01b9010002b90200010001b90293020001930100"
        },
        {
          "transactionType": "CREATE",
          "contractName": null,
          "address": "0xbafdeb805f0ce8a94c74c0f7e26eb6bac5e014bc",
          "initCode": "0x61003b80600c6000396000f30017121e0d0200017d0100017d017d0100027d01000100017d01f4017d01000100027d0100017d017d0100017d02000300017d01000100017d0300"
        },
        {
          "transactionType": "CREATE",
          "contractName": null,
          "address": "0xe9f94933aadf86e0f721d148cd6c676421612b4b",
          "initCode": "0x61001b80600c6000396000f3001514180d01170500011701000117030001170100020003170200"
        },
        {
          "transactionType": "CREATE",
          "contractName": null,
          "address": "0x7dd9ed8335fd09ac18df13793cbaa35acf346bf0",
          "initCode": "0x61004b80600c6000396000f30017141e0d0100010d0300010d0100020d0100010d0100020d0200010d0102010d02000100010d0302010d01000200010d0102010d0200020d0100010d0100020d0100010d0300010d0100"
        }
      ],
      "isFixedGasLimit": false
    },
    {
      "hash": "0x72536aec50501b8180df1e979b469ad21c7d7b753b8670126cbca199ac5530ab",
      "transactionType": "CALL",
      "contractName": null,
      "contractAddress": "0xd29f7491e2269ba1f6f7b89ff3bbe6a65301e9af",
      "function": "addManyAccessories(bytes[])",
      "arguments": [
        "[0x16151e0d050002530100020001530100015302fa01530400015302fa015305000253010001530100025304000200025304000800010001530600, 0x17151f0d0100015706000800020002570400015701000257040005000257010004000157026d01570200015701000157026d0157050002570100, 0x17141e0d01cb020001cb020001cb010001520100015201000152010002000352020001cb055201cb020003520200010001520100015201000152010001cb020001cb020001cb, 0x151720090e9901310c10013101ba0c3601ba018f012a018f0a2a018f020d010001030202020c0202020c0102010d020d010001030202020c0202020c0102010d02030100010d020c0202020c0202010c010302030100010d020c0202020c0202010c01030299010001990985019902310100013109100131023601000b36, 0x15171e090e3001300c1401300e300e000e000e00023001000b3002300100013009140130023001000b30]"
      ],
      "transaction": {
        "from": "0xf17b5dd382b048ff4c05c1c9e4e24cfc5c6adad9",
        "to": "0xd29f7491e2269ba1f6f7b89ff3bbe6a65301e9af",
        "gas": "0x83ca2",
        "value": "0x0",
        "input": "0x0475d8630000000000000000000000000000000000000000000000000000000000000020000000000000000000000000000000000000000000000000000000000000000500000000000000000000000000000000000000000000000000000000000000a00000000000000000000000000000000000000000000000000000000000000100000000000000000000000000000000000000000000000000000000000000016000000000000000000000000000000000000000000000000000000000000001e00000000000000000000000000000000000000000000000000000000000000280000000000000000000000000000000000000000000000000000000000000003a16151e0d050002530100020001530100015302fa01530400015302fa015305000253010001530100025304000200025304000800010001530600000000000000000000000000000000000000000000000000000000000000000000000000003a17151f0d0100015706000800020002570400015701000257040005000257010004000157026d01570200015701000157026d0157050002570100000000000000000000000000000000000000000000000000000000000000000000000000004617141e0d01cb020001cb020001cb010001520100015201000152010002000352020001cb055201cb020003520200010001520100015201000152010001cb020001cb020001cb0000000000000000000000000000000000000000000000000000000000000000000000000000000000000000000000000000000000000000007e151720090e9901310c10013101ba0c3601ba018f012a018f0a2a018f020d010001030202020c0202020c0102010d020d010001030202020c0202020c0102010d02030100010d020c0202020c0202010c010302030100010d020c0202020c0202010c01030299010001990985019902310100013109100131023601000b360000000000000000000000000000000000000000000000000000000000000000002a15171e090e3001300c1401300e300e000e000e00023001000b3002300100013009140130023001000b3000000000000000000000000000000000000000000000",
        "nonce": "0xd2",
        "chainId": "0x2105"
      },
      "additionalContracts": [
        {
          "transactionType": "CREATE",
          "contractName": null,
          "address": "0xad32ed08fc5322e69f0267ac05625a5332a0e18c",
          "initCode": "0x61003b80600c6000396000f30016151e0d050002530100020001530100015302fa01530400015302fa015305000253010001530100025304000200025304000800010001530600"
        },
        {
          "transactionType": "CREATE",
          "contractName": null,
          "address": "0xad4bf4bf745ef8c014173c0d1e4e5d9778d6c248",
          "initCode": "0x61003b80600c6000396000f30017151f0d0100015706000800020002570400015701000257040005000257010004000157026d01570200015701000157026d0157050002570100"
        },
        {
          "transactionType": "CREATE",
          "contractName": null,
          "address": "0xf40eaffddbddee7888dd7f5adc52515ec501ca24",
          "initCode": "0x61004780600c6000396000f30017141e0d01cb020001cb020001cb010001520100015201000152010002000352020001cb055201cb020003520200010001520100015201000152010001cb020001cb020001cb"
        },
        {
          "transactionType": "CREATE",
          "contractName": null,
          "address": "0x36874b5dabf3c0f52e2a87bc4a4733c5e04f0247",
          "initCode": "0x61007f80600c6000396000f300151720090e9901310c10013101ba0c3601ba018f012a018f0a2a018f020d010001030202020c0202020c0102010d020d010001030202020c0202020c0102010d02030100010d020c0202020c0202010c010302030100010d020c0202020c0202010c01030299010001990985019902310100013109100131023601000b36"
        },
        {
          "transactionType": "CREATE",
          "contractName": null,
          "address": "0xcc33b83c4dc658ac578dbc6effe37cc01fb1331f",
          "initCode": "0x61002b80600c6000396000f30015171e090e3001300c1401300e300e000e000e00023001000b3002300100013009140130023001000b30"
        }
      ],
      "isFixedGasLimit": false
    },
    {
      "hash": "0x181104f4c2b8493704dd4314d6150111ce0b5f62ec2715e1e521ef9b991adde7",
      "transactionType": "CALL",
      "contractName": null,
      "contractAddress": "0xd29f7491e2269ba1f6f7b89ff3bbe6a65301e9af",
      "function": "addManyAccessories(bytes[])",
      "arguments": [
        "[0x15171c090e3501350c3701350e350e00029301000b930e00028e01000b8e, 0x151720090e310e000e310e00023101000b310e00023101000b310e00023101000b310e00021001000b10, 0x151720090ee00e000ee00e0002e001000be00e0002e001000be00e0002e001000be00e00029001000b90, 0x151720090ef20e000ef20e0002f201000bf20e0002f201000bf20e0002f201000bf20e0002f101000bf1, 0x151720090e530e000e530e00025301000b530e00025301000b530e00025301000b530e0002fa01000bfa]"
      ],
      "transaction": {
        "from": "0xf17b5dd382b048ff4c05c1c9e4e24cfc5c6adad9",
        "to": "0xd29f7491e2269ba1f6f7b89ff3bbe6a65301e9af",
        "gas": "0x7f669",
        "value": "0x0",
        "input": "0x0475d8630000000000000000000000000000000000000000000000000000000000000020000000000000000000000000000000000000000000000000000000000000000500000000000000000000000000000000000000000000000000000000000000a000000000000000000000000000000000000000000000000000000000000000e0000000000000000000000000000000000000000000000000000000000000014000000000000000000000000000000000000000000000000000000000000001a00000000000000000000000000000000000000000000000000000000000000200000000000000000000000000000000000000000000000000000000000000001e15171c090e3501350c3701350e350e00029301000b930e00028e01000b8e0000000000000000000000000000000000000000000000000000000000000000002a151720090e310e000e310e00023101000b310e00023101000b310e00023101000b310e00021001000b1000000000000000000000000000000000000000000000000000000000000000000000000000000000000000000000000000000000002a151720090ee00e000ee00e0002e001000be00e0002e001000be00e0002e001000be00e00029001000b9000000000000000000000000000000000000000000000000000000000000000000000000000000000000000000000000000000000002a151720090ef20e000ef20e0002f201000bf20e0002f201000bf20e0002f201000bf20e0002f101000bf100000000000000000000000000000000000000000000000000000000000000000000000000000000000000000000000000000000002a151720090e530e000e530e00025301000b530e00025301000b530e00025301000b530e0002fa01000bfa00000000000000000000000000000000000000000000",
        "nonce": "0xd3",
        "chainId": "0x2105"
      },
      "additionalContracts": [
        {
          "transactionType": "CREATE",
          "contractName": null,
          "address": "0x68a3be5cba6ddac9a1e8c9886578b7edef209519",
          "initCode": "0x61001f80600c6000396000f30015171c090e3501350c3701350e350e00029301000b930e00028e01000b8e"
        },
        {
          "transactionType": "CREATE",
          "contractName": null,
          "address": "0x15745aeb26457a96f2aabd9a6c31cbfe3d2397a7",
          "initCode": "0x61002b80600c6000396000f300151720090e310e000e310e00023101000b310e00023101000b310e00023101000b310e00021001000b10"
        },
        {
          "transactionType": "CREATE",
          "contractName": null,
          "address": "0x486c03e0de790c989a0b9bc21d75eebf0b0808c5",
          "initCode": "0x61002b80600c6000396000f300151720090ee00e000ee00e0002e001000be00e0002e001000be00e0002e001000be00e00029001000b90"
        },
        {
          "transactionType": "CREATE",
          "contractName": null,
          "address": "0x23cf4572abe27e1f1abb31fa6c7b3a35a0a87739",
          "initCode": "0x61002b80600c6000396000f300151720090ef20e000ef20e0002f201000bf20e0002f201000bf20e0002f201000bf20e0002f101000bf1"
        },
        {
          "transactionType": "CREATE",
          "contractName": null,
          "address": "0xb01e0500d057164fe93e77e17fe2716664dd644a",
          "initCode": "0x61002b80600c6000396000f300151720090e530e000e530e00025301000b530e00025301000b530e00025301000b530e0002fa01000bfa"
        }
      ],
      "isFixedGasLimit": false
    },
    {
      "hash": "0xdceca4868b685f60d7b452f7d6bf06c93fb88cbd8f07eb195b068be62eea749b",
      "transactionType": "CALL",
      "contractName": null,
      "contractAddress": "0xd29f7491e2269ba1f6f7b89ff3bbe6a65301e9af",
      "function": "addManyAccessories(bytes[])",
      "arguments": [
        "[0x17141b0d0300011703000100011703000117010002000317020001170100031701000117, 0x18171d09023f0100033f0100033f0100033f0600013f0300013f0300013f0300013f0300013f0300013f0100023f0100013f0118013f0100013f0118013f0100013f0118013f013f0300013f0300013f0300013f0100, 0x1517200901280300012803000128030001280100010001280100012805000128010001280200010001280100012805000128010001280200012803000128030001280300012801000500012801000128050001280500012801000128050001280128030001280300012803000128010001000128010001280500012801000128020001000128010001280500012801000128020001280300012803000128030001280100050001110100011105000111, 0x17171b0902c7024002c7024002c7024002c701c70102014001150202021502020215010201c70240010001c70215020202150202011501400240010001c7024002c7024002c70240, 0x1517200902ba020001ba040001ba030001ba02ba030004ba040001ba01ba013601ba090002ba01ba013601ba090002ba02ba020001ba010001ba030001ba010002ba02ba030001ba010002ba010001ba010002ba02ba030001ba010002ba030002ba02ba080001ba010002ba02ba0a0002ba02ba0a0002ba02360a000236]"
      ],
      "transaction": {
        "from": "0xf17b5dd382b048ff4c05c1c9e4e24cfc5c6adad9",
        "to": "0xd29f7491e2269ba1f6f7b89ff3bbe6a65301e9af",
        "gas": "0x8e407",
        "value": "0x0",
        "input": "0x0475d8630000000000000000000000000000000000000000000000000000000000000020000000000000000000000000000000000000000000000000000000000000000500000000000000000000000000000000000000000000000000000000000000a000000000000000000000000000000000000000000000000000000000000001000000000000000000000000000000000000000000000000000000000000000180000000000000000000000000000000000000000000000000000000000000026000000000000000000000000000000000000000000000000000000000000002e0000000000000000000000000000000000000000000000000000000000000002417141b0d030001170300010001170300011701000200031702000117010003170100011700000000000000000000000000000000000000000000000000000000000000000000000000000000000000000000000000000000000000000000005618171d09023f0100033f0100033f0100033f0600013f0300013f0300013f0300013f0300013f0300013f0100023f0100013f0118013f0100013f0118013f0100013f0118013f013f0300013f0300013f0300013f01000000000000000000000000000000000000000000000000000000000000000000000000000000000000b0151720090128030001280300012803000128010001000128010001280500012801000128020001000128010001280500012801000128020001280300012803000128030001280100050001280100012805000128050001280100012805000128012803000128030001280300012801000100012801000128050001280100012802000100012801000128050001280100012802000128030001280300012803000128010005000111010001110500011100000000000000000000000000000000000000000000000000000000000000000000000000000000000000000000004817171b0902c7024002c7024002c7024002c701c70102014001150202021502020215010201c70240010001c70215020202150202011501400240010001c7024002c7024002c70240000000000000000000000000000000000000000000000000000000000000000000000000000000000000000000000000000000000000007e1517200902ba020001ba040001ba030001ba02ba030004ba040001ba01ba013601ba090002ba01ba013601ba090002ba02ba020001ba010001ba030001ba010002ba02ba030001ba010002ba010001ba010002ba02ba030001ba010002ba030002ba02ba080001ba010002ba02ba0a0002ba02ba0a0002ba02360a0002360000",
        "nonce": "0xd4",
        "chainId": "0x2105"
      },
      "additionalContracts": [
        {
          "transactionType": "CREATE",
          "contractName": null,
          "address": "0x5fd93e3f14b0672db4eb0a3fcce80c985479c3d7",
          "initCode": "0x61002580600c6000396000f30017141b0d0300011703000100011703000117010002000317020001170100031701000117"
        },
        {
          "transactionType": "CREATE",
          "contractName": null,
          "address": "0x7d1d3548cee10d67dbe59487ee264e080588fcab",
          "initCode": "0x61005780600c6000396000f30018171d09023f0100033f0100033f0100033f0600013f0300013f0300013f0300013f0300013f0300013f0100023f0100013f0118013f0100013f0118013f0100013f0118013f013f0300013f0300013f0300013f0100"
        },
        {
          "transactionType": "CREATE",
          "contractName": null,
          "address": "0xb8fe5fd7289c1a8db3f84fbf28ddbd8bddc87a50",
          "initCode": "0x6100b180600c6000396000f3001517200901280300012803000128030001280100010001280100012805000128010001280200010001280100012805000128010001280200012803000128030001280300012801000500012801000128050001280500012801000128050001280128030001280300012803000128010001000128010001280500012801000128020001000128010001280500012801000128020001280300012803000128030001280100050001110100011105000111"
        },
        {
          "transactionType": "CREATE",
          "contractName": null,
          "address": "0x08d94774eefdb8786d3d0a5c69adf4bbaad912e3",
          "initCode": "0x61004980600c6000396000f30017171b0902c7024002c7024002c7024002c701c70102014001150202021502020215010201c70240010001c70215020202150202011501400240010001c7024002c7024002c70240"
        },
        {
          "transactionType": "CREATE",
          "contractName": null,
          "address": "0xea0afdeaf15c79f533338af5f32a7a9ca77b3e62",
          "initCode": "0x61007f80600c6000396000f3001517200902ba020001ba040001ba030001ba02ba030004ba040001ba01ba013601ba090002ba01ba013601ba090002ba02ba020001ba010001ba030001ba010002ba02ba030001ba010002ba010001ba010002ba02ba030001ba010002ba030002ba02ba080001ba010002ba02ba0a0002ba02ba0a0002ba02360a000236"
        }
      ],
      "isFixedGasLimit": false
    },
    {
      "hash": "0xcf511b5949a3d5139b640f87c6e51c64fe713ac9523a39ff173b1b75d35bda0d",
      "transactionType": "CALL",
      "contractName": null,
      "contractAddress": "0xd29f7491e2269ba1f6f7b89ff3bbe6a65301e9af",
      "function": "addManyAccessories(bytes[])",
      "arguments": [
        "[0x17131e0d017d0100017d010002b00100017d020002b00100017d020002b0060001b00200027d010001b00200027d010002b00100027d0100, 0x18131d0e030d0200030d020005000200010d02000400010d, 0x1512200e04030195020c01950195020c01950195020c01950195020c01950195020c01950195020c01950195020c01950195020c01950195020c0195019e020c019e, 0x1615200b020002ee0100019902000199010001ee010003ee020001990200010001ee030001ee020002990300028e010001ee010002990200018e0100018f018e01ee0100019901000100018e0100018f019901ee010001990100018f0100018e0100018f0100029903000100018e0200018f0300018f01000200018e0200038f0100018f010001c6020001c60100022a0200, 0x1512200e0447019502bd0195019502bd0195019502bd0195019502bd0195019502bd0195019502bd0195019502bd0195019502bd0195019502bd0195019e02bd019e]"
      ],
      "transaction": {
        "from": "0xf17b5dd382b048ff4c05c1c9e4e24cfc5c6adad9",
        "to": "0xd29f7491e2269ba1f6f7b89ff3bbe6a65301e9af",
        "gas": "0x842d2",
        "value": "0x0",
        "input": "0x0475d8630000000000000000000000000000000000000000000000000000000000000020000000000000000000000000000000000000000000000000000000000000000500000000000000000000000000000000000000000000000000000000000000a00000000000000000000000000000000000000000000000000000000000000100000000000000000000000000000000000000000000000000000000000000014000000000000000000000000000000000000000000000000000000000000001c00000000000000000000000000000000000000000000000000000000000000280000000000000000000000000000000000000000000000000000000000000003817131e0d017d0100017d010002b00100017d020002b00100017d020002b0060001b00200027d010001b00200027d010002b00100027d01000000000000000000000000000000000000000000000000000000000000000000000000000000001818131d0e030d0200030d020005000200010d02000400010d000000000000000000000000000000000000000000000000000000000000000000000000000000421512200e04030195020c01950195020c01950195020c01950195020c01950195020c01950195020c01950195020c01950195020c01950195020c0195019e020c019e00000000000000000000000000000000000000000000000000000000000000000000000000000000000000000000000000000000000000000000000000921615200b020002ee0100019902000199010001ee010003ee020001990200010001ee030001ee020002990300028e010001ee010002990200018e0100018f018e01ee0100019901000100018e0100018f019901ee010001990100018f0100018e0100018f0100029903000100018e0200018f0300018f01000200018e0200038f0100018f010001c6020001c60100022a0200000000000000000000000000000000000000000000000000000000000000000000000000000000000000000000421512200e0447019502bd0195019502bd0195019502bd0195019502bd0195019502bd0195019502bd0195019502bd0195019502bd0195019502bd0195019e02bd019e000000000000000000000000000000000000000000000000000000000000",
        "nonce": "0xd5",
        "chainId": "0x2105"
      },
      "additionalContracts": [
        {
          "transactionType": "CREATE",
          "contractName": null,
          "address": "0x7f8b9d4dcac39ce3d5184d978b57d376fe9eaa13",
          "initCode": "0x61003980600c6000396000f30017131e0d017d0100017d010002b00100017d020002b00100017d020002b0060001b00200027d010001b00200027d010002b00100027d0100"
        },
        {
          "transactionType": "CREATE",
          "contractName": null,
          "address": "0xc06be9ee1cd014b58e2f41edc07bb8b7ebcca3a5",
          "initCode": "0x61001980600c6000396000f30018131d0e030d0200030d020005000200010d02000400010d"
        },
        {
          "transactionType": "CREATE",
          "contractName": null,
          "address": "0xaa935719fb47c40fc88d73cc60ff825bd9ced78a",
          "initCode": "0x61004380600c6000396000f3001512200e04030195020c01950195020c01950195020c01950195020c01950195020c01950195020c01950195020c01950195020c01950195020c0195019e020c019e"
        },
        {
          "transactionType": "CREATE",
          "contractName": null,
          "address": "0x1329ebcdf5f0dc7e81c52e74e6c7c29d49a3e95b",
          "initCode": "0x61009380600c6000396000f3001615200b020002ee0100019902000199010001ee010003ee020001990200010001ee030001ee020002990300028e010001ee010002990200018e0100018f018e01ee0100019901000100018e0100018f019901ee010001990100018f0100018e0100018f0100029903000100018e0200018f0300018f01000200018e0200038f0100018f010001c6020001c60100022a0200"
        },
        {
          "transactionType": "CREATE",
          "contractName": null,
          "address": "0xb7d6e65b5101512059a039536f6c8f6334b4264c",
          "initCode": "0x61004380600c6000396000f3001512200e0447019502bd0195019502bd0195019502bd0195019502bd0195019502bd0195019502bd0195019502bd0195019502bd0195019502bd0195019e02bd019e"
        }
      ],
      "isFixedGasLimit": false
    },
    {
      "hash": "0xda45937171ccc20bf8f1796957dce7aec9595070481ae6ba2e6060b930f1805f",
      "transactionType": "CALL",
      "contractName": null,
      "contractAddress": "0xd29f7491e2269ba1f6f7b89ff3bbe6a65301e9af",
      "function": "addManyAccessories(bytes[])",
      "arguments": [
        "[0x16111f0f02d202d2020002d202d202d202d202d202d2, 0x17151e0d0200012405000224060002240100012404000200012401bf01240300030001240100012401000124050002240100050002240100, 0x17151e0c0100070f0100010f0700010f010f0100020f0100020f0100010f010f0100010f0200010f0200010f010f0100020f0100020f0100010f010f0700010f0100070f0100, 0x17141d0d03d2010003d201d2030001d2020001d2030001d2020001d2030001d2020001d2030001d2020003d2010003d2, 0x17131e0d02840100028401000184020002840100028401000284010006000284010001840100018402840100028401000184020001840200]"
      ],
      "transaction": {
        "from": "0xf17b5dd382b048ff4c05c1c9e4e24cfc5c6adad9",
        "to": "0xd29f7491e2269ba1f6f7b89ff3bbe6a65301e9af",
        "gas": "0x838a3",
        "value": "0x0",
        "input": "0x0475d8630000000000000000000000000000000000000000000000000000000000000020000000000000000000000000000000000000000000000000000000000000000500000000000000000000000000000000000000000000000000000000000000a000000000000000000000000000000000000000000000000000000000000000e0000000000000000000000000000000000000000000000000000000000000014000000000000000000000000000000000000000000000000000000000000001c00000000000000000000000000000000000000000000000000000000000000220000000000000000000000000000000000000000000000000000000000000001616111f0f02d202d2020002d202d202d202d202d202d200000000000000000000000000000000000000000000000000000000000000000000000000000000003817151e0d0200012405000224060002240100012404000200012401bf012403000300012401000124010001240500022401000500022401000000000000000000000000000000000000000000000000000000000000000000000000000000004617151e0c0100070f0100010f0700010f010f0100020f0100020f0100010f010f0100010f0200010f0200010f010f0100020f0100020f0100010f010f0700010f0100070f01000000000000000000000000000000000000000000000000000000000000000000000000000000000000000000000000000000000000000000003017141d0d03d2010003d201d2030001d2020001d2030001d2020001d2030001d2020001d2030001d2020003d2010003d200000000000000000000000000000000000000000000000000000000000000000000000000000000000000000000003817131e0d028401000284010001840200028401000284010002840100060002840100018401000184028401000284010001840200018402000000000000000000",
        "nonce": "0xd6",
        "chainId": "0x2105"
      },
      "additionalContracts": [
        {
          "transactionType": "CREATE",
          "contractName": null,
          "address": "0x0d509d84497762906146e01f199e00cf747800c5",
          "initCode": "0x61001780600c6000396000f30016111f0f02d202d2020002d202d202d202d202d202d2"
        },
        {
          "transactionType": "CREATE",
          "contractName": null,
          "address": "0xe0e80311721db2f14e06caa669a2a8ac5ad698d2",
          "initCode": "0x61003980600c6000396000f30017151e0d0200012405000224060002240100012404000200012401bf01240300030001240100012401000124050002240100050002240100"
        },
        {
          "transactionType": "CREATE",
          "contractName": null,
          "address": "0x23e318d259e57b12bd64623855fa2ef48aa3a716",
          "initCode": "0x61004780600c6000396000f30017151e0c0100070f0100010f0700010f010f0100020f0100020f0100010f010f0100010f0200010f0200010f010f0100020f0100020f0100010f010f0700010f0100070f0100"
        },
        {
          "transactionType": "CREATE",
          "contractName": null,
          "address": "0x77e23fa1d99efbfc04bf4087d11e4676e1417358",
          "initCode": "0x61003180600c6000396000f30017141d0d03d2010003d201d2030001d2020001d2030001d2020001d2030001d2020001d2030001d2020003d2010003d2"
        },
        {
          "transactionType": "CREATE",
          "contractName": null,
          "address": "0x282c6197bd3050bd0d076c811cc948ac9274cc02",
          "initCode": "0x61003980600c6000396000f30017131e0d02840100028401000184020002840100028401000284010006000284010001840100018402840100028401000184020001840200"
        }
      ],
      "isFixedGasLimit": false
    },
    {
      "hash": "0x2099e01e24a2e07144a50edcbd25af8f7b25529b0decff6b56e8d132c830c61a",
      "transactionType": "CALL",
      "contractName": null,
      "contractAddress": "0xd29f7491e2269ba1f6f7b89ff3bbe6a65301e9af",
      "function": "addManyAccessories(bytes[])",
      "arguments": [
        "[0x18151c0c0203020001030200010301000103010002030100020301000103010301000103010c0103010c01030100010302030100010301000103010001030100, 0x16161e0b0200010308000303080001030100030306000100020301000303040003000203010003030200050002030100030308000103010001030a000103, 0x17131e0d010001e8020001e8010002e8010001e8010001e802e8020001e80100060002e8010001e8020002e8010002e8010001e8020003e8, 0x19151c0d0503010002030203010002030100020301030200020301000203, 0x19171e09021601000b16021601000116097001160216010001160970011602160100011609700116021601000b16]"
      ],
      "transaction": {
        "from": "0xf17b5dd382b048ff4c05c1c9e4e24cfc5c6adad9",
        "to": "0xd29f7491e2269ba1f6f7b89ff3bbe6a65301e9af",
        "gas": "0x7c990",
        "value": "0x0",
        "input": "0x0475d8630000000000000000000000000000000000000000000000000000000000000020000000000000000000000000000000000000000000000000000000000000000500000000000000000000000000000000000000000000000000000000000000a00000000000000000000000000000000000000000000000000000000000000100000000000000000000000000000000000000000000000000000000000000016000000000000000000000000000000000000000000000000000000000000001c00000000000000000000000000000000000000000000000000000000000000200000000000000000000000000000000000000000000000000000000000000004018151c0c0203020001030200010301000103010002030100020301000103010301000103010c0103010c01030100010302030100010301000103010001030100000000000000000000000000000000000000000000000000000000000000003e16161e0b0200010308000303080001030100030306000100020301000303040003000203010003030200050002030100030308000103010001030a0001030000000000000000000000000000000000000000000000000000000000000000003817131e0d010001e8020001e8010002e8010001e8010001e802e8020001e80100060002e8010001e8020002e8010002e8010001e8020003e80000000000000000000000000000000000000000000000000000000000000000000000000000001e19151c0d05030100020302030100020301000203010302000203010002030000000000000000000000000000000000000000000000000000000000000000002e19171e09021601000b16021601000116097001160216010001160970011602160100011609700116021601000b16000000000000000000000000000000000000",
        "nonce": "0xd7",
        "chainId": "0x2105"
      },
      "additionalContracts": [
        {
          "transactionType": "CREATE",
          "contractName": null,
          "address": "0xbf60c566c8f69b80e459ca7161d36f2bd5a91b07",
          "initCode": "0x61004180600c6000396000f30018151c0c0203020001030200010301000103010002030100020301000103010301000103010c0103010c01030100010302030100010301000103010001030100"
        },
        {
          "transactionType": "CREATE",
          "contractName": null,
          "address": "0xcac304231ef6e2710fae6304155b7974bcf39127",
          "initCode": "0x61003f80600c6000396000f30016161e0b0200010308000303080001030100030306000100020301000303040003000203010003030200050002030100030308000103010001030a000103"
        },
        {
          "transactionType": "CREATE",
          "contractName": null,
          "address": "0x6c935cab646bee84cc3df3eac816cd063ad5a7ea",
          "initCode": "0x61003980600c6000396000f30017131e0d010001e8020001e8010002e8010001e8010001e802e8020001e80100060002e8010001e8020002e8010002e8010001e8020003e8"
        },
        {
          "transactionType": "CREATE",
          "contractName": null,
          "address": "0x1a8765092418144313ae5727f464ab1d34f09aa7",
          "initCode": "0x61001f80600c6000396000f30019151c0d0503010002030203010002030100020301030200020301000203"
        },
        {
          "transactionType": "CREATE",
          "contractName": null,
          "address": "0x703b1562fe37cfc7d953ef6e2e450aaa80ac2ea1",
          "initCode": "0x61002f80600c6000396000f30019171e09021601000b16021601000116097001160216010001160970011602160100011609700116021601000b16"
        }
      ],
      "isFixedGasLimit": false
    },
    {
      "hash": "0xeca55ae9bd5c781f8dbeae46b61e355370faed4d353b7b0ff3d9feaf7b8daabf",
      "transactionType": "CALL",
      "contractName": null,
      "contractAddress": "0xd29f7491e2269ba1f6f7b89ff3bbe6a65301e9af",
      "function": "addManyAccessories(bytes[])",
      "arguments": [
        "[0x18131d0d01c9030001c9010001c9020001c9020001c9010001c9010002c9010001c9020002c901c9030002c9, 0x17131e0d01080300020801080200020801000208010001080200060001000108020002080108010001080100020801080100010801000208, 0x17151a0d010d0200020d0100010d0100010d0200020d0100010d0100020d0100020d0100020d, 0x16141d0d0600018007000280010001800200018001800100018001000180010001800700028002000380018001000180020001800100, 0x18151b0d030f0100010f0100010f0100010f0100010f0100010f0100010f0100010f0100010f0100010f0100020f]"
      ],
      "transaction": {
        "from": "0xf17b5dd382b048ff4c05c1c9e4e24cfc5c6adad9",
        "to": "0xd29f7491e2269ba1f6f7b89ff3bbe6a65301e9af",
        "gas": "0x7b3cc",
        "value": "0x0",
        "input": "0x0475d8630000000000000000000000000000000000000000000000000000000000000020000000000000000000000000000000000000000000000000000000000000000500000000000000000000000000000000000000000000000000000000000000a00000000000000000000000000000000000000000000000000000000000000100000000000000000000000000000000000000000000000000000000000000016000000000000000000000000000000000000000000000000000000000000001c00000000000000000000000000000000000000000000000000000000000000220000000000000000000000000000000000000000000000000000000000000002c18131d0d01c9030001c9010001c9020001c9020001c9010001c9010002c9010001c9020002c901c9030002c90000000000000000000000000000000000000000000000000000000000000000000000000000000000000000000000000000003817131e0d010803000208010802000208010002080100010802000600010001080200020801080100010801000208010801000108010002080000000000000000000000000000000000000000000000000000000000000000000000000000002617151a0d010d0200020d0100010d0100010d0200020d0100010d0100020d0100020d0100020d0000000000000000000000000000000000000000000000000000000000000000000000000000000000000000000000000000000000000000003616141d0d060001800700028001000180020001800180010001800100018001000180070002800200038001800100018002000180010000000000000000000000000000000000000000000000000000000000000000000000000000000000002e18151b0d030f0100010f0100010f0100010f0100010f0100010f0100010f0100010f0100010f0100010f0100020f000000000000000000000000000000000000",
        "nonce": "0xd8",
        "chainId": "0x2105"
      },
      "additionalContracts": [
        {
          "transactionType": "CREATE",
          "contractName": null,
          "address": "0x30f4f3c687c04beabc930d3e8a29fb086dce924c",
          "initCode": "0x61002d80600c6000396000f30018131d0d01c9030001c9010001c9020001c9020001c9010001c9010002c9010001c9020002c901c9030002c9"
        },
        {
          "transactionType": "CREATE",
          "contractName": null,
          "address": "0x18de048976f7313871c7ebc82e8792ff86b00dd6",
          "initCode": "0x61003980600c6000396000f30017131e0d01080300020801080200020801000208010001080200060001000108020002080108010001080100020801080100010801000208"
        },
        {
          "transactionType": "CREATE",
          "contractName": null,
          "address": "0xe2056506b376138b07f69c3e18d2d46dfb0c163b",
          "initCode": "0x61002780600c6000396000f30017151a0d010d0200020d0100010d0100010d0200020d0100010d0100020d0100020d0100020d"
        },
        {
          "transactionType": "CREATE",
          "contractName": null,
          "address": "0xaa4a7c524a5a8bed943fa8d7c70532a04708cb4e",
          "initCode": "0x61003780600c6000396000f30016141d0d0600018007000280010001800200018001800100018001000180010001800700028002000380018001000180020001800100"
        },
        {
          "transactionType": "CREATE",
          "contractName": null,
          "address": "0x6298b806f1e0ba85fe9d5288792262e0f01feb2a",
          "initCode": "0x61002f80600c6000396000f30018151b0d030f0100010f0100010f0100010f0100010f0100010f0100010f0100010f0100010f0100010f0100020f"
        }
      ],
      "isFixedGasLimit": false
    },
    {
      "hash": "0xb130278f5c657e1692743997d5e6aed47df89bc8bca67a4242e39b69dfb20fb8",
      "transactionType": "CALL",
      "contractName": null,
      "contractAddress": "0xd29f7491e2269ba1f6f7b89ff3bbe6a65301e9af",
      "function": "addManyAccessories(bytes[])",
      "arguments": [
        "[0x17131f0d010002990100019901000100019901000299010006000299010001990100019902990100039906000100029901000199010001000199010002990100, 0x17131f0d010002080100010801000100010801000208010006000208010001080100010802080100030806000100020801000108010001000108010002080100, 0x17131f0d010002ee010001ee0100010001ee010002ee010006000299010001800100018002990100038006000100025701000157010001000157010002570100, 0x16131e0d010002990100019901000100019901000299010006000299010001990100019902990100039906000100029901000199010001000199010002990100, 0x18131c0d01000529012901000129010001290100020001290100012901000200012902000129]"
      ],
      "transaction": {
        "from": "0xf17b5dd382b048ff4c05c1c9e4e24cfc5c6adad9",
        "to": "0xd29f7491e2269ba1f6f7b89ff3bbe6a65301e9af",
        "gas": "0x7f3d4",
        "value": "0x0",
        "input": "0x0475d8630000000000000000000000000000000000000000000000000000000000000020000000000000000000000000000000000000000000000000000000000000000500000000000000000000000000000000000000000000000000000000000000a00000000000000000000000000000000000000000000000000000000000000100000000000000000000000000000000000000000000000000000000000000016000000000000000000000000000000000000000000000000000000000000001c00000000000000000000000000000000000000000000000000000000000000220000000000000000000000000000000000000000000000000000000000000004017131f0d010002990100019901000100019901000299010006000299010001990100019902990100039906000100029901000199010001000199010002990100000000000000000000000000000000000000000000000000000000000000004017131f0d010002080100010801000100010801000208010006000208010001080100010802080100030806000100020801000108010001000108010002080100000000000000000000000000000000000000000000000000000000000000004017131f0d010002ee010001ee0100010001ee010002ee010006000299010001800100018002990100038006000100025701000157010001000157010002570100000000000000000000000000000000000000000000000000000000000000004016131e0d010002990100019901000100019901000299010006000299010001990100019902990100039906000100029901000199010001000199010002990100000000000000000000000000000000000000000000000000000000000000002618131c0d010005290129010001290100012901000200012901000129010002000129020001290000000000000000000000000000000000000000000000000000",
        "nonce": "0xd9",
        "chainId": "0x2105"
      },
      "additionalContracts": [
        {
          "transactionType": "CREATE",
          "contractName": null,
          "address": "0x3f6cda48f85bdf098af4cead5c844cd9877523b0",
          "initCode": "0x61004180600c6000396000f30017131f0d010002990100019901000100019901000299010006000299010001990100019902990100039906000100029901000199010001000199010002990100"
        },
        {
          "transactionType": "CREATE",
          "contractName": null,
          "address": "0x8d61ade07ce4ac4521640d61c2cfb08a73f91e19",
          "initCode": "0x61004180600c6000396000f30017131f0d010002080100010801000100010801000208010006000208010001080100010802080100030806000100020801000108010001000108010002080100"
        },
        {
          "transactionType": "CREATE",
          "contractName": null,
          "address": "0xbcb5053366eeb54025b513097305359fb621f668",
          "initCode": "0x61004180600c6000396000f30017131f0d010002ee010001ee0100010001ee010002ee010006000299010001800100018002990100038006000100025701000157010001000157010002570100"
        },
        {
          "transactionType": "CREATE",
          "contractName": null,
          "address": "0xa65a35d509dba2b5c984ef04e5e6967cd1673835",
          "initCode": "0x61004180600c6000396000f30016131e0d010002990100019901000100019901000299010006000299010001990100019902990100039906000100029901000199010001000199010002990100"
        },
        {
          "transactionType": "CREATE",
          "contractName": null,
          "address": "0x959c4083f89084bbbb2df8ac0cf27338b2a278b0",
          "initCode": "0x61002780600c6000396000f30018131c0d01000529012901000129010001290100020001290100012901000200012902000129"
        }
      ],
      "isFixedGasLimit": false
    },
    {
      "hash": "0x1420537178dc072a0b53266a6b53aa43be523f32efa3a4264749b92cd40cb15c",
      "transactionType": "CALL",
      "contractName": null,
      "contractAddress": "0xd29f7491e2269ba1f6f7b89ff3bbe6a65301e9af",
      "function": "addManyAccessories(bytes[])",
      "arguments": [
        "[0x17131e0d02ba040002ba040001ba010002ba0200020002ba0200040002ba040002ba040001ba0100, 0x17131e0d020d02000269020d02000269010d0100010d01000269060003930100011701000293020001170100019303000217, 0x18151e0c0700018f0100040001c90100018f0100018f020001c9010001c90100038f01c9010001c9010001c90100018f020001c9010001c9010001c90200018f0100010001c9010001c90500, 0x18151b0c0131010001310100018f0100013101000131010001310100038f010001310100010001310100018f0100018f010001310100, 0x151720090392010007920100029202920300019203230192030001920192050001920123019205000700019206000292010004920100069201000192010001920123019203000192032301920300029205000192012301920100030001920700019202000292020007920100029202920300019203230192030001920123050003230500]"
      ],
      "transaction": {
        "from": "0xf17b5dd382b048ff4c05c1c9e4e24cfc5c6adad9",
        "to": "0xd29f7491e2269ba1f6f7b89ff3bbe6a65301e9af",
        "gas": "0x8b66a",
        "value": "0x0",
        "input": "0x0475d8630000000000000000000000000000000000000000000000000000000000000020000000000000000000000000000000000000000000000000000000000000000500000000000000000000000000000000000000000000000000000000000000a00000000000000000000000000000000000000000000000000000000000000100000000000000000000000000000000000000000000000000000000000000016000000000000000000000000000000000000000000000000000000000000001e00000000000000000000000000000000000000000000000000000000000000240000000000000000000000000000000000000000000000000000000000000002817131e0d02ba040002ba040001ba010002ba0200020002ba0200040002ba040002ba040001ba0100000000000000000000000000000000000000000000000000000000000000000000000000000000000000000000000000000000000000003217131e0d020d02000269020d02000269010d0100010d010002690600039301000117010002930200011701000193030002170000000000000000000000000000000000000000000000000000000000000000000000000000000000000000004c18151e0c0700018f0100040001c90100018f0100018f020001c9010001c90100038f01c9010001c9010001c90100018f020001c9010001c9010001c90200018f0100010001c9010001c905000000000000000000000000000000000000000000000000000000000000000000000000000000000000000000000000000000003618151b0c0131010001310100018f0100013101000131010001310100038f010001310100010001310100018f0100018f01000131010000000000000000000000000000000000000000000000000000000000000000000000000000000000008415172009039201000792010002920292030001920323019203000192019205000192012301920500070001920600029201000492010006920100019201000192012301920300019203230192030002920500019201230192010003000192070001920200029202000792010002920292030001920323019203000192012305000323050000000000000000000000000000000000000000000000000000000000",
        "nonce": "0xda",
        "chainId": "0x2105"
      },
      "additionalContracts": [
        {
          "transactionType": "CREATE",
          "contractName": null,
          "address": "0x60004b87d45e11015d0bc9a8ae504509e284d6f3",
          "initCode": "0x61002980600c6000396000f30017131e0d02ba040002ba040001ba010002ba0200020002ba0200040002ba040002ba040001ba0100"
        },
        {
          "transactionType": "CREATE",
          "contractName": null,
          "address": "0xadd4a5be4b463b4792842b2f3df091ca81626890",
          "initCode": "0x61003380600c6000396000f30017131e0d020d02000269020d02000269010d0100010d01000269060003930100011701000293020001170100019303000217"
        },
        {
          "transactionType": "CREATE",
          "contractName": null,
          "address": "0x7a9c4f1bd1e6867fc55dbcc89b93c26cad7ee4a7",
          "initCode": "0x61004d80600c6000396000f30018151e0c0700018f0100040001c90100018f0100018f020001c9010001c90100038f01c9010001c9010001c90100018f020001c9010001c9010001c90200018f0100010001c9010001c90500"
        },
        {
          "transactionType": "CREATE",
          "contractName": null,
          "address": "0x67f396319730fa53e68be7887b7320581ae787ac",
          "initCode": "0x61003780600c6000396000f30018151b0c0131010001310100018f0100013101000131010001310100038f010001310100010001310100018f0100018f010001310100"
        },
        {
          "transactionType": "CREATE",
          "contractName": null,
          "address": "0x57a7f41ec0d432481468d0b4325342b5b2c93427",
          "initCode": "0x61008580600c6000396000f300151720090392010007920100029202920300019203230192030001920192050001920123019205000700019206000292010004920100069201000192010001920123019203000192032301920300029205000192012301920100030001920700019202000292020007920100029202920300019203230192030001920123050003230500"
        }
      ],
      "isFixedGasLimit": false
    },
    {
      "hash": "0xbca14f8af743fba37f96670202d472575ec3bc5c5e4c23e9acb0031c1362f54c",
      "transactionType": "CALL",
      "contractName": null,
      "contractAddress": "0xd29f7491e2269ba1f6f7b89ff3bbe6a65301e9af",
      "function": "addManyAccessories(bytes[])",
      "arguments": [
        "[0x151720090a0001eb03000a0001eb030002eb01000beb040001eb0900040001eb090002eb010004eb010006eb0a0001eb03000a0001eb030002eb01000beb040001eb0900040001190900, 0x17151c0d010003c9040002c9020001c90300020001c9020001c90200020001c9030002c9010001c90600, 0x18141f0d013b02f1013b03f101f1016f010901c10109016f01f101f1016f010901c10109016f01f101f1016f01f1010901f1016f013b010001d1010001d1010001d10100010001d10500050001d10100, 0x1517200903310100038001000331010002310e000131010003800100033101000380010001000180030001310300018003000131018002000231010003800100033101000e0002310200038001000331010002800300018003000131030001800200013101800200033101000380010002310e00015a0200025a010003410100035a0100, 0x1517200903980100039801000398010002980e000198010003980100039801000398010001000198030001980300019803000198019802000298010003980100039801000e000298020003980100039801000298030001980300019803000198020002980200039801000398010002980e00014b0200024b0100034b0100034b0100]"
      ],
      "transaction": {
        "from": "0xf17b5dd382b048ff4c05c1c9e4e24cfc5c6adad9",
        "to": "0xd29f7491e2269ba1f6f7b89ff3bbe6a65301e9af",
        "gas": "0x8b80d",
        "value": "0x0",
        "input": "0x0475d8630000000000000000000000000000000000000000000000000000000000000020000000000000000000000000000000000000000000000000000000000000000500000000000000000000000000000000000000000000000000000000000000a000000000000000000000000000000000000000000000000000000000000001200000000000000000000000000000000000000000000000000000000000000180000000000000000000000000000000000000000000000000000000000000020000000000000000000000000000000000000000000000000000000000000002c0000000000000000000000000000000000000000000000000000000000000004a151720090a0001eb03000a0001eb030002eb01000beb040001eb0900040001eb090002eb010004eb010006eb0a0001eb03000a0001eb030002eb01000beb040001eb090004000119090000000000000000000000000000000000000000000000000000000000000000000000000000000000000000000000000000000000002a17151c0d010003c9040002c9020001c90300020001c9020001c90200020001c9030002c9010001c9060000000000000000000000000000000000000000000000000000000000000000000000000000000000000000000000000000000000005018141f0d013b02f1013b03f101f1016f010901c10109016f01f101f1016f010901c10109016f01f101f1016f01f1010901f1016f013b010001d1010001d1010001d10100010001d10500050001d101000000000000000000000000000000000000000000000000000000000000000000000000000000000000000000000000841517200903310100038001000331010002310e000131010003800100033101000380010001000180030001310300018003000131018002000231010003800100033101000e0002310200038001000331010002800300018003000131030001800200013101800200033101000380010002310e00015a0200025a010003410100035a01000000000000000000000000000000000000000000000000000000000000000000000000000000000000000000000000000000000000000000000000821517200903980100039801000398010002980e000198010003980100039801000398010001000198030001980300019803000198019802000298010003980100039801000e000298020003980100039801000298030001980300019803000198020002980200039801000398010002980e00014b0200024b0100034b0100034b0100000000000000000000000000000000000000000000000000000000000000",
        "nonce": "0xdb",
        "chainId": "0x2105"
      },
      "additionalContracts": [
        {
          "transactionType": "CREATE",
          "contractName": null,
          "address": "0x5f24262c48bb29b36a3ab98862d6a8803087a48e",
          "initCode": "0x61004b80600c6000396000f300151720090a0001eb03000a0001eb030002eb01000beb040001eb0900040001eb090002eb010004eb010006eb0a0001eb03000a0001eb030002eb01000beb040001eb0900040001190900"
        },
        {
          "transactionType": "CREATE",
          "contractName": null,
          "address": "0x622ff24d3784765dc4dd81ab43a7c62472920983",
          "initCode": "0x61002b80600c6000396000f30017151c0d010003c9040002c9020001c90300020001c9020001c90200020001c9030002c9010001c90600"
        },
        {
          "transactionType": "CREATE",
          "contractName": null,
          "address": "0xcf348883a91061ea512509e57fb9128debb6eeba",
          "initCode": "0x61005180600c6000396000f30018141f0d013b02f1013b03f101f1016f010901c10109016f01f101f1016f010901c10109016f01f101f1016f01f1010901f1016f013b010001d1010001d1010001d10100010001d10500050001d10100"
        },
        {
          "transactionType": "CREATE",
          "contractName": null,
          "address": "0x004db22004c3006427283a42028b5de256b032d9",
          "initCode": "0x61008580600c6000396000f3001517200903310100038001000331010002310e000131010003800100033101000380010001000180030001310300018003000131018002000231010003800100033101000e0002310200038001000331010002800300018003000131030001800200013101800200033101000380010002310e00015a0200025a010003410100035a0100"
        },
        {
          "transactionType": "CREATE",
          "contractName": null,
          "address": "0x4237bfa473087ec823a8e082f0cf9e3850dc7d7a",
          "initCode": "0x61008380600c6000396000f3001517200903980100039801000398010002980e000198010003980100039801000398010001000198030001980300019803000198019802000298010003980100039801000e000298020003980100039801000298030001980300019803000198020002980200039801000398010002980e00014b0200024b0100034b0100034b0100"
        }
      ],
      "isFixedGasLimit": false
    },
    {
      "hash": "0xef263bea6ff60b7f48c586dd1261850d57ccd682ba712ac819af31c8dfefa839",
      "transactionType": "CALL",
      "contractName": null,
      "contractAddress": "0xd29f7491e2269ba1f6f7b89ff3bbe6a65301e9af",
      "function": "addManyAccessories(bytes[])",
      "arguments": [
        "[0x18121c0e044001400115019e019501400115019e01950495, 0x151720090e7801780c1c017801780c1c01780178011c01780a1c0178027801000178091c0178027801000178091c0178027801000178091c0178027801000178091c0178027801000178091c0178027801000178091c0178021c01000b1c, 0x151720090e3f013f0c18013f013f0c18013f013f0118013f0a18013f023f0100013f0918013f023f0100013f0918013f023f0100013f0918013f023f0100013f0918013f023f0100013f0918013f023f0100013f0918013f021801000b18, 0x151720090e3301330c12013301330c1201330133011201330a120133023301000133091201330233010001330912013302330100013309120133023301000133091201330233010001330912013302330100013309120133021201000b12, 0x151720090ed901d90c2b01d901d90c2b01d901d9012b01d90a2b01d902d9010001d9092b01d902d9010001d9092b01d902d9010001d9092b01d902d9010001d9092b01d902d9010001d9092b01d902d9010001d9092b01d9022b01000b2b]"
      ],
      "transaction": {
        "from": "0xf17b5dd382b048ff4c05c1c9e4e24cfc5c6adad9",
        "to": "0xd29f7491e2269ba1f6f7b89ff3bbe6a65301e9af",
        "gas": "0x87330",
        "value": "0x0",
        "input": "0x0475d8630000000000000000000000000000000000000000000000000000000000000020000000000000000000000000000000000000000000000000000000000000000500000000000000000000000000000000000000000000000000000000000000a000000000000000000000000000000000000000000000000000000000000000e0000000000000000000000000000000000000000000000000000000000000016000000000000000000000000000000000000000000000000000000000000001e00000000000000000000000000000000000000000000000000000000000000260000000000000000000000000000000000000000000000000000000000000001818121c0e044001400115019e019501400115019e019504950000000000000000000000000000000000000000000000000000000000000000000000000000005e151720090e7801780c1c017801780c1c01780178011c01780a1c0178027801000178091c0178027801000178091c0178027801000178091c0178027801000178091c0178027801000178091c0178027801000178091c0178021c01000b1c0000000000000000000000000000000000000000000000000000000000000000005e151720090e3f013f0c18013f013f0c18013f013f0118013f0a18013f023f0100013f0918013f023f0100013f0918013f023f0100013f0918013f023f0100013f0918013f023f0100013f0918013f023f0100013f0918013f021801000b180000000000000000000000000000000000000000000000000000000000000000005e151720090e3301330c12013301330c1201330133011201330a120133023301000133091201330233010001330912013302330100013309120133023301000133091201330233010001330912013302330100013309120133021201000b120000000000000000000000000000000000000000000000000000000000000000005e151720090ed901d90c2b01d901d90c2b01d901d9012b01d90a2b01d902d9010001d9092b01d902d9010001d9092b01d902d9010001d9092b01d902d9010001d9092b01d902d9010001d9092b01d902d9010001d9092b01d9022b01000b2b0000",
        "nonce": "0xdc",
        "chainId": "0x2105"
      },
      "additionalContracts": [
        {
          "transactionType": "CREATE",
          "contractName": null,
          "address": "0x26d6e9979a658ce391763c8d6aa4ea0e9ecaf942",
          "initCode": "0x61001980600c6000396000f30018121c0e044001400115019e019501400115019e01950495"
        },
        {
          "transactionType": "CREATE",
          "contractName": null,
          "address": "0x38c2c88db38b213b71e945a4d27eddfc234e7d89",
          "initCode": "0x61005f80600c6000396000f300151720090e7801780c1c017801780c1c01780178011c01780a1c0178027801000178091c0178027801000178091c0178027801000178091c0178027801000178091c0178027801000178091c0178027801000178091c0178021c01000b1c"
        },
        {
          "transactionType": "CREATE",
          "contractName": null,
          "address": "0x089e53e3b04143149f21c2b1b757e192153acea1",
          "initCode": "0x61005f80600c6000396000f300151720090e3f013f0c18013f013f0c18013f013f0118013f0a18013f023f0100013f0918013f023f0100013f0918013f023f0100013f0918013f023f0100013f0918013f023f0100013f0918013f023f0100013f0918013f021801000b18"
        },
        {
          "transactionType": "CREATE",
          "contractName": null,
          "address": "0x011d53c8983e203e1d8fd2d5154d855c052eb590",
          "initCode": "0x61005f80600c6000396000f300151720090e3301330c12013301330c1201330133011201330a120133023301000133091201330233010001330912013302330100013309120133023301000133091201330233010001330912013302330100013309120133021201000b12"
        },
        {
          "transactionType": "CREATE",
          "contractName": null,
          "address": "0x70528ec0c31f697b3803ad225db6f98d3b15b046",
          "initCode": "0x61005f80600c6000396000f300151720090ed901d90c2b01d901d90c2b01d901d9012b01d90a2b01d902d9010001d9092b01d902d9010001d9092b01d902d9010001d9092b01d902d9010001d9092b01d902d9010001d9092b01d902d9010001d9092b01d9022b01000b2b"
        }
      ],
      "isFixedGasLimit": false
    }
  ],
  "receipts": [
    {
      "status": "0x1",
      "cumulativeGasUsed": "0x2f23e71",
      "logs": [],
      "logsBloom": "0x00000000000000000000000000000000000000000000000000000000000000000000000000000000000000000000000000000000000000000000000000000000000000000000000000000000000000000000000000000000000000000000000000000000000000000000000000000000000000000000000000000000000000000000000000000000000000000000000000000000000000000000000000000000000000000000000000000000000000000000000000000000000000000000000000000000000000000000000000000000000000000000000000000000000000000000000000000000000000000000000000000000000000000000000000000000",
      "type": "0x2",
      "transactionHash": "0x28eba09c5aa85b6ccdbf25b346d33ab16a8ced591216a48ad548e7435a09f94f",
      "transactionIndex": "0x7f",
      "blockHash": "0xce3332aba174bc970edffc7f77b88da6a94260e1639f5cda8f163e30288a44f8",
      "blockNumber": "0x27f4c5e",
      "gasUsed": "0x5d7dd",
      "effectiveGasPrice": "0xccc882",
      "blobGasUsed": "0x9325",
      "from": "0xf17b5dd382b048ff4c05c1c9e4e24cfc5c6adad9",
      "to": "0xd29f7491e2269ba1f6f7b89ff3bbe6a65301e9af",
      "contractAddress": null,
      "daFootprintGasScalar": "0x8b",
      "l1BaseFeeScalar": "0x8dd",
      "l1BlobBaseFee": "0x2b74ea",
      "l1BlobBaseFeeScalar": "0x101c12",
      "l1Fee": "0x4ce2cca3",
      "l1GasPrice": "0x2e01729",
      "l1GasUsed": "0x10f1"
    },
    {
      "status": "0x1",
      "cumulativeGasUsed": "0x24ec7f7",
      "logs": [],
      "logsBloom": "0x00000000000000000000000000000000000000000000000000000000000000000000000000000000000000000000000000000000000000000000000000000000000000000000000000000000000000000000000000000000000000000000000000000000000000000000000000000000000000000000000000000000000000000000000000000000000000000000000000000000000000000000000000000000000000000000000000000000000000000000000000000000000000000000000000000000000000000000000000000000000000000000000000000000000000000000000000000000000000000000000000000000000000000000000000000000",
      "type": "0x2",
      "transactionHash": "0x74e5815153eef7183a9768eb78533890cb579b5d32f0791e6c9c77090f84718d",
      "transactionIndex": "0x90",
      "blockHash": "0x88e596658cfef9d5d450e3bd369006e778c5e40ee300c3e90545622af573a67b",
      "blockNumber": "0x27f4c5f",
      "gasUsed": "0x5fe8a",
      "effectiveGasPrice": "0xccca08",
      "blobGasUsed": "0xbc69",
      "from": "0xf17b5dd382b048ff4c05c1c9e4e24cfc5c6adad9",
      "to": "0xd29f7491e2269ba1f6f7b89ff3bbe6a65301e9af",
      "contractAddress": null,
      "daFootprintGasScalar": "0x8b",
      "l1BaseFeeScalar": "0x8dd",
      "l1BlobBaseFee": "0x2b74ea",
      "l1BlobBaseFeeScalar": "0x101c12",
      "l1Fee": "0x627971ff",
      "l1GasPrice": "0x2e01729",
      "l1GasUsed": "0x15b3"
    },
    {
      "status": "0x1",
      "cumulativeGasUsed": "0x34f97c9",
      "logs": [],
      "logsBloom": "0x00000000000000000000000000000000000000000000000000000000000000000000000000000000000000000000000000000000000000000000000000000000000000000000000000000000000000000000000000000000000000000000000000000000000000000000000000000000000000000000000000000000000000000000000000000000000000000000000000000000000000000000000000000000000000000000000000000000000000000000000000000000000000000000000000000000000000000000000000000000000000000000000000000000000000000000000000000000000000000000000000000000000000000000000000000000",
      "type": "0x2",
      "transactionHash": "0x292bb59bb502c83a6f4bc0d2c1a4dc957d3b8bbfb32bd14cede34a1cc9a91401",
      "transactionIndex": "0x93",
      "blockHash": "0x0125fad264330fd36ff8e31aa7803a7a6937426ee9cb9995bf19d463ab58760c",
      "blockNumber": "0x27f4c60",
      "gasUsed": "0x60ce6",
      "effectiveGasPrice": "0xcc7b16",
      "blobGasUsed": "0x9e8c",
      "from": "0xf17b5dd382b048ff4c05c1c9e4e24cfc5c6adad9",
      "to": "0xd29f7491e2269ba1f6f7b89ff3bbe6a65301e9af",
      "contractAddress": null,
      "daFootprintGasScalar": "0x8b",
      "l1BaseFeeScalar": "0x8dd",
      "l1BlobBaseFee": "0x2d9f0b",
      "l1BlobBaseFeeScalar": "0x101c12",
      "l1Fee": "0x320c48c7",
      "l1GasPrice": "0x2e47ba8",
      "l1GasUsed": "0x1240"
    },
    {
      "status": "0x1",
      "cumulativeGasUsed": "0x18d8c53",
      "logs": [],
      "logsBloom": "0x00000000000000000000000000000000000000000000000000000000000000000000000000000000000000000000000000000000000000000000000000000000000000000000000000000000000000000000000000000000000000000000000000000000000000000000000000000000000000000000000000000000000000000000000000000000000000000000000000000000000000000000000000000000000000000000000000000000000000000000000000000000000000000000000000000000000000000000000000000000000000000000000000000000000000000000000000000000000000000000000000000000000000000000000000000000",
      "type": "0x2",
      "transactionHash": "0xacbbe2b5202ec01896912f1dabb117c17b3c89a7dbc1f7f8819b4f6cd1755b27",
      "transactionIndex": "0x5d",
      "blockHash": "0x11f28956ffddee0e65dc0b057010ea3a6e1a0365134ab07ac0c944a27fc18feb",
      "blockNumber": "0x27f4c61",
      "gasUsed": "0x6d5a5",
      "effectiveGasPrice": "0xcc8656",
      "blobGasUsed": "0xec31",
      "from": "0xf17b5dd382b048ff4c05c1c9e4e24cfc5c6adad9",
      "to": "0xd29f7491e2269ba1f6f7b89ff3bbe6a65301e9af",
      "contractAddress": null,
      "daFootprintGasScalar": "0x8b",
      "l1BaseFeeScalar": "0x8dd",
      "l1BlobBaseFee": "0x2d9f0b",
      "l1BlobBaseFeeScalar": "0x101c12",
      "l1Fee": "0x219e32ef",
      "l1GasPrice": "0x2e47ba8",
      "l1GasUsed": "0x1b3e"
    },
    {
      "status": "0x1",
      "cumulativeGasUsed": "0x2bc360a",
      "logs": [],
      "logsBloom": "0x00000000000000000000000000000000000000000000000000000000000000000000000000000000000000000000000000000000000000000000000000000000000000000000000000000000000000000000000000000000000000000000000000000000000000000000000000000000000000000000000000000000000000000000000000000000000000000000000000000000000000000000000000000000000000000000000000000000000000000000000000000000000000000000000000000000000000000000000000000000000000000000000000000000000000000000000000000000000000000000000000000000000000000000000000000000",
      "type": "0x2",
      "transactionHash": "0xe2b379cac0f8caacfca36cddfd10ffd4ccaa1b9b4388c10498f73b47fc015a9f",
      "transactionIndex": "0x9c",
      "blockHash": "0x0000000000000000000000000000000000000000000000000000000000000000",
      "blockNumber": "0x27f4c62",
      "gasUsed": "0x64425",
      "effectiveGasPrice": "0xcc3933",
      "blobGasUsed": "0xba3d",
      "from": "0xf17b5dd382b048ff4c05c1c9e4e24cfc5c6adad9",
      "to": "0xd29f7491e2269ba1f6f7b89ff3bbe6a65301e9af",
      "contractAddress": null,
      "daFootprintGasScalar": "0x8b",
      "l1BaseFeeScalar": "0x8dd",
      "l1BlobBaseFee": "0x2d9f0b",
      "l1BlobBaseFeeScalar": "0x101c12",
      "l1Fee": "0x67043380",
      "l1GasPrice": "0x2e47ba8",
      "l1GasUsed": "0x157e"
    },
    {
      "status": "0x1",
      "cumulativeGasUsed": "0x10dc3a3",
      "logs": [],
      "logsBloom": "0x00000000000000000000000000000000000000000000000000000000000000000000000000000000000000000000000000000000000000000000000000000000000000000000000000000000000000000000000000000000000000000000000000000000000000000000000000000000000000000000000000000000000000000000000000000000000000000000000000000000000000000000000000000000000000000000000000000000000000000000000000000000000000000000000000000000000000000000000000000000000000000000000000000000000000000000000000000000000000000000000000000000000000000000000000000000",
      "type": "0x2",
      "transactionHash": "0x934dae34f9e9eec443068d80c942ff12dff69b6607331cebe12c8f628d3840b3",
      "transactionIndex": "0x56",
      "blockHash": "0x02ce44a67caa9096b4b1b044a41603ede092769135c83917b49f13e3a8e62020",
      "blockNumber": "0x27f4c63",
      "gasUsed": "0x6d779",
      "effectiveGasPrice": "0xcc0033",
      "blobGasUsed": "0xf19f",
      "from": "0xf17b5dd382b048ff4c05c1c9e4e24cfc5c6adad9",
      "to": "0xd29f7491e2269ba1f6f7b89ff3bbe6a65301e9af",
      "contractAddress": null,
      "daFootprintGasScalar": "0x8b",
      "l1BaseFeeScalar": "0x8dd",
      "l1BlobBaseFee": "0x2d9f0b",
      "l1BlobBaseFeeScalar": "0x101c12",
      "l1Fee": "0x621ca740",
      "l1GasPrice": "0x2e47ba8",
      "l1GasUsed": "0x1bde"
    },
    {
      "status": "0x1",
      "cumulativeGasUsed": "0x3a74f55",
      "logs": [],
      "logsBloom": "0x00000000000000000000000000000000000000000000000000000000000000000000000000000000000000000000000000000000000000000000000000000000000000000000000000000000000000000000000000000000000000000000000000000000000000000000000000000000000000000000000000000000000000000000000000000000000000000000000000000000000000000000000000000000000000000000000000000000000000000000000000000000000000000000000000000000000000000000000000000000000000000000000000000000000000000000000000000000000000000000000000000000000000000000000000000000",
      "type": "0x2",
      "transactionHash": "0x3e05fdd1f3282e35f83ac80c674ba5bf7cfb775b2f5e00918e909fbd587473ed",
      "transactionIndex": "0xa5",
      "blockHash": "0x1acfc437bb36bf9185e988ce3393da8a82301b2dab24a9cc82236df162169e79",
      "blockNumber": "0x27f4c64",
      "gasUsed": "0x70c51",
      "effectiveGasPrice": "0xcba0fd",
      "blobGasUsed": "0xfbf0",
      "from": "0xf17b5dd382b048ff4c05c1c9e4e24cfc5c6adad9",
      "to": "0xd29f7491e2269ba1f6f7b89ff3bbe6a65301e9af",
      "contractAddress": null,
      "daFootprintGasScalar": "0x8b",
      "l1BaseFeeScalar": "0x8dd",
      "l1BlobBaseFee": "0x2d9f0b",
      "l1BlobBaseFeeScalar": "0x101c12",
      "l1Fee": "0x580ec7bb",
      "l1GasPrice": "0x2e47ba8",
      "l1GasUsed": "0x1d05"
    },
    {
      "status": "0x1",
      "cumulativeGasUsed": "0x13ec425",
      "logs": [],
      "logsBloom": "0x00000000000000000000000000000000000000000000000000000000000000000000000000000000000000000000000000000000000000000000000000000000000000000000000000000000000000000000000000000000000000000000000000000000000000000000000000000000000000000000000000000000000000000000000000000000000000000000000000000000000000000000000000000000000000000000000000000000000000000000000000000000000000000000000000000000000000000000000000000000000000000000000000000000000000000000000000000000000000000000000000000000000000000000000000000000",
      "type": "0x2",
      "transactionHash": "0xf8314a97f655d1c41c59d38da61930b1057c2a8a527ba557ff7ca5f45f9210cf",
      "transactionIndex": "0x48",
      "blockHash": "0x4d3969534211bbdf2699efe9e8b34b467aa4bebd95b95a318c6657c00cd71369",
      "blockNumber": "0x27f4c65",
      "gasUsed": "0x6f10c",
      "effectiveGasPrice": "0xcbf452",
      "blobGasUsed": "0xbcf4",
      "from": "0xf17b5dd382b048ff4c05c1c9e4e24cfc5c6adad9",
      "to": "0xd29f7491e2269ba1f6f7b89ff3bbe6a65301e9af",
      "contractAddress": null,
      "daFootprintGasScalar": "0x8b",
      "l1BaseFeeScalar": "0x8dd",
      "l1BlobBaseFee": "0x2d9f0b",
      "l1BlobBaseFeeScalar": "0x101c12",
      "l1Fee": "0x66091773",
      "l1GasPrice": "0x2e47ba8",
      "l1GasUsed": "0x15c0"
    },
    {
      "status": "0x1",
      "cumulativeGasUsed": "0x1d5a483",
      "logs": [],
      "logsBloom": "0x00000000000000000000000000000000000000000000000000000000000000000000000000000000000000000000000000000000000000000000000000000000000000000000000000000000000000000000000000000000000000000000000000000000000000000000000000000000000000000000000000000000000000000000000000000000000000000000000000000000000000000000000000000000000000000000000000000000000000000000000000000000000000000000000000000000000000000000000000000000000000000000000000000000000000000000000000000000000000000000000000000000000000000000000000000000",
      "type": "0x2",
      "transactionHash": "0x4796ef8d625f5eb3390f05e78ffe055d945be8521bb9720cc82f709e9547151b",
      "transactionIndex": "0x64",
      "blockHash": "0xf9d573a82dc73468a136710ef350b6e1f3cc8e12373c8e07a9d8d0e59740bb3b",
      "blockNumber": "0x27f4c66",
      "gasUsed": "0x5d95f",
      "effectiveGasPrice": "0xcbd052",
      "blobGasUsed": "0xb5e5",
      "from": "0xf17b5dd382b048ff4c05c1c9e4e24cfc5c6adad9",
      "to": "0xd29f7491e2269ba1f6f7b89ff3bbe6a65301e9af",
      "contractAddress": null,
      "daFootprintGasScalar": "0x8b",
      "l1BaseFeeScalar": "0x8dd",
      "l1BlobBaseFee": "0x2e22ca",
      "l1BlobBaseFeeScalar": "0x101c12",
      "l1Fee": "0x1de38fc7",
      "l1GasPrice": "0x2fdf381",
      "l1GasUsed": "0x14f8"
    },
    {
      "status": "0x1",
      "cumulativeGasUsed": "0xce34ab",
      "logs": [],
      "logsBloom": "0x00000000000000000000000000000000000000000000000000000000000000000000000000000000000000000000000000000000000000000000000000000000000000000000000000000000000000000000000000000000000000000000000000000000000000000000000000000000000000000000000000000000000000000000000000000000000000000000000000000000000000000000000000000000000000000000000000000000000000000000000000000000000000000000000000000000000000000000000000000000000000000000000000000000000000000000000000000000000000000000000000000000000000000000000000000000",
      "type": "0x2",
      "transactionHash": "0x626e552c315227bdb91d52ef8f1897c50dab01e55b8c8431f9eb77bb1af7872c",
      "transactionIndex": "0x42",
      "blockHash": "0x6fc1aef81680860ea38da177c10b3bff4492060adc1357be5d7b25c784126365",
      "blockNumber": "0x27f4c67",
      "gasUsed": "0x5f83a",
      "effectiveGasPrice": "0xcb7213",
      "blobGasUsed": "0xc7d0",
      "from": "0xf17b5dd382b048ff4c05c1c9e4e24cfc5c6adad9",
      "to": "0xd29f7491e2269ba1f6f7b89ff3bbe6a65301e9af",
      "contractAddress": null,
      "daFootprintGasScalar": "0x8b",
      "l1BaseFeeScalar": "0x8dd",
      "l1BlobBaseFee": "0x2e22ca",
      "l1BlobBaseFeeScalar": "0x101c12",
      "l1Fee": "0x6e48268f",
      "l1GasPrice": "0x2fdf381",
      "l1GasUsed": "0x170f"
    },
    {
      "status": "0x1",
      "cumulativeGasUsed": "0x185f513",
      "logs": [],
      "logsBloom": "0x00000000000000000000000000000000000000000000000000000000000000000000000000000000000000000000000000000000000000000000000000000000000000000000000000000000000000000000000000000000000000000000000000000000000000000000000000000000000000000000000000000000000000000000000000000000000000000000000000000000000000000000000000000000000000000000000000000000000000000000000000000000000000000000000000000000000000000000000000000000000000000000000000000000000000000000000000000000000000000000000000000000000000000000000000000000",
      "type": "0x2",
      "transactionHash": "0x089b5ebd41bdca6e873bb0de7b8e24d0aface02f0aca6058cc3764933fb083c2",
      "transactionIndex": "0x5d",
      "blockHash": "0x3528ab5466c5e5d5f5bcf797d98eb3f6260acdb926b1186c088fbfda3e0cfa7d",
      "blockNumber": "0x27f4c68",
      "gasUsed": "0x58960",
      "effectiveGasPrice": "0xcb0e55",
      "blobGasUsed": "0x96f2",
      "from": "0xf17b5dd382b048ff4c05c1c9e4e24cfc5c6adad9",
      "to": "0xd29f7491e2269ba1f6f7b89ff3bbe6a65301e9af",
      "contractAddress": null,
      "daFootprintGasScalar": "0x8b",
      "l1BaseFeeScalar": "0x8dd",
      "l1BlobBaseFee": "0x2e22ca",
      "l1BlobBaseFeeScalar": "0x101c12",
      "l1Fee": "0x534793aa",
      "l1GasPrice": "0x2fdf381",
      "l1GasUsed": "0x116a"
    },
    {
      "status": "0x1",
      "cumulativeGasUsed": "0x17c6c58",
      "logs": [],
      "logsBloom": "0x00000000000000000000000000000000000000000000000000000000000000000000000000000000000000000000000000000000000000000000000000000000000000000000000000000000000000000000000000000000000000000000000000000000000000000000000000000000000000000000000000000000000000000000000000000000000000000000000000000000000000000000000000000000000000000000000000000000000000000000000000000000000000000000000000000000000000000000000000000000000000000000000000000000000000000000000000000000000000000000000000000000000000000000000000000000",
      "type": "0x2",
      "transactionHash": "0x1552729f85a240b73168fa0d7f48093519b2dc5a887693994f534f044c3c3231",
      "transactionIndex": "0x62",
      "blockHash": "0xe7df44f0196f07e35ddfb91ab64f8a086fb2dfed11c920001b82c3736e628244",
      "blockNumber": "0x27f4c69",
      "gasUsed": "0x5e2e0",
      "effectiveGasPrice": "0xcadb6d",
      "blobGasUsed": "0x9e01",
      "from": "0xf17b5dd382b048ff4c05c1c9e4e24cfc5c6adad9",
      "to": "0xd29f7491e2269ba1f6f7b89ff3bbe6a65301e9af",
      "contractAddress": null,
      "daFootprintGasScalar": "0x8b",
      "l1BaseFeeScalar": "0x8dd",
      "l1BlobBaseFee": "0x2e22ca",
      "l1BlobBaseFeeScalar": "0x101c12",
      "l1Fee": "0x1de38fc7",
      "l1GasPrice": "0x2fdf381",
      "l1GasUsed": "0x1232"
    },
    {
      "status": "0x1",
      "cumulativeGasUsed": "0x18b89a8",
      "logs": [],
      "logsBloom": "0x00000000000000000000000000000000000000000000000000000000000000000000000000000000000000000000000000000000000000000000000000000000000000000000000000000000000000000000000000000000000000000000000000000000000000000000000000000000000000000000000000000000000000000000000000000000000000000000000000000000000000000000000000000000000000000000000000000000000000000000000000000000000000000000000000000000000000000000000000000000000000000000000000000000000000000000000000000000000000000000000000000000000000000000000000000000",
      "type": "0x2",
      "transactionHash": "0xb8000f2a317fc731298a04198477a7c05c1794ec01dad1e00980dd683cea9783",
      "transactionIndex": "0x6b",
      "blockHash": "0x9ab7b6649f42477d0f911f12c81594cd7bd77cb9edea1343f1848760b75b6efb",
      "blockNumber": "0x27f4c6a",
      "gasUsed": "0x58c4d",
      "effectiveGasPrice": "0xca94f9",
      "blobGasUsed": "0x96f2",
      "from": "0xf17b5dd382b048ff4c05c1c9e4e24cfc5c6adad9",
      "to": "0xd29f7491e2269ba1f6f7b89ff3bbe6a65301e9af",
      "contractAddress": null,
      "daFootprintGasScalar": "0x8b",
      "l1BaseFeeScalar": "0x8dd",
      "l1BlobBaseFee": "0x2e22ca",
      "l1BlobBaseFeeScalar": "0x101c12",
      "l1Fee": "0x3c8717e3",
      "l1GasPrice": "0x2fdf381",
      "l1GasUsed": "0x116a"
    },
    {
      "status": "0x1",
      "cumulativeGasUsed": "0x18fdd99",
      "logs": [],
      "logsBloom": "0x00000000000000000000000000000000000000000000000000000000000000000000000000000000000000000000000000000000000000000000000000000000000000000000000000000000000000000000000000000000000000000000000000000000000000000000000000000000000000000000000000000000000000000000000000000000000000000000000000000000000000000000000000000000000000000000000000000000000000000000000000000000000000000000000000000000000000000000000000000000000000000000000000000000000000000000000000000000000000000000000000000000000000000000000000000000",
      "type": "0x2",
      "transactionHash": "0xdbbb27c13ab6f6bde35bc97d80e11cdfd2a04474873de1e5a61ccd02007a4e1e",
      "transactionIndex": "0x79",
      "blockHash": "0x703ff3315c614d96d7a418fa645f2c4c3a809721a62d9a25eac3ad11802f017f",
      "blockNumber": "0x27f4c6b",
      "gasUsed": "0x6a1f7",
      "effectiveGasPrice": "0xca7084",
      "blobGasUsed": "0xa36f",
      "from": "0xf17b5dd382b048ff4c05c1c9e4e24cfc5c6adad9",
      "to": "0xd29f7491e2269ba1f6f7b89ff3bbe6a65301e9af",
      "contractAddress": null,
      "daFootprintGasScalar": "0x8b",
      "l1BaseFeeScalar": "0x8dd",
      "l1BlobBaseFee": "0x2e22ca",
      "l1BlobBaseFeeScalar": "0x101c12",
      "l1Fee": "0x5a07b863",
      "l1GasPrice": "0x2fdf381",
      "l1GasUsed": "0x12d3"
    },
    {
      "status": "0x1",
      "cumulativeGasUsed": "0x13fd7c9",
      "logs": [],
      "logsBloom": "0x00000000000000000000000000000000000000000000000000000000000000000000000000000000000000000000000000000000000000000000000000000000000000000000000000000000000000000000000000000000000000000000000000000000000000000000000000000000000000000000000000000000000000000000000000000000000000000000000000000000000000000000000000000000000000000000000000000000000000000000000000000000000000000000000000000000000000000000000000000000000000000000000000000000000000000000000000000000000000000000000000000000000000000000000000000000",
      "type": "0x2",
      "transactionHash": "0xd548e2af9ab78e3964190df2bdaa814e2a78a1a84aa6cde680a676462a304762",
      "transactionIndex": "0x62",
      "blockHash": "0x56fe97d520e727b1e5a120f72aeb768c40473519e1399393a50347b545b1dc42",
      "blockNumber": "0x27f4c6c",
      "gasUsed": "0x58daf",
      "effectiveGasPrice": "0xca1b93",
      "blobGasUsed": "0x80af",
      "from": "0xf17b5dd382b048ff4c05c1c9e4e24cfc5c6adad9",
      "to": "0xd29f7491e2269ba1f6f7b89ff3bbe6a65301e9af",
      "contractAddress": null,
      "daFootprintGasScalar": "0x8b",
      "l1BaseFeeScalar": "0x8dd",
      "l1BlobBaseFee": "0x2e22ca",
      "l1BlobBaseFeeScalar": "0x101c12",
      "l1Fee": "0x462e4fbf",
      "l1GasPrice": "0x2e4cc4d",
      "l1GasUsed": "0xeda"
    },
    {
      "status": "0x1",
      "cumulativeGasUsed": "0x14f0e72",
      "logs": [],
      "logsBloom": "0x00000000000000000000000000000000000000000000000000000000000000000000000000000000000000000000000000000000000000000000000000000000000000000000000000000000000000000000000000000000000000000000000000000000000000000000000000000000000000000000000000000000000000000000000000000000000000000000000000000000000000000000000000000000000000000000000000000000000000000000000000000000000000000000000000000000000000000000000000000000000000000000000000000000000000000000000000000000000000000000000000000000000000000000000000000000",
      "type": "0x2",
      "transactionHash": "0x8d03d4d23c7ef4dc850705ff07dafc2a60f208b472c73fbd93b581ccc95d44d2",
      "transactionIndex": "0x72",
      "blockHash": "0x316e18e296ac16a268ae956783df7aec3bcea9e50fe03f00d61ec2b32b72f383",
      "blockNumber": "0x27f4c6d",
      "gasUsed": "0x5cfd1",
      "effectiveGasPrice": "0xc9a472",
      "blobGasUsed": "0xb2a3",
      "from": "0xf17b5dd382b048ff4c05c1c9e4e24cfc5c6adad9",
      "to": "0xd29f7491e2269ba1f6f7b89ff3bbe6a65301e9af",
      "contractAddress": null,
      "daFootprintGasScalar": "0x8b",
      "l1BaseFeeScalar": "0x8dd",
      "l1BlobBaseFee": "0x2e22ca",
      "l1BlobBaseFeeScalar": "0x101c12",
      "l1Fee": "0x615adf20",
      "l1GasPrice": "0x2e4cc4d",
      "l1GasUsed": "0x149a"
    },
    {
      "status": "0x1",
      "cumulativeGasUsed": "0x1814a9d",
      "logs": [],
      "logsBloom": "0x00000000000000000000000000000000000000000000000000000000000000000000000000000000000000000000000000000000000000000000000000000000000000000000000000000000000000000000000000000000000000000000000000000000000000000000000000000000000000000000000000000000000000000000000000000000000000000000000000000000000000000000000000000000000000000000000000000000000000000000000000000000000000000000000000000000000000000000000000000000000000000000000000000000000000000000000000000000000000000000000000000000000000000000000000000000",
      "type": "0x2",
      "transactionHash": "0xd50fca0b2dad5e3199341d338d389e11d2966d79272dc338c8cc19a86abe269d",
      "transactionIndex": "0x84",
      "blockHash": "0x7af92280f5a35bc0f635e2fcbb0fef6ea8160c1cdd07f66c14c3490c36d845db",
      "blockNumber": "0x27f4c6e",
      "gasUsed": "0x639ea",
      "effectiveGasPrice": "0xc93dc6",
      "blobGasUsed": "0xa7c7",
      "from": "0xf17b5dd382b048ff4c05c1c9e4e24cfc5c6adad9",
      "to": "0xd29f7491e2269ba1f6f7b89ff3bbe6a65301e9af",
      "contractAddress": null,
      "daFootprintGasScalar": "0x8b",
      "l1BaseFeeScalar": "0x8dd",
      "l1BlobBaseFee": "0x2e22ca",
      "l1BlobBaseFeeScalar": "0x101c12",
      "l1Fee": "0x5b6d13a0",
      "l1GasPrice": "0x2e4cc4d",
      "l1GasUsed": "0x1359"
    },
    {
      "status": "0x1",
      "cumulativeGasUsed": "0x17f3c56",
      "logs": [],
      "logsBloom": "0x00000000000000000000000000000000000000000000000000000000000000000000000000000000000000000000000000000000000000000000000000000000000000000000000000000000000000000000000000000000000000000000000000000000000000000000000000000000000000000000000000000000000000000000000000000000000000000000000000000000000000000000000000000000000000000000000000000000000000000000000000000000000000000000000000000000000000000000000000000000000000000000000000000000000000000000000000000000000000000000000000000000000000000000000000000000",
      "type": "0x2",
      "transactionHash": "0x930022284379c8d28e4c1e9f92ea24e6b657f6d93c51cccb67f8eb55664376c3",
      "transactionIndex": "0x7a",
      "blockHash": "0x7f668f4f0633beaa79bb8ac5267360c6a9002e253c5ecba660223d81594a8431",
      "blockNumber": "0x27f4c6f",
      "gasUsed": "0x5b8a1",
      "effectiveGasPrice": "0xc9215c",
      "blobGasUsed": "0xa3fa",
      "from": "0xf17b5dd382b048ff4c05c1c9e4e24cfc5c6adad9",
      "to": "0xd29f7491e2269ba1f6f7b89ff3bbe6a65301e9af",
      "contractAddress": null,
      "daFootprintGasScalar": "0x8b",
      "l1BaseFeeScalar": "0x8dd",
      "l1BlobBaseFee": "0x2e22ca",
      "l1BlobBaseFeeScalar": "0x101c12",
      "l1Fee": "0x62d65200",
      "l1GasPrice": "0x2e4cc4d",
      "l1GasUsed": "0x12e0"
    },
    {
      "status": "0x1",
      "cumulativeGasUsed": "0x1972fc6",
      "logs": [],
      "logsBloom": "0x00000000000000000000000000000000000000000000000000000000000000000000000000000000000000000000000000000000000000000000000000000000000000000000000000000000000000000000000000000000000000000000000000000000000000000000000000000000000000000000000000000000000000000000000000000000000000000000000000000000000000000000000000000000000000000000000000000000000000000000000000000000000000000000000000000000000000000000000000000000000000000000000000000000000000000000000000000000000000000000000000000000000000000000000000000000",
      "type": "0x2",
      "transactionHash": "0x72536aec50501b8180df1e979b469ad21c7d7b753b8670126cbca199ac5530ab",
      "transactionIndex": "0x95",
      "blockHash": "0x332969dc73a1db6a87b6c79a4c0e2a9733f9cd3b22373071acec342a4e12eaf4",
      "blockNumber": "0x27f4c70",
      "gasUsed": "0x5f69e",
      "effectiveGasPrice": "0xc8dc5d",
      "blobGasUsed": "0xbcf4",
      "from": "0xf17b5dd382b048ff4c05c1c9e4e24cfc5c6adad9",
      "to": "0xd29f7491e2269ba1f6f7b89ff3bbe6a65301e9af",
      "contractAddress": null,
      "daFootprintGasScalar": "0x8b",
      "l1BaseFeeScalar": "0x8dd",
      "l1BlobBaseFee": "0x2e22ca",
      "l1BlobBaseFeeScalar": "0x101c12",
      "l1Fee": "0x1d883ee5",
      "l1GasPrice": "0x2e4cc4d",
      "l1GasUsed": "0x15ce"
    },
    {
      "status": "0x1",
      "cumulativeGasUsed": "0x3351994",
      "logs": [],
      "logsBloom": "0x00000000000000000000000000000000000000000000000000000000000000000000000000000000000000000000000000000000000000000000000000000000000000000000000000000000000000000000000000000000000000000000000000000000000000000000000000000000000000000000000000000000000000000000000000000000000000000000000000000000000000000000000000000000000000000000000000000000000000000000000000000000000000000000000000000000000000000000000000000000000000000000000000000000000000000000000000000000000000000000000000000000000000000000000000000000",
      "type": "0x2",
      "transactionHash": "0x181104f4c2b8493704dd4314d6150111ce0b5f62ec2715e1e521ef9b991adde7",
      "transactionIndex": "0x77",
      "blockHash": "0x21933504c01a705a32ea1265fc5da29a9fe1fbbe12597a2ea2cc2266af799afb",
      "blockNumber": "0x27f4c71",
      "gasUsed": "0x571c9",
      "effectiveGasPrice": "0xc8752b",
      "blobGasUsed": "0x7bcc",
      "from": "0xf17b5dd382b048ff4c05c1c9e4e24cfc5c6adad9",
      "to": "0xd29f7491e2269ba1f6f7b89ff3bbe6a65301e9af",
      "contractAddress": null,
      "daFootprintGasScalar": "0x8b",
      "l1BaseFeeScalar": "0x8dd",
      "l1BlobBaseFee": "0x2e22ca",
      "l1BlobBaseFeeScalar": "0x101c12",
      "l1Fee": "0x62d65200",
      "l1GasPrice": "0x2e4cc4d",
      "l1GasUsed": "0xe47"
    },
    {
      "status": "0x1",
      "cumulativeGasUsed": "0x1e7b6f8",
      "logs": [],
      "logsBloom": "0x00000000000000000000000000000000000000000000000000000000000000000000000000000000000000000000000000000000000000000000000000000000000000000000000000000000000000000000000000000000000000000000000000000000000000000000000000000000000000000000000000000000000000000000000000000000000000000000000000000000000000000000000000000000000000000000000000000000000000000000000000000000000000000000000000000000000000000000000000000000000000000000000000000000000000000000000000000000000000000000000000000000000000000000000000000000",
      "type": "0x2",
      "transactionHash": "0xdceca4868b685f60d7b452f7d6bf06c93fb88cbd8f07eb195b068be62eea749b",
      "transactionIndex": "0x9f",
      "blockHash": "0x0b86fa99daee9db65cdb10e4d69a82402fc1a82c54153cbdf21c4a6344d0446f",
      "blockNumber": "0x27f4c72",
      "gasUsed": "0x66fcf",
      "effectiveGasPrice": "0xc8b7f4",
      "blobGasUsed": "0xbfab",
      "from": "0xf17b5dd382b048ff4c05c1c9e4e24cfc5c6adad9",
      "to": "0xd29f7491e2269ba1f6f7b89ff3bbe6a65301e9af",
      "contractAddress": null,
      "daFootprintGasScalar": "0x8b",
      "l1BaseFeeScalar": "0x8dd",
      "l1BlobBaseFee": "0x2f2ec2",
      "l1BlobBaseFeeScalar": "0x101c12",
      "l1Fee": "0x69d74670",
      "l1GasPrice": "0x2e0b1eb",
      "l1GasUsed": "0x161e"
    },
    {
      "status": "0x1",
      "cumulativeGasUsed": "0x375d709",
      "logs": [],
      "logsBloom": "0x00000000000000000000000000000000000000000000000000000000000000000000000000000000000000000000000000000000000000000000000000000000000000000000000000000000000000000000000000000000000000000000000000000000000000000000000000000000000000000000000000000000000000000000000000000000000000000000000000000000000000000000000000000000000000000000000000000000000000000000000000000000000000000000000000000000000000000000000000000000000000000000000000000000000000000000000000000000000000000000000000000000000000000000000000000000",
      "type": "0x2",
      "transactionHash": "0xcf511b5949a3d5139b640f87c6e51c64fe713ac9523a39ff173b1b75d35bda0d",
      "transactionIndex": "0xec",
      "blockHash": "0xc66967c033a5af6494f94c0953ff9f17ae4b2e61a96576992aa50616c6b524d6",
      "blockNumber": "0x27f4c73",
      "gasUsed": "0x5fb18",
      "effectiveGasPrice": "0xc865b6",
      "blobGasUsed": "0xa0b8",
      "from": "0xf17b5dd382b048ff4c05c1c9e4e24cfc5c6adad9",
      "to": "0xd29f7491e2269ba1f6f7b89ff3bbe6a65301e9af",
      "contractAddress": null,
      "daFootprintGasScalar": "0x8b",
      "l1BaseFeeScalar": "0x8dd",
      "l1BlobBaseFee": "0x2f2ec2",
      "l1BlobBaseFeeScalar": "0x101c12",
      "l1Fee": "0x58946d25",
      "l1GasPrice": "0x2e0b1eb",
      "l1GasUsed": "0x1283"
    },
    {
      "status": "0x1",
      "cumulativeGasUsed": "0x77fa54",
      "logs": [],
      "logsBloom": "0x00000000000000000000000000000000000000000000000000000000000000000000000000000000000000000000000000000000000000000000000000000000000000000000000000000000000000000000000000000000000000000000000000000000000000000000000000000000000000000000000000000000000000000000000000000000000000000000000000000000000000000000000000000000000000000000000000000000000000000000000000000000000000000000000000000000000000000000000000000000000000000000000000000000000000000000000000000000000000000000000000000000000000000000000000000000",
      "type": "0x2",
      "transactionHash": "0xda45937171ccc20bf8f1796957dce7aec9595070481ae6ba2e6060b930f1805f",
      "transactionIndex": "0x2b",
      "blockHash": "0x5747185cbbc46b98d8f7669da41b3d4c3b6d3121ec8ebe7f398a215c024c564b",
      "blockNumber": "0x27f4c75",
      "gasUsed": "0x59f12",
      "effectiveGasPrice": "0xc9a34f",
      "blobGasUsed": "0x8db7",
      "from": "0xf17b5dd382b048ff4c05c1c9e4e24cfc5c6adad9",
      "to": "0xd29f7491e2269ba1f6f7b89ff3bbe6a65301e9af",
      "contractAddress": null,
      "daFootprintGasScalar": "0x8b",
      "l1BaseFeeScalar": "0x8dd",
      "l1BlobBaseFee": "0x2f2ec2",
      "l1BlobBaseFeeScalar": "0x101c12",
      "l1Fee": "0x4e52bbcc",
      "l1GasPrice": "0x2e0b1eb",
      "l1GasUsed": "0x105e"
    },
    {
      "status": "0x1",
      "cumulativeGasUsed": "0x3452619",
      "logs": [],
      "logsBloom": "0x00000000000000000000000000000000000000000000000000000000000000000000000000000000000000000000000000000000000000000000000000000000000000000000000000000000000000000000000000000000000000000000000000000000000000000000000000000000000000000000000000000000000000000000000000000000000000000000000000000000000000000000000000000000000000000000000000000000000000000000000000000000000000000000000000000000000000000000000000000000000000000000000000000000000000000000000000000000000000000000000000000000000000000000000000000000",
      "type": "0x2",
      "transactionHash": "0x2099e01e24a2e07144a50edcbd25af8f7b25529b0decff6b56e8d132c830c61a",
      "transactionIndex": "0xce",
      "blockHash": "0xd2ad0bb74499d62e5d420dd7d7a8ea725c61edc050cc3dfdc2698419719e9c28",
      "blockNumber": "0x27f4c76",
      "gasUsed": "0x5a34f",
      "effectiveGasPrice": "0xc96273",
      "blobGasUsed": "0x906e",
      "from": "0xf17b5dd382b048ff4c05c1c9e4e24cfc5c6adad9",
      "to": "0xd29f7491e2269ba1f6f7b89ff3bbe6a65301e9af",
      "contractAddress": null,
      "daFootprintGasScalar": "0x8b",
      "l1BaseFeeScalar": "0x8dd",
      "l1BlobBaseFee": "0x2f2ec2",
      "l1BlobBaseFeeScalar": "0x101c12",
      "l1Fee": "0x4fd2fb37",
      "l1GasPrice": "0x2e0b1eb",
      "l1GasUsed": "0x10ae"
    },
    {
      "status": "0x1",
      "cumulativeGasUsed": "0x4ec1f4",
      "logs": [],
      "logsBloom": "0x00000000000000000000000000000000000000000000000000000000000000000000000000000000000000000000000000000000000000000000000000000000000000000000000000000000000000000000000000000000000000000000000000000000000000000000000000000000000000000000000000000000000000000000000000000000000000000000000000000000000000000000000000000000000000000000000000000000000000000000000000000000000000000000000000000000000000000000000000000000000000000000000000000000000000000000000000000000000000000000000000000000000000000000000000000000",
      "type": "0x2",
      "transactionHash": "0xeca55ae9bd5c781f8dbeae46b61e355370faed4d353b7b0ff3d9feaf7b8daabf",
      "transactionIndex": "0x1e",
      "blockHash": "0x6481d46eafc54a610a29500b5750726a53d40c4ff424a059c33dcd87a3846eeb",
      "blockNumber": "0x27f4c78",
      "gasUsed": "0x5938d",
      "effectiveGasPrice": "0xc907ad",
      "blobGasUsed": "0x89ea",
      "from": "0xf17b5dd382b048ff4c05c1c9e4e24cfc5c6adad9",
      "to": "0xd29f7491e2269ba1f6f7b89ff3bbe6a65301e9af",
      "contractAddress": null,
      "daFootprintGasScalar": "0x8b",
      "l1BaseFeeScalar": "0x8dd",
      "l1BlobBaseFee": "0x28c7c3",
      "l1BlobBaseFeeScalar": "0x101c12",
      "l1Fee": "0x456d2019",
      "l1GasPrice": "0x2e2a904",
      "l1GasUsed": "0xfe5"
    },
    {
      "status": "0x1",
      "cumulativeGasUsed": "0x3593ec5",
      "logs": [],
      "logsBloom": "0x00000000000000000000000000000000000000000000000000000000000000000000000000000000000000000000000000000000000000000000000000000000000000000000000000000000000000000000000000000000000000000000000000000000000000000000000000000000000000000000000000000000000000000000000000000000000000000000000000000000000000000000000000000000000000000000000000000000000000000000000000000000000000000000000000000000000000000000000000000000000000000000000000000000000000000000000000000000000000000000000000000000000000000000000000000000",
      "type": "0x2",
      "transactionHash": "0xb130278f5c657e1692743997d5e6aed47df89bc8bca67a4242e39b69dfb20fb8",
      "transactionIndex": "0xa9",
      "blockHash": "0xb6ca5f1123b29151437cf4231840fd7d6aa01ffefd78879176c796567f9352d9",
      "blockNumber": "0x27f4c79",
      "gasUsed": "0x5c1e8",
      "effectiveGasPrice": "0xc8be97",
      "blobGasUsed": "0x7f99",
      "from": "0xf17b5dd382b048ff4c05c1c9e4e24cfc5c6adad9",
      "to": "0xd29f7491e2269ba1f6f7b89ff3bbe6a65301e9af",
      "contractAddress": null,
      "daFootprintGasScalar": "0x8b",
      "l1BaseFeeScalar": "0x8dd",
      "l1BlobBaseFee": "0x28c7c3",
      "l1BlobBaseFeeScalar": "0x101c12",
      "l1Fee": "0x40674bd0",
      "l1GasPrice": "0x2e2a904",
      "l1GasUsed": "0xebf"
    },
    {
      "status": "0x1",
      "cumulativeGasUsed": "0x1afb0f4",
      "logs": [],
      "logsBloom": "0x00000000000000000000000000000000000000000000000000000000000000000000000000000000000000000000000000000000000000000000000000000000000000000000000000000000000000000000000000000000000000000000000000000000000000000000000000000000000000000000000000000000000000000000000000000000000000000000000000000000000000000000000000000000000000000000000000000000000000000000000000000000000000000000000000000000000000000000000000000000000000000000000000000000000000000000000000000000000000000000000000000000000000000000000000000000",
      "type": "0x2",
      "transactionHash": "0x1420537178dc072a0b53266a6b53aa43be523f32efa3a4264749b92cd40cb15c",
      "transactionIndex": "0x86",
      "blockHash": "0xe9f450975acb1b7da67294151b909c65c70b7e2e2f0880490f9fad634039e48f",
      "blockNumber": "0x27f4c7a",
      "gasUsed": "0x5f512",
      "effectiveGasPrice": "0xc8ea79",
      "blobGasUsed": "0xb18d",
      "from": "0xf17b5dd382b048ff4c05c1c9e4e24cfc5c6adad9",
      "to": "0xd29f7491e2269ba1f6f7b89ff3bbe6a65301e9af",
      "contractAddress": null,
      "daFootprintGasScalar": "0x8b",
      "l1BaseFeeScalar": "0x8dd",
      "l1BlobBaseFee": "0x28c7c3",
      "l1BlobBaseFeeScalar": "0x101c12",
      "l1Fee": "0x5fae8168",
      "l1GasPrice": "0x2e2a904",
      "l1GasUsed": "0x1472"
    },
    {
      "status": "0x1",
      "cumulativeGasUsed": "0x11bf6ed",
      "logs": [],
      "logsBloom": "0x00000000000000000000000000000000000000000000000000000000000000000000000000000000000000000000000000000000000000000000000000000000000000000000000000000000000000000000000000000000000000000000000000000000000000000000000000000000000000000000000000000000000000000000000000000000000000000000000000000000000000000000000000000000000000000000000000000000000000000000000000000000000000000000000000000000000000000000000000000000000000000000000000000000000000000000000000000000000000000000000000000000000000000000000000000000",
      "type": "0x2",
      "transactionHash": "0xbca14f8af743fba37f96670202d472575ec3bc5c5e4c23e9acb0031c1362f54c",
      "transactionIndex": "0x50",
      "blockHash": "0x0000000000000000000000000000000000000000000000000000000000000000",
      "blockNumber": "0x27f4c7b",
      "gasUsed": "0x64ff8",
      "effectiveGasPrice": "0xc85ae6",
      "blobGasUsed": "0xc62f",
      "from": "0xf17b5dd382b048ff4c05c1c9e4e24cfc5c6adad9",
      "to": "0xd29f7491e2269ba1f6f7b89ff3bbe6a65301e9af",
      "contractAddress": null,
      "daFootprintGasScalar": "0x8b",
      "l1BaseFeeScalar": "0x8dd",
      "l1BlobBaseFee": "0x28c7c3",
      "l1BlobBaseFeeScalar": "0x101c12",
      "l1Fee": "0x37456cc0",
      "l1GasPrice": "0x2e2a904",
      "l1GasUsed": "0x16da"
    },
    {
      "status": "0x1",
      "cumulativeGasUsed": "0x2355e09",
      "logs": [],
      "logsBloom": "0x00000000000000000000000000000000000000000000000000000000000000000000000000000000000000000000000000000000000000000000000000000000000000000000000000000000000000000000000000000000000000000000000000000000000000000000000000000000000000000000000000000000000000000000000000000000000000000000000000000000000000000000000000000000000000000000000000000000000000000000000000000000000000000000000000000000000000000000000000000000000000000000000000000000000000000000000000000000000000000000000000000000000000000000000000000000",
      "type": "0x2",
      "transactionHash": "0xef263bea6ff60b7f48c586dd1261850d57ccd682ba712ac819af31c8dfefa839",
      "transactionIndex": "0x88",
      "blockHash": "0x6c260370cf57601c3d9f3846c66c72a7ec3d1ce2d164052316389c31570105a1",
      "blockNumber": "0x27f4c7c",
      "gasUsed": "0x61e1d",
      "effectiveGasPrice": "0xc80213",
      "blobGasUsed": "0x8b00",
      "from": "0xf17b5dd382b048ff4c05c1c9e4e24cfc5c6adad9",
      "to": "0xd29f7491e2269ba1f6f7b89ff3bbe6a65301e9af",
      "contractAddress": null,
      "daFootprintGasScalar": "0x8b",
      "l1BaseFeeScalar": "0x8dd",
      "l1BlobBaseFee": "0x28c7c3",
      "l1BlobBaseFeeScalar": "0x101c12",
      "l1Fee": "0x1b4b102d",
      "l1GasPrice": "0x2e2a904",
      "l1GasUsed": "0x100e"
    }
  ],
  "libraries": [],
  "pending": [],
  "returns": {},
  "timestamp": 1770583514396,
  "chain": 8453,
  "commit": "f532988"
}