{
  "transactions": [
    {
      "hash": "0x1ad1b6b08f92d1d47a562542fb375a298eb3c9d70477705cdfa0a7c14b3cc21a",
      "transactionType": "CALL",
      "contractName": null,
      "contractAddress": "0xc45f4894f769602e1fdc888c935b294188a98064",
      "function": "addManyAccessories(bytes[])",
      "arguments": [
        "[0x17141f0d01000129050002290500010001290300012901000100012902000129020003000129030002000129020002290100012902000129010001290400012901000129, 0x18151b0d0200039301000193010001000193016701930167019302000193010001930100019301000293, 0x17141e0e010d055c010d0332015c0100010d0132025c0200010d015c0100015c0200010d0200015c02000300015c02000300015c0200, 0x17121f0d0100017d0100017d01000500027d0100027d0500027d0100027d0500027d0100017d01000100017d0300, 0x18151b0d0100020302000203010001030200020302000103030002030300]"
      ],
      "transaction": {
        "from": "0xf17b5dd382b048ff4c05c1c9e4e24cfc5c6adad9",
        "to": "0xc45f4894f769602e1fdc888c935b294188a98064",
        "gas": "0x81228",
        "value": "0x0",
        "input": "0x0475d8630000000000000000000000000000000000000000000000000000000000000020000000000000000000000000000000000000000000000000000000000000000500000000000000000000000000000000000000000000000000000000000000a00000000000000000000000000000000000000000000000000000000000000120000000000000000000000000000000000000000000000000000000000000018000000000000000000000000000000000000000000000000000000000000001e00000000000000000000000000000000000000000000000000000000000000240000000000000000000000000000000000000000000000000000000000000004417141f0d0100012905000229050001000129030001290100010001290200012902000300012903000200012902000229010001290200012901000129040001290100012900000000000000000000000000000000000000000000000000000000000000000000000000000000000000000000000000000000000000000000002a18151b0d020003930100019301000100019301670193016701930200019301000193010001930100029300000000000000000000000000000000000000000000000000000000000000000000000000000000000000000000000000000000003617141e0e010d055c010d0332015c0100010d0132025c0200010d015c0100015c0200010d0200015c02000300015c02000300015c020000000000000000000000000000000000000000000000000000000000000000000000000000000000002e17121f0d0100017d0100017d01000500027d0100027d0500027d0100027d0500027d0100017d01000100017d0300000000000000000000000000000000000000000000000000000000000000000000000000000000000000000000000000001e18151b0d01000203020002030100010302000203020001030300020303000000",
        "nonce": "0x51",
        "chainId": "0x2105"
      },
      "additionalContracts": [
        {
          "transactionType": "CREATE",
          "contractName": null,
          "address": "0x9ad078b9633c5806e5ff4abdd86bb254947c5f24",
          "initCode": "0x61004580600c6000396000f30017141f0d01000129050002290500010001290300012901000100012902000129020003000129030002000129020002290100012902000129010001290400012901000129"
        },
        {
          "transactionType": "CREATE",
          "contractName": null,
          "address": "0x1bb86dda509c9d6dd08996e3f26feae5fe75f67d",
          "initCode": "0x61002b80600c6000396000f30018151b0d0200039301000193010001000193016701930167019302000193010001930100019301000293"
        },
        {
          "transactionType": "CREATE",
          "contractName": null,
          "address": "0xe525f956d62bd5a1974d13a3e4a684308cc511bd",
          "initCode": "0x61003780600c6000396000f30017141e0e010d055c010d0332015c0100010d0132025c0200010d015c0100015c0200010d0200015c02000300015c02000300015c0200"
        },
        {
          "transactionType": "CREATE",
          "contractName": null,
          "address": "0x713d3f91f14be59adc2275a2e379a8af3fd29625",
          "initCode": "0x61002f80600c6000396000f30017121f0d0100017d0100017d01000500027d0100027d0500027d0100027d0500027d0100017d01000100017d0300"
        },
        {
          "transactionType": "CREATE",
          "contractName": null,
          "address": "0xa0d24626a59f1fc4b6de3cb7d612a0be94cbf33d",
          "initCode": "0x61001f80600c6000396000f30018151b0d0100020302000203010001030200020302000103030002030300"
        }
      ],
      "isFixedGasLimit": false
    },
    {
      "hash": "0x3d515555f30e99b8f79d3271f03634297c1f1de277d6e1c64922ecb88a10f094",
      "transactionType": "CALL",
      "contractName": null,
      "contractAddress": "0xc45f4894f769602e1fdc888c935b294188a98064",
      "function": "addManyAccessories(bytes[])",
      "arguments": [
        "[0x17131d0d04000130010003000230010003300114010c01cd01000130021401300100020003300100010001300400, 0x15141e0d011705000117010001170300011701000200011701000117020003000117030003000117030002000117010a011702000300011703000100011701000117010001170100020003170200, 0x15161f0b016009000160010001600700016001000200016005000160020003000160030001600300040003600400050001400500020002400160015c03600200030001400115025c01600300040001400115014004000300024003600300, 0x18141f0d040003170500021704000117010001170300011703000100021704000117010a01170400010001170500, 0x15141f0c01170600011701000117040001170100020001170200011702000300021703000200011702000117020001000117010a0217010a01170100020001170136010a01360117010003000117020a0117010004000117013601170100050002170100]"
      ],
      "transaction": {
        "from": "0xf17b5dd382b048ff4c05c1c9e4e24cfc5c6adad9",
        "to": "0xc45f4894f769602e1fdc888c935b294188a98064",
        "gas": "0x8c443",
        "value": "0x0",
        "input": "0x0475d8630000000000000000000000000000000000000000000000000000000000000020000000000000000000000000000000000000000000000000000000000000000500000000000000000000000000000000000000000000000000000000000000a00000000000000000000000000000000000000000000000000000000000000100000000000000000000000000000000000000000000000000000000000000018000000000000000000000000000000000000000000000000000000000000002000000000000000000000000000000000000000000000000000000000000000260000000000000000000000000000000000000000000000000000000000000002e17131d0d04000130010003000230010003300114010c01cd01000130021401300100020003300100010001300400000000000000000000000000000000000000000000000000000000000000000000000000000000000000000000000000004e15141e0d011705000117010001170300011701000200011701000117020003000117030003000117030002000117010a011702000300011703000100011701000117010001170100020003170200000000000000000000000000000000000000000000000000000000000000000000000000000000000000000000000000005e15161f0b016009000160010001600700016001000200016005000160020003000160030001600300040003600400050001400500020002400160015c03600200030001400115025c016003000400014001150140040003000240036003000000000000000000000000000000000000000000000000000000000000000000002e18141f0d040003170500021704000117010001170300011703000100021704000117010a01170400010001170500000000000000000000000000000000000000000000000000000000000000000000000000000000000000000000000000006415141f0c01170600011701000117040001170100020001170200011702000300021703000200011702000117020001000117010a0217010a01170100020001170136010a01360117010003000117020a011701000400011701360117010005000217010000000000000000000000000000000000000000000000000000000000",
        "nonce": "0x52",
        "chainId": "0x2105"
      },
      "additionalContracts": [
        {
          "transactionType": "CREATE",
          "contractName": null,
          "address": "0xaa4e32946e6858c6dc686ac549b3cd8ecdde4d5b",
          "initCode": "0x61002f80600c6000396000f30017131d0d04000130010003000230010003300114010c01cd01000130021401300100020003300100010001300400"
        },
        {
          "transactionType": "CREATE",
          "contractName": null,
          "address": "0xe383dbd89006b2d288d9f18657ea9e30e4fb7751",
          "initCode": "0x61004f80600c6000396000f30015141e0d011705000117010001170300011701000200011701000117020003000117030003000117030002000117010a011702000300011703000100011701000117010001170100020003170200"
        },
        {
          "transactionType": "CREATE",
          "contractName": null,
          "address": "0xb70b039575bc4ee1d6d6f275f5e7690e1d30817d",
          "initCode": "0x61005f80600c6000396000f30015161f0b016009000160010001600700016001000200016005000160020003000160030001600300040003600400050001400500020002400160015c03600200030001400115025c01600300040001400115014004000300024003600300"
        },
        {
          "transactionType": "CREATE",
          "contractName": null,
          "address": "0x5ff003c79e3c3c70139efbc162829b066ec70009",
          "initCode": "0x61002f80600c6000396000f30018141f0d040003170500021704000117010001170300011703000100021704000117010a01170400010001170500"
        },
        {
          "transactionType": "CREATE",
          "contractName": null,
          "address": "0x972bb91c97a816b52396ffb7d8f559a53e650040",
          "initCode": "0x61006580600c6000396000f30015141f0c01170600011701000117040001170100020001170200011702000300021703000200011702000117020001000117010a0217010a01170100020001170136010a01360117010003000117020a0117010004000117013601170100050002170100"
        }
      ],
      "isFixedGasLimit": false
    },
    {
      "hash": "0x85f0a00c743dbb6fafcf8425d789087790c970e67fb3acd84bb5e2940f8c6125",
      "transactionType": "CALL",
      "contractName": null,
      "contractAddress": "0xc45f4894f769602e1fdc888c935b294188a98064",
      "function": "addManyAccessories(bytes[])",
      "arguments": [
        "[0x15141c0c01170600011701000117040001170100020001170200011702000300021703000100028e0249028e010001000117030a0149018e010001000417028e0100, 0x15141e0c0117060001170100011704000117010002000117020001170200030002170300020001170200011702000100011701360217010a0117010001000117040a0117010002000117020a01170200030002170300, 0x15141f0c011706000117010001170400011701000200011702000117020003000217030001000217020a02170100010001170100021701000117010001000217020a0217010002000117020a01170200010001170100021701000117010001000117040001170100, 0x17141e0d0300038e01000200018e0300018e0100018e017a018e0200018e018e0100018e0100018e0100018e018e0200018e017a018e0100018e0300018e02000100038e0300, 0x16131d0e0188030001880188030001880100018801000188010001000188010001880100020001880200028801000288028801000288]"
      ],
      "transaction": {
        "from": "0xf17b5dd382b048ff4c05c1c9e4e24cfc5c6adad9",
        "to": "0xc45f4894f769602e1fdc888c935b294188a98064",
        "gas": "0x85b6a",
        "value": "0x0",
        "input": "0x0475d8630000000000000000000000000000000000000000000000000000000000000020000000000000000000000000000000000000000000000000000000000000000500000000000000000000000000000000000000000000000000000000000000a0000000000000000000000000000000000000000000000000000000000000012000000000000000000000000000000000000000000000000000000000000001a0000000000000000000000000000000000000000000000000000000000000024000000000000000000000000000000000000000000000000000000000000002c0000000000000000000000000000000000000000000000000000000000000004215141c0c01170600011701000117040001170100020001170200011702000300021703000100028e0249028e010001000117030a0149018e010001000417028e0100000000000000000000000000000000000000000000000000000000000000000000000000000000000000000000000000000000000000000000000000005615141e0c0117060001170100011704000117010002000117020001170200030002170300020001170200011702000100011701360217010a0117010001000117040a0117010002000117020a0117020003000217030000000000000000000000000000000000000000000000000000000000000000000000000000000000006815141f0c011706000117010001170400011701000200011702000117020003000217030001000217020a02170100010001170100021701000117010001000217020a0217010002000117020a01170200010001170100021701000117010001000117040001170100000000000000000000000000000000000000000000000000000000000000000000000000000000000000000000000000000000000000004617141e0d0300038e01000200018e0300018e0100018e017a018e0200018e018e0100018e0100018e0100018e018e0200018e017a018e0100018e0300018e02000100038e03000000000000000000000000000000000000000000000000000000000000000000000000000000000000000000000000000000000000000000003616131d0e018803000188018803000188010001880100018801000100018801000188010002000188020002880100028802880100028800000000000000000000",
        "nonce": "0x53",
        "chainId": "0x2105"
      },
      "additionalContracts": [
        {
          "transactionType": "CREATE",
          "contractName": null,
          "address": "0x71c2185b8c578e718ef921034168ee2af188574d",
          "initCode": "0x61004380600c6000396000f30015141c0c01170600011701000117040001170100020001170200011702000300021703000100028e0249028e010001000117030a0149018e010001000417028e0100"
        },
        {
          "transactionType": "CREATE",
          "contractName": null,
          "address": "0x19dbf3f7dd648b6e9eeb5269d48506febabe7d43",
          "initCode": "0x61005780600c6000396000f30015141e0c0117060001170100011704000117010002000117020001170200030002170300020001170200011702000100011701360217010a0117010001000117040a0117010002000117020a01170200030002170300"
        },
        {
          "transactionType": "CREATE",
          "contractName": null,
          "address": "0xdb4d3674918db0fb50e3d1dba0e8571ea38f4a40",
          "initCode": "0x61006980600c6000396000f30015141f0c011706000117010001170400011701000200011702000117020003000217030001000217020a02170100010001170100021701000117010001000217020a0217010002000117020a01170200010001170100021701000117010001000117040001170100"
        },
        {
          "transactionType": "CREATE",
          "contractName": null,
          "address": "0x5fb207eb8e965f83efabfde8b94a63bcdccc1c55",
          "initCode": "0x61004780600c6000396000f30017141e0d0300038e01000200018e0300018e0100018e017a018e0200018e018e0100018e0100018e0100018e018e0200018e017a018e0100018e0300018e02000100038e0300"
        },
        {
          "transactionType": "CREATE",
          "contractName": null,
          "address": "0x8706324be630bce810c4947ca816918d60043b86",
          "initCode": "0x61003780600c6000396000f30016131d0e0188030001880188030001880100018801000188010001000188010001880100020001880200028801000288028801000288"
        }
      ],
      "isFixedGasLimit": false
    },
    {
      "hash": "0x8576756cc37a2ddf8d22a9a9d9d244f14de0bea706a7af014f39b82a2d4d8891",
      "transactionType": "CALL",
      "contractName": null,
      "contractAddress": "0xc45f4894f769602e1fdc888c935b294188a98064",
      "function": "addManyAccessories(bytes[])",
      "arguments": [
        "[0x16141e0c0100011706000117010a011701000117020001170100011702000117030003000117010a0117020001000217030a021703000117010a01170200040001170300040001170300, 0x15172009023002030230020302300203023001300127020c0227020c0227020c012701300103010c0285020c0285020c0285010c01030103010c01990185020c0285020c0285010c0103026b01000103021e020c021e020c011e016b026b01000103021e020c021e020c011e016b020301000131020c0210020c0210010c0103020301000131020c0210020c0210010c010302c4010001030251020c0251020c015101c402c4010001030251020c0251020c015101c4020c0100012a020c022a020c022a020c, 0x151720090e8001800cc3018001ec0cbe01ec01ec01be01ec0abe01ec02e1010001e109cb01e102e1010001e109cb01e102e1010001e109c201e102e1010001e109c201e102e0010001e0099001e002e0010001e0099001e0029001000b90, 0x151720090e8001800cc3018001300c1401300130011401300a14013002930100019309520193029301000193095201930293010001930952019302930100019309520193023b0100013b0909013b023b0100013b0909013b020901000b09, 0x151720090eee01ee017501d7017501d7017501d7017501d7017501d7017501d701ee01ee0c7501ee01ee017501ee0a7501d102d1010001d1097501d102d1010001d1097501d102d1010001d1097501d101d1015c0100015c017501510175015101750151017501510175015c025c0100015c0951015c015c012601000126015101df015101df015101df015101df0151012602df01000bdf]"
      ],
      "transaction": {
        "from": "0xf17b5dd382b048ff4c05c1c9e4e24cfc5c6adad9",
        "to": "0xc45f4894f769602e1fdc888c935b294188a98064",
        "gas": "0x970b1",
        "value": "0x0",
        "input": "0x0475d8630000000000000000000000000000000000000000000000000000000000000020000000000000000000000000000000000000000000000000000000000000000500000000000000000000000000000000000000000000000000000000000000a00000000000000000000000000000000000000000000000000000000000000120000000000000000000000000000000000000000000000000000000000000022000000000000000000000000000000000000000000000000000000000000002a00000000000000000000000000000000000000000000000000000000000000320000000000000000000000000000000000000000000000000000000000000004a16141e0c0100011706000117010a011701000117020001170100011702000117030003000117010a0117020001000217030a021703000117010a011702000400011703000400011703000000000000000000000000000000000000000000000000000000000000000000000000000000000000000000000000000000000000c615172009023002030230020302300203023001300127020c0227020c0227020c012701300103010c0285020c0285020c0285010c01030103010c01990185020c0285020c0285010c0103026b01000103021e020c021e020c011e016b026b01000103021e020c021e020c011e016b020301000131020c0210020c0210010c0103020301000131020c0210020c0210010c010302c4010001030251020c0251020c015101c402c4010001030251020c0251020c015101c4020c0100012a020c022a020c022a020c0000000000000000000000000000000000000000000000000000000000000000000000000000000000000000000000000000000000000000005e151720090e8001800cc3018001ec0cbe01ec01ec01be01ec0abe01ec02e1010001e109cb01e102e1010001e109cb01e102e1010001e109c201e102e1010001e109c201e102e0010001e0099001e002e0010001e0099001e0029001000b900000000000000000000000000000000000000000000000000000000000000000005e151720090e8001800cc3018001300c1401300130011401300a14013002930100019309520193029301000193095201930293010001930952019302930100019309520193023b0100013b0909013b023b0100013b0909013b020901000b0900000000000000000000000000000000000000000000000000000000000000000098151720090eee01ee017501d7017501d7017501d7017501d7017501d7017501d701ee01ee0c7501ee01ee017501ee0a7501d102d1010001d1097501d102d1010001d1097501d102d1010001d1097501d101d1015c0100015c017501510175015101750151017501510175015c025c0100015c0951015c015c012601000126015101df015101df015101df015101df0151012602df01000bdf0000000000000000",
        "nonce": "0x54",
        "chainId": "0x2105"
      },
      "additionalContracts": [
        {
          "transactionType": "CREATE",
          "contractName": null,
          "address": "0x56ebe9aa98412325e9e9608bba5658b22872a470",
          "initCode": "0x61004b80600c6000396000f30016141e0c0100011706000117010a011701000117020001170100011702000117030003000117010a0117020001000217030a021703000117010a01170200040001170300040001170300"
        },
        {
          "transactionType": "CREATE",
          "contractName": null,
          "address": "0x0fc90cbc0d31b8780de39153a88fe781fd74e46f",
          "initCode": "0x6100c780600c6000396000f30015172009023002030230020302300203023001300127020c0227020c0227020c012701300103010c0285020c0285020c0285010c01030103010c01990185020c0285020c0285010c0103026b01000103021e020c021e020c011e016b026b01000103021e020c021e020c011e016b020301000131020c0210020c0210010c0103020301000131020c0210020c0210010c010302c4010001030251020c0251020c015101c402c4010001030251020c0251020c015101c4020c0100012a020c022a020c022a020c"
        },
        {
          "transactionType": "CREATE",
          "contractName": null,
          "address": "0x688b0dc24215c383041be7d10503e04944e6d651",
          "initCode": "0x61005f80600c6000396000f300151720090e8001800cc3018001ec0cbe01ec01ec01be01ec0abe01ec02e1010001e109cb01e102e1010001e109cb01e102e1010001e109c201e102e1010001e109c201e102e0010001e0099001e002e0010001e0099001e0029001000b90"
        },
        {
          "transactionType": "CREATE",
          "contractName": null,
          "address": "0x525e486fc4bf576e774047ecb293dc87ea4c3af5",
          "initCode": "0x61005f80600c6000396000f300151720090e8001800cc3018001300c1401300130011401300a14013002930100019309520193029301000193095201930293010001930952019302930100019309520193023b0100013b0909013b023b0100013b0909013b020901000b09"
        },
        {
          "transactionType": "CREATE",
          "contractName": null,
          "address": "0x00cefdcffab39d61332d3d793a76bed167a91737",
          "initCode": "0x61009980600c6000396000f300151720090eee01ee017501d7017501d7017501d7017501d7017501d7017501d701ee01ee0c7501ee01ee017501ee0a7501d102d1010001d1097501d102d1010001d1097501d102d1010001d1097501d101d1015c0100015c017501510175015101750151017501510175015c025c0100015c0951015c015c012601000126015101df015101df015101df015101df0151012602df01000bdf"
        }
      ],
      "isFixedGasLimit": false
    },
    {
      "hash": "0x082b36f0be160d9bbc1b2a79df9aae34c149e67d8ff39a2c0f3f9550eabb2e79",
      "transactionType": "CALL",
      "contractName": null,
      "contractAddress": "0xc45f4894f769602e1fdc888c935b294188a98064",
      "function": "addManyAccessories(bytes[])",
      "arguments": [
        "[0x151720090e0801080cbf010801240c5101240124015101240a5101240224010001240951012402240100012409510124025c0100015c0951015c025c0100015c0951015c025c0100015c0951015c025c0100015c0951015c025101000b51, 0x151720090ed201d20cdb01d201880c1d01880188011d01880a1d0188028e0100018e097a018e028e0100018e097a018e025701000157096d0157025701000157096d0157023101000131091001310231010001310910013102bd01000bbd, 0x151720090e7701770c27017701770c27017701c501e901c50ae901c502c5010001c509e901c502c5010001c509e901c502c5010001c509e901c502c5010001c509e901c502c5010001c509e901c502cf010001cf09bd01cf02bd01000bbd, 0x151720090ef301f30c8601f301f30c8601f301cd01e301cd0ae301cd028801000188091d01880280010001800941018002300100013009be013002300100013009be013002c5010001c509e901c502c5010001c509e901c502e901000be9, 0x18141e0d01000273010002730100017302f7017301000273017301f701730100017301f701730100017301f7017301000173010002000173010001730200030001730300]"
      ],
      "transaction": {
        "from": "0xf17b5dd382b048ff4c05c1c9e4e24cfc5c6adad9",
        "to": "0xc45f4894f769602e1fdc888c935b294188a98064",
        "gas": "0x8a7b9",
        "value": "0x0",
        "input": "0x0475d8630000000000000000000000000000000000000000000000000000000000000020000000000000000000000000000000000000000000000000000000000000000500000000000000000000000000000000000000000000000000000000000000a0000000000000000000000000000000000000000000000000000000000000012000000000000000000000000000000000000000000000000000000000000001a0000000000000000000000000000000000000000000000000000000000000022000000000000000000000000000000000000000000000000000000000000002a0000000000000000000000000000000000000000000000000000000000000005e151720090e0801080cbf010801240c5101240124015101240a5101240224010001240951012402240100012409510124025c0100015c0951015c025c0100015c0951015c025c0100015c0951015c025c0100015c0951015c025101000b510000000000000000000000000000000000000000000000000000000000000000005e151720090ed201d20cdb01d201880c1d01880188011d01880a1d0188028e0100018e097a018e028e0100018e097a018e025701000157096d0157025701000157096d0157023101000131091001310231010001310910013102bd01000bbd0000000000000000000000000000000000000000000000000000000000000000005e151720090e7701770c27017701770c27017701c501e901c50ae901c502c5010001c509e901c502c5010001c509e901c502c5010001c509e901c502c5010001c509e901c502c5010001c509e901c502cf010001cf09bd01cf02bd01000bbd0000000000000000000000000000000000000000000000000000000000000000005e151720090ef301f30c8601f301f30c8601f301cd01e301cd0ae301cd028801000188091d01880280010001800941018002300100013009be013002300100013009be013002c5010001c509e901c502c5010001c509e901c502e901000be90000000000000000000000000000000000000000000000000000000000000000004418141e0d01000273010002730100017302f7017301000273017301f701730100017301f701730100017301f701730100017301000200017301000173020003000173030000000000000000000000000000000000000000000000000000000000",
        "nonce": "0x55",
        "chainId": "0x2105"
      },
      "additionalContracts": [
        {
          "transactionType": "CREATE",
          "contractName": null,
          "address": "0x4cf9d78c46c2a5593801bc47910c4da2ae266c45",
          "initCode": "0x61005f80600c6000396000f300151720090e0801080cbf010801240c5101240124015101240a5101240224010001240951012402240100012409510124025c0100015c0951015c025c0100015c0951015c025c0100015c0951015c025c0100015c0951015c025101000b51"
        },
        {
          "transactionType": "CREATE",
          "contractName": null,
          "address": "0x21205a3c4dc40a323ca4567c0cc071e128d75d35",
          "initCode": "0x61005f80600c6000396000f300151720090ed201d20cdb01d201880c1d01880188011d01880a1d0188028e0100018e097a018e028e0100018e097a018e025701000157096d0157025701000157096d0157023101000131091001310231010001310910013102bd01000bbd"
        },
        {
          "transactionType": "CREATE",
          "contractName": null,
          "address": "0x20e87c1f5196074473d76a4cbb02594bedaa3684",
          "initCode": "0x61005f80600c6000396000f300151720090e7701770c27017701770c27017701c501e901c50ae901c502c5010001c509e901c502c5010001c509e901c502c5010001c509e901c502c5010001c509e901c502c5010001c509e901c502cf010001cf09bd01cf02bd01000bbd"
        },
        {
          "transactionType": "CREATE",
          "contractName": null,
          "address": "0xdd23325d2d9245e5d2c8d7f44f4d12adefc0ebcd",
          "initCode": "0x61005f80600c6000396000f300151720090ef301f30c8601f301f30c8601f301cd01e301cd0ae301cd028801000188091d01880280010001800941018002300100013009be013002300100013009be013002c5010001c509e901c502c5010001c509e901c502e901000be9"
        },
        {
          "transactionType": "CREATE",
          "contractName": null,
          "address": "0x6517fc0a1911e3a9de2436f99dd0ee75609ead8f",
          "initCode": "0x61004580600c6000396000f30018141e0d01000273010002730100017302f7017301000273017301f701730100017301f701730100017301f7017301000173010002000173010001730200030001730300"
        }
      ],
      "isFixedGasLimit": false
    },
    {
      "hash": "0xeaa9e04b9cd6f14f643db82f171b698fa959217413413badd5c792ff2851fa81",
      "transactionType": "CALL",
      "contractName": null,
      "contractAddress": "0xc45f4894f769602e1fdc888c935b294188a98064",
      "function": "addManyAccessories(bytes[])",
      "arguments": [
        "[0x18131e0e020001940100019403000194010002000288010001000288020001000188030001880400, 0x18171d090117010003170100031701000317010001000117030001170300011703000117021702000117010a011701000117010a0117010002170100011703000117030001170300011701170200021701000317010003170100, 0x151720090230028f02350230028f0235023001300114022a02220214022a022201140130013501220214022a02220214022a012201350135012201300114022a02220214022a01220135028f010001350214022a02220214012a018f028f010001350214022a02220214012a018f02300100018f02220214022a02220114013002300100018f02220214022a022201140130023501000130022a02220214022a01220135023501000130022a02220214022a01220135022a010001220214022a02220214022a, 0x151720090400036b0100036b0100026b036b0100016b011e016b0100036b0300016b011e016b0100036b0700036b0700036b01000600036b0100016b011e016b01000300026b0100016b011e016b0100036b0100016b0200026b0100036b0500016b0200026b0700026b016b0700036b0100026b0400036b0100016b011e016b0100026b021e0200031e0100031e0300, 0x15172009040003950100039501000295039501000195019e01950100039503000195019e019501000395070003950700039501000600039501000195019e019501000300029501000195019e019501000395010001950200029501000395050001950200029507000295019507000395010002950400039501000195019e019501000295029e0200039e0100039e0300]"
      ],
      "transaction": {
        "from": "0xf17b5dd382b048ff4c05c1c9e4e24cfc5c6adad9",
        "to": "0xc45f4894f769602e1fdc888c935b294188a98064",
        "gas": "0xa0187",
        "value": "0x0",
        "input": "0x0475d8630000000000000000000000000000000000000000000000000000000000000020000000000000000000000000000000000000000000000000000000000000000500000000000000000000000000000000000000000000000000000000000000a00000000000000000000000000000000000000000000000000000000000000100000000000000000000000000000000000000000000000000000000000000018000000000000000000000000000000000000000000000000000000000000002800000000000000000000000000000000000000000000000000000000000000340000000000000000000000000000000000000000000000000000000000000002818131e0e020001940100019403000194010002000288010001000288020001000188030001880400000000000000000000000000000000000000000000000000000000000000000000000000000000000000000000000000000000000000005a18171d090117010003170100031701000317010001000117030001170300011703000117021702000117010a011701000117010a011701000217010001170300011703000117030001170117020002170100031701000317010000000000000000000000000000000000000000000000000000000000000000000000000000c6151720090230028f02350230028f0235023001300114022a02220214022a022201140130013501220214022a02220214022a012201350135012201300114022a02220214022a01220135028f010001350214022a02220214012a018f028f010001350214022a02220214012a018f02300100018f02220214022a02220114013002300100018f02220214022a022201140130023501000130022a02220214022a01220135023501000130022a02220214022a01220135022a010001220214022a02220214022a00000000000000000000000000000000000000000000000000000000000000000000000000000000000000000000000000000000000000000090151720090400036b0100036b0100026b036b0100016b011e016b0100036b0300016b011e016b0100036b0700036b0700036b01000600036b0100016b011e016b01000300026b0100016b011e016b0100036b0100016b0200026b0100036b0500016b0200026b0700026b016b0700036b0100026b0400036b0100016b011e016b0100026b021e0200031e0100031e030000000000000000000000000000000000000000000000000000000000000000000000000000000000000000000000009015172009040003950100039501000295039501000195019e01950100039503000195019e019501000395070003950700039501000600039501000195019e019501000300029501000195019e019501000395010001950200029501000395050001950200029507000295019507000395010002950400039501000195019e019501000295029e0200039e0100039e030000000000000000000000000000000000",
        "nonce": "0x56",
        "chainId": "0x2105"
      },
      "additionalContracts": [
        {
          "transactionType": "CREATE",
          "contractName": null,
          "address": "0x2c51ef28fb04018f8fc6866b0fd9f0ffc20cdf15",
          "initCode": "0x61002980600c6000396000f30018131e0e020001940100019403000194010002000288010001000288020001000188030001880400"
        },
        {
          "transactionType": "CREATE",
          "contractName": null,
          "address": "0x81db29c84d0081a0df351ba146efadeb23fb8dd6",
          "initCode": "0x61005b80600c6000396000f30018171d090117010003170100031701000317010001000117030001170300011703000117021702000117010a011701000117010a0117010002170100011703000117030001170300011701170200021701000317010003170100"
        },
        {
          "transactionType": "CREATE",
          "contractName": null,
          "address": "0x3156e19f497e83cba28927de08d5a905c405d4f9",
          "initCode": "0x6100c780600c6000396000f300151720090230028f02350230028f0235023001300114022a02220214022a022201140130013501220214022a02220214022a012201350135012201300114022a02220214022a01220135028f010001350214022a02220214012a018f028f010001350214022a02220214012a018f02300100018f02220214022a02220114013002300100018f02220214022a022201140130023501000130022a02220214022a01220135023501000130022a02220214022a01220135022a010001220214022a02220214022a"
        },
        {
          "transactionType": "CREATE",
          "contractName": null,
          "address": "0x8b1849c4644528d22ddd130cda6b2c7c258642ea",
          "initCode": "0x61009180600c6000396000f300151720090400036b0100036b0100026b036b0100016b011e016b0100036b0300016b011e016b0100036b0700036b0700036b01000600036b0100016b011e016b01000300026b0100016b011e016b0100036b0100016b0200026b0100036b0500016b0200026b0700026b016b0700036b0100026b0400036b0100016b011e016b0100026b021e0200031e0100031e0300"
        },
        {
          "transactionType": "CREATE",
          "contractName": null,
          "address": "0x2382c134339d9a01e2faa16896ad42e01269db1e",
          "initCode": "0x61009180600c6000396000f30015172009040003950100039501000295039501000195019e01950100039503000195019e019501000395070003950700039501000600039501000195019e019501000300029501000195019e019501000395010001950200029501000395050001950200029507000295019507000395010002950400039501000195019e019501000295029e0200039e0100039e0300"
        }
      ],
      "isFixedGasLimit": false
    },
    {
      "hash": "0x4782f94c5b1cf3236ee7bc707d52cb9bbcfe5202484226a098a97b24498e5ffe",
      "transactionType": "CALL",
      "contractName": null,
      "contractAddress": "0xc45f4894f769602e1fdc888c935b294188a98064",
      "function": "addManyAccessories(bytes[])",
      "arguments": [
        "[0x15172009040003dc010003f3010002800347010001dc016d01dc010003f30300014701bd0147010003dc040003470347040003ec0100014701bd014703000380010001ec011301ec0100034702f30100018001410180010003ec040002f301000380040003f3010002f3040003dc010001f3018601f3010003000247010001dc016d01dc010003f3010001ec02000247010003dc040001470113020002bd04000313010001bd, 0x1517200903000203040002030300030002030400020303000e0002030400020304000203020304000203040002030e0003000203040002030300030002030400020303000e0002030400020304000203020c0400020c0400020c, 0x151720090300020d0400020d03000300020d0400020d03000e00020d0400020d0400020d020d0400020d0400020d0e000300020d0400020d03000300020d0400020d03000e00020d0400020d0400020d02020400020204000202, 0x15172009027d02310283027d02310283027d017d01f40210024302f40210024301f4017d0183014302f40210024302f402100143018301830143017d01f40210024302f402100143018302310100018302f40210024302f40110013102310100018302f40210024302f401100131027d01000131024302f40210024301f4017d027d01000131024302f40210024301f4017d02830100017d0210024302f402100143018302830100017d0210024302f402100143018302100100014302f40210024302f40210, 0x15172009035703000357030002570157016d015703000157016d015703000257035703000357030002570300035703000357020003000157016d015703000157016d015702000300035703000357020002570400035703000257025704000157016d01570300025702570400035703000257030003570300035702000300036d0300036d0200]"
      ],
      "transaction": {
        "from": "0xf17b5dd382b048ff4c05c1c9e4e24cfc5c6adad9",
        "to": "0xc45f4894f769602e1fdc888c935b294188a98064",
        "gas": "0xa4ecf",
        "value": "0x0",
        "input": "0x0475d8630000000000000000000000000000000000000000000000000000000000000020000000000000000000000000000000000000000000000000000000000000000500000000000000000000000000000000000000000000000000000000000000a0000000000000000000000000000000000000000000000000000000000000018000000000000000000000000000000000000000000000000000000000000002000000000000000000000000000000000000000000000000000000000000000280000000000000000000000000000000000000000000000000000000000000038000000000000000000000000000000000000000000000000000000000000000a615172009040003dc010003f3010002800347010001dc016d01dc010003f30300014701bd0147010003dc040003470347040003ec0100014701bd014703000380010001ec011301ec0100034702f30100018001410180010003ec040002f301000380040003f3010002f3040003dc010001f3018601f3010003000247010001dc016d01dc010003f3010001ec02000247010003dc040001470113020002bd04000313010001bd0000000000000000000000000000000000000000000000000000000000000000000000000000000000000000000000000000000000000000005a1517200903000203040002030300030002030400020303000e0002030400020304000203020304000203040002030e0003000203040002030300030002030400020303000e0002030400020304000203020c0400020c0400020c000000000000000000000000000000000000000000000000000000000000000000000000005a151720090300020d0400020d03000300020d0400020d03000e00020d0400020d0400020d020d0400020d0400020d0e000300020d0400020d03000300020d0400020d03000e00020d0400020d0400020d0202040002020400020200000000000000000000000000000000000000000000000000000000000000000000000000c615172009027d02310283027d02310283027d017d01f40210024302f40210024301f4017d0183014302f40210024302f402100143018301830143017d01f40210024302f402100143018302310100018302f40210024302f40110013102310100018302f40210024302f401100131027d01000131024302f40210024301f4017d027d01000131024302f40210024301f4017d02830100017d0210024302f402100143018302830100017d0210024302f402100143018302100100014302f40210024302f402100000000000000000000000000000000000000000000000000000000000000000000000000000000000000000000000000000000000000000008615172009035703000357030002570157016d015703000157016d015703000257035703000357030002570300035703000357020003000157016d015703000157016d015702000300035703000357020002570400035703000257025704000157016d01570300025702570400035703000257030003570300035702000300036d0300036d02000000000000000000000000000000000000000000000000000000",
        "nonce": "0x57",
        "chainId": "0x2105"
      },
      "additionalContracts": [
        {
          "transactionType": "CREATE",
          "contractName": null,
          "address": "0xddb47b98bb97377b336ac27baa42c790bed4b8da",
          "initCode": "0x6100a780600c6000396000f30015172009040003dc010003f3010002800347010001dc016d01dc010003f30300014701bd0147010003dc040003470347040003ec0100014701bd014703000380010001ec011301ec0100034702f30100018001410180010003ec040002f301000380040003f3010002f3040003dc010001f3018601f3010003000247010001dc016d01dc010003f3010001ec02000247010003dc040001470113020002bd04000313010001bd"
        },
        {
          "transactionType": "CREATE",
          "contractName": null,
          "address": "0xc7db32ffbe845c789ed0367f5acaf28e12360eb3",
          "initCode": "0x61005b80600c6000396000f3001517200903000203040002030300030002030400020303000e0002030400020304000203020304000203040002030e0003000203040002030300030002030400020303000e0002030400020304000203020c0400020c0400020c"
        },
        {
          "transactionType": "CREATE",
          "contractName": null,
          "address": "0x685ffadd53a6f20651114a9665ac13dc8c5a7100",
          "initCode": "0x61005b80600c6000396000f300151720090300020d0400020d03000300020d0400020d03000e00020d0400020d0400020d020d0400020d0400020d0e000300020d0400020d03000300020d0400020d03000e00020d0400020d0400020d02020400020204000202"
        },
        {
          "transactionType": "CREATE",
          "contractName": null,
          "address": "0x3f2c26e593227b86696cb946fc1dbce51df9f7c5",
          "initCode": "0x6100c780600c6000396000f30015172009027d02310283027d02310283027d017d01f40210024302f40210024301f4017d0183014302f40210024302f402100143018301830143017d01f40210024302f402100143018302310100018302f40210024302f40110013102310100018302f40210024302f401100131027d01000131024302f40210024301f4017d027d01000131024302f40210024301f4017d02830100017d0210024302f402100143018302830100017d0210024302f402100143018302100100014302f40210024302f40210"
        },
        {
          "transactionType": "CREATE",
          "contractName": null,
          "address": "0xf6d34cd38f3f29664aead25f2255298a715d3874",
          "initCode": "0x61008780600c6000396000f30015172009035703000357030002570157016d015703000157016d015703000257035703000357030002570300035703000357020003000157016d015703000157016d015702000300035703000357020002570400035703000257025704000157016d01570300025702570400035703000257030003570300035702000300036d0300036d0200"
        }
      ],
      "isFixedGasLimit": false
    },
    {
      "hash": "0xe0c7df61abb9499e4ef643c42d57aab924df6cc7003a572471c7fb37cce7c0c0",
      "transactionType": "CALL",
      "contractName": null,
      "contractAddress": "0xc45f4894f769602e1fdc888c935b294188a98064",
      "function": "addManyAccessories(bytes[])",
      "arguments": [
        "[0x1517200903530300035303000253015301fa01530300015301fa01530300025303530300035303000253030003530300035302000300015301fa01530300015301fa01530200030003530300035302000253040003530300025302530400015301fa0153030002530253040003530300025303000353030003530200030003fa030003fa0200, 0x151720090200020302000203020002030200020002030200020302000203020002030200020302000203020002030203020002030200020302000203030001030200020302000203020003000103020002030200020302000203020002030200020302000203020302000203020002030200020303000103020002030200020302000300010302000203020002030200020c0200020c0200020c0200020c, 0x1517200902350200023502000235020002350235020002350200023502000235020002350200023502000235020002000235020002350200023502000235020002350200023502000235023502000235020002350200023503000135020002350200023502000300013502000235020002350200023502000235020002350200023502350200023502000235020002350300012202000222020002220200, 0x1517200902000293020002930200029302000200029302000293020002930200029302000293020002930200029302930200029302000293020002930300019302000293020002930200030001930200029302000293020002930200029302000293020002930293020002930200029302000293030001930200029302000293020003000193020002930200029302000267020002670200026702000267, 0x18131e0d030002300100020d0200010d01c10100040d01000200020d02000200010d0300020001c10300]"
      ],
      "transaction": {
        "from": "0xf17b5dd382b048ff4c05c1c9e4e24cfc5c6adad9",
        "to": "0xc45f4894f769602e1fdc888c935b294188a98064",
        "gas": "0x9968a",
        "value": "0x0",
        "input": "0x0475d8630000000000000000000000000000000000000000000000000000000000000020000000000000000000000000000000000000000000000000000000000000000500000000000000000000000000000000000000000000000000000000000000a00000000000000000000000000000000000000000000000000000000000000160000000000000000000000000000000000000000000000000000000000000022000000000000000000000000000000000000000000000000000000000000002e000000000000000000000000000000000000000000000000000000000000003a000000000000000000000000000000000000000000000000000000000000000861517200903530300035303000253015301fa01530300015301fa01530300025303530300035303000253030003530300035302000300015301fa01530300015301fa01530200030003530300035302000253040003530300025302530400015301fa0153030002530253040003530300025303000353030003530200030003fa030003fa02000000000000000000000000000000000000000000000000000000000000000000000000000000000000000000000000000000000000000000009e151720090200020302000203020002030200020002030200020302000203020002030200020302000203020002030203020002030200020302000203030001030200020302000203020003000103020002030200020302000203020002030200020302000203020302000203020002030200020303000103020002030200020302000300010302000203020002030200020c0200020c0200020c0200020c0000000000000000000000000000000000000000000000000000000000000000009e15172009023502000235020002350200023502350200023502000235020002350200023502000235020002350200020002350200023502000235020002350200023502000235020002350235020002350200023502000235030001350200023502000235020003000135020002350200023502000235020002350200023502000235023502000235020002350200023503000122020002220200022202000000000000000000000000000000000000000000000000000000000000000000009e15172009020002930200029302000293020002000293020002930200029302000293020002930200029302000293029302000293020002930200029303000193020002930200029302000300019302000293020002930200029302000293020002930200029302930200029302000293020002930300019302000293020002930200030001930200029302000293020002670200026702000267020002670000000000000000000000000000000000000000000000000000000000000000002a18131e0d030002300100020d0200010d01c10100040d01000200020d02000200010d0300020001c1030000000000000000000000000000000000000000000000",
        "nonce": "0x58",
        "chainId": "0x2105"
      },
      "additionalContracts": [
        {
          "transactionType": "CREATE",
          "contractName": null,
          "address": "0xed63bb936e12431dd549f1b408954f4efae9f9e8",
          "initCode": "0x61008780600c6000396000f3001517200903530300035303000253015301fa01530300015301fa01530300025303530300035303000253030003530300035302000300015301fa01530300015301fa01530200030003530300035302000253040003530300025302530400015301fa0153030002530253040003530300025303000353030003530200030003fa030003fa0200"
        },
        {
          "transactionType": "CREATE",
          "contractName": null,
          "address": "0x8a645af681b244582a682d649243621559c5a737",
          "initCode": "0x61009f80600c6000396000f300151720090200020302000203020002030200020002030200020302000203020002030200020302000203020002030203020002030200020302000203030001030200020302000203020003000103020002030200020302000203020002030200020302000203020302000203020002030200020303000103020002030200020302000300010302000203020002030200020c0200020c0200020c0200020c"
        },
        {
          "transactionType": "CREATE",
          "contractName": null,
          "address": "0xeb9d8fa96bb033cb0c1b83e6d5f7bf4eed3434e0",
          "initCode": "0x61009f80600c6000396000f3001517200902350200023502000235020002350235020002350200023502000235020002350200023502000235020002000235020002350200023502000235020002350200023502000235023502000235020002350200023503000135020002350200023502000300013502000235020002350200023502000235020002350200023502350200023502000235020002350300012202000222020002220200"
        },
        {
          "transactionType": "CREATE",
          "contractName": null,
          "address": "0x3d83fba0fbbb272bd7b885c0adc536187c0e6b1b",
          "initCode": "0x61009f80600c6000396000f3001517200902000293020002930200029302000200029302000293020002930200029302000293020002930200029302930200029302000293020002930300019302000293020002930200030001930200029302000293020002930200029302000293020002930293020002930200029302000293030001930200029302000293020003000193020002930200029302000267020002670200026702000267"
        },
        {
          "transactionType": "CREATE",
          "contractName": null,
          "address": "0xd27864e243d10aad7fb6b3a50f7182c23c5dd94c",
          "initCode": "0x61002b80600c6000396000f30018131e0d030002300100020d0200010d01c10100040d01000200020d02000200010d0300020001c10300"
        }
      ],
      "isFixedGasLimit": false
    },
    {
      "hash": "0x06266b7d4c3b793c4e225f254a618878a2e09e627ad2ab2afef7f05ff81399ba",
      "transactionType": "CALL",
      "contractName": null,
      "contractAddress": "0xc45f4894f769602e1fdc888c935b294188a98064",
      "function": "addManyAccessories(bytes[])",
      "arguments": [
        "[0x18131b0d0200030d01000100010d0302010d060d, 0x17151f0d02000294040002000194014e0194030001000194010001940100029401000194014e019401000194014e0194010002940100019401000194020002000194014e019403000200029401000194020006000294, 0x151718090e5301170c0a01170e88, 0x18141d0d0500012801000100032801030111013b012801000128010c011101280100012801000128023b0128010002000128020001280100, 0x151720090e6002000160045c016003000160015c016002000160055c0360015c0160010001000260015c0160035c026001000260010002600100016001000160015c016002000460026001000360025c0360030001600200016002000160015c0160050003000560015c0260030003000160040002600100026001000100016001000560025c0160025c016003000b5c]"
      ],
      "transaction": {
        "from": "0xf17b5dd382b048ff4c05c1c9e4e24cfc5c6adad9",
        "to": "0xc45f4894f769602e1fdc888c935b294188a98064",
        "gas": "0x8143d",
        "value": "0x0",
        "input": "0x0475d8630000000000000000000000000000000000000000000000000000000000000020000000000000000000000000000000000000000000000000000000000000000500000000000000000000000000000000000000000000000000000000000000a000000000000000000000000000000000000000000000000000000000000000e0000000000000000000000000000000000000000000000000000000000000016000000000000000000000000000000000000000000000000000000000000001a00000000000000000000000000000000000000000000000000000000000000200000000000000000000000000000000000000000000000000000000000000001418131b0d0200030d01000100010d0302010d060d000000000000000000000000000000000000000000000000000000000000000000000000000000000000005617151f0d02000294040002000194014e0194030001000194010001940100029401000194014e019401000194014e0194010002940100019401000194020002000194014e01940300020002940100019402000600029400000000000000000000000000000000000000000000000000000000000000000000000000000000000e151718090e5301170c0a01170e88000000000000000000000000000000000000000000000000000000000000000000000000000000000000000000000000003818141d0d0500012801000100032801030111013b012801000128010c011101280100012801000128023b012801000200012802000128010000000000000000000000000000000000000000000000000000000000000000000000000000000090151720090e6002000160045c016003000160015c016002000160055c0360015c0160010001000260015c0160035c026001000260010002600100016001000160015c016002000460026001000360025c0360030001600200016002000160015c0160050003000560015c0260030003000160040002600100026001000100016001000560025c0160025c016003000b5c00000000000000000000000000000000",
        "nonce": "0x59",
        "chainId": "0x2105"
      },
      "additionalContracts": [
        {
          "transactionType": "CREATE",
          "contractName": null,
          "address": "0x10f021b161c66b10479afb5709a1e0fa189e8416",
          "initCode": "0x61001580600c6000396000f30018131b0d0200030d01000100010d0302010d060d"
        },
        {
          "transactionType": "CREATE",
          "contractName": null,
          "address": "0x27ecf2ea875eb608ae91c18cc408e5f5dcb6a8df",
          "initCode": "0x61005780600c6000396000f30017151f0d02000294040002000194014e0194030001000194010001940100029401000194014e019401000194014e0194010002940100019401000194020002000194014e019403000200029401000194020006000294"
        },
        {
          "transactionType": "CREATE",
          "contractName": null,
          "address": "0x0a19e4badaa669ec7fd5f6a1e9debb1069e9b733",
          "initCode": "0x61000f80600c6000396000f300151718090e5301170c0a01170e88"
        },
        {
          "transactionType": "CREATE",
          "contractName": null,
          "address": "0x20d80ff1a0969efb46bf128e9c3ac3aa65aa14ec",
          "initCode": "0x61003980600c6000396000f30018141d0d0500012801000100032801030111013b012801000128010c011101280100012801000128023b0128010002000128020001280100"
        },
        {
          "transactionType": "CREATE",
          "contractName": null,
          "address": "0xd4620b89685d2d08d2039c5159ce0001b7bce339",
          "initCode": "0x61009180600c6000396000f300151720090e6002000160045c016003000160015c016002000160055c0360015c0160010001000260015c0160035c026001000260010002600100016001000160015c016002000460026001000360025c0360030001600200016002000160015c0160050003000560015c0260030003000160040002600100026001000100016001000560025c0160025c016003000b5c"
        }
      ],
      "isFixedGasLimit": false
    },
    {
      "hash": "0x67dd9b5c2da235c1a1c0eaae50e66793cbd6019d3475917ba531022a36b72b52",
      "transactionType": "CALL",
      "contractName": null,
      "contractAddress": "0xc45f4894f769602e1fdc888c935b294188a98064",
      "function": "addManyAccessories(bytes[])",
      "arguments": [
        "[0x151720090e6001d201db065c03db025c01600188011d0b5c01880188015c0160075c011d025c0188026001000160017a035c027a035c0160026001000160075c027a018e0160015701000160026d035c046d0157025701000160075c026d01570231010001600410025c0110025c01310131016001000160095c016002bd01000b5c, 0x17131e0d020003dc0100020001dc010001dc0100020002dc016d01dc020001dc016d01dc010001dc010001dc016d01dc010003dc016d02dc030001dc0200, 0x15141f0c0117060001170117060001170100011704000117010002000417020003000217030002000117010a0217020002000217040004000217020002000217010a01170200030002170300, 0x17141f0d02570100035701000100035701000257025703000157010003000357010001000257040001570300025701000100035702000157020001570400, 0x18131b0e01ba010002ba0100010001ba02360180010003ba0100]"
      ],
      "transaction": {
        "from": "0xf17b5dd382b048ff4c05c1c9e4e24cfc5c6adad9",
        "to": "0xc45f4894f769602e1fdc888c935b294188a98064",
        "gas": "0x8bb07",
        "value": "0x0",
        "input": "0x0475d8630000000000000000000000000000000000000000000000000000000000000020000000000000000000000000000000000000000000000000000000000000000500000000000000000000000000000000000000000000000000000000000000a0000000000000000000000000000000000000000000000000000000000000016000000000000000000000000000000000000000000000000000000000000001c0000000000000000000000000000000000000000000000000000000000000024000000000000000000000000000000000000000000000000000000000000002a00000000000000000000000000000000000000000000000000000000000000082151720090e6001d201db065c03db025c01600188011d0b5c01880188015c0160075c011d025c0188026001000160017a035c027a035c0160026001000160075c027a018e0160015701000160026d035c046d0157025701000160075c026d01570231010001600410025c0110025c01310131016001000160095c016002bd01000b5c000000000000000000000000000000000000000000000000000000000000000000000000000000000000000000000000000000000000000000000000003e17131e0d020003dc0100020001dc010001dc0100020002dc016d01dc020001dc016d01dc010001dc010001dc016d01dc010003dc016d02dc030001dc02000000000000000000000000000000000000000000000000000000000000000000004c15141f0c0117060001170117060001170100011704000117010002000417020003000217030002000117010a0217020002000217040004000217020002000217010a011702000300021703000000000000000000000000000000000000000000000000000000000000000000000000000000000000000000000000000000003e17141f0d025701000357010001000357010002570257030001570100030003570100010002570400015703000257010001000357020001570200015704000000000000000000000000000000000000000000000000000000000000000000001a18131b0e01ba010002ba0100010001ba02360180010003ba0100000000000000",
        "nonce": "0x5a",
        "chainId": "0x2105"
      },
      "additionalContracts": [
        {
          "transactionType": "CREATE",
          "contractName": null,
          "address": "0xc05fdbdafcaa4f661464dec72e80c4ef21ec7d2d",
          "initCode": "0x61008380600c6000396000f300151720090e6001d201db065c03db025c01600188011d0b5c01880188015c0160075c011d025c0188026001000160017a035c027a035c0160026001000160075c027a018e0160015701000160026d035c046d0157025701000160075c026d01570231010001600410025c0110025c01310131016001000160095c016002bd01000b5c"
        },
        {
          "transactionType": "CREATE",
          "contractName": null,
          "address": "0x1cb27b423db2887572ff9467e03f899c0215fef2",
          "initCode": "0x61003f80600c6000396000f30017131e0d020003dc0100020001dc010001dc0100020002dc016d01dc020001dc016d01dc010001dc010001dc016d01dc010003dc016d02dc030001dc0200"
        },
        {
          "transactionType": "CREATE",
          "contractName": null,
          "address": "0x1890f19d34a0d79ec368927f3bcb05470309b8e5",
          "initCode": "0x61004d80600c6000396000f30015141f0c0117060001170117060001170100011704000117010002000417020003000217030002000117010a0217020002000217040004000217020002000217010a01170200030002170300"
        },
        {
          "transactionType": "CREATE",
          "contractName": null,
          "address": "0x02e73bc587272944f1b1f66743a3bd025fd8c85f",
          "initCode": "0x61003f80600c6000396000f30017141f0d02570100035701000100035701000257025703000157010003000357010001000257040001570300025701000100035702000157020001570400"
        },
        {
          "transactionType": "CREATE",
          "contractName": null,
          "address": "0x710024d1d5cabfd225f1811a92a263be4ea71301",
          "initCode": "0x61001b80600c6000396000f30018131b0e01ba010002ba0100010001ba02360180010003ba0100"
        }
      ],
      "isFixedGasLimit": false
    },
    {
      "hash": "0xa4706f475bb7e1b5c193f913f12eaebc288f7fb2fe0c76e3b33d6e4ac8970a49",
      "transactionType": "CALL",
      "contractName": null,
      "contractAddress": "0xc45f4894f769602e1fdc888c935b294188a98064",
      "function": "addManyAccessories(bytes[])",
      "arguments": [
        "[0x18131e0e02000131020002000131020001000331010001fb033101fb01000131015a01310100020001310200, 0x18151d0d020004fb0200010001fb010002fb010001fb010001fb020002fb020001fb010001fb040001fb0100020004fb0200, 0x17151e0d0100010d06000200020d04000300030d0200030d0202030d0200030d03000400020d02000600010d0100, 0x17131e0e011701900117019001170117013c010a013c01170177032701770177030a01770177020a012701770177010a022701770577, 0x18161b0d070302000103010c010301000103020c020303030100030301000103]"
      ],
      "transaction": {
        "from": "0xf17b5dd382b048ff4c05c1c9e4e24cfc5c6adad9",
        "to": "0xc45f4894f769602e1fdc888c935b294188a98064",
        "gas": "0x7a5bf",
        "value": "0x0",
        "input": "0x0475d8630000000000000000000000000000000000000000000000000000000000000020000000000000000000000000000000000000000000000000000000000000000500000000000000000000000000000000000000000000000000000000000000a00000000000000000000000000000000000000000000000000000000000000100000000000000000000000000000000000000000000000000000000000000016000000000000000000000000000000000000000000000000000000000000001c00000000000000000000000000000000000000000000000000000000000000220000000000000000000000000000000000000000000000000000000000000002c18131e0e02000131020002000131020001000331010001fb033101fb01000131015a013101000200013102000000000000000000000000000000000000000000000000000000000000000000000000000000000000000000000000000000003218151d0d020004fb0200010001fb010002fb010001fb010001fb020002fb020001fb010001fb040001fb0100020004fb02000000000000000000000000000000000000000000000000000000000000000000000000000000000000000000002e17151e0d0100010d06000200020d04000300030d0200030d0202030d0200030d03000400020d02000600010d0100000000000000000000000000000000000000000000000000000000000000000000000000000000000000000000000000003617131e0e011701900117019001170117013c010a013c01170177032701770177030a01770177020a012701770177010a02270177057700000000000000000000000000000000000000000000000000000000000000000000000000000000002018161b0d070302000103010c010301000103020c020303030100030301000103",
        "nonce": "0x5b",
        "chainId": "0x2105"
      },
      "additionalContracts": [
        {
          "transactionType": "CREATE",
          "contractName": null,
          "address": "0x4a83da56664383775499b6a30dbefc5b29274a95",
          "initCode": "0x61002d80600c6000396000f30018131e0e02000131020002000131020001000331010001fb033101fb01000131015a01310100020001310200"
        },
        {
          "transactionType": "CREATE",
          "contractName": null,
          "address": "0x7e164dcb21528d780f5af4f288ded1aa7a5becfd",
          "initCode": "0x61003380600c6000396000f30018151d0d020004fb0200010001fb010002fb010001fb010001fb020002fb020001fb010001fb040001fb0100020004fb0200"
        },
        {
          "transactionType": "CREATE",
          "contractName": null,
          "address": "0xa9481878dd3545a0c56408abaa9df0c0fd480709",
          "initCode": "0x61002f80600c6000396000f30017151e0d0100010d06000200020d04000300030d0200030d0202030d0200030d03000400020d02000600010d0100"
        },
        {
          "transactionType": "CREATE",
          "contractName": null,
          "address": "0x25f44505bbe8fe9586bd86dfa6c36079ea1570c7",
          "initCode": "0x61003780600c6000396000f30017131e0e011701900117019001170117013c010a013c01170177032701770177030a01770177020a012701770177010a022701770577"
        },
        {
          "transactionType": "CREATE",
          "contractName": null,
          "address": "0x55f52aa480d11b70730edf4822f0a6f4fe2bd451",
          "initCode": "0x61002180600c6000396000f30018161b0d070302000103010c010301000103020c020303030100030301000103"
        }
      ],
      "isFixedGasLimit": false
    },
    {
      "hash": "0xc35671a90a71a4881a34347defcac68da5e709d409fd059f5f0fd58780cf0a9a",
      "transactionType": "CALL",
      "contractName": null,
      "contractAddress": "0xc45f4894f769602e1fdc888c935b294188a98064",
      "function": "addManyAccessories(bytes[])",
      "arguments": [
        "[0x18161b0d07c9020001c9010001c9010001c9010003c903c9010003c9010001c9, 0x17141e0d07c901c9010002c9010002c9020002c9010002c907000794019401000294010002940200029401000294, 0x19121c0f018e0100018e018e02c1028e01c1, 0x15171d090e8e038e01c8018e0100018e01c8028e01c8018e01c8018e018e0200018e0200028e0200018e0100028e018e0500018e0500018e01000600018e0300018e0100018e0100018e0b00018e01000600018e07000600018e0700, 0x16171f0901b0010001b0010001b0010001b0010001b0010001b0010001b001000e00010001b0010001b0010001b0010001b0010001b0010001b0010001b00e0001b0030001b0010001b0010001b0010001b0010001b001000e00010001b0010001b0010001b0010001b0010001b0010001b0010001b00e0001b0030001b0010001b0010001b0010001b0010001b00100]"
      ],
      "transaction": {
        "from": "0xf17b5dd382b048ff4c05c1c9e4e24cfc5c6adad9",
        "to": "0xc45f4894f769602e1fdc888c935b294188a98064",
        "gas": "0x8215f",
        "value": "0x0",
        "input": "0x0475d8630000000000000000000000000000000000000000000000000000000000000020000000000000000000000000000000000000000000000000000000000000000500000000000000000000000000000000000000000000000000000000000000a000000000000000000000000000000000000000000000000000000000000000e0000000000000000000000000000000000000000000000000000000000000014000000000000000000000000000000000000000000000000000000000000001800000000000000000000000000000000000000000000000000000000000000200000000000000000000000000000000000000000000000000000000000000002018161b0d07c9020001c9010001c9010001c9010003c903c9010003c9010001c9000000000000000000000000000000000000000000000000000000000000002e17141e0d07c901c9010002c9010002c9020002c9010002c907000794019401000294010002940200029401000294000000000000000000000000000000000000000000000000000000000000000000000000000000000000000000000000001219121c0f018e0100018e018e02c1028e01c10000000000000000000000000000000000000000000000000000000000000000000000000000000000000000005c15171d090e8e038e01c8018e0100018e01c8028e01c8018e01c8018e018e0200018e0200028e0200018e0100028e018e0500018e0500018e01000600018e0300018e0100018e0100018e0b00018e01000600018e07000600018e070000000000000000000000000000000000000000000000000000000000000000000000009016171f0901b0010001b0010001b0010001b0010001b0010001b0010001b001000e00010001b0010001b0010001b0010001b0010001b0010001b0010001b00e0001b0030001b0010001b0010001b0010001b0010001b001000e00010001b0010001b0010001b0010001b0010001b0010001b0010001b00e0001b0030001b0010001b0010001b0010001b0010001b0010000000000000000000000000000000000",
        "nonce": "0x5c",
        "chainId": "0x2105"
      },
      "additionalContracts": [
        {
          "transactionType": "CREATE",
          "contractName": null,
          "address": "0xa2e657ed3e0478fb23b8dae00070e479fcad6c6f",
          "initCode": "0x61002180600c6000396000f30018161b0d07c9020001c9010001c9010001c9010003c903c9010003c9010001c9"
        },
        {
          "transactionType": "CREATE",
          "contractName": null,
          "address": "0x1d5dfebbbbaaa92d537db3b2031a9fbc00ff7553",
          "initCode": "0x61002f80600c6000396000f30017141e0d07c901c9010002c9010002c9020002c9010002c907000794019401000294010002940200029401000294"
        },
        {
          "transactionType": "CREATE",
          "contractName": null,
          "address": "0xe614339604bd35bc7e9c6ad445d0ec9b73514ba8",
          "initCode": "0x61001380600c6000396000f30019121c0f018e0100018e018e02c1028e01c1"
        },
        {
          "transactionType": "CREATE",
          "contractName": null,
          "address": "0x1c832dc55b866808fcf280e77a129bb245eb792c",
          "initCode": "0x61005d80600c6000396000f30015171d090e8e038e01c8018e0100018e01c8028e01c8018e01c8018e018e0200018e0200028e0200018e0100028e018e0500018e0500018e01000600018e0300018e0100018e0100018e0b00018e01000600018e07000600018e0700"
        },
        {
          "transactionType": "CREATE",
          "contractName": null,
          "address": "0x247c6dda7aa8cfaba98ee759dfe991f27830f58b",
          "initCode": "0x61009180600c6000396000f30016171f0901b0010001b0010001b0010001b0010001b0010001b0010001b001000e00010001b0010001b0010001b0010001b0010001b0010001b0010001b00e0001b0030001b0010001b0010001b0010001b0010001b001000e00010001b0010001b0010001b0010001b0010001b0010001b0010001b00e0001b0030001b0010001b0010001b0010001b0010001b00100"
        }
      ],
      "isFixedGasLimit": false
    },
    {
      "hash": "0xddaf949493f4dd92ab617a4454b4465f40bf2ae4a5da8427fae69550ab0b65ca",
      "transactionType": "CALL",
      "contractName": null,
      "contractAddress": "0xc45f4894f769602e1fdc888c935b294188a98064",
      "function": "addManyAccessories(bytes[])",
      "arguments": [
        "[0x18141e0d01000273010002730100017302f7017302f70173017305f701730100017303f7017301000200017301f701730200030001730300, 0x16121c0f010d0100010d010d0100010d010d0100010d010d010001b1010d020001b10200, 0x17151b100200010d02000217010a0217010d0302010d050d, 0x17141f0d0100023f0400013f0200013f0300013f06000100033f03000300033f01000600013f0300013f0200013f0400023f0100, 0x16131e0e020001cd0200010001cd016a01cd0100020001cd0200010001cd01e301cd010001cd036a01cd01cd01e3026a01cd01cd036a01cd010003cd0100]"
      ],
      "transaction": {
        "from": "0xf17b5dd382b048ff4c05c1c9e4e24cfc5c6adad9",
        "to": "0xc45f4894f769602e1fdc888c935b294188a98064",
        "gas": "0x7a9c9",
        "value": "0x0",
        "input": "0x0475d8630000000000000000000000000000000000000000000000000000000000000020000000000000000000000000000000000000000000000000000000000000000500000000000000000000000000000000000000000000000000000000000000a00000000000000000000000000000000000000000000000000000000000000100000000000000000000000000000000000000000000000000000000000000016000000000000000000000000000000000000000000000000000000000000001a00000000000000000000000000000000000000000000000000000000000000200000000000000000000000000000000000000000000000000000000000000003818141e0d01000273010002730100017302f7017302f70173017305f701730100017303f7017301000200017301f7017302000300017303000000000000000000000000000000000000000000000000000000000000000000000000000000002416121c0f010d0100010d010d0100010d010d0100010d010d010001b1010d020001b1020000000000000000000000000000000000000000000000000000000000000000000000000000000000000000000000000000000000000000000000001817151b100200010d02000217010a0217010d0302010d050d0000000000000000000000000000000000000000000000000000000000000000000000000000003417141f0d0100023f0400013f0200013f0300013f06000100033f03000300033f01000600013f0300013f0200013f0400023f0100000000000000000000000000000000000000000000000000000000000000000000000000000000000000003e16131e0e020001cd0200010001cd016a01cd0100020001cd0200010001cd01e301cd010001cd036a01cd01cd01e3026a01cd01cd036a01cd010003cd01000000",
        "nonce": "0x5d",
        "chainId": "0x2105"
      },
      "additionalContracts": [
        {
          "transactionType": "CREATE",
          "contractName": null,
          "address": "0x1595197085b0493637f708cf7f5c51169a3c8c14",
          "initCode": "0x61003980600c6000396000f30018141e0d01000273010002730100017302f7017302f70173017305f701730100017303f7017301000200017301f701730200030001730300"
        },
        {
          "transactionType": "CREATE",
          "contractName": null,
          "address": "0x732ffbb9ba3c2e633ed66feb4adde3e8f2ae5168",
          "initCode": "0x61002580600c6000396000f30016121c0f010d0100010d010d0100010d010d0100010d010d010001b1010d020001b10200"
        },
        {
          "transactionType": "CREATE",
          "contractName": null,
          "address": "0x2205a68a4394c28f615ce6cfa5b11c9b256e775b",
          "initCode": "0x61001980600c6000396000f30017151b100200010d02000217010a0217010d0302010d050d"
        },
        {
          "transactionType": "CREATE",
          "contractName": null,
          "address": "0x3458287479983390022ab3f8cf4bd0ce191a0f11",
          "initCode": "0x61003580600c6000396000f30017141f0d0100023f0400013f0200013f0300013f06000100033f03000300033f01000600013f0300013f0200013f0400023f0100"
        },
        {
          "transactionType": "CREATE",
          "contractName": null,
          "address": "0xe6d7ba57fbb056c7d83374efef3e04abd83a52ad",
          "initCode": "0x61003f80600c6000396000f30016131e0e020001cd0200010001cd016a01cd0100020001cd0200010001cd01e301cd010001cd036a01cd01cd01e3026a01cd01cd036a01cd010003cd0100"
        }
      ],
      "isFixedGasLimit": false
    },
    {
      "hash": "0xa5563e8632f1479dfb6787c8e46389d72b479ed0dbeecadee6e348c6b984637a",
      "transactionType": "CALL",
      "contractName": null,
      "contractAddress": "0xc45f4894f769602e1fdc888c935b294188a98064",
      "function": "addManyAccessories(bytes[])",
      "arguments": [
        "[0x18141e0d030004400200014003dc01400200014003dc01400200014003dc014002000440010002400500, 0x17121d0e0492019202de0192019202de0192010002920100010002d80100010002d80100, 0x1517200902000157020001570200015702000157020001400200014002000140020001400200014001000100015702000157020001570200015702000157020001400200014002000140020001400200015702000157020001570200015702000157010001000140020001400200014002000140020001400500015702000157020001570200014002000140020001400200014002000140010001000157020001570200015702000157020001570500014002000140020001400200016d0200016d0200016d0200016d0200016d0100, 0x15172009020001b9020001b9020001b9020001b9020001b9020001b9020001b9020001b9020001b90100010001b9020001b9020001b9020001b9020001b9020001b9020001b9020001b9020001b9020001b9020001b9020001b9020001b9020001b90100010001b9020001b9020001b9020001b9020001b9050001b9020001b9020001b9020001b9020001b9020001b9020001b9020001b90100010001b9020001b9020001b9020001b9020001b9050001b9020001b9020001b90200019d0200019d0200019d0200019d0200019d0100, 0x17141e0d011301da030001da011302da030002da0100011301da010001da01130100020003da02000200011301da01130200020003da0200030001130300]"
      ],
      "transaction": {
        "from": "0xf17b5dd382b048ff4c05c1c9e4e24cfc5c6adad9",
        "to": "0xc45f4894f769602e1fdc888c935b294188a98064",
        "gas": "0x9294f",
        "value": "0x0",
        "input": "0x0475d8630000000000000000000000000000000000000000000000000000000000000020000000000000000000000000000000000000000000000000000000000000000500000000000000000000000000000000000000000000000000000000000000a00000000000000000000000000000000000000000000000000000000000000100000000000000000000000000000000000000000000000000000000000000016000000000000000000000000000000000000000000000000000000000000002600000000000000000000000000000000000000000000000000000000000000360000000000000000000000000000000000000000000000000000000000000002a18141e0d030004400200014003dc01400200014003dc01400200014003dc01400200044001000240050000000000000000000000000000000000000000000000000000000000000000000000000000000000000000000000000000000000002417121d0e0492019202de0192019202de0192010002920100010002d80100010002d801000000000000000000000000000000000000000000000000000000000000000000000000000000000000000000000000000000000000000000000000d01517200902000157020001570200015702000157020001400200014002000140020001400200014001000100015702000157020001570200015702000157020001400200014002000140020001400200015702000157020001570200015702000157010001000140020001400200014002000140020001400500015702000157020001570200014002000140020001400200014002000140010001000157020001570200015702000157020001570500014002000140020001400200016d0200016d0200016d0200016d0200016d01000000000000000000000000000000000000000000000000000000000000000000000000000000000000000000000000d015172009020001b9020001b9020001b9020001b9020001b9020001b9020001b9020001b9020001b90100010001b9020001b9020001b9020001b9020001b9020001b9020001b9020001b9020001b9020001b9020001b9020001b9020001b9020001b90100010001b9020001b9020001b9020001b9020001b9050001b9020001b9020001b9020001b9020001b9020001b9020001b9020001b90100010001b9020001b9020001b9020001b9020001b9050001b9020001b9020001b90200019d0200019d0200019d0200019d0200019d010000000000000000000000000000000000000000000000000000000000000000000000000000000000000000000000003e17141e0d011301da030001da011302da030002da0100011301da010001da01130100020003da02000200011301da01130200020003da02000300011303000000",
        "nonce": "0x5e",
        "chainId": "0x2105"
      },
      "additionalContracts": [
        {
          "transactionType": "CREATE",
          "contractName": null,
          "address": "0xa0a1e2bdd02045c6c8b8888e4dd563db3378e148",
          "initCode": "0x61002b80600c6000396000f30018141e0d030004400200014003dc01400200014003dc01400200014003dc014002000440010002400500"
        },
        {
          "transactionType": "CREATE",
          "contractName": null,
          "address": "0x2fc59bafb00dd1004b21a718812dc0ddb6661d08",
          "initCode": "0x61002580600c6000396000f30017121d0e0492019202de0192019202de0192010002920100010002d80100010002d80100"
        },
        {
          "transactionType": "CREATE",
          "contractName": null,
          "address": "0xa54efa83c3d93ef0aa4f456f2f5790a8a0f0a83f",
          "initCode": "0x6100d180600c6000396000f3001517200902000157020001570200015702000157020001400200014002000140020001400200014001000100015702000157020001570200015702000157020001400200014002000140020001400200015702000157020001570200015702000157010001000140020001400200014002000140020001400500015702000157020001570200014002000140020001400200014002000140010001000157020001570200015702000157020001570500014002000140020001400200016d0200016d0200016d0200016d0200016d0100"
        },
        {
          "transactionType": "CREATE",
          "contractName": null,
          "address": "0xe3da5f2c358c1cb53471b0536fb7c2380a639b61",
          "initCode": "0x6100d180600c6000396000f30015172009020001b9020001b9020001b9020001b9020001b9020001b9020001b9020001b9020001b90100010001b9020001b9020001b9020001b9020001b9020001b9020001b9020001b9020001b9020001b9020001b9020001b9020001b9020001b90100010001b9020001b9020001b9020001b9020001b9050001b9020001b9020001b9020001b9020001b9020001b9020001b9020001b90100010001b9020001b9020001b9020001b9020001b9050001b9020001b9020001b90200019d0200019d0200019d0200019d0200019d0100"
        },
        {
          "transactionType": "CREATE",
          "contractName": null,
          "address": "0xed43ed7cf72656e3587b32b7d885ad6653928648",
          "initCode": "0x61003f80600c6000396000f30017141e0d011301da030001da011302da030002da0100011301da010001da01130100020003da02000200011301da01130200020003da0200030001130300"
        }
      ],
      "isFixedGasLimit": false
    },
    {
      "hash": "0x1a5df784ca29aa4de0878191c2a9ab481d5eb98d33d0b274753c841b698d2a91",
      "transactionType": "CALL",
      "contractName": null,
      "contractAddress": "0xc45f4894f769602e1fdc888c935b294188a98064",
      "function": "addManyAccessories(bytes[])",
      "arguments": [
        "[0x16161f0d03000303030001000203030c0203010001000103050c010301000103020c0102010d0102020c01030103020c010d0100010d020c01030103020c0102010d0102020c010301000103050c0103010001000203030c02030100030003030300, 0x18131e0e040001030203010002030300020302000103010c0103030002030503, 0x18131d0e013f0100013f0100013f0500013f0100013f0100013f0500013f0100013f0100013f, 0x17131e0e055e015e0100015e0100015e0100015e0100015e0100015e0100015e0100015e0100015e0100015e0100035e0100015e015e0100035e, 0x00000000]"
      ],
      "transaction": {
        "from": "0xf17b5dd382b048ff4c05c1c9e4e24cfc5c6adad9",
        "to": "0xc45f4894f769602e1fdc888c935b294188a98064",
        "gas": "0x7abb2",
        "value": "0x0",
        "input": "0x0475d8630000000000000000000000000000000000000000000000000000000000000020000000000000000000000000000000000000000000000000000000000000000500000000000000000000000000000000000000000000000000000000000000a00000000000000000000000000000000000000000000000000000000000000140000000000000000000000000000000000000000000000000000000000000018000000000000000000000000000000000000000000000000000000000000001e00000000000000000000000000000000000000000000000000000000000000240000000000000000000000000000000000000000000000000000000000000006216161f0d03000303030001000203030c0203010001000103050c010301000103020c0102010d0102020c01030103020c010d0100010d020c01030103020c0102010d0102020c010301000103050c0103010001000203030c02030100030003030300000000000000000000000000000000000000000000000000000000000000000000000000000000000000000000000000000000000000000000000000002018131e0e040001030203010002030300020302000103010c0103030002030503000000000000000000000000000000000000000000000000000000000000002618131d0e013f0100013f0100013f0500013f0100013f0100013f0500013f0100013f0100013f0000000000000000000000000000000000000000000000000000000000000000000000000000000000000000000000000000000000000000003a17131e0e055e015e0100015e0100015e0100015e0100015e0100015e0100015e0100015e0100015e0100015e0100035e0100015e015e0100035e00000000000000000000000000000000000000000000000000000000000000000000000000040000000000000000000000000000000000000000000000000000000000000000",
        "nonce": "0x5f",
        "chainId": "0x2105"
      },
      "additionalContracts": [
        {
          "transactionType": "CREATE",
          "contractName": null,
          "address": "0x1c664e1d4fa5d857d09ca2488997e10218422bb6",
          "initCode": "0x61006380600c6000396000f30016161f0d03000303030001000203030c0203010001000103050c010301000103020c0102010d0102020c01030103020c010d0100010d020c01030103020c0102010d0102020c010301000103050c0103010001000203030c02030100030003030300"
        },
        {
          "transactionType": "CREATE",
          "contractName": null,
          "address": "0xb689ef9a6c29c699874cb553d24780d200187680",
          "initCode": "0x61002180600c6000396000f30018131e0e040001030203010002030300020302000103010c0103030002030503"
        },
        {
          "transactionType": "CREATE",
          "contractName": null,
          "address": "0x3deebbda8302f82fb9f1f79d622ff8018d396b46",
          "initCode": "0x61002780600c6000396000f30018131d0e013f0100013f0100013f0500013f0100013f0100013f0500013f0100013f0100013f"
        },
        {
          "transactionType": "CREATE",
          "contractName": null,
          "address": "0x397002b905ffdea540efa495b378ff7de06dd05f",
          "initCode": "0x61003b80600c6000396000f30017131e0e055e015e0100015e0100015e0100015e0100015e0100015e0100015e0100015e0100015e0100015e0100035e0100015e015e0100035e"
        },
        {
          "transactionType": "CREATE",
          "contractName": null,
          "address": "0xee4421e72b2648ee6242465358cda5380b8012c7",
          "initCode": "0x61000580600c6000396000f30000000000"
        }
      ],
      "isFixedGasLimit": false
    },
    {
      "hash": "0xe295c75cbf0e6f2eb1f9a2f5c288d51fc082294848fd67fe6fde9cf633876bd8",
      "transactionType": "CALL",
      "contractName": null,
      "contractAddress": "0xc45f4894f769602e1fdc888c935b294188a98064",
      "function": "addManyAccessories(bytes[])",
      "arguments": [
        "[0x151720090e7401740c2401740174032407f7022401740174012401740a24017402eb01000174012403f7022401f70224017402740100017401f7032402f70324017402eb01000174022401f70624017402740100017402f7012404f70224017402eb010001740924017402740100017407f702240174021901000b24, 0x15141e0c011706000117010001170400011701000200011702000117020003000217030003000217030002000117020a0117020002000117020a0117020001000117040a01170100010006170100, 0x17151a100100019303000100010d03000581, 0x18131e0e040001310100013102000131010001310300030001310100013102000131010001310400, 0x17171d090b000347070004ec02bd01470300048004ce034702f301000180034104ec030002f301000480070002f30c00]"
      ],
      "transaction": {
        "from": "0xf17b5dd382b048ff4c05c1c9e4e24cfc5c6adad9",
        "to": "0xc45f4894f769602e1fdc888c935b294188a98064",
        "gas": "0x87fee",
        "value": "0x0",
        "input": "0x0475d8630000000000000000000000000000000000000000000000000000000000000020000000000000000000000000000000000000000000000000000000000000000500000000000000000000000000000000000000000000000000000000000000a0000000000000000000000000000000000000000000000000000000000000014000000000000000000000000000000000000000000000000000000000000001c000000000000000000000000000000000000000000000000000000000000002000000000000000000000000000000000000000000000000000000000000000260000000000000000000000000000000000000000000000000000000000000007c151720090e7401740c2401740174032407f7022401740174012401740a24017402eb01000174012403f7022401f70224017402740100017401f7032402f70324017402eb01000174022401f70624017402740100017402f7012404f70224017402eb010001740924017402740100017407f702240174021901000b2400000000000000000000000000000000000000000000000000000000000000000000004e15141e0c011706000117010001170400011701000200011702000117020003000217030003000217030002000117020a0117020002000117020a0117020001000117040a01170100010006170100000000000000000000000000000000000000000000000000000000000000000000000000000000000000000000000000001217151a100100019303000100010d030005810000000000000000000000000000000000000000000000000000000000000000000000000000000000000000002818131e0e040001310100013102000131010001310300030001310100013102000131010001310400000000000000000000000000000000000000000000000000000000000000000000000000000000000000000000000000000000000000003017171d090b000347070004ec02bd01470300048004ce034702f301000180034104ec030002f301000480070002f30c0000000000000000000000000000000000",
        "nonce": "0x60",
        "chainId": "0x2105"
      },
      "additionalContracts": [
        {
          "transactionType": "CREATE",
          "contractName": null,
          "address": "0xda1a9bc6c574336266f33e38061dc5c3d7b3c9e5",
          "initCode": "0x61007d80600c6000396000f300151720090e7401740c2401740174032407f7022401740174012401740a24017402eb01000174012403f7022401f70224017402740100017401f7032402f70324017402eb01000174022401f70624017402740100017402f7012404f70224017402eb010001740924017402740100017407f702240174021901000b24"
        },
        {
          "transactionType": "CREATE",
          "contractName": null,
          "address": "0xc0917079d4abc012db04ebf85dd123fbad09abea",
          "initCode": "0x61004f80600c6000396000f30015141e0c011706000117010001170400011701000200011702000117020003000217030003000217030002000117020a0117020002000117020a0117020001000117040a01170100010006170100"
        },
        {
          "transactionType": "CREATE",
          "contractName": null,
          "address": "0xff59cbb13b66cf58904982be5f768b0bad438295",
          "initCode": "0x61001380600c6000396000f30017151a100100019303000100010d03000581"
        },
        {
          "transactionType": "CREATE",
          "contractName": null,
          "address": "0xbf44371de268215415bbafb14ba3d84d0c0fbc00",
          "initCode": "0x61002980600c6000396000f30018131e0e040001310100013102000131010001310300030001310100013102000131010001310400"
        },
        {
          "transactionType": "CREATE",
          "contractName": null,
          "address": "0x2ec903e7fed62680ef292b11ca8d4a408720ae67",
          "initCode": "0x61003180600c6000396000f30017171d090b000347070004ec02bd01470300048004ce034702f301000180034104ec030002f301000480070002f30c00"
        }
      ],
      "isFixedGasLimit": false
    },
    {
      "hash": "0xc8180b9018ae22a7e1936c69739eb26a32c1fb42c6ac64d9463c3d94c3019958",
      "transactionType": "CALL",
      "contractName": null,
      "contractAddress": "0xc45f4894f769602e1fdc888c935b294188a98064",
      "function": "addManyAccessories(bytes[])",
      "arguments": [
        "[0x18151f0d030002d20300020001d202da01d20200020001d202da01d202000100015d01ea02da013701350100015d03ea03370135015d02ea015d0135023701350100025d020002350100, 0x19171c0901030200010302000103020001030200010301000e00020301000b03, 0x1517200b04c1030005c101c102cc01c1030001c103cc01c101c102cc01c1030001c103cc01c101c102cc01c1030001c103cc01c1010001c7010201c7030001c7030201c7010001c7010201c7030001c7030201c7010001c7010201c7030001c7030201c7010001c7010201c7030001c7030201c7010001c101cc01c1030001c103cc01c1010001c101cc01c1030001c103cc01c1010003cc030005cc, 0x1515200c038f0300038f018f012a018f0300018f012a018f018f012a018f0300018f012a018f0103010c010303000103010c01030103010c010303000103010c01030103010c010303000103010c0103018f012a018f0300018f012a018f018f012a018f0300018f012a018f018f012a018f0300018f012a018f0103010c010303000103010c0103030c0300030c, 0x18121c0e018f0200018f0100028f01000100028f0100018f0200018f]"
      ],
      "transaction": {
        "from": "0xf17b5dd382b048ff4c05c1c9e4e24cfc5c6adad9",
        "to": "0xc45f4894f769602e1fdc888c935b294188a98064",
        "gas": "0x91b19",
        "value": "0x0",
        "input": "0x0475d8630000000000000000000000000000000000000000000000000000000000000020000000000000000000000000000000000000000000000000000000000000000500000000000000000000000000000000000000000000000000000000000000a000000000000000000000000000000000000000000000000000000000000001200000000000000000000000000000000000000000000000000000000000000160000000000000000000000000000000000000000000000000000000000000022000000000000000000000000000000000000000000000000000000000000002e0000000000000000000000000000000000000000000000000000000000000004a18151f0d030002d20300020001d202da01d20200020001d202da01d202000100015d01ea02da013701350100015d03ea03370135015d02ea015d0135023701350100025d02000235010000000000000000000000000000000000000000000000000000000000000000000000000000000000000000000000000000000000002019171c0901030200010302000103020001030200010301000e00020301000b03000000000000000000000000000000000000000000000000000000000000009c1517200b04c1030005c101c102cc01c1030001c103cc01c101c102cc01c1030001c103cc01c101c102cc01c1030001c103cc01c1010001c7010201c7030001c7030201c7010001c7010201c7030001c7030201c7010001c7010201c7030001c7030201c7010001c7010201c7030001c7030201c7010001c101cc01c1030001c103cc01c1010001c101cc01c1030001c103cc01c1010003cc030005cc00000000000000000000000000000000000000000000000000000000000000000000008e1515200c038f0300038f018f012a018f0300018f012a018f018f012a018f0300018f012a018f0103010c010303000103010c01030103010c010303000103010c01030103010c010303000103010c0103018f012a018f0300018f012a018f018f012a018f0300018f012a018f018f012a018f0300018f012a018f0103010c010303000103010c0103030c0300030c000000000000000000000000000000000000000000000000000000000000000000000000000000000000000000000000001c18121c0e018f0200018f0100028f01000100028f0100018f0200018f00000000",
        "nonce": "0x61",
        "chainId": "0x2105"
      },
      "additionalContracts": [
        {
          "transactionType": "CREATE",
          "contractName": null,
          "address": "0x5c546f8b1e5d4b972830c71b1440eff76721efba",
          "initCode": "0x61004b80600c6000396000f30018151f0d030002d20300020001d202da01d20200020001d202da01d202000100015d01ea02da013701350100015d03ea03370135015d02ea015d0135023701350100025d020002350100"
        },
        {
          "transactionType": "CREATE",
          "contractName": null,
          "address": "0x35cbc2fb3d6cb874a68738d64162a1e42143b519",
          "initCode": "0x61002180600c6000396000f30019171c0901030200010302000103020001030200010301000e00020301000b03"
        },
        {
          "transactionType": "CREATE",
          "contractName": null,
          "address": "0xc732f150eff533ee6497ba6c3d556644b984304d",
          "initCode": "0x61009d80600c6000396000f3001517200b04c1030005c101c102cc01c1030001c103cc01c101c102cc01c1030001c103cc01c101c102cc01c1030001c103cc01c1010001c7010201c7030001c7030201c7010001c7010201c7030001c7030201c7010001c7010201c7030001c7030201c7010001c7010201c7030001c7030201c7010001c101cc01c1030001c103cc01c1010001c101cc01c1030001c103cc01c1010003cc030005cc"
        },
        {
          "transactionType": "CREATE",
          "contractName": null,
          "address": "0x40b2a70b098b73d5a37186f94011d10f49c37a83",
          "initCode": "0x61008f80600c6000396000f3001515200c038f0300038f018f012a018f0300018f012a018f018f012a018f0300018f012a018f0103010c010303000103010c01030103010c010303000103010c01030103010c010303000103010c0103018f012a018f0300018f012a018f018f012a018f0300018f012a018f018f012a018f0300018f012a018f0103010c010303000103010c0103030c0300030c"
        },
        {
          "transactionType": "CREATE",
          "contractName": null,
          "address": "0xd31aa779f9957b8e4116022a4e6fcb1e5787a284",
          "initCode": "0x61001d80600c6000396000f30018121c0e018f0200018f0100028f01000100028f0100018f0200018f"
        }
      ],
      "isFixedGasLimit": false
    },
    {
      "hash": "0x0d0fe1a6f3784b49ee186bde7db481305bdb2875deb6b30e57c86163667c2e26",
      "transactionType": "CALL",
      "contractName": null,
      "contractAddress": "0xc45f4894f769602e1fdc888c935b294188a98064",
      "function": "addManyAccessories(bytes[])",
      "arguments": [
        "[0x1515200c09030103010c0103010c010301000103010c01030203010002030200020301030200010301c1030001030300020304000300020304000300020304000300020304000300010301c104000300020304000300020c0400, 0x18121d0e010002b9010001b9019d01b9010002b90200010001b90293020001930100, 0x17121e0d0200017d0100017d017d0100027d01000100017d01f4017d01000100027d0100017d017d0100017d02000300017d01000100017d0300, 0x1514180d01170500011701000117030001170100020003170200, 0x17141e0d0100010d0300010d0100020d0100010d0100020d0200010d0102010d02000100010d0302010d01000200010d0102010d0200020d0100010d0100020d0100010d0300010d0100]"
      ],
      "transaction": {
        "from": "0xf17b5dd382b048ff4c05c1c9e4e24cfc5c6adad9",
        "to": "0xc45f4894f769602e1fdc888c935b294188a98064",
        "gas": "0x85e04",
        "value": "0x0",
        "input": "0x0475d8630000000000000000000000000000000000000000000000000000000000000020000000000000000000000000000000000000000000000000000000000000000500000000000000000000000000000000000000000000000000000000000000a00000000000000000000000000000000000000000000000000000000000000120000000000000000000000000000000000000000000000000000000000000018000000000000000000000000000000000000000000000000000000000000001e00000000000000000000000000000000000000000000000000000000000000220000000000000000000000000000000000000000000000000000000000000005a1515200c09030103010c0103010c010301000103010c01030203010002030200020301030200010301c1030001030300020304000300020304000300020304000300020304000300010301c104000300020304000300020c0400000000000000000000000000000000000000000000000000000000000000000000000000002218121d0e010002b9010001b9019d01b9010002b90200010001b90293020001930100000000000000000000000000000000000000000000000000000000000000000000000000000000000000000000000000000000000000000000000000003a17121e0d0200017d0100017d017d0100027d01000100017d01f4017d01000100027d0100017d017d0100017d02000300017d01000100017d0300000000000000000000000000000000000000000000000000000000000000000000000000001a1514180d01170500011701000117030001170100020003170200000000000000000000000000000000000000000000000000000000000000000000000000004a17141e0d0100010d0300010d0100020d0100010d0100020d0200010d0102010d02000100010d0302010d01000200010d0102010d0200020d0100010d0100020d0100010d0300010d010000000000000000000000000000000000000000000000",
        "nonce": "0x62",
        "chainId": "0x2105"
      },
      "additionalContracts": [
        {
          "transactionType": "CREATE",
          "contractName": null,
          "address": "0xee06b54d5347f7c970b17c33c06ac82c0dc555a5",
          "initCode": "0x61005b80600c6000396000f3001515200c09030103010c0103010c010301000103010c01030203010002030200020301030200010301c1030001030300020304000300020304000300020304000300020304000300010301c104000300020304000300020c0400"
        },
        {
          "transactionType": "CREATE",
          "contractName": null,
          "address": "0x0c29a981b4348d2c85a74791b6eaacb13cc8acf3",
          "initCode": "0x61002380600c6000396000f30018121d0e010002b9010001b9019d01b9010002b90200010001b90293020001930100"
        },
        {
          "transactionType": "CREATE",
          "contractName": null,
          "address": "0xbe98bfd145f840fda4b47723d8b17d1589b6611e",
          "initCode": "0x61003b80600c6000396000f30017121e0d0200017d0100017d017d0100027d01000100017d01f4017d01000100027d0100017d017d0100017d02000300017d01000100017d0300"
        },
        {
          "transactionType": "CREATE",
          "contractName": null,
          "address": "0x46559dc3f14eddc83fd41ce3cf3230401c6fce69",
          "initCode": "0x61001b80600c6000396000f3001514180d01170500011701000117030001170100020003170200"
        },
        {
          "transactionType": "CREATE",
          "contractName": null,
          "address": "0x9c714648b7fddbae3ed0a8b36015b47793587a0a",
          "initCode": "0x61004b80600c6000396000f30017141e0d0100010d0300010d0100020d0100010d0100020d0200010d0102010d02000100010d0302010d01000200010d0102010d0200020d0100010d0100020d0100010d0300010d0100"
        }
      ],
      "isFixedGasLimit": false
    },
    {
      "hash": "0xf59151536f34e8a040b96bc04e3883fcf95a73db1255cef0ef6f429ceb6089d1",
      "transactionType": "CALL",
      "contractName": null,
      "contractAddress": "0xc45f4894f769602e1fdc888c935b294188a98064",
      "function": "addManyAccessories(bytes[])",
      "arguments": [
        "[0x16151e0d050002530100020001530100015302fa01530400015302fa015305000253010001530100025304000200025304000800010001530600, 0x17151f0d0100015706000800020002570400015701000257040005000257010004000157026d01570200015701000157026d0157050002570100, 0x17141e0d01cb020001cb020001cb010001520100015201000152010002000352020001cb055201cb020003520200010001520100015201000152010001cb020001cb020001cb, 0x151720090e9901310c10013101ba0c3601ba018f012a018f0a2a018f020d010001030202020c0202020c0102010d020d010001030202020c0202020c0102010d02030100010d020c0202020c0202010c010302030100010d020c0202020c0202010c01030299010001990985019902310100013109100131023601000b36, 0x15171e090e3001300c1401300e300e000e000e00023001000b3002300100013009140130023001000b30]"
      ],
      "transaction": {
        "from": "0xf17b5dd382b048ff4c05c1c9e4e24cfc5c6adad9",
        "to": "0xc45f4894f769602e1fdc888c935b294188a98064",
        "gas": "0x83ca2",
        "value": "0x0",
        "input": "0x0475d8630000000000000000000000000000000000000000000000000000000000000020000000000000000000000000000000000000000000000000000000000000000500000000000000000000000000000000000000000000000000000000000000a00000000000000000000000000000000000000000000000000000000000000100000000000000000000000000000000000000000000000000000000000000016000000000000000000000000000000000000000000000000000000000000001e00000000000000000000000000000000000000000000000000000000000000280000000000000000000000000000000000000000000000000000000000000003a16151e0d050002530100020001530100015302fa01530400015302fa015305000253010001530100025304000200025304000800010001530600000000000000000000000000000000000000000000000000000000000000000000000000003a17151f0d0100015706000800020002570400015701000257040005000257010004000157026d01570200015701000157026d0157050002570100000000000000000000000000000000000000000000000000000000000000000000000000004617141e0d01cb020001cb020001cb010001520100015201000152010002000352020001cb055201cb020003520200010001520100015201000152010001cb020001cb020001cb0000000000000000000000000000000000000000000000000000000000000000000000000000000000000000000000000000000000000000007e151720090e9901310c10013101ba0c3601ba018f012a018f0a2a018f020d010001030202020c0202020c0102010d020d010001030202020c0202020c0102010d02030100010d020c0202020c0202010c010302030100010d020c0202020c0202010c01030299010001990985019902310100013109100131023601000b360000000000000000000000000000000000000000000000000000000000000000002a15171e090e3001300c1401300e300e000e000e00023001000b3002300100013009140130023001000b3000000000000000000000000000000000000000000000",
        "nonce": "0x63",
        "chainId": "0x2105"
      },
      "additionalContracts": [
        {
          "transactionType": "CREATE",
          "contractName": null,
          "address": "0xb6fc4c0d864551d38d7e7ac63e728a36a64c496a",
          "initCode": "0x61003b80600c6000396000f30016151e0d050002530100020001530100015302fa01530400015302fa015305000253010001530100025304000200025304000800010001530600"
        },
        {
          "transactionType": "CREATE",
          "contractName": null,
          "address": "0x28342e52abe9d282a6b380d868c9042423cf6e7d",
          "initCode": "0x61003b80600c6000396000f30017151f0d0100015706000800020002570400015701000257040005000257010004000157026d01570200015701000157026d0157050002570100"
        },
        {
          "transactionType": "CREATE",
          "contractName": null,
          "address": "0x19564542edea8b91163d9f42312ab7f591e4cd34",
          "initCode": "0x61004780600c6000396000f30017141e0d01cb020001cb020001cb010001520100015201000152010002000352020001cb055201cb020003520200010001520100015201000152010001cb020001cb020001cb"
        },
        {
          "transactionType": "CREATE",
          "contractName": null,
          "address": "0xd7f04f31e05ae3ba18f9dab214c32ef0303ccd4d",
          "initCode": "0x61007f80600c6000396000f300151720090e9901310c10013101ba0c3601ba018f012a018f0a2a018f020d010001030202020c0202020c0102010d020d010001030202020c0202020c0102010d02030100010d020c0202020c0202010c010302030100010d020c0202020c0202010c01030299010001990985019902310100013109100131023601000b36"
        },
        {
          "transactionType": "CREATE",
          "contractName": null,
          "address": "0xef766de07fccc630b83530ee0e74ebc82e7c7956",
          "initCode": "0x61002b80600c6000396000f30015171e090e3001300c1401300e300e000e000e00023001000b3002300100013009140130023001000b30"
        }
      ],
      "isFixedGasLimit": false
    },
    {
      "hash": "0x6475820d8cfff63aafd3d393eaa2b900e64205dc35d3f837c459d514b18e4b88",
      "transactionType": "CALL",
      "contractName": null,
      "contractAddress": "0xc45f4894f769602e1fdc888c935b294188a98064",
      "function": "addManyAccessories(bytes[])",
      "arguments": [
        "[0x15171c090e3501350c3701350e350e00029301000b930e00028e01000b8e, 0x151720090e310e000e310e00023101000b310e00023101000b310e00023101000b310e00021001000b10, 0x151720090ee00e000ee00e0002e001000be00e0002e001000be00e0002e001000be00e00029001000b90, 0x151720090ef20e000ef20e0002f201000bf20e0002f201000bf20e0002f201000bf20e0002f101000bf1, 0x151720090e530e000e530e00025301000b530e00025301000b530e00025301000b530e0002fa01000bfa]"
      ],
      "transaction": {
        "from": "0xf17b5dd382b048ff4c05c1c9e4e24cfc5c6adad9",
        "to": "0xc45f4894f769602e1fdc888c935b294188a98064",
        "gas": "0x7f669",
        "value": "0x0",
        "input": "0x0475d8630000000000000000000000000000000000000000000000000000000000000020000000000000000000000000000000000000000000000000000000000000000500000000000000000000000000000000000000000000000000000000000000a000000000000000000000000000000000000000000000000000000000000000e0000000000000000000000000000000000000000000000000000000000000014000000000000000000000000000000000000000000000000000000000000001a00000000000000000000000000000000000000000000000000000000000000200000000000000000000000000000000000000000000000000000000000000001e15171c090e3501350c3701350e350e00029301000b930e00028e01000b8e0000000000000000000000000000000000000000000000000000000000000000002a151720090e310e000e310e00023101000b310e00023101000b310e00023101000b310e00021001000b1000000000000000000000000000000000000000000000000000000000000000000000000000000000000000000000000000000000002a151720090ee00e000ee00e0002e001000be00e0002e001000be00e0002e001000be00e00029001000b9000000000000000000000000000000000000000000000000000000000000000000000000000000000000000000000000000000000002a151720090ef20e000ef20e0002f201000bf20e0002f201000bf20e0002f201000bf20e0002f101000bf100000000000000000000000000000000000000000000000000000000000000000000000000000000000000000000000000000000002a151720090e530e000e530e00025301000b530e00025301000b530e00025301000b530e0002fa01000bfa00000000000000000000000000000000000000000000",
        "nonce": "0x64",
        "chainId": "0x2105"
      },
      "additionalContracts": [
        {
          "transactionType": "CREATE",
          "contractName": null,
          "address": "0x3a308527c3b79019f1d80c52903e8ba67dcd2d20",
          "initCode": "0x61001f80600c6000396000f30015171c090e3501350c3701350e350e00029301000b930e00028e01000b8e"
        },
        {
          "transactionType": "CREATE",
          "contractName": null,
          "address": "0xa384435cc1d058eb3b7cca3a2a5ed0a27bd7199d",
          "initCode": "0x61002b80600c6000396000f300151720090e310e000e310e00023101000b310e00023101000b310e00023101000b310e00021001000b10"
        },
        {
          "transactionType": "CREATE",
          "contractName": null,
          "address": "0xdd3f7064c6d76e1c9bc4e62ecd58937193ef8f12",
          "initCode": "0x61002b80600c6000396000f300151720090ee00e000ee00e0002e001000be00e0002e001000be00e0002e001000be00e00029001000b90"
        },
        {
          "transactionType": "CREATE",
          "contractName": null,
          "address": "0x327cbfbc62d81033c2f158e4e4619d3a8c786704",
          "initCode": "0x61002b80600c6000396000f300151720090ef20e000ef20e0002f201000bf20e0002f201000bf20e0002f201000bf20e0002f101000bf1"
        },
        {
          "transactionType": "CREATE",
          "contractName": null,
          "address": "0xe27c538d453683a241720f385b0f663b130b454d",
          "initCode": "0x61002b80600c6000396000f300151720090e530e000e530e00025301000b530e00025301000b530e00025301000b530e0002fa01000bfa"
        }
      ],
      "isFixedGasLimit": false
    },
    {
      "hash": "0x1ade43d308afb86b2eca8e2a768d85e8bafd3536897e6fbac37d31381fb93e11",
      "transactionType": "CALL",
      "contractName": null,
      "contractAddress": "0xc45f4894f769602e1fdc888c935b294188a98064",
      "function": "addManyAccessories(bytes[])",
      "arguments": [
        "[0x17141b0d0300011703000100011703000117010002000317020001170100031701000117, 0x18171d09023f0100033f0100033f0100033f0600013f0300013f0300013f0300013f0300013f0300013f0100023f0100013f0118013f0100013f0118013f0100013f0118013f013f0300013f0300013f0300013f0100, 0x1517200901280300012803000128030001280100010001280100012805000128010001280200010001280100012805000128010001280200012803000128030001280300012801000500012801000128050001280500012801000128050001280128030001280300012803000128010001000128010001280500012801000128020001000128010001280500012801000128020001280300012803000128030001280100050001110100011105000111, 0x17171b0902c7024002c7024002c7024002c701c70102014001150202021502020215010201c70240010001c70215020202150202011501400240010001c7024002c7024002c70240, 0x1517200902ba020001ba040001ba030001ba02ba030004ba040001ba01ba013601ba090002ba01ba013601ba090002ba02ba020001ba010001ba030001ba010002ba02ba030001ba010002ba010001ba010002ba02ba030001ba010002ba030002ba02ba080001ba010002ba02ba0a0002ba02ba0a0002ba02360a000236]"
      ],
      "transaction": {
        "from": "0xf17b5dd382b048ff4c05c1c9e4e24cfc5c6adad9",
        "to": "0xc45f4894f769602e1fdc888c935b294188a98064",
        "gas": "0x8e407",
        "value": "0x0",
        "input": "0x0475d8630000000000000000000000000000000000000000000000000000000000000020000000000000000000000000000000000000000000000000000000000000000500000000000000000000000000000000000000000000000000000000000000a000000000000000000000000000000000000000000000000000000000000001000000000000000000000000000000000000000000000000000000000000000180000000000000000000000000000000000000000000000000000000000000026000000000000000000000000000000000000000000000000000000000000002e0000000000000000000000000000000000000000000000000000000000000002417141b0d030001170300010001170300011701000200031702000117010003170100011700000000000000000000000000000000000000000000000000000000000000000000000000000000000000000000000000000000000000000000005618171d09023f0100033f0100033f0100033f0600013f0300013f0300013f0300013f0300013f0300013f0100023f0100013f0118013f0100013f0118013f0100013f0118013f013f0300013f0300013f0300013f01000000000000000000000000000000000000000000000000000000000000000000000000000000000000b0151720090128030001280300012803000128010001000128010001280500012801000128020001000128010001280500012801000128020001280300012803000128030001280100050001280100012805000128050001280100012805000128012803000128030001280300012801000100012801000128050001280100012802000100012801000128050001280100012802000128030001280300012803000128010005000111010001110500011100000000000000000000000000000000000000000000000000000000000000000000000000000000000000000000004817171b0902c7024002c7024002c7024002c701c70102014001150202021502020215010201c70240010001c70215020202150202011501400240010001c7024002c7024002c70240000000000000000000000000000000000000000000000000000000000000000000000000000000000000000000000000000000000000007e1517200902ba020001ba040001ba030001ba02ba030004ba040001ba01ba013601ba090002ba01ba013601ba090002ba02ba020001ba010001ba030001ba010002ba02ba030001ba010002ba010001ba010002ba02ba030001ba010002ba030002ba02ba080001ba010002ba02ba0a0002ba02ba0a0002ba02360a0002360000",
        "nonce": "0x65",
        "chainId": "0x2105"
      },
      "additionalContracts": [
        {
          "transactionType": "CREATE",
          "contractName": null,
          "address": "0x106f122438393e8b61345c08bdb603edba6ce7b2",
          "initCode": "0x61002580600c6000396000f30017141b0d0300011703000100011703000117010002000317020001170100031701000117"
        },
        {
          "transactionType": "CREATE",
          "contractName": null,
          "address": "0x78a427f3a4f8b91e0c962b13bf7d5cde58cfcfda",
          "initCode": "0x61005780600c6000396000f30018171d09023f0100033f0100033f0100033f0600013f0300013f0300013f0300013f0300013f0300013f0100023f0100013f0118013f0100013f0118013f0100013f0118013f013f0300013f0300013f0300013f0100"
        },
        {
          "transactionType": "CREATE",
          "contractName": null,
          "address": "0x8b615a56f772532bd0ece5722766c7ea87adf12e",
          "initCode": "0x6100b180600c6000396000f3001517200901280300012803000128030001280100010001280100012805000128010001280200010001280100012805000128010001280200012803000128030001280300012801000500012801000128050001280500012801000128050001280128030001280300012803000128010001000128010001280500012801000128020001000128010001280500012801000128020001280300012803000128030001280100050001110100011105000111"
        },
        {
          "transactionType": "CREATE",
          "contractName": null,
          "address": "0xcbacfe11b80796d903ea453d03ada8f6524dc9a8",
          "initCode": "0x61004980600c6000396000f30017171b0902c7024002c7024002c7024002c701c70102014001150202021502020215010201c70240010001c70215020202150202011501400240010001c7024002c7024002c70240"
        },
        {
          "transactionType": "CREATE",
          "contractName": null,
          "address": "0x79f33656bec7f7da97e5254d623301956cd57da7",
          "initCode": "0x61007f80600c6000396000f3001517200902ba020001ba040001ba030001ba02ba030004ba040001ba01ba013601ba090002ba01ba013601ba090002ba02ba020001ba010001ba030001ba010002ba02ba030001ba010002ba010001ba010002ba02ba030001ba010002ba030002ba02ba080001ba010002ba02ba0a0002ba02ba0a0002ba02360a000236"
        }
      ],
      "isFixedGasLimit": false
    },
    {
      "hash": "0xefdcfa8f6f36e328e0dfe883ff272b301c43ecf593ead619cf078dcf9c63d8aa",
      "transactionType": "CALL",
      "contractName": null,
      "contractAddress": "0xc45f4894f769602e1fdc888c935b294188a98064",
      "function": "addManyAccessories(bytes[])",
      "arguments": [
        "[0x17131e0d017d0100017d010002b00100017d020002b00100017d020002b0060001b00200027d010001b00200027d010002b00100027d0100, 0x18131d0e030d0200030d020005000200010d02000400010d, 0x1512200e04030195020c01950195020c01950195020c01950195020c01950195020c01950195020c01950195020c01950195020c01950195020c0195019e020c019e, 0x1615200b020002ee0100019902000199010001ee010003ee020001990200010001ee030001ee020002990300028e010001ee010002990200018e0100018f018e01ee0100019901000100018e0100018f019901ee010001990100018f0100018e0100018f0100029903000100018e0200018f0300018f01000200018e0200038f0100018f010001c6020001c60100022a0200, 0x1512200e0447019502bd0195019502bd0195019502bd0195019502bd0195019502bd0195019502bd0195019502bd0195019502bd0195019502bd0195019e02bd019e]"
      ],
      "transaction": {
        "from": "0xf17b5dd382b048ff4c05c1c9e4e24cfc5c6adad9",
        "to": "0xc45f4894f769602e1fdc888c935b294188a98064",
        "gas": "0x842d2",
        "value": "0x0",
        "input": "0x0475d8630000000000000000000000000000000000000000000000000000000000000020000000000000000000000000000000000000000000000000000000000000000500000000000000000000000000000000000000000000000000000000000000a00000000000000000000000000000000000000000000000000000000000000100000000000000000000000000000000000000000000000000000000000000014000000000000000000000000000000000000000000000000000000000000001c00000000000000000000000000000000000000000000000000000000000000280000000000000000000000000000000000000000000000000000000000000003817131e0d017d0100017d010002b00100017d020002b00100017d020002b0060001b00200027d010001b00200027d010002b00100027d01000000000000000000000000000000000000000000000000000000000000000000000000000000001818131d0e030d0200030d020005000200010d02000400010d000000000000000000000000000000000000000000000000000000000000000000000000000000421512200e04030195020c01950195020c01950195020c01950195020c01950195020c01950195020c01950195020c01950195020c01950195020c0195019e020c019e00000000000000000000000000000000000000000000000000000000000000000000000000000000000000000000000000000000000000000000000000921615200b020002ee0100019902000199010001ee010003ee020001990200010001ee030001ee020002990300028e010001ee010002990200018e0100018f018e01ee0100019901000100018e0100018f019901ee010001990100018f0100018e0100018f0100029903000100018e0200018f0300018f01000200018e0200038f0100018f010001c6020001c60100022a0200000000000000000000000000000000000000000000000000000000000000000000000000000000000000000000421512200e0447019502bd0195019502bd0195019502bd0195019502bd0195019502bd0195019502bd0195019502bd0195019502bd0195019502bd0195019e02bd019e000000000000000000000000000000000000000000000000000000000000",
        "nonce": "0x66",
        "chainId": "0x2105"
      },
      "additionalContracts": [
        {
          "transactionType": "CREATE",
          "contractName": null,
          "address": "0x6281be966a132733559e2c3ce43cb44b40dd44e4",
          "initCode": "0x61003980600c6000396000f30017131e0d017d0100017d010002b00100017d020002b00100017d020002b0060001b00200027d010001b00200027d010002b00100027d0100"
        },
        {
          "transactionType": "CREATE",
          "contractName": null,
          "address": "0x1332be237fe470a2d6524f11a543a4500b25f03b",
          "initCode": "0x61001980600c6000396000f30018131d0e030d0200030d020005000200010d02000400010d"
        },
        {
          "transactionType": "CREATE",
          "contractName": null,
          "address": "0x7780876da5fcadf79be7b7a5cf9e2afae3a231d9",
          "initCode": "0x61004380600c6000396000f3001512200e04030195020c01950195020c01950195020c01950195020c01950195020c01950195020c01950195020c01950195020c01950195020c0195019e020c019e"
        },
        {
          "transactionType": "CREATE",
          "contractName": null,
          "address": "0x188c34e36abab10ee4a703f19d7986268e08b87e",
          "initCode": "0x61009380600c6000396000f3001615200b020002ee0100019902000199010001ee010003ee020001990200010001ee030001ee020002990300028e010001ee010002990200018e0100018f018e01ee0100019901000100018e0100018f019901ee010001990100018f0100018e0100018f0100029903000100018e0200018f0300018f01000200018e0200038f0100018f010001c6020001c60100022a0200"
        },
        {
          "transactionType": "CREATE",
          "contractName": null,
          "address": "0xbe38a3ce49dda57bea99f06b6b451228f69b76c5",
          "initCode": "0x61004380600c6000396000f3001512200e0447019502bd0195019502bd0195019502bd0195019502bd0195019502bd0195019502bd0195019502bd0195019502bd0195019502bd0195019e02bd019e"
        }
      ],
      "isFixedGasLimit": false
    },
    {
      "hash": "0x46bba0ac83e6de348c6d4edf9f9893da1cfbf104cfe25a3d336778a3ae8d0174",
      "transactionType": "CALL",
      "contractName": null,
      "contractAddress": "0xc45f4894f769602e1fdc888c935b294188a98064",
      "function": "addManyAccessories(bytes[])",
      "arguments": [
        "[0x16111f0f02d202d2020002d202d202d202d202d202d2, 0x17151e0d0200012405000224060002240100012404000200012401bf01240300030001240100012401000124050002240100050002240100, 0x17151e0c0100070f0100010f0700010f010f0100020f0100020f0100010f010f0100010f0200010f0200010f010f0100020f0100020f0100010f010f0700010f0100070f0100, 0x17141d0d03d2010003d201d2030001d2020001d2030001d2020001d2030001d2020001d2030001d2020003d2010003d2, 0x17131e0d02840100028401000184020002840100028401000284010006000284010001840100018402840100028401000184020001840200]"
      ],
      "transaction": {
        "from": "0xf17b5dd382b048ff4c05c1c9e4e24cfc5c6adad9",
        "to": "0xc45f4894f769602e1fdc888c935b294188a98064",
        "gas": "0x838a3",
        "value": "0x0",
        "input": "0x0475d8630000000000000000000000000000000000000000000000000000000000000020000000000000000000000000000000000000000000000000000000000000000500000000000000000000000000000000000000000000000000000000000000a000000000000000000000000000000000000000000000000000000000000000e0000000000000000000000000000000000000000000000000000000000000014000000000000000000000000000000000000000000000000000000000000001c00000000000000000000000000000000000000000000000000000000000000220000000000000000000000000000000000000000000000000000000000000001616111f0f02d202d2020002d202d202d202d202d202d200000000000000000000000000000000000000000000000000000000000000000000000000000000003817151e0d0200012405000224060002240100012404000200012401bf012403000300012401000124010001240500022401000500022401000000000000000000000000000000000000000000000000000000000000000000000000000000004617151e0c0100070f0100010f0700010f010f0100020f0100020f0100010f010f0100010f0200010f0200010f010f0100020f0100020f0100010f010f0700010f0100070f01000000000000000000000000000000000000000000000000000000000000000000000000000000000000000000000000000000000000000000003017141d0d03d2010003d201d2030001d2020001d2030001d2020001d2030001d2020001d2030001d2020003d2010003d200000000000000000000000000000000000000000000000000000000000000000000000000000000000000000000003817131e0d028401000284010001840200028401000284010002840100060002840100018401000184028401000284010001840200018402000000000000000000",
        "nonce": "0x67",
        "chainId": "0x2105"
      },
      "additionalContracts": [
        {
          "transactionType": "CREATE",
          "contractName": null,
          "address": "0xcf1a71a65aa75199cc2b09731ddcc5dccd61e7f5",
          "initCode": "0x61001780600c6000396000f30016111f0f02d202d2020002d202d202d202d202d202d2"
        },
        {
          "transactionType": "CREATE",
          "contractName": null,
          "address": "0x26947ec1ee254bc62b9d9aa67f7f7f38fd2efb1e",
          "initCode": "0x61003980600c6000396000f30017151e0d0200012405000224060002240100012404000200012401bf01240300030001240100012401000124050002240100050002240100"
        },
        {
          "transactionType": "CREATE",
          "contractName": null,
          "address": "0xe3220e90e994076ac5fcecafb0f1927769e1eb17",
          "initCode": "0x61004780600c6000396000f30017151e0c0100070f0100010f0700010f010f0100020f0100020f0100010f010f0100010f0200010f0200010f010f0100020f0100020f0100010f010f0700010f0100070f0100"
        },
        {
          "transactionType": "CREATE",
          "contractName": null,
          "address": "0x8c4a5ef79faf1bda7f520e3a5349e94d04db2c61",
          "initCode": "0x61003180600c6000396000f30017141d0d03d2010003d201d2030001d2020001d2030001d2020001d2030001d2020001d2030001d2020003d2010003d2"
        },
        {
          "transactionType": "CREATE",
          "contractName": null,
          "address": "0xd4dba298c7d93c95fcae350b4fe65ba7ce9513ee",
          "initCode": "0x61003980600c6000396000f30017131e0d02840100028401000184020002840100028401000284010006000284010001840100018402840100028401000184020001840200"
        }
      ],
      "isFixedGasLimit": false
    },
    {
      "hash": "0xbc2711f544f7b666f2fe8cff1040b8b11d6334dd1f512072a69ffa34d4540700",
      "transactionType": "CALL",
      "contractName": null,
      "contractAddress": "0xc45f4894f769602e1fdc888c935b294188a98064",
      "function": "addManyAccessories(bytes[])",
      "arguments": [
        "[0x18151c0c0203020001030200010301000103010002030100020301000103010301000103010c0103010c01030100010302030100010301000103010001030100, 0x16161e0b0200010308000303080001030100030306000100020301000303040003000203010003030200050002030100030308000103010001030a000103, 0x17131e0d010001e8020001e8010002e8010001e8010001e802e8020001e80100060002e8010001e8020002e8010002e8010001e8020003e8, 0x19151c0d0503010002030203010002030100020301030200020301000203, 0x19171e09021601000b16021601000116097001160216010001160970011602160100011609700116021601000b16]"
      ],
      "transaction": {
        "from": "0xf17b5dd382b048ff4c05c1c9e4e24cfc5c6adad9",
        "to": "0xc45f4894f769602e1fdc888c935b294188a98064",
        "gas": "0x7c990",
        "value": "0x0",
        "input": "0x0475d8630000000000000000000000000000000000000000000000000000000000000020000000000000000000000000000000000000000000000000000000000000000500000000000000000000000000000000000000000000000000000000000000a00000000000000000000000000000000000000000000000000000000000000100000000000000000000000000000000000000000000000000000000000000016000000000000000000000000000000000000000000000000000000000000001c00000000000000000000000000000000000000000000000000000000000000200000000000000000000000000000000000000000000000000000000000000004018151c0c0203020001030200010301000103010002030100020301000103010301000103010c0103010c01030100010302030100010301000103010001030100000000000000000000000000000000000000000000000000000000000000003e16161e0b0200010308000303080001030100030306000100020301000303040003000203010003030200050002030100030308000103010001030a0001030000000000000000000000000000000000000000000000000000000000000000003817131e0d010001e8020001e8010002e8010001e8010001e802e8020001e80100060002e8010001e8020002e8010002e8010001e8020003e80000000000000000000000000000000000000000000000000000000000000000000000000000001e19151c0d05030100020302030100020301000203010302000203010002030000000000000000000000000000000000000000000000000000000000000000002e19171e09021601000b16021601000116097001160216010001160970011602160100011609700116021601000b16000000000000000000000000000000000000",
        "nonce": "0x68",
        "chainId": "0x2105"
      },
      "additionalContracts": [
        {
          "transactionType": "CREATE",
          "contractName": null,
          "address": "0x70f11881fee7004295e556dabb096b080bed3f4a",
          "initCode": "0x61004180600c6000396000f30018151c0c0203020001030200010301000103010002030100020301000103010301000103010c0103010c01030100010302030100010301000103010001030100"
        },
        {
          "transactionType": "CREATE",
          "contractName": null,
          "address": "0x65028ecc5532c823b1af542821346a7131612ef0",
          "initCode": "0x61003f80600c6000396000f30016161e0b0200010308000303080001030100030306000100020301000303040003000203010003030200050002030100030308000103010001030a000103"
        },
        {
          "transactionType": "CREATE",
          "contractName": null,
          "address": "0xa5c5a360fda1308655ae1c49d36a6d104c322734",
          "initCode": "0x61003980600c6000396000f30017131e0d010001e8020001e8010002e8010001e8010001e802e8020001e80100060002e8010001e8020002e8010002e8010001e8020003e8"
        },
        {
          "transactionType": "CREATE",
          "contractName": null,
          "address": "0x1df09bfb3f55d56ca7f89f6b73846bc9acc2f10d",
          "initCode": "0x61001f80600c6000396000f30019151c0d0503010002030203010002030100020301030200020301000203"
        },
        {
          "transactionType": "CREATE",
          "contractName": null,
          "address": "0xa2ccfbc1d15ccb189f03f176ddc6559e9f89e889",
          "initCode": "0x61002f80600c6000396000f30019171e09021601000b16021601000116097001160216010001160970011602160100011609700116021601000b16"
        }
      ],
      "isFixedGasLimit": false
    },
    {
      "hash": "0x430ac6448b34f02194ba2ef44da3d384a661eab14d63dd85bf6d932cc223343a",
      "transactionType": "CALL",
      "contractName": null,
      "contractAddress": "0xc45f4894f769602e1fdc888c935b294188a98064",
      "function": "addManyAccessories(bytes[])",
      "arguments": [
        "[0x18131d0d01c9030001c9010001c9020001c9020001c9010001c9010002c9010001c9020002c901c9030002c9, 0x17131e0d01080300020801080200020801000208010001080200060001000108020002080108010001080100020801080100010801000208, 0x17151a0d010d0200020d0100010d0100010d0200020d0100010d0100020d0100020d0100020d, 0x16141d0d0600018007000280010001800200018001800100018001000180010001800700028002000380018001000180020001800100, 0x18151b0d030f0100010f0100010f0100010f0100010f0100010f0100010f0100010f0100010f0100010f0100020f]"
      ],
      "transaction": {
        "from": "0xf17b5dd382b048ff4c05c1c9e4e24cfc5c6adad9",
        "to": "0xc45f4894f769602e1fdc888c935b294188a98064",
        "gas": "0x7b3cc",
        "value": "0x0",
        "input": "0x0475d8630000000000000000000000000000000000000000000000000000000000000020000000000000000000000000000000000000000000000000000000000000000500000000000000000000000000000000000000000000000000000000000000a00000000000000000000000000000000000000000000000000000000000000100000000000000000000000000000000000000000000000000000000000000016000000000000000000000000000000000000000000000000000000000000001c00000000000000000000000000000000000000000000000000000000000000220000000000000000000000000000000000000000000000000000000000000002c18131d0d01c9030001c9010001c9020001c9020001c9010001c9010002c9010001c9020002c901c9030002c90000000000000000000000000000000000000000000000000000000000000000000000000000000000000000000000000000003817131e0d010803000208010802000208010002080100010802000600010001080200020801080100010801000208010801000108010002080000000000000000000000000000000000000000000000000000000000000000000000000000002617151a0d010d0200020d0100010d0100010d0200020d0100010d0100020d0100020d0100020d0000000000000000000000000000000000000000000000000000000000000000000000000000000000000000000000000000000000000000003616141d0d060001800700028001000180020001800180010001800100018001000180070002800200038001800100018002000180010000000000000000000000000000000000000000000000000000000000000000000000000000000000002e18151b0d030f0100010f0100010f0100010f0100010f0100010f0100010f0100010f0100010f0100010f0100020f000000000000000000000000000000000000",
        "nonce": "0x69",
        "chainId": "0x2105"
      },
      "additionalContracts": [
        {
          "transactionType": "CREATE",
          "contractName": null,
          "address": "0xe1bd5b978b1dc4d7adfbafa9adb3236a146ffbfd",
          "initCode": "0x61002d80600c6000396000f30018131d0d01c9030001c9010001c9020001c9020001c9010001c9010002c9010001c9020002c901c9030002c9"
        },
        {
          "transactionType": "CREATE",
          "contractName": null,
          "address": "0xc0aaa227c9f575f39f4605d93e29e3d98f2d0e27",
          "initCode": "0x61003980600c6000396000f30017131e0d01080300020801080200020801000208010001080200060001000108020002080108010001080100020801080100010801000208"
        },
        {
          "transactionType": "CREATE",
          "contractName": null,
          "address": "0xd2684c83111588c0f224df423721dc2b31288510",
          "initCode": "0x61002780600c6000396000f30017151a0d010d0200020d0100010d0100010d0200020d0100010d0100020d0100020d0100020d"
        },
        {
          "transactionType": "CREATE",
          "contractName": null,
          "address": "0xa1276d5c5c78b6c76a87ce8ffe4ad204f78c4b83",
          "initCode": "0x61003780600c6000396000f30016141d0d0600018007000280010001800200018001800100018001000180010001800700028002000380018001000180020001800100"
        },
        {
          "transactionType": "CREATE",
          "contractName": null,
          "address": "0xaa8b787fbb9217c8652ff1c75370d277cb543416",
          "initCode": "0x61002f80600c6000396000f30018151b0d030f0100010f0100010f0100010f0100010f0100010f0100010f0100010f0100010f0100010f0100020f"
        }
      ],
      "isFixedGasLimit": false
    },
    {
      "hash": "0x0bfa1135c8d2db06e5e1aa5dedaf3404501e233d9e0baa4445c2779634c41ed9",
      "transactionType": "CALL",
      "contractName": null,
      "contractAddress": "0xc45f4894f769602e1fdc888c935b294188a98064",
      "function": "addManyAccessories(bytes[])",
      "arguments": [
        "[0x17131f0d010002990100019901000100019901000299010006000299010001990100019902990100039906000100029901000199010001000199010002990100, 0x17131f0d010002080100010801000100010801000208010006000208010001080100010802080100030806000100020801000108010001000108010002080100, 0x17131f0d010002ee010001ee0100010001ee010002ee010006000299010001800100018002990100038006000100025701000157010001000157010002570100, 0x16131e0d010002990100019901000100019901000299010006000299010001990100019902990100039906000100029901000199010001000199010002990100, 0x18131c0d01000529012901000129010001290100020001290100012901000200012902000129]"
      ],
      "transaction": {
        "from": "0xf17b5dd382b048ff4c05c1c9e4e24cfc5c6adad9",
        "to": "0xc45f4894f769602e1fdc888c935b294188a98064",
        "gas": "0x7f3d4",
        "value": "0x0",
        "input": "0x0475d8630000000000000000000000000000000000000000000000000000000000000020000000000000000000000000000000000000000000000000000000000000000500000000000000000000000000000000000000000000000000000000000000a00000000000000000000000000000000000000000000000000000000000000100000000000000000000000000000000000000000000000000000000000000016000000000000000000000000000000000000000000000000000000000000001c00000000000000000000000000000000000000000000000000000000000000220000000000000000000000000000000000000000000000000000000000000004017131f0d010002990100019901000100019901000299010006000299010001990100019902990100039906000100029901000199010001000199010002990100000000000000000000000000000000000000000000000000000000000000004017131f0d010002080100010801000100010801000208010006000208010001080100010802080100030806000100020801000108010001000108010002080100000000000000000000000000000000000000000000000000000000000000004017131f0d010002ee010001ee0100010001ee010002ee010006000299010001800100018002990100038006000100025701000157010001000157010002570100000000000000000000000000000000000000000000000000000000000000004016131e0d010002990100019901000100019901000299010006000299010001990100019902990100039906000100029901000199010001000199010002990100000000000000000000000000000000000000000000000000000000000000002618131c0d010005290129010001290100012901000200012901000129010002000129020001290000000000000000000000000000000000000000000000000000",
        "nonce": "0x6a",
        "chainId": "0x2105"
      },
      "additionalContracts": [
        {
          "transactionType": "CREATE",
          "contractName": null,
          "address": "0xf76979611c261ce89d8cbe2db4f00adf1a2f6c56",
          "initCode": "0x61004180600c6000396000f30017131f0d010002990100019901000100019901000299010006000299010001990100019902990100039906000100029901000199010001000199010002990100"
        },
        {
          "transactionType": "CREATE",
          "contractName": null,
          "address": "0x91a61fd22f6a3edf70c494cdf96ff815118b2541",
          "initCode": "0x61004180600c6000396000f30017131f0d010002080100010801000100010801000208010006000208010001080100010802080100030806000100020801000108010001000108010002080100"
        },
        {
          "transactionType": "CREATE",
          "contractName": null,
          "address": "0xfa1b366e397565ff74eab356ccea632933b2c535",
          "initCode": "0x61004180600c6000396000f30017131f0d010002ee010001ee0100010001ee010002ee010006000299010001800100018002990100038006000100025701000157010001000157010002570100"
        },
        {
          "transactionType": "CREATE",
          "contractName": null,
          "address": "0x908b41e76eba1baefafc5bb93d01fb6fef3bb466",
          "initCode": "0x61004180600c6000396000f30016131e0d010002990100019901000100019901000299010006000299010001990100019902990100039906000100029901000199010001000199010002990100"
        },
        {
          "transactionType": "CREATE",
          "contractName": null,
          "address": "0xeb8254711fcdc51ed9f08cda0ec5a7cb20c2c635",
          "initCode": "0x61002780600c6000396000f30018131c0d01000529012901000129010001290100020001290100012901000200012902000129"
        }
      ],
      "isFixedGasLimit": false
    },
    {
      "hash": "0x2aa92fbef732a874887fab93d6634171eb8e3c9e9d3ed4dfbb8cfccdce56842f",
      "transactionType": "CALL",
      "contractName": null,
      "contractAddress": "0xc45f4894f769602e1fdc888c935b294188a98064",
      "function": "addManyAccessories(bytes[])",
      "arguments": [
        "[0x17131e0d02ba040002ba040001ba010002ba0200020002ba0200040002ba040002ba040001ba0100, 0x17131e0d020d02000269020d02000269010d0100010d01000269060003930100011701000293020001170100019303000217, 0x18151e0c0700018f0100040001c90100018f0100018f020001c9010001c90100038f01c9010001c9010001c90100018f020001c9010001c9010001c90200018f0100010001c9010001c90500, 0x18151b0c0131010001310100018f0100013101000131010001310100038f010001310100010001310100018f0100018f010001310100, 0x151720090392010007920100029202920300019203230192030001920192050001920123019205000700019206000292010004920100069201000192010001920123019203000192032301920300029205000192012301920100030001920700019202000292020007920100029202920300019203230192030001920123050003230500]"
      ],
      "transaction": {
        "from": "0xf17b5dd382b048ff4c05c1c9e4e24cfc5c6adad9",
        "to": "0xc45f4894f769602e1fdc888c935b294188a98064",
        "gas": "0x8b66a",
        "value": "0x0",
        "input": "0x0475d8630000000000000000000000000000000000000000000000000000000000000020000000000000000000000000000000000000000000000000000000000000000500000000000000000000000000000000000000000000000000000000000000a00000000000000000000000000000000000000000000000000000000000000100000000000000000000000000000000000000000000000000000000000000016000000000000000000000000000000000000000000000000000000000000001e00000000000000000000000000000000000000000000000000000000000000240000000000000000000000000000000000000000000000000000000000000002817131e0d02ba040002ba040001ba010002ba0200020002ba0200040002ba040002ba040001ba0100000000000000000000000000000000000000000000000000000000000000000000000000000000000000000000000000000000000000003217131e0d020d02000269020d02000269010d0100010d010002690600039301000117010002930200011701000193030002170000000000000000000000000000000000000000000000000000000000000000000000000000000000000000004c18151e0c0700018f0100040001c90100018f0100018f020001c9010001c90100038f01c9010001c9010001c90100018f020001c9010001c9010001c90200018f0100010001c9010001c905000000000000000000000000000000000000000000000000000000000000000000000000000000000000000000000000000000003618151b0c0131010001310100018f0100013101000131010001310100038f010001310100010001310100018f0100018f01000131010000000000000000000000000000000000000000000000000000000000000000000000000000000000008415172009039201000792010002920292030001920323019203000192019205000192012301920500070001920600029201000492010006920100019201000192012301920300019203230192030002920500019201230192010003000192070001920200029202000792010002920292030001920323019203000192012305000323050000000000000000000000000000000000000000000000000000000000",
        "nonce": "0x6b",
        "chainId": "0x2105"
      },
      "additionalContracts": [
        {
          "transactionType": "CREATE",
          "contractName": null,
          "address": "0x47748380c7bb10e4c272ea9d5f37dc25b816c00f",
          "initCode": "0x61002980600c6000396000f30017131e0d02ba040002ba040001ba010002ba0200020002ba0200040002ba040002ba040001ba0100"
        },
        {
          "transactionType": "CREATE",
          "contractName": null,
          "address": "0x58baf54947515e1ed938f5d20e16e0a5e7bfb803",
          "initCode": "0x61003380600c6000396000f30017131e0d020d02000269020d02000269010d0100010d01000269060003930100011701000293020001170100019303000217"
        },
        {
          "transactionType": "CREATE",
          "contractName": null,
          "address": "0x4c8a624b1ec0fe788372bb453978673b512950e3",
          "initCode": "0x61004d80600c6000396000f30018151e0c0700018f0100040001c90100018f0100018f020001c9010001c90100038f01c9010001c9010001c90100018f020001c9010001c9010001c90200018f0100010001c9010001c90500"
        },
        {
          "transactionType": "CREATE",
          "contractName": null,
          "address": "0xccde6efdd1f444f7591523347f949dcee8e92653",
          "initCode": "0x61003780600c6000396000f30018151b0c0131010001310100018f0100013101000131010001310100038f010001310100010001310100018f0100018f010001310100"
        },
        {
          "transactionType": "CREATE",
          "contractName": null,
          "address": "0xf646f257c8062fcf1d4ab872ad0e37bff60d99a3",
          "initCode": "0x61008580600c6000396000f300151720090392010007920100029202920300019203230192030001920192050001920123019205000700019206000292010004920100069201000192010001920123019203000192032301920300029205000192012301920100030001920700019202000292020007920100029202920300019203230192030001920123050003230500"
        }
      ],
      "isFixedGasLimit": false
    },
    {
      "hash": "0x0b9756b4c67117f5e77040f240e1444c0783655653f1bfeb1508ef70ac324571",
      "transactionType": "CALL",
      "contractName": null,
      "contractAddress": "0xc45f4894f769602e1fdc888c935b294188a98064",
      "function": "addManyAccessories(bytes[])",
      "arguments": [
        "[0x151720090a0001eb03000a0001eb030002eb01000beb040001eb0900040001eb090002eb010004eb010006eb0a0001eb03000a0001eb030002eb01000beb040001eb0900040001190900, 0x17151c0d010003c9040002c9020001c90300020001c9020001c90200020001c9030002c9010001c90600, 0x18141f0d013b02f1013b03f101f1016f010901c10109016f01f101f1016f010901c10109016f01f101f1016f01f1010901f1016f013b010001d1010001d1010001d10100010001d10500050001d10100, 0x1517200903310100038001000331010002310e000131010003800100033101000380010001000180030001310300018003000131018002000231010003800100033101000e0002310200038001000331010002800300018003000131030001800200013101800200033101000380010002310e00015a0200025a010003410100035a0100, 0x1517200903980100039801000398010002980e000198010003980100039801000398010001000198030001980300019803000198019802000298010003980100039801000e000298020003980100039801000298030001980300019803000198020002980200039801000398010002980e00014b0200024b0100034b0100034b0100]"
      ],
      "transaction": {
        "from": "0xf17b5dd382b048ff4c05c1c9e4e24cfc5c6adad9",
        "to": "0xc45f4894f769602e1fdc888c935b294188a98064",
        "gas": "0x8b80d",
        "value": "0x0",
        "input": "0x0475d8630000000000000000000000000000000000000000000000000000000000000020000000000000000000000000000000000000000000000000000000000000000500000000000000000000000000000000000000000000000000000000000000a000000000000000000000000000000000000000000000000000000000000001200000000000000000000000000000000000000000000000000000000000000180000000000000000000000000000000000000000000000000000000000000020000000000000000000000000000000000000000000000000000000000000002c0000000000000000000000000000000000000000000000000000000000000004a151720090a0001eb03000a0001eb030002eb01000beb040001eb0900040001eb090002eb010004eb010006eb0a0001eb03000a0001eb030002eb01000beb040001eb090004000119090000000000000000000000000000000000000000000000000000000000000000000000000000000000000000000000000000000000002a17151c0d010003c9040002c9020001c90300020001c9020001c90200020001c9030002c9010001c9060000000000000000000000000000000000000000000000000000000000000000000000000000000000000000000000000000000000005018141f0d013b02f1013b03f101f1016f010901c10109016f01f101f1016f010901c10109016f01f101f1016f01f1010901f1016f013b010001d1010001d1010001d10100010001d10500050001d101000000000000000000000000000000000000000000000000000000000000000000000000000000000000000000000000841517200903310100038001000331010002310e000131010003800100033101000380010001000180030001310300018003000131018002000231010003800100033101000e0002310200038001000331010002800300018003000131030001800200013101800200033101000380010002310e00015a0200025a010003410100035a01000000000000000000000000000000000000000000000000000000000000000000000000000000000000000000000000000000000000000000000000821517200903980100039801000398010002980e000198010003980100039801000398010001000198030001980300019803000198019802000298010003980100039801000e000298020003980100039801000298030001980300019803000198020002980200039801000398010002980e00014b0200024b0100034b0100034b0100000000000000000000000000000000000000000000000000000000000000",
        "nonce": "0x6c",
        "chainId": "0x2105"
      },
      "additionalContracts": [
        {
          "transactionType": "CREATE",
          "contractName": null,
          "address": "0x1ba538785116d9507776a19bfbbb37e5e2f981c9",
          "initCode": "0x61004b80600c6000396000f300151720090a0001eb03000a0001eb030002eb01000beb040001eb0900040001eb090002eb010004eb010006eb0a0001eb03000a0001eb030002eb01000beb040001eb0900040001190900"
        },
        {
          "transactionType": "CREATE",
          "contractName": null,
          "address": "0x2757862dc3555a70cb67e6323b2c8a135d25bc34",
          "initCode": "0x61002b80600c6000396000f30017151c0d010003c9040002c9020001c90300020001c9020001c90200020001c9030002c9010001c90600"
        },
        {
          "transactionType": "CREATE",
          "contractName": null,
          "address": "0x1521d53b965a9ab6c5979b04a2a5e016be33fc0c",
          "initCode": "0x61005180600c6000396000f30018141f0d013b02f1013b03f101f1016f010901c10109016f01f101f1016f010901c10109016f01f101f1016f01f1010901f1016f013b010001d1010001d1010001d10100010001d10500050001d10100"
        },
        {
          "transactionType": "CREATE",
          "contractName": null,
          "address": "0x5a73e5d1d05cec3ae1185c3207491fe3abed4b58",
          "initCode": "0x61008580600c6000396000f3001517200903310100038001000331010002310e000131010003800100033101000380010001000180030001310300018003000131018002000231010003800100033101000e0002310200038001000331010002800300018003000131030001800200013101800200033101000380010002310e00015a0200025a010003410100035a0100"
        },
        {
          "transactionType": "CREATE",
          "contractName": null,
          "address": "0x113fac9863db4aff16bf11bcbc9ae64ad96aad46",
          "initCode": "0x61008380600c6000396000f3001517200903980100039801000398010002980e000198010003980100039801000398010001000198030001980300019803000198019802000298010003980100039801000e000298020003980100039801000298030001980300019803000198020002980200039801000398010002980e00014b0200024b0100034b0100034b0100"
        }
      ],
      "isFixedGasLimit": false
    },
    {
      "hash": "0x00c02165d637f9104c4038ff61dc9baffce2c013f735a69f2af0d860bed2a057",
      "transactionType": "CALL",
      "contractName": null,
      "contractAddress": "0xc45f4894f769602e1fdc888c935b294188a98064",
      "function": "addManyAccessories(bytes[])",
      "arguments": [
        "[0x18121c0e044001400115019e019501400115019e01950495, 0x151720090e7801780c1c017801780c1c01780178011c01780a1c0178027801000178091c0178027801000178091c0178027801000178091c0178027801000178091c0178027801000178091c0178027801000178091c0178021c01000b1c, 0x151720090e3f013f0c18013f013f0c18013f013f0118013f0a18013f023f0100013f0918013f023f0100013f0918013f023f0100013f0918013f023f0100013f0918013f023f0100013f0918013f023f0100013f0918013f021801000b18, 0x151720090e3301330c12013301330c1201330133011201330a120133023301000133091201330233010001330912013302330100013309120133023301000133091201330233010001330912013302330100013309120133021201000b12, 0x151720090ed901d90c2b01d901d90c2b01d901d9012b01d90a2b01d902d9010001d9092b01d902d9010001d9092b01d902d9010001d9092b01d902d9010001d9092b01d902d9010001d9092b01d902d9010001d9092b01d9022b01000b2b]"
      ],
      "transaction": {
        "from": "0xf17b5dd382b048ff4c05c1c9e4e24cfc5c6adad9",
        "to": "0xc45f4894f769602e1fdc888c935b294188a98064",
        "gas": "0x87330",
        "value": "0x0",
        "input": "0x0475d8630000000000000000000000000000000000000000000000000000000000000020000000000000000000000000000000000000000000000000000000000000000500000000000000000000000000000000000000000000000000000000000000a000000000000000000000000000000000000000000000000000000000000000e0000000000000000000000000000000000000000000000000000000000000016000000000000000000000000000000000000000000000000000000000000001e00000000000000000000000000000000000000000000000000000000000000260000000000000000000000000000000000000000000000000000000000000001818121c0e044001400115019e019501400115019e019504950000000000000000000000000000000000000000000000000000000000000000000000000000005e151720090e7801780c1c017801780c1c01780178011c01780a1c0178027801000178091c0178027801000178091c0178027801000178091c0178027801000178091c0178027801000178091c0178027801000178091c0178021c01000b1c0000000000000000000000000000000000000000000000000000000000000000005e151720090e3f013f0c18013f013f0c18013f013f0118013f0a18013f023f0100013f0918013f023f0100013f0918013f023f0100013f0918013f023f0100013f0918013f023f0100013f0918013f023f0100013f0918013f021801000b180000000000000000000000000000000000000000000000000000000000000000005e151720090e3301330c12013301330c1201330133011201330a120133023301000133091201330233010001330912013302330100013309120133023301000133091201330233010001330912013302330100013309120133021201000b120000000000000000000000000000000000000000000000000000000000000000005e151720090ed901d90c2b01d901d90c2b01d901d9012b01d90a2b01d902d9010001d9092b01d902d9010001d9092b01d902d9010001d9092b01d902d9010001d9092b01d902d9010001d9092b01d902d9010001d9092b01d9022b01000b2b0000",
        "nonce": "0x6d",
        "chainId": "0x2105"
      },
      "additionalContracts": [
        {
          "transactionType": "CREATE",
          "contractName": null,
          "address": "0x1183b87764fc84a4dadef6117c93d17ab7c80d9f",
          "initCode": "0x61001980600c6000396000f30018121c0e044001400115019e019501400115019e01950495"
        },
        {
          "transactionType": "CREATE",
          "contractName": null,
          "address": "0xd8a6833caa1c6474b387ec0b0cb65093a792f4bb",
          "initCode": "0x61005f80600c6000396000f300151720090e7801780c1c017801780c1c01780178011c01780a1c0178027801000178091c0178027801000178091c0178027801000178091c0178027801000178091c0178027801000178091c0178027801000178091c0178021c01000b1c"
        },
        {
          "transactionType": "CREATE",
          "contractName": null,
          "address": "0x216553fdaacfacd913511e8d768f81e11c2be6bf",
          "initCode": "0x61005f80600c6000396000f300151720090e3f013f0c18013f013f0c18013f013f0118013f0a18013f023f0100013f0918013f023f0100013f0918013f023f0100013f0918013f023f0100013f0918013f023f0100013f0918013f023f0100013f0918013f021801000b18"
        },
        {
          "transactionType": "CREATE",
          "contractName": null,
          "address": "0x51f4984a7a7c41fc81f1066daf9424088c9afbff",
          "initCode": "0x61005f80600c6000396000f300151720090e3301330c12013301330c1201330133011201330a120133023301000133091201330233010001330912013302330100013309120133023301000133091201330233010001330912013302330100013309120133021201000b12"
        },
        {
          "transactionType": "CREATE",
          "contractName": null,
          "address": "0x9801fe6564f0ab92cb1f0df5b3a860126730a8d6",
          "initCode": "0x61005f80600c6000396000f300151720090ed901d90c2b01d901d90c2b01d901d9012b01d90a2b01d902d9010001d9092b01d902d9010001d9092b01d902d9010001d9092b01d902d9010001d9092b01d902d9010001d9092b01d902d9010001d9092b01d9022b01000b2b"
        }
      ],
      "isFixedGasLimit": false
    }
  ],
  "receipts": [
    {
      "status": "0x1",
      "cumulativeGasUsed": "0x2f69b0b",
      "logs": [],
      "logsBloom": "0x00000000000000000000000000000000000000000000000000000000000000000000000000000000000000000000000000000000000000000000000000000000000000000000000000000000000000000000000000000000000000000000000000000000000000000000000000000000000000000000000000000000000000000000000000000000000000000000000000000000000000000000000000000000000000000000000000000000000000000000000000000000000000000000000000000000000000000000000000000000000000000000000000000000000000000000000000000000000000000000000000000000000000000000000000000000",
      "type": "0x2",
      "transactionHash": "0x1ad1b6b08f92d1d47a562542fb375a298eb3c9d70477705cdfa0a7c14b3cc21a",
      "transactionIndex": "0xba",
      "blockHash": "0x0000000000000000000000000000000000000000000000000000000000000000",
      "blockNumber": "0x27efb62",
      "gasUsed": "0x5d7dd",
      "effectiveGasPrice": "0x532eb2",
      "blobGasUsed": "0x920f",
      "from": "0xf17b5dd382b048ff4c05c1c9e4e24cfc5c6adad9",
      "to": "0xc45f4894f769602e1fdc888c935b294188a98064",
      "contractAddress": null,
      "daFootprintGasScalar": "0x8b",
      "l1BaseFeeScalar": "0x8dd",
      "l1BlobBaseFee": "0x3700ce",
      "l1BlobBaseFeeScalar": "0x101c12",
      "l1Fee": "0x41485c93",
      "l1GasPrice": "0x3a76f44",
      "l1GasUsed": "0x10d6"
    },
    {
      "status": "0x1",
      "cumulativeGasUsed": "0x3a8a998",
      "logs": [],
      "logsBloom": "0x00000000000000000000000000000000000000000000000000000000000000000000000000000000000000000000000000000000000000000000000000000000000000000000000000000000000000000000000000000000000000000000000000000000000000000000000000000000000000000000000000000000000000000000000000000000000000000000000000000000000000000000000000000000000000000000000000000000000000000000000000000000000000000000000000000000000000000000000000000000000000000000000000000000000000000000000000000000000000000000000000000000000000000000000000000000",
      "type": "0x2",
      "transactionHash": "0x3d515555f30e99b8f79d3271f03634297c1f1de277d6e1c64922ecb88a10f094",
      "transactionIndex": "0xe3",
      "blockHash": "0x3e5e15f28e0104ec0d0717524019c2e2205d082afa322d09f11e2162ed25b103",
      "blockNumber": "0x27efb63",
      "gasUsed": "0x5fe8a",
      "effectiveGasPrice": "0x533e66",
      "blobGasUsed": "0xbb53",
      "from": "0xf17b5dd382b048ff4c05c1c9e4e24cfc5c6adad9",
      "to": "0xc45f4894f769602e1fdc888c935b294188a98064",
      "contractAddress": null,
      "daFootprintGasScalar": "0x8b",
      "l1BaseFeeScalar": "0x8dd",
      "l1BlobBaseFee": "0x3700ce",
      "l1BlobBaseFeeScalar": "0x101c12",
      "l1Fee": "0x2d6f76b4",
      "l1GasPrice": "0x3a76f44",
      "l1GasUsed": "0x1598"
    },
    {
      "status": "0x1",
      "cumulativeGasUsed": "0x279a58e",
      "logs": [],
      "logsBloom": "0x00000000000000000000000000000000000000000000000000000000000000000000000000000000000000000000000000000000000000000000000000000000000000000000000000000000000000000000000000000000000000000000000000000000000000000000000000000000000000000000000000000000000000000000000000000000000000000000000000000000000000000000000000000000000000000000000000000000000000000000000000000000000000000000000000000000000000000000000000000000000000000000000000000000000000000000000000000000000000000000000000000000000000000000000000000000",
      "type": "0x2",
      "transactionHash": "0x85f0a00c743dbb6fafcf8425d789087790c970e67fb3acd84bb5e2940f8c6125",
      "transactionIndex": "0x91",
      "blockHash": "0x0000000000000000000000000000000000000000000000000000000000000000",
      "blockNumber": "0x27efb64",
      "gasUsed": "0x60ce6",
      "effectiveGasPrice": "0x53710d",
      "blobGasUsed": "0x9d76",
      "from": "0xf17b5dd382b048ff4c05c1c9e4e24cfc5c6adad9",
      "to": "0xc45f4894f769602e1fdc888c935b294188a98064",
      "contractAddress": null,
      "daFootprintGasScalar": "0x8b",
      "l1BaseFeeScalar": "0x8dd",
      "l1BlobBaseFee": "0x3700ce",
      "l1BlobBaseFeeScalar": "0x101c12",
      "l1Fee": "0x56553159",
      "l1GasPrice": "0x3a76f44",
      "l1GasUsed": "0x1225"
    },
    {
      "status": "0x1",
      "cumulativeGasUsed": "0x31e1da7",
      "logs": [],
      "logsBloom": "0x00000000000000000000000000000000000000000000000000000000000000000000000000000000000000000000000000000000000000000000000000000000000000000000000000000000000000000000000000000000000000000000000000000000000000000000000000000000000000000000000000000000000000000000000000000000000000000000000000000000000000000000000000000000000000000000000000000000000000000000000000000000000000000000000000000000000000000000000000000000000000000000000000000000000000000000000000000000000000000000000000000000000000000000000000000000",
      "type": "0x2",
      "transactionHash": "0x8576756cc37a2ddf8d22a9a9d9d244f14de0bea706a7af014f39b82a2d4d8891",
      "transactionIndex": "0xc2",
      "blockHash": "0xdb6f2f4fbf5bc703424eedb0e43f6f7647c69b6eaa8398866139aa7942e27799",
      "blockNumber": "0x27efb65",
      "gasUsed": "0x6d5a5",
      "effectiveGasPrice": "0x538011",
      "blobGasUsed": "0xeba6",
      "from": "0xf17b5dd382b048ff4c05c1c9e4e24cfc5c6adad9",
      "to": "0xc45f4894f769602e1fdc888c935b294188a98064",
      "contractAddress": null,
      "daFootprintGasScalar": "0x8b",
      "l1BaseFeeScalar": "0x8dd",
      "l1BlobBaseFee": "0x3700ce",
      "l1BlobBaseFeeScalar": "0x101c12",
      "l1Fee": "0x23f30655",
      "l1GasPrice": "0x3a76f44",
      "l1GasUsed": "0x1b23"
    },
    {
      "status": "0x1",
      "cumulativeGasUsed": "0x18ed892",
      "logs": [],
      "logsBloom": "0x00000000000000000000000000000000000000000000000000000000000000000000000000000000000000000000000000000000000000000000000000000000000000000000000000000000000000000000000000000000000000000000000000000000000000000000000000000000000000000000000000000000000000000000000000000000000000000000000000000000000000000000000000000000000000000000000000000000000000000000000000000000000000000000000000000000000000000000000000000000000000000000000000000000000000000000000000000000000000000000000000000000000000000000000000000000",
      "type": "0x2",
      "transactionHash": "0x082b36f0be160d9bbc1b2a79df9aae34c149e67d8ff39a2c0f3f9550eabb2e79",
      "transactionIndex": "0x6e",
      "blockHash": "0x0000000000000000000000000000000000000000000000000000000000000000",
      "blockNumber": "0x27efb66",
      "gasUsed": "0x64425",
      "effectiveGasPrice": "0x539910",
      "blobGasUsed": "0xb9b2",
      "from": "0xf17b5dd382b048ff4c05c1c9e4e24cfc5c6adad9",
      "to": "0xc45f4894f769602e1fdc888c935b294188a98064",
      "contractAddress": null,
      "daFootprintGasScalar": "0x8b",
      "l1BaseFeeScalar": "0x8dd",
      "l1BlobBaseFee": "0x3700ce",
      "l1BlobBaseFeeScalar": "0x101c12",
      "l1Fee": "0x23f30655",
      "l1GasPrice": "0x3a76f44",
      "l1GasUsed": "0x1563"
    },
    {
      "status": "0x1",
      "cumulativeGasUsed": "0x31a4d75",
      "logs": [],
      "logsBloom": "0x00000000000000000000000000000000000000000000000000000000000000000000000000000000000000000000000000000000000000000000000000000000000000000000000000000000000000000000000000000000000000000000000000000000000000000000000000000000000000000000000000000000000000000000000000000000000000000000000000000000000000000000000000000000000000000000000000000000000000000000000000000000000000000000000000000000000000000000000000000000000000000000000000000000000000000000000000000000000000000000000000000000000000000000000000000000",
      "type": "0x2",
      "transactionHash": "0xeaa9e04b9cd6f14f643db82f171b698fa959217413413badd5c792ff2851fa81",
      "transactionIndex": "0xaf",
      "blockHash": "0x0000000000000000000000000000000000000000000000000000000000000000",
      "blockNumber": "0x27efb67",
      "gasUsed": "0x6d779",
      "effectiveGasPrice": "0x5395b9",
      "blobGasUsed": "0xf114",
      "from": "0xf17b5dd382b048ff4c05c1c9e4e24cfc5c6adad9",
      "to": "0xc45f4894f769602e1fdc888c935b294188a98064",
      "contractAddress": null,
      "daFootprintGasScalar": "0x8b",
      "l1BaseFeeScalar": "0x8dd",
      "l1BlobBaseFee": "0x384047",
      "l1BlobBaseFeeScalar": "0x101c12",
      "l1Fee": "0x40932b10",
      "l1GasPrice": "0x3734354",
      "l1GasUsed": "0x1bc4"
    },
    {
      "status": "0x1",
      "cumulativeGasUsed": "0x1e02798",
      "logs": [],
      "logsBloom": "0x00000000000000000000000000000000000000000000000000000000000000000000000000000000000000000000000000000000000000000000000000000000000000000000000000000000000000000000000000000000000000000000000000000000000000000000000000000000000000000000000000000000000000000000000000000000000000000000000000000000000000000000000000000000000000000000000000000000000000000000000000000000000000000000000000000000000000000000000000000000000000000000000000000000000000000000000000000000000000000000000000000000000000000000000000000000",
      "type": "0x2",
      "transactionHash": "0x4782f94c5b1cf3236ee7bc707d52cb9bbcfe5202484226a098a97b24498e5ffe",
      "transactionIndex": "0x5e",
      "blockHash": "0x676061d801bcb61382351c05cd3cfbe58ae460d9f44c28aa0e163f298f8d8e5a",
      "blockNumber": "0x27efb68",
      "gasUsed": "0x70c51",
      "effectiveGasPrice": "0x53aee4",
      "blobGasUsed": "0xfada",
      "from": "0xf17b5dd382b048ff4c05c1c9e4e24cfc5c6adad9",
      "to": "0xc45f4894f769602e1fdc888c935b294188a98064",
      "contractAddress": null,
      "daFootprintGasScalar": "0x8b",
      "l1BaseFeeScalar": "0x8dd",
      "l1BlobBaseFee": "0x384047",
      "l1BlobBaseFeeScalar": "0x101c12",
      "l1Fee": "0x23b95fa5",
      "l1GasPrice": "0x3734354",
      "l1GasUsed": "0x1cea"
    },
    {
      "status": "0x1",
      "cumulativeGasUsed": "0x1a6baeb",
      "logs": [],
      "logsBloom": "0x00000000000000000000000000000000000000000000000000000000000000000000000000000000000000000000000000000000000000000000000000000000000000000000000000000000000000000000000000000000000000000000000000000000000000000000000000000000000000000000000000000000000000000000000000000000000000000000000000000000000000000000000000000000000000000000000000000000000000000000000000000000000000000000000000000000000000000000000000000000000000000000000000000000000000000000000000000000000000000000000000000000000000000000000000000000",
      "type": "0x2",
      "transactionHash": "0xe0c7df61abb9499e4ef643c42d57aab924df6cc7003a572471c7fb37cce7c0c0",
      "transactionIndex": "0x6a",
      "blockHash": "0x8788a37007029f5e60e5fc80b856dd7ba8b9106742c857681dfa1ddda7fed1c0",
      "blockNumber": "0x27efb69",
      "gasUsed": "0x6f10c",
      "effectiveGasPrice": "0x53e2cd",
      "blobGasUsed": "0xbbde",
      "from": "0xf17b5dd382b048ff4c05c1c9e4e24cfc5c6adad9",
      "to": "0xc45f4894f769602e1fdc888c935b294188a98064",
      "contractAddress": null,
      "daFootprintGasScalar": "0x8b",
      "l1BaseFeeScalar": "0x8dd",
      "l1BlobBaseFee": "0x384047",
      "l1BlobBaseFeeScalar": "0x101c12",
      "l1Fee": "0x55cabe27",
      "l1GasPrice": "0x3734354",
      "l1GasUsed": "0x15a6"
    },
    {
      "status": "0x1",
      "cumulativeGasUsed": "0x2480a0f",
      "logs": [],
      "logsBloom": "0x00000000000000000000000000000000000000000000000000000000000000000000000000000000000000000000000000000000000000000000000000000000000000000000000000000000000000000000000000000000000000000000000000000000000000000000000000000000000000000000000000000000000000000000000000000000000000000000000000000000000000000000000000000000000000000000000000000000000000000000000000000000000000000000000000000000000000000000000000000000000000000000000000000000000000000000000000000000000000000000000000000000000000000000000000000000",
      "type": "0x2",
      "transactionHash": "0x06266b7d4c3b793c4e225f254a618878a2e09e627ad2ab2afef7f05ff81399ba",
      "transactionIndex": "0x6e",
      "blockHash": "0x0000000000000000000000000000000000000000000000000000000000000000",
      "blockNumber": "0x27efb6a",
      "gasUsed": "0x5d95f",
      "effectiveGasPrice": "0x53e5b1",
      "blobGasUsed": "0xb4cf",
      "from": "0xf17b5dd382b048ff4c05c1c9e4e24cfc5c6adad9",
      "to": "0xc45f4894f769602e1fdc888c935b294188a98064",
      "contractAddress": null,
      "daFootprintGasScalar": "0x8b",
      "l1BaseFeeScalar": "0x8dd",
      "l1BlobBaseFee": "0x384047",
      "l1BlobBaseFeeScalar": "0x101c12",
      "l1Fee": "0x55cabe27",
      "l1GasPrice": "0x3734354",
      "l1GasUsed": "0x14dd"
    },
    {
      "status": "0x1",
      "cumulativeGasUsed": "0x34c935c",
      "logs": [],
      "logsBloom": "0x00000000000000000000000000000000000000000000000000000000000000000000000000000000000000000000000000000000000000000000000000000000000000000000000000000000000000000000000000000000000000000000000000000000000000000000000000000000000000000000000000000000000000000000000000000000000000000000000000000000000000000000000000000000000000000000000000000000000000000000000000000000000000000000000000000000000000000000000000000000000000000000000000000000000000000000000000000000000000000000000000000000000000000000000000000000",
      "type": "0x2",
      "transactionHash": "0x67dd9b5c2da235c1a1c0eaae50e66793cbd6019d3475917ba531022a36b72b52",
      "transactionIndex": "0xc8",
      "blockHash": "0xaa2adf01aad9d8adf44d5b25be5b4f3fb3935047c09b42d4280d8d83b8ff3d0d",
      "blockNumber": "0x27efb6b",
      "gasUsed": "0x5f83a",
      "effectiveGasPrice": "0x53f8ed",
      "blobGasUsed": "0xc745",
      "from": "0xf17b5dd382b048ff4c05c1c9e4e24cfc5c6adad9",
      "to": "0xc45f4894f769602e1fdc888c935b294188a98064",
      "contractAddress": null,
      "daFootprintGasScalar": "0x8b",
      "l1BaseFeeScalar": "0x8dd",
      "l1BlobBaseFee": "0x384047",
      "l1BlobBaseFeeScalar": "0x101c12",
      "l1Fee": "0x8336e707",
      "l1GasPrice": "0x3734354",
      "l1GasUsed": "0x16f4"
    },
    {
      "status": "0x1",
      "cumulativeGasUsed": "0x38d0a5e",
      "logs": [],
      "logsBloom": "0x00000000000000000000000000000000000000000000000000000000000000000000000000000000000000000000000000000000000000000000000000000000000000000000000000000000000000000000000000000000000000000000000000000000000000000000000000000000000000000000000000000000000000000000000000000000000000000000000000000000000000000000000000000000000000000000000000000000000000000000000000000000000000000000000000000000000000000000000000000000000000000000000000000000000000000000000000000000000000000000000000000000000000000000000000000000",
      "type": "0x2",
      "transactionHash": "0xa4706f475bb7e1b5c193f913f12eaebc288f7fb2fe0c76e3b33d6e4ac8970a49",
      "transactionIndex": "0xe4",
      "blockHash": "0x0000000000000000000000000000000000000000000000000000000000000000",
      "blockNumber": "0x27efb6c",
      "gasUsed": "0x58960",
      "effectiveGasPrice": "0x540cf5",
      "blobGasUsed": "0x95dc",
      "from": "0xf17b5dd382b048ff4c05c1c9e4e24cfc5c6adad9",
      "to": "0xc45f4894f769602e1fdc888c935b294188a98064",
      "contractAddress": null,
      "daFootprintGasScalar": "0x8b",
      "l1BaseFeeScalar": "0x8dd",
      "l1BlobBaseFee": "0x384047",
      "l1BlobBaseFeeScalar": "0x101c12",
      "l1Fee": "0x55cabe27",
      "l1GasPrice": "0x3734354",
      "l1GasUsed": "0x114f"
    },
    {
      "status": "0x1",
      "cumulativeGasUsed": "0x101a46a",
      "logs": [],
      "logsBloom": "0x00000000000000000000000000000000000000000000000000000000000000000000000000000000000000000000000000000000000000000000000000000000000000000000000000000000000000000000000000000000000000000000000000000000000000000000000000000000000000000000000000000000000000000000000000000000000000000000000000000000000000000000000000000000000000000000000000000000000000000000000000000000000000000000000000000000000000000000000000000000000000000000000000000000000000000000000000000000000000000000000000000000000000000000000000000000",
      "type": "0x2",
      "transactionHash": "0xc35671a90a71a4881a34347defcac68da5e709d409fd059f5f0fd58780cf0a9a",
      "transactionIndex": "0x4a",
      "blockHash": "0x0000000000000000000000000000000000000000000000000000000000000000",
      "blockNumber": "0x27efb6e",
      "gasUsed": "0x5e2e0",
      "effectiveGasPrice": "0x5434f7",
      "blobGasUsed": "0x9ceb",
      "from": "0xf17b5dd382b048ff4c05c1c9e4e24cfc5c6adad9",
      "to": "0xc45f4894f769602e1fdc888c935b294188a98064",
      "contractAddress": null,
      "daFootprintGasScalar": "0x8b",
      "l1BaseFeeScalar": "0x8dd",
      "l1BlobBaseFee": "0x30136f",
      "l1BlobBaseFeeScalar": "0x101c12",
      "l1Fee": "0x24767ea2",
      "l1GasPrice": "0x33bcc5c",
      "l1GasUsed": "0x1218"
    },
    {
      "status": "0x1",
      "cumulativeGasUsed": "0x3f0ff77",
      "logs": [],
      "logsBloom": "0x00000000000000000000000000000000000000000000000000000000000000000000000000000000000000000000000000000000000000000000000000000000000000000000000000000000000000000000000000000000000000000000000000000000000000000000000000000000000000000000000000000000000000000000000000000000000000000000000000000000000000000000000000000000000000000000000000000000000000000000000000000000000000000000000000000000000000000000000000000000000000000000000000000000000000000000000000000000000000000000000000000000000000000000000000000000",
      "type": "0x2",
      "transactionHash": "0xddaf949493f4dd92ab617a4454b4465f40bf2ae4a5da8427fae69550ab0b65ca",
      "transactionIndex": "0xe0",
      "blockHash": "0xdd986e0875d240331be0f74ba3c98149937d81852dfec17cb046b50f6e6c4e24",
      "blockNumber": "0x27efb6f",
      "gasUsed": "0x58c4d",
      "effectiveGasPrice": "0x5460b6",
      "blobGasUsed": "0x95dc",
      "from": "0xf17b5dd382b048ff4c05c1c9e4e24cfc5c6adad9",
      "to": "0xc45f4894f769602e1fdc888c935b294188a98064",
      "contractAddress": null,
      "daFootprintGasScalar": "0x8b",
      "l1BaseFeeScalar": "0x8dd",
      "l1BlobBaseFee": "0x30136f",
      "l1BlobBaseFeeScalar": "0x101c12",
      "l1Fee": "0x576cae5a",
      "l1GasPrice": "0x33bcc5c",
      "l1GasUsed": "0x114f"
    },
    {
      "status": "0x1",
      "cumulativeGasUsed": "0x3526edf",
      "logs": [],
      "logsBloom": "0x00000000000000000000000000000000000000000000000000000000000000000000000000000000000000000000000000000000000000000000000000000000000000000000000000000000000000000000000000000000000000000000000000000000000000000000000000000000000000000000000000000000000000000000000000000000000000000000000000000000000000000000000000000000000000000000000000000000000000000000000000000000000000000000000000000000000000000000000000000000000000000000000000000000000000000000000000000000000000000000000000000000000000000000000000000000",
      "type": "0x2",
      "transactionHash": "0xa5563e8632f1479dfb6787c8e46389d72b479ed0dbeecadee6e348c6b984637a",
      "transactionIndex": "0xb6",
      "blockHash": "0x0000000000000000000000000000000000000000000000000000000000000000",
      "blockNumber": "0x27efb70",
      "gasUsed": "0x6a1f7",
      "effectiveGasPrice": "0x547e2b",
      "blobGasUsed": "0xa259",
      "from": "0xf17b5dd382b048ff4c05c1c9e4e24cfc5c6adad9",
      "to": "0xc45f4894f769602e1fdc888c935b294188a98064",
      "contractAddress": null,
      "daFootprintGasScalar": "0x8b",
      "l1BaseFeeScalar": "0x8dd",
      "l1BlobBaseFee": "0x30136f",
      "l1BlobBaseFeeScalar": "0x101c12",
      "l1Fee": "0x1f90e938",
      "l1GasPrice": "0x33bcc5c",
      "l1GasUsed": "0x12b8"
    },
    {
      "status": "0x1",
      "cumulativeGasUsed": "0x2295ce3",
      "logs": [],
      "logsBloom": "0x00000000000000000000000000000000000000000000000000000000000000000000000000000000000000000000000000000000000000000000000000000000000000000000000000000000000000000000000000000000000000000000000000000000000000000000000000000000000000000000000000000000000000000000000000000000000000000000000000000000000000000000000000000000000000000000000000000000000000000000000000000000000000000000000000000000000000000000000000000000000000000000000000000000000000000000000000000000000000000000000000000000000000000000000000000000",
      "type": "0x2",
      "transactionHash": "0x1a5df784ca29aa4de0878191c2a9ab481d5eb98d33d0b274753c841b698d2a91",
      "transactionIndex": "0x89",
      "blockHash": "0x0000000000000000000000000000000000000000000000000000000000000000",
      "blockNumber": "0x27efb71",
      "gasUsed": "0x58daf",
      "effectiveGasPrice": "0x54929f",
      "blobGasUsed": "0x7f99",
      "from": "0xf17b5dd382b048ff4c05c1c9e4e24cfc5c6adad9",
      "to": "0xc45f4894f769602e1fdc888c935b294188a98064",
      "contractAddress": null,
      "daFootprintGasScalar": "0x8b",
      "l1BaseFeeScalar": "0x8dd",
      "l1BlobBaseFee": "0x30136f",
      "l1BlobBaseFeeScalar": "0x101c12",
      "l1Fee": "0x390f0bf3",
      "l1GasPrice": "0x33bcc5c",
      "l1GasUsed": "0xebf"
    },
    {
      "status": "0x1",
      "cumulativeGasUsed": "0x316fb10",
      "logs": [],
      "logsBloom": "0x00000000000000000000000000000000000000000000000000000000000000000000000000000000000000000000000000000000000000000000000000000000000000000000000000000000000000000000000000000000000000000000000000000000000000000000000000000000000000000000000000000000000000000000000000000000000000000000000000000000000000000000000000000000000000000000000000000000000000000000000000000000000000000000000000000000000000000000000000000000000000000000000000000000000000000000000000000000000000000000000000000000000000000000000000000000",
      "type": "0x2",
      "transactionHash": "0xe295c75cbf0e6f2eb1f9a2f5c288d51fc082294848fd67fe6fde9cf633876bd8",
      "transactionIndex": "0xce",
      "blockHash": "0x45504f644fefa392fb5ea0bc214dbc927368dc30e8a657f3da65e44c7446b099",
      "blockNumber": "0x27efb72",
      "gasUsed": "0x5cfd1",
      "effectiveGasPrice": "0x54bfe5",
      "blobGasUsed": "0xb18d",
      "from": "0xf17b5dd382b048ff4c05c1c9e4e24cfc5c6adad9",
      "to": "0xc45f4894f769602e1fdc888c935b294188a98064",
      "contractAddress": null,
      "daFootprintGasScalar": "0x8b",
      "l1BaseFeeScalar": "0x8dd",
      "l1BlobBaseFee": "0x30136f",
      "l1BlobBaseFeeScalar": "0x101c12",
      "l1Fee": "0x4bce6bc3",
      "l1GasPrice": "0x33bcc5c",
      "l1GasUsed": "0x147f"
    },
    {
      "status": "0x1",
      "cumulativeGasUsed": "0x398f68c",
      "logs": [],
      "logsBloom": "0x00000000000000000000000000000000000000000000000000000000000000000000000000000000000000000000000000000000000000000000000000000000000000000000000000000000000000000000000000000000000000000000000000000000000000000000000000000000000000000000000000000000000000000000000000000000000000000000000000000000000000000000000000000000000000000000000000000000000000000000000000000000000000000000000000000000000000000000000000000000000000000000000000000000000000000000000000000000000000000000000000000000000000000000000000000000",
      "type": "0x2",
      "transactionHash": "0xc8180b9018ae22a7e1936c69739eb26a32c1fb42c6ac64d9463c3d94c3019958",
      "transactionIndex": "0x80",
      "blockHash": "0x6968606d25142a7dbfa50fecbc39c7f64eb52a10f2787d04404ff7511b1af7f3",
      "blockNumber": "0x27efb73",
      "gasUsed": "0x639ea",
      "effectiveGasPrice": "0x54c283",
      "blobGasUsed": "0xa6b1",
      "from": "0xf17b5dd382b048ff4c05c1c9e4e24cfc5c6adad9",
      "to": "0xc45f4894f769602e1fdc888c935b294188a98064",
      "contractAddress": null,
      "daFootprintGasScalar": "0x8b",
      "l1BaseFeeScalar": "0x8dd",
      "l1BlobBaseFee": "0x321833",
      "l1BlobBaseFeeScalar": "0x101c12",
      "l1Fee": "0x6731f298",
      "l1GasPrice": "0x38a8534",
      "l1GasUsed": "0x133e"
    },
    {
      "status": "0x1",
      "cumulativeGasUsed": "0x298b90f",
      "logs": [],
      "logsBloom": "0x00000000000000000000000000000000000000000000000000000000000000000000000000000000000000000000000000000000000000000000000000000000000000000000000000000000000000000000000000000000000000000000000000000000000000000000000000000000000000000000000000000000000000000000000000000000000000000000000000000000000000000000000000000000000000000000000000000000000000000000000000000000000000000000000000000000000000000000000000000000000000000000000000000000000000000000000000000000000000000000000000000000000000000000000000000000",
      "type": "0x2",
      "transactionHash": "0x0d0fe1a6f3784b49ee186bde7db481305bdb2875deb6b30e57c86163667c2e26",
      "transactionIndex": "0xb9",
      "blockHash": "0xa745845c664911da4f80951b6e0c8018ec5759f12eb9bb2433f6ff97e4476014",
      "blockNumber": "0x27efb74",
      "gasUsed": "0x5b8a1",
      "effectiveGasPrice": "0x5520a5",
      "blobGasUsed": "0xa2e4",
      "from": "0xf17b5dd382b048ff4c05c1c9e4e24cfc5c6adad9",
      "to": "0xc45f4894f769602e1fdc888c935b294188a98064",
      "contractAddress": null,
      "daFootprintGasScalar": "0x8b",
      "l1BaseFeeScalar": "0x8dd",
      "l1BlobBaseFee": "0x321833",
      "l1BlobBaseFeeScalar": "0x101c12",
      "l1Fee": "0x64ac040a",
      "l1GasPrice": "0x38a8534",
      "l1GasUsed": "0x12c6"
    },
    {
      "status": "0x1",
      "cumulativeGasUsed": "0x2ad499d",
      "logs": [],
      "logsBloom": "0x00000000000000000000000000000000000000000000000000000000000000000000000000000000000000000000000000000000000000000000000000000000000000000000000000000000000000000000000000000000000000000000000000000000000000000000000000000000000000000000000000000000000000000000000000000000000000000000000000000000000000000000000000000000000000000000000000000000000000000000000000000000000000000000000000000000000000000000000000000000000000000000000000000000000000000000000000000000000000000000000000000000000000000000000000000000",
      "type": "0x2",
      "transactionHash": "0xf59151536f34e8a040b96bc04e3883fcf95a73db1255cef0ef6f429ceb6089d1",
      "transactionIndex": "0x8e",
      "blockHash": "0x0000000000000000000000000000000000000000000000000000000000000000",
      "blockNumber": "0x27efb75",
      "gasUsed": "0x5f69e",
      "effectiveGasPrice": "0x5521a6",
      "blobGasUsed": "0xbc69",
      "from": "0xf17b5dd382b048ff4c05c1c9e4e24cfc5c6adad9",
      "to": "0xc45f4894f769602e1fdc888c935b294188a98064",
      "contractAddress": null,
      "daFootprintGasScalar": "0x8b",
      "l1BaseFeeScalar": "0x8dd",
      "l1BlobBaseFee": "0x321833",
      "l1BlobBaseFeeScalar": "0x101c12",
      "l1Fee": "0x507c8f9e",
      "l1GasPrice": "0x38a8534",
      "l1GasUsed": "0x15b3"
    },
    {
      "status": "0x1",
      "cumulativeGasUsed": "0x3aabfac",
      "logs": [],
      "logsBloom": "0x00000000000000000000000000000000000000000000000000000000000000000000000000000000000000000000000000000000000000000000000000000000000000000000000000000000000000000000000000000000000000000000000000000000000000000000000000000000000000000000000000000000000000000000000000000000000000000000000000000000000000000000000000000000000000000000000000000000000000000000000000000000000000000000000000000000000000000000000000000000000000000000000000000000000000000000000000000000000000000000000000000000000000000000000000000000",
      "type": "0x2",
      "transactionHash": "0x6475820d8cfff63aafd3d393eaa2b900e64205dc35d3f837c459d514b18e4b88",
      "transactionIndex": "0xca",
      "blockHash": "0x15082ec001759c71540f3e3e334cec1e71070f2b5edcf5301dc88c21b5a1de2c",
      "blockNumber": "0x27efb76",
      "gasUsed": "0x571c9",
      "effectiveGasPrice": "0x5530e9",
      "blobGasUsed": "0x7ab6",
      "from": "0xf17b5dd382b048ff4c05c1c9e4e24cfc5c6adad9",
      "to": "0xc45f4894f769602e1fdc888c935b294188a98064",
      "contractAddress": null,
      "daFootprintGasScalar": "0x8b",
      "l1BaseFeeScalar": "0x8dd",
      "l1BlobBaseFee": "0x321833",
      "l1BlobBaseFeeScalar": "0x101c12",
      "l1Fee": "0x4c003cdb",
      "l1GasPrice": "0x38a8534",
      "l1GasUsed": "0xe2c"
    },
    {
      "status": "0x1",
      "cumulativeGasUsed": "0x24c41d2",
      "logs": [],
      "logsBloom": "0x00000000000000000000000000000000000000000000000000000000000000000000000000000000000000000000000000000000000000000000000000000000000000000000000000000000000000000000000000000000000000000000000000000000000000000000000000000000000000000000000000000000000000000000000000000000000000000000000000000000000000000000000000000000000000000000000000000000000000000000000000000000000000000000000000000000000000000000000000000000000000000000000000000000000000000000000000000000000000000000000000000000000000000000000000000000",
      "type": "0x2",
      "transactionHash": "0x1ade43d308afb86b2eca8e2a768d85e8bafd3536897e6fbac37d31381fb93e11",
      "transactionIndex": "0xa5",
      "blockHash": "0xba54993580cfb0ba540742e9ffaf5cc47c7f451fe7fa63c163c4197091bd3127",
      "blockNumber": "0x27efb77",
      "gasUsed": "0x66fcf",
      "effectiveGasPrice": "0x5545f8",
      "blobGasUsed": "0xbf20",
      "from": "0xf17b5dd382b048ff4c05c1c9e4e24cfc5c6adad9",
      "to": "0xc45f4894f769602e1fdc888c935b294188a98064",
      "contractAddress": null,
      "daFootprintGasScalar": "0x8b",
      "l1BaseFeeScalar": "0x8dd",
      "l1BlobBaseFee": "0x321833",
      "l1BlobBaseFeeScalar": "0x101c12",
      "l1Fee": "0x507c8f9e",
      "l1GasPrice": "0x38a8534",
      "l1GasUsed": "0x1603"
    },
    {
      "status": "0x1",
      "cumulativeGasUsed": "0x200852c",
      "logs": [],
      "logsBloom": "0x00000000000000000000000000000000000000000000000000000000000000000000000000000000000000000000000000000000000000000000000000000000000000000000000000000000000000000000000000000000000000000000000000000000000000000000000000000000000000000000000000000000000000000000000000000000000000000000000000000000000000000000000000000000000000000000000000000000000000000000000000000000000000000000000000000000000000000000000000000000000000000000000000000000000000000000000000000000000000000000000000000000000000000000000000000000",
      "type": "0x2",
      "transactionHash": "0xefdcfa8f6f36e328e0dfe883ff272b301c43ecf593ead619cf078dcf9c63d8aa",
      "transactionIndex": "0xa1",
      "blockHash": "0xdb6554c89c880e3db314d4274989145e374d4fb708fab2003aa85bf2e7dce0ca",
      "blockNumber": "0x27efb78",
      "gasUsed": "0x5fb18",
      "effectiveGasPrice": "0x554223",
      "blobGasUsed": "0x9fa2",
      "from": "0xf17b5dd382b048ff4c05c1c9e4e24cfc5c6adad9",
      "to": "0xc45f4894f769602e1fdc888c935b294188a98064",
      "contractAddress": null,
      "daFootprintGasScalar": "0x8b",
      "l1BaseFeeScalar": "0x8dd",
      "l1BlobBaseFee": "0x321833",
      "l1BlobBaseFeeScalar": "0x101c12",
      "l1Fee": "0x62b59fd5",
      "l1GasPrice": "0x38a8534",
      "l1GasUsed": "0x1268"
    },
    {
      "status": "0x1",
      "cumulativeGasUsed": "0x2671bb6",
      "logs": [],
      "logsBloom": "0x00000000000000000000000000000000000000000000000000000000000000000000000000000000000000000000000000000000000000000000000000000000000000000000000000000000000000000000000000000000000000000000000000000000000000000000000000000000000000000000000000000000000000000000000000000000000000000000000000000000000000000000000000000000000000000000000000000000000000000000000000000000000000000000000000000000000000000000000000000000000000000000000000000000000000000000000000000000000000000000000000000000000000000000000000000000",
      "type": "0x2",
      "transactionHash": "0x46bba0ac83e6de348c6d4edf9f9893da1cfbf104cfe25a3d336778a3ae8d0174",
      "transactionIndex": "0xa0",
      "blockHash": "0x0000000000000000000000000000000000000000000000000000000000000000",
      "blockNumber": "0x27efb79",
      "gasUsed": "0x59f12",
      "effectiveGasPrice": "0x552fa5",
      "blobGasUsed": "0x8d2c",
      "from": "0xf17b5dd382b048ff4c05c1c9e4e24cfc5c6adad9",
      "to": "0xc45f4894f769602e1fdc888c935b294188a98064",
      "contractAddress": null,
      "daFootprintGasScalar": "0x8b",
      "l1BaseFeeScalar": "0x8dd",
      "l1BlobBaseFee": "0x321833",
      "l1BlobBaseFeeScalar": "0x101c12",
      "l1Fee": "0x53bd335a",
      "l1GasPrice": "0x3ea05ff",
      "l1GasUsed": "0x1043"
    },
    {
      "status": "0x1",
      "cumulativeGasUsed": "0x2587bf8",
      "logs": [],
      "logsBloom": "0x00000000000000000000000000000000000000000000000000000000000000000000000000000000000000000000000000000000000000000000000000000000000000000000000000000000000000000000000000000000000000000000000000000000000000000000000000000000000000000000000000000000000000000000000000000000000000000000000000000000000000000000000000000000000000000000000000000000000000000000000000000000000000000000000000000000000000000000000000000000000000000000000000000000000000000000000000000000000000000000000000000000000000000000000000000000",
      "type": "0x2",
      "transactionHash": "0xbc2711f544f7b666f2fe8cff1040b8b11d6334dd1f512072a69ffa34d4540700",
      "transactionIndex": "0xad",
      "blockHash": "0xc65b8fa738fae7dbdb0412dec4ccc9bbaf269a8b90ecc77fc59ba2e35ea1fe19",
      "blockNumber": "0x27efb7a",
      "gasUsed": "0x5a34f",
      "effectiveGasPrice": "0x552f92",
      "blobGasUsed": "0x8fe3",
      "from": "0xf17b5dd382b048ff4c05c1c9e4e24cfc5c6adad9",
      "to": "0xc45f4894f769602e1fdc888c935b294188a98064",
      "contractAddress": null,
      "daFootprintGasScalar": "0x8b",
      "l1BaseFeeScalar": "0x8dd",
      "l1BlobBaseFee": "0x321833",
      "l1BlobBaseFeeScalar": "0x101c12",
      "l1Fee": "0x53bd335a",
      "l1GasPrice": "0x3ea05ff",
      "l1GasUsed": "0x1093"
    },
    {
      "status": "0x1",
      "cumulativeGasUsed": "0x1c7b30b",
      "logs": [],
      "logsBloom": "0x00000000000000000000000000000000000000000000000000000000000000000000000000000000000000000000000000000000000000000000000000000000000000000000000000000000000000000000000000000000000000000000000000000000000000000000000000000000000000000000000000000000000000000000000000000000000000000000000000000000000000000000000000000000000000000000000000000000000000000000000000000000000000000000000000000000000000000000000000000000000000000000000000000000000000000000000000000000000000000000000000000000000000000000000000000000",
      "type": "0x2",
      "transactionHash": "0x430ac6448b34f02194ba2ef44da3d384a661eab14d63dd85bf6d932cc223343a",
      "transactionIndex": "0x69",
      "blockHash": "0x0000000000000000000000000000000000000000000000000000000000000000",
      "blockNumber": "0x27efb7b",
      "gasUsed": "0x5938d",
      "effectiveGasPrice": "0x5523ed",
      "blobGasUsed": "0x88d4",
      "from": "0xf17b5dd382b048ff4c05c1c9e4e24cfc5c6adad9",
      "to": "0xc45f4894f769602e1fdc888c935b294188a98064",
      "contractAddress": null,
      "daFootprintGasScalar": "0x8b",
      "l1BaseFeeScalar": "0x8dd",
      "l1BlobBaseFee": "0x321833",
      "l1BlobBaseFeeScalar": "0x101c12",
      "l1Fee": "0x53bd335a",
      "l1GasPrice": "0x3ea05ff",
      "l1GasUsed": "0xfcb"
    },
    {
      "status": "0x1",
      "cumulativeGasUsed": "0x23587d3",
      "logs": [],
      "logsBloom": "0x00000000000000000000000000000000000000000000000000000000000000000000000000000000000000000000000000000000000000000000000000000000000000000000000000000000000000000000000000000000000000000000000000000000000000000000000000000000000000000000000000000000000000000000000000000000000000000000000000000000000000000000000000000000000000000000000000000000000000000000000000000000000000000000000000000000000000000000000000000000000000000000000000000000000000000000000000000000000000000000000000000000000000000000000000000000",
      "type": "0x2",
      "transactionHash": "0x0bfa1135c8d2db06e5e1aa5dedaf3404501e233d9e0baa4445c2779634c41ed9",
      "transactionIndex": "0x87",
      "blockHash": "0xb90532fb1115c0566e43ca5ac9f2a979d1ef53d83d192357d56700898cb10c5c",
      "blockNumber": "0x27efb7c",
      "gasUsed": "0x5c1e8",
      "effectiveGasPrice": "0x5519ac",
      "blobGasUsed": "0x7f0e",
      "from": "0xf17b5dd382b048ff4c05c1c9e4e24cfc5c6adad9",
      "to": "0xc45f4894f769602e1fdc888c935b294188a98064",
      "contractAddress": null,
      "daFootprintGasScalar": "0x8b",
      "l1BaseFeeScalar": "0x8dd",
      "l1BlobBaseFee": "0x321833",
      "l1BlobBaseFeeScalar": "0x101c12",
      "l1Fee": "0x53bd335a",
      "l1GasPrice": "0x3ea05ff",
      "l1GasUsed": "0xea4"
    },
    {
      "status": "0x1",
      "cumulativeGasUsed": "0x134aa35",
      "logs": [],
      "logsBloom": "0x00000000000000000000000000000000000000000000000000000000000000000000000000000000000000000000000000000000000000000000000000000000000000000000000000000000000000000000000000000000000000000000000000000000000000000000000000000000000000000000000000000000000000000000000000000000000000000000000000000000000000000000000000000000000000000000000000000000000000000000000000000000000000000000000000000000000000000000000000000000000000000000000000000000000000000000000000000000000000000000000000000000000000000000000000000000",
      "type": "0x2",
      "transactionHash": "0x2aa92fbef732a874887fab93d6634171eb8e3c9e9d3ed4dfbb8cfccdce56842f",
      "transactionIndex": "0x5d",
      "blockHash": "0x0931729bca4fb09fc500ed8c1b09b4df117e90d13afe32004efb60cfde34c005",
      "blockNumber": "0x27efb7d",
      "gasUsed": "0x5f512",
      "effectiveGasPrice": "0x552610",
      "blobGasUsed": "0xb077",
      "from": "0xf17b5dd382b048ff4c05c1c9e4e24cfc5c6adad9",
      "to": "0xc45f4894f769602e1fdc888c935b294188a98064",
      "contractAddress": null,
      "daFootprintGasScalar": "0x8b",
      "l1BaseFeeScalar": "0x8dd",
      "l1BlobBaseFee": "0x321833",
      "l1BlobBaseFeeScalar": "0x101c12",
      "l1Fee": "0x717d96b5",
      "l1GasPrice": "0x3ea05ff",
      "l1GasUsed": "0x1457"
    },
    {
      "status": "0x1",
      "cumulativeGasUsed": "0x1a53281",
      "logs": [],
      "logsBloom": "0x00000000000000000000000000000000000000000000000000000000000000000000000000000000000000000000000000000000000000000000000000000000000000000000000000000000000000000000000000000000000000000000000000000000000000000000000000000000000000000000000000000000000000000000000000000000000000000000000000000000000000000000000000000000000000000000000000000000000000000000000000000000000000000000000000000000000000000000000000000000000000000000000000000000000000000000000000000000000000000000000000000000000000000000000000000000",
      "type": "0x2",
      "transactionHash": "0x0b9756b4c67117f5e77040f240e1444c0783655653f1bfeb1508ef70ac324571",
      "transactionIndex": "0x85",
      "blockHash": "0x06dac7b0e8b31a93a226b649f4f4d1730cb61298d22d4771ef221b032a49d977",
      "blockNumber": "0x27efb7e",
      "gasUsed": "0x64ff8",
      "effectiveGasPrice": "0x54f7f6",
      "blobGasUsed": "0xc519",
      "from": "0xf17b5dd382b048ff4c05c1c9e4e24cfc5c6adad9",
      "to": "0xc45f4894f769602e1fdc888c935b294188a98064",
      "contractAddress": null,
      "daFootprintGasScalar": "0x8b",
      "l1BaseFeeScalar": "0x8dd",
      "l1BlobBaseFee": "0x321833",
      "l1BlobBaseFeeScalar": "0x101c12",
      "l1Fee": "0x53bd335a",
      "l1GasPrice": "0x3ea05ff",
      "l1GasUsed": "0x16bf"
    },
    {
      "status": "0x1",
      "cumulativeGasUsed": "0x2d77dca",
      "logs": [],
      "logsBloom": "0x00000000000000000000000000000000000000000000000000000000000000000000000000000000000000000000000000000000000000000000000000000000000000000000000000000000000000000000000000000000000000000000000000000000000000000000000000000000000000000000000000000000000000000000000000000000000000000000000000000000000000000000000000000000000000000000000000000000000000000000000000000000000000000000000000000000000000000000000000000000000000000000000000000000000000000000000000000000000000000000000000000000000000000000000000000000",
      "type": "0x2",
      "transactionHash": "0x00c02165d637f9104c4038ff61dc9baffce2c013f735a69f2af0d860bed2a057",
      "transactionIndex": "0xe7",
      "blockHash": "0xfdda15b6f893a2cb87ff19a23cf16498ca17c0c5b2f57a36edd3a44f495d0926",
      "blockNumber": "0x27efb7f",
      "gasUsed": "0x61e1d",
      "effectiveGasPrice": "0x54dd02",
      "blobGasUsed": "0x8a75",
      "from": "0xf17b5dd382b048ff4c05c1c9e4e24cfc5c6adad9",
      "to": "0xc45f4894f769602e1fdc888c935b294188a98064",
      "contractAddress": null,
      "daFootprintGasScalar": "0x8b",
      "l1BaseFeeScalar": "0x8dd",
      "l1BlobBaseFee": "0x330a36",
      "l1BlobBaseFeeScalar": "0x101c12",
      "l1Fee": "0x5908037a",
      "l1GasPrice": "0x3cfb0e5",
      "l1GasUsed": "0xff3"
    }
  ],
  "libraries": [],
  "pending": [],
  "returns": {},
  "timestamp": 1770542050332,
  "chain": 8453,
  "commit": "0c27293"
}