{
  "transactions": [
    {
      "hash": "0x7f296df38adc4d0fd7f91d20fc03d9bbdb00bba83f6fcbdee28f824d1c247eb5",
      "transactionType": "CALL",
      "contractName": null,
      "contractAddress": "0xc45f4894f769602e1fdc888c935b294188a98064",
      "function": "addManyBodies(bytes[])",
      "arguments": [
        "[0x151720090e9f019f0ca3019f019f0ca3019f019f01a3019f0aa3019f029f0100019f09a3019f029f0100019f09a3019f029f0100019f09a3019f029f0100019f09a3019f029f0100019f09a3019f029f0100019f09a3019f02a301000ba3, 0x151720090e7101710ca4017101710ca40171017101a401710aa4017102710100017109a4017102710100017109a4017102710100017109a4017102710100017109a4017102710100017109a4017102710100017109a4017102a401000ba4, 0x151720090e7001700ca5017001700ca50170017001a501700aa5017002700100017009a5017002700100017009a5017002700100017009a5017002700100017009a5017002700100017009a5017002700100017009a5017002a501000ba5, 0x151720090e9f019f0c9d019f019f0c9d019f019f019d019f0a9d019f029f0100019f099d019f029f0100019f099d019f029f0100019f099d019f029f0100019f099d019f029f0100019f099d019f029f0100019f099d019f029d01000b9d, 0x151720090eac01ac0c9e01ac01ac0c9e01ac01ac019e01ac0a9e01ac02ac010001ac099e01ac02ac010001ac099e01ac02ac010001ac099e01ac02ac010001ac099e01ac02ac010001ac099e01ac02ac010001ac099e01ac029e01000b9e]"
      ],
      "transaction": {
        "from": "0xf17b5dd382b048ff4c05c1c9e4e24cfc5c6adad9",
        "to": "0xc45f4894f769602e1fdc888c935b294188a98064",
        "gas": "0x9ad70",
        "value": "0x0",
        "input": "0x8a85a1e80000000000000000000000000000000000000000000000000000000000000020000000000000000000000000000000000000000000000000000000000000000500000000000000000000000000000000000000000000000000000000000000a0000000000000000000000000000000000000000000000000000000000000012000000000000000000000000000000000000000000000000000000000000001a0000000000000000000000000000000000000000000000000000000000000022000000000000000000000000000000000000000000000000000000000000002a0000000000000000000000000000000000000000000000000000000000000005e151720090e9f019f0ca3019f019f0ca3019f019f01a3019f0aa3019f029f0100019f09a3019f029f0100019f09a3019f029f0100019f09a3019f029f0100019f09a3019f029f0100019f09a3019f029f0100019f09a3019f02a301000ba30000000000000000000000000000000000000000000000000000000000000000005e151720090e7101710ca4017101710ca40171017101a401710aa4017102710100017109a4017102710100017109a4017102710100017109a4017102710100017109a4017102710100017109a4017102710100017109a4017102a401000ba40000000000000000000000000000000000000000000000000000000000000000005e151720090e7001700ca5017001700ca50170017001a501700aa5017002700100017009a5017002700100017009a5017002700100017009a5017002700100017009a5017002700100017009a5017002700100017009a5017002a501000ba50000000000000000000000000000000000000000000000000000000000000000005e151720090e9f019f0c9d019f019f0c9d019f019f019d019f0a9d019f029f0100019f099d019f029f0100019f099d019f029f0100019f099d019f029f0100019f099d019f029f0100019f099d019f029f0100019f099d019f029d01000b9d0000000000000000000000000000000000000000000000000000000000000000005e151720090eac01ac0c9e01ac01ac0c9e01ac01ac019e01ac0a9e01ac02ac010001ac099e01ac02ac010001ac099e01ac02ac010001ac099e01ac02ac010001ac099e01ac02ac010001ac099e01ac02ac010001ac099e01ac029e01000b9e0000",
        "nonce": "0x1b",
        "chainId": "0x2105"
      },
      "additionalContracts": [
        {
          "transactionType": "CREATE",
          "contractName": null,
          "address": "0xc16e746ccb6de9c610e4bcf50026a26439b6bfad",
          "initCode": "0x61005f80600c6000396000f300151720090e9f019f0ca3019f019f0ca3019f019f01a3019f0aa3019f029f0100019f09a3019f029f0100019f09a3019f029f0100019f09a3019f029f0100019f09a3019f029f0100019f09a3019f029f0100019f09a3019f02a301000ba3"
        },
        {
          "transactionType": "CREATE",
          "contractName": null,
          "address": "0x5ba4ed235147b45668526c6d471d916823a1ec81",
          "initCode": "0x61005f80600c6000396000f300151720090e7101710ca4017101710ca40171017101a401710aa4017102710100017109a4017102710100017109a4017102710100017109a4017102710100017109a4017102710100017109a4017102710100017109a4017102a401000ba4"
        },
        {
          "transactionType": "CREATE",
          "contractName": null,
          "address": "0xb50cb15c33ea1b522ccb85e13b96e110a9ef212d",
          "initCode": "0x61005f80600c6000396000f300151720090e7001700ca5017001700ca50170017001a501700aa5017002700100017009a5017002700100017009a5017002700100017009a5017002700100017009a5017002700100017009a5017002700100017009a5017002a501000ba5"
        },
        {
          "transactionType": "CREATE",
          "contractName": null,
          "address": "0x9afa1f71fbe5fac8a055754d852f3350276cd239",
          "initCode": "0x61005f80600c6000396000f300151720090e9f019f0c9d019f019f0c9d019f019f019d019f0a9d019f029f0100019f099d019f029f0100019f099d019f029f0100019f099d019f029f0100019f099d019f029f0100019f099d019f029f0100019f099d019f029d01000b9d"
        },
        {
          "transactionType": "CREATE",
          "contractName": null,
          "address": "0xf4f70cbfa517a458def23adeb63b35625ac07961",
          "initCode": "0x61005f80600c6000396000f300151720090eac01ac0c9e01ac01ac0c9e01ac01ac019e01ac0a9e01ac02ac010001ac099e01ac02ac010001ac099e01ac02ac010001ac099e01ac02ac010001ac099e01ac02ac010001ac099e01ac02ac010001ac099e01ac029e01000b9e"
        }
      ],
      "isFixedGasLimit": false
    },
    {
      "hash": "0x2c582a23ba948d82ab963c8c825d88494ea1d36e1c2f6696fe503941d2262541",
      "transactionType": "CALL",
      "contractName": null,
      "contractAddress": "0xc45f4894f769602e1fdc888c935b294188a98064",
      "function": "addManyBodies(bytes[])",
      "arguments": [
        "[0x151720090e7001700ca6017001700ca60170017001a601700aa6017002700100017009a6017002700100017009a6017002700100017009a6017002700100017009a6017002700100017009a6017002700100017009a6017002a601000ba6, 0x151720090e7101710ca7017101710ca70171017101a701710aa7017102710100017109a7017102710100017109a7017102710100017109a7017102710100017109a7017102710100017109a7017102710100017109a7017102a701000ba7, 0x151720090e7201720c9a017201720c9a01720172019a01720a9a0172027201000172099a0172027201000172099a0172027201000172099a0172027201000172099a0172027201000172099a0172027201000172099a0172029a01000b9a, 0x151720090eb001b00ca801b001b00ca801b001b001a801b00aa801b002b0010001b009a801b002b0010001b009a801b002b0010001b009a801b002b0010001b009a801b002b0010001b009a801b002b0010001b009a801b002a801000ba8, 0x151720090eaf01af0ca901af01af0ca901af01af01a901af0aa901af02af010001af09a901af02af010001af09a901af02af010001af09a901af02af010001af09a901af02af010001af09a901af02af010001af09a901af02a901000ba9]"
      ],
      "transaction": {
        "from": "0xf17b5dd382b048ff4c05c1c9e4e24cfc5c6adad9",
        "to": "0xc45f4894f769602e1fdc888c935b294188a98064",
        "gas": "0x8c789",
        "value": "0x0",
        "input": "0x8a85a1e80000000000000000000000000000000000000000000000000000000000000020000000000000000000000000000000000000000000000000000000000000000500000000000000000000000000000000000000000000000000000000000000a0000000000000000000000000000000000000000000000000000000000000012000000000000000000000000000000000000000000000000000000000000001a0000000000000000000000000000000000000000000000000000000000000022000000000000000000000000000000000000000000000000000000000000002a0000000000000000000000000000000000000000000000000000000000000005e151720090e7001700ca6017001700ca60170017001a601700aa6017002700100017009a6017002700100017009a6017002700100017009a6017002700100017009a6017002700100017009a6017002700100017009a6017002a601000ba60000000000000000000000000000000000000000000000000000000000000000005e151720090e7101710ca7017101710ca70171017101a701710aa7017102710100017109a7017102710100017109a7017102710100017109a7017102710100017109a7017102710100017109a7017102710100017109a7017102a701000ba70000000000000000000000000000000000000000000000000000000000000000005e151720090e7201720c9a017201720c9a01720172019a01720a9a0172027201000172099a0172027201000172099a0172027201000172099a0172027201000172099a0172027201000172099a0172027201000172099a0172029a01000b9a0000000000000000000000000000000000000000000000000000000000000000005e151720090eb001b00ca801b001b00ca801b001b001a801b00aa801b002b0010001b009a801b002b0010001b009a801b002b0010001b009a801b002b0010001b009a801b002b0010001b009a801b002b0010001b009a801b002a801000ba80000000000000000000000000000000000000000000000000000000000000000005e151720090eaf01af0ca901af01af0ca901af01af01a901af0aa901af02af010001af09a901af02af010001af09a901af02af010001af09a901af02af010001af09a901af02af010001af09a901af02af010001af09a901af02a901000ba90000",
        "nonce": "0x1c",
        "chainId": "0x2105"
      },
      "additionalContracts": [
        {
          "transactionType": "CREATE",
          "contractName": null,
          "address": "0x06cfa0ba05075845db69e98fca58357cd3d70848",
          "initCode": "0x61005f80600c6000396000f300151720090e7001700ca6017001700ca60170017001a601700aa6017002700100017009a6017002700100017009a6017002700100017009a6017002700100017009a6017002700100017009a6017002700100017009a6017002a601000ba6"
        },
        {
          "transactionType": "CREATE",
          "contractName": null,
          "address": "0x021f5c8d2c3aff3fc75edffbf1aaaca7deb865a4",
          "initCode": "0x61005f80600c6000396000f300151720090e7101710ca7017101710ca70171017101a701710aa7017102710100017109a7017102710100017109a7017102710100017109a7017102710100017109a7017102710100017109a7017102710100017109a7017102a701000ba7"
        },
        {
          "transactionType": "CREATE",
          "contractName": null,
          "address": "0x10dc246bad926f0441b2dc6cc33206de3c53a207",
          "initCode": "0x61005f80600c6000396000f300151720090e7201720c9a017201720c9a01720172019a01720a9a0172027201000172099a0172027201000172099a0172027201000172099a0172027201000172099a0172027201000172099a0172027201000172099a0172029a01000b9a"
        },
        {
          "transactionType": "CREATE",
          "contractName": null,
          "address": "0x99b6001c521b7a730d8841e87619ba915171512d",
          "initCode": "0x61005f80600c6000396000f300151720090eb001b00ca801b001b00ca801b001b001a801b00aa801b002b0010001b009a801b002b0010001b009a801b002b0010001b009a801b002b0010001b009a801b002b0010001b009a801b002b0010001b009a801b002a801000ba8"
        },
        {
          "transactionType": "CREATE",
          "contractName": null,
          "address": "0x3ac3ba454daaae7528d3f587e576d1e4fe9f4c6a",
          "initCode": "0x61005f80600c6000396000f300151720090eaf01af0ca901af01af0ca901af01af01a901af0aa901af02af010001af09a901af02af010001af09a901af02af010001af09a901af02af010001af09a901af02af010001af09a901af02af010001af09a901af02a901000ba9"
        }
      ],
      "isFixedGasLimit": false
    },
    {
      "hash": "0xc965375809e242717e401bd7cdbede7c52ec6e677223fa50b99bd8d2dffddc8f",
      "transactionType": "CALL",
      "contractName": null,
      "contractAddress": "0xc45f4894f769602e1fdc888c935b294188a98064",
      "function": "addManyBodies(bytes[])",
      "arguments": [
        "[0x151720090eb101b10c9b01b101b10c9b01b101b1019b01b10a9b01b102b1010001b1099b01b102b1010001b1099b01b102b1010001b1099b01b102b1010001b1099b01b102b1010001b1099b01b102b1010001b1099b01b1029b01000b9b, 0x151720090ec701c70caa01c701c70caa01c701c701aa01c70aaa01c702c7010001c709aa01c702c7010001c709aa01c702c7010001c709aa01c702c7010001c709aa01c702c7010001c709aa01c702c7010001c709aa01c702aa01000baa, 0x151720090eae01ae0c9f01ae01ae0c9f01ae01ae019f01ae0a9f01ae02ae010001ae099f01ae02ae010001ae099f01ae02ae010001ae099f01ae02ae010001ae099f01ae02ae010001ae099f01ae02ae010001ae099f01ae029f01000b9f, 0x151720090ec701c70ca001c701c70ca001c701c701a001c70aa001c702c7010001c709a001c702c7010001c709a001c702c7010001c709a001c702c7010001c709a001c702c7010001c709a001c702c7010001c709a001c702a001000ba0, 0x151720090e7301730cab017301730cab0173017301ab01730aab017302730100017309ab017302730100017309ab017302730100017309ab017302730100017309ab017302730100017309ab017302730100017309ab017302ab01000bab]"
      ],
      "transaction": {
        "from": "0xf17b5dd382b048ff4c05c1c9e4e24cfc5c6adad9",
        "to": "0xc45f4894f769602e1fdc888c935b294188a98064",
        "gas": "0x8c789",
        "value": "0x0",
        "input": "0x8a85a1e80000000000000000000000000000000000000000000000000000000000000020000000000000000000000000000000000000000000000000000000000000000500000000000000000000000000000000000000000000000000000000000000a0000000000000000000000000000000000000000000000000000000000000012000000000000000000000000000000000000000000000000000000000000001a0000000000000000000000000000000000000000000000000000000000000022000000000000000000000000000000000000000000000000000000000000002a0000000000000000000000000000000000000000000000000000000000000005e151720090eb101b10c9b01b101b10c9b01b101b1019b01b10a9b01b102b1010001b1099b01b102b1010001b1099b01b102b1010001b1099b01b102b1010001b1099b01b102b1010001b1099b01b102b1010001b1099b01b1029b01000b9b0000000000000000000000000000000000000000000000000000000000000000005e151720090ec701c70caa01c701c70caa01c701c701aa01c70aaa01c702c7010001c709aa01c702c7010001c709aa01c702c7010001c709aa01c702c7010001c709aa01c702c7010001c709aa01c702c7010001c709aa01c702aa01000baa0000000000000000000000000000000000000000000000000000000000000000005e151720090eae01ae0c9f01ae01ae0c9f01ae01ae019f01ae0a9f01ae02ae010001ae099f01ae02ae010001ae099f01ae02ae010001ae099f01ae02ae010001ae099f01ae02ae010001ae099f01ae02ae010001ae099f01ae029f01000b9f0000000000000000000000000000000000000000000000000000000000000000005e151720090ec701c70ca001c701c70ca001c701c701a001c70aa001c702c7010001c709a001c702c7010001c709a001c702c7010001c709a001c702c7010001c709a001c702c7010001c709a001c702c7010001c709a001c702a001000ba00000000000000000000000000000000000000000000000000000000000000000005e151720090e7301730cab017301730cab0173017301ab01730aab017302730100017309ab017302730100017309ab017302730100017309ab017302730100017309ab017302730100017309ab017302730100017309ab017302ab01000bab0000",
        "nonce": "0x1d",
        "chainId": "0x2105"
      },
      "additionalContracts": [
        {
          "transactionType": "CREATE",
          "contractName": null,
          "address": "0xe49a8d510e2ca6cfddf06c1aaed1cbc9d4b333c4",
          "initCode": "0x61005f80600c6000396000f300151720090eb101b10c9b01b101b10c9b01b101b1019b01b10a9b01b102b1010001b1099b01b102b1010001b1099b01b102b1010001b1099b01b102b1010001b1099b01b102b1010001b1099b01b102b1010001b1099b01b1029b01000b9b"
        },
        {
          "transactionType": "CREATE",
          "contractName": null,
          "address": "0x8d5b2c89fc79e96a3991c6af5925dfdaaacaadbc",
          "initCode": "0x61005f80600c6000396000f300151720090ec701c70caa01c701c70caa01c701c701aa01c70aaa01c702c7010001c709aa01c702c7010001c709aa01c702c7010001c709aa01c702c7010001c709aa01c702c7010001c709aa01c702c7010001c709aa01c702aa01000baa"
        },
        {
          "transactionType": "CREATE",
          "contractName": null,
          "address": "0xc7d7a81d19cbe6072b96653647946308d91aea14",
          "initCode": "0x61005f80600c6000396000f300151720090eae01ae0c9f01ae01ae0c9f01ae01ae019f01ae0a9f01ae02ae010001ae099f01ae02ae010001ae099f01ae02ae010001ae099f01ae02ae010001ae099f01ae02ae010001ae099f01ae02ae010001ae099f01ae029f01000b9f"
        },
        {
          "transactionType": "CREATE",
          "contractName": null,
          "address": "0xa9e3968cc005144c0d20250763743c4422e70c14",
          "initCode": "0x61005f80600c6000396000f300151720090ec701c70ca001c701c70ca001c701c701a001c70aa001c702c7010001c709a001c702c7010001c709a001c702c7010001c709a001c702c7010001c709a001c702c7010001c709a001c702c7010001c709a001c702a001000ba0"
        },
        {
          "transactionType": "CREATE",
          "contractName": null,
          "address": "0x390afa467e233116a50be0a8a2ed6dcb90070f60",
          "initCode": "0x61005f80600c6000396000f300151720090e7301730cab017301730cab0173017301ab01730aab017302730100017309ab017302730100017309ab017302730100017309ab017302730100017309ab017302730100017309ab017302730100017309ab017302ab01000bab"
        }
      ],
      "isFixedGasLimit": false
    },
    {
      "hash": "0xaaf8b43c80b087c414fbc57c94f91bbfdcd5aecdc3591f48e3b4cb61b35a58ca",
      "transactionType": "CALL",
      "contractName": null,
      "contractAddress": "0xc45f4894f769602e1fdc888c935b294188a98064",
      "function": "addManyBodies(bytes[])",
      "arguments": [
        "[0x151720090eb101b10c7001b101b10c7001b101b1017001b10a7001b102b1010001b1097001b102b1010001b1097001b102b1010001b1097001b102b1010001b1097001b102b1010001b1097001b102b1010001b1097001b1027001000b70, 0x151720090eb301b30c7101b301b30c7101b301b3017101b30a7101b302b3010001b3097101b302b3010001b3097101b302b3010001b3097101b302b3010001b3097101b302b3010001b3097101b302b3010001b3097101b3027101000b71, 0x151720090eb401b40c7201b401b40c7201b401b4017201b40a7201b402b4010001b4097201b402b4010001b4097201b402b4010001b4097201b402b4010001b4097201b402b4010001b4097201b402b4010001b4097201b4027201000b72, 0x151720090e1601160ca1011601160ca10116011601a101160aa1011602160100011609a1011602160100011609a1011602160100011609a1011602160100011609a1011602160100011609a1011602160100011609a1011602a101000ba1, 0x151720090e8401840cac018401840cac0184018401ac01840aac018402840100018409ac018402840100018409ac018402840100018409ac018402840100018409ac018402840100018409ac018402840100018409ac018402ac01000bac]"
      ],
      "transaction": {
        "from": "0xf17b5dd382b048ff4c05c1c9e4e24cfc5c6adad9",
        "to": "0xc45f4894f769602e1fdc888c935b294188a98064",
        "gas": "0x8c789",
        "value": "0x0",
        "input": "0x8a85a1e80000000000000000000000000000000000000000000000000000000000000020000000000000000000000000000000000000000000000000000000000000000500000000000000000000000000000000000000000000000000000000000000a0000000000000000000000000000000000000000000000000000000000000012000000000000000000000000000000000000000000000000000000000000001a0000000000000000000000000000000000000000000000000000000000000022000000000000000000000000000000000000000000000000000000000000002a0000000000000000000000000000000000000000000000000000000000000005e151720090eb101b10c7001b101b10c7001b101b1017001b10a7001b102b1010001b1097001b102b1010001b1097001b102b1010001b1097001b102b1010001b1097001b102b1010001b1097001b102b1010001b1097001b1027001000b700000000000000000000000000000000000000000000000000000000000000000005e151720090eb301b30c7101b301b30c7101b301b3017101b30a7101b302b3010001b3097101b302b3010001b3097101b302b3010001b3097101b302b3010001b3097101b302b3010001b3097101b302b3010001b3097101b3027101000b710000000000000000000000000000000000000000000000000000000000000000005e151720090eb401b40c7201b401b40c7201b401b4017201b40a7201b402b4010001b4097201b402b4010001b4097201b402b4010001b4097201b402b4010001b4097201b402b4010001b4097201b402b4010001b4097201b4027201000b720000000000000000000000000000000000000000000000000000000000000000005e151720090e1601160ca1011601160ca10116011601a101160aa1011602160100011609a1011602160100011609a1011602160100011609a1011602160100011609a1011602160100011609a1011602160100011609a1011602a101000ba10000000000000000000000000000000000000000000000000000000000000000005e151720090e8401840cac018401840cac0184018401ac01840aac018402840100018409ac018402840100018409ac018402840100018409ac018402840100018409ac018402840100018409ac018402840100018409ac018402ac01000bac0000",
        "nonce": "0x1e",
        "chainId": "0x2105"
      },
      "additionalContracts": [
        {
          "transactionType": "CREATE",
          "contractName": null,
          "address": "0x2897578cc6ac960c78d21550c90c5d3815073370",
          "initCode": "0x61005f80600c6000396000f300151720090eb101b10c7001b101b10c7001b101b1017001b10a7001b102b1010001b1097001b102b1010001b1097001b102b1010001b1097001b102b1010001b1097001b102b1010001b1097001b102b1010001b1097001b1027001000b70"
        },
        {
          "transactionType": "CREATE",
          "contractName": null,
          "address": "0x9f169a84befdf79899a0603b2cca31903648f4d6",
          "initCode": "0x61005f80600c6000396000f300151720090eb301b30c7101b301b30c7101b301b3017101b30a7101b302b3010001b3097101b302b3010001b3097101b302b3010001b3097101b302b3010001b3097101b302b3010001b3097101b302b3010001b3097101b3027101000b71"
        },
        {
          "transactionType": "CREATE",
          "contractName": null,
          "address": "0xd1183459bb7d3b00cf0cfc6c3c7847a4bdb07093",
          "initCode": "0x61005f80600c6000396000f300151720090eb401b40c7201b401b40c7201b401b4017201b40a7201b402b4010001b4097201b402b4010001b4097201b402b4010001b4097201b402b4010001b4097201b402b4010001b4097201b402b4010001b4097201b4027201000b72"
        },
        {
          "transactionType": "CREATE",
          "contractName": null,
          "address": "0xf30a9d43f32109d198cfb4f2e663846103eb890a",
          "initCode": "0x61005f80600c6000396000f300151720090e1601160ca1011601160ca10116011601a101160aa1011602160100011609a1011602160100011609a1011602160100011609a1011602160100011609a1011602160100011609a1011602160100011609a1011602a101000ba1"
        },
        {
          "transactionType": "CREATE",
          "contractName": null,
          "address": "0x3b75b8d135d50566b6729213422b238ec8316907",
          "initCode": "0x61005f80600c6000396000f300151720090e8401840cac018401840cac0184018401ac01840aac018402840100018409ac018402840100018409ac018402840100018409ac018402840100018409ac018402840100018409ac018402840100018409ac018402ac01000bac"
        }
      ],
      "isFixedGasLimit": false
    },
    {
      "hash": "0xedadbf31846873ce5bf9936fede87c0c1e06733cc3616a65783abdf35c995144",
      "transactionType": "CALL",
      "contractName": null,
      "contractAddress": "0xc45f4894f769602e1fdc888c935b294188a98064",
      "function": "addManyBodies(bytes[])",
      "arguments": [
        "[0x151720090e4201420cad014201420cad0142014201ad01420aad014202420100014209ad014202420100014209ad014202420100014209ad014202420100014209ad014202420100014209ad014202420100014209ad014202ad01000bad, 0x151720090e8101810cae018101810cae0181018101ae01810aae018102810100018109ae018102810100018109ae018102810100018109ae018102810100018109ae018102810100018109ae018102810100018109ae018102ae01000bae, 0x151720090e1f011f0caf011f011f0caf011f011f01af011f0aaf011f021f0100011f09af011f021f0100011f09af011f021f0100011f09af011f021f0100011f09af011f021f0100011f09af011f021f0100011f09af011f02af01000baf, 0x151720090e4201420cb0014201420cb00142014201b001420ab0014202420100014209b0014202420100014209b0014202420100014209b0014202420100014209b0014202420100014209b0014202420100014209b0014202b001000bb0, 0x151720090e8101810c73018101810c7301810181017301810a730181028101000181097301810281010001810973018102810100018109730181028101000181097301810281010001810973018102810100018109730181027301000b73]"
      ],
      "transaction": {
        "from": "0xf17b5dd382b048ff4c05c1c9e4e24cfc5c6adad9",
        "to": "0xc45f4894f769602e1fdc888c935b294188a98064",
        "gas": "0x8c789",
        "value": "0x0",
        "input": "0x8a85a1e80000000000000000000000000000000000000000000000000000000000000020000000000000000000000000000000000000000000000000000000000000000500000000000000000000000000000000000000000000000000000000000000a0000000000000000000000000000000000000000000000000000000000000012000000000000000000000000000000000000000000000000000000000000001a0000000000000000000000000000000000000000000000000000000000000022000000000000000000000000000000000000000000000000000000000000002a0000000000000000000000000000000000000000000000000000000000000005e151720090e4201420cad014201420cad0142014201ad01420aad014202420100014209ad014202420100014209ad014202420100014209ad014202420100014209ad014202420100014209ad014202420100014209ad014202ad01000bad0000000000000000000000000000000000000000000000000000000000000000005e151720090e8101810cae018101810cae0181018101ae01810aae018102810100018109ae018102810100018109ae018102810100018109ae018102810100018109ae018102810100018109ae018102810100018109ae018102ae01000bae0000000000000000000000000000000000000000000000000000000000000000005e151720090e1f011f0caf011f011f0caf011f011f01af011f0aaf011f021f0100011f09af011f021f0100011f09af011f021f0100011f09af011f021f0100011f09af011f021f0100011f09af011f021f0100011f09af011f02af01000baf0000000000000000000000000000000000000000000000000000000000000000005e151720090e4201420cb0014201420cb00142014201b001420ab0014202420100014209b0014202420100014209b0014202420100014209b0014202420100014209b0014202420100014209b0014202420100014209b0014202b001000bb00000000000000000000000000000000000000000000000000000000000000000005e151720090e8101810c73018101810c7301810181017301810a730181028101000181097301810281010001810973018102810100018109730181028101000181097301810281010001810973018102810100018109730181027301000b730000",
        "nonce": "0x1f",
        "chainId": "0x2105"
      },
      "additionalContracts": [
        {
          "transactionType": "CREATE",
          "contractName": null,
          "address": "0xfb27e6a02aecb1fabe33e8d7a7adcfc2f6944512",
          "initCode": "0x61005f80600c6000396000f300151720090e4201420cad014201420cad0142014201ad01420aad014202420100014209ad014202420100014209ad014202420100014209ad014202420100014209ad014202420100014209ad014202420100014209ad014202ad01000bad"
        },
        {
          "transactionType": "CREATE",
          "contractName": null,
          "address": "0xa27587450a2d924faeded574d5567be4d2b0fafd",
          "initCode": "0x61005f80600c6000396000f300151720090e8101810cae018101810cae0181018101ae01810aae018102810100018109ae018102810100018109ae018102810100018109ae018102810100018109ae018102810100018109ae018102810100018109ae018102ae01000bae"
        },
        {
          "transactionType": "CREATE",
          "contractName": null,
          "address": "0xa2ccc05bfbf1439dcc77f3adf7aa8837bd493a44",
          "initCode": "0x61005f80600c6000396000f300151720090e1f011f0caf011f011f0caf011f011f01af011f0aaf011f021f0100011f09af011f021f0100011f09af011f021f0100011f09af011f021f0100011f09af011f021f0100011f09af011f021f0100011f09af011f02af01000baf"
        },
        {
          "transactionType": "CREATE",
          "contractName": null,
          "address": "0x7c560dffd0e4b028a1b57092df8efa3e0d68951f",
          "initCode": "0x61005f80600c6000396000f300151720090e4201420cb0014201420cb00142014201b001420ab0014202420100014209b0014202420100014209b0014202420100014209b0014202420100014209b0014202420100014209b0014202420100014209b0014202b001000bb0"
        },
        {
          "transactionType": "CREATE",
          "contractName": null,
          "address": "0x2bb6d7c5db4cacdf8f950f1b88c879bfffa88874",
          "initCode": "0x61005f80600c6000396000f300151720090e8101810c73018101810c7301810181017301810a730181028101000181097301810281010001810973018102810100018109730181028101000181097301810281010001810973018102810100018109730181027301000b73"
        }
      ],
      "isFixedGasLimit": false
    },
    {
      "hash": "0xf17c4cc14f0be76f5ecc343e18e8384bf31575b079153252fc3c478e34d476b9",
      "transactionType": "CALL",
      "contractName": null,
      "contractAddress": "0xc45f4894f769602e1fdc888c935b294188a98064",
      "function": "addManyBodies(bytes[])",
      "arguments": [
        "[0x151720090e0601060cb1010601060cb10106010601b101060ab1010602060100010609b1010602060100010609b1010602060100010609b1010602060100010609b1010602060100010609b1010602060100010609b1010602b101000bb1, 0x151720090e7e017e0cb2017e017e0cb2017e017e01b2017e0ab2017e027e0100017e09b2017e027e0100017e09b2017e027e0100017e09b2017e027e0100017e09b2017e027e0100017e09b2017e027e0100017e09b2017e02b201000bb2, 0x151720090e0401040cb3010401040cb30104010401b301040ab3010402040100010409b3010402040100010409b3010402040100010409b3010402040100010409b3010402040100010409b3010402040100010409b3010402b301000bb3, 0x151720090e4001400cb4014001400cb40140014001b401400ab4014002400100014009b4014002400100014009b4014002400100014009b4014002400100014009b4014002400100014009b4014002400100014009b4014002b401000bb4, 0x151720090e0c010c0cb5010c010c0cb5010c010c01b5010c0ab5010c020c0100010c09b5010c020c0100010c09b5010c020c0100010c09b5010c020c0100010c09b5010c020c0100010c09b5010c020c0100010c09b5010c02b501000bb5]"
      ],
      "transaction": {
        "from": "0xf17b5dd382b048ff4c05c1c9e4e24cfc5c6adad9",
        "to": "0xc45f4894f769602e1fdc888c935b294188a98064",
        "gas": "0x8c789",
        "value": "0x0",
        "input": "0x8a85a1e80000000000000000000000000000000000000000000000000000000000000020000000000000000000000000000000000000000000000000000000000000000500000000000000000000000000000000000000000000000000000000000000a0000000000000000000000000000000000000000000000000000000000000012000000000000000000000000000000000000000000000000000000000000001a0000000000000000000000000000000000000000000000000000000000000022000000000000000000000000000000000000000000000000000000000000002a0000000000000000000000000000000000000000000000000000000000000005e151720090e0601060cb1010601060cb10106010601b101060ab1010602060100010609b1010602060100010609b1010602060100010609b1010602060100010609b1010602060100010609b1010602060100010609b1010602b101000bb10000000000000000000000000000000000000000000000000000000000000000005e151720090e7e017e0cb2017e017e0cb2017e017e01b2017e0ab2017e027e0100017e09b2017e027e0100017e09b2017e027e0100017e09b2017e027e0100017e09b2017e027e0100017e09b2017e027e0100017e09b2017e02b201000bb20000000000000000000000000000000000000000000000000000000000000000005e151720090e0401040cb3010401040cb30104010401b301040ab3010402040100010409b3010402040100010409b3010402040100010409b3010402040100010409b3010402040100010409b3010402040100010409b3010402b301000bb30000000000000000000000000000000000000000000000000000000000000000005e151720090e4001400cb4014001400cb40140014001b401400ab4014002400100014009b4014002400100014009b4014002400100014009b4014002400100014009b4014002400100014009b4014002400100014009b4014002b401000bb40000000000000000000000000000000000000000000000000000000000000000005e151720090e0c010c0cb5010c010c0cb5010c010c01b5010c0ab5010c020c0100010c09b5010c020c0100010c09b5010c020c0100010c09b5010c020c0100010c09b5010c020c0100010c09b5010c020c0100010c09b5010c02b501000bb50000",
        "nonce": "0x20",
        "chainId": "0x2105"
      },
      "additionalContracts": [
        {
          "transactionType": "CREATE",
          "contractName": null,
          "address": "0xd8f3341685871d4ac22d60113b7d9d43e48e3d0d",
          "initCode": "0x61005f80600c6000396000f300151720090e0601060cb1010601060cb10106010601b101060ab1010602060100010609b1010602060100010609b1010602060100010609b1010602060100010609b1010602060100010609b1010602060100010609b1010602b101000bb1"
        },
        {
          "transactionType": "CREATE",
          "contractName": null,
          "address": "0x1389983d9bb068b14ce992a1a95dbec908e96ede",
          "initCode": "0x61005f80600c6000396000f300151720090e7e017e0cb2017e017e0cb2017e017e01b2017e0ab2017e027e0100017e09b2017e027e0100017e09b2017e027e0100017e09b2017e027e0100017e09b2017e027e0100017e09b2017e027e0100017e09b2017e02b201000bb2"
        },
        {
          "transactionType": "CREATE",
          "contractName": null,
          "address": "0x491d2f48f4f2ce3612e519e4c6be9743e761421b",
          "initCode": "0x61005f80600c6000396000f300151720090e0401040cb3010401040cb30104010401b301040ab3010402040100010409b3010402040100010409b3010402040100010409b3010402040100010409b3010402040100010409b3010402040100010409b3010402b301000bb3"
        },
        {
          "transactionType": "CREATE",
          "contractName": null,
          "address": "0xa96d1645d6044cd2bf7f717c297aeae84d229df1",
          "initCode": "0x61005f80600c6000396000f300151720090e4001400cb4014001400cb40140014001b401400ab4014002400100014009b4014002400100014009b4014002400100014009b4014002400100014009b4014002400100014009b4014002400100014009b4014002b401000bb4"
        },
        {
          "transactionType": "CREATE",
          "contractName": null,
          "address": "0x1d4399e405475c3fdf7a5424c560130040ae005d",
          "initCode": "0x61005f80600c6000396000f300151720090e0c010c0cb5010c010c0cb5010c010c01b5010c0ab5010c020c0100010c09b5010c020c0100010c09b5010c020c0100010c09b5010c020c0100010c09b5010c020c0100010c09b5010c020c0100010c09b5010c02b501000bb5"
        }
      ],
      "isFixedGasLimit": false
    }
  ],
  "receipts": [
    {
      "status": "0x1",
      "cumulativeGasUsed": "0x41038e6",
      "logs": [],
      "logsBloom": "0x00000000000000000000000000000000000000000000000000000000000000000000000000000000000000000000000000000000000000000000000000000000000000000000000000000000000000000000000000000000000000000000000000000000000000000000000000000000000000000000000000000000000000000000000000000000000000000000000000000000000000000000000000000000000000000000000000000000000000000000000000000000000000000000000000000000000000000000000000000000000000000000000000000000000000000000000000000000000000000000000000000000000000000000000000000000",
      "type": "0x2",
      "transactionHash": "0x7f296df38adc4d0fd7f91d20fc03d9bbdb00bba83f6fcbdee28f824d1c247eb5",
      "transactionIndex": "0x123",
      "blockHash": "0xbaa8ec1d25a9f8fd348beb5eaa2aa46bcb02b72a49add0fe3b209c494e61f594",
      "blockNumber": "0x27efacb",
      "gasUsed": "0x69dfa",
      "effectiveGasPrice": "0x44b7d4",
      "blobGasUsed": "0x906e",
      "from": "0xf17b5dd382b048ff4c05c1c9e4e24cfc5c6adad9",
      "to": "0xc45f4894f769602e1fdc888c935b294188a98064",
      "contractAddress": null,
      "daFootprintGasScalar": "0x8b",
      "l1BaseFeeScalar": "0x8dd",
      "l1BlobBaseFee": "0x2c1d3c",
      "l1BlobBaseFeeScalar": "0x101c12",
      "l1Fee": "0x4dea6490",
      "l1GasPrice": "0x30dfac1",
      "l1GasUsed": "0x10a1"
    },
    {
      "status": "0x1",
      "cumulativeGasUsed": "0x52d76d4",
      "logs": [],
      "logsBloom": "0x00000000000000000000000000000000000000000000000000000000000000000000000000000000000000000000000000000000000000000000000000000000000000000000000000000000000000000000000000000000000000000000000000000000000000000000000000000000000000000000000000000000000000000000000000000000000000000000000000000000000000000000000000000000000000000000000000000000000000000000000000000000000000000000000000000000000000000000000000000000000000000000000000000000000000000000000000000000000000000000000000000000000000000000000000000000",
      "type": "0x2",
      "transactionHash": "0x2c582a23ba948d82ab963c8c825d88494ea1d36e1c2f6696fe503941d2262541",
      "transactionIndex": "0x170",
      "blockHash": "0x80b61f9d10c360a88ec446cb27b87e3b5cf177e357f8d36e58f5636ae4e7abf9",
      "blockNumber": "0x27efacc",
      "gasUsed": "0x65b2e",
      "effectiveGasPrice": "0x44d5a8",
      "blobGasUsed": "0x93b0",
      "from": "0xf17b5dd382b048ff4c05c1c9e4e24cfc5c6adad9",
      "to": "0xc45f4894f769602e1fdc888c935b294188a98064",
      "contractAddress": null,
      "daFootprintGasScalar": "0x8b",
      "l1BaseFeeScalar": "0x8dd",
      "l1BlobBaseFee": "0x2c1d3c",
      "l1BlobBaseFeeScalar": "0x101c12",
      "l1Fee": "0x1d484ec3",
      "l1GasPrice": "0x30dfac1",
      "l1GasUsed": "0x110c"
    },
    {
      "status": "0x1",
      "cumulativeGasUsed": "0x36cab0f",
      "logs": [],
      "logsBloom": "0x00000000000000000000000000000000000000000000000000000000000000000000000000000000000000000000000000000000000000000000000000000000000000000000000000000000000000000000000000000000000000000000000000000000000000000000000000000000000000000000000000000000000000000000000000000000000000000000000000000000000000000000000000000000000000000000000000000000000000000000000000000000000000000000000000000000000000000000000000000000000000000000000000000000000000000000000000000000000000000000000000000000000000000000000000000000",
      "type": "0x2",
      "transactionHash": "0xc965375809e242717e401bd7cdbede7c52ec6e677223fa50b99bd8d2dffddc8f",
      "transactionIndex": "0x126",
      "blockHash": "0x360d1c831e068cb0c77245ad7679de9b01a8bff296cb1b2e50c419b4f151979e",
      "blockNumber": "0x27efacd",
      "gasUsed": "0x65b2e",
      "effectiveGasPrice": "0x4508ab",
      "blobGasUsed": "0x8e42",
      "from": "0xf17b5dd382b048ff4c05c1c9e4e24cfc5c6adad9",
      "to": "0xc45f4894f769602e1fdc888c935b294188a98064",
      "contractAddress": null,
      "daFootprintGasScalar": "0x8b",
      "l1BaseFeeScalar": "0x8dd",
      "l1BlobBaseFee": "0x2c1d3c",
      "l1BlobBaseFeeScalar": "0x101c12",
      "l1Fee": "0x34af9c93",
      "l1GasPrice": "0x30dfac1",
      "l1GasUsed": "0x106b"
    },
    {
      "status": "0x1",
      "cumulativeGasUsed": "0x390f359",
      "logs": [],
      "logsBloom": "0x00000000000000000000000000000000000000000000000000000000000000000000000000000000000000000000000000000000000000000000000000000000000000000000000000000000000000000000000000000000000000000000000000000000000000000000000000000000000000000000000000000000000000000000000000000000000000000000000000000000000000000000000000000000000000000000000000000000000000000000000000000000000000000000000000000000000000000000000000000000000000000000000000000000000000000000000000000000000000000000000000000000000000000000000000000000",
      "type": "0x2",
      "transactionHash": "0xaaf8b43c80b087c414fbc57c94f91bbfdcd5aecdc3591f48e3b4cb61b35a58ca",
      "transactionIndex": "0xc8",
      "blockHash": "0x1c6e1d097c8fc9b198b1add1b25d10b5124287e8dbd6ce0fe388a78c95ee53d4",
      "blockNumber": "0x27eface",
      "gasUsed": "0x65b2e",
      "effectiveGasPrice": "0x45096e",
      "blobGasUsed": "0x93b0",
      "from": "0xf17b5dd382b048ff4c05c1c9e4e24cfc5c6adad9",
      "to": "0xc45f4894f769602e1fdc888c935b294188a98064",
      "contractAddress": null,
      "daFootprintGasScalar": "0x8b",
      "l1BaseFeeScalar": "0x8dd",
      "l1BlobBaseFee": "0x2c1d3c",
      "l1BlobBaseFeeScalar": "0x101c12",
      "l1Fee": "0x4fe00bb5",
      "l1GasPrice": "0x30dfac1",
      "l1GasUsed": "0x110c"
    },
    {
      "status": "0x1",
      "cumulativeGasUsed": "0x2a72c58",
      "logs": [],
      "logsBloom": "0x00000000000000000000000000000000000000000000000000000000000000000000000000000000000000000000000000000000000000000000000000000000000000000000000000000000000000000000000000000000000000000000000000000000000000000000000000000000000000000000000000000000000000000000000000000000000000000000000000000000000000000000000000000000000000000000000000000000000000000000000000000000000000000000000000000000000000000000000000000000000000000000000000000000000000000000000000000000000000000000000000000000000000000000000000000000",
      "type": "0x2",
      "transactionHash": "0xedadbf31846873ce5bf9936fede87c0c1e06733cc3616a65783abdf35c995144",
      "transactionIndex": "0xdd",
      "blockHash": "0x0000000000000000000000000000000000000000000000000000000000000000",
      "blockNumber": "0x27efacf",
      "gasUsed": "0x65b2e",
      "effectiveGasPrice": "0x454043",
      "blobGasUsed": "0x8ca1",
      "from": "0xf17b5dd382b048ff4c05c1c9e4e24cfc5c6adad9",
      "to": "0xc45f4894f769602e1fdc888c935b294188a98064",
      "contractAddress": null,
      "daFootprintGasScalar": "0x8b",
      "l1BaseFeeScalar": "0x8dd",
      "l1BlobBaseFee": "0x2c1d3c",
      "l1BlobBaseFeeScalar": "0x101c12",
      "l1Fee": "0x1d484ec3",
      "l1GasPrice": "0x30dfac1",
      "l1GasUsed": "0x1036"
    },
    {
      "status": "0x1",
      "cumulativeGasUsed": "0x21afc7b",
      "logs": [],
      "logsBloom": "0x00000000000000000000000000000000000000000000000000000000000000000000000000000000000000000000000000000000000000000000000000000000000000000000000000000000000000000000000000000000000000000000000000000000000000000000000000000000000000000000000000000000000000000000000000000000000000000000000000000000000000000000000000000000000000000000000000000000000000000000000000000000000000000000000000000000000000000000000000000000000000000000000000000000000000000000000000000000000000000000000000000000000000000000000000000000",
      "type": "0x2",
      "transactionHash": "0xf17c4cc14f0be76f5ecc343e18e8384bf31575b079153252fc3c478e34d476b9",
      "transactionIndex": "0x94",
      "blockHash": "0xa2743ed1f09e6d130b4fcbea0bcf10c7ba871a1b6be37658c47710f07e1a7057",
      "blockNumber": "0x27efad0",
      "gasUsed": "0x65b2e",
      "effectiveGasPrice": "0x4545f5",
      "blobGasUsed": "0x93b0",
      "from": "0xf17b5dd382b048ff4c05c1c9e4e24cfc5c6adad9",
      "to": "0xc45f4894f769602e1fdc888c935b294188a98064",
      "contractAddress": null,
      "daFootprintGasScalar": "0x8b",
      "l1BaseFeeScalar": "0x8dd",
      "l1BlobBaseFee": "0x2c1d3c",
      "l1BlobBaseFeeScalar": "0x101c12",
      "l1Fee": "0x4fe00bb5",
      "l1GasPrice": "0x30dfac1",
      "l1GasUsed": "0x110c"
    }
  ],
  "libraries": [],
  "pending": [],
  "returns": {},
  "timestamp": 1770541699641,
  "chain": 8453,
  "commit": "0c27293"
}