{
  "transactions": [
    {
      "hash": "0x668c03e1665f63b6c60fbf5554421650452f992f7de310e8e981837673d620f9",
      "transactionType": "CALL",
      "contractName": null,
      "contractAddress": "0xd29f7491e2269ba1f6f7b89ff3bbe6a65301e9af",
      "function": "addManyBodies(bytes[])",
      "arguments": [
        "[0x151720090e9f019f0ca3019f019f0ca3019f019f01a3019f0aa3019f029f0100019f09a3019f029f0100019f09a3019f029f0100019f09a3019f029f0100019f09a3019f029f0100019f09a3019f029f0100019f09a3019f02a301000ba3, 0x151720090e7101710ca4017101710ca40171017101a401710aa4017102710100017109a4017102710100017109a4017102710100017109a4017102710100017109a4017102710100017109a4017102710100017109a4017102a401000ba4, 0x151720090e7001700ca5017001700ca50170017001a501700aa5017002700100017009a5017002700100017009a5017002700100017009a5017002700100017009a5017002700100017009a5017002700100017009a5017002a501000ba5, 0x151720090e9f019f0c9d019f019f0c9d019f019f019d019f0a9d019f029f0100019f099d019f029f0100019f099d019f029f0100019f099d019f029f0100019f099d019f029f0100019f099d019f029f0100019f099d019f029d01000b9d, 0x151720090eac01ac0c9e01ac01ac0c9e01ac01ac019e01ac0a9e01ac02ac010001ac099e01ac02ac010001ac099e01ac02ac010001ac099e01ac02ac010001ac099e01ac02ac010001ac099e01ac02ac010001ac099e01ac029e01000b9e]"
      ],
      "transaction": {
        "from": "0xf17b5dd382b048ff4c05c1c9e4e24cfc5c6adad9",
        "to": "0xd29f7491e2269ba1f6f7b89ff3bbe6a65301e9af",
        "gas": "0x92428",
        "value": "0x0",
        "input": "0x8a85a1e80000000000000000000000000000000000000000000000000000000000000020000000000000000000000000000000000000000000000000000000000000000500000000000000000000000000000000000000000000000000000000000000a0000000000000000000000000000000000000000000000000000000000000012000000000000000000000000000000000000000000000000000000000000001a0000000000000000000000000000000000000000000000000000000000000022000000000000000000000000000000000000000000000000000000000000002a0000000000000000000000000000000000000000000000000000000000000005e151720090e9f019f0ca3019f019f0ca3019f019f01a3019f0aa3019f029f0100019f09a3019f029f0100019f09a3019f029f0100019f09a3019f029f0100019f09a3019f029f0100019f09a3019f029f0100019f09a3019f02a301000ba30000000000000000000000000000000000000000000000000000000000000000005e151720090e7101710ca4017101710ca40171017101a401710aa4017102710100017109a4017102710100017109a4017102710100017109a4017102710100017109a4017102710100017109a4017102710100017109a4017102a401000ba40000000000000000000000000000000000000000000000000000000000000000005e151720090e7001700ca5017001700ca50170017001a501700aa5017002700100017009a5017002700100017009a5017002700100017009a5017002700100017009a5017002700100017009a5017002700100017009a5017002a501000ba50000000000000000000000000000000000000000000000000000000000000000005e151720090e9f019f0c9d019f019f0c9d019f019f019d019f0a9d019f029f0100019f099d019f029f0100019f099d019f029f0100019f099d019f029f0100019f099d019f029f0100019f099d019f029f0100019f099d019f029d01000b9d0000000000000000000000000000000000000000000000000000000000000000005e151720090eac01ac0c9e01ac01ac0c9e01ac01ac019e01ac0a9e01ac02ac010001ac099e01ac02ac010001ac099e01ac02ac010001ac099e01ac02ac010001ac099e01ac02ac010001ac099e01ac02ac010001ac099e01ac029e01000b9e0000",
        "nonce": "0x8a",
        "chainId": "0x2105"
      },
      "additionalContracts": [
        {
          "transactionType": "CREATE",
          "contractName": null,
          "address": "0x7fd64f48d28594bbdc8b8328f6606e66adb54646",
          "initCode": "0x61005f80600c6000396000f300151720090e9f019f0ca3019f019f0ca3019f019f01a3019f0aa3019f029f0100019f09a3019f029f0100019f09a3019f029f0100019f09a3019f029f0100019f09a3019f029f0100019f09a3019f029f0100019f09a3019f02a301000ba3"
        },
        {
          "transactionType": "CREATE",
          "contractName": null,
          "address": "0xa744b65a683cc0c16fe8aca676ac40c14f3739ae",
          "initCode": "0x61005f80600c6000396000f300151720090e7101710ca4017101710ca40171017101a401710aa4017102710100017109a4017102710100017109a4017102710100017109a4017102710100017109a4017102710100017109a4017102710100017109a4017102a401000ba4"
        },
        {
          "transactionType": "CREATE",
          "contractName": null,
          "address": "0x9e2d72eca377300a452107556297c11d0ee11242",
          "initCode": "0x61005f80600c6000396000f300151720090e7001700ca5017001700ca50170017001a501700aa5017002700100017009a5017002700100017009a5017002700100017009a5017002700100017009a5017002700100017009a5017002700100017009a5017002a501000ba5"
        },
        {
          "transactionType": "CREATE",
          "contractName": null,
          "address": "0x92f5e095216cfaccbd7f1ec0ba846821aa422cd3",
          "initCode": "0x61005f80600c6000396000f300151720090e9f019f0c9d019f019f0c9d019f019f019d019f0a9d019f029f0100019f099d019f029f0100019f099d019f029f0100019f099d019f029f0100019f099d019f029f0100019f099d019f029f0100019f099d019f029d01000b9d"
        },
        {
          "transactionType": "CREATE",
          "contractName": null,
          "address": "0xf5ed4e5c9c8413ca3074c59dab51e15b786e7c38",
          "initCode": "0x61005f80600c6000396000f300151720090eac01ac0c9e01ac01ac0c9e01ac01ac019e01ac0a9e01ac02ac010001ac099e01ac02ac010001ac099e01ac02ac010001ac099e01ac02ac010001ac099e01ac02ac010001ac099e01ac02ac010001ac099e01ac029e01000b9e"
        }
      ],
      "isFixedGasLimit": false
    },
    {
      "hash": "0xeecbddd7747f19e1023d8fea6369fba07dd9eab8062087ece38dbdc5cd071777",
      "transactionType": "CALL",
      "contractName": null,
      "contractAddress": "0xd29f7491e2269ba1f6f7b89ff3bbe6a65301e9af",
      "function": "addManyBodies(bytes[])",
      "arguments": [
        "[0x151720090e7001700ca6017001700ca60170017001a601700aa6017002700100017009a6017002700100017009a6017002700100017009a6017002700100017009a6017002700100017009a6017002700100017009a6017002a601000ba6, 0x151720090e7101710ca7017101710ca70171017101a701710aa7017102710100017109a7017102710100017109a7017102710100017109a7017102710100017109a7017102710100017109a7017102710100017109a7017102a701000ba7, 0x151720090e7201720c9a017201720c9a01720172019a01720a9a0172027201000172099a0172027201000172099a0172027201000172099a0172027201000172099a0172027201000172099a0172027201000172099a0172029a01000b9a, 0x151720090eb001b00ca801b001b00ca801b001b001a801b00aa801b002b0010001b009a801b002b0010001b009a801b002b0010001b009a801b002b0010001b009a801b002b0010001b009a801b002b0010001b009a801b002a801000ba8, 0x151720090eaf01af0ca901af01af0ca901af01af01a901af0aa901af02af010001af09a901af02af010001af09a901af02af010001af09a901af02af010001af09a901af02af010001af09a901af02af010001af09a901af02a901000ba9]"
      ],
      "transaction": {
        "from": "0xf17b5dd382b048ff4c05c1c9e4e24cfc5c6adad9",
        "to": "0xd29f7491e2269ba1f6f7b89ff3bbe6a65301e9af",
        "gas": "0x8c7e5",
        "value": "0x0",
        "input": "0x8a85a1e80000000000000000000000000000000000000000000000000000000000000020000000000000000000000000000000000000000000000000000000000000000500000000000000000000000000000000000000000000000000000000000000a0000000000000000000000000000000000000000000000000000000000000012000000000000000000000000000000000000000000000000000000000000001a0000000000000000000000000000000000000000000000000000000000000022000000000000000000000000000000000000000000000000000000000000002a0000000000000000000000000000000000000000000000000000000000000005e151720090e7001700ca6017001700ca60170017001a601700aa6017002700100017009a6017002700100017009a6017002700100017009a6017002700100017009a6017002700100017009a6017002700100017009a6017002a601000ba60000000000000000000000000000000000000000000000000000000000000000005e151720090e7101710ca7017101710ca70171017101a701710aa7017102710100017109a7017102710100017109a7017102710100017109a7017102710100017109a7017102710100017109a7017102710100017109a7017102a701000ba70000000000000000000000000000000000000000000000000000000000000000005e151720090e7201720c9a017201720c9a01720172019a01720a9a0172027201000172099a0172027201000172099a0172027201000172099a0172027201000172099a0172027201000172099a0172027201000172099a0172029a01000b9a0000000000000000000000000000000000000000000000000000000000000000005e151720090eb001b00ca801b001b00ca801b001b001a801b00aa801b002b0010001b009a801b002b0010001b009a801b002b0010001b009a801b002b0010001b009a801b002b0010001b009a801b002b0010001b009a801b002a801000ba80000000000000000000000000000000000000000000000000000000000000000005e151720090eaf01af0ca901af01af0ca901af01af01a901af0aa901af02af010001af09a901af02af010001af09a901af02af010001af09a901af02af010001af09a901af02af010001af09a901af02af010001af09a901af02a901000ba90000",
        "nonce": "0x8b",
        "chainId": "0x2105"
      },
      "additionalContracts": [
        {
          "transactionType": "CREATE",
          "contractName": null,
          "address": "0x304074c8ddaa5cf8ac6b9bd7bb080c321bec6965",
          "initCode": "0x61005f80600c6000396000f300151720090e7001700ca6017001700ca60170017001a601700aa6017002700100017009a6017002700100017009a6017002700100017009a6017002700100017009a6017002700100017009a6017002700100017009a6017002a601000ba6"
        },
        {
          "transactionType": "CREATE",
          "contractName": null,
          "address": "0xae4a8fcd8d1e87a365040f8884b76e37046e47d6",
          "initCode": "0x61005f80600c6000396000f300151720090e7101710ca7017101710ca70171017101a701710aa7017102710100017109a7017102710100017109a7017102710100017109a7017102710100017109a7017102710100017109a7017102710100017109a7017102a701000ba7"
        },
        {
          "transactionType": "CREATE",
          "contractName": null,
          "address": "0x61a3ca5fc1c20c9050abb6cf3857d5ac9366feac",
          "initCode": "0x61005f80600c6000396000f300151720090e7201720c9a017201720c9a01720172019a01720a9a0172027201000172099a0172027201000172099a0172027201000172099a0172027201000172099a0172027201000172099a0172027201000172099a0172029a01000b9a"
        },
        {
          "transactionType": "CREATE",
          "contractName": null,
          "address": "0x66135559fd44a2ec07e132a1b4d37f05718055cb",
          "initCode": "0x61005f80600c6000396000f300151720090eb001b00ca801b001b00ca801b001b001a801b00aa801b002b0010001b009a801b002b0010001b009a801b002b0010001b009a801b002b0010001b009a801b002b0010001b009a801b002b0010001b009a801b002a801000ba8"
        },
        {
          "transactionType": "CREATE",
          "contractName": null,
          "address": "0x0cf9cbfc628fd34a23360c4bc86390d9554f06e4",
          "initCode": "0x61005f80600c6000396000f300151720090eaf01af0ca901af01af0ca901af01af01a901af0aa901af02af010001af09a901af02af010001af09a901af02af010001af09a901af02af010001af09a901af02af010001af09a901af02af010001af09a901af02a901000ba9"
        }
      ],
      "isFixedGasLimit": false
    },
    {
      "hash": "0x35b32f3132d2d78a81e12d5e58b9ca44039f45f375fc981a918e9256602062b7",
      "transactionType": "CALL",
      "contractName": null,
      "contractAddress": "0xd29f7491e2269ba1f6f7b89ff3bbe6a65301e9af",
      "function": "addManyBodies(bytes[])",
      "arguments": [
        "[0x151720090eb101b10c9b01b101b10c9b01b101b1019b01b10a9b01b102b1010001b1099b01b102b1010001b1099b01b102b1010001b1099b01b102b1010001b1099b01b102b1010001b1099b01b102b1010001b1099b01b1029b01000b9b, 0x151720090ec701c70caa01c701c70caa01c701c701aa01c70aaa01c702c7010001c709aa01c702c7010001c709aa01c702c7010001c709aa01c702c7010001c709aa01c702c7010001c709aa01c702c7010001c709aa01c702aa01000baa, 0x151720090eae01ae0c9f01ae01ae0c9f01ae01ae019f01ae0a9f01ae02ae010001ae099f01ae02ae010001ae099f01ae02ae010001ae099f01ae02ae010001ae099f01ae02ae010001ae099f01ae02ae010001ae099f01ae029f01000b9f, 0x151720090ec701c70ca001c701c70ca001c701c701a001c70aa001c702c7010001c709a001c702c7010001c709a001c702c7010001c709a001c702c7010001c709a001c702c7010001c709a001c702c7010001c709a001c702a001000ba0, 0x151720090e7301730cab017301730cab0173017301ab01730aab017302730100017309ab017302730100017309ab017302730100017309ab017302730100017309ab017302730100017309ab017302730100017309ab017302ab01000bab]"
      ],
      "transaction": {
        "from": "0xf17b5dd382b048ff4c05c1c9e4e24cfc5c6adad9",
        "to": "0xd29f7491e2269ba1f6f7b89ff3bbe6a65301e9af",
        "gas": "0x8c7e5",
        "value": "0x0",
        "input": "0x8a85a1e80000000000000000000000000000000000000000000000000000000000000020000000000000000000000000000000000000000000000000000000000000000500000000000000000000000000000000000000000000000000000000000000a0000000000000000000000000000000000000000000000000000000000000012000000000000000000000000000000000000000000000000000000000000001a0000000000000000000000000000000000000000000000000000000000000022000000000000000000000000000000000000000000000000000000000000002a0000000000000000000000000000000000000000000000000000000000000005e151720090eb101b10c9b01b101b10c9b01b101b1019b01b10a9b01b102b1010001b1099b01b102b1010001b1099b01b102b1010001b1099b01b102b1010001b1099b01b102b1010001b1099b01b102b1010001b1099b01b1029b01000b9b0000000000000000000000000000000000000000000000000000000000000000005e151720090ec701c70caa01c701c70caa01c701c701aa01c70aaa01c702c7010001c709aa01c702c7010001c709aa01c702c7010001c709aa01c702c7010001c709aa01c702c7010001c709aa01c702c7010001c709aa01c702aa01000baa0000000000000000000000000000000000000000000000000000000000000000005e151720090eae01ae0c9f01ae01ae0c9f01ae01ae019f01ae0a9f01ae02ae010001ae099f01ae02ae010001ae099f01ae02ae010001ae099f01ae02ae010001ae099f01ae02ae010001ae099f01ae02ae010001ae099f01ae029f01000b9f0000000000000000000000000000000000000000000000000000000000000000005e151720090ec701c70ca001c701c70ca001c701c701a001c70aa001c702c7010001c709a001c702c7010001c709a001c702c7010001c709a001c702c7010001c709a001c702c7010001c709a001c702c7010001c709a001c702a001000ba00000000000000000000000000000000000000000000000000000000000000000005e151720090e7301730cab017301730cab0173017301ab01730aab017302730100017309ab017302730100017309ab017302730100017309ab017302730100017309ab017302730100017309ab017302730100017309ab017302ab01000bab0000",
        "nonce": "0x8c",
        "chainId": "0x2105"
      },
      "additionalContracts": [
        {
          "transactionType": "CREATE",
          "contractName": null,
          "address": "0xe2dfc45c40b165075eeda65a9c49cf90c8e12566",
          "initCode": "0x61005f80600c6000396000f300151720090eb101b10c9b01b101b10c9b01b101b1019b01b10a9b01b102b1010001b1099b01b102b1010001b1099b01b102b1010001b1099b01b102b1010001b1099b01b102b1010001b1099b01b102b1010001b1099b01b1029b01000b9b"
        },
        {
          "transactionType": "CREATE",
          "contractName": null,
          "address": "0x78b269a29129785f5aeea095ef18fd3e969dd193",
          "initCode": "0x61005f80600c6000396000f300151720090ec701c70caa01c701c70caa01c701c701aa01c70aaa01c702c7010001c709aa01c702c7010001c709aa01c702c7010001c709aa01c702c7010001c709aa01c702c7010001c709aa01c702c7010001c709aa01c702aa01000baa"
        },
        {
          "transactionType": "CREATE",
          "contractName": null,
          "address": "0xb1b6bf0c3ed1cd154f042d9ab9b27bfe39452d2e",
          "initCode": "0x61005f80600c6000396000f300151720090eae01ae0c9f01ae01ae0c9f01ae01ae019f01ae0a9f01ae02ae010001ae099f01ae02ae010001ae099f01ae02ae010001ae099f01ae02ae010001ae099f01ae02ae010001ae099f01ae02ae010001ae099f01ae029f01000b9f"
        },
        {
          "transactionType": "CREATE",
          "contractName": null,
          "address": "0xa4b7d7621062b2cdd08b0ec6107c4332d1a08e80",
          "initCode": "0x61005f80600c6000396000f300151720090ec701c70ca001c701c70ca001c701c701a001c70aa001c702c7010001c709a001c702c7010001c709a001c702c7010001c709a001c702c7010001c709a001c702c7010001c709a001c702c7010001c709a001c702a001000ba0"
        },
        {
          "transactionType": "CREATE",
          "contractName": null,
          "address": "0x8dbb2bca18ec7ca71d107baf7952fe8762adb72d",
          "initCode": "0x61005f80600c6000396000f300151720090e7301730cab017301730cab0173017301ab01730aab017302730100017309ab017302730100017309ab017302730100017309ab017302730100017309ab017302730100017309ab017302730100017309ab017302ab01000bab"
        }
      ],
      "isFixedGasLimit": false
    },
    {
      "hash": "0x5dde11383694b8c3c23dd38726df584e9b0b919c06a89f606a8641752a4d532e",
      "transactionType": "CALL",
      "contractName": null,
      "contractAddress": "0xd29f7491e2269ba1f6f7b89ff3bbe6a65301e9af",
      "function": "addManyBodies(bytes[])",
      "arguments": [
        "[0x151720090eb101b10c7001b101b10c7001b101b1017001b10a7001b102b1010001b1097001b102b1010001b1097001b102b1010001b1097001b102b1010001b1097001b102b1010001b1097001b102b1010001b1097001b1027001000b70, 0x151720090eb301b30c7101b301b30c7101b301b3017101b30a7101b302b3010001b3097101b302b3010001b3097101b302b3010001b3097101b302b3010001b3097101b302b3010001b3097101b302b3010001b3097101b3027101000b71, 0x151720090eb401b40c7201b401b40c7201b401b4017201b40a7201b402b4010001b4097201b402b4010001b4097201b402b4010001b4097201b402b4010001b4097201b402b4010001b4097201b402b4010001b4097201b4027201000b72, 0x151720090e1601160ca1011601160ca10116011601a101160aa1011602160100011609a1011602160100011609a1011602160100011609a1011602160100011609a1011602160100011609a1011602160100011609a1011602a101000ba1, 0x151720090e8401840cac018401840cac0184018401ac01840aac018402840100018409ac018402840100018409ac018402840100018409ac018402840100018409ac018402840100018409ac018402840100018409ac018402ac01000bac]"
      ],
      "transaction": {
        "from": "0xf17b5dd382b048ff4c05c1c9e4e24cfc5c6adad9",
        "to": "0xd29f7491e2269ba1f6f7b89ff3bbe6a65301e9af",
        "gas": "0x8c7e5",
        "value": "0x0",
        "input": "0x8a85a1e80000000000000000000000000000000000000000000000000000000000000020000000000000000000000000000000000000000000000000000000000000000500000000000000000000000000000000000000000000000000000000000000a0000000000000000000000000000000000000000000000000000000000000012000000000000000000000000000000000000000000000000000000000000001a0000000000000000000000000000000000000000000000000000000000000022000000000000000000000000000000000000000000000000000000000000002a0000000000000000000000000000000000000000000000000000000000000005e151720090eb101b10c7001b101b10c7001b101b1017001b10a7001b102b1010001b1097001b102b1010001b1097001b102b1010001b1097001b102b1010001b1097001b102b1010001b1097001b102b1010001b1097001b1027001000b700000000000000000000000000000000000000000000000000000000000000000005e151720090eb301b30c7101b301b30c7101b301b3017101b30a7101b302b3010001b3097101b302b3010001b3097101b302b3010001b3097101b302b3010001b3097101b302b3010001b3097101b302b3010001b3097101b3027101000b710000000000000000000000000000000000000000000000000000000000000000005e151720090eb401b40c7201b401b40c7201b401b4017201b40a7201b402b4010001b4097201b402b4010001b4097201b402b4010001b4097201b402b4010001b4097201b402b4010001b4097201b402b4010001b4097201b4027201000b720000000000000000000000000000000000000000000000000000000000000000005e151720090e1601160ca1011601160ca10116011601a101160aa1011602160100011609a1011602160100011609a1011602160100011609a1011602160100011609a1011602160100011609a1011602160100011609a1011602a101000ba10000000000000000000000000000000000000000000000000000000000000000005e151720090e8401840cac018401840cac0184018401ac01840aac018402840100018409ac018402840100018409ac018402840100018409ac018402840100018409ac018402840100018409ac018402840100018409ac018402ac01000bac0000",
        "nonce": "0x8d",
        "chainId": "0x2105"
      },
      "additionalContracts": [
        {
          "transactionType": "CREATE",
          "contractName": null,
          "address": "0xe7ffe8e705e8e6da074875903461a19d0df5fd5b",
          "initCode": "0x61005f80600c6000396000f300151720090eb101b10c7001b101b10c7001b101b1017001b10a7001b102b1010001b1097001b102b1010001b1097001b102b1010001b1097001b102b1010001b1097001b102b1010001b1097001b102b1010001b1097001b1027001000b70"
        },
        {
          "transactionType": "CREATE",
          "contractName": null,
          "address": "0x0ec4f5c8d159ec5a35cb2239f881ed903e0bb32c",
          "initCode": "0x61005f80600c6000396000f300151720090eb301b30c7101b301b30c7101b301b3017101b30a7101b302b3010001b3097101b302b3010001b3097101b302b3010001b3097101b302b3010001b3097101b302b3010001b3097101b302b3010001b3097101b3027101000b71"
        },
        {
          "transactionType": "CREATE",
          "contractName": null,
          "address": "0xd2cc78abb9db3be585637fa13f6c304c5ee9fb32",
          "initCode": "0x61005f80600c6000396000f300151720090eb401b40c7201b401b40c7201b401b4017201b40a7201b402b4010001b4097201b402b4010001b4097201b402b4010001b4097201b402b4010001b4097201b402b4010001b4097201b402b4010001b4097201b4027201000b72"
        },
        {
          "transactionType": "CREATE",
          "contractName": null,
          "address": "0xf229c8b1b3786de80ccd775786cbd23ccf088c6e",
          "initCode": "0x61005f80600c6000396000f300151720090e1601160ca1011601160ca10116011601a101160aa1011602160100011609a1011602160100011609a1011602160100011609a1011602160100011609a1011602160100011609a1011602160100011609a1011602a101000ba1"
        },
        {
          "transactionType": "CREATE",
          "contractName": null,
          "address": "0x86b8651a4199988f74b0a6192e58fbd478df83f3",
          "initCode": "0x61005f80600c6000396000f300151720090e8401840cac018401840cac0184018401ac01840aac018402840100018409ac018402840100018409ac018402840100018409ac018402840100018409ac018402840100018409ac018402840100018409ac018402ac01000bac"
        }
      ],
      "isFixedGasLimit": false
    },
    {
      "hash": "0x7b2d5842b7ee18326961540bc6dc2620561a51d1c0c592991a9201327aed688a",
      "transactionType": "CALL",
      "contractName": null,
      "contractAddress": "0xd29f7491e2269ba1f6f7b89ff3bbe6a65301e9af",
      "function": "addManyBodies(bytes[])",
      "arguments": [
        "[0x151720090e4201420cad014201420cad0142014201ad01420aad014202420100014209ad014202420100014209ad014202420100014209ad014202420100014209ad014202420100014209ad014202420100014209ad014202ad01000bad, 0x151720090e8101810cae018101810cae0181018101ae01810aae018102810100018109ae018102810100018109ae018102810100018109ae018102810100018109ae018102810100018109ae018102810100018109ae018102ae01000bae, 0x151720090e1f011f0caf011f011f0caf011f011f01af011f0aaf011f021f0100011f09af011f021f0100011f09af011f021f0100011f09af011f021f0100011f09af011f021f0100011f09af011f021f0100011f09af011f02af01000baf, 0x151720090e4201420cb0014201420cb00142014201b001420ab0014202420100014209b0014202420100014209b0014202420100014209b0014202420100014209b0014202420100014209b0014202420100014209b0014202b001000bb0, 0x151720090e8101810c73018101810c7301810181017301810a730181028101000181097301810281010001810973018102810100018109730181028101000181097301810281010001810973018102810100018109730181027301000b73]"
      ],
      "transaction": {
        "from": "0xf17b5dd382b048ff4c05c1c9e4e24cfc5c6adad9",
        "to": "0xd29f7491e2269ba1f6f7b89ff3bbe6a65301e9af",
        "gas": "0x8c7e5",
        "value": "0x0",
        "input": "0x8a85a1e80000000000000000000000000000000000000000000000000000000000000020000000000000000000000000000000000000000000000000000000000000000500000000000000000000000000000000000000000000000000000000000000a0000000000000000000000000000000000000000000000000000000000000012000000000000000000000000000000000000000000000000000000000000001a0000000000000000000000000000000000000000000000000000000000000022000000000000000000000000000000000000000000000000000000000000002a0000000000000000000000000000000000000000000000000000000000000005e151720090e4201420cad014201420cad0142014201ad01420aad014202420100014209ad014202420100014209ad014202420100014209ad014202420100014209ad014202420100014209ad014202420100014209ad014202ad01000bad0000000000000000000000000000000000000000000000000000000000000000005e151720090e8101810cae018101810cae0181018101ae01810aae018102810100018109ae018102810100018109ae018102810100018109ae018102810100018109ae018102810100018109ae018102810100018109ae018102ae01000bae0000000000000000000000000000000000000000000000000000000000000000005e151720090e1f011f0caf011f011f0caf011f011f01af011f0aaf011f021f0100011f09af011f021f0100011f09af011f021f0100011f09af011f021f0100011f09af011f021f0100011f09af011f021f0100011f09af011f02af01000baf0000000000000000000000000000000000000000000000000000000000000000005e151720090e4201420cb0014201420cb00142014201b001420ab0014202420100014209b0014202420100014209b0014202420100014209b0014202420100014209b0014202420100014209b0014202420100014209b0014202b001000bb00000000000000000000000000000000000000000000000000000000000000000005e151720090e8101810c73018101810c7301810181017301810a730181028101000181097301810281010001810973018102810100018109730181028101000181097301810281010001810973018102810100018109730181027301000b730000",
        "nonce": "0x8e",
        "chainId": "0x2105"
      },
      "additionalContracts": [
        {
          "transactionType": "CREATE",
          "contractName": null,
          "address": "0x1489a3ac1c38af24cc0a17b13464eb36a098144c",
          "initCode": "0x61005f80600c6000396000f300151720090e4201420cad014201420cad0142014201ad01420aad014202420100014209ad014202420100014209ad014202420100014209ad014202420100014209ad014202420100014209ad014202420100014209ad014202ad01000bad"
        },
        {
          "transactionType": "CREATE",
          "contractName": null,
          "address": "0x87b4b37a3cc11f9b270e4d114352d350b9f6dd24",
          "initCode": "0x61005f80600c6000396000f300151720090e8101810cae018101810cae0181018101ae01810aae018102810100018109ae018102810100018109ae018102810100018109ae018102810100018109ae018102810100018109ae018102810100018109ae018102ae01000bae"
        },
        {
          "transactionType": "CREATE",
          "contractName": null,
          "address": "0xe1a66beb97a4640cb425857970bcbaf7e57eb7af",
          "initCode": "0x61005f80600c6000396000f300151720090e1f011f0caf011f011f0caf011f011f01af011f0aaf011f021f0100011f09af011f021f0100011f09af011f021f0100011f09af011f021f0100011f09af011f021f0100011f09af011f021f0100011f09af011f02af01000baf"
        },
        {
          "transactionType": "CREATE",
          "contractName": null,
          "address": "0x0570d72089f892a9f1ccaa5a220da690fbb77a28",
          "initCode": "0x61005f80600c6000396000f300151720090e4201420cb0014201420cb00142014201b001420ab0014202420100014209b0014202420100014209b0014202420100014209b0014202420100014209b0014202420100014209b0014202420100014209b0014202b001000bb0"
        },
        {
          "transactionType": "CREATE",
          "contractName": null,
          "address": "0x08758943e298f159989e700740850e4c5abb64ab",
          "initCode": "0x61005f80600c6000396000f300151720090e8101810c73018101810c7301810181017301810a730181028101000181097301810281010001810973018102810100018109730181028101000181097301810281010001810973018102810100018109730181027301000b73"
        }
      ],
      "isFixedGasLimit": false
    },
    {
      "hash": "0x8baae7ec9506ed787e4268916f7b019fe9f7415a7e0b661eefd9cf1215d3f047",
      "transactionType": "CALL",
      "contractName": null,
      "contractAddress": "0xd29f7491e2269ba1f6f7b89ff3bbe6a65301e9af",
      "function": "addManyBodies(bytes[])",
      "arguments": [
        "[0x151720090e0601060cb1010601060cb10106010601b101060ab1010602060100010609b1010602060100010609b1010602060100010609b1010602060100010609b1010602060100010609b1010602060100010609b1010602b101000bb1, 0x151720090e7e017e0cb2017e017e0cb2017e017e01b2017e0ab2017e027e0100017e09b2017e027e0100017e09b2017e027e0100017e09b2017e027e0100017e09b2017e027e0100017e09b2017e027e0100017e09b2017e02b201000bb2, 0x151720090e0401040cb3010401040cb30104010401b301040ab3010402040100010409b3010402040100010409b3010402040100010409b3010402040100010409b3010402040100010409b3010402040100010409b3010402b301000bb3, 0x151720090e4001400cb4014001400cb40140014001b401400ab4014002400100014009b4014002400100014009b4014002400100014009b4014002400100014009b4014002400100014009b4014002400100014009b4014002b401000bb4, 0x151720090e0c010c0cb5010c010c0cb5010c010c01b5010c0ab5010c020c0100010c09b5010c020c0100010c09b5010c020c0100010c09b5010c020c0100010c09b5010c020c0100010c09b5010c020c0100010c09b5010c02b501000bb5]"
      ],
      "transaction": {
        "from": "0xf17b5dd382b048ff4c05c1c9e4e24cfc5c6adad9",
        "to": "0xd29f7491e2269ba1f6f7b89ff3bbe6a65301e9af",
        "gas": "0x8c7e5",
        "value": "0x0",
        "input": "0x8a85a1e80000000000000000000000000000000000000000000000000000000000000020000000000000000000000000000000000000000000000000000000000000000500000000000000000000000000000000000000000000000000000000000000a0000000000000000000000000000000000000000000000000000000000000012000000000000000000000000000000000000000000000000000000000000001a0000000000000000000000000000000000000000000000000000000000000022000000000000000000000000000000000000000000000000000000000000002a0000000000000000000000000000000000000000000000000000000000000005e151720090e0601060cb1010601060cb10106010601b101060ab1010602060100010609b1010602060100010609b1010602060100010609b1010602060100010609b1010602060100010609b1010602060100010609b1010602b101000bb10000000000000000000000000000000000000000000000000000000000000000005e151720090e7e017e0cb2017e017e0cb2017e017e01b2017e0ab2017e027e0100017e09b2017e027e0100017e09b2017e027e0100017e09b2017e027e0100017e09b2017e027e0100017e09b2017e027e0100017e09b2017e02b201000bb20000000000000000000000000000000000000000000000000000000000000000005e151720090e0401040cb3010401040cb30104010401b301040ab3010402040100010409b3010402040100010409b3010402040100010409b3010402040100010409b3010402040100010409b3010402040100010409b3010402b301000bb30000000000000000000000000000000000000000000000000000000000000000005e151720090e4001400cb4014001400cb40140014001b401400ab4014002400100014009b4014002400100014009b4014002400100014009b4014002400100014009b4014002400100014009b4014002400100014009b4014002b401000bb40000000000000000000000000000000000000000000000000000000000000000005e151720090e0c010c0cb5010c010c0cb5010c010c01b5010c0ab5010c020c0100010c09b5010c020c0100010c09b5010c020c0100010c09b5010c020c0100010c09b5010c020c0100010c09b5010c020c0100010c09b5010c02b501000bb50000",
        "nonce": "0x8f",
        "chainId": "0x2105"
      },
      "additionalContracts": [
        {
          "transactionType": "CREATE",
          "contractName": null,
          "address": "0x60599dbbc98a6c092768fb7ebc5cd6a0c91d7432",
          "initCode": "0x61005f80600c6000396000f300151720090e0601060cb1010601060cb10106010601b101060ab1010602060100010609b1010602060100010609b1010602060100010609b1010602060100010609b1010602060100010609b1010602060100010609b1010602b101000bb1"
        },
        {
          "transactionType": "CREATE",
          "contractName": null,
          "address": "0x1d431a9f4cd395c2f792d19cb675ac249565247c",
          "initCode": "0x61005f80600c6000396000f300151720090e7e017e0cb2017e017e0cb2017e017e01b2017e0ab2017e027e0100017e09b2017e027e0100017e09b2017e027e0100017e09b2017e027e0100017e09b2017e027e0100017e09b2017e027e0100017e09b2017e02b201000bb2"
        },
        {
          "transactionType": "CREATE",
          "contractName": null,
          "address": "0xf3fc7b453d8ed47cf4ff3a7998fe7bdf0b16ffd3",
          "initCode": "0x61005f80600c6000396000f300151720090e0401040cb3010401040cb30104010401b301040ab3010402040100010409b3010402040100010409b3010402040100010409b3010402040100010409b3010402040100010409b3010402040100010409b3010402b301000bb3"
        },
        {
          "transactionType": "CREATE",
          "contractName": null,
          "address": "0x6030844e38a5f5864eb73a777e268c100e282890",
          "initCode": "0x61005f80600c6000396000f300151720090e4001400cb4014001400cb40140014001b401400ab4014002400100014009b4014002400100014009b4014002400100014009b4014002400100014009b4014002400100014009b4014002400100014009b4014002b401000bb4"
        },
        {
          "transactionType": "CREATE",
          "contractName": null,
          "address": "0xdd512912b9200b52d76d0b94288556b6c1350ab4",
          "initCode": "0x61005f80600c6000396000f300151720090e0c010c0cb5010c010c0cb5010c010c01b5010c0ab5010c020c0100010c09b5010c020c0100010c09b5010c020c0100010c09b5010c020c0100010c09b5010c020c0100010c09b5010c020c0100010c09b5010c02b501000bb5"
        }
      ],
      "isFixedGasLimit": false
    }
  ],
  "receipts": [
    {
      "status": "0x1",
      "cumulativeGasUsed": "0x1dc053f",
      "logs": [],
      "logsBloom": "0x00000000000000000000000000000000000000000000000000000000000000000000000000000000000000000000000000000000000000000000000000000000000000000000000000000000000000000000000000000000000000000000000000000000000000000000000000000000000000000000000000000000000000000000000000000000000000000000000000000000000000000000000000000000000000000000000000000000000000000000000000000000000000000000000000000000000000000000000000000000000000000000000000000000000000000000000000000000000000000000000000000000000000000000000000000000",
      "type": "0x2",
      "transactionHash": "0x668c03e1665f63b6c60fbf5554421650452f992f7de310e8e981837673d620f9",
      "transactionIndex": "0x8c",
      "blockHash": "0x93342e7277005196c1909a4cb2be19ab46ec0fb59971febffafdcfcea073f884",
      "blockNumber": "0x27f4bd4",
      "gasUsed": "0x69e3c",
      "effectiveGasPrice": "0xc9cfd5",
      "blobGasUsed": "0x90f9",
      "from": "0xf17b5dd382b048ff4c05c1c9e4e24cfc5c6adad9",
      "to": "0xd29f7491e2269ba1f6f7b89ff3bbe6a65301e9af",
      "contractAddress": null,
      "daFootprintGasScalar": "0x8b",
      "l1BaseFeeScalar": "0x8dd",
      "l1BlobBaseFee": "0x2f2ec3",
      "l1BlobBaseFeeScalar": "0x101c12",
      "l1Fee": "0x51e2a8fb",
      "l1GasPrice": "0x3106411",
      "l1GasUsed": "0x10bc"
    },
    {
      "status": "0x1",
      "cumulativeGasUsed": "0x4336b1d",
      "logs": [],
      "logsBloom": "0x00000000000000000000000000000000000000000000000000000000000000000000000000000000000000000000000000000000000000000000000000000000000000000000000000000000000000000000000000000000000000000000000000000000000000000000000000000000000000000000000000000000000000000000000000000000000000000000000000000000000000000000000000000000000000000000000000000000000000000000000000000000000000000000000000000000000000000000000000000000000000000000000000000000000000000000000000000000000000000000000000000000000000000000000000000000",
      "type": "0x2",
      "transactionHash": "0xeecbddd7747f19e1023d8fea6369fba07dd9eab8062087ece38dbdc5cd071777",
      "transactionIndex": "0xc8",
      "blockHash": "0xa798c937eb622a30cd515ead0817461b23ed43b9aa249565a08a719481ace555",
      "blockNumber": "0x27f4bd5",
      "gasUsed": "0x65b70",
      "effectiveGasPrice": "0xc98fd0",
      "blobGasUsed": "0x94c6",
      "from": "0xf17b5dd382b048ff4c05c1c9e4e24cfc5c6adad9",
      "to": "0xd29f7491e2269ba1f6f7b89ff3bbe6a65301e9af",
      "contractAddress": null,
      "daFootprintGasScalar": "0x8b",
      "l1BaseFeeScalar": "0x8dd",
      "l1BlobBaseFee": "0x2f2ec3",
      "l1BlobBaseFeeScalar": "0x101c12",
      "l1Fee": "0x53ee93fa",
      "l1GasPrice": "0x3106411",
      "l1GasUsed": "0x1127"
    },
    {
      "status": "0x1",
      "cumulativeGasUsed": "0x279640a",
      "logs": [],
      "logsBloom": "0x00000000000000000000000000000000000000000000000000000000000000000000000000000000000000000000000000000000000000000000000000000000000000000000000000000000000000000000000000000000000000000000000000000000000000000000000000000000000000000000000000000000000000000000000000000000000000000000000000000000000000000000000000000000000000000000000000000000000000000000000000000000000000000000000000000000000000000000000000000000000000000000000000000000000000000000000000000000000000000000000000000000000000000000000000000000",
      "type": "0x2",
      "transactionHash": "0x35b32f3132d2d78a81e12d5e58b9ca44039f45f375fc981a918e9256602062b7",
      "transactionIndex": "0xa1",
      "blockHash": "0x22bb9da5aec6a660d6554f4692d1b699949260acb43776c400b6739356286086",
      "blockNumber": "0x27f4bd6",
      "gasUsed": "0x65b70",
      "effectiveGasPrice": "0xca08cc",
      "blobGasUsed": "0x8f58",
      "from": "0xf17b5dd382b048ff4c05c1c9e4e24cfc5c6adad9",
      "to": "0xd29f7491e2269ba1f6f7b89ff3bbe6a65301e9af",
      "contractAddress": null,
      "daFootprintGasScalar": "0x8b",
      "l1BaseFeeScalar": "0x8dd",
      "l1BlobBaseFee": "0x2f2ec3",
      "l1BlobBaseFeeScalar": "0x101c12",
      "l1Fee": "0x3dfdeae1",
      "l1GasPrice": "0x3127e4f",
      "l1GasUsed": "0x1086"
    },
    {
      "status": "0x1",
      "cumulativeGasUsed": "0x2bcac0e",
      "logs": [],
      "logsBloom": "0x00000000000000000000000000000000000000000000000000000000000000000000000000000000000000000000000000000000000000000000000000000000000000000000000000000000000000000000000000000000000000000000000000000000000000000000000000000000000000000000000000000000000000000000000000000000000000000000000000000000000000000000000000000000000000000000000000000000000000000000000000000000000000000000000000000000000000000000000000000000000000000000000000000000000000000000000000000000000000000000000000000000000000000000000000000000",
      "type": "0x2",
      "transactionHash": "0x5dde11383694b8c3c23dd38726df584e9b0b919c06a89f606a8641752a4d532e",
      "transactionIndex": "0xa6",
      "blockHash": "0xd1cc15b96e391b768f5f3e6867f815c9c80541644534ac585bc14b11eceed3b4",
      "blockNumber": "0x27f4bd7",
      "gasUsed": "0x65b70",
      "effectiveGasPrice": "0xca15a5",
      "blobGasUsed": "0x94c6",
      "from": "0xf17b5dd382b048ff4c05c1c9e4e24cfc5c6adad9",
      "to": "0xd29f7491e2269ba1f6f7b89ff3bbe6a65301e9af",
      "contractAddress": null,
      "daFootprintGasScalar": "0x8b",
      "l1BaseFeeScalar": "0x8dd",
      "l1BlobBaseFee": "0x2f2ec3",
      "l1BlobBaseFeeScalar": "0x101c12",
      "l1Fee": "0x3dfdeae1",
      "l1GasPrice": "0x3127e4f",
      "l1GasUsed": "0x1127"
    },
    {
      "status": "0x1",
      "cumulativeGasUsed": "0x1b10fb3",
      "logs": [],
      "logsBloom": "0x00000000000000000000000000000000000000000000000000000000000000000000000000000000000000000000000000000000000000000000000000000000000000000000000000000000000000000000000000000000000000000000000000000000000000000000000000000000000000000000000000000000000000000000000000000000000000000000000000000000000000000000000000000000000000000000000000000000000000000000000000000000000000000000000000000000000000000000000000000000000000000000000000000000000000000000000000000000000000000000000000000000000000000000000000000000",
      "type": "0x2",
      "transactionHash": "0x7b2d5842b7ee18326961540bc6dc2620561a51d1c0c592991a9201327aed688a",
      "transactionIndex": "0x79",
      "blockHash": "0x2e6cff4693747a2dd172ff28d920e43bf4d4e38ace745e4529244d95225c4693",
      "blockNumber": "0x27f4bd8",
      "gasUsed": "0x65b70",
      "effectiveGasPrice": "0xca2ba0",
      "blobGasUsed": "0x8db7",
      "from": "0xf17b5dd382b048ff4c05c1c9e4e24cfc5c6adad9",
      "to": "0xd29f7491e2269ba1f6f7b89ff3bbe6a65301e9af",
      "contractAddress": null,
      "daFootprintGasScalar": "0x8b",
      "l1BaseFeeScalar": "0x8dd",
      "l1BlobBaseFee": "0x2f2ec3",
      "l1BlobBaseFeeScalar": "0x101c12",
      "l1Fee": "0x4feaab44",
      "l1GasPrice": "0x3127e4f",
      "l1GasUsed": "0x1051"
    },
    {
      "status": "0x1",
      "cumulativeGasUsed": "0x2591d81",
      "logs": [],
      "logsBloom": "0x00000000000000000000000000000000000000000000000000000000000000000000000000000000000000000000000000000000000000000000000000000000000000000000000000000000000000000000000000000000000000000000000000000000000000000000000000000000000000000000000000000000000000000000000000000000000000000000000000000000000000000000000000000000000000000000000000000000000000000000000000000000000000000000000000000000000000000000000000000000000000000000000000000000000000000000000000000000000000000000000000000000000000000000000000000000",
      "type": "0x2",
      "transactionHash": "0x8baae7ec9506ed787e4268916f7b019fe9f7415a7e0b661eefd9cf1215d3f047",
      "transactionIndex": "0x75",
      "blockHash": "0x3502d5d91075e03a296a69e0c80879722549bfdeef5f50ce332b0d4b0714ef56",
      "blockNumber": "0x27f4bd9",
      "gasUsed": "0x65b70",
      "effectiveGasPrice": "0xca3078",
      "blobGasUsed": "0x94c6",
      "from": "0xf17b5dd382b048ff4c05c1c9e4e24cfc5c6adad9",
      "to": "0xd29f7491e2269ba1f6f7b89ff3bbe6a65301e9af",
      "contractAddress": null,
      "daFootprintGasScalar": "0x8b",
      "l1BaseFeeScalar": "0x8dd",
      "l1BlobBaseFee": "0x2f2ec3",
      "l1BlobBaseFeeScalar": "0x101c12",
      "l1Fee": "0x540386c8",
      "l1GasPrice": "0x3127e4f",
      "l1GasUsed": "0x1127"
    }
  ],
  "libraries": [],
  "pending": [],
  "returns": {},
  "timestamp": 1770583189719,
  "chain": 8453,
  "commit": "f532988"
}