{
  "transactions": [
    {
      "hash": "0xbc871eb3d865cc5c539cc9afb097dfdca1e49a490e491d016ec833aa00e19bd3",
      "transactionType": "CALL",
      "contractName": null,
      "contractAddress": "0xc45f4894f769602e1fdc888c935b294188a98064",
      "function": "addManySpecs(bytes[])",
      "arguments": [
        "[0x091b0f0502001201020001000201103a020101000301103a03010301103a030101000201106302010100020012010200, 0x091b0f050200120102000100020104fc042a057b031e02010100030104fc042a057b031e0301030104fc042a057b031e03010100020104fc042a057b031e02010100020012010200, 0x091b0f050200120102000100020101bc013a02bc033a02bc013a01bc023a01bc013a01bc02010100030101bc013a02bc033a02bc013a01bc023a01bc013a01bc0301030101bc013a02bc033a02bc013a01bc023a01bc013a01bc03010100020101bc013a02bc033a02bc013a01bc023a01bc013a01bc02010100020012010200, 0x091b0f0502001201020001000201014a012c024a032c024a012c014a022c014a012c014a020101000301014a012c024a032c024a012c014a022c014a012c014a03010301014a012c024a032c024a012c014a022c014a012c014a030101000201014a012c024a032c024a012c014a022c014a012c014a02010100020012010200, 0x091b0f050200120102000100020101d6015902d6035902d6015901d6025901d6015901d602010100030101d6015902d6035902d6015901d6025901d6015901d60301030101d6015902d6035902d6015901d6025901d6015901d603010100020101d6015902d6035902d6015901d6025901d6015901d602010100020012010200, 0x091b0f050200120102000100020103260bd9022602010100030110260301030103440b5c0244030101000201033b0b44023b02010100020012010200, 0x091b0f0502001201020001000201041d09cc031d020101000301025f016a0b1d016a015f03010301073c035f063c03010100020102e70d3c01e702010100020012010200, 0x091b0f0502001201020001000201047c02da036406ff0143020101000301047c02da036406ff014303010301047c02da036406ff0143030101000201047c02da036406ff014302010100020012010200, 0x091b0f0502001201020001000201023a015b0165025901fc022c018c015a0237011e0285020101000301023a015b0165025901fc022c018c015a0237011e028503010301023a015b0165025901fc022c018c015a0237011e0285030101000201023a015b0165025901fc022c018c015a0237011e028502010100020012010200, 0x091b0f0502001201020001000201016a0f1d020101000301023c065f016a065f013c0301030101e70f3c03010100020102460de7014602010100020012010200]"
      ],
      "transaction": {
        "from": "0xf17b5dd382b048ff4c05c1c9e4e24cfc5c6adad9",
        "to": "0xc45f4894f769602e1fdc888c935b294188a98064",
        "gas": "0x121f91",
        "value": "0x0",
        "input": "0xb0b529dd0000000000000000000000000000000000000000000000000000000000000020000000000000000000000000000000000000000000000000000000000000000a000000000000000000000000000000000000000000000000000000000000014000000000000000000000000000000000000000000000000000000000000001a0000000000000000000000000000000000000000000000000000000000000022000000000000000000000000000000000000000000000000000000000000002c000000000000000000000000000000000000000000000000000000000000003600000000000000000000000000000000000000000000000000000000000000400000000000000000000000000000000000000000000000000000000000000046000000000000000000000000000000000000000000000000000000000000004e0000000000000000000000000000000000000000000000000000000000000056000000000000000000000000000000000000000000000000000000000000006000000000000000000000000000000000000000000000000000000000000000030091b0f0502001201020001000201103a020101000301103a03010301103a030101000201106302010100020012010200000000000000000000000000000000000000000000000000000000000000000000000000000000000000000000000048091b0f050200120102000100020104fc042a057b031e02010100030104fc042a057b031e0301030104fc042a057b031e03010100020104fc042a057b031e020101000200120102000000000000000000000000000000000000000000000000000000000000000000000000000000000000000000000000000000000000000080091b0f050200120102000100020101bc013a02bc033a02bc013a01bc023a01bc013a01bc02010100030101bc013a02bc033a02bc013a01bc023a01bc013a01bc0301030101bc013a02bc033a02bc013a01bc023a01bc013a01bc03010100020101bc013a02bc033a02bc013a01bc023a01bc013a01bc020101000200120102000000000000000000000000000000000000000000000000000000000000000080091b0f0502001201020001000201014a012c024a032c024a012c014a022c014a012c014a020101000301014a012c024a032c024a012c014a022c014a012c014a03010301014a012c024a032c024a012c014a022c014a012c014a030101000201014a012c024a032c024a012c014a022c014a012c014a020101000200120102000000000000000000000000000000000000000000000000000000000000000080091b0f050200120102000100020101d6015902d6035902d6015901d6025901d6015901d602010100030101d6015902d6035902d6015901d6025901d6015901d60301030101d6015902d6035902d6015901d6025901d6015901d603010100020101d6015902d6035902d6015901d6025901d6015901d602010100020012010200000000000000000000000000000000000000000000000000000000000000003c091b0f050200120102000100020103260bd9022602010100030110260301030103440b5c0244030101000201033b0b44023b02010100020012010200000000000000000000000000000000000000000000000000000000000000000000000044091b0f0502001201020001000201041d09cc031d020101000301025f016a0b1d016a015f03010301073c035f063c03010100020102e70d3c01e702010100020012010200000000000000000000000000000000000000000000000000000000000000000000000000000000000000000000000000000000000000000000000050091b0f0502001201020001000201047c02da036406ff0143020101000301047c02da036406ff014303010301047c02da036406ff0143030101000201047c02da036406ff014302010100020012010200000000000000000000000000000000000000000000000000000000000000000000000000000000000000000000000080091b0f0502001201020001000201023a015b0165025901fc022c018c015a0237011e0285020101000301023a015b0165025901fc022c018c015a0237011e028503010301023a015b0165025901fc022c018c015a0237011e0285030101000201023a015b0165025901fc022c018c015a0237011e0285020101000200120102000000000000000000000000000000000000000000000000000000000000000040091b0f0502001201020001000201016a0f1d020101000301023c065f016a065f013c0301030101e70f3c03010100020102460de7014602010100020012010200",
        "nonce": "0x21",
        "chainId": "0x2105"
      },
      "additionalContracts": [
        {
          "transactionType": "CREATE",
          "contractName": null,
          "address": "0x77448a8aa7d3e3915bf708c55900c46fce01af65",
          "initCode": "0x61003180600c6000396000f300091b0f0502001201020001000201103a020101000301103a03010301103a030101000201106302010100020012010200"
        },
        {
          "transactionType": "CREATE",
          "contractName": null,
          "address": "0xda2666ae83e9b0a19f7b0ef0151f0b607f6ae258",
          "initCode": "0x61004980600c6000396000f300091b0f050200120102000100020104fc042a057b031e02010100030104fc042a057b031e0301030104fc042a057b031e03010100020104fc042a057b031e02010100020012010200"
        },
        {
          "transactionType": "CREATE",
          "contractName": null,
          "address": "0x5bf0f100ec64b4dcb488ef5646113255a0b3f49e",
          "initCode": "0x61008180600c6000396000f300091b0f050200120102000100020101bc013a02bc033a02bc013a01bc023a01bc013a01bc02010100030101bc013a02bc033a02bc013a01bc023a01bc013a01bc0301030101bc013a02bc033a02bc013a01bc023a01bc013a01bc03010100020101bc013a02bc033a02bc013a01bc023a01bc013a01bc02010100020012010200"
        },
        {
          "transactionType": "CREATE",
          "contractName": null,
          "address": "0xa0dfbdb143cf3c7450469c21b785e25920ee3da8",
          "initCode": "0x61008180600c6000396000f300091b0f0502001201020001000201014a012c024a032c024a012c014a022c014a012c014a020101000301014a012c024a032c024a012c014a022c014a012c014a03010301014a012c024a032c024a012c014a022c014a012c014a030101000201014a012c024a032c024a012c014a022c014a012c014a02010100020012010200"
        },
        {
          "transactionType": "CREATE",
          "contractName": null,
          "address": "0xce48312632266bdcdf10812317e382767c585939",
          "initCode": "0x61008180600c6000396000f300091b0f050200120102000100020101d6015902d6035902d6015901d6025901d6015901d602010100030101d6015902d6035902d6015901d6025901d6015901d60301030101d6015902d6035902d6015901d6025901d6015901d603010100020101d6015902d6035902d6015901d6025901d6015901d602010100020012010200"
        },
        {
          "transactionType": "CREATE",
          "contractName": null,
          "address": "0xcdea28fb1af1d94d1d5d1389239ef17ca6189bbb",
          "initCode": "0x61003d80600c6000396000f300091b0f050200120102000100020103260bd9022602010100030110260301030103440b5c0244030101000201033b0b44023b02010100020012010200"
        },
        {
          "transactionType": "CREATE",
          "contractName": null,
          "address": "0x9bf2f97349954e5c92d1693390b9854ba5b59e54",
          "initCode": "0x61004580600c6000396000f300091b0f0502001201020001000201041d09cc031d020101000301025f016a0b1d016a015f03010301073c035f063c03010100020102e70d3c01e702010100020012010200"
        },
        {
          "transactionType": "CREATE",
          "contractName": null,
          "address": "0xa422e8656cd5537c9691374a797a52935f8d76e6",
          "initCode": "0x61005180600c6000396000f300091b0f0502001201020001000201047c02da036406ff0143020101000301047c02da036406ff014303010301047c02da036406ff0143030101000201047c02da036406ff014302010100020012010200"
        },
        {
          "transactionType": "CREATE",
          "contractName": null,
          "address": "0x09a3cce42d8a48fd34c908fc5483902c1189b241",
          "initCode": "0x61008180600c6000396000f300091b0f0502001201020001000201023a015b0165025901fc022c018c015a0237011e0285020101000301023a015b0165025901fc022c018c015a0237011e028503010301023a015b0165025901fc022c018c015a0237011e0285030101000201023a015b0165025901fc022c018c015a0237011e028502010100020012010200"
        },
        {
          "transactionType": "CREATE",
          "contractName": null,
          "address": "0x7925bc9cf1683ebacca4b6a977dd3ef3e1068e98",
          "initCode": "0x61004180600c6000396000f300091b0f0502001201020001000201016a0f1d020101000301023c065f016a065f013c0301030101e70f3c03010100020102460de7014602010100020012010200"
        }
      ],
      "isFixedGasLimit": false
    },
    {
      "hash": "0x0e85c0e8589e4b37d1faca2839d4c7da6d671a6b3a80ff896d18e69df8fa6a61",
      "transactionType": "CALL",
      "contractName": null,
      "contractAddress": "0xc45f4894f769602e1fdc888c935b294188a98064",
      "function": "addManySpecs(bytes[])",
      "arguments": [
        "[0x091b0f0502001201020001000201106702010100030110ff0301030110ff030101000201012e051405ff051402010100020012010200, 0x091b0f0502001201020001000201102c020101000301102c0301030102e50d2c01e5030101000201018c0fe502010100020012010200, 0x091b0f0502001201020001000201045409d5035402010100030104bd095403bd0301030110bd03010100020110bd02010100020012010200, 0x091b0f0502001201020001000201084a012c074a020101000301074a032c064a03010301074a032c064a030101000201084a012c074a02010100020012010200, 0x091b0f05020012010200010002010845017c07450201010003010745037c0645030103010745037c06450301010002010845017c074502010100020012010200, 0x091b0f0502001201020001000201105a020101000301105a03010301105a030101000201103702010100020012010200, 0x091b0f0502001201020001000201057c04c303ca043a020101000301057c04c303ca043a03010301057c04c303ca043a030101000201057c04c303ca043a02010100020012010200, 0x091b0f05020012010200010002010263043a04ba043a02630201010003010263043a04ba043a0263030103010263043a04ba043a02630301010002010263043a04ba043a026302010100020012010200, 0x091b0f050200120102000100020102e5042c04c4042c028c02010100030102e5042c04c4042c028c0301030102e5042c04c4042c028c03010100020102e5042c04c4042c028c02010100020012010200, 0x091b0f0502001201020001000201065904d60659020101000301065904d6065903010301065904d60659030101000201065904d6065902010100020012010200]"
      ],
      "transaction": {
        "from": "0xf17b5dd382b048ff4c05c1c9e4e24cfc5c6adad9",
        "to": "0xc45f4894f769602e1fdc888c935b294188a98064",
        "gas": "0x106b99",
        "value": "0x0",
        "input": "0xb0b529dd0000000000000000000000000000000000000000000000000000000000000020000000000000000000000000000000000000000000000000000000000000000a000000000000000000000000000000000000000000000000000000000000014000000000000000000000000000000000000000000000000000000000000001a00000000000000000000000000000000000000000000000000000000000000200000000000000000000000000000000000000000000000000000000000000026000000000000000000000000000000000000000000000000000000000000002c0000000000000000000000000000000000000000000000000000000000000032000000000000000000000000000000000000000000000000000000000000003800000000000000000000000000000000000000000000000000000000000000400000000000000000000000000000000000000000000000000000000000000048000000000000000000000000000000000000000000000000000000000000005000000000000000000000000000000000000000000000000000000000000000036091b0f0502001201020001000201106702010100030110ff0301030110ff030101000201012e051405ff051402010100020012010200000000000000000000000000000000000000000000000000000000000000000000000000000000000036091b0f0502001201020001000201102c020101000301102c0301030102e50d2c01e5030101000201018c0fe502010100020012010200000000000000000000000000000000000000000000000000000000000000000000000000000000000038091b0f0502001201020001000201045409d5035402010100030104bd095403bd0301030110bd03010100020110bd0201010002001201020000000000000000000000000000000000000000000000000000000000000000000000000000000040091b0f0502001201020001000201084a012c074a020101000301074a032c064a03010301074a032c064a030101000201084a012c074a020101000200120102000000000000000000000000000000000000000000000000000000000000000040091b0f05020012010200010002010845017c07450201010003010745037c0645030103010745037c06450301010002010845017c0745020101000200120102000000000000000000000000000000000000000000000000000000000000000030091b0f0502001201020001000201105a020101000301105a03010301105a030101000201103702010100020012010200000000000000000000000000000000000000000000000000000000000000000000000000000000000000000000000048091b0f0502001201020001000201057c04c303ca043a020101000301057c04c303ca043a03010301057c04c303ca043a030101000201057c04c303ca043a020101000200120102000000000000000000000000000000000000000000000000000000000000000000000000000000000000000000000000000000000000000050091b0f05020012010200010002010263043a04ba043a02630201010003010263043a04ba043a0263030103010263043a04ba043a02630301010002010263043a04ba043a026302010100020012010200000000000000000000000000000000000000000000000000000000000000000000000000000000000000000000000050091b0f050200120102000100020102e5042c04c4042c028c02010100030102e5042c04c4042c028c0301030102e5042c04c4042c028c03010100020102e5042c04c4042c028c02010100020012010200000000000000000000000000000000000000000000000000000000000000000000000000000000000000000000000040091b0f0502001201020001000201065904d60659020101000301065904d6065903010301065904d60659030101000201065904d6065902010100020012010200",
        "nonce": "0x22",
        "chainId": "0x2105"
      },
      "additionalContracts": [
        {
          "transactionType": "CREATE",
          "contractName": null,
          "address": "0x28ad9a1532cae13e29203277d70cd617387d18f4",
          "initCode": "0x61003780600c6000396000f300091b0f0502001201020001000201106702010100030110ff0301030110ff030101000201012e051405ff051402010100020012010200"
        },
        {
          "transactionType": "CREATE",
          "contractName": null,
          "address": "0x85c4bd2dd1dd65ff9175d1d9082d80e53e117d1e",
          "initCode": "0x61003780600c6000396000f300091b0f0502001201020001000201102c020101000301102c0301030102e50d2c01e5030101000201018c0fe502010100020012010200"
        },
        {
          "transactionType": "CREATE",
          "contractName": null,
          "address": "0x5a36153064a1afa230ba93f1e4ad4dfdb801bd73",
          "initCode": "0x61003980600c6000396000f300091b0f0502001201020001000201045409d5035402010100030104bd095403bd0301030110bd03010100020110bd02010100020012010200"
        },
        {
          "transactionType": "CREATE",
          "contractName": null,
          "address": "0x3da4efe0d9b837bd44317268757124a7510f9c7b",
          "initCode": "0x61004180600c6000396000f300091b0f0502001201020001000201084a012c074a020101000301074a032c064a03010301074a032c064a030101000201084a012c074a02010100020012010200"
        },
        {
          "transactionType": "CREATE",
          "contractName": null,
          "address": "0x16953ab050370d830ffef5be84c73f5b39ee8001",
          "initCode": "0x61004180600c6000396000f300091b0f05020012010200010002010845017c07450201010003010745037c0645030103010745037c06450301010002010845017c074502010100020012010200"
        },
        {
          "transactionType": "CREATE",
          "contractName": null,
          "address": "0xf7983571e4ae7fecd1e00f2bf888da24b95d1158",
          "initCode": "0x61003180600c6000396000f300091b0f0502001201020001000201105a020101000301105a03010301105a030101000201103702010100020012010200"
        },
        {
          "transactionType": "CREATE",
          "contractName": null,
          "address": "0xaa0da72b8995548c0ba18b4c080554a7e55273df",
          "initCode": "0x61004980600c6000396000f300091b0f0502001201020001000201057c04c303ca043a020101000301057c04c303ca043a03010301057c04c303ca043a030101000201057c04c303ca043a02010100020012010200"
        },
        {
          "transactionType": "CREATE",
          "contractName": null,
          "address": "0x205aeea124f9a2263f5765cc4376155000c97bf2",
          "initCode": "0x61005180600c6000396000f300091b0f05020012010200010002010263043a04ba043a02630201010003010263043a04ba043a0263030103010263043a04ba043a02630301010002010263043a04ba043a026302010100020012010200"
        },
        {
          "transactionType": "CREATE",
          "contractName": null,
          "address": "0x0c6f3030b1f64885e9a31bb09001c167cc62bc87",
          "initCode": "0x61005180600c6000396000f300091b0f050200120102000100020102e5042c04c4042c028c02010100030102e5042c04c4042c028c0301030102e5042c04c4042c028c03010100020102e5042c04c4042c028c02010100020012010200"
        },
        {
          "transactionType": "CREATE",
          "contractName": null,
          "address": "0x125dda41504eb87beb674a8da3fe7868600f9a23",
          "initCode": "0x61004180600c6000396000f300091b0f0502001201020001000201065904d60659020101000301065904d6065903010301065904d60659030101000201065904d6065902010100020012010200"
        }
      ],
      "isFixedGasLimit": false
    },
    {
      "hash": "0x97ca6a58cb4225791a7703d95f3d146a99dc78965d50ad2140bc343197f19664",
      "transactionType": "CALL",
      "contractName": null,
      "contractAddress": "0xc45f4894f769602e1fdc888c935b294188a98064",
      "function": "addManySpecs(bytes[])",
      "arguments": [
        "[0x091b0f050200120102000100020102bc013a0abc013a02bc02010100030101bc033a08bc033a01bc0301030101bc033a08bc033a01bc03010100020102bc013a0abc013a02bc02010100020012010200, 0x091b0f0502001201020001000201024a012c0a4a012c024a020101000301014a032c084a032c014a03010301014a032c084a032c014a030101000201024a012c0a4a012c024a02010100020012010200, 0x091b0f05020012010200010002010245017c0a45017c02450201010003010145037c0845037c0145030103010145037c0845037c01450301010002010245017c0a45017c024502010100020012010200, 0x091b0f0502001201020001000201047c03c302ca073a020101000301047c03c302ca073a03010301047c03c302ca073a030101000201047c03c302ca073a02010100020012010200, 0x091b0f050200120102000100020110c302010100030110c30301030110db03010100020110db02010100020012010200, 0x091b0f0502001201020001000201043a095b033a020101000301103a03010301103a0301010002010763033a066302010100020012010200, 0x091b0f0502001201020001000201083a08bc020101000301083a08bc03010301083a08bc030101000201083a08bc02010100020012010200, 0x091b0f0502001201020001000201084a082c020101000301084a082c03010301084a082c030101000201084a082c02010100020012010200, 0x091b0f0502001201020001000201103a020101000301103a0301030110ca030101000201076303ca066302010100020012010200, 0x091b0f0502001201020001000201108502010100030103640b850264030103011064030101000201106402010100020012010200]"
      ],
      "transaction": {
        "from": "0xf17b5dd382b048ff4c05c1c9e4e24cfc5c6adad9",
        "to": "0xc45f4894f769602e1fdc888c935b294188a98064",
        "gas": "0xf7de4",
        "value": "0x0",
        "input": "0xb0b529dd0000000000000000000000000000000000000000000000000000000000000020000000000000000000000000000000000000000000000000000000000000000a000000000000000000000000000000000000000000000000000000000000014000000000000000000000000000000000000000000000000000000000000001c0000000000000000000000000000000000000000000000000000000000000024000000000000000000000000000000000000000000000000000000000000002c0000000000000000000000000000000000000000000000000000000000000034000000000000000000000000000000000000000000000000000000000000003a00000000000000000000000000000000000000000000000000000000000000400000000000000000000000000000000000000000000000000000000000000046000000000000000000000000000000000000000000000000000000000000004c000000000000000000000000000000000000000000000000000000000000005200000000000000000000000000000000000000000000000000000000000000050091b0f050200120102000100020102bc013a0abc013a02bc02010100030101bc033a08bc033a01bc0301030101bc033a08bc033a01bc03010100020102bc013a0abc013a02bc02010100020012010200000000000000000000000000000000000000000000000000000000000000000000000000000000000000000000000050091b0f0502001201020001000201024a012c0a4a012c024a020101000301014a032c084a032c014a03010301014a032c084a032c014a030101000201024a012c0a4a012c024a02010100020012010200000000000000000000000000000000000000000000000000000000000000000000000000000000000000000000000050091b0f05020012010200010002010245017c0a45017c02450201010003010145037c0845037c0145030103010145037c0845037c01450301010002010245017c0a45017c024502010100020012010200000000000000000000000000000000000000000000000000000000000000000000000000000000000000000000000048091b0f0502001201020001000201047c03c302ca073a020101000301047c03c302ca073a03010301047c03c302ca073a030101000201047c03c302ca073a020101000200120102000000000000000000000000000000000000000000000000000000000000000000000000000000000000000000000000000000000000000030091b0f050200120102000100020110c302010100030110c30301030110db03010100020110db02010100020012010200000000000000000000000000000000000000000000000000000000000000000000000000000000000000000000000038091b0f0502001201020001000201043a095b033a020101000301103a03010301103a0301010002010763033a06630201010002001201020000000000000000000000000000000000000000000000000000000000000000000000000000000038091b0f0502001201020001000201083a08bc020101000301083a08bc03010301083a08bc030101000201083a08bc0201010002001201020000000000000000000000000000000000000000000000000000000000000000000000000000000038091b0f0502001201020001000201084a082c020101000301084a082c03010301084a082c030101000201084a082c0201010002001201020000000000000000000000000000000000000000000000000000000000000000000000000000000034091b0f0502001201020001000201103a020101000301103a0301030110ca030101000201076303ca0663020101000200120102000000000000000000000000000000000000000000000000000000000000000000000000000000000000000034091b0f0502001201020001000201108502010100030103640b850264030103011064030101000201106402010100020012010200000000000000000000000000",
        "nonce": "0x23",
        "chainId": "0x2105"
      },
      "additionalContracts": [
        {
          "transactionType": "CREATE",
          "contractName": null,
          "address": "0x24fe89731113b4e082e9d899f6d86487823256ff",
          "initCode": "0x61005180600c6000396000f300091b0f050200120102000100020102bc013a0abc013a02bc02010100030101bc033a08bc033a01bc0301030101bc033a08bc033a01bc03010100020102bc013a0abc013a02bc02010100020012010200"
        },
        {
          "transactionType": "CREATE",
          "contractName": null,
          "address": "0x88188c050fad2dee66323c23b00e3739459815a5",
          "initCode": "0x61005180600c6000396000f300091b0f0502001201020001000201024a012c0a4a012c024a020101000301014a032c084a032c014a03010301014a032c084a032c014a030101000201024a012c0a4a012c024a02010100020012010200"
        },
        {
          "transactionType": "CREATE",
          "contractName": null,
          "address": "0x70f903bd73080e2dfd214c558d983d9d119b1f39",
          "initCode": "0x61005180600c6000396000f300091b0f05020012010200010002010245017c0a45017c02450201010003010145037c0845037c0145030103010145037c0845037c01450301010002010245017c0a45017c024502010100020012010200"
        },
        {
          "transactionType": "CREATE",
          "contractName": null,
          "address": "0xac6fb6ded46d7e9e420a2cb5854b83a8e87cf879",
          "initCode": "0x61004980600c6000396000f300091b0f0502001201020001000201047c03c302ca073a020101000301047c03c302ca073a03010301047c03c302ca073a030101000201047c03c302ca073a02010100020012010200"
        },
        {
          "transactionType": "CREATE",
          "contractName": null,
          "address": "0xf7e0351d98c97a423369d20d58814292d9363fbb",
          "initCode": "0x61003180600c6000396000f300091b0f050200120102000100020110c302010100030110c30301030110db03010100020110db02010100020012010200"
        },
        {
          "transactionType": "CREATE",
          "contractName": null,
          "address": "0x9174a9246d8303e6a5d8f048c550cfbb407d7a92",
          "initCode": "0x61003980600c6000396000f300091b0f0502001201020001000201043a095b033a020101000301103a03010301103a0301010002010763033a066302010100020012010200"
        },
        {
          "transactionType": "CREATE",
          "contractName": null,
          "address": "0x6fd1c813ce869f54af2cfc5a8d0bac25eedf55f3",
          "initCode": "0x61003980600c6000396000f300091b0f0502001201020001000201083a08bc020101000301083a08bc03010301083a08bc030101000201083a08bc02010100020012010200"
        },
        {
          "transactionType": "CREATE",
          "contractName": null,
          "address": "0x3c739b588ceb8ed72fbda9c366cec7034f39f482",
          "initCode": "0x61003980600c6000396000f300091b0f0502001201020001000201084a082c020101000301084a082c03010301084a082c030101000201084a082c02010100020012010200"
        },
        {
          "transactionType": "CREATE",
          "contractName": null,
          "address": "0xbea7b01cc23cf3d1b6e8bdeb48838084e531a7a5",
          "initCode": "0x61003580600c6000396000f300091b0f0502001201020001000201103a020101000301103a0301030110ca030101000201076303ca066302010100020012010200"
        },
        {
          "transactionType": "CREATE",
          "contractName": null,
          "address": "0xbbb320b8623b8cae8cd1fe1d51239e18cc82d61a",
          "initCode": "0x61003580600c6000396000f300091b0f0502001201020001000201108502010100030103640b850264030103011064030101000201106402010100020012010200"
        }
      ],
      "isFixedGasLimit": false
    },
    {
      "hash": "0x47b91ac0285a7538efc21dedc02f0fd67820476c7f48faf1e5fe164facf4cc72",
      "transactionType": "CALL",
      "contractName": null,
      "contractAddress": "0xc45f4894f769602e1fdc888c935b294188a98064",
      "function": "addManySpecs(bytes[])",
      "arguments": [
        "[0x091b0f050200120102000100020106df052b05df02010100030110df030103011051030101000201046c0951036c02010100020012010200, 0x091b0f05020012010200010002010105032b05df025102e5032c0201010003010105032b05df025102e5032c030103010105032b05df025102e5032c0301010002010105032b05df025102e5032c02010100020012010200, 0x091b0f0502001201020001000201041e09d5031e020101000301101e03010301101e03010100020104b8091e03b802010100020012010200, 0x091b0f050200120102000100020107d5034f06d502010100030110d50301030102090d54010903010100020108bd010907bd02010100020012010200, 0x091b0f05020012010200010002010665055b05650201010003011065030103011065030101000201036f0b65026f02010100020012010200, 0x091b0f0502001201020001000201057c0b45020101000301057c0b4503010301057c0b45030101000201057c0b4502010100020012010200, 0x091b0f0502001201020001000201093a07bc020101000301093a07bc03010301093a07bc030101000201093a07bc02010100020012010200, 0x091b0f05020012010200010002010d2c034a0201010003010d2c034a030103010d2c034a0301010002010d2c034a02010100020012010200, 0x091b0f050200120102000100020110590201010003011059030103011059030101000201105902010100020012010200, 0x091b0f050200120102000100020110d7020101000301061005d705100301030103b80b2202b803010100020110b802010100020012010200]"
      ],
      "transaction": {
        "from": "0xf17b5dd382b048ff4c05c1c9e4e24cfc5c6adad9",
        "to": "0xc45f4894f769602e1fdc888c935b294188a98064",
        "gas": "0xf4729",
        "value": "0x0",
        "input": "0xb0b529dd0000000000000000000000000000000000000000000000000000000000000020000000000000000000000000000000000000000000000000000000000000000a000000000000000000000000000000000000000000000000000000000000014000000000000000000000000000000000000000000000000000000000000001a00000000000000000000000000000000000000000000000000000000000000220000000000000000000000000000000000000000000000000000000000000028000000000000000000000000000000000000000000000000000000000000002e0000000000000000000000000000000000000000000000000000000000000034000000000000000000000000000000000000000000000000000000000000003a00000000000000000000000000000000000000000000000000000000000000400000000000000000000000000000000000000000000000000000000000000046000000000000000000000000000000000000000000000000000000000000004c00000000000000000000000000000000000000000000000000000000000000038091b0f050200120102000100020106df052b05df02010100030110df030103011051030101000201046c0951036c0201010002001201020000000000000000000000000000000000000000000000000000000000000000000000000000000058091b0f05020012010200010002010105032b05df025102e5032c0201010003010105032b05df025102e5032c030103010105032b05df025102e5032c0301010002010105032b05df025102e5032c0201010002001201020000000000000000000000000000000000000000000000000000000000000000000000000000000038091b0f0502001201020001000201041e09d5031e020101000301101e03010301101e03010100020104b8091e03b8020101000200120102000000000000000000000000000000000000000000000000000000000000000000000000000000003c091b0f050200120102000100020107d5034f06d502010100030110d50301030102090d54010903010100020108bd010907bd02010100020012010200000000000000000000000000000000000000000000000000000000000000000000000038091b0f05020012010200010002010665055b05650201010003011065030103011065030101000201036f0b65026f0201010002001201020000000000000000000000000000000000000000000000000000000000000000000000000000000038091b0f0502001201020001000201057c0b45020101000301057c0b4503010301057c0b45030101000201057c0b450201010002001201020000000000000000000000000000000000000000000000000000000000000000000000000000000038091b0f0502001201020001000201093a07bc020101000301093a07bc03010301093a07bc030101000201093a07bc0201010002001201020000000000000000000000000000000000000000000000000000000000000000000000000000000038091b0f05020012010200010002010d2c034a0201010003010d2c034a030103010d2c034a0301010002010d2c034a0201010002001201020000000000000000000000000000000000000000000000000000000000000000000000000000000030091b0f050200120102000100020110590201010003011059030103011059030101000201105902010100020012010200000000000000000000000000000000000000000000000000000000000000000000000000000000000000000000000038091b0f050200120102000100020110d7020101000301061005d705100301030103b80b2202b803010100020110b8020101000200120102000000000000000000",
        "nonce": "0x24",
        "chainId": "0x2105"
      },
      "additionalContracts": [
        {
          "transactionType": "CREATE",
          "contractName": null,
          "address": "0xa6f0a0050a408dc7ca7c2e5afd4896d33b9b4dfd",
          "initCode": "0x61003980600c6000396000f300091b0f050200120102000100020106df052b05df02010100030110df030103011051030101000201046c0951036c02010100020012010200"
        },
        {
          "transactionType": "CREATE",
          "contractName": null,
          "address": "0xfd5ba87f6c067db441f2ea886ed0c57f33f1599e",
          "initCode": "0x61005980600c6000396000f300091b0f05020012010200010002010105032b05df025102e5032c0201010003010105032b05df025102e5032c030103010105032b05df025102e5032c0301010002010105032b05df025102e5032c02010100020012010200"
        },
        {
          "transactionType": "CREATE",
          "contractName": null,
          "address": "0x7ecbdcea5591a66c5dee71b61f76d396555f849c",
          "initCode": "0x61003980600c6000396000f300091b0f0502001201020001000201041e09d5031e020101000301101e03010301101e03010100020104b8091e03b802010100020012010200"
        },
        {
          "transactionType": "CREATE",
          "contractName": null,
          "address": "0x4d63f99def30ad1e8309ad6dbf717f976bacd94f",
          "initCode": "0x61003d80600c6000396000f300091b0f050200120102000100020107d5034f06d502010100030110d50301030102090d54010903010100020108bd010907bd02010100020012010200"
        },
        {
          "transactionType": "CREATE",
          "contractName": null,
          "address": "0x11333a499c965a8c9985b7549a1cf29f84125cc6",
          "initCode": "0x61003980600c6000396000f300091b0f05020012010200010002010665055b05650201010003011065030103011065030101000201036f0b65026f02010100020012010200"
        },
        {
          "transactionType": "CREATE",
          "contractName": null,
          "address": "0xc20e64d740efee389e20f9301d8446999100a31d",
          "initCode": "0x61003980600c6000396000f300091b0f0502001201020001000201057c0b45020101000301057c0b4503010301057c0b45030101000201057c0b4502010100020012010200"
        },
        {
          "transactionType": "CREATE",
          "contractName": null,
          "address": "0x3b86231864a3f017bbb1e8a71b6444e40183fd2e",
          "initCode": "0x61003980600c6000396000f300091b0f0502001201020001000201093a07bc020101000301093a07bc03010301093a07bc030101000201093a07bc02010100020012010200"
        },
        {
          "transactionType": "CREATE",
          "contractName": null,
          "address": "0x60e9d3e116cc2319d9cc64f1defe320383b80bc3",
          "initCode": "0x61003980600c6000396000f300091b0f05020012010200010002010d2c034a0201010003010d2c034a030103010d2c034a0301010002010d2c034a02010100020012010200"
        },
        {
          "transactionType": "CREATE",
          "contractName": null,
          "address": "0x44c0769358325673f88e141030543fe5fa92b3b9",
          "initCode": "0x61003180600c6000396000f300091b0f050200120102000100020110590201010003011059030103011059030101000201105902010100020012010200"
        },
        {
          "transactionType": "CREATE",
          "contractName": null,
          "address": "0x2a26ac142408241019d4c6c5da5cffc8448f05f9",
          "initCode": "0x61003980600c6000396000f300091b0f050200120102000100020110d7020101000301061005d705100301030103b80b2202b803010100020110b802010100020012010200"
        }
      ],
      "isFixedGasLimit": false
    },
    {
      "hash": "0xf94c5ae3945ecd00baa972f7364aa7e139facdf1e8d753a4201cd320fb0cb523",
      "transactionType": "CALL",
      "contractName": null,
      "contractAddress": "0xc45f4894f769602e1fdc888c935b294188a98064",
      "function": "addManySpecs(bytes[])",
      "arguments": [
        "[0x091b0f0502001201020001000201066c0551056c020101000301106c03010301062a056c052a030101000201102a02010100020012010200, 0x091b0f05020012010200010002011059020101000301105903010301105903010100020110fc02010100020012010200, 0x091b0f05020012010200010002010163013a01bc0163013a016301bc0263013a0263013a011702630201010003010163013a01bc0163013a016301bc0263013a0263013a01170263030103010163013a01bc0163013a016301bc0263013a0263013a011702630301010002010163013a01bc0163013a016301bc0263013a0263013a0117026302010100020012010200, 0x091b0f050200120102000100020101c401e501c4022c018c012c01e5024a018c012c03c4018c02010100030101c401e501c4022c018c012c01e5024a018c012c03c4018c0301030101c401e501c4022c018c012c01e5024a018c012c03c4018c03010100020101c401e501c4022c018c012c01e5024a018c012c03c4018c02010100020012010200, 0x091b0f0502001201020001000201075901d6015901d6015901d6035901d6020101000301075901d6015901d6015901d6035901d603010301075901d6015901d6015901d6035901d6030101000201075901d6015901d6015901d6035901d602010100020012010200, 0x091b0f0502001201020001000201038c06e5072c020101000301038c06e5072c03010301038c06e5072c030101000201038c06e5072c02010100020012010200, 0x091b0f050200120102000100020110c802010100030110c8030103011052030101000201105202010100020012010200, 0x091b0f0502001201020001000201066705fd056702010100030103430b6702430301030101fa0f4303010100020110fa02010100020012010200, 0x091b0f0502001201020001000201018802170363053a03630217020101000301018802170363053a0363021703010301018802170363053a03630217030101000201018802170363053a0363021702010100020012010200, 0x091b0f050200120102000100020104c4018c01e5052c01e5018c03c402010100030104c4018c01e5052c01e5018c03c40301030104c4018c01e5052c01e5018c03c403010100020104c4018c01e5052c01e5018c03c402010100020012010200]"
      ],
      "transaction": {
        "from": "0xf17b5dd382b048ff4c05c1c9e4e24cfc5c6adad9",
        "to": "0xc45f4894f769602e1fdc888c935b294188a98064",
        "gas": "0x1077f4",
        "value": "0x0",
        "input": "0xb0b529dd0000000000000000000000000000000000000000000000000000000000000020000000000000000000000000000000000000000000000000000000000000000a000000000000000000000000000000000000000000000000000000000000014000000000000000000000000000000000000000000000000000000000000001a0000000000000000000000000000000000000000000000000000000000000020000000000000000000000000000000000000000000000000000000000000002c000000000000000000000000000000000000000000000000000000000000003800000000000000000000000000000000000000000000000000000000000000420000000000000000000000000000000000000000000000000000000000000048000000000000000000000000000000000000000000000000000000000000004e0000000000000000000000000000000000000000000000000000000000000054000000000000000000000000000000000000000000000000000000000000005c00000000000000000000000000000000000000000000000000000000000000038091b0f0502001201020001000201066c0551056c020101000301106c03010301062a056c052a030101000201102a0201010002001201020000000000000000000000000000000000000000000000000000000000000000000000000000000030091b0f05020012010200010002011059020101000301105903010301105903010100020110fc02010100020012010200000000000000000000000000000000000000000000000000000000000000000000000000000000000000000000000090091b0f05020012010200010002010163013a01bc0163013a016301bc0263013a0263013a011702630201010003010163013a01bc0163013a016301bc0263013a0263013a01170263030103010163013a01bc0163013a016301bc0263013a0263013a011702630301010002010163013a01bc0163013a016301bc0263013a0263013a0117026302010100020012010200000000000000000000000000000000000000000000000000000000000000000000000000000000000000000000000088091b0f050200120102000100020101c401e501c4022c018c012c01e5024a018c012c03c4018c02010100030101c401e501c4022c018c012c01e5024a018c012c03c4018c0301030101c401e501c4022c018c012c01e5024a018c012c03c4018c03010100020101c401e501c4022c018c012c01e5024a018c012c03c4018c020101000200120102000000000000000000000000000000000000000000000000000000000000000000000000000000000000000000000000000000000000000068091b0f0502001201020001000201075901d6015901d6015901d6035901d6020101000301075901d6015901d6015901d6035901d603010301075901d6015901d6015901d6035901d6030101000201075901d6015901d6015901d6035901d6020101000200120102000000000000000000000000000000000000000000000000000000000000000000000000000000000000000000000000000000000000000040091b0f0502001201020001000201038c06e5072c020101000301038c06e5072c03010301038c06e5072c030101000201038c06e5072c020101000200120102000000000000000000000000000000000000000000000000000000000000000030091b0f050200120102000100020110c802010100030110c803010301105203010100020110520201010002001201020000000000000000000000000000000000000000000000000000000000000000000000000000000000000000000000003a091b0f0502001201020001000201066705fd056702010100030103430b6702430301030101fa0f4303010100020110fa020101000200120102000000000000000000000000000000000000000000000000000000000000000000000000000058091b0f0502001201020001000201018802170363053a03630217020101000301018802170363053a0363021703010301018802170363053a03630217030101000201018802170363053a036302170201010002001201020000000000000000000000000000000000000000000000000000000000000000000000000000000060091b0f050200120102000100020104c4018c01e5052c01e5018c03c402010100030104c4018c01e5052c01e5018c03c40301030104c4018c01e5052c01e5018c03c403010100020104c4018c01e5052c01e5018c03c402010100020012010200",
        "nonce": "0x25",
        "chainId": "0x2105"
      },
      "additionalContracts": [
        {
          "transactionType": "CREATE",
          "contractName": null,
          "address": "0xf26747cbd04bccaf2e63dd5da97db679816d55c0",
          "initCode": "0x61003980600c6000396000f300091b0f0502001201020001000201066c0551056c020101000301106c03010301062a056c052a030101000201102a02010100020012010200"
        },
        {
          "transactionType": "CREATE",
          "contractName": null,
          "address": "0x75e96cf0935f61c148a5a3e033b355025dfd7d36",
          "initCode": "0x61003180600c6000396000f300091b0f05020012010200010002011059020101000301105903010301105903010100020110fc02010100020012010200"
        },
        {
          "transactionType": "CREATE",
          "contractName": null,
          "address": "0x8b219fbc2faf766240fb944900fdf70a16ba6749",
          "initCode": "0x61009180600c6000396000f300091b0f05020012010200010002010163013a01bc0163013a016301bc0263013a0263013a011702630201010003010163013a01bc0163013a016301bc0263013a0263013a01170263030103010163013a01bc0163013a016301bc0263013a0263013a011702630301010002010163013a01bc0163013a016301bc0263013a0263013a0117026302010100020012010200"
        },
        {
          "transactionType": "CREATE",
          "contractName": null,
          "address": "0xe201c1b4bfc29837f0319ee7fd68c2863c1f5d73",
          "initCode": "0x61008980600c6000396000f300091b0f050200120102000100020101c401e501c4022c018c012c01e5024a018c012c03c4018c02010100030101c401e501c4022c018c012c01e5024a018c012c03c4018c0301030101c401e501c4022c018c012c01e5024a018c012c03c4018c03010100020101c401e501c4022c018c012c01e5024a018c012c03c4018c02010100020012010200"
        },
        {
          "transactionType": "CREATE",
          "contractName": null,
          "address": "0x7b6d7570583ac9fbb3f54941f0465ef3072c2a17",
          "initCode": "0x61006980600c6000396000f300091b0f0502001201020001000201075901d6015901d6015901d6035901d6020101000301075901d6015901d6015901d6035901d603010301075901d6015901d6015901d6035901d6030101000201075901d6015901d6015901d6035901d602010100020012010200"
        },
        {
          "transactionType": "CREATE",
          "contractName": null,
          "address": "0xb136a758078de0aca5df1a3474380c51303c85ec",
          "initCode": "0x61004180600c6000396000f300091b0f0502001201020001000201038c06e5072c020101000301038c06e5072c03010301038c06e5072c030101000201038c06e5072c02010100020012010200"
        },
        {
          "transactionType": "CREATE",
          "contractName": null,
          "address": "0x66967f4f86b111422a07cdb4413827151a02ab30",
          "initCode": "0x61003180600c6000396000f300091b0f050200120102000100020110c802010100030110c8030103011052030101000201105202010100020012010200"
        },
        {
          "transactionType": "CREATE",
          "contractName": null,
          "address": "0x408e4b5f7c5f5ce9a7fb0a3462e97fd75dbafbd8",
          "initCode": "0x61003b80600c6000396000f300091b0f0502001201020001000201066705fd056702010100030103430b6702430301030101fa0f4303010100020110fa02010100020012010200"
        },
        {
          "transactionType": "CREATE",
          "contractName": null,
          "address": "0x6bfa56e92df12f48f930b8adf097483f3555504b",
          "initCode": "0x61005980600c6000396000f300091b0f0502001201020001000201018802170363053a03630217020101000301018802170363053a0363021703010301018802170363053a03630217030101000201018802170363053a0363021702010100020012010200"
        },
        {
          "transactionType": "CREATE",
          "contractName": null,
          "address": "0x290ee37b10f5966935b3e85fe2844a421d4b42b4",
          "initCode": "0x61006180600c6000396000f300091b0f050200120102000100020104c4018c01e5052c01e5018c03c402010100030104c4018c01e5052c01e5018c03c40301030104c4018c01e5052c01e5018c03c403010100020104c4018c01e5052c01e5018c03c402010100020012010200"
        }
      ],
      "isFixedGasLimit": false
    },
    {
      "hash": "0xf1cb3f0f06151e3def849f5a4f11ac05c6242bcd83f2c74a8e2635a0a9cc8023",
      "transactionType": "CALL",
      "contractName": null,
      "contractAddress": "0xc45f4894f769602e1fdc888c935b294188a98064",
      "function": "addManySpecs(bytes[])",
      "arguments": [
        "[0x091b0f050200120102000100020104d6095903d602010100030104d6095903d60301030104d6095903d603010100020104d6095903d602010100020012010200, 0x091b0f05020012010200010002010745037c06450201010003010745037c0645030103010745037c06450301010002010745037c064502010100020012010200, 0x091b0f05020012010200010002010256039d0196029e019c029e0196039d015602010100030101aa030701a9019b029a0148029a019b01a9030703010301017002ab02a0029f031a029f02a002ab03010100020102ad037201a1057101a1037201ad02010100020012010200, 0x091b0f050200120102000100020110df0201010003011051030103011075030101000201077b0375067b02010100020012010200, 0x091b0f0502001201020001000201083a081e020101000301083a081e03010301083a081e030101000201083a081e02010100020012010200, 0x091b0f0502001201020001000201082c083a020101000301082c083a03010301082c083a030101000201082c083a02010100020012010200, 0x091b0f05020012010200010002010859087c0201010003010859087c030103010859087c0301010002010859087c02010100020012010200, 0x091b0f05020012010200010002010867082c0201010003010867082c030103010867082c0301010002010867082c02010100020012010200, 0x091b0f0502001201020001000201087c0837020101000301087c083703010301087c0837030101000201087c083702010100020012010200, 0x091b0f05020012010200010002010802088c0201010003010802088c030103010802088c0301010002010802088c02010100020012010200]"
      ],
      "transaction": {
        "from": "0xf17b5dd382b048ff4c05c1c9e4e24cfc5c6adad9",
        "to": "0xc45f4894f769602e1fdc888c935b294188a98064",
        "gas": "0xf7295",
        "value": "0x0",
        "input": "0xb0b529dd0000000000000000000000000000000000000000000000000000000000000020000000000000000000000000000000000000000000000000000000000000000a000000000000000000000000000000000000000000000000000000000000014000000000000000000000000000000000000000000000000000000000000001a0000000000000000000000000000000000000000000000000000000000000020000000000000000000000000000000000000000000000000000000000000002a00000000000000000000000000000000000000000000000000000000000000300000000000000000000000000000000000000000000000000000000000000036000000000000000000000000000000000000000000000000000000000000003c00000000000000000000000000000000000000000000000000000000000000420000000000000000000000000000000000000000000000000000000000000048000000000000000000000000000000000000000000000000000000000000004e00000000000000000000000000000000000000000000000000000000000000040091b0f050200120102000100020104d6095903d602010100030104d6095903d60301030104d6095903d603010100020104d6095903d6020101000200120102000000000000000000000000000000000000000000000000000000000000000040091b0f05020012010200010002010745037c06450201010003010745037c0645030103010745037c06450301010002010745037c064502010100020012010200000000000000000000000000000000000000000000000000000000000000006c091b0f05020012010200010002010256039d0196029e019c029e0196039d015602010100030101aa030701a9019b029a0148029a019b01a9030703010301017002ab02a0029f031a029f02a002ab03010100020102ad037201a1057101a1037201ad0201010002001201020000000000000000000000000000000000000000000000000000000000000000000000000000000000000000000000000000000034091b0f050200120102000100020110df0201010003011051030103011075030101000201077b0375067b020101000200120102000000000000000000000000000000000000000000000000000000000000000000000000000000000000000038091b0f0502001201020001000201083a081e020101000301083a081e03010301083a081e030101000201083a081e0201010002001201020000000000000000000000000000000000000000000000000000000000000000000000000000000038091b0f0502001201020001000201082c083a020101000301082c083a03010301082c083a030101000201082c083a0201010002001201020000000000000000000000000000000000000000000000000000000000000000000000000000000038091b0f05020012010200010002010859087c0201010003010859087c030103010859087c0301010002010859087c0201010002001201020000000000000000000000000000000000000000000000000000000000000000000000000000000038091b0f05020012010200010002010867082c0201010003010867082c030103010867082c0301010002010867082c0201010002001201020000000000000000000000000000000000000000000000000000000000000000000000000000000038091b0f0502001201020001000201087c0837020101000301087c083703010301087c0837030101000201087c08370201010002001201020000000000000000000000000000000000000000000000000000000000000000000000000000000038091b0f05020012010200010002010802088c0201010003010802088c030103010802088c0301010002010802088c020101000200120102000000000000000000",
        "nonce": "0x26",
        "chainId": "0x2105"
      },
      "additionalContracts": [
        {
          "transactionType": "CREATE",
          "contractName": null,
          "address": "0xaea7a940ec3af5fc0250883d93c54b03a4bad6cd",
          "initCode": "0x61004180600c6000396000f300091b0f050200120102000100020104d6095903d602010100030104d6095903d60301030104d6095903d603010100020104d6095903d602010100020012010200"
        },
        {
          "transactionType": "CREATE",
          "contractName": null,
          "address": "0x6e11cc2f31245f4f130bf08dfe736744ec101ca6",
          "initCode": "0x61004180600c6000396000f300091b0f05020012010200010002010745037c06450201010003010745037c0645030103010745037c06450301010002010745037c064502010100020012010200"
        },
        {
          "transactionType": "CREATE",
          "contractName": null,
          "address": "0x8959473c584ea0f6862f7c0f47822f2c688ea927",
          "initCode": "0x61006d80600c6000396000f300091b0f05020012010200010002010256039d0196029e019c029e0196039d015602010100030101aa030701a9019b029a0148029a019b01a9030703010301017002ab02a0029f031a029f02a002ab03010100020102ad037201a1057101a1037201ad02010100020012010200"
        },
        {
          "transactionType": "CREATE",
          "contractName": null,
          "address": "0x4255349dfefe5f40ef66b807fc96c230f5ff063b",
          "initCode": "0x61003580600c6000396000f300091b0f050200120102000100020110df0201010003011051030103011075030101000201077b0375067b02010100020012010200"
        },
        {
          "transactionType": "CREATE",
          "contractName": null,
          "address": "0xc7688ba7192486bfed55ac56e8e5ad9614c53055",
          "initCode": "0x61003980600c6000396000f300091b0f0502001201020001000201083a081e020101000301083a081e03010301083a081e030101000201083a081e02010100020012010200"
        },
        {
          "transactionType": "CREATE",
          "contractName": null,
          "address": "0xea8cfadbb588f3a934b6552e4f84f0eb176d52be",
          "initCode": "0x61003980600c6000396000f300091b0f0502001201020001000201082c083a020101000301082c083a03010301082c083a030101000201082c083a02010100020012010200"
        },
        {
          "transactionType": "CREATE",
          "contractName": null,
          "address": "0x4309d9ef05d416c2edd88044495d3ab6ff65b8fe",
          "initCode": "0x61003980600c6000396000f300091b0f05020012010200010002010859087c0201010003010859087c030103010859087c0301010002010859087c02010100020012010200"
        },
        {
          "transactionType": "CREATE",
          "contractName": null,
          "address": "0xe23ad0f8a67020427136cb9c53d625f1ff0a1714",
          "initCode": "0x61003980600c6000396000f300091b0f05020012010200010002010867082c0201010003010867082c030103010867082c0301010002010867082c02010100020012010200"
        },
        {
          "transactionType": "CREATE",
          "contractName": null,
          "address": "0x8f1038fb4e34ea25ac855192e819d83352343c95",
          "initCode": "0x61003980600c6000396000f300091b0f0502001201020001000201087c0837020101000301087c083703010301087c0837030101000201087c083702010100020012010200"
        },
        {
          "transactionType": "CREATE",
          "contractName": null,
          "address": "0x97023f9d988bcad766ac00a0151977c5e1b1f0e9",
          "initCode": "0x61003980600c6000396000f300091b0f05020012010200010002010802088c0201010003010802088c030103010802088c0301010002010802088c02010100020012010200"
        }
      ],
      "isFixedGasLimit": false
    },
    {
      "hash": "0x7aedb965b25453147954d51c188f057dd36b2044492bf03fa7aa6c5b493d9513",
      "transactionType": "CALL",
      "contractName": null,
      "contractAddress": "0xc45f4894f769602e1fdc888c935b294188a98064",
      "function": "addManySpecs(bytes[])",
      "arguments": [
        "[0x091b0f050200120102000100020106100534051002010100030110100301030108c401b807c403010100020107d1034c06d102010100020012010200, 0x091b0f050200120102000100020102bc023a02bc023a02bc023a02bc023a02010100030102bc023a02bc023a02bc023a02bc023a0301030102bc023a02bc023a02bc023a02bc023a03010100020102bc023a02bc023a02bc023a02bc023a02010100020012010200, 0x091b0f0502001201020001000201024a022c024a022c024a022c024a022c020101000301024a022c024a022c024a022c024a022c03010301024a022c024a022c024a022c024a022c030101000201024a022c024a022c024a022c024a022c02010100020012010200, 0x091b0f0502001201020001000201015901d6015901d6015901d6015901d6015901d6015901d6015901d6015901d6020101000301015901d6015901d6015901d6015901d6015901d6015901d6015901d6015901d603010301015901d6015901d6015901d6015901d6015901d6015901d6015901d6015901d6030101000201015901d6015901d6015901d6015901d6015901d6015901d6015901d6015901d602010100020012010200, 0x091b0f0502001201020001000201017c0345037c0345037c0345020101000301017c0345037c0345037c034503010301017c0345037c0345037c0345030101000201017c0345037c0345037c034502010100020012010200, 0x091b0f0502001201020001000201038902de03a5011103a502de028902010100030101820f890301030103670b820267030101000201104b02010100020012010200, 0x091b0f050200120102000100020104c3031405fa04bd02010100030104c3031405fa04bd0301030104c3031405fa04bd03010100020104c3031405fa04bd02010100020012010200, 0x091b0f050200120102000100020110c802010100030108cc018607cc03010301071d03cc061d030101000201106a02010100020012010200, 0x091b0f0502001201020001000201018c0fe502010100030103c40b8c02c40301030110c403010100020110c402010100020012010200, 0x091b0f050200120102000100020102590865055b013a02010100030102590865055b013a0301030102590865055b013a03010100020102590865055b013a02010100020012010200]"
      ],
      "transaction": {
        "from": "0xf17b5dd382b048ff4c05c1c9e4e24cfc5c6adad9",
        "to": "0xc45f4894f769602e1fdc888c935b294188a98064",
        "gas": "0x1174af",
        "value": "0x0",
        "input": "0xb0b529dd0000000000000000000000000000000000000000000000000000000000000020000000000000000000000000000000000000000000000000000000000000000a000000000000000000000000000000000000000000000000000000000000014000000000000000000000000000000000000000000000000000000000000001a0000000000000000000000000000000000000000000000000000000000000024000000000000000000000000000000000000000000000000000000000000002e000000000000000000000000000000000000000000000000000000000000003c0000000000000000000000000000000000000000000000000000000000000044000000000000000000000000000000000000000000000000000000000000004c0000000000000000000000000000000000000000000000000000000000000054000000000000000000000000000000000000000000000000000000000000005a00000000000000000000000000000000000000000000000000000000000000600000000000000000000000000000000000000000000000000000000000000003c091b0f050200120102000100020106100534051002010100030110100301030108c401b807c403010100020107d1034c06d102010100020012010200000000000000000000000000000000000000000000000000000000000000000000000068091b0f050200120102000100020102bc023a02bc023a02bc023a02bc023a02010100030102bc023a02bc023a02bc023a02bc023a0301030102bc023a02bc023a02bc023a02bc023a03010100020102bc023a02bc023a02bc023a02bc023a020101000200120102000000000000000000000000000000000000000000000000000000000000000000000000000000000000000000000000000000000000000068091b0f0502001201020001000201024a022c024a022c024a022c024a022c020101000301024a022c024a022c024a022c024a022c03010301024a022c024a022c024a022c024a022c030101000201024a022c024a022c024a022c024a022c0201010002001201020000000000000000000000000000000000000000000000000000000000000000000000000000000000000000000000000000000000000000a8091b0f0502001201020001000201015901d6015901d6015901d6015901d6015901d6015901d6015901d6015901d6020101000301015901d6015901d6015901d6015901d6015901d6015901d6015901d6015901d603010301015901d6015901d6015901d6015901d6015901d6015901d6015901d6015901d6030101000201015901d6015901d6015901d6015901d6015901d6015901d6015901d6015901d6020101000200120102000000000000000000000000000000000000000000000000000000000000000000000000000000000000000000000000000000000000000058091b0f0502001201020001000201017c0345037c0345037c0345020101000301017c0345037c0345037c034503010301017c0345037c0345037c0345030101000201017c0345037c0345037c03450201010002001201020000000000000000000000000000000000000000000000000000000000000000000000000000000042091b0f0502001201020001000201038902de03a5011103a502de028902010100030101820f890301030103670b820267030101000201104b020101000200120102000000000000000000000000000000000000000000000000000000000000000000000000000000000000000000000000000000000000000000000000000048091b0f050200120102000100020104c3031405fa04bd02010100030104c3031405fa04bd0301030104c3031405fa04bd03010100020104c3031405fa04bd020101000200120102000000000000000000000000000000000000000000000000000000000000000000000000000000000000000000000000000000000000000038091b0f050200120102000100020110c802010100030108cc018607cc03010301071d03cc061d030101000201106a0201010002001201020000000000000000000000000000000000000000000000000000000000000000000000000000000036091b0f0502001201020001000201018c0fe502010100030103c40b8c02c40301030110c403010100020110c402010100020012010200000000000000000000000000000000000000000000000000000000000000000000000000000000000048091b0f050200120102000100020102590865055b013a02010100030102590865055b013a0301030102590865055b013a03010100020102590865055b013a02010100020012010200000000000000000000000000000000000000000000000000",
        "nonce": "0x27",
        "chainId": "0x2105"
      },
      "additionalContracts": [
        {
          "transactionType": "CREATE",
          "contractName": null,
          "address": "0xf47b3687e3ca4fbfde5b42e58b77a9ff9a9b5285",
          "initCode": "0x61003d80600c6000396000f300091b0f050200120102000100020106100534051002010100030110100301030108c401b807c403010100020107d1034c06d102010100020012010200"
        },
        {
          "transactionType": "CREATE",
          "contractName": null,
          "address": "0x2d307886472dedbf53cbb6b68499fcecd8f48af8",
          "initCode": "0x61006980600c6000396000f300091b0f050200120102000100020102bc023a02bc023a02bc023a02bc023a02010100030102bc023a02bc023a02bc023a02bc023a0301030102bc023a02bc023a02bc023a02bc023a03010100020102bc023a02bc023a02bc023a02bc023a02010100020012010200"
        },
        {
          "transactionType": "CREATE",
          "contractName": null,
          "address": "0x3d5d769d142f063ede0ea866f20fda453f39cdf9",
          "initCode": "0x61006980600c6000396000f300091b0f0502001201020001000201024a022c024a022c024a022c024a022c020101000301024a022c024a022c024a022c024a022c03010301024a022c024a022c024a022c024a022c030101000201024a022c024a022c024a022c024a022c02010100020012010200"
        },
        {
          "transactionType": "CREATE",
          "contractName": null,
          "address": "0x3171ad42ded3e0918b69fd0d43d6ea18d5bc918f",
          "initCode": "0x6100a980600c6000396000f300091b0f0502001201020001000201015901d6015901d6015901d6015901d6015901d6015901d6015901d6015901d6020101000301015901d6015901d6015901d6015901d6015901d6015901d6015901d6015901d603010301015901d6015901d6015901d6015901d6015901d6015901d6015901d6015901d6030101000201015901d6015901d6015901d6015901d6015901d6015901d6015901d6015901d602010100020012010200"
        },
        {
          "transactionType": "CREATE",
          "contractName": null,
          "address": "0xf17a8c255a0fba6347445ed88de988e78b7d3e95",
          "initCode": "0x61005980600c6000396000f300091b0f0502001201020001000201017c0345037c0345037c0345020101000301017c0345037c0345037c034503010301017c0345037c0345037c0345030101000201017c0345037c0345037c034502010100020012010200"
        },
        {
          "transactionType": "CREATE",
          "contractName": null,
          "address": "0x93ffa99f719ea3caf08d7d429e98b88dc88413f1",
          "initCode": "0x61004380600c6000396000f300091b0f0502001201020001000201038902de03a5011103a502de028902010100030101820f890301030103670b820267030101000201104b02010100020012010200"
        },
        {
          "transactionType": "CREATE",
          "contractName": null,
          "address": "0x49d5b95310d3340be9093852f5266d61909f26ef",
          "initCode": "0x61004980600c6000396000f300091b0f050200120102000100020104c3031405fa04bd02010100030104c3031405fa04bd0301030104c3031405fa04bd03010100020104c3031405fa04bd02010100020012010200"
        },
        {
          "transactionType": "CREATE",
          "contractName": null,
          "address": "0xe59bd17a0b9603bc93b9846bfea5e4d04a99dcc2",
          "initCode": "0x61003980600c6000396000f300091b0f050200120102000100020110c802010100030108cc018607cc03010301071d03cc061d030101000201106a02010100020012010200"
        },
        {
          "transactionType": "CREATE",
          "contractName": null,
          "address": "0x9dbfc1da892d34823ba9610cb884c95967bf05ae",
          "initCode": "0x61003780600c6000396000f300091b0f0502001201020001000201018c0fe502010100030103c40b8c02c40301030110c403010100020110c402010100020012010200"
        },
        {
          "transactionType": "CREATE",
          "contractName": null,
          "address": "0xd4d99230ce312b5fbd37d44e5f2000612bad16c2",
          "initCode": "0x61004980600c6000396000f300091b0f050200120102000100020102590865055b013a02010100030102590865055b013a0301030102590865055b013a03010100020102590865055b013a02010100020012010200"
        }
      ],
      "isFixedGasLimit": false
    },
    {
      "hash": "0xf1733b0d88d928920659118834601c92a197811ce7178de5bdc3344c31d69b67",
      "transactionType": "CALL",
      "contractName": null,
      "contractAddress": "0xc45f4894f769602e1fdc888c935b294188a98064",
      "function": "addManySpecs(bytes[])",
      "arguments": [
        "[0x091b0f0502001201020001000201101e020101000301101e03010301101e030101000201101e02010100020012010200, 0x091b0f050200120102000100020110d5020101000301051e07d5041e03010301101e03010100020104bd091e03bd02010100020012010200, 0x091b0f0502001201020001000201100202010100030101de0523013e0318013e052303010301042f02a6058902a6032f030101000201051c0750041c02010100020012010200, 0x091b0f0502001201020001000201013a016301cd01bc01cd0163023a016302bc0117033a0117020101000301013a016301cd01bc01cd0163023a016302bc0117033a011703010301013a016301cd01bc01cd0163023a016302bc0117033a0117030101000201013a016301cd01bc01cd0163023a016302bc0117033a011702010100020012010200, 0x091b0f0502001201020001000201032c02c4024a02c4042c02c4014a020101000301032c02c4024a02c4042c02c4014a03010301032c02c4024a02c4042c02c4014a030101000201032c02c4024a02c4042c02c4014a02010100020012010200, 0x091b0f0502001201020001000201055907d60459020101000301055907d6045903010301055907d60459030101000201055907d6045902010100020012010200, 0x091b0f0502001201020001000201100202010100030101a402180b0202180301030101a60256029d0196029e019c029e0196029d0256030101000201030701a9019b029a0348029a019b01a9020702010100020012010200]"
      ],
      "transaction": {
        "from": "0xf17b5dd382b048ff4c05c1c9e4e24cfc5c6adad9",
        "to": "0xc45f4894f769602e1fdc888c935b294188a98064",
        "gas": "0xc42c3",
        "value": "0x0",
        "input": "0xb0b529dd0000000000000000000000000000000000000000000000000000000000000020000000000000000000000000000000000000000000000000000000000000000700000000000000000000000000000000000000000000000000000000000000e0000000000000000000000000000000000000000000000000000000000000014000000000000000000000000000000000000000000000000000000000000001a0000000000000000000000000000000000000000000000000000000000000022000000000000000000000000000000000000000000000000000000000000002e0000000000000000000000000000000000000000000000000000000000000036000000000000000000000000000000000000000000000000000000000000003c00000000000000000000000000000000000000000000000000000000000000030091b0f0502001201020001000201101e020101000301101e03010301101e030101000201101e02010100020012010200000000000000000000000000000000000000000000000000000000000000000000000000000000000000000000000038091b0f050200120102000100020110d5020101000301051e07d5041e03010301101e03010100020104bd091e03bd0201010002001201020000000000000000000000000000000000000000000000000000000000000000000000000000000046091b0f0502001201020001000201100202010100030101de0523013e0318013e052303010301042f02a6058902a6032f030101000201051c0750041c0201010002001201020000000000000000000000000000000000000000000000000000000000000000000000000000000000000000000000000000000000000000000088091b0f0502001201020001000201013a016301cd01bc01cd0163023a016302bc0117033a0117020101000301013a016301cd01bc01cd0163023a016302bc0117033a011703010301013a016301cd01bc01cd0163023a016302bc0117033a0117030101000201013a016301cd01bc01cd0163023a016302bc0117033a0117020101000200120102000000000000000000000000000000000000000000000000000000000000000000000000000000000000000000000000000000000000000060091b0f0502001201020001000201032c02c4024a02c4042c02c4014a020101000301032c02c4024a02c4042c02c4014a03010301032c02c4024a02c4042c02c4014a030101000201032c02c4024a02c4042c02c4014a020101000200120102000000000000000000000000000000000000000000000000000000000000000040091b0f0502001201020001000201055907d60459020101000301055907d6045903010301055907d60459030101000201055907d60459020101000200120102000000000000000000000000000000000000000000000000000000000000000058091b0f0502001201020001000201100202010100030101a402180b0202180301030101a60256029d0196029e019c029e0196029d0256030101000201030701a9019b029a0348029a019b01a90207020101000200120102000000000000000000",
        "nonce": "0x28",
        "chainId": "0x2105"
      },
      "additionalContracts": [
        {
          "transactionType": "CREATE",
          "contractName": null,
          "address": "0xe8a5499bae70c2a1c9859cc75da595a760a7d179",
          "initCode": "0x61003180600c6000396000f300091b0f0502001201020001000201101e020101000301101e03010301101e030101000201101e02010100020012010200"
        },
        {
          "transactionType": "CREATE",
          "contractName": null,
          "address": "0x6d793feba9b2b5148ecdf6f206858dab361dd510",
          "initCode": "0x61003980600c6000396000f300091b0f050200120102000100020110d5020101000301051e07d5041e03010301101e03010100020104bd091e03bd02010100020012010200"
        },
        {
          "transactionType": "CREATE",
          "contractName": null,
          "address": "0x416818c556a1e1ed91e7e863a9069f54d9bf5723",
          "initCode": "0x61004780600c6000396000f300091b0f0502001201020001000201100202010100030101de0523013e0318013e052303010301042f02a6058902a6032f030101000201051c0750041c02010100020012010200"
        },
        {
          "transactionType": "CREATE",
          "contractName": null,
          "address": "0xb6daacf1d878ea3cf8c682bf37a50bdfbccad021",
          "initCode": "0x61008980600c6000396000f300091b0f0502001201020001000201013a016301cd01bc01cd0163023a016302bc0117033a0117020101000301013a016301cd01bc01cd0163023a016302bc0117033a011703010301013a016301cd01bc01cd0163023a016302bc0117033a0117030101000201013a016301cd01bc01cd0163023a016302bc0117033a011702010100020012010200"
        },
        {
          "transactionType": "CREATE",
          "contractName": null,
          "address": "0x99283160f3550dca1f48acd529da294e57cdf9b7",
          "initCode": "0x61006180600c6000396000f300091b0f0502001201020001000201032c02c4024a02c4042c02c4014a020101000301032c02c4024a02c4042c02c4014a03010301032c02c4024a02c4042c02c4014a030101000201032c02c4024a02c4042c02c4014a02010100020012010200"
        },
        {
          "transactionType": "CREATE",
          "contractName": null,
          "address": "0xda55b404f1b60fa67831e79dc75aaf93051d064c",
          "initCode": "0x61004180600c6000396000f300091b0f0502001201020001000201055907d60459020101000301055907d6045903010301055907d60459030101000201055907d6045902010100020012010200"
        },
        {
          "transactionType": "CREATE",
          "contractName": null,
          "address": "0xc434e6571d26d522c05d36e3a02932fe1d9006c2",
          "initCode": "0x61005980600c6000396000f300091b0f0502001201020001000201100202010100030101a402180b0202180301030101a60256029d0196029e019c029e0196029d0256030101000201030701a9019b029a0348029a019b01a9020702010100020012010200"
        }
      ],
      "isFixedGasLimit": false
    }
  ],
  "receipts": [
    {
      "status": "0x1",
      "cumulativeGasUsed": "0x1d84d3c",
      "logs": [],
      "logsBloom": "0x00000000000000000000000000000000000000000000000000000000000000000000000000000000000000000000000000000000000000000000000000000000000000000000000000000000000000000000000000000000000000000000000000000000000000000000000000000000000000000000000000000000000000000000000000000000000000000000000000000000000000000000000000000000000000000000000000000000000000000000000000000000000000000000000000000000000000000000000000000000000000000000000000000000000000000000000000000000000000000000000000000000000000000000000000000000",
      "type": "0x2",
      "transactionHash": "0xbc871eb3d865cc5c539cc9afb097dfdca1e49a490e491d016ec833aa00e19bd3",
      "transactionIndex": "0x9b",
      "blockHash": "0x0000000000000000000000000000000000000000000000000000000000000000",
      "blockNumber": "0x27efae4",
      "gasUsed": "0xc645b",
      "effectiveGasPrice": "0x4925bd",
      "blobGasUsed": "0x10c3a",
      "from": "0xf17b5dd382b048ff4c05c1c9e4e24cfc5c6adad9",
      "to": "0xc45f4894f769602e1fdc888c935b294188a98064",
      "contractAddress": null,
      "daFootprintGasScalar": "0x8b",
      "l1BaseFeeScalar": "0x8dd",
      "l1BlobBaseFee": "0x30cce6",
      "l1BlobBaseFeeScalar": "0x101c12",
      "l1Fee": "0x41b45e25",
      "l1GasPrice": "0x377c962",
      "l1GasUsed": "0x1ee7"
    },
    {
      "status": "0x1",
      "cumulativeGasUsed": "0x3065646",
      "logs": [],
      "logsBloom": "0x00000000000000000000000000000000000000000000000000000000000000000000000000000000000000000000000000000000000000000000000000000000000000000000000000000000000000000000000000000000000000000000000000000000000000000000000000000000000000000000000000000000000000000000000000000000000000000000000000000000000000000000000000000000000000000000000000000000000000000000000000000000000000000000000000000000000000000000000000000000000000000000000000000000000000000000000000000000000000000000000000000000000000000000000000000000",
      "type": "0x2",
      "transactionHash": "0x0e85c0e8589e4b37d1faca2839d4c7da6d671a6b3a80ff896d18e69df8fa6a61",
      "transactionIndex": "0x6a",
      "blockHash": "0x0000000000000000000000000000000000000000000000000000000000000000",
      "blockNumber": "0x27efae5",
      "gasUsed": "0xb3a42",
      "effectiveGasPrice": "0x49176a",
      "blobGasUsed": "0xe74e",
      "from": "0xf17b5dd382b048ff4c05c1c9e4e24cfc5c6adad9",
      "to": "0xc45f4894f769602e1fdc888c935b294188a98064",
      "contractAddress": null,
      "daFootprintGasScalar": "0x8b",
      "l1BaseFeeScalar": "0x8dd",
      "l1BlobBaseFee": "0x30cce6",
      "l1BlobBaseFeeScalar": "0x101c12",
      "l1Fee": "0x29131d17",
      "l1GasPrice": "0x377c962",
      "l1GasUsed": "0x1aab"
    },
    {
      "status": "0x1",
      "cumulativeGasUsed": "0x36d1fa2",
      "logs": [],
      "logsBloom": "0x00000000000000000000000000000000000000000000000000000000000000000000000000000000000000000000000000000000000000000000000000000000000000000000000000000000000000000000000000000000000000000000000000000000000000000000000000000000000000000000000000000000000000000000000000000000000000000000000000000000000000000000000000000000000000000000000000000000000000000000000000000000000000000000000000000000000000000000000000000000000000000000000000000000000000000000000000000000000000000000000000000000000000000000000000000000",
      "type": "0x2",
      "transactionHash": "0x97ca6a58cb4225791a7703d95f3d146a99dc78965d50ad2140bc343197f19664",
      "transactionIndex": "0xfc",
      "blockHash": "0x545dc10a49236d41d7cf568c8608d6dc69929f42345b9cfeffdd6c072abd792c",
      "blockNumber": "0x27efae6",
      "gasUsed": "0xb373d",
      "effectiveGasPrice": "0x49716a",
      "blobGasUsed": "0xd930",
      "from": "0xf17b5dd382b048ff4c05c1c9e4e24cfc5c6adad9",
      "to": "0xc45f4894f769602e1fdc888c935b294188a98064",
      "contractAddress": null,
      "daFootprintGasScalar": "0x8b",
      "l1BaseFeeScalar": "0x8dd",
      "l1BlobBaseFee": "0x30cce6",
      "l1BlobBaseFeeScalar": "0x101c12",
      "l1Fee": "0x831c5204",
      "l1GasPrice": "0x377c962",
      "l1GasUsed": "0x190c"
    },
    {
      "status": "0x1",
      "cumulativeGasUsed": "0x395509b",
      "logs": [],
      "logsBloom": "0x00000000000000000000000000000000000000000000000000000000000000000000000000000000000000000000000000000000000000000000000000000000000000000000000000000000000000000000000000000000000000000000000000000000000000000000000000000000000000000000000000000000000000000000000000000000000000000000000000000000000000000000000000000000000000000000000000000000000000000000000000000000000000000000000000000000000000000000000000000000000000000000000000000000000000000000000000000000000000000000000000000000000000000000000000000000",
      "type": "0x2",
      "transactionHash": "0x47b91ac0285a7538efc21dedc02f0fd67820476c7f48faf1e5fe164facf4cc72",
      "transactionIndex": "0x103",
      "blockHash": "0x04516b284b5e871a99d2994c523915b22654a92c4e561460bac9542e8b2aa6e0",
      "blockNumber": "0x27efae7",
      "gasUsed": "0xb0f9d",
      "effectiveGasPrice": "0x49aaf6",
      "blobGasUsed": "0xe2f6",
      "from": "0xf17b5dd382b048ff4c05c1c9e4e24cfc5c6adad9",
      "to": "0xc45f4894f769602e1fdc888c935b294188a98064",
      "contractAddress": null,
      "daFootprintGasScalar": "0x8b",
      "l1BaseFeeScalar": "0x8dd",
      "l1BlobBaseFee": "0x30cce6",
      "l1BlobBaseFeeScalar": "0x101c12",
      "l1Fee": "0x20b72e08",
      "l1GasPrice": "0x377c962",
      "l1GasUsed": "0x1a25"
    },
    {
      "status": "0x1",
      "cumulativeGasUsed": "0x23e497a",
      "logs": [],
      "logsBloom": "0x00000000000000000000000000000000000000000000000000000000000000000000000000000000000000000000000000000000000000000000000000000000000000000000000000000000000000000000000000000000000000000000000000000000000000000000000000000000000000000000000000000000000000000000000000000000000000000000000000000000000000000000000000000000000000000000000000000000000000000000000000000000000000000000000000000000000000000000000000000000000000000000000000000000000000000000000000000000000000000000000000000000000000000000000000000000",
      "type": "0x2",
      "transactionHash": "0xf94c5ae3945ecd00baa972f7364aa7e139facdf1e8d753a4201cd320fb0cb523",
      "transactionIndex": "0x90",
      "blockHash": "0xcbac7fa456984e55d37233d048f6043803a23a2b7b6ccedd007efa14838d1c18",
      "blockNumber": "0x27efae8",
      "gasUsed": "0xbec47",
      "effectiveGasPrice": "0x49cfef",
      "blobGasUsed": "0x1052b",
      "from": "0xf17b5dd382b048ff4c05c1c9e4e24cfc5c6adad9",
      "to": "0xc45f4894f769602e1fdc888c935b294188a98064",
      "contractAddress": null,
      "daFootprintGasScalar": "0x8b",
      "l1BaseFeeScalar": "0x8dd",
      "l1BlobBaseFee": "0x30cce6",
      "l1BlobBaseFeeScalar": "0x101c12",
      "l1Fee": "0x20b72e08",
      "l1GasPrice": "0x377c962",
      "l1GasUsed": "0x1e11"
    },
    {
      "status": "0x1",
      "cumulativeGasUsed": "0x2d05c27",
      "logs": [],
      "logsBloom": "0x00000000000000000000000000000000000000000000000000000000000000000000000000000000000000000000000000000000000000000000000000000000000000000000000000000000000000000000000000000000000000000000000000000000000000000000000000000000000000000000000000000000000000000000000000000000000000000000000000000000000000000000000000000000000000000000000000000000000000000000000000000000000000000000000000000000000000000000000000000000000000000000000000000000000000000000000000000000000000000000000000000000000000000000000000000000",
      "type": "0x2",
      "transactionHash": "0xf1cb3f0f06151e3def849f5a4f11ac05c6242bcd83f2c74a8e2635a0a9cc8023",
      "transactionIndex": "0x98",
      "blockHash": "0x8ce5e7d1e2801b1f3ba6f29194c4bb70de82e89b06c23292049a14cc4216f7da",
      "blockNumber": "0x27efae9",
      "gasUsed": "0xb2f0d",
      "effectiveGasPrice": "0x49dea0",
      "blobGasUsed": "0xe522",
      "from": "0xf17b5dd382b048ff4c05c1c9e4e24cfc5c6adad9",
      "to": "0xc45f4894f769602e1fdc888c935b294188a98064",
      "contractAddress": null,
      "daFootprintGasScalar": "0x8b",
      "l1BaseFeeScalar": "0x8dd",
      "l1BlobBaseFee": "0x321834",
      "l1BlobBaseFeeScalar": "0x101c12",
      "l1Fee": "0x213251bd",
      "l1GasPrice": "0x37411ec",
      "l1GasUsed": "0x1a68"
    },
    {
      "status": "0x1",
      "cumulativeGasUsed": "0x2913bb0",
      "logs": [],
      "logsBloom": "0x00000000000000000000000000000000000000000000000000000000000000000000000000000000000000000000000000000000000000000000000000000000000000000000000000000000000000000000000000000000000000000000000000000000000000000000000000000000000000000000000000000000000000000000000000000000000000000000000000000000000000000000000000000000000000000000000000000000000000000000000000000000000000000000000000000000000000000000000000000000000000000000000000000000000000000000000000000000000000000000000000000000000000000000000000000000",
      "type": "0x2",
      "transactionHash": "0x7aedb965b25453147954d51c188f057dd36b2044492bf03fa7aa6c5b493d9513",
      "transactionIndex": "0xfe",
      "blockHash": "0xfebe72d50dd4b2d68f47ac3f8135ed5fc5f2e814a0cc8d468b3e58920bead210",
      "blockNumber": "0x27efaea",
      "gasUsed": "0xbef83",
      "effectiveGasPrice": "0x49edd3",
      "blobGasUsed": "0xfada",
      "from": "0xf17b5dd382b048ff4c05c1c9e4e24cfc5c6adad9",
      "to": "0xc45f4894f769602e1fdc888c935b294188a98064",
      "contractAddress": null,
      "daFootprintGasScalar": "0x8b",
      "l1BaseFeeScalar": "0x8dd",
      "l1BlobBaseFee": "0x321834",
      "l1BlobBaseFeeScalar": "0x101c12",
      "l1Fee": "0x99965ba8",
      "l1GasPrice": "0x37411ec",
      "l1GasUsed": "0x1cea"
    },
    {
      "status": "0x1",
      "cumulativeGasUsed": "0x2f0019f",
      "logs": [],
      "logsBloom": "0x00000000000000000000000000000000000000000000000000000000000000000000000000000000000000000000000000000000000000000000000000000000000000000000000000000000000000000000000000000000000000000000000000000000000000000000000000000000000000000000000000000000000000000000000000000000000000000000000000000000000000000000000000000000000000000000000000000000000000000000000000000000000000000000000000000000000000000000000000000000000000000000000000000000000000000000000000000000000000000000000000000000000000000000000000000000",
      "type": "0x2",
      "transactionHash": "0xf1733b0d88d928920659118834601c92a197811ce7178de5bdc3344c31d69b67",
      "transactionIndex": "0xea",
      "blockHash": "0x0000000000000000000000000000000000000000000000000000000000000000",
      "blockNumber": "0x27efaeb",
      "gasUsed": "0x8622a",
      "effectiveGasPrice": "0x49ec7c",
      "blobGasUsed": "0xcf6a",
      "from": "0xf17b5dd382b048ff4c05c1c9e4e24cfc5c6adad9",
      "to": "0xc45f4894f769602e1fdc888c935b294188a98064",
      "contractAddress": null,
      "daFootprintGasScalar": "0x8b",
      "l1BaseFeeScalar": "0x8dd",
      "l1BlobBaseFee": "0x321834",
      "l1BlobBaseFeeScalar": "0x101c12",
      "l1Fee": "0x3c018daf",
      "l1GasPrice": "0x37411ec",
      "l1GasUsed": "0x17e5"
    }
  ],
  "libraries": [],
  "pending": [],
  "returns": {},
  "timestamp": 1770541752709,
  "chain": 8453,
  "commit": "0c27293"
}