{
  "transactions": [
    {
      "hash": "0xc6f924ca64e552f046687b5533064b5f681f6ca6af1e86bf9a534f6296f7d7f6",
      "transactionType": "CALL",
      "contractName": null,
      "contractAddress": "0xd29f7491e2269ba1f6f7b89ff3bbe6a65301e9af",
      "function": "addManySpecs(bytes[])",
      "arguments": [
        "[0x091b0f0502001201020001000201103a020101000301103a03010301103a030101000201106302010100020012010200, 0x091b0f050200120102000100020104fc042a057b031e02010100030104fc042a057b031e0301030104fc042a057b031e03010100020104fc042a057b031e02010100020012010200, 0x091b0f050200120102000100020101bc013a02bc033a02bc013a01bc023a01bc013a01bc02010100030101bc013a02bc033a02bc013a01bc023a01bc013a01bc0301030101bc013a02bc033a02bc013a01bc023a01bc013a01bc03010100020101bc013a02bc033a02bc013a01bc023a01bc013a01bc02010100020012010200, 0x091b0f0502001201020001000201014a012c024a032c024a012c014a022c014a012c014a020101000301014a012c024a032c024a012c014a022c014a012c014a03010301014a012c024a032c024a012c014a022c014a012c014a030101000201014a012c024a032c024a012c014a022c014a012c014a02010100020012010200, 0x091b0f050200120102000100020101d6015902d6035902d6015901d6025901d6015901d602010100030101d6015902d6035902d6015901d6025901d6015901d60301030101d6015902d6035902d6015901d6025901d6015901d603010100020101d6015902d6035902d6015901d6025901d6015901d602010100020012010200, 0x091b0f050200120102000100020103260bd9022602010100030110260301030103440b5c0244030101000201033b0b44023b02010100020012010200, 0x091b0f0502001201020001000201041d09cc031d020101000301025f016a0b1d016a015f03010301073c035f063c03010100020102e70d3c01e702010100020012010200, 0x091b0f0502001201020001000201047c02da036406ff0143020101000301047c02da036406ff014303010301047c02da036406ff0143030101000201047c02da036406ff014302010100020012010200, 0x091b0f0502001201020001000201023a015b0165025901fc022c018c015a0237011e0285020101000301023a015b0165025901fc022c018c015a0237011e028503010301023a015b0165025901fc022c018c015a0237011e0285030101000201023a015b0165025901fc022c018c015a0237011e028502010100020012010200, 0x091b0f0502001201020001000201016a0f1d020101000301023c065f016a065f013c0301030101e70f3c03010100020102460de7014602010100020012010200]"
      ],
      "transaction": {
        "from": "0xf17b5dd382b048ff4c05c1c9e4e24cfc5c6adad9",
        "to": "0xd29f7491e2269ba1f6f7b89ff3bbe6a65301e9af",
        "gas": "0x122012",
        "value": "0x0",
        "input": "0xb0b529dd0000000000000000000000000000000000000000000000000000000000000020000000000000000000000000000000000000000000000000000000000000000a000000000000000000000000000000000000000000000000000000000000014000000000000000000000000000000000000000000000000000000000000001a0000000000000000000000000000000000000000000000000000000000000022000000000000000000000000000000000000000000000000000000000000002c000000000000000000000000000000000000000000000000000000000000003600000000000000000000000000000000000000000000000000000000000000400000000000000000000000000000000000000000000000000000000000000046000000000000000000000000000000000000000000000000000000000000004e0000000000000000000000000000000000000000000000000000000000000056000000000000000000000000000000000000000000000000000000000000006000000000000000000000000000000000000000000000000000000000000000030091b0f0502001201020001000201103a020101000301103a03010301103a030101000201106302010100020012010200000000000000000000000000000000000000000000000000000000000000000000000000000000000000000000000048091b0f050200120102000100020104fc042a057b031e02010100030104fc042a057b031e0301030104fc042a057b031e03010100020104fc042a057b031e020101000200120102000000000000000000000000000000000000000000000000000000000000000000000000000000000000000000000000000000000000000080091b0f050200120102000100020101bc013a02bc033a02bc013a01bc023a01bc013a01bc02010100030101bc013a02bc033a02bc013a01bc023a01bc013a01bc0301030101bc013a02bc033a02bc013a01bc023a01bc013a01bc03010100020101bc013a02bc033a02bc013a01bc023a01bc013a01bc020101000200120102000000000000000000000000000000000000000000000000000000000000000080091b0f0502001201020001000201014a012c024a032c024a012c014a022c014a012c014a020101000301014a012c024a032c024a012c014a022c014a012c014a03010301014a012c024a032c024a012c014a022c014a012c014a030101000201014a012c024a032c024a012c014a022c014a012c014a020101000200120102000000000000000000000000000000000000000000000000000000000000000080091b0f050200120102000100020101d6015902d6035902d6015901d6025901d6015901d602010100030101d6015902d6035902d6015901d6025901d6015901d60301030101d6015902d6035902d6015901d6025901d6015901d603010100020101d6015902d6035902d6015901d6025901d6015901d602010100020012010200000000000000000000000000000000000000000000000000000000000000003c091b0f050200120102000100020103260bd9022602010100030110260301030103440b5c0244030101000201033b0b44023b02010100020012010200000000000000000000000000000000000000000000000000000000000000000000000044091b0f0502001201020001000201041d09cc031d020101000301025f016a0b1d016a015f03010301073c035f063c03010100020102e70d3c01e702010100020012010200000000000000000000000000000000000000000000000000000000000000000000000000000000000000000000000000000000000000000000000050091b0f0502001201020001000201047c02da036406ff0143020101000301047c02da036406ff014303010301047c02da036406ff0143030101000201047c02da036406ff014302010100020012010200000000000000000000000000000000000000000000000000000000000000000000000000000000000000000000000080091b0f0502001201020001000201023a015b0165025901fc022c018c015a0237011e0285020101000301023a015b0165025901fc022c018c015a0237011e028503010301023a015b0165025901fc022c018c015a0237011e0285030101000201023a015b0165025901fc022c018c015a0237011e0285020101000200120102000000000000000000000000000000000000000000000000000000000000000040091b0f0502001201020001000201016a0f1d020101000301023c065f016a065f013c0301030101e70f3c03010100020102460de7014602010100020012010200",
        "nonce": "0x90",
        "chainId": "0x2105"
      },
      "additionalContracts": [
        {
          "transactionType": "CREATE",
          "contractName": null,
          "address": "0x32fa3bd52a8b8073052f28ad1d545fc6b3aa73ba",
          "initCode": "0x61003180600c6000396000f300091b0f0502001201020001000201103a020101000301103a03010301103a030101000201106302010100020012010200"
        },
        {
          "transactionType": "CREATE",
          "contractName": null,
          "address": "0x691ef641e760ab07bd5a9f304858d14e6c277a15",
          "initCode": "0x61004980600c6000396000f300091b0f050200120102000100020104fc042a057b031e02010100030104fc042a057b031e0301030104fc042a057b031e03010100020104fc042a057b031e02010100020012010200"
        },
        {
          "transactionType": "CREATE",
          "contractName": null,
          "address": "0x24a5a4df0f308c491b600087a5197b84550c4652",
          "initCode": "0x61008180600c6000396000f300091b0f050200120102000100020101bc013a02bc033a02bc013a01bc023a01bc013a01bc02010100030101bc013a02bc033a02bc013a01bc023a01bc013a01bc0301030101bc013a02bc033a02bc013a01bc023a01bc013a01bc03010100020101bc013a02bc033a02bc013a01bc023a01bc013a01bc02010100020012010200"
        },
        {
          "transactionType": "CREATE",
          "contractName": null,
          "address": "0xcc4f96ce69156e3d612864ff128067fdc6969798",
          "initCode": "0x61008180600c6000396000f300091b0f0502001201020001000201014a012c024a032c024a012c014a022c014a012c014a020101000301014a012c024a032c024a012c014a022c014a012c014a03010301014a012c024a032c024a012c014a022c014a012c014a030101000201014a012c024a032c024a012c014a022c014a012c014a02010100020012010200"
        },
        {
          "transactionType": "CREATE",
          "contractName": null,
          "address": "0x9345da63ff9daf1dd808950dbf5811e170fc80fe",
          "initCode": "0x61008180600c6000396000f300091b0f050200120102000100020101d6015902d6035902d6015901d6025901d6015901d602010100030101d6015902d6035902d6015901d6025901d6015901d60301030101d6015902d6035902d6015901d6025901d6015901d603010100020101d6015902d6035902d6015901d6025901d6015901d602010100020012010200"
        },
        {
          "transactionType": "CREATE",
          "contractName": null,
          "address": "0xf344deb76dd5dd35436fc556d984f03872c85d79",
          "initCode": "0x61003d80600c6000396000f300091b0f050200120102000100020103260bd9022602010100030110260301030103440b5c0244030101000201033b0b44023b02010100020012010200"
        },
        {
          "transactionType": "CREATE",
          "contractName": null,
          "address": "0xd57b5ba95ac095bff7f25c51304488f501223a66",
          "initCode": "0x61004580600c6000396000f300091b0f0502001201020001000201041d09cc031d020101000301025f016a0b1d016a015f03010301073c035f063c03010100020102e70d3c01e702010100020012010200"
        },
        {
          "transactionType": "CREATE",
          "contractName": null,
          "address": "0x253eac666e204b00e2fd22b6d8acf4c60928f2ec",
          "initCode": "0x61005180600c6000396000f300091b0f0502001201020001000201047c02da036406ff0143020101000301047c02da036406ff014303010301047c02da036406ff0143030101000201047c02da036406ff014302010100020012010200"
        },
        {
          "transactionType": "CREATE",
          "contractName": null,
          "address": "0xeaf17aacc2a1bb30804ac45924964b961ae4184c",
          "initCode": "0x61008180600c6000396000f300091b0f0502001201020001000201023a015b0165025901fc022c018c015a0237011e0285020101000301023a015b0165025901fc022c018c015a0237011e028503010301023a015b0165025901fc022c018c015a0237011e0285030101000201023a015b0165025901fc022c018c015a0237011e028502010100020012010200"
        },
        {
          "transactionType": "CREATE",
          "contractName": null,
          "address": "0xdd50730ab0ad2811b65ca21851387a19f5ad4e7c",
          "initCode": "0x61004180600c6000396000f300091b0f0502001201020001000201016a0f1d020101000301023c065f016a065f013c0301030101e70f3c03010100020102460de7014602010100020012010200"
        }
      ],
      "isFixedGasLimit": false
    },
    {
      "hash": "0xb0094c6f59f2ded4610affb86074781ed90e8dd26cdc939709dfeaafd791b421",
      "transactionType": "CALL",
      "contractName": null,
      "contractAddress": "0xd29f7491e2269ba1f6f7b89ff3bbe6a65301e9af",
      "function": "addManySpecs(bytes[])",
      "arguments": [
        "[0x091b0f0502001201020001000201106702010100030110ff0301030110ff030101000201012e051405ff051402010100020012010200, 0x091b0f0502001201020001000201102c020101000301102c0301030102e50d2c01e5030101000201018c0fe502010100020012010200, 0x091b0f0502001201020001000201045409d5035402010100030104bd095403bd0301030110bd03010100020110bd02010100020012010200, 0x091b0f0502001201020001000201084a012c074a020101000301074a032c064a03010301074a032c064a030101000201084a012c074a02010100020012010200, 0x091b0f05020012010200010002010845017c07450201010003010745037c0645030103010745037c06450301010002010845017c074502010100020012010200, 0x091b0f0502001201020001000201105a020101000301105a03010301105a030101000201103702010100020012010200, 0x091b0f0502001201020001000201057c04c303ca043a020101000301057c04c303ca043a03010301057c04c303ca043a030101000201057c04c303ca043a02010100020012010200, 0x091b0f05020012010200010002010263043a04ba043a02630201010003010263043a04ba043a0263030103010263043a04ba043a02630301010002010263043a04ba043a026302010100020012010200, 0x091b0f050200120102000100020102e5042c04c4042c028c02010100030102e5042c04c4042c028c0301030102e5042c04c4042c028c03010100020102e5042c04c4042c028c02010100020012010200, 0x091b0f0502001201020001000201065904d60659020101000301065904d6065903010301065904d60659030101000201065904d6065902010100020012010200]"
      ],
      "transaction": {
        "from": "0xf17b5dd382b048ff4c05c1c9e4e24cfc5c6adad9",
        "to": "0xd29f7491e2269ba1f6f7b89ff3bbe6a65301e9af",
        "gas": "0x106c1a",
        "value": "0x0",
        "input": "0xb0b529dd0000000000000000000000000000000000000000000000000000000000000020000000000000000000000000000000000000000000000000000000000000000a000000000000000000000000000000000000000000000000000000000000014000000000000000000000000000000000000000000000000000000000000001a00000000000000000000000000000000000000000000000000000000000000200000000000000000000000000000000000000000000000000000000000000026000000000000000000000000000000000000000000000000000000000000002c0000000000000000000000000000000000000000000000000000000000000032000000000000000000000000000000000000000000000000000000000000003800000000000000000000000000000000000000000000000000000000000000400000000000000000000000000000000000000000000000000000000000000048000000000000000000000000000000000000000000000000000000000000005000000000000000000000000000000000000000000000000000000000000000036091b0f0502001201020001000201106702010100030110ff0301030110ff030101000201012e051405ff051402010100020012010200000000000000000000000000000000000000000000000000000000000000000000000000000000000036091b0f0502001201020001000201102c020101000301102c0301030102e50d2c01e5030101000201018c0fe502010100020012010200000000000000000000000000000000000000000000000000000000000000000000000000000000000038091b0f0502001201020001000201045409d5035402010100030104bd095403bd0301030110bd03010100020110bd0201010002001201020000000000000000000000000000000000000000000000000000000000000000000000000000000040091b0f0502001201020001000201084a012c074a020101000301074a032c064a03010301074a032c064a030101000201084a012c074a020101000200120102000000000000000000000000000000000000000000000000000000000000000040091b0f05020012010200010002010845017c07450201010003010745037c0645030103010745037c06450301010002010845017c0745020101000200120102000000000000000000000000000000000000000000000000000000000000000030091b0f0502001201020001000201105a020101000301105a03010301105a030101000201103702010100020012010200000000000000000000000000000000000000000000000000000000000000000000000000000000000000000000000048091b0f0502001201020001000201057c04c303ca043a020101000301057c04c303ca043a03010301057c04c303ca043a030101000201057c04c303ca043a020101000200120102000000000000000000000000000000000000000000000000000000000000000000000000000000000000000000000000000000000000000050091b0f05020012010200010002010263043a04ba043a02630201010003010263043a04ba043a0263030103010263043a04ba043a02630301010002010263043a04ba043a026302010100020012010200000000000000000000000000000000000000000000000000000000000000000000000000000000000000000000000050091b0f050200120102000100020102e5042c04c4042c028c02010100030102e5042c04c4042c028c0301030102e5042c04c4042c028c03010100020102e5042c04c4042c028c02010100020012010200000000000000000000000000000000000000000000000000000000000000000000000000000000000000000000000040091b0f0502001201020001000201065904d60659020101000301065904d6065903010301065904d60659030101000201065904d6065902010100020012010200",
        "nonce": "0x91",
        "chainId": "0x2105"
      },
      "additionalContracts": [
        {
          "transactionType": "CREATE",
          "contractName": null,
          "address": "0xe35dee38ed2b92037d91852c016a83f5e881109d",
          "initCode": "0x61003780600c6000396000f300091b0f0502001201020001000201106702010100030110ff0301030110ff030101000201012e051405ff051402010100020012010200"
        },
        {
          "transactionType": "CREATE",
          "contractName": null,
          "address": "0x8abb2d3a5ca83510c6567e84703284c8daf156d6",
          "initCode": "0x61003780600c6000396000f300091b0f0502001201020001000201102c020101000301102c0301030102e50d2c01e5030101000201018c0fe502010100020012010200"
        },
        {
          "transactionType": "CREATE",
          "contractName": null,
          "address": "0x3789f01aa5289d5fd0504bbc2e9477c41e6702d9",
          "initCode": "0x61003980600c6000396000f300091b0f0502001201020001000201045409d5035402010100030104bd095403bd0301030110bd03010100020110bd02010100020012010200"
        },
        {
          "transactionType": "CREATE",
          "contractName": null,
          "address": "0x78819a12ec8e422fbe1614d533f502bfaa9ecca5",
          "initCode": "0x61004180600c6000396000f300091b0f0502001201020001000201084a012c074a020101000301074a032c064a03010301074a032c064a030101000201084a012c074a02010100020012010200"
        },
        {
          "transactionType": "CREATE",
          "contractName": null,
          "address": "0x5ab38bdbd00ce68b2fd69554498400e15a261b05",
          "initCode": "0x61004180600c6000396000f300091b0f05020012010200010002010845017c07450201010003010745037c0645030103010745037c06450301010002010845017c074502010100020012010200"
        },
        {
          "transactionType": "CREATE",
          "contractName": null,
          "address": "0x9be58cd9e0591b3b1fd9d03c70193dd3f976d719",
          "initCode": "0x61003180600c6000396000f300091b0f0502001201020001000201105a020101000301105a03010301105a030101000201103702010100020012010200"
        },
        {
          "transactionType": "CREATE",
          "contractName": null,
          "address": "0x744a273415540b66d20cc95c8c4c9115f7610b75",
          "initCode": "0x61004980600c6000396000f300091b0f0502001201020001000201057c04c303ca043a020101000301057c04c303ca043a03010301057c04c303ca043a030101000201057c04c303ca043a02010100020012010200"
        },
        {
          "transactionType": "CREATE",
          "contractName": null,
          "address": "0x5356b1828750e9500169173046202e7b8c5ed0aa",
          "initCode": "0x61005180600c6000396000f300091b0f05020012010200010002010263043a04ba043a02630201010003010263043a04ba043a0263030103010263043a04ba043a02630301010002010263043a04ba043a026302010100020012010200"
        },
        {
          "transactionType": "CREATE",
          "contractName": null,
          "address": "0x92ab43eece2578f35df997cc31a3975565f5b2b8",
          "initCode": "0x61005180600c6000396000f300091b0f050200120102000100020102e5042c04c4042c028c02010100030102e5042c04c4042c028c0301030102e5042c04c4042c028c03010100020102e5042c04c4042c028c02010100020012010200"
        },
        {
          "transactionType": "CREATE",
          "contractName": null,
          "address": "0x4b7f23db8e6278da92b99ecdcfa03b6cd66ebf2a",
          "initCode": "0x61004180600c6000396000f300091b0f0502001201020001000201065904d60659020101000301065904d6065903010301065904d60659030101000201065904d6065902010100020012010200"
        }
      ],
      "isFixedGasLimit": false
    },
    {
      "hash": "0x3bf620a807e576532fe5bd07740038a9d7be9c6e9cd7becf55b63571b63d8704",
      "transactionType": "CALL",
      "contractName": null,
      "contractAddress": "0xd29f7491e2269ba1f6f7b89ff3bbe6a65301e9af",
      "function": "addManySpecs(bytes[])",
      "arguments": [
        "[0x091b0f050200120102000100020102bc013a0abc013a02bc02010100030101bc033a08bc033a01bc0301030101bc033a08bc033a01bc03010100020102bc013a0abc013a02bc02010100020012010200, 0x091b0f0502001201020001000201024a012c0a4a012c024a020101000301014a032c084a032c014a03010301014a032c084a032c014a030101000201024a012c0a4a012c024a02010100020012010200, 0x091b0f05020012010200010002010245017c0a45017c02450201010003010145037c0845037c0145030103010145037c0845037c01450301010002010245017c0a45017c024502010100020012010200, 0x091b0f0502001201020001000201047c03c302ca073a020101000301047c03c302ca073a03010301047c03c302ca073a030101000201047c03c302ca073a02010100020012010200, 0x091b0f050200120102000100020110c302010100030110c30301030110db03010100020110db02010100020012010200, 0x091b0f0502001201020001000201043a095b033a020101000301103a03010301103a0301010002010763033a066302010100020012010200, 0x091b0f0502001201020001000201083a08bc020101000301083a08bc03010301083a08bc030101000201083a08bc02010100020012010200, 0x091b0f0502001201020001000201084a082c020101000301084a082c03010301084a082c030101000201084a082c02010100020012010200, 0x091b0f0502001201020001000201103a020101000301103a0301030110ca030101000201076303ca066302010100020012010200, 0x091b0f0502001201020001000201108502010100030103640b850264030103011064030101000201106402010100020012010200]"
      ],
      "transaction": {
        "from": "0xf17b5dd382b048ff4c05c1c9e4e24cfc5c6adad9",
        "to": "0xd29f7491e2269ba1f6f7b89ff3bbe6a65301e9af",
        "gas": "0xf7e5f",
        "value": "0x0",
        "input": "0xb0b529dd0000000000000000000000000000000000000000000000000000000000000020000000000000000000000000000000000000000000000000000000000000000a000000000000000000000000000000000000000000000000000000000000014000000000000000000000000000000000000000000000000000000000000001c0000000000000000000000000000000000000000000000000000000000000024000000000000000000000000000000000000000000000000000000000000002c0000000000000000000000000000000000000000000000000000000000000034000000000000000000000000000000000000000000000000000000000000003a00000000000000000000000000000000000000000000000000000000000000400000000000000000000000000000000000000000000000000000000000000046000000000000000000000000000000000000000000000000000000000000004c000000000000000000000000000000000000000000000000000000000000005200000000000000000000000000000000000000000000000000000000000000050091b0f050200120102000100020102bc013a0abc013a02bc02010100030101bc033a08bc033a01bc0301030101bc033a08bc033a01bc03010100020102bc013a0abc013a02bc02010100020012010200000000000000000000000000000000000000000000000000000000000000000000000000000000000000000000000050091b0f0502001201020001000201024a012c0a4a012c024a020101000301014a032c084a032c014a03010301014a032c084a032c014a030101000201024a012c0a4a012c024a02010100020012010200000000000000000000000000000000000000000000000000000000000000000000000000000000000000000000000050091b0f05020012010200010002010245017c0a45017c02450201010003010145037c0845037c0145030103010145037c0845037c01450301010002010245017c0a45017c024502010100020012010200000000000000000000000000000000000000000000000000000000000000000000000000000000000000000000000048091b0f0502001201020001000201047c03c302ca073a020101000301047c03c302ca073a03010301047c03c302ca073a030101000201047c03c302ca073a020101000200120102000000000000000000000000000000000000000000000000000000000000000000000000000000000000000000000000000000000000000030091b0f050200120102000100020110c302010100030110c30301030110db03010100020110db02010100020012010200000000000000000000000000000000000000000000000000000000000000000000000000000000000000000000000038091b0f0502001201020001000201043a095b033a020101000301103a03010301103a0301010002010763033a06630201010002001201020000000000000000000000000000000000000000000000000000000000000000000000000000000038091b0f0502001201020001000201083a08bc020101000301083a08bc03010301083a08bc030101000201083a08bc0201010002001201020000000000000000000000000000000000000000000000000000000000000000000000000000000038091b0f0502001201020001000201084a082c020101000301084a082c03010301084a082c030101000201084a082c0201010002001201020000000000000000000000000000000000000000000000000000000000000000000000000000000034091b0f0502001201020001000201103a020101000301103a0301030110ca030101000201076303ca0663020101000200120102000000000000000000000000000000000000000000000000000000000000000000000000000000000000000034091b0f0502001201020001000201108502010100030103640b850264030103011064030101000201106402010100020012010200000000000000000000000000",
        "nonce": "0x92",
        "chainId": "0x2105"
      },
      "additionalContracts": [
        {
          "transactionType": "CREATE",
          "contractName": null,
          "address": "0xa12ecdf20503d6812dc9ce6e67f41dde3c758303",
          "initCode": "0x61005180600c6000396000f300091b0f050200120102000100020102bc013a0abc013a02bc02010100030101bc033a08bc033a01bc0301030101bc033a08bc033a01bc03010100020102bc013a0abc013a02bc02010100020012010200"
        },
        {
          "transactionType": "CREATE",
          "contractName": null,
          "address": "0xba4ee56ed797b5805ffb040b50e2be52e90911aa",
          "initCode": "0x61005180600c6000396000f300091b0f0502001201020001000201024a012c0a4a012c024a020101000301014a032c084a032c014a03010301014a032c084a032c014a030101000201024a012c0a4a012c024a02010100020012010200"
        },
        {
          "transactionType": "CREATE",
          "contractName": null,
          "address": "0xe32bf453f27b20ed157a4b3f1f959b6a7d26ba3d",
          "initCode": "0x61005180600c6000396000f300091b0f05020012010200010002010245017c0a45017c02450201010003010145037c0845037c0145030103010145037c0845037c01450301010002010245017c0a45017c024502010100020012010200"
        },
        {
          "transactionType": "CREATE",
          "contractName": null,
          "address": "0xaa7f674b658d3512ddfd71570bf241473947ea1e",
          "initCode": "0x61004980600c6000396000f300091b0f0502001201020001000201047c03c302ca073a020101000301047c03c302ca073a03010301047c03c302ca073a030101000201047c03c302ca073a02010100020012010200"
        },
        {
          "transactionType": "CREATE",
          "contractName": null,
          "address": "0x0f13792ab7ae28cca9198bb4a5da712c1c9bfeb3",
          "initCode": "0x61003180600c6000396000f300091b0f050200120102000100020110c302010100030110c30301030110db03010100020110db02010100020012010200"
        },
        {
          "transactionType": "CREATE",
          "contractName": null,
          "address": "0x4154a4966fcc0c5127bd82ec53233ac734d503b0",
          "initCode": "0x61003980600c6000396000f300091b0f0502001201020001000201043a095b033a020101000301103a03010301103a0301010002010763033a066302010100020012010200"
        },
        {
          "transactionType": "CREATE",
          "contractName": null,
          "address": "0xa2c157b13524f020e2a0b3d21ff0ccf3b0157f03",
          "initCode": "0x61003980600c6000396000f300091b0f0502001201020001000201083a08bc020101000301083a08bc03010301083a08bc030101000201083a08bc02010100020012010200"
        },
        {
          "transactionType": "CREATE",
          "contractName": null,
          "address": "0xf9895a5f7cf656ab96022726f488a19f9ceafedb",
          "initCode": "0x61003980600c6000396000f300091b0f0502001201020001000201084a082c020101000301084a082c03010301084a082c030101000201084a082c02010100020012010200"
        },
        {
          "transactionType": "CREATE",
          "contractName": null,
          "address": "0xb1f59e54f616983c1fbc489a5bb56b34648fd9cc",
          "initCode": "0x61003580600c6000396000f300091b0f0502001201020001000201103a020101000301103a0301030110ca030101000201076303ca066302010100020012010200"
        },
        {
          "transactionType": "CREATE",
          "contractName": null,
          "address": "0xbf4bb702ed2ff885a13bf6b01fca867de0d78a8c",
          "initCode": "0x61003580600c6000396000f300091b0f0502001201020001000201108502010100030103640b850264030103011064030101000201106402010100020012010200"
        }
      ],
      "isFixedGasLimit": false
    },
    {
      "hash": "0x51a7716c76eabf6fcd3b8811e2c0c0356c518c5b29f9bb92fe74bb10abbf3412",
      "transactionType": "CALL",
      "contractName": null,
      "contractAddress": "0xd29f7491e2269ba1f6f7b89ff3bbe6a65301e9af",
      "function": "addManySpecs(bytes[])",
      "arguments": [
        "[0x091b0f050200120102000100020106df052b05df02010100030110df030103011051030101000201046c0951036c02010100020012010200, 0x091b0f05020012010200010002010105032b05df025102e5032c0201010003010105032b05df025102e5032c030103010105032b05df025102e5032c0301010002010105032b05df025102e5032c02010100020012010200, 0x091b0f0502001201020001000201041e09d5031e020101000301101e03010301101e03010100020104b8091e03b802010100020012010200, 0x091b0f050200120102000100020107d5034f06d502010100030110d50301030102090d54010903010100020108bd010907bd02010100020012010200, 0x091b0f05020012010200010002010665055b05650201010003011065030103011065030101000201036f0b65026f02010100020012010200, 0x091b0f0502001201020001000201057c0b45020101000301057c0b4503010301057c0b45030101000201057c0b4502010100020012010200, 0x091b0f0502001201020001000201093a07bc020101000301093a07bc03010301093a07bc030101000201093a07bc02010100020012010200, 0x091b0f05020012010200010002010d2c034a0201010003010d2c034a030103010d2c034a0301010002010d2c034a02010100020012010200, 0x091b0f050200120102000100020110590201010003011059030103011059030101000201105902010100020012010200, 0x091b0f050200120102000100020110d7020101000301061005d705100301030103b80b2202b803010100020110b802010100020012010200]"
      ],
      "transaction": {
        "from": "0xf17b5dd382b048ff4c05c1c9e4e24cfc5c6adad9",
        "to": "0xd29f7491e2269ba1f6f7b89ff3bbe6a65301e9af",
        "gas": "0xf47a3",
        "value": "0x0",
        "input": "0xb0b529dd0000000000000000000000000000000000000000000000000000000000000020000000000000000000000000000000000000000000000000000000000000000a000000000000000000000000000000000000000000000000000000000000014000000000000000000000000000000000000000000000000000000000000001a00000000000000000000000000000000000000000000000000000000000000220000000000000000000000000000000000000000000000000000000000000028000000000000000000000000000000000000000000000000000000000000002e0000000000000000000000000000000000000000000000000000000000000034000000000000000000000000000000000000000000000000000000000000003a00000000000000000000000000000000000000000000000000000000000000400000000000000000000000000000000000000000000000000000000000000046000000000000000000000000000000000000000000000000000000000000004c00000000000000000000000000000000000000000000000000000000000000038091b0f050200120102000100020106df052b05df02010100030110df030103011051030101000201046c0951036c0201010002001201020000000000000000000000000000000000000000000000000000000000000000000000000000000058091b0f05020012010200010002010105032b05df025102e5032c0201010003010105032b05df025102e5032c030103010105032b05df025102e5032c0301010002010105032b05df025102e5032c0201010002001201020000000000000000000000000000000000000000000000000000000000000000000000000000000038091b0f0502001201020001000201041e09d5031e020101000301101e03010301101e03010100020104b8091e03b8020101000200120102000000000000000000000000000000000000000000000000000000000000000000000000000000003c091b0f050200120102000100020107d5034f06d502010100030110d50301030102090d54010903010100020108bd010907bd02010100020012010200000000000000000000000000000000000000000000000000000000000000000000000038091b0f05020012010200010002010665055b05650201010003011065030103011065030101000201036f0b65026f0201010002001201020000000000000000000000000000000000000000000000000000000000000000000000000000000038091b0f0502001201020001000201057c0b45020101000301057c0b4503010301057c0b45030101000201057c0b450201010002001201020000000000000000000000000000000000000000000000000000000000000000000000000000000038091b0f0502001201020001000201093a07bc020101000301093a07bc03010301093a07bc030101000201093a07bc0201010002001201020000000000000000000000000000000000000000000000000000000000000000000000000000000038091b0f05020012010200010002010d2c034a0201010003010d2c034a030103010d2c034a0301010002010d2c034a0201010002001201020000000000000000000000000000000000000000000000000000000000000000000000000000000030091b0f050200120102000100020110590201010003011059030103011059030101000201105902010100020012010200000000000000000000000000000000000000000000000000000000000000000000000000000000000000000000000038091b0f050200120102000100020110d7020101000301061005d705100301030103b80b2202b803010100020110b8020101000200120102000000000000000000",
        "nonce": "0x93",
        "chainId": "0x2105"
      },
      "additionalContracts": [
        {
          "transactionType": "CREATE",
          "contractName": null,
          "address": "0xe91f555f3f09dae753af400050a54545468c5900",
          "initCode": "0x61003980600c6000396000f300091b0f050200120102000100020106df052b05df02010100030110df030103011051030101000201046c0951036c02010100020012010200"
        },
        {
          "transactionType": "CREATE",
          "contractName": null,
          "address": "0xcb642720a99bffc6b57dc9a57ea347691cc8a202",
          "initCode": "0x61005980600c6000396000f300091b0f05020012010200010002010105032b05df025102e5032c0201010003010105032b05df025102e5032c030103010105032b05df025102e5032c0301010002010105032b05df025102e5032c02010100020012010200"
        },
        {
          "transactionType": "CREATE",
          "contractName": null,
          "address": "0x20f79d4c5af74ae09e0ee796bb5b3457d948035c",
          "initCode": "0x61003980600c6000396000f300091b0f0502001201020001000201041e09d5031e020101000301101e03010301101e03010100020104b8091e03b802010100020012010200"
        },
        {
          "transactionType": "CREATE",
          "contractName": null,
          "address": "0x6202bd3042d1d7f10432964c362b4bab5c89a98f",
          "initCode": "0x61003d80600c6000396000f300091b0f050200120102000100020107d5034f06d502010100030110d50301030102090d54010903010100020108bd010907bd02010100020012010200"
        },
        {
          "transactionType": "CREATE",
          "contractName": null,
          "address": "0xee5dfb7f89509b2cc195f5e2478aeb6ee9c28e4d",
          "initCode": "0x61003980600c6000396000f300091b0f05020012010200010002010665055b05650201010003011065030103011065030101000201036f0b65026f02010100020012010200"
        },
        {
          "transactionType": "CREATE",
          "contractName": null,
          "address": "0x2753f6635898fa4c4ea4c8e9dfa8d37b6016d210",
          "initCode": "0x61003980600c6000396000f300091b0f0502001201020001000201057c0b45020101000301057c0b4503010301057c0b45030101000201057c0b4502010100020012010200"
        },
        {
          "transactionType": "CREATE",
          "contractName": null,
          "address": "0x5127843565a345c85876b3a44569aeacface9046",
          "initCode": "0x61003980600c6000396000f300091b0f0502001201020001000201093a07bc020101000301093a07bc03010301093a07bc030101000201093a07bc02010100020012010200"
        },
        {
          "transactionType": "CREATE",
          "contractName": null,
          "address": "0x4f9185dee7173461247d9ec89d3f46051a82950e",
          "initCode": "0x61003980600c6000396000f300091b0f05020012010200010002010d2c034a0201010003010d2c034a030103010d2c034a0301010002010d2c034a02010100020012010200"
        },
        {
          "transactionType": "CREATE",
          "contractName": null,
          "address": "0xc14734a0aaf7691357e9a6ca1c5f545f465aa3b8",
          "initCode": "0x61003180600c6000396000f300091b0f050200120102000100020110590201010003011059030103011059030101000201105902010100020012010200"
        },
        {
          "transactionType": "CREATE",
          "contractName": null,
          "address": "0x0a96ff3549dac02d530fe8740de8f98ea7ca07fa",
          "initCode": "0x61003980600c6000396000f300091b0f050200120102000100020110d7020101000301061005d705100301030103b80b2202b803010100020110b802010100020012010200"
        }
      ],
      "isFixedGasLimit": false
    },
    {
      "hash": "0x012838b19882546e2c86076da778001c379301ea819938d4fbdccd3dbdbed62d",
      "transactionType": "CALL",
      "contractName": null,
      "contractAddress": "0xd29f7491e2269ba1f6f7b89ff3bbe6a65301e9af",
      "function": "addManySpecs(bytes[])",
      "arguments": [
        "[0x091b0f0502001201020001000201066c0551056c020101000301106c03010301062a056c052a030101000201102a02010100020012010200, 0x091b0f05020012010200010002011059020101000301105903010301105903010100020110fc02010100020012010200, 0x091b0f05020012010200010002010163013a01bc0163013a016301bc0263013a0263013a011702630201010003010163013a01bc0163013a016301bc0263013a0263013a01170263030103010163013a01bc0163013a016301bc0263013a0263013a011702630301010002010163013a01bc0163013a016301bc0263013a0263013a0117026302010100020012010200, 0x091b0f050200120102000100020101c401e501c4022c018c012c01e5024a018c012c03c4018c02010100030101c401e501c4022c018c012c01e5024a018c012c03c4018c0301030101c401e501c4022c018c012c01e5024a018c012c03c4018c03010100020101c401e501c4022c018c012c01e5024a018c012c03c4018c02010100020012010200, 0x091b0f0502001201020001000201075901d6015901d6015901d6035901d6020101000301075901d6015901d6015901d6035901d603010301075901d6015901d6015901d6035901d6030101000201075901d6015901d6015901d6035901d602010100020012010200, 0x091b0f0502001201020001000201038c06e5072c020101000301038c06e5072c03010301038c06e5072c030101000201038c06e5072c02010100020012010200, 0x091b0f050200120102000100020110c802010100030110c8030103011052030101000201105202010100020012010200, 0x091b0f0502001201020001000201066705fd056702010100030103430b6702430301030101fa0f4303010100020110fa02010100020012010200, 0x091b0f0502001201020001000201018802170363053a03630217020101000301018802170363053a0363021703010301018802170363053a03630217030101000201018802170363053a0363021702010100020012010200, 0x091b0f050200120102000100020104c4018c01e5052c01e5018c03c402010100030104c4018c01e5052c01e5018c03c40301030104c4018c01e5052c01e5018c03c403010100020104c4018c01e5052c01e5018c03c402010100020012010200]"
      ],
      "transaction": {
        "from": "0xf17b5dd382b048ff4c05c1c9e4e24cfc5c6adad9",
        "to": "0xd29f7491e2269ba1f6f7b89ff3bbe6a65301e9af",
        "gas": "0x10786d",
        "value": "0x0",
        "input": "0xb0b529dd0000000000000000000000000000000000000000000000000000000000000020000000000000000000000000000000000000000000000000000000000000000a000000000000000000000000000000000000000000000000000000000000014000000000000000000000000000000000000000000000000000000000000001a0000000000000000000000000000000000000000000000000000000000000020000000000000000000000000000000000000000000000000000000000000002c000000000000000000000000000000000000000000000000000000000000003800000000000000000000000000000000000000000000000000000000000000420000000000000000000000000000000000000000000000000000000000000048000000000000000000000000000000000000000000000000000000000000004e0000000000000000000000000000000000000000000000000000000000000054000000000000000000000000000000000000000000000000000000000000005c00000000000000000000000000000000000000000000000000000000000000038091b0f0502001201020001000201066c0551056c020101000301106c03010301062a056c052a030101000201102a0201010002001201020000000000000000000000000000000000000000000000000000000000000000000000000000000030091b0f05020012010200010002011059020101000301105903010301105903010100020110fc02010100020012010200000000000000000000000000000000000000000000000000000000000000000000000000000000000000000000000090091b0f05020012010200010002010163013a01bc0163013a016301bc0263013a0263013a011702630201010003010163013a01bc0163013a016301bc0263013a0263013a01170263030103010163013a01bc0163013a016301bc0263013a0263013a011702630301010002010163013a01bc0163013a016301bc0263013a0263013a0117026302010100020012010200000000000000000000000000000000000000000000000000000000000000000000000000000000000000000000000088091b0f050200120102000100020101c401e501c4022c018c012c01e5024a018c012c03c4018c02010100030101c401e501c4022c018c012c01e5024a018c012c03c4018c0301030101c401e501c4022c018c012c01e5024a018c012c03c4018c03010100020101c401e501c4022c018c012c01e5024a018c012c03c4018c020101000200120102000000000000000000000000000000000000000000000000000000000000000000000000000000000000000000000000000000000000000068091b0f0502001201020001000201075901d6015901d6015901d6035901d6020101000301075901d6015901d6015901d6035901d603010301075901d6015901d6015901d6035901d6030101000201075901d6015901d6015901d6035901d6020101000200120102000000000000000000000000000000000000000000000000000000000000000000000000000000000000000000000000000000000000000040091b0f0502001201020001000201038c06e5072c020101000301038c06e5072c03010301038c06e5072c030101000201038c06e5072c020101000200120102000000000000000000000000000000000000000000000000000000000000000030091b0f050200120102000100020110c802010100030110c803010301105203010100020110520201010002001201020000000000000000000000000000000000000000000000000000000000000000000000000000000000000000000000003a091b0f0502001201020001000201066705fd056702010100030103430b6702430301030101fa0f4303010100020110fa020101000200120102000000000000000000000000000000000000000000000000000000000000000000000000000058091b0f0502001201020001000201018802170363053a03630217020101000301018802170363053a0363021703010301018802170363053a03630217030101000201018802170363053a036302170201010002001201020000000000000000000000000000000000000000000000000000000000000000000000000000000060091b0f050200120102000100020104c4018c01e5052c01e5018c03c402010100030104c4018c01e5052c01e5018c03c40301030104c4018c01e5052c01e5018c03c403010100020104c4018c01e5052c01e5018c03c402010100020012010200",
        "nonce": "0x94",
        "chainId": "0x2105"
      },
      "additionalContracts": [
        {
          "transactionType": "CREATE",
          "contractName": null,
          "address": "0x80eddf18a2ca4ba781b52f07b6044984e344b837",
          "initCode": "0x61003980600c6000396000f300091b0f0502001201020001000201066c0551056c020101000301106c03010301062a056c052a030101000201102a02010100020012010200"
        },
        {
          "transactionType": "CREATE",
          "contractName": null,
          "address": "0x0b4b83bd738a4f44f1db0693eec9392120ebb0c1",
          "initCode": "0x61003180600c6000396000f300091b0f05020012010200010002011059020101000301105903010301105903010100020110fc02010100020012010200"
        },
        {
          "transactionType": "CREATE",
          "contractName": null,
          "address": "0x3995279012b1dd4d97ec3f16731c745243bc7f72",
          "initCode": "0x61009180600c6000396000f300091b0f05020012010200010002010163013a01bc0163013a016301bc0263013a0263013a011702630201010003010163013a01bc0163013a016301bc0263013a0263013a01170263030103010163013a01bc0163013a016301bc0263013a0263013a011702630301010002010163013a01bc0163013a016301bc0263013a0263013a0117026302010100020012010200"
        },
        {
          "transactionType": "CREATE",
          "contractName": null,
          "address": "0x990de05845efc8caa4501339a08c343a32b3d265",
          "initCode": "0x61008980600c6000396000f300091b0f050200120102000100020101c401e501c4022c018c012c01e5024a018c012c03c4018c02010100030101c401e501c4022c018c012c01e5024a018c012c03c4018c0301030101c401e501c4022c018c012c01e5024a018c012c03c4018c03010100020101c401e501c4022c018c012c01e5024a018c012c03c4018c02010100020012010200"
        },
        {
          "transactionType": "CREATE",
          "contractName": null,
          "address": "0x756552d35b67b0d4e6d557fa7d6394b718dc96b0",
          "initCode": "0x61006980600c6000396000f300091b0f0502001201020001000201075901d6015901d6015901d6035901d6020101000301075901d6015901d6015901d6035901d603010301075901d6015901d6015901d6035901d6030101000201075901d6015901d6015901d6035901d602010100020012010200"
        },
        {
          "transactionType": "CREATE",
          "contractName": null,
          "address": "0xe550265376b24fc12fe780a95b3085d77a82a1c2",
          "initCode": "0x61004180600c6000396000f300091b0f0502001201020001000201038c06e5072c020101000301038c06e5072c03010301038c06e5072c030101000201038c06e5072c02010100020012010200"
        },
        {
          "transactionType": "CREATE",
          "contractName": null,
          "address": "0xed2fd5361eaf3f0b3516a23932ae73dd5a140418",
          "initCode": "0x61003180600c6000396000f300091b0f050200120102000100020110c802010100030110c8030103011052030101000201105202010100020012010200"
        },
        {
          "transactionType": "CREATE",
          "contractName": null,
          "address": "0x14583f77aa13e0a38b389eb4675b7e1e1e60ff77",
          "initCode": "0x61003b80600c6000396000f300091b0f0502001201020001000201066705fd056702010100030103430b6702430301030101fa0f4303010100020110fa02010100020012010200"
        },
        {
          "transactionType": "CREATE",
          "contractName": null,
          "address": "0x799bc8c819061dfd55f1218dd179f0a1dcc8bc55",
          "initCode": "0x61005980600c6000396000f300091b0f0502001201020001000201018802170363053a03630217020101000301018802170363053a0363021703010301018802170363053a03630217030101000201018802170363053a0363021702010100020012010200"
        },
        {
          "transactionType": "CREATE",
          "contractName": null,
          "address": "0xa6243cb8594e46f72831a559702457383765d16f",
          "initCode": "0x61006180600c6000396000f300091b0f050200120102000100020104c4018c01e5052c01e5018c03c402010100030104c4018c01e5052c01e5018c03c40301030104c4018c01e5052c01e5018c03c403010100020104c4018c01e5052c01e5018c03c402010100020012010200"
        }
      ],
      "isFixedGasLimit": false
    },
    {
      "hash": "0x38eb232f5dde0806fc3b860b5d3b2dad483b897d8da019de69066703e48addf2",
      "transactionType": "CALL",
      "contractName": null,
      "contractAddress": "0xd29f7491e2269ba1f6f7b89ff3bbe6a65301e9af",
      "function": "addManySpecs(bytes[])",
      "arguments": [
        "[0x091b0f050200120102000100020104d6095903d602010100030104d6095903d60301030104d6095903d603010100020104d6095903d602010100020012010200, 0x091b0f05020012010200010002010745037c06450201010003010745037c0645030103010745037c06450301010002010745037c064502010100020012010200, 0x091b0f05020012010200010002010256039d0196029e019c029e0196039d015602010100030101aa030701a9019b029a0148029a019b01a9030703010301017002ab02a0029f031a029f02a002ab03010100020102ad037201a1057101a1037201ad02010100020012010200, 0x091b0f050200120102000100020110df0201010003011051030103011075030101000201077b0375067b02010100020012010200, 0x091b0f0502001201020001000201083a081e020101000301083a081e03010301083a081e030101000201083a081e02010100020012010200, 0x091b0f0502001201020001000201082c083a020101000301082c083a03010301082c083a030101000201082c083a02010100020012010200, 0x091b0f05020012010200010002010859087c0201010003010859087c030103010859087c0301010002010859087c02010100020012010200, 0x091b0f05020012010200010002010867082c0201010003010867082c030103010867082c0301010002010867082c02010100020012010200, 0x091b0f0502001201020001000201087c0837020101000301087c083703010301087c0837030101000201087c083702010100020012010200, 0x091b0f05020012010200010002010802088c0201010003010802088c030103010802088c0301010002010802088c02010100020012010200]"
      ],
      "transaction": {
        "from": "0xf17b5dd382b048ff4c05c1c9e4e24cfc5c6adad9",
        "to": "0xd29f7491e2269ba1f6f7b89ff3bbe6a65301e9af",
        "gas": "0xf730f",
        "value": "0x0",
        "input": "0xb0b529dd0000000000000000000000000000000000000000000000000000000000000020000000000000000000000000000000000000000000000000000000000000000a000000000000000000000000000000000000000000000000000000000000014000000000000000000000000000000000000000000000000000000000000001a0000000000000000000000000000000000000000000000000000000000000020000000000000000000000000000000000000000000000000000000000000002a00000000000000000000000000000000000000000000000000000000000000300000000000000000000000000000000000000000000000000000000000000036000000000000000000000000000000000000000000000000000000000000003c00000000000000000000000000000000000000000000000000000000000000420000000000000000000000000000000000000000000000000000000000000048000000000000000000000000000000000000000000000000000000000000004e00000000000000000000000000000000000000000000000000000000000000040091b0f050200120102000100020104d6095903d602010100030104d6095903d60301030104d6095903d603010100020104d6095903d6020101000200120102000000000000000000000000000000000000000000000000000000000000000040091b0f05020012010200010002010745037c06450201010003010745037c0645030103010745037c06450301010002010745037c064502010100020012010200000000000000000000000000000000000000000000000000000000000000006c091b0f05020012010200010002010256039d0196029e019c029e0196039d015602010100030101aa030701a9019b029a0148029a019b01a9030703010301017002ab02a0029f031a029f02a002ab03010100020102ad037201a1057101a1037201ad0201010002001201020000000000000000000000000000000000000000000000000000000000000000000000000000000000000000000000000000000034091b0f050200120102000100020110df0201010003011051030103011075030101000201077b0375067b020101000200120102000000000000000000000000000000000000000000000000000000000000000000000000000000000000000038091b0f0502001201020001000201083a081e020101000301083a081e03010301083a081e030101000201083a081e0201010002001201020000000000000000000000000000000000000000000000000000000000000000000000000000000038091b0f0502001201020001000201082c083a020101000301082c083a03010301082c083a030101000201082c083a0201010002001201020000000000000000000000000000000000000000000000000000000000000000000000000000000038091b0f05020012010200010002010859087c0201010003010859087c030103010859087c0301010002010859087c0201010002001201020000000000000000000000000000000000000000000000000000000000000000000000000000000038091b0f05020012010200010002010867082c0201010003010867082c030103010867082c0301010002010867082c0201010002001201020000000000000000000000000000000000000000000000000000000000000000000000000000000038091b0f0502001201020001000201087c0837020101000301087c083703010301087c0837030101000201087c08370201010002001201020000000000000000000000000000000000000000000000000000000000000000000000000000000038091b0f05020012010200010002010802088c0201010003010802088c030103010802088c0301010002010802088c020101000200120102000000000000000000",
        "nonce": "0x95",
        "chainId": "0x2105"
      },
      "additionalContracts": [
        {
          "transactionType": "CREATE",
          "contractName": null,
          "address": "0xf0ba4934521209f42330e2e48edb1352ad80d132",
          "initCode": "0x61004180600c6000396000f300091b0f050200120102000100020104d6095903d602010100030104d6095903d60301030104d6095903d603010100020104d6095903d602010100020012010200"
        },
        {
          "transactionType": "CREATE",
          "contractName": null,
          "address": "0x007a0f488f550981063a891fe9a5340d65b9db56",
          "initCode": "0x61004180600c6000396000f300091b0f05020012010200010002010745037c06450201010003010745037c0645030103010745037c06450301010002010745037c064502010100020012010200"
        },
        {
          "transactionType": "CREATE",
          "contractName": null,
          "address": "0x2f9ca20efc6c5045e306e4cc848585dfbeb12927",
          "initCode": "0x61006d80600c6000396000f300091b0f05020012010200010002010256039d0196029e019c029e0196039d015602010100030101aa030701a9019b029a0148029a019b01a9030703010301017002ab02a0029f031a029f02a002ab03010100020102ad037201a1057101a1037201ad02010100020012010200"
        },
        {
          "transactionType": "CREATE",
          "contractName": null,
          "address": "0x06cfc457c5b9c572f4451a355b9e69d6ff6c1032",
          "initCode": "0x61003580600c6000396000f300091b0f050200120102000100020110df0201010003011051030103011075030101000201077b0375067b02010100020012010200"
        },
        {
          "transactionType": "CREATE",
          "contractName": null,
          "address": "0xba0b2a178d3f219e12f93fadf878ed775277fdf7",
          "initCode": "0x61003980600c6000396000f300091b0f0502001201020001000201083a081e020101000301083a081e03010301083a081e030101000201083a081e02010100020012010200"
        },
        {
          "transactionType": "CREATE",
          "contractName": null,
          "address": "0xe86647fdd14bf66120b8012f8a5a5727942dc673",
          "initCode": "0x61003980600c6000396000f300091b0f0502001201020001000201082c083a020101000301082c083a03010301082c083a030101000201082c083a02010100020012010200"
        },
        {
          "transactionType": "CREATE",
          "contractName": null,
          "address": "0xcb284aa910dc8a756d233b813fae34c5f2142e27",
          "initCode": "0x61003980600c6000396000f300091b0f05020012010200010002010859087c0201010003010859087c030103010859087c0301010002010859087c02010100020012010200"
        },
        {
          "transactionType": "CREATE",
          "contractName": null,
          "address": "0x989862a0acea1f66348d5013aaf0c455feb5a659",
          "initCode": "0x61003980600c6000396000f300091b0f05020012010200010002010867082c0201010003010867082c030103010867082c0301010002010867082c02010100020012010200"
        },
        {
          "transactionType": "CREATE",
          "contractName": null,
          "address": "0x6618f22a0a1cd4f279ec8b3135f09f5077c8173e",
          "initCode": "0x61003980600c6000396000f300091b0f0502001201020001000201087c0837020101000301087c083703010301087c0837030101000201087c083702010100020012010200"
        },
        {
          "transactionType": "CREATE",
          "contractName": null,
          "address": "0x5b0848223b3e705d325ac2abe9e880aa57d78e06",
          "initCode": "0x61003980600c6000396000f300091b0f05020012010200010002010802088c0201010003010802088c030103010802088c0301010002010802088c02010100020012010200"
        }
      ],
      "isFixedGasLimit": false
    },
    {
      "hash": "0x8b24ecb7b1fabcbeb25daf4c695cd3fdfad2eeb840ef6bd81ab92a48b651c426",
      "transactionType": "CALL",
      "contractName": null,
      "contractAddress": "0xd29f7491e2269ba1f6f7b89ff3bbe6a65301e9af",
      "function": "addManySpecs(bytes[])",
      "arguments": [
        "[0x091b0f050200120102000100020106100534051002010100030110100301030108c401b807c403010100020107d1034c06d102010100020012010200, 0x091b0f050200120102000100020102bc023a02bc023a02bc023a02bc023a02010100030102bc023a02bc023a02bc023a02bc023a0301030102bc023a02bc023a02bc023a02bc023a03010100020102bc023a02bc023a02bc023a02bc023a02010100020012010200, 0x091b0f0502001201020001000201024a022c024a022c024a022c024a022c020101000301024a022c024a022c024a022c024a022c03010301024a022c024a022c024a022c024a022c030101000201024a022c024a022c024a022c024a022c02010100020012010200, 0x091b0f0502001201020001000201015901d6015901d6015901d6015901d6015901d6015901d6015901d6015901d6020101000301015901d6015901d6015901d6015901d6015901d6015901d6015901d6015901d603010301015901d6015901d6015901d6015901d6015901d6015901d6015901d6015901d6030101000201015901d6015901d6015901d6015901d6015901d6015901d6015901d6015901d602010100020012010200, 0x091b0f0502001201020001000201017c0345037c0345037c0345020101000301017c0345037c0345037c034503010301017c0345037c0345037c0345030101000201017c0345037c0345037c034502010100020012010200, 0x091b0f0502001201020001000201038902de03a5011103a502de028902010100030101820f890301030103670b820267030101000201104b02010100020012010200, 0x091b0f050200120102000100020104c3031405fa04bd02010100030104c3031405fa04bd0301030104c3031405fa04bd03010100020104c3031405fa04bd02010100020012010200, 0x091b0f050200120102000100020110c802010100030108cc018607cc03010301071d03cc061d030101000201106a02010100020012010200, 0x091b0f0502001201020001000201018c0fe502010100030103c40b8c02c40301030110c403010100020110c402010100020012010200, 0x091b0f050200120102000100020102590865055b013a02010100030102590865055b013a0301030102590865055b013a03010100020102590865055b013a02010100020012010200]"
      ],
      "transaction": {
        "from": "0xf17b5dd382b048ff4c05c1c9e4e24cfc5c6adad9",
        "to": "0xd29f7491e2269ba1f6f7b89ff3bbe6a65301e9af",
        "gas": "0x11752f",
        "value": "0x0",
        "input": "0xb0b529dd0000000000000000000000000000000000000000000000000000000000000020000000000000000000000000000000000000000000000000000000000000000a000000000000000000000000000000000000000000000000000000000000014000000000000000000000000000000000000000000000000000000000000001a0000000000000000000000000000000000000000000000000000000000000024000000000000000000000000000000000000000000000000000000000000002e000000000000000000000000000000000000000000000000000000000000003c0000000000000000000000000000000000000000000000000000000000000044000000000000000000000000000000000000000000000000000000000000004c0000000000000000000000000000000000000000000000000000000000000054000000000000000000000000000000000000000000000000000000000000005a00000000000000000000000000000000000000000000000000000000000000600000000000000000000000000000000000000000000000000000000000000003c091b0f050200120102000100020106100534051002010100030110100301030108c401b807c403010100020107d1034c06d102010100020012010200000000000000000000000000000000000000000000000000000000000000000000000068091b0f050200120102000100020102bc023a02bc023a02bc023a02bc023a02010100030102bc023a02bc023a02bc023a02bc023a0301030102bc023a02bc023a02bc023a02bc023a03010100020102bc023a02bc023a02bc023a02bc023a020101000200120102000000000000000000000000000000000000000000000000000000000000000000000000000000000000000000000000000000000000000068091b0f0502001201020001000201024a022c024a022c024a022c024a022c020101000301024a022c024a022c024a022c024a022c03010301024a022c024a022c024a022c024a022c030101000201024a022c024a022c024a022c024a022c0201010002001201020000000000000000000000000000000000000000000000000000000000000000000000000000000000000000000000000000000000000000a8091b0f0502001201020001000201015901d6015901d6015901d6015901d6015901d6015901d6015901d6015901d6020101000301015901d6015901d6015901d6015901d6015901d6015901d6015901d6015901d603010301015901d6015901d6015901d6015901d6015901d6015901d6015901d6015901d6030101000201015901d6015901d6015901d6015901d6015901d6015901d6015901d6015901d6020101000200120102000000000000000000000000000000000000000000000000000000000000000000000000000000000000000000000000000000000000000058091b0f0502001201020001000201017c0345037c0345037c0345020101000301017c0345037c0345037c034503010301017c0345037c0345037c0345030101000201017c0345037c0345037c03450201010002001201020000000000000000000000000000000000000000000000000000000000000000000000000000000042091b0f0502001201020001000201038902de03a5011103a502de028902010100030101820f890301030103670b820267030101000201104b020101000200120102000000000000000000000000000000000000000000000000000000000000000000000000000000000000000000000000000000000000000000000000000048091b0f050200120102000100020104c3031405fa04bd02010100030104c3031405fa04bd0301030104c3031405fa04bd03010100020104c3031405fa04bd020101000200120102000000000000000000000000000000000000000000000000000000000000000000000000000000000000000000000000000000000000000038091b0f050200120102000100020110c802010100030108cc018607cc03010301071d03cc061d030101000201106a0201010002001201020000000000000000000000000000000000000000000000000000000000000000000000000000000036091b0f0502001201020001000201018c0fe502010100030103c40b8c02c40301030110c403010100020110c402010100020012010200000000000000000000000000000000000000000000000000000000000000000000000000000000000048091b0f050200120102000100020102590865055b013a02010100030102590865055b013a0301030102590865055b013a03010100020102590865055b013a02010100020012010200000000000000000000000000000000000000000000000000",
        "nonce": "0x96",
        "chainId": "0x2105"
      },
      "additionalContracts": [
        {
          "transactionType": "CREATE",
          "contractName": null,
          "address": "0xa10ad0489b30bf10fafbbf7e6610b76b481f4699",
          "initCode": "0x61003d80600c6000396000f300091b0f050200120102000100020106100534051002010100030110100301030108c401b807c403010100020107d1034c06d102010100020012010200"
        },
        {
          "transactionType": "CREATE",
          "contractName": null,
          "address": "0xd3ffbd4c5298a95cd91f0487780bfb3a7c0cd634",
          "initCode": "0x61006980600c6000396000f300091b0f050200120102000100020102bc023a02bc023a02bc023a02bc023a02010100030102bc023a02bc023a02bc023a02bc023a0301030102bc023a02bc023a02bc023a02bc023a03010100020102bc023a02bc023a02bc023a02bc023a02010100020012010200"
        },
        {
          "transactionType": "CREATE",
          "contractName": null,
          "address": "0xab090a06f51b56693414cc2f528bd186c8a69b6e",
          "initCode": "0x61006980600c6000396000f300091b0f0502001201020001000201024a022c024a022c024a022c024a022c020101000301024a022c024a022c024a022c024a022c03010301024a022c024a022c024a022c024a022c030101000201024a022c024a022c024a022c024a022c02010100020012010200"
        },
        {
          "transactionType": "CREATE",
          "contractName": null,
          "address": "0xa72efc3cace5618ea76967b5aa3a310c0e2a0ee4",
          "initCode": "0x6100a980600c6000396000f300091b0f0502001201020001000201015901d6015901d6015901d6015901d6015901d6015901d6015901d6015901d6020101000301015901d6015901d6015901d6015901d6015901d6015901d6015901d6015901d603010301015901d6015901d6015901d6015901d6015901d6015901d6015901d6015901d6030101000201015901d6015901d6015901d6015901d6015901d6015901d6015901d6015901d602010100020012010200"
        },
        {
          "transactionType": "CREATE",
          "contractName": null,
          "address": "0x08835f96bbbc4189d2f6b995830bf953d28d8f27",
          "initCode": "0x61005980600c6000396000f300091b0f0502001201020001000201017c0345037c0345037c0345020101000301017c0345037c0345037c034503010301017c0345037c0345037c0345030101000201017c0345037c0345037c034502010100020012010200"
        },
        {
          "transactionType": "CREATE",
          "contractName": null,
          "address": "0xc485aea21ba18c6bfc32c907ccf86555076a818b",
          "initCode": "0x61004380600c6000396000f300091b0f0502001201020001000201038902de03a5011103a502de028902010100030101820f890301030103670b820267030101000201104b02010100020012010200"
        },
        {
          "transactionType": "CREATE",
          "contractName": null,
          "address": "0xf79df9cff63b68daca48e5e32e2f8606be73d103",
          "initCode": "0x61004980600c6000396000f300091b0f050200120102000100020104c3031405fa04bd02010100030104c3031405fa04bd0301030104c3031405fa04bd03010100020104c3031405fa04bd02010100020012010200"
        },
        {
          "transactionType": "CREATE",
          "contractName": null,
          "address": "0x348d5cab8c021612e93b5fa0e5b2542f9f2d2ab5",
          "initCode": "0x61003980600c6000396000f300091b0f050200120102000100020110c802010100030108cc018607cc03010301071d03cc061d030101000201106a02010100020012010200"
        },
        {
          "transactionType": "CREATE",
          "contractName": null,
          "address": "0x276f93c4e02800721e925dd3b9ab0dfece03be8a",
          "initCode": "0x61003780600c6000396000f300091b0f0502001201020001000201018c0fe502010100030103c40b8c02c40301030110c403010100020110c402010100020012010200"
        },
        {
          "transactionType": "CREATE",
          "contractName": null,
          "address": "0x1917029dc7b1f2c5c280d2c83f1a3ac7bc6eed27",
          "initCode": "0x61004980600c6000396000f300091b0f050200120102000100020102590865055b013a02010100030102590865055b013a0301030102590865055b013a03010100020102590865055b013a02010100020012010200"
        }
      ],
      "isFixedGasLimit": false
    },
    {
      "hash": "0x3b50872c37f538b37479f5a084b77a38dd53629de12b091f6f2bb150c6f53815",
      "transactionType": "CALL",
      "contractName": null,
      "contractAddress": "0xd29f7491e2269ba1f6f7b89ff3bbe6a65301e9af",
      "function": "addManySpecs(bytes[])",
      "arguments": [
        "[0x091b0f0502001201020001000201101e020101000301101e03010301101e030101000201101e02010100020012010200, 0x091b0f050200120102000100020110d5020101000301051e07d5041e03010301101e03010100020104bd091e03bd02010100020012010200, 0x091b0f0502001201020001000201100202010100030101de0523013e0318013e052303010301042f02a6058902a6032f030101000201051c0750041c02010100020012010200, 0x091b0f0502001201020001000201013a016301cd01bc01cd0163023a016302bc0117033a0117020101000301013a016301cd01bc01cd0163023a016302bc0117033a011703010301013a016301cd01bc01cd0163023a016302bc0117033a0117030101000201013a016301cd01bc01cd0163023a016302bc0117033a011702010100020012010200, 0x091b0f0502001201020001000201032c02c4024a02c4042c02c4014a020101000301032c02c4024a02c4042c02c4014a03010301032c02c4024a02c4042c02c4014a030101000201032c02c4024a02c4042c02c4014a02010100020012010200, 0x091b0f0502001201020001000201055907d60459020101000301055907d6045903010301055907d60459030101000201055907d6045902010100020012010200, 0x091b0f0502001201020001000201100202010100030101a402180b0202180301030101a60256029d0196029e019c029e0196029d0256030101000201030701a9019b029a0348029a019b01a9020702010100020012010200]"
      ],
      "transaction": {
        "from": "0xf17b5dd382b048ff4c05c1c9e4e24cfc5c6adad9",
        "to": "0xd29f7491e2269ba1f6f7b89ff3bbe6a65301e9af",
        "gas": "0xc4344",
        "value": "0x0",
        "input": "0xb0b529dd0000000000000000000000000000000000000000000000000000000000000020000000000000000000000000000000000000000000000000000000000000000700000000000000000000000000000000000000000000000000000000000000e0000000000000000000000000000000000000000000000000000000000000014000000000000000000000000000000000000000000000000000000000000001a0000000000000000000000000000000000000000000000000000000000000022000000000000000000000000000000000000000000000000000000000000002e0000000000000000000000000000000000000000000000000000000000000036000000000000000000000000000000000000000000000000000000000000003c00000000000000000000000000000000000000000000000000000000000000030091b0f0502001201020001000201101e020101000301101e03010301101e030101000201101e02010100020012010200000000000000000000000000000000000000000000000000000000000000000000000000000000000000000000000038091b0f050200120102000100020110d5020101000301051e07d5041e03010301101e03010100020104bd091e03bd0201010002001201020000000000000000000000000000000000000000000000000000000000000000000000000000000046091b0f0502001201020001000201100202010100030101de0523013e0318013e052303010301042f02a6058902a6032f030101000201051c0750041c0201010002001201020000000000000000000000000000000000000000000000000000000000000000000000000000000000000000000000000000000000000000000088091b0f0502001201020001000201013a016301cd01bc01cd0163023a016302bc0117033a0117020101000301013a016301cd01bc01cd0163023a016302bc0117033a011703010301013a016301cd01bc01cd0163023a016302bc0117033a0117030101000201013a016301cd01bc01cd0163023a016302bc0117033a0117020101000200120102000000000000000000000000000000000000000000000000000000000000000000000000000000000000000000000000000000000000000060091b0f0502001201020001000201032c02c4024a02c4042c02c4014a020101000301032c02c4024a02c4042c02c4014a03010301032c02c4024a02c4042c02c4014a030101000201032c02c4024a02c4042c02c4014a020101000200120102000000000000000000000000000000000000000000000000000000000000000040091b0f0502001201020001000201055907d60459020101000301055907d6045903010301055907d60459030101000201055907d60459020101000200120102000000000000000000000000000000000000000000000000000000000000000058091b0f0502001201020001000201100202010100030101a402180b0202180301030101a60256029d0196029e019c029e0196029d0256030101000201030701a9019b029a0348029a019b01a90207020101000200120102000000000000000000",
        "nonce": "0x97",
        "chainId": "0x2105"
      },
      "additionalContracts": [
        {
          "transactionType": "CREATE",
          "contractName": null,
          "address": "0xe47ca51103448f2b1b1ee8ac940566dd1297349e",
          "initCode": "0x61003180600c6000396000f300091b0f0502001201020001000201101e020101000301101e03010301101e030101000201101e02010100020012010200"
        },
        {
          "transactionType": "CREATE",
          "contractName": null,
          "address": "0xec5720334c53b01be51e0b0e344301d1e46a4a03",
          "initCode": "0x61003980600c6000396000f300091b0f050200120102000100020110d5020101000301051e07d5041e03010301101e03010100020104bd091e03bd02010100020012010200"
        },
        {
          "transactionType": "CREATE",
          "contractName": null,
          "address": "0x7c28d57282e619d0930a648d1765947a7e3eb243",
          "initCode": "0x61004780600c6000396000f300091b0f0502001201020001000201100202010100030101de0523013e0318013e052303010301042f02a6058902a6032f030101000201051c0750041c02010100020012010200"
        },
        {
          "transactionType": "CREATE",
          "contractName": null,
          "address": "0x11fe8636f486e59ad40343d84566e3e25b6906ff",
          "initCode": "0x61008980600c6000396000f300091b0f0502001201020001000201013a016301cd01bc01cd0163023a016302bc0117033a0117020101000301013a016301cd01bc01cd0163023a016302bc0117033a011703010301013a016301cd01bc01cd0163023a016302bc0117033a0117030101000201013a016301cd01bc01cd0163023a016302bc0117033a011702010100020012010200"
        },
        {
          "transactionType": "CREATE",
          "contractName": null,
          "address": "0x7f3c8987cdb60c36f398dd0a0db679c549d8d092",
          "initCode": "0x61006180600c6000396000f300091b0f0502001201020001000201032c02c4024a02c4042c02c4014a020101000301032c02c4024a02c4042c02c4014a03010301032c02c4024a02c4042c02c4014a030101000201032c02c4024a02c4042c02c4014a02010100020012010200"
        },
        {
          "transactionType": "CREATE",
          "contractName": null,
          "address": "0x0f06927756d91edfddf81ec38eb64d0dc6837c82",
          "initCode": "0x61004180600c6000396000f300091b0f0502001201020001000201055907d60459020101000301055907d6045903010301055907d60459030101000201055907d6045902010100020012010200"
        },
        {
          "transactionType": "CREATE",
          "contractName": null,
          "address": "0x889f46ceaa6445fccbaef1fbe8ba61a9e341efe3",
          "initCode": "0x61005980600c6000396000f300091b0f0502001201020001000201100202010100030101a402180b0202180301030101a60256029d0196029e019c029e0196029d0256030101000201030701a9019b029a0348029a019b01a9020702010100020012010200"
        }
      ],
      "isFixedGasLimit": false
    }
  ],
  "receipts": [
    {
      "status": "0x1",
      "cumulativeGasUsed": "0x141c633",
      "logs": [],
      "logsBloom": "0x00000000000000000000000000000000000000000000000000000000000000000000000000000000000000000000000000000000000000000000000000000000000000000000000000000000000000000000000000000000000000000000000000000000000000000000000000000000000000000000000000000000000000000000000000000000000000000000000000000000000000000000000000000000000000000000000000000000000000000000000000000000000000000000000000000000000000000000000000000000000000000000000000000000000000000000000000000000000000000000000000000000000000000000000000000000",
      "type": "0x2",
      "transactionHash": "0xc6f924ca64e552f046687b5533064b5f681f6ca6af1e86bf9a534f6296f7d7f6",
      "transactionIndex": "0x57",
      "blockHash": "0x0000000000000000000000000000000000000000000000000000000000000000",
      "blockNumber": "0x27f4beb",
      "gasUsed": "0xc64b3",
      "effectiveGasPrice": "0xcac2be",
      "blobGasUsed": "0x10d50",
      "from": "0xf17b5dd382b048ff4c05c1c9e4e24cfc5c6adad9",
      "to": "0xd29f7491e2269ba1f6f7b89ff3bbe6a65301e9af",
      "contractAddress": null,
      "daFootprintGasScalar": "0x8b",
      "l1BaseFeeScalar": "0x8dd",
      "l1BlobBaseFee": "0x2af8d3",
      "l1BlobBaseFeeScalar": "0x101c12",
      "l1Fee": "0x39207b71",
      "l1GasPrice": "0x2e38aa7",
      "l1GasUsed": "0x1f01"
    },
    {
      "status": "0x1",
      "cumulativeGasUsed": "0x1fa9342",
      "logs": [],
      "logsBloom": "0x00000000000000000000000000000000000000000000000000000000000000000000000000000000000000000000000000000000000000000000000000000000000000000000000000000000000000000000000000000000000000000000000000000000000000000000000000000000000000000000000000000000000000000000000000000000000000000000000000000000000000000000000000000000000000000000000000000000000000000000000000000000000000000000000000000000000000000000000000000000000000000000000000000000000000000000000000000000000000000000000000000000000000000000000000000000",
      "type": "0x2",
      "transactionHash": "0xb0094c6f59f2ded4610affb86074781ed90e8dd26cdc939709dfeaafd791b421",
      "transactionIndex": "0x82",
      "blockHash": "0xdfa69755963fb636e1c76854e5228471788b1af34ef40937438ed32973966a03",
      "blockNumber": "0x27f4bec",
      "gasUsed": "0xb3a9a",
      "effectiveGasPrice": "0xca61aa",
      "blobGasUsed": "0xe864",
      "from": "0xf17b5dd382b048ff4c05c1c9e4e24cfc5c6adad9",
      "to": "0xd29f7491e2269ba1f6f7b89ff3bbe6a65301e9af",
      "contractAddress": null,
      "daFootprintGasScalar": "0x8b",
      "l1BaseFeeScalar": "0x8dd",
      "l1BlobBaseFee": "0x2af8d3",
      "l1BlobBaseFeeScalar": "0x101c12",
      "l1Fee": "0x54f8c161",
      "l1GasPrice": "0x2e38aa7",
      "l1GasUsed": "0x1ac5"
    },
    {
      "status": "0x1",
      "cumulativeGasUsed": "0x17f09ac",
      "logs": [],
      "logsBloom": "0x00000000000000000000000000000000000000000000000000000000000000000000000000000000000000000000000000000000000000000000000000000000000000000000000000000000000000000000000000000000000000000000000000000000000000000000000000000000000000000000000000000000000000000000000000000000000000000000000000000000000000000000000000000000000000000000000000000000000000000000000000000000000000000000000000000000000000000000000000000000000000000000000000000000000000000000000000000000000000000000000000000000000000000000000000000000",
      "type": "0x2",
      "transactionHash": "0x3bf620a807e576532fe5bd07740038a9d7be9c6e9cd7becf55b63571b63d8704",
      "transactionIndex": "0x49",
      "blockHash": "0x147b41683f2a817691d9f4591e09bc27af4663e8901debfe73bef6e9628f3b95",
      "blockNumber": "0x27f4bed",
      "gasUsed": "0xb3795",
      "effectiveGasPrice": "0xca26bc",
      "blobGasUsed": "0xda46",
      "from": "0xf17b5dd382b048ff4c05c1c9e4e24cfc5c6adad9",
      "to": "0xd29f7491e2269ba1f6f7b89ff3bbe6a65301e9af",
      "contractAddress": null,
      "daFootprintGasScalar": "0x8b",
      "l1BaseFeeScalar": "0x8dd",
      "l1BlobBaseFee": "0x2af8d3",
      "l1BlobBaseFeeScalar": "0x101c12",
      "l1Fee": "0x71864181",
      "l1GasPrice": "0x2e38aa7",
      "l1GasUsed": "0x1926"
    },
    {
      "status": "0x1",
      "cumulativeGasUsed": "0x1f00591",
      "logs": [],
      "logsBloom": "0x00000000000000000000000000000000000000000000000000000000000000000000000000000000000000000000000000000000000000000000000000000000000000000000000000000000000000000000000000000000000000000000000000000000000000000000000000000000000000000000000000000000000000000000000000000000000000000000000000000000000000000000000000000000000000000000000000000000000000000000000000000000000000000000000000000000000000000000000000000000000000000000000000000000000000000000000000000000000000000000000000000000000000000000000000000000",
      "type": "0x2",
      "transactionHash": "0x51a7716c76eabf6fcd3b8811e2c0c0356c518c5b29f9bb92fe74bb10abbf3412",
      "transactionIndex": "0x5e",
      "blockHash": "0x8a7713d9f59fef542048202b3a09aa686cbecca7f3a43d1c5f5e80e41061b44e",
      "blockNumber": "0x27f4bee",
      "gasUsed": "0xb0ff5",
      "effectiveGasPrice": "0xca130e",
      "blobGasUsed": "0xe381",
      "from": "0xf17b5dd382b048ff4c05c1c9e4e24cfc5c6adad9",
      "to": "0xd29f7491e2269ba1f6f7b89ff3bbe6a65301e9af",
      "contractAddress": null,
      "daFootprintGasScalar": "0x8b",
      "l1BaseFeeScalar": "0x8dd",
      "l1BlobBaseFee": "0x2c1c8f",
      "l1BlobBaseFeeScalar": "0x101c12",
      "l1Fee": "0x3bbe6171",
      "l1GasPrice": "0x31d8539",
      "l1GasUsed": "0x1a3f"
    },
    {
      "status": "0x1",
      "cumulativeGasUsed": "0x2636c6f",
      "logs": [],
      "logsBloom": "0x00000000000000000000000000000000000000000000000000000000000000000000000000000000000000000000000000000000000000000000000000000000000000000000000000000000000000000000000000000000000000000000000000000000000000000000000000000000000000000000000000000000000000000000000000000000000000000000000000000000000000000000000000000000000000000000000000000000000000000000000000000000000000000000000000000000000000000000000000000000000000000000000000000000000000000000000000000000000000000000000000000000000000000000000000000000",
      "type": "0x2",
      "transactionHash": "0x012838b19882546e2c86076da778001c379301ea819938d4fbdccd3dbdbed62d",
      "transactionIndex": "0x90",
      "blockHash": "0x27cdbb24c023a8db3d1cb12fc49c8dba7c17797d71c0af3177c0f5b8177473d2",
      "blockNumber": "0x27f4bef",
      "gasUsed": "0xbec9f",
      "effectiveGasPrice": "0xca5e2b",
      "blobGasUsed": "0x105b6",
      "from": "0xf17b5dd382b048ff4c05c1c9e4e24cfc5c6adad9",
      "to": "0xd29f7491e2269ba1f6f7b89ff3bbe6a65301e9af",
      "contractAddress": null,
      "daFootprintGasScalar": "0x8b",
      "l1BaseFeeScalar": "0x8dd",
      "l1BlobBaseFee": "0x2c1c8f",
      "l1BlobBaseFeeScalar": "0x101c12",
      "l1Fee": "0x8e6a6b2a",
      "l1GasPrice": "0x31d8539",
      "l1GasUsed": "0x1e2b"
    },
    {
      "status": "0x1",
      "cumulativeGasUsed": "0x288d38a",
      "logs": [],
      "logsBloom": "0x00000000000000000000000000000000000000000000000000000000000000000000000000000000000000000000000000000000000000000000000000000000000000000000000000000000000000000000000000000000000000000000000000000000000000000000000000000000000000000000000000000000000000000000000000000000000000000000000000000000000000000000000000000000000000000000000000000000000000000000000000000000000000000000000000000000000000000000000000000000000000000000000000000000000000000000000000000000000000000000000000000000000000000000000000000000",
      "type": "0x2",
      "transactionHash": "0x38eb232f5dde0806fc3b860b5d3b2dad483b897d8da019de69066703e48addf2",
      "transactionIndex": "0xa1",
      "blockHash": "0x7a4a3198fc1f6764ad0516e376641e5f2bb1a41c3fd8e25d7fae5fd9c1cee04a",
      "blockNumber": "0x27f4bf0",
      "gasUsed": "0xb2f65",
      "effectiveGasPrice": "0xca61de",
      "blobGasUsed": "0xe638",
      "from": "0xf17b5dd382b048ff4c05c1c9e4e24cfc5c6adad9",
      "to": "0xd29f7491e2269ba1f6f7b89ff3bbe6a65301e9af",
      "contractAddress": null,
      "daFootprintGasScalar": "0x8b",
      "l1BaseFeeScalar": "0x8dd",
      "l1BlobBaseFee": "0x2c1c8f",
      "l1BlobBaseFeeScalar": "0x101c12",
      "l1Fee": "0x64374866",
      "l1GasPrice": "0x31d8539",
      "l1GasUsed": "0x1a82"
    },
    {
      "status": "0x1",
      "cumulativeGasUsed": "0x2a3077b",
      "logs": [],
      "logsBloom": "0x00000000000000000000000000000000000000000000000000000000000000000000000000000000000000000000000000000000000000000000000000000000000000000000000000000000000000000000000000000000000000000000000000000000000000000000000000000000000000000000000000000000000000000000000000000000000000000000000000000000000000000000000000000000000000000000000000000000000000000000000000000000000000000000000000000000000000000000000000000000000000000000000000000000000000000000000000000000000000000000000000000000000000000000000000000000",
      "type": "0x2",
      "transactionHash": "0x8b24ecb7b1fabcbeb25daf4c695cd3fdfad2eeb840ef6bd81ab92a48b651c426",
      "transactionIndex": "0x9a",
      "blockHash": "0x0000000000000000000000000000000000000000000000000000000000000000",
      "blockNumber": "0x27f4bf1",
      "gasUsed": "0xbefdb",
      "effectiveGasPrice": "0xca8577",
      "blobGasUsed": "0xfbf0",
      "from": "0xf17b5dd382b048ff4c05c1c9e4e24cfc5c6adad9",
      "to": "0xd29f7491e2269ba1f6f7b89ff3bbe6a65301e9af",
      "contractAddress": null,
      "daFootprintGasScalar": "0x8b",
      "l1BaseFeeScalar": "0x8dd",
      "l1BlobBaseFee": "0x2c1c8f",
      "l1BlobBaseFeeScalar": "0x101c12",
      "l1Fee": "0x67abc004",
      "l1GasPrice": "0x31d8539",
      "l1GasUsed": "0x1d05"
    },
    {
      "status": "0x1",
      "cumulativeGasUsed": "0x18f7731",
      "logs": [],
      "logsBloom": "0x00000000000000000000000000000000000000000000000000000000000000000000000000000000000000000000000000000000000000000000000000000000000000000000000000000000000000000000000000000000000000000000000000000000000000000000000000000000000000000000000000000000000000000000000000000000000000000000000000000000000000000000000000000000000000000000000000000000000000000000000000000000000000000000000000000000000000000000000000000000000000000000000000000000000000000000000000000000000000000000000000000000000000000000000000000000",
      "type": "0x2",
      "transactionHash": "0x3b50872c37f538b37479f5a084b77a38dd53629de12b091f6f2bb150c6f53815",
      "transactionIndex": "0x57",
      "blockHash": "0x73cc4b1dfc43d80345184cd6394d54a5ef7c87d0118ad20a10ca39d4093432c0",
      "blockNumber": "0x27f4bf2",
      "gasUsed": "0x86282",
      "effectiveGasPrice": "0xcaaa57",
      "blobGasUsed": "0xd080",
      "from": "0xf17b5dd382b048ff4c05c1c9e4e24cfc5c6adad9",
      "to": "0xd29f7491e2269ba1f6f7b89ff3bbe6a65301e9af",
      "contractAddress": null,
      "daFootprintGasScalar": "0x8b",
      "l1BaseFeeScalar": "0x8dd",
      "l1BlobBaseFee": "0x2c1c8f",
      "l1BlobBaseFeeScalar": "0x101c12",
      "l1Fee": "0x37cb8f98",
      "l1GasPrice": "0x31d8539",
      "l1GasUsed": "0x1800"
    }
  ],
  "libraries": [],
  "pending": [],
  "returns": {},
  "timestamp": 1770583239722,
  "chain": 8453,
  "commit": "f532988"
}