{
  "transactions": [
    {
      "hash": "0xabf498cf259e09383fceca0e4de1f975332f69fe544384618c84ae0a7273d982",
      "transactionType": "CALL",
      "contractName": "AnonsDescriptor",
      "contractAddress": "0x099cc999dd431de6529fbb516e8c59ab0cecdde8",
      "function": "addManyAccessories(bytes[])",
      "arguments": [
        "[0x17141f0d01000129050002290500010001290300012901000100012902000129020003000129030002000129020002290100012902000129010001290400012901000129, 0x18151b0d0200039301000193010001000193016701930167019302000193010001930100019301000293, 0x17141e0e010d055c010d0332015c0100010d0132025c0200010d015c0100015c0200010d0200015c02000300015c02000300015c0200, 0x17121f0d0100017d0100017d01000500027d0100027d0500027d0100027d0500027d0100017d01000100017d0300, 0x18151b0d0100020302000203010001030200020302000103030002030300]"
      ],
      "transaction": {
        "from": "0x84d5e34ad1a91cf2ecad071a65948fa48f1b4216",
        "to": "0x099cc999dd431de6529fbb516e8c59ab0cecdde8",
        "gas": "0x81228",
        "value": "0x0",
        "input": "0x0475d8630000000000000000000000000000000000000000000000000000000000000020000000000000000000000000000000000000000000000000000000000000000500000000000000000000000000000000000000000000000000000000000000a00000000000000000000000000000000000000000000000000000000000000120000000000000000000000000000000000000000000000000000000000000018000000000000000000000000000000000000000000000000000000000000001e00000000000000000000000000000000000000000000000000000000000000240000000000000000000000000000000000000000000000000000000000000004417141f0d0100012905000229050001000129030001290100010001290200012902000300012903000200012902000229010001290200012901000129040001290100012900000000000000000000000000000000000000000000000000000000000000000000000000000000000000000000000000000000000000000000002a18151b0d020003930100019301000100019301670193016701930200019301000193010001930100029300000000000000000000000000000000000000000000000000000000000000000000000000000000000000000000000000000000003617141e0e010d055c010d0332015c0100010d0132025c0200010d015c0100015c0200010d0200015c02000300015c02000300015c020000000000000000000000000000000000000000000000000000000000000000000000000000000000002e17121f0d0100017d0100017d01000500027d0100027d0500027d0100027d0500027d0100017d01000100017d0300000000000000000000000000000000000000000000000000000000000000000000000000000000000000000000000000001e18151b0d01000203020002030100010302000203020001030300020303000000",
        "nonce": "0x83",
        "chainId": "0x14a34"
      },
      "additionalContracts": [
        {
          "transactionType": "CREATE",
          "contractName": null,
          "address": "0xe7746544605ca0e52ffe1a8a1ad21316002c8281",
          "initCode": "0x61004580600c6000396000f30017141f0d01000129050002290500010001290300012901000100012902000129020003000129030002000129020002290100012902000129010001290400012901000129"
        },
        {
          "transactionType": "CREATE",
          "contractName": null,
          "address": "0x481c770fba1fc4791f59dad36a728e0e72674b0a",
          "initCode": "0x61002b80600c6000396000f30018151b0d0200039301000193010001000193016701930167019302000193010001930100019301000293"
        },
        {
          "transactionType": "CREATE",
          "contractName": null,
          "address": "0x8ad1a4dd21b1a3a3871d4320ef2a826c90bc81b9",
          "initCode": "0x61003780600c6000396000f30017141e0e010d055c010d0332015c0100010d0132025c0200010d015c0100015c0200010d0200015c02000300015c02000300015c0200"
        },
        {
          "transactionType": "CREATE",
          "contractName": null,
          "address": "0x08067167f7c2887ee86d755a70a07e2a6703d9cb",
          "initCode": "0x61002f80600c6000396000f30017121f0d0100017d0100017d01000500027d0100027d0500027d0100027d0500027d0100017d01000100017d0300"
        },
        {
          "transactionType": "CREATE",
          "contractName": null,
          "address": "0x4ebf39d3e0bd9c252362d197703a30156e5250dd",
          "initCode": "0x61001f80600c6000396000f30018151b0d0100020302000203010001030200020302000103030002030300"
        }
      ],
      "isFixedGasLimit": false
    },
    {
      "hash": "0x0adf3e2b1a3fca5a11ca4d588be1a8f311adcd46d04f9ebee32584a080562661",
      "transactionType": "CALL",
      "contractName": "AnonsDescriptor",
      "contractAddress": "0x099cc999dd431de6529fbb516e8c59ab0cecdde8",
      "function": "addManyAccessories(bytes[])",
      "arguments": [
        "[0x17131d0d04000130010003000230010003300114010c01cd01000130021401300100020003300100010001300400, 0x15141e0d011705000117010001170300011701000200011701000117020003000117030003000117030002000117010a011702000300011703000100011701000117010001170100020003170200, 0x15161f0b016009000160010001600700016001000200016005000160020003000160030001600300040003600400050001400500020002400160015c03600200030001400115025c01600300040001400115014004000300024003600300, 0x18141f0d040003170500021704000117010001170300011703000100021704000117010a01170400010001170500, 0x15141f0c01170600011701000117040001170100020001170200011702000300021703000200011702000117020001000117010a0217010a01170100020001170136010a01360117010003000117020a0117010004000117013601170100050002170100]"
      ],
      "transaction": {
        "from": "0x84d5e34ad1a91cf2ecad071a65948fa48f1b4216",
        "to": "0x099cc999dd431de6529fbb516e8c59ab0cecdde8",
        "gas": "0x8c443",
        "value": "0x0",
        "input": "0x0475d8630000000000000000000000000000000000000000000000000000000000000020000000000000000000000000000000000000000000000000000000000000000500000000000000000000000000000000000000000000000000000000000000a00000000000000000000000000000000000000000000000000000000000000100000000000000000000000000000000000000000000000000000000000000018000000000000000000000000000000000000000000000000000000000000002000000000000000000000000000000000000000000000000000000000000000260000000000000000000000000000000000000000000000000000000000000002e17131d0d04000130010003000230010003300114010c01cd01000130021401300100020003300100010001300400000000000000000000000000000000000000000000000000000000000000000000000000000000000000000000000000004e15141e0d011705000117010001170300011701000200011701000117020003000117030003000117030002000117010a011702000300011703000100011701000117010001170100020003170200000000000000000000000000000000000000000000000000000000000000000000000000000000000000000000000000005e15161f0b016009000160010001600700016001000200016005000160020003000160030001600300040003600400050001400500020002400160015c03600200030001400115025c016003000400014001150140040003000240036003000000000000000000000000000000000000000000000000000000000000000000002e18141f0d040003170500021704000117010001170300011703000100021704000117010a01170400010001170500000000000000000000000000000000000000000000000000000000000000000000000000000000000000000000000000006415141f0c01170600011701000117040001170100020001170200011702000300021703000200011702000117020001000117010a0217010a01170100020001170136010a01360117010003000117020a011701000400011701360117010005000217010000000000000000000000000000000000000000000000000000000000",
        "nonce": "0x84",
        "chainId": "0x14a34"
      },
      "additionalContracts": [
        {
          "transactionType": "CREATE",
          "contractName": null,
          "address": "0x23dcec668a0c3ea321ab8874f9235f91487b06a1",
          "initCode": "0x61002f80600c6000396000f30017131d0d04000130010003000230010003300114010c01cd01000130021401300100020003300100010001300400"
        },
        {
          "transactionType": "CREATE",
          "contractName": null,
          "address": "0xe4ada4692b239378dc978c82f07fe659abe7c897",
          "initCode": "0x61004f80600c6000396000f30015141e0d011705000117010001170300011701000200011701000117020003000117030003000117030002000117010a011702000300011703000100011701000117010001170100020003170200"
        },
        {
          "transactionType": "CREATE",
          "contractName": null,
          "address": "0xd886c783bd7ea0ee65709baae711ed884e5492c5",
          "initCode": "0x61005f80600c6000396000f30015161f0b016009000160010001600700016001000200016005000160020003000160030001600300040003600400050001400500020002400160015c03600200030001400115025c01600300040001400115014004000300024003600300"
        },
        {
          "transactionType": "CREATE",
          "contractName": null,
          "address": "0xda80497f780db055d955e0a4c7b8dec8880bda4e",
          "initCode": "0x61002f80600c6000396000f30018141f0d040003170500021704000117010001170300011703000100021704000117010a01170400010001170500"
        },
        {
          "transactionType": "CREATE",
          "contractName": null,
          "address": "0xbcfda7bb510d0323c69db7ed9eb4b85b300d40b1",
          "initCode": "0x61006580600c6000396000f30015141f0c01170600011701000117040001170100020001170200011702000300021703000200011702000117020001000117010a0217010a01170100020001170136010a01360117010003000117020a0117010004000117013601170100050002170100"
        }
      ],
      "isFixedGasLimit": false
    },
    {
      "hash": "0x3a4fbc198057ba039e3f6313d7e54b6bd8d8cf2e628df13feda8b89db1943ad7",
      "transactionType": "CALL",
      "contractName": "AnonsDescriptor",
      "contractAddress": "0x099cc999dd431de6529fbb516e8c59ab0cecdde8",
      "function": "addManyAccessories(bytes[])",
      "arguments": [
        "[0x15141c0c01170600011701000117040001170100020001170200011702000300021703000100028e0249028e010001000117030a0149018e010001000417028e0100, 0x15141e0c0117060001170100011704000117010002000117020001170200030002170300020001170200011702000100011701360217010a0117010001000117040a0117010002000117020a01170200030002170300, 0x15141f0c011706000117010001170400011701000200011702000117020003000217030001000217020a02170100010001170100021701000117010001000217020a0217010002000117020a01170200010001170100021701000117010001000117040001170100, 0x17141e0d0300038e01000200018e0300018e0100018e017a018e0200018e018e0100018e0100018e0100018e018e0200018e017a018e0100018e0300018e02000100038e0300, 0x16131d0e0188030001880188030001880100018801000188010001000188010001880100020001880200028801000288028801000288]"
      ],
      "transaction": {
        "from": "0x84d5e34ad1a91cf2ecad071a65948fa48f1b4216",
        "to": "0x099cc999dd431de6529fbb516e8c59ab0cecdde8",
        "gas": "0x85b6a",
        "value": "0x0",
        "input": "0x0475d8630000000000000000000000000000000000000000000000000000000000000020000000000000000000000000000000000000000000000000000000000000000500000000000000000000000000000000000000000000000000000000000000a0000000000000000000000000000000000000000000000000000000000000012000000000000000000000000000000000000000000000000000000000000001a0000000000000000000000000000000000000000000000000000000000000024000000000000000000000000000000000000000000000000000000000000002c0000000000000000000000000000000000000000000000000000000000000004215141c0c01170600011701000117040001170100020001170200011702000300021703000100028e0249028e010001000117030a0149018e010001000417028e0100000000000000000000000000000000000000000000000000000000000000000000000000000000000000000000000000000000000000000000000000005615141e0c0117060001170100011704000117010002000117020001170200030002170300020001170200011702000100011701360217010a0117010001000117040a0117010002000117020a0117020003000217030000000000000000000000000000000000000000000000000000000000000000000000000000000000006815141f0c011706000117010001170400011701000200011702000117020003000217030001000217020a02170100010001170100021701000117010001000217020a0217010002000117020a01170200010001170100021701000117010001000117040001170100000000000000000000000000000000000000000000000000000000000000000000000000000000000000000000000000000000000000004617141e0d0300038e01000200018e0300018e0100018e017a018e0200018e018e0100018e0100018e0100018e018e0200018e017a018e0100018e0300018e02000100038e03000000000000000000000000000000000000000000000000000000000000000000000000000000000000000000000000000000000000000000003616131d0e018803000188018803000188010001880100018801000100018801000188010002000188020002880100028802880100028800000000000000000000",
        "nonce": "0x85",
        "chainId": "0x14a34"
      },
      "additionalContracts": [
        {
          "transactionType": "CREATE",
          "contractName": null,
          "address": "0x8ab848b77fb8ced97bce64d42f9fae77fc1d7602",
          "initCode": "0x61004380600c6000396000f30015141c0c01170600011701000117040001170100020001170200011702000300021703000100028e0249028e010001000117030a0149018e010001000417028e0100"
        },
        {
          "transactionType": "CREATE",
          "contractName": null,
          "address": "0x31e3c762b8300976737c111afc035dfd43d87824",
          "initCode": "0x61005780600c6000396000f30015141e0c0117060001170100011704000117010002000117020001170200030002170300020001170200011702000100011701360217010a0117010001000117040a0117010002000117020a01170200030002170300"
        },
        {
          "transactionType": "CREATE",
          "contractName": null,
          "address": "0x651580890b8c7e763f378ae4ca25840f1f22743b",
          "initCode": "0x61006980600c6000396000f30015141f0c011706000117010001170400011701000200011702000117020003000217030001000217020a02170100010001170100021701000117010001000217020a0217010002000117020a01170200010001170100021701000117010001000117040001170100"
        },
        {
          "transactionType": "CREATE",
          "contractName": null,
          "address": "0x054b533495fe353d1e46f436772eff7b03fdf33e",
          "initCode": "0x61004780600c6000396000f30017141e0d0300038e01000200018e0300018e0100018e017a018e0200018e018e0100018e0100018e0100018e018e0200018e017a018e0100018e0300018e02000100038e0300"
        },
        {
          "transactionType": "CREATE",
          "contractName": null,
          "address": "0x4dda17b591fc4e4f90432ae8648936f00f8ebca6",
          "initCode": "0x61003780600c6000396000f30016131d0e0188030001880188030001880100018801000188010001000188010001880100020001880200028801000288028801000288"
        }
      ],
      "isFixedGasLimit": false
    },
    {
      "hash": "0xc16d7db67bc6a0d3d1d05589ac98cc56e66d75757ba15d2b97138bf7fd672716",
      "transactionType": "CALL",
      "contractName": "AnonsDescriptor",
      "contractAddress": "0x099cc999dd431de6529fbb516e8c59ab0cecdde8",
      "function": "addManyAccessories(bytes[])",
      "arguments": [
        "[0x16141e0c0100011706000117010a011701000117020001170100011702000117030003000117010a0117020001000217030a021703000117010a01170200040001170300040001170300, 0x15172009023002030230020302300203023001300127020c0227020c0227020c012701300103010c0285020c0285020c0285010c01030103010c01990185020c0285020c0285010c0103026b01000103021e020c021e020c011e016b026b01000103021e020c021e020c011e016b020301000131020c0210020c0210010c0103020301000131020c0210020c0210010c010302c4010001030251020c0251020c015101c402c4010001030251020c0251020c015101c4020c0100012a020c022a020c022a020c, 0x151720090e8001800cc3018001ec0cbe01ec01ec01be01ec0abe01ec02e1010001e109cb01e102e1010001e109cb01e102e1010001e109c201e102e1010001e109c201e102e0010001e0099001e002e0010001e0099001e0029001000b90, 0x151720090e8001800cc3018001300c1401300130011401300a14013002930100019309520193029301000193095201930293010001930952019302930100019309520193023b0100013b0909013b023b0100013b0909013b020901000b09, 0x151720090eee01ee017501d7017501d7017501d7017501d7017501d7017501d701ee01ee0c7501ee01ee017501ee0a7501d102d1010001d1097501d102d1010001d1097501d102d1010001d1097501d101d1015c0100015c017501510175015101750151017501510175015c025c0100015c0951015c015c012601000126015101df015101df015101df015101df0151012602df01000bdf]"
      ],
      "transaction": {
        "from": "0x84d5e34ad1a91cf2ecad071a65948fa48f1b4216",
        "to": "0x099cc999dd431de6529fbb516e8c59ab0cecdde8",
        "gas": "0x970b1",
        "value": "0x0",
        "input": "0x0475d8630000000000000000000000000000000000000000000000000000000000000020000000000000000000000000000000000000000000000000000000000000000500000000000000000000000000000000000000000000000000000000000000a00000000000000000000000000000000000000000000000000000000000000120000000000000000000000000000000000000000000000000000000000000022000000000000000000000000000000000000000000000000000000000000002a00000000000000000000000000000000000000000000000000000000000000320000000000000000000000000000000000000000000000000000000000000004a16141e0c0100011706000117010a011701000117020001170100011702000117030003000117010a0117020001000217030a021703000117010a011702000400011703000400011703000000000000000000000000000000000000000000000000000000000000000000000000000000000000000000000000000000000000c615172009023002030230020302300203023001300127020c0227020c0227020c012701300103010c0285020c0285020c0285010c01030103010c01990185020c0285020c0285010c0103026b01000103021e020c021e020c011e016b026b01000103021e020c021e020c011e016b020301000131020c0210020c0210010c0103020301000131020c0210020c0210010c010302c4010001030251020c0251020c015101c402c4010001030251020c0251020c015101c4020c0100012a020c022a020c022a020c0000000000000000000000000000000000000000000000000000000000000000000000000000000000000000000000000000000000000000005e151720090e8001800cc3018001ec0cbe01ec01ec01be01ec0abe01ec02e1010001e109cb01e102e1010001e109cb01e102e1010001e109c201e102e1010001e109c201e102e0010001e0099001e002e0010001e0099001e0029001000b900000000000000000000000000000000000000000000000000000000000000000005e151720090e8001800cc3018001300c1401300130011401300a14013002930100019309520193029301000193095201930293010001930952019302930100019309520193023b0100013b0909013b023b0100013b0909013b020901000b0900000000000000000000000000000000000000000000000000000000000000000098151720090eee01ee017501d7017501d7017501d7017501d7017501d7017501d701ee01ee0c7501ee01ee017501ee0a7501d102d1010001d1097501d102d1010001d1097501d102d1010001d1097501d101d1015c0100015c017501510175015101750151017501510175015c025c0100015c0951015c015c012601000126015101df015101df015101df015101df0151012602df01000bdf0000000000000000",
        "nonce": "0x86",
        "chainId": "0x14a34"
      },
      "additionalContracts": [
        {
          "transactionType": "CREATE",
          "contractName": null,
          "address": "0x3e58b6f4f922e4b78fb1c10f655e37e44ea40bd6",
          "initCode": "0x61004b80600c6000396000f30016141e0c0100011706000117010a011701000117020001170100011702000117030003000117010a0117020001000217030a021703000117010a01170200040001170300040001170300"
        },
        {
          "transactionType": "CREATE",
          "contractName": null,
          "address": "0xd4ca36986e8b811ee71ff7ffbc42afd22438c77e",
          "initCode": "0x6100c780600c6000396000f30015172009023002030230020302300203023001300127020c0227020c0227020c012701300103010c0285020c0285020c0285010c01030103010c01990185020c0285020c0285010c0103026b01000103021e020c021e020c011e016b026b01000103021e020c021e020c011e016b020301000131020c0210020c0210010c0103020301000131020c0210020c0210010c010302c4010001030251020c0251020c015101c402c4010001030251020c0251020c015101c4020c0100012a020c022a020c022a020c"
        },
        {
          "transactionType": "CREATE",
          "contractName": null,
          "address": "0xb0e414b7a4fc604f32bad2d9c61d719a50918284",
          "initCode": "0x61005f80600c6000396000f300151720090e8001800cc3018001ec0cbe01ec01ec01be01ec0abe01ec02e1010001e109cb01e102e1010001e109cb01e102e1010001e109c201e102e1010001e109c201e102e0010001e0099001e002e0010001e0099001e0029001000b90"
        },
        {
          "transactionType": "CREATE",
          "contractName": null,
          "address": "0xe21019980044ddd155f60efd40d672e9863aebfa",
          "initCode": "0x61005f80600c6000396000f300151720090e8001800cc3018001300c1401300130011401300a14013002930100019309520193029301000193095201930293010001930952019302930100019309520193023b0100013b0909013b023b0100013b0909013b020901000b09"
        },
        {
          "transactionType": "CREATE",
          "contractName": null,
          "address": "0x9f8c9c3018a1e9718b83c7dcf21cff122c020f92",
          "initCode": "0x61009980600c6000396000f300151720090eee01ee017501d7017501d7017501d7017501d7017501d7017501d701ee01ee0c7501ee01ee017501ee0a7501d102d1010001d1097501d102d1010001d1097501d102d1010001d1097501d101d1015c0100015c017501510175015101750151017501510175015c025c0100015c0951015c015c012601000126015101df015101df015101df015101df0151012602df01000bdf"
        }
      ],
      "isFixedGasLimit": false
    },
    {
      "hash": "0x2630a763b73d80717328a36b4aeb94b728520f46d6684d0632e7123b9ce5afe3",
      "transactionType": "CALL",
      "contractName": "AnonsDescriptor",
      "contractAddress": "0x099cc999dd431de6529fbb516e8c59ab0cecdde8",
      "function": "addManyAccessories(bytes[])",
      "arguments": [
        "[0x151720090e0801080cbf010801240c5101240124015101240a5101240224010001240951012402240100012409510124025c0100015c0951015c025c0100015c0951015c025c0100015c0951015c025c0100015c0951015c025101000b51, 0x151720090ed201d20cdb01d201880c1d01880188011d01880a1d0188028e0100018e097a018e028e0100018e097a018e025701000157096d0157025701000157096d0157023101000131091001310231010001310910013102bd01000bbd, 0x151720090e7701770c27017701770c27017701c501e901c50ae901c502c5010001c509e901c502c5010001c509e901c502c5010001c509e901c502c5010001c509e901c502c5010001c509e901c502cf010001cf09bd01cf02bd01000bbd, 0x151720090ef301f30c8601f301f30c8601f301cd01e301cd0ae301cd028801000188091d01880280010001800941018002300100013009be013002300100013009be013002c5010001c509e901c502c5010001c509e901c502e901000be9, 0x18141e0d01000273010002730100017302f7017301000273017301f701730100017301f701730100017301f7017301000173010002000173010001730200030001730300]"
      ],
      "transaction": {
        "from": "0x84d5e34ad1a91cf2ecad071a65948fa48f1b4216",
        "to": "0x099cc999dd431de6529fbb516e8c59ab0cecdde8",
        "gas": "0x8a7b9",
        "value": "0x0",
        "input": "0x0475d8630000000000000000000000000000000000000000000000000000000000000020000000000000000000000000000000000000000000000000000000000000000500000000000000000000000000000000000000000000000000000000000000a0000000000000000000000000000000000000000000000000000000000000012000000000000000000000000000000000000000000000000000000000000001a0000000000000000000000000000000000000000000000000000000000000022000000000000000000000000000000000000000000000000000000000000002a0000000000000000000000000000000000000000000000000000000000000005e151720090e0801080cbf010801240c5101240124015101240a5101240224010001240951012402240100012409510124025c0100015c0951015c025c0100015c0951015c025c0100015c0951015c025c0100015c0951015c025101000b510000000000000000000000000000000000000000000000000000000000000000005e151720090ed201d20cdb01d201880c1d01880188011d01880a1d0188028e0100018e097a018e028e0100018e097a018e025701000157096d0157025701000157096d0157023101000131091001310231010001310910013102bd01000bbd0000000000000000000000000000000000000000000000000000000000000000005e151720090e7701770c27017701770c27017701c501e901c50ae901c502c5010001c509e901c502c5010001c509e901c502c5010001c509e901c502c5010001c509e901c502c5010001c509e901c502cf010001cf09bd01cf02bd01000bbd0000000000000000000000000000000000000000000000000000000000000000005e151720090ef301f30c8601f301f30c8601f301cd01e301cd0ae301cd028801000188091d01880280010001800941018002300100013009be013002300100013009be013002c5010001c509e901c502c5010001c509e901c502e901000be90000000000000000000000000000000000000000000000000000000000000000004418141e0d01000273010002730100017302f7017301000273017301f701730100017301f701730100017301f701730100017301000200017301000173020003000173030000000000000000000000000000000000000000000000000000000000",
        "nonce": "0x87",
        "chainId": "0x14a34"
      },
      "additionalContracts": [
        {
          "transactionType": "CREATE",
          "contractName": null,
          "address": "0x5c6b59718882c245021a73aebaa7350c6127531c",
          "initCode": "0x61005f80600c6000396000f300151720090e0801080cbf010801240c5101240124015101240a5101240224010001240951012402240100012409510124025c0100015c0951015c025c0100015c0951015c025c0100015c0951015c025c0100015c0951015c025101000b51"
        },
        {
          "transactionType": "CREATE",
          "contractName": null,
          "address": "0x529d59d25532b939f42f050dc627a9f114b18fbc",
          "initCode": "0x61005f80600c6000396000f300151720090ed201d20cdb01d201880c1d01880188011d01880a1d0188028e0100018e097a018e028e0100018e097a018e025701000157096d0157025701000157096d0157023101000131091001310231010001310910013102bd01000bbd"
        },
        {
          "transactionType": "CREATE",
          "contractName": null,
          "address": "0x3c0fda4a4eb576f8f669f105ae76b10ff7f3af6b",
          "initCode": "0x61005f80600c6000396000f300151720090e7701770c27017701770c27017701c501e901c50ae901c502c5010001c509e901c502c5010001c509e901c502c5010001c509e901c502c5010001c509e901c502c5010001c509e901c502cf010001cf09bd01cf02bd01000bbd"
        },
        {
          "transactionType": "CREATE",
          "contractName": null,
          "address": "0xdcb78922cff1a54c9fb0eebd87bc09774c905c81",
          "initCode": "0x61005f80600c6000396000f300151720090ef301f30c8601f301f30c8601f301cd01e301cd0ae301cd028801000188091d01880280010001800941018002300100013009be013002300100013009be013002c5010001c509e901c502c5010001c509e901c502e901000be9"
        },
        {
          "transactionType": "CREATE",
          "contractName": null,
          "address": "0xa725ff9fe139ba86374a82757f9578eb1fc2f562",
          "initCode": "0x61004580600c6000396000f30018141e0d01000273010002730100017302f7017301000273017301f701730100017301f701730100017301f7017301000173010002000173010001730200030001730300"
        }
      ],
      "isFixedGasLimit": false
    },
    {
      "hash": "0x09d42b83da8c977fa59d980896321c8354156af72de5c65d3d372cc758846681",
      "transactionType": "CALL",
      "contractName": "AnonsDescriptor",
      "contractAddress": "0x099cc999dd431de6529fbb516e8c59ab0cecdde8",
      "function": "addManyAccessories(bytes[])",
      "arguments": [
        "[0x18131e0e020001940100019403000194010002000288010001000288020001000188030001880400, 0x18171d090117010003170100031701000317010001000117030001170300011703000117021702000117010a011701000117010a0117010002170100011703000117030001170300011701170200021701000317010003170100, 0x151720090230028f02350230028f0235023001300114022a02220214022a022201140130013501220214022a02220214022a012201350135012201300114022a02220214022a01220135028f010001350214022a02220214012a018f028f010001350214022a02220214012a018f02300100018f02220214022a02220114013002300100018f02220214022a022201140130023501000130022a02220214022a01220135023501000130022a02220214022a01220135022a010001220214022a02220214022a, 0x151720090400036b0100036b0100026b036b0100016b011e016b0100036b0300016b011e016b0100036b0700036b0700036b01000600036b0100016b011e016b01000300026b0100016b011e016b0100036b0100016b0200026b0100036b0500016b0200026b0700026b016b0700036b0100026b0400036b0100016b011e016b0100026b021e0200031e0100031e0300, 0x15172009040003950100039501000295039501000195019e01950100039503000195019e019501000395070003950700039501000600039501000195019e019501000300029501000195019e019501000395010001950200029501000395050001950200029507000295019507000395010002950400039501000195019e019501000295029e0200039e0100039e0300]"
      ],
      "transaction": {
        "from": "0x84d5e34ad1a91cf2ecad071a65948fa48f1b4216",
        "to": "0x099cc999dd431de6529fbb516e8c59ab0cecdde8",
        "gas": "0xa0187",
        "value": "0x0",
        "input": "0x0475d8630000000000000000000000000000000000000000000000000000000000000020000000000000000000000000000000000000000000000000000000000000000500000000000000000000000000000000000000000000000000000000000000a00000000000000000000000000000000000000000000000000000000000000100000000000000000000000000000000000000000000000000000000000000018000000000000000000000000000000000000000000000000000000000000002800000000000000000000000000000000000000000000000000000000000000340000000000000000000000000000000000000000000000000000000000000002818131e0e020001940100019403000194010002000288010001000288020001000188030001880400000000000000000000000000000000000000000000000000000000000000000000000000000000000000000000000000000000000000005a18171d090117010003170100031701000317010001000117030001170300011703000117021702000117010a011701000117010a011701000217010001170300011703000117030001170117020002170100031701000317010000000000000000000000000000000000000000000000000000000000000000000000000000c6151720090230028f02350230028f0235023001300114022a02220214022a022201140130013501220214022a02220214022a012201350135012201300114022a02220214022a01220135028f010001350214022a02220214012a018f028f010001350214022a02220214012a018f02300100018f02220214022a02220114013002300100018f02220214022a022201140130023501000130022a02220214022a01220135023501000130022a02220214022a01220135022a010001220214022a02220214022a00000000000000000000000000000000000000000000000000000000000000000000000000000000000000000000000000000000000000000090151720090400036b0100036b0100026b036b0100016b011e016b0100036b0300016b011e016b0100036b0700036b0700036b01000600036b0100016b011e016b01000300026b0100016b011e016b0100036b0100016b0200026b0100036b0500016b0200026b0700026b016b0700036b0100026b0400036b0100016b011e016b0100026b021e0200031e0100031e030000000000000000000000000000000000000000000000000000000000000000000000000000000000000000000000009015172009040003950100039501000295039501000195019e01950100039503000195019e019501000395070003950700039501000600039501000195019e019501000300029501000195019e019501000395010001950200029501000395050001950200029507000295019507000395010002950400039501000195019e019501000295029e0200039e0100039e030000000000000000000000000000000000",
        "nonce": "0x88",
        "chainId": "0x14a34"
      },
      "additionalContracts": [
        {
          "transactionType": "CREATE",
          "contractName": null,
          "address": "0x67ce8525247014f4197cb184cae84704af8940af",
          "initCode": "0x61002980600c6000396000f30018131e0e020001940100019403000194010002000288010001000288020001000188030001880400"
        },
        {
          "transactionType": "CREATE",
          "contractName": null,
          "address": "0xcf5a9565bc5016b986763e0eb0f2a641d25ad0ef",
          "initCode": "0x61005b80600c6000396000f30018171d090117010003170100031701000317010001000117030001170300011703000117021702000117010a011701000117010a0117010002170100011703000117030001170300011701170200021701000317010003170100"
        },
        {
          "transactionType": "CREATE",
          "contractName": null,
          "address": "0x34f36b086cae78a4a1fadd68853c7d3cfa1a4fa1",
          "initCode": "0x6100c780600c6000396000f300151720090230028f02350230028f0235023001300114022a02220214022a022201140130013501220214022a02220214022a012201350135012201300114022a02220214022a01220135028f010001350214022a02220214012a018f028f010001350214022a02220214012a018f02300100018f02220214022a02220114013002300100018f02220214022a022201140130023501000130022a02220214022a01220135023501000130022a02220214022a01220135022a010001220214022a02220214022a"
        },
        {
          "transactionType": "CREATE",
          "contractName": null,
          "address": "0xb676a95b121e9a2fd38415b3fa68a91415be83d6",
          "initCode": "0x61009180600c6000396000f300151720090400036b0100036b0100026b036b0100016b011e016b0100036b0300016b011e016b0100036b0700036b0700036b01000600036b0100016b011e016b01000300026b0100016b011e016b0100036b0100016b0200026b0100036b0500016b0200026b0700026b016b0700036b0100026b0400036b0100016b011e016b0100026b021e0200031e0100031e0300"
        },
        {
          "transactionType": "CREATE",
          "contractName": null,
          "address": "0x33aa0ba06951777b594335a37f8b262be273bca4",
          "initCode": "0x61009180600c6000396000f30015172009040003950100039501000295039501000195019e01950100039503000195019e019501000395070003950700039501000600039501000195019e019501000300029501000195019e019501000395010001950200029501000395050001950200029507000295019507000395010002950400039501000195019e019501000295029e0200039e0100039e0300"
        }
      ],
      "isFixedGasLimit": false
    },
    {
      "hash": "0xa9379de6ebbddfea58d014a50c4b601bb4174844bbb850a895b62f63f4631ddf",
      "transactionType": "CALL",
      "contractName": "AnonsDescriptor",
      "contractAddress": "0x099cc999dd431de6529fbb516e8c59ab0cecdde8",
      "function": "addManyAccessories(bytes[])",
      "arguments": [
        "[0x15172009040003dc010003f3010002800347010001dc016d01dc010003f30300014701bd0147010003dc040003470347040003ec0100014701bd014703000380010001ec011301ec0100034702f30100018001410180010003ec040002f301000380040003f3010002f3040003dc010001f3018601f3010003000247010001dc016d01dc010003f3010001ec02000247010003dc040001470113020002bd04000313010001bd, 0x1517200903000203040002030300030002030400020303000e0002030400020304000203020304000203040002030e0003000203040002030300030002030400020303000e0002030400020304000203020c0400020c0400020c, 0x151720090300020d0400020d03000300020d0400020d03000e00020d0400020d0400020d020d0400020d0400020d0e000300020d0400020d03000300020d0400020d03000e00020d0400020d0400020d02020400020204000202, 0x15172009027d02310283027d02310283027d017d01f40210024302f40210024301f4017d0183014302f40210024302f402100143018301830143017d01f40210024302f402100143018302310100018302f40210024302f40110013102310100018302f40210024302f401100131027d01000131024302f40210024301f4017d027d01000131024302f40210024301f4017d02830100017d0210024302f402100143018302830100017d0210024302f402100143018302100100014302f40210024302f40210, 0x15172009035703000357030002570157016d015703000157016d015703000257035703000357030002570300035703000357020003000157016d015703000157016d015702000300035703000357020002570400035703000257025704000157016d01570300025702570400035703000257030003570300035702000300036d0300036d0200]"
      ],
      "transaction": {
        "from": "0x84d5e34ad1a91cf2ecad071a65948fa48f1b4216",
        "to": "0x099cc999dd431de6529fbb516e8c59ab0cecdde8",
        "gas": "0xa4ecf",
        "value": "0x0",
        "input": "0x0475d8630000000000000000000000000000000000000000000000000000000000000020000000000000000000000000000000000000000000000000000000000000000500000000000000000000000000000000000000000000000000000000000000a0000000000000000000000000000000000000000000000000000000000000018000000000000000000000000000000000000000000000000000000000000002000000000000000000000000000000000000000000000000000000000000000280000000000000000000000000000000000000000000000000000000000000038000000000000000000000000000000000000000000000000000000000000000a615172009040003dc010003f3010002800347010001dc016d01dc010003f30300014701bd0147010003dc040003470347040003ec0100014701bd014703000380010001ec011301ec0100034702f30100018001410180010003ec040002f301000380040003f3010002f3040003dc010001f3018601f3010003000247010001dc016d01dc010003f3010001ec02000247010003dc040001470113020002bd04000313010001bd0000000000000000000000000000000000000000000000000000000000000000000000000000000000000000000000000000000000000000005a1517200903000203040002030300030002030400020303000e0002030400020304000203020304000203040002030e0003000203040002030300030002030400020303000e0002030400020304000203020c0400020c0400020c000000000000000000000000000000000000000000000000000000000000000000000000005a151720090300020d0400020d03000300020d0400020d03000e00020d0400020d0400020d020d0400020d0400020d0e000300020d0400020d03000300020d0400020d03000e00020d0400020d0400020d0202040002020400020200000000000000000000000000000000000000000000000000000000000000000000000000c615172009027d02310283027d02310283027d017d01f40210024302f40210024301f4017d0183014302f40210024302f402100143018301830143017d01f40210024302f402100143018302310100018302f40210024302f40110013102310100018302f40210024302f401100131027d01000131024302f40210024301f4017d027d01000131024302f40210024301f4017d02830100017d0210024302f402100143018302830100017d0210024302f402100143018302100100014302f40210024302f402100000000000000000000000000000000000000000000000000000000000000000000000000000000000000000000000000000000000000000008615172009035703000357030002570157016d015703000157016d015703000257035703000357030002570300035703000357020003000157016d015703000157016d015702000300035703000357020002570400035703000257025704000157016d01570300025702570400035703000257030003570300035702000300036d0300036d02000000000000000000000000000000000000000000000000000000",
        "nonce": "0x89",
        "chainId": "0x14a34"
      },
      "additionalContracts": [
        {
          "transactionType": "CREATE",
          "contractName": null,
          "address": "0xe80ddf5ce857d6a8206b3eefa27370bb4031fc2f",
          "initCode": "0x6100a780600c6000396000f30015172009040003dc010003f3010002800347010001dc016d01dc010003f30300014701bd0147010003dc040003470347040003ec0100014701bd014703000380010001ec011301ec0100034702f30100018001410180010003ec040002f301000380040003f3010002f3040003dc010001f3018601f3010003000247010001dc016d01dc010003f3010001ec02000247010003dc040001470113020002bd04000313010001bd"
        },
        {
          "transactionType": "CREATE",
          "contractName": null,
          "address": "0x4ad73006f5fd51374e8ff0c85171a58b58ca8071",
          "initCode": "0x61005b80600c6000396000f3001517200903000203040002030300030002030400020303000e0002030400020304000203020304000203040002030e0003000203040002030300030002030400020303000e0002030400020304000203020c0400020c0400020c"
        },
        {
          "transactionType": "CREATE",
          "contractName": null,
          "address": "0x7c00615a9ac5b8372fd1d1bef2c1663edc2e5762",
          "initCode": "0x61005b80600c6000396000f300151720090300020d0400020d03000300020d0400020d03000e00020d0400020d0400020d020d0400020d0400020d0e000300020d0400020d03000300020d0400020d03000e00020d0400020d0400020d02020400020204000202"
        },
        {
          "transactionType": "CREATE",
          "contractName": null,
          "address": "0xfa637addf14d029dd32e797dba9469a613725328",
          "initCode": "0x6100c780600c6000396000f30015172009027d02310283027d02310283027d017d01f40210024302f40210024301f4017d0183014302f40210024302f402100143018301830143017d01f40210024302f402100143018302310100018302f40210024302f40110013102310100018302f40210024302f401100131027d01000131024302f40210024301f4017d027d01000131024302f40210024301f4017d02830100017d0210024302f402100143018302830100017d0210024302f402100143018302100100014302f40210024302f40210"
        },
        {
          "transactionType": "CREATE",
          "contractName": null,
          "address": "0xc345f398743357bc5ebc76c5df06fdd0e26aff2c",
          "initCode": "0x61008780600c6000396000f30015172009035703000357030002570157016d015703000157016d015703000257035703000357030002570300035703000357020003000157016d015703000157016d015702000300035703000357020002570400035703000257025704000157016d01570300025702570400035703000257030003570300035702000300036d0300036d0200"
        }
      ],
      "isFixedGasLimit": false
    },
    {
      "hash": "0x42b967cddd1c2c29ff51b68255007d114e8940843cb2226b3e3324be4bf50c2b",
      "transactionType": "CALL",
      "contractName": "AnonsDescriptor",
      "contractAddress": "0x099cc999dd431de6529fbb516e8c59ab0cecdde8",
      "function": "addManyAccessories(bytes[])",
      "arguments": [
        "[0x1517200903530300035303000253015301fa01530300015301fa01530300025303530300035303000253030003530300035302000300015301fa01530300015301fa01530200030003530300035302000253040003530300025302530400015301fa0153030002530253040003530300025303000353030003530200030003fa030003fa0200, 0x151720090200020302000203020002030200020002030200020302000203020002030200020302000203020002030203020002030200020302000203030001030200020302000203020003000103020002030200020302000203020002030200020302000203020302000203020002030200020303000103020002030200020302000300010302000203020002030200020c0200020c0200020c0200020c, 0x1517200902350200023502000235020002350235020002350200023502000235020002350200023502000235020002000235020002350200023502000235020002350200023502000235023502000235020002350200023503000135020002350200023502000300013502000235020002350200023502000235020002350200023502350200023502000235020002350300012202000222020002220200, 0x1517200902000293020002930200029302000200029302000293020002930200029302000293020002930200029302930200029302000293020002930300019302000293020002930200030001930200029302000293020002930200029302000293020002930293020002930200029302000293030001930200029302000293020003000193020002930200029302000267020002670200026702000267, 0x18131e0d030002300100020d0200010d01c10100040d01000200020d02000200010d0300020001c10300]"
      ],
      "transaction": {
        "from": "0x84d5e34ad1a91cf2ecad071a65948fa48f1b4216",
        "to": "0x099cc999dd431de6529fbb516e8c59ab0cecdde8",
        "gas": "0x9968a",
        "value": "0x0",
        "input": "0x0475d8630000000000000000000000000000000000000000000000000000000000000020000000000000000000000000000000000000000000000000000000000000000500000000000000000000000000000000000000000000000000000000000000a00000000000000000000000000000000000000000000000000000000000000160000000000000000000000000000000000000000000000000000000000000022000000000000000000000000000000000000000000000000000000000000002e000000000000000000000000000000000000000000000000000000000000003a000000000000000000000000000000000000000000000000000000000000000861517200903530300035303000253015301fa01530300015301fa01530300025303530300035303000253030003530300035302000300015301fa01530300015301fa01530200030003530300035302000253040003530300025302530400015301fa0153030002530253040003530300025303000353030003530200030003fa030003fa02000000000000000000000000000000000000000000000000000000000000000000000000000000000000000000000000000000000000000000009e151720090200020302000203020002030200020002030200020302000203020002030200020302000203020002030203020002030200020302000203030001030200020302000203020003000103020002030200020302000203020002030200020302000203020302000203020002030200020303000103020002030200020302000300010302000203020002030200020c0200020c0200020c0200020c0000000000000000000000000000000000000000000000000000000000000000009e15172009023502000235020002350200023502350200023502000235020002350200023502000235020002350200020002350200023502000235020002350200023502000235020002350235020002350200023502000235030001350200023502000235020003000135020002350200023502000235020002350200023502000235023502000235020002350200023503000122020002220200022202000000000000000000000000000000000000000000000000000000000000000000009e15172009020002930200029302000293020002000293020002930200029302000293020002930200029302000293029302000293020002930200029303000193020002930200029302000300019302000293020002930200029302000293020002930200029302930200029302000293020002930300019302000293020002930200030001930200029302000293020002670200026702000267020002670000000000000000000000000000000000000000000000000000000000000000002a18131e0d030002300100020d0200010d01c10100040d01000200020d02000200010d0300020001c1030000000000000000000000000000000000000000000000",
        "nonce": "0x8a",
        "chainId": "0x14a34"
      },
      "additionalContracts": [
        {
          "transactionType": "CREATE",
          "contractName": null,
          "address": "0x19275a90da192e00179abe072e2db149662fc9e2",
          "initCode": "0x61008780600c6000396000f3001517200903530300035303000253015301fa01530300015301fa01530300025303530300035303000253030003530300035302000300015301fa01530300015301fa01530200030003530300035302000253040003530300025302530400015301fa0153030002530253040003530300025303000353030003530200030003fa030003fa0200"
        },
        {
          "transactionType": "CREATE",
          "contractName": null,
          "address": "0x65e6a200b1f6c68a7ad79371907b80c46f739e2d",
          "initCode": "0x61009f80600c6000396000f300151720090200020302000203020002030200020002030200020302000203020002030200020302000203020002030203020002030200020302000203030001030200020302000203020003000103020002030200020302000203020002030200020302000203020302000203020002030200020303000103020002030200020302000300010302000203020002030200020c0200020c0200020c0200020c"
        },
        {
          "transactionType": "CREATE",
          "contractName": null,
          "address": "0xefb3cf8481ed543f2c888939ac96ca8d446ecb1b",
          "initCode": "0x61009f80600c6000396000f3001517200902350200023502000235020002350235020002350200023502000235020002350200023502000235020002000235020002350200023502000235020002350200023502000235023502000235020002350200023503000135020002350200023502000300013502000235020002350200023502000235020002350200023502350200023502000235020002350300012202000222020002220200"
        },
        {
          "transactionType": "CREATE",
          "contractName": null,
          "address": "0x8756c9059ba7606ba3f18f5975b8416282a21282",
          "initCode": "0x61009f80600c6000396000f3001517200902000293020002930200029302000200029302000293020002930200029302000293020002930200029302930200029302000293020002930300019302000293020002930200030001930200029302000293020002930200029302000293020002930293020002930200029302000293030001930200029302000293020003000193020002930200029302000267020002670200026702000267"
        },
        {
          "transactionType": "CREATE",
          "contractName": null,
          "address": "0x1db9d0dacf84842e35bcdad4a4433cdd915ccb0e",
          "initCode": "0x61002b80600c6000396000f30018131e0d030002300100020d0200010d01c10100040d01000200020d02000200010d0300020001c10300"
        }
      ],
      "isFixedGasLimit": false
    },
    {
      "hash": "0x6431fc1bc8ee6f2a11f0d4a8cae92cb12a0c17e68a5bba0fc467223ed8a1e65c",
      "transactionType": "CALL",
      "contractName": "AnonsDescriptor",
      "contractAddress": "0x099cc999dd431de6529fbb516e8c59ab0cecdde8",
      "function": "addManyAccessories(bytes[])",
      "arguments": [
        "[0x18131b0d0200030d01000100010d0302010d060d, 0x17151f0d02000294040002000194014e0194030001000194010001940100029401000194014e019401000194014e0194010002940100019401000194020002000194014e019403000200029401000194020006000294, 0x151718090e5301170c0a01170e88, 0x18141d0d0500012801000100032801030111013b012801000128010c011101280100012801000128023b0128010002000128020001280100, 0x151720090e6002000160045c016003000160015c016002000160055c0360015c0160010001000260015c0160035c026001000260010002600100016001000160015c016002000460026001000360025c0360030001600200016002000160015c0160050003000560015c0260030003000160040002600100026001000100016001000560025c0160025c016003000b5c]"
      ],
      "transaction": {
        "from": "0x84d5e34ad1a91cf2ecad071a65948fa48f1b4216",
        "to": "0x099cc999dd431de6529fbb516e8c59ab0cecdde8",
        "gas": "0x8143d",
        "value": "0x0",
        "input": "0x0475d8630000000000000000000000000000000000000000000000000000000000000020000000000000000000000000000000000000000000000000000000000000000500000000000000000000000000000000000000000000000000000000000000a000000000000000000000000000000000000000000000000000000000000000e0000000000000000000000000000000000000000000000000000000000000016000000000000000000000000000000000000000000000000000000000000001a00000000000000000000000000000000000000000000000000000000000000200000000000000000000000000000000000000000000000000000000000000001418131b0d0200030d01000100010d0302010d060d000000000000000000000000000000000000000000000000000000000000000000000000000000000000005617151f0d02000294040002000194014e0194030001000194010001940100029401000194014e019401000194014e0194010002940100019401000194020002000194014e01940300020002940100019402000600029400000000000000000000000000000000000000000000000000000000000000000000000000000000000e151718090e5301170c0a01170e88000000000000000000000000000000000000000000000000000000000000000000000000000000000000000000000000003818141d0d0500012801000100032801030111013b012801000128010c011101280100012801000128023b012801000200012802000128010000000000000000000000000000000000000000000000000000000000000000000000000000000090151720090e6002000160045c016003000160015c016002000160055c0360015c0160010001000260015c0160035c026001000260010002600100016001000160015c016002000460026001000360025c0360030001600200016002000160015c0160050003000560015c0260030003000160040002600100026001000100016001000560025c0160025c016003000b5c00000000000000000000000000000000",
        "nonce": "0x8b",
        "chainId": "0x14a34"
      },
      "additionalContracts": [
        {
          "transactionType": "CREATE",
          "contractName": null,
          "address": "0x2aa574b4f8c50802c5e7f592dfc2215a6a2afd52",
          "initCode": "0x61001580600c6000396000f30018131b0d0200030d01000100010d0302010d060d"
        },
        {
          "transactionType": "CREATE",
          "contractName": null,
          "address": "0xa613b6311c3e25e61467d057e3c390761517af49",
          "initCode": "0x61005780600c6000396000f30017151f0d02000294040002000194014e0194030001000194010001940100029401000194014e019401000194014e0194010002940100019401000194020002000194014e019403000200029401000194020006000294"
        },
        {
          "transactionType": "CREATE",
          "contractName": null,
          "address": "0xc5a95df948909dfd2d3474ab3453fee6b6ff0707",
          "initCode": "0x61000f80600c6000396000f300151718090e5301170c0a01170e88"
        },
        {
          "transactionType": "CREATE",
          "contractName": null,
          "address": "0x008f28240316aa198fcacdb804eceba7fd73407f",
          "initCode": "0x61003980600c6000396000f30018141d0d0500012801000100032801030111013b012801000128010c011101280100012801000128023b0128010002000128020001280100"
        },
        {
          "transactionType": "CREATE",
          "contractName": null,
          "address": "0xf3327aec2cf926ed1c03ac65284767f4e60f577c",
          "initCode": "0x61009180600c6000396000f300151720090e6002000160045c016003000160015c016002000160055c0360015c0160010001000260015c0160035c026001000260010002600100016001000160015c016002000460026001000360025c0360030001600200016002000160015c0160050003000560015c0260030003000160040002600100026001000100016001000560025c0160025c016003000b5c"
        }
      ],
      "isFixedGasLimit": false
    },
    {
      "hash": "0x7ca14bb3f6207609724dd9dbe974266c76c326ccf0570f66fb89c83b8e9d11d6",
      "transactionType": "CALL",
      "contractName": "AnonsDescriptor",
      "contractAddress": "0x099cc999dd431de6529fbb516e8c59ab0cecdde8",
      "function": "addManyAccessories(bytes[])",
      "arguments": [
        "[0x151720090e6001d201db065c03db025c01600188011d0b5c01880188015c0160075c011d025c0188026001000160017a035c027a035c0160026001000160075c027a018e0160015701000160026d035c046d0157025701000160075c026d01570231010001600410025c0110025c01310131016001000160095c016002bd01000b5c, 0x17131e0d020003dc0100020001dc010001dc0100020002dc016d01dc020001dc016d01dc010001dc010001dc016d01dc010003dc016d02dc030001dc0200, 0x15141f0c0117060001170117060001170100011704000117010002000417020003000217030002000117010a0217020002000217040004000217020002000217010a01170200030002170300, 0x17141f0d02570100035701000100035701000257025703000157010003000357010001000257040001570300025701000100035702000157020001570400, 0x18131b0e01ba010002ba0100010001ba02360180010003ba0100]"
      ],
      "transaction": {
        "from": "0x84d5e34ad1a91cf2ecad071a65948fa48f1b4216",
        "to": "0x099cc999dd431de6529fbb516e8c59ab0cecdde8",
        "gas": "0x8bb07",
        "value": "0x0",
        "input": "0x0475d8630000000000000000000000000000000000000000000000000000000000000020000000000000000000000000000000000000000000000000000000000000000500000000000000000000000000000000000000000000000000000000000000a0000000000000000000000000000000000000000000000000000000000000016000000000000000000000000000000000000000000000000000000000000001c0000000000000000000000000000000000000000000000000000000000000024000000000000000000000000000000000000000000000000000000000000002a00000000000000000000000000000000000000000000000000000000000000082151720090e6001d201db065c03db025c01600188011d0b5c01880188015c0160075c011d025c0188026001000160017a035c027a035c0160026001000160075c027a018e0160015701000160026d035c046d0157025701000160075c026d01570231010001600410025c0110025c01310131016001000160095c016002bd01000b5c000000000000000000000000000000000000000000000000000000000000000000000000000000000000000000000000000000000000000000000000003e17131e0d020003dc0100020001dc010001dc0100020002dc016d01dc020001dc016d01dc010001dc010001dc016d01dc010003dc016d02dc030001dc02000000000000000000000000000000000000000000000000000000000000000000004c15141f0c0117060001170117060001170100011704000117010002000417020003000217030002000117010a0217020002000217040004000217020002000217010a011702000300021703000000000000000000000000000000000000000000000000000000000000000000000000000000000000000000000000000000003e17141f0d025701000357010001000357010002570257030001570100030003570100010002570400015703000257010001000357020001570200015704000000000000000000000000000000000000000000000000000000000000000000001a18131b0e01ba010002ba0100010001ba02360180010003ba0100000000000000",
        "nonce": "0x8c",
        "chainId": "0x14a34"
      },
      "additionalContracts": [
        {
          "transactionType": "CREATE",
          "contractName": null,
          "address": "0x795fa6d1fc63616df5fd7c489eb4a10031532120",
          "initCode": "0x61008380600c6000396000f300151720090e6001d201db065c03db025c01600188011d0b5c01880188015c0160075c011d025c0188026001000160017a035c027a035c0160026001000160075c027a018e0160015701000160026d035c046d0157025701000160075c026d01570231010001600410025c0110025c01310131016001000160095c016002bd01000b5c"
        },
        {
          "transactionType": "CREATE",
          "contractName": null,
          "address": "0x541f25504a88a0b3614fc1148a0f02f1f0a9ed78",
          "initCode": "0x61003f80600c6000396000f30017131e0d020003dc0100020001dc010001dc0100020002dc016d01dc020001dc016d01dc010001dc010001dc016d01dc010003dc016d02dc030001dc0200"
        },
        {
          "transactionType": "CREATE",
          "contractName": null,
          "address": "0x77d272cf955171cbf3dc2b0ed588128f28cdcb63",
          "initCode": "0x61004d80600c6000396000f30015141f0c0117060001170117060001170100011704000117010002000417020003000217030002000117010a0217020002000217040004000217020002000217010a01170200030002170300"
        },
        {
          "transactionType": "CREATE",
          "contractName": null,
          "address": "0xe15d6835c470a7be2225e0d506e0a82e5221ec8d",
          "initCode": "0x61003f80600c6000396000f30017141f0d02570100035701000100035701000257025703000157010003000357010001000257040001570300025701000100035702000157020001570400"
        },
        {
          "transactionType": "CREATE",
          "contractName": null,
          "address": "0xdfd096adb2a5157c6b2d42ff1cfa687fd8eda1cb",
          "initCode": "0x61001b80600c6000396000f30018131b0e01ba010002ba0100010001ba02360180010003ba0100"
        }
      ],
      "isFixedGasLimit": false
    },
    {
      "hash": "0xb0e0fd9877ba7417a7ef7f5ea53b79b462bf9bc09a8ea437938e57fb8f67ffce",
      "transactionType": "CALL",
      "contractName": "AnonsDescriptor",
      "contractAddress": "0x099cc999dd431de6529fbb516e8c59ab0cecdde8",
      "function": "addManyAccessories(bytes[])",
      "arguments": [
        "[0x18131e0e02000131020002000131020001000331010001fb033101fb01000131015a01310100020001310200, 0x18151d0d020004fb0200010001fb010002fb010001fb010001fb020002fb020001fb010001fb040001fb0100020004fb0200, 0x17151e0d0100010d06000200020d04000300030d0200030d0202030d0200030d03000400020d02000600010d0100, 0x17131e0e011701900117019001170117013c010a013c01170177032701770177030a01770177020a012701770177010a022701770577, 0x18161b0d070302000103010c010301000103020c020303030100030301000103]"
      ],
      "transaction": {
        "from": "0x84d5e34ad1a91cf2ecad071a65948fa48f1b4216",
        "to": "0x099cc999dd431de6529fbb516e8c59ab0cecdde8",
        "gas": "0x7a5bf",
        "value": "0x0",
        "input": "0x0475d8630000000000000000000000000000000000000000000000000000000000000020000000000000000000000000000000000000000000000000000000000000000500000000000000000000000000000000000000000000000000000000000000a00000000000000000000000000000000000000000000000000000000000000100000000000000000000000000000000000000000000000000000000000000016000000000000000000000000000000000000000000000000000000000000001c00000000000000000000000000000000000000000000000000000000000000220000000000000000000000000000000000000000000000000000000000000002c18131e0e02000131020002000131020001000331010001fb033101fb01000131015a013101000200013102000000000000000000000000000000000000000000000000000000000000000000000000000000000000000000000000000000003218151d0d020004fb0200010001fb010002fb010001fb010001fb020002fb020001fb010001fb040001fb0100020004fb02000000000000000000000000000000000000000000000000000000000000000000000000000000000000000000002e17151e0d0100010d06000200020d04000300030d0200030d0202030d0200030d03000400020d02000600010d0100000000000000000000000000000000000000000000000000000000000000000000000000000000000000000000000000003617131e0e011701900117019001170117013c010a013c01170177032701770177030a01770177020a012701770177010a02270177057700000000000000000000000000000000000000000000000000000000000000000000000000000000002018161b0d070302000103010c010301000103020c020303030100030301000103",
        "nonce": "0x8d",
        "chainId": "0x14a34"
      },
      "additionalContracts": [
        {
          "transactionType": "CREATE",
          "contractName": null,
          "address": "0x59a182b790b4d39ff1924c77613d4c2774ee2e9e",
          "initCode": "0x61002d80600c6000396000f30018131e0e02000131020002000131020001000331010001fb033101fb01000131015a01310100020001310200"
        },
        {
          "transactionType": "CREATE",
          "contractName": null,
          "address": "0x035a6f1680cc9617b2803dfec30a3e70c9e9b2a0",
          "initCode": "0x61003380600c6000396000f30018151d0d020004fb0200010001fb010002fb010001fb010001fb020002fb020001fb010001fb040001fb0100020004fb0200"
        },
        {
          "transactionType": "CREATE",
          "contractName": null,
          "address": "0xcedd171ed471c7cccffc8be7898a7f6abb2c1f4f",
          "initCode": "0x61002f80600c6000396000f30017151e0d0100010d06000200020d04000300030d0200030d0202030d0200030d03000400020d02000600010d0100"
        },
        {
          "transactionType": "CREATE",
          "contractName": null,
          "address": "0x824b7912ff91eaefeace065f0f7dbcef08ded552",
          "initCode": "0x61003780600c6000396000f30017131e0e011701900117019001170117013c010a013c01170177032701770177030a01770177020a012701770177010a022701770577"
        },
        {
          "transactionType": "CREATE",
          "contractName": null,
          "address": "0x8b705e76cda98090bf53c582a6edcf424c869e54",
          "initCode": "0x61002180600c6000396000f30018161b0d070302000103010c010301000103020c020303030100030301000103"
        }
      ],
      "isFixedGasLimit": false
    },
    {
      "hash": "0x18dbce57b56928d813d783461e53abf1b27c1fa2141adcdb2a1a546a85540d28",
      "transactionType": "CALL",
      "contractName": "AnonsDescriptor",
      "contractAddress": "0x099cc999dd431de6529fbb516e8c59ab0cecdde8",
      "function": "addManyAccessories(bytes[])",
      "arguments": [
        "[0x18161b0d07c9020001c9010001c9010001c9010003c903c9010003c9010001c9, 0x17141e0d07c901c9010002c9010002c9020002c9010002c907000794019401000294010002940200029401000294, 0x19121c0f018e0100018e018e02c1028e01c1, 0x15171d090e8e038e01c8018e0100018e01c8028e01c8018e01c8018e018e0200018e0200028e0200018e0100028e018e0500018e0500018e01000600018e0300018e0100018e0100018e0b00018e01000600018e07000600018e0700, 0x16171f0901b0010001b0010001b0010001b0010001b0010001b0010001b001000e00010001b0010001b0010001b0010001b0010001b0010001b0010001b00e0001b0030001b0010001b0010001b0010001b0010001b001000e00010001b0010001b0010001b0010001b0010001b0010001b0010001b00e0001b0030001b0010001b0010001b0010001b0010001b00100]"
      ],
      "transaction": {
        "from": "0x84d5e34ad1a91cf2ecad071a65948fa48f1b4216",
        "to": "0x099cc999dd431de6529fbb516e8c59ab0cecdde8",
        "gas": "0x8215f",
        "value": "0x0",
        "input": "0x0475d8630000000000000000000000000000000000000000000000000000000000000020000000000000000000000000000000000000000000000000000000000000000500000000000000000000000000000000000000000000000000000000000000a000000000000000000000000000000000000000000000000000000000000000e0000000000000000000000000000000000000000000000000000000000000014000000000000000000000000000000000000000000000000000000000000001800000000000000000000000000000000000000000000000000000000000000200000000000000000000000000000000000000000000000000000000000000002018161b0d07c9020001c9010001c9010001c9010003c903c9010003c9010001c9000000000000000000000000000000000000000000000000000000000000002e17141e0d07c901c9010002c9010002c9020002c9010002c907000794019401000294010002940200029401000294000000000000000000000000000000000000000000000000000000000000000000000000000000000000000000000000001219121c0f018e0100018e018e02c1028e01c10000000000000000000000000000000000000000000000000000000000000000000000000000000000000000005c15171d090e8e038e01c8018e0100018e01c8028e01c8018e01c8018e018e0200018e0200028e0200018e0100028e018e0500018e0500018e01000600018e0300018e0100018e0100018e0b00018e01000600018e07000600018e070000000000000000000000000000000000000000000000000000000000000000000000009016171f0901b0010001b0010001b0010001b0010001b0010001b0010001b001000e00010001b0010001b0010001b0010001b0010001b0010001b0010001b00e0001b0030001b0010001b0010001b0010001b0010001b001000e00010001b0010001b0010001b0010001b0010001b0010001b0010001b00e0001b0030001b0010001b0010001b0010001b0010001b0010000000000000000000000000000000000",
        "nonce": "0x8e",
        "chainId": "0x14a34"
      },
      "additionalContracts": [
        {
          "transactionType": "CREATE",
          "contractName": null,
          "address": "0xf0c172b0cb5f03bb9f8f9be75e658eb28c8c153a",
          "initCode": "0x61002180600c6000396000f30018161b0d07c9020001c9010001c9010001c9010003c903c9010003c9010001c9"
        },
        {
          "transactionType": "CREATE",
          "contractName": null,
          "address": "0x8741e3102ac3cac3be62e38dd6cdcb419111099b",
          "initCode": "0x61002f80600c6000396000f30017141e0d07c901c9010002c9010002c9020002c9010002c907000794019401000294010002940200029401000294"
        },
        {
          "transactionType": "CREATE",
          "contractName": null,
          "address": "0xe0e29726f437b97a25bce4cce8aec85cf96aa3b9",
          "initCode": "0x61001380600c6000396000f30019121c0f018e0100018e018e02c1028e01c1"
        },
        {
          "transactionType": "CREATE",
          "contractName": null,
          "address": "0xa64ba743a2e450fe1aa1158846d8d6830ec15103",
          "initCode": "0x61005d80600c6000396000f30015171d090e8e038e01c8018e0100018e01c8028e01c8018e01c8018e018e0200018e0200028e0200018e0100028e018e0500018e0500018e01000600018e0300018e0100018e0100018e0b00018e01000600018e07000600018e0700"
        },
        {
          "transactionType": "CREATE",
          "contractName": null,
          "address": "0xc827cbf8bbcafa2bcaf948fe66de367a9c0a3e9a",
          "initCode": "0x61009180600c6000396000f30016171f0901b0010001b0010001b0010001b0010001b0010001b0010001b001000e00010001b0010001b0010001b0010001b0010001b0010001b0010001b00e0001b0030001b0010001b0010001b0010001b0010001b001000e00010001b0010001b0010001b0010001b0010001b0010001b0010001b00e0001b0030001b0010001b0010001b0010001b0010001b00100"
        }
      ],
      "isFixedGasLimit": false
    },
    {
      "hash": "0xd9a10b1c4b2c521d69a489bed48fef8a3806c93281dfc694627a2613db0cc47c",
      "transactionType": "CALL",
      "contractName": "AnonsDescriptor",
      "contractAddress": "0x099cc999dd431de6529fbb516e8c59ab0cecdde8",
      "function": "addManyAccessories(bytes[])",
      "arguments": [
        "[0x18141e0d01000273010002730100017302f7017302f70173017305f701730100017303f7017301000200017301f701730200030001730300, 0x16121c0f010d0100010d010d0100010d010d0100010d010d010001b1010d020001b10200, 0x17151b100200010d02000217010a0217010d0302010d050d, 0x17141f0d0100023f0400013f0200013f0300013f06000100033f03000300033f01000600013f0300013f0200013f0400023f0100, 0x16131e0e020001cd0200010001cd016a01cd0100020001cd0200010001cd01e301cd010001cd036a01cd01cd01e3026a01cd01cd036a01cd010003cd0100]"
      ],
      "transaction": {
        "from": "0x84d5e34ad1a91cf2ecad071a65948fa48f1b4216",
        "to": "0x099cc999dd431de6529fbb516e8c59ab0cecdde8",
        "gas": "0x7a9c9",
        "value": "0x0",
        "input": "0x0475d8630000000000000000000000000000000000000000000000000000000000000020000000000000000000000000000000000000000000000000000000000000000500000000000000000000000000000000000000000000000000000000000000a00000000000000000000000000000000000000000000000000000000000000100000000000000000000000000000000000000000000000000000000000000016000000000000000000000000000000000000000000000000000000000000001a00000000000000000000000000000000000000000000000000000000000000200000000000000000000000000000000000000000000000000000000000000003818141e0d01000273010002730100017302f7017302f70173017305f701730100017303f7017301000200017301f7017302000300017303000000000000000000000000000000000000000000000000000000000000000000000000000000002416121c0f010d0100010d010d0100010d010d0100010d010d010001b1010d020001b1020000000000000000000000000000000000000000000000000000000000000000000000000000000000000000000000000000000000000000000000001817151b100200010d02000217010a0217010d0302010d050d0000000000000000000000000000000000000000000000000000000000000000000000000000003417141f0d0100023f0400013f0200013f0300013f06000100033f03000300033f01000600013f0300013f0200013f0400023f0100000000000000000000000000000000000000000000000000000000000000000000000000000000000000003e16131e0e020001cd0200010001cd016a01cd0100020001cd0200010001cd01e301cd010001cd036a01cd01cd01e3026a01cd01cd036a01cd010003cd01000000",
        "nonce": "0x8f",
        "chainId": "0x14a34"
      },
      "additionalContracts": [
        {
          "transactionType": "CREATE",
          "contractName": null,
          "address": "0xabe794ce2220b7706ba5e461276331e4e0c98a7a",
          "initCode": "0x61003980600c6000396000f30018141e0d01000273010002730100017302f7017302f70173017305f701730100017303f7017301000200017301f701730200030001730300"
        },
        {
          "transactionType": "CREATE",
          "contractName": null,
          "address": "0xd9154b180959f7cd60dd4264e519c3bc84639394",
          "initCode": "0x61002580600c6000396000f30016121c0f010d0100010d010d0100010d010d0100010d010d010001b1010d020001b10200"
        },
        {
          "transactionType": "CREATE",
          "contractName": null,
          "address": "0x112b99e204885c75c76c2d5bd4a92f466f2b33be",
          "initCode": "0x61001980600c6000396000f30017151b100200010d02000217010a0217010d0302010d050d"
        },
        {
          "transactionType": "CREATE",
          "contractName": null,
          "address": "0xf32f91969a5bf181456e963646ef821572d089c7",
          "initCode": "0x61003580600c6000396000f30017141f0d0100023f0400013f0200013f0300013f06000100033f03000300033f01000600013f0300013f0200013f0400023f0100"
        },
        {
          "transactionType": "CREATE",
          "contractName": null,
          "address": "0x3ad2415e3dc6366abed6af9529b5000520bb3b44",
          "initCode": "0x61003f80600c6000396000f30016131e0e020001cd0200010001cd016a01cd0100020001cd0200010001cd01e301cd010001cd036a01cd01cd01e3026a01cd01cd036a01cd010003cd0100"
        }
      ],
      "isFixedGasLimit": false
    },
    {
      "hash": "0x3030480abe6b8a30526eebbbb1f2d536ecd25e6dceda34bdb11c343b37eace44",
      "transactionType": "CALL",
      "contractName": "AnonsDescriptor",
      "contractAddress": "0x099cc999dd431de6529fbb516e8c59ab0cecdde8",
      "function": "addManyAccessories(bytes[])",
      "arguments": [
        "[0x18141e0d030004400200014003dc01400200014003dc01400200014003dc014002000440010002400500, 0x17121d0e0492019202de0192019202de0192010002920100010002d80100010002d80100, 0x1517200902000157020001570200015702000157020001400200014002000140020001400200014001000100015702000157020001570200015702000157020001400200014002000140020001400200015702000157020001570200015702000157010001000140020001400200014002000140020001400500015702000157020001570200014002000140020001400200014002000140010001000157020001570200015702000157020001570500014002000140020001400200016d0200016d0200016d0200016d0200016d0100, 0x15172009020001b9020001b9020001b9020001b9020001b9020001b9020001b9020001b9020001b90100010001b9020001b9020001b9020001b9020001b9020001b9020001b9020001b9020001b9020001b9020001b9020001b9020001b9020001b90100010001b9020001b9020001b9020001b9020001b9050001b9020001b9020001b9020001b9020001b9020001b9020001b9020001b90100010001b9020001b9020001b9020001b9020001b9050001b9020001b9020001b90200019d0200019d0200019d0200019d0200019d0100, 0x17141e0d011301da030001da011302da030002da0100011301da010001da01130100020003da02000200011301da01130200020003da0200030001130300]"
      ],
      "transaction": {
        "from": "0x84d5e34ad1a91cf2ecad071a65948fa48f1b4216",
        "to": "0x099cc999dd431de6529fbb516e8c59ab0cecdde8",
        "gas": "0x9294f",
        "value": "0x0",
        "input": "0x0475d8630000000000000000000000000000000000000000000000000000000000000020000000000000000000000000000000000000000000000000000000000000000500000000000000000000000000000000000000000000000000000000000000a00000000000000000000000000000000000000000000000000000000000000100000000000000000000000000000000000000000000000000000000000000016000000000000000000000000000000000000000000000000000000000000002600000000000000000000000000000000000000000000000000000000000000360000000000000000000000000000000000000000000000000000000000000002a18141e0d030004400200014003dc01400200014003dc01400200014003dc01400200044001000240050000000000000000000000000000000000000000000000000000000000000000000000000000000000000000000000000000000000002417121d0e0492019202de0192019202de0192010002920100010002d80100010002d801000000000000000000000000000000000000000000000000000000000000000000000000000000000000000000000000000000000000000000000000d01517200902000157020001570200015702000157020001400200014002000140020001400200014001000100015702000157020001570200015702000157020001400200014002000140020001400200015702000157020001570200015702000157010001000140020001400200014002000140020001400500015702000157020001570200014002000140020001400200014002000140010001000157020001570200015702000157020001570500014002000140020001400200016d0200016d0200016d0200016d0200016d01000000000000000000000000000000000000000000000000000000000000000000000000000000000000000000000000d015172009020001b9020001b9020001b9020001b9020001b9020001b9020001b9020001b9020001b90100010001b9020001b9020001b9020001b9020001b9020001b9020001b9020001b9020001b9020001b9020001b9020001b9020001b9020001b90100010001b9020001b9020001b9020001b9020001b9050001b9020001b9020001b9020001b9020001b9020001b9020001b9020001b90100010001b9020001b9020001b9020001b9020001b9050001b9020001b9020001b90200019d0200019d0200019d0200019d0200019d010000000000000000000000000000000000000000000000000000000000000000000000000000000000000000000000003e17141e0d011301da030001da011302da030002da0100011301da010001da01130100020003da02000200011301da01130200020003da02000300011303000000",
        "nonce": "0x90",
        "chainId": "0x14a34"
      },
      "additionalContracts": [
        {
          "transactionType": "CREATE",
          "contractName": null,
          "address": "0x02b66341183d0fc74551cffcf4579f73cb81304f",
          "initCode": "0x61002b80600c6000396000f30018141e0d030004400200014003dc01400200014003dc01400200014003dc014002000440010002400500"
        },
        {
          "transactionType": "CREATE",
          "contractName": null,
          "address": "0x7589f1ef5eac766f55a4dab48f9aabbd0317be93",
          "initCode": "0x61002580600c6000396000f30017121d0e0492019202de0192019202de0192010002920100010002d80100010002d80100"
        },
        {
          "transactionType": "CREATE",
          "contractName": null,
          "address": "0xc97476886dc3e7b7bdc1820a23084a2612eae5bd",
          "initCode": "0x6100d180600c6000396000f3001517200902000157020001570200015702000157020001400200014002000140020001400200014001000100015702000157020001570200015702000157020001400200014002000140020001400200015702000157020001570200015702000157010001000140020001400200014002000140020001400500015702000157020001570200014002000140020001400200014002000140010001000157020001570200015702000157020001570500014002000140020001400200016d0200016d0200016d0200016d0200016d0100"
        },
        {
          "transactionType": "CREATE",
          "contractName": null,
          "address": "0xfbfd463ab38f234dc77a833b46da0d1e19992db7",
          "initCode": "0x6100d180600c6000396000f30015172009020001b9020001b9020001b9020001b9020001b9020001b9020001b9020001b9020001b90100010001b9020001b9020001b9020001b9020001b9020001b9020001b9020001b9020001b9020001b9020001b9020001b9020001b9020001b90100010001b9020001b9020001b9020001b9020001b9050001b9020001b9020001b9020001b9020001b9020001b9020001b9020001b90100010001b9020001b9020001b9020001b9020001b9050001b9020001b9020001b90200019d0200019d0200019d0200019d0200019d0100"
        },
        {
          "transactionType": "CREATE",
          "contractName": null,
          "address": "0x9866850ae6da12a0cb41753ecace5f723653265e",
          "initCode": "0x61003f80600c6000396000f30017141e0d011301da030001da011302da030002da0100011301da010001da01130100020003da02000200011301da01130200020003da0200030001130300"
        }
      ],
      "isFixedGasLimit": false
    },
    {
      "hash": "0xc99402337697819ff26482ec99b7cbbd37288ddce6a3e003e34c8b79563c779d",
      "transactionType": "CALL",
      "contractName": "AnonsDescriptor",
      "contractAddress": "0x099cc999dd431de6529fbb516e8c59ab0cecdde8",
      "function": "addManyAccessories(bytes[])",
      "arguments": [
        "[0x16161f0d03000303030001000203030c0203010001000103050c010301000103020c0102010d0102020c01030103020c010d0100010d020c01030103020c0102010d0102020c010301000103050c0103010001000203030c02030100030003030300, 0x18131e0e040001030203010002030300020302000103010c0103030002030503, 0x18131d0e013f0100013f0100013f0500013f0100013f0100013f0500013f0100013f0100013f, 0x17131e0e055e015e0100015e0100015e0100015e0100015e0100015e0100015e0100015e0100015e0100015e0100035e0100015e015e0100035e, 0x00000000]"
      ],
      "transaction": {
        "from": "0x84d5e34ad1a91cf2ecad071a65948fa48f1b4216",
        "to": "0x099cc999dd431de6529fbb516e8c59ab0cecdde8",
        "gas": "0x7abb2",
        "value": "0x0",
        "input": "0x0475d8630000000000000000000000000000000000000000000000000000000000000020000000000000000000000000000000000000000000000000000000000000000500000000000000000000000000000000000000000000000000000000000000a00000000000000000000000000000000000000000000000000000000000000140000000000000000000000000000000000000000000000000000000000000018000000000000000000000000000000000000000000000000000000000000001e00000000000000000000000000000000000000000000000000000000000000240000000000000000000000000000000000000000000000000000000000000006216161f0d03000303030001000203030c0203010001000103050c010301000103020c0102010d0102020c01030103020c010d0100010d020c01030103020c0102010d0102020c010301000103050c0103010001000203030c02030100030003030300000000000000000000000000000000000000000000000000000000000000000000000000000000000000000000000000000000000000000000000000002018131e0e040001030203010002030300020302000103010c0103030002030503000000000000000000000000000000000000000000000000000000000000002618131d0e013f0100013f0100013f0500013f0100013f0100013f0500013f0100013f0100013f0000000000000000000000000000000000000000000000000000000000000000000000000000000000000000000000000000000000000000003a17131e0e055e015e0100015e0100015e0100015e0100015e0100015e0100015e0100015e0100015e0100015e0100035e0100015e015e0100035e00000000000000000000000000000000000000000000000000000000000000000000000000040000000000000000000000000000000000000000000000000000000000000000",
        "nonce": "0x91",
        "chainId": "0x14a34"
      },
      "additionalContracts": [
        {
          "transactionType": "CREATE",
          "contractName": null,
          "address": "0x0b2d2212584b4e05b348088ac63eae813fa4b653",
          "initCode": "0x61006380600c6000396000f30016161f0d03000303030001000203030c0203010001000103050c010301000103020c0102010d0102020c01030103020c010d0100010d020c01030103020c0102010d0102020c010301000103050c0103010001000203030c02030100030003030300"
        },
        {
          "transactionType": "CREATE",
          "contractName": null,
          "address": "0xac2427f4269c689941e1d8fcbb030d6395d8c33e",
          "initCode": "0x61002180600c6000396000f30018131e0e040001030203010002030300020302000103010c0103030002030503"
        },
        {
          "transactionType": "CREATE",
          "contractName": null,
          "address": "0x96afda1deacd2da7879666a9b5d30e2b97af6564",
          "initCode": "0x61002780600c6000396000f30018131d0e013f0100013f0100013f0500013f0100013f0100013f0500013f0100013f0100013f"
        },
        {
          "transactionType": "CREATE",
          "contractName": null,
          "address": "0x30394ef647a9ef8b96de481014d7268ef53d2bd7",
          "initCode": "0x61003b80600c6000396000f30017131e0e055e015e0100015e0100015e0100015e0100015e0100015e0100015e0100015e0100015e0100015e0100035e0100015e015e0100035e"
        },
        {
          "transactionType": "CREATE",
          "contractName": null,
          "address": "0x5e2d31bb43ad305c802eb3f702b878fcff6f2b17",
          "initCode": "0x61000580600c6000396000f30000000000"
        }
      ],
      "isFixedGasLimit": false
    },
    {
      "hash": "0xcab309cc296bacd58bccfe4673766da9cff833538395d631a03f6fda7f008197",
      "transactionType": "CALL",
      "contractName": "AnonsDescriptor",
      "contractAddress": "0x099cc999dd431de6529fbb516e8c59ab0cecdde8",
      "function": "addManyAccessories(bytes[])",
      "arguments": [
        "[0x151720090e7401740c2401740174032407f7022401740174012401740a24017402eb01000174012403f7022401f70224017402740100017401f7032402f70324017402eb01000174022401f70624017402740100017402f7012404f70224017402eb010001740924017402740100017407f702240174021901000b24, 0x15141e0c011706000117010001170400011701000200011702000117020003000217030003000217030002000117020a0117020002000117020a0117020001000117040a01170100010006170100, 0x17151a100100019303000100010d03000581, 0x18131e0e040001310100013102000131010001310300030001310100013102000131010001310400, 0x17171d090b000347070004ec02bd01470300048004ce034702f301000180034104ec030002f301000480070002f30c00]"
      ],
      "transaction": {
        "from": "0x84d5e34ad1a91cf2ecad071a65948fa48f1b4216",
        "to": "0x099cc999dd431de6529fbb516e8c59ab0cecdde8",
        "gas": "0x87fee",
        "value": "0x0",
        "input": "0x0475d8630000000000000000000000000000000000000000000000000000000000000020000000000000000000000000000000000000000000000000000000000000000500000000000000000000000000000000000000000000000000000000000000a0000000000000000000000000000000000000000000000000000000000000014000000000000000000000000000000000000000000000000000000000000001c000000000000000000000000000000000000000000000000000000000000002000000000000000000000000000000000000000000000000000000000000000260000000000000000000000000000000000000000000000000000000000000007c151720090e7401740c2401740174032407f7022401740174012401740a24017402eb01000174012403f7022401f70224017402740100017401f7032402f70324017402eb01000174022401f70624017402740100017402f7012404f70224017402eb010001740924017402740100017407f702240174021901000b2400000000000000000000000000000000000000000000000000000000000000000000004e15141e0c011706000117010001170400011701000200011702000117020003000217030003000217030002000117020a0117020002000117020a0117020001000117040a01170100010006170100000000000000000000000000000000000000000000000000000000000000000000000000000000000000000000000000001217151a100100019303000100010d030005810000000000000000000000000000000000000000000000000000000000000000000000000000000000000000002818131e0e040001310100013102000131010001310300030001310100013102000131010001310400000000000000000000000000000000000000000000000000000000000000000000000000000000000000000000000000000000000000003017171d090b000347070004ec02bd01470300048004ce034702f301000180034104ec030002f301000480070002f30c0000000000000000000000000000000000",
        "nonce": "0x92",
        "chainId": "0x14a34"
      },
      "additionalContracts": [
        {
          "transactionType": "CREATE",
          "contractName": null,
          "address": "0x5738db8aff9e5fc0380cdb54a0351e8461d7878e",
          "initCode": "0x61007d80600c6000396000f300151720090e7401740c2401740174032407f7022401740174012401740a24017402eb01000174012403f7022401f70224017402740100017401f7032402f70324017402eb01000174022401f70624017402740100017402f7012404f70224017402eb010001740924017402740100017407f702240174021901000b24"
        },
        {
          "transactionType": "CREATE",
          "contractName": null,
          "address": "0xdf26811cd3a5c672d1231f930769bf0836d4949b",
          "initCode": "0x61004f80600c6000396000f30015141e0c011706000117010001170400011701000200011702000117020003000217030003000217030002000117020a0117020002000117020a0117020001000117040a01170100010006170100"
        },
        {
          "transactionType": "CREATE",
          "contractName": null,
          "address": "0x93e582df4de840003f80dde7249c8a3804829bec",
          "initCode": "0x61001380600c6000396000f30017151a100100019303000100010d03000581"
        },
        {
          "transactionType": "CREATE",
          "contractName": null,
          "address": "0xf24b5fe449dab731193b7041bbde0c56f9a04eb2",
          "initCode": "0x61002980600c6000396000f30018131e0e040001310100013102000131010001310300030001310100013102000131010001310400"
        },
        {
          "transactionType": "CREATE",
          "contractName": null,
          "address": "0x4a139b631f29ac7b9f7a759d81eb4ec70804b9db",
          "initCode": "0x61003180600c6000396000f30017171d090b000347070004ec02bd01470300048004ce034702f301000180034104ec030002f301000480070002f30c00"
        }
      ],
      "isFixedGasLimit": false
    },
    {
      "hash": "0x6426f06bff0504c6b1cabb2c206dbbb89da962ddfc440b69c11ef03c7e2e61eb",
      "transactionType": "CALL",
      "contractName": "AnonsDescriptor",
      "contractAddress": "0x099cc999dd431de6529fbb516e8c59ab0cecdde8",
      "function": "addManyAccessories(bytes[])",
      "arguments": [
        "[0x18151f0d030002d20300020001d202da01d20200020001d202da01d202000100015d01ea02da013701350100015d03ea03370135015d02ea015d0135023701350100025d020002350100, 0x19171c0901030200010302000103020001030200010301000e00020301000b03, 0x1517200b04c1030005c101c102cc01c1030001c103cc01c101c102cc01c1030001c103cc01c101c102cc01c1030001c103cc01c1010001c7010201c7030001c7030201c7010001c7010201c7030001c7030201c7010001c7010201c7030001c7030201c7010001c7010201c7030001c7030201c7010001c101cc01c1030001c103cc01c1010001c101cc01c1030001c103cc01c1010003cc030005cc, 0x1515200c038f0300038f018f012a018f0300018f012a018f018f012a018f0300018f012a018f0103010c010303000103010c01030103010c010303000103010c01030103010c010303000103010c0103018f012a018f0300018f012a018f018f012a018f0300018f012a018f018f012a018f0300018f012a018f0103010c010303000103010c0103030c0300030c, 0x18121c0e018f0200018f0100028f01000100028f0100018f0200018f]"
      ],
      "transaction": {
        "from": "0x84d5e34ad1a91cf2ecad071a65948fa48f1b4216",
        "to": "0x099cc999dd431de6529fbb516e8c59ab0cecdde8",
        "gas": "0x91b19",
        "value": "0x0",
        "input": "0x0475d8630000000000000000000000000000000000000000000000000000000000000020000000000000000000000000000000000000000000000000000000000000000500000000000000000000000000000000000000000000000000000000000000a000000000000000000000000000000000000000000000000000000000000001200000000000000000000000000000000000000000000000000000000000000160000000000000000000000000000000000000000000000000000000000000022000000000000000000000000000000000000000000000000000000000000002e0000000000000000000000000000000000000000000000000000000000000004a18151f0d030002d20300020001d202da01d20200020001d202da01d202000100015d01ea02da013701350100015d03ea03370135015d02ea015d0135023701350100025d02000235010000000000000000000000000000000000000000000000000000000000000000000000000000000000000000000000000000000000002019171c0901030200010302000103020001030200010301000e00020301000b03000000000000000000000000000000000000000000000000000000000000009c1517200b04c1030005c101c102cc01c1030001c103cc01c101c102cc01c1030001c103cc01c101c102cc01c1030001c103cc01c1010001c7010201c7030001c7030201c7010001c7010201c7030001c7030201c7010001c7010201c7030001c7030201c7010001c7010201c7030001c7030201c7010001c101cc01c1030001c103cc01c1010001c101cc01c1030001c103cc01c1010003cc030005cc00000000000000000000000000000000000000000000000000000000000000000000008e1515200c038f0300038f018f012a018f0300018f012a018f018f012a018f0300018f012a018f0103010c010303000103010c01030103010c010303000103010c01030103010c010303000103010c0103018f012a018f0300018f012a018f018f012a018f0300018f012a018f018f012a018f0300018f012a018f0103010c010303000103010c0103030c0300030c000000000000000000000000000000000000000000000000000000000000000000000000000000000000000000000000001c18121c0e018f0200018f0100028f01000100028f0100018f0200018f00000000",
        "nonce": "0x93",
        "chainId": "0x14a34"
      },
      "additionalContracts": [
        {
          "transactionType": "CREATE",
          "contractName": null,
          "address": "0x14c66f9849e6731de87caf94f0a871b30769f4ea",
          "initCode": "0x61004b80600c6000396000f30018151f0d030002d20300020001d202da01d20200020001d202da01d202000100015d01ea02da013701350100015d03ea03370135015d02ea015d0135023701350100025d020002350100"
        },
        {
          "transactionType": "CREATE",
          "contractName": null,
          "address": "0xabdda49b2818911050eea8c4cbf4fa5b5faa194e",
          "initCode": "0x61002180600c6000396000f30019171c0901030200010302000103020001030200010301000e00020301000b03"
        },
        {
          "transactionType": "CREATE",
          "contractName": null,
          "address": "0x0c05ae66ca9fd7e0934f7328939771f465d4bd97",
          "initCode": "0x61009d80600c6000396000f3001517200b04c1030005c101c102cc01c1030001c103cc01c101c102cc01c1030001c103cc01c101c102cc01c1030001c103cc01c1010001c7010201c7030001c7030201c7010001c7010201c7030001c7030201c7010001c7010201c7030001c7030201c7010001c7010201c7030001c7030201c7010001c101cc01c1030001c103cc01c1010001c101cc01c1030001c103cc01c1010003cc030005cc"
        },
        {
          "transactionType": "CREATE",
          "contractName": null,
          "address": "0x3b7b6cb3b5aa756b037e6d6ada7998968af75686",
          "initCode": "0x61008f80600c6000396000f3001515200c038f0300038f018f012a018f0300018f012a018f018f012a018f0300018f012a018f0103010c010303000103010c01030103010c010303000103010c01030103010c010303000103010c0103018f012a018f0300018f012a018f018f012a018f0300018f012a018f018f012a018f0300018f012a018f0103010c010303000103010c0103030c0300030c"
        },
        {
          "transactionType": "CREATE",
          "contractName": null,
          "address": "0x36145eb7f833c4590c0002779b4a679e9616c192",
          "initCode": "0x61001d80600c6000396000f30018121c0e018f0200018f0100028f01000100028f0100018f0200018f"
        }
      ],
      "isFixedGasLimit": false
    },
    {
      "hash": "0x77accb2c2b5bc7c5ff05094e18d102e8ef9584f6ca8c89cc9d69433769212fa1",
      "transactionType": "CALL",
      "contractName": "AnonsDescriptor",
      "contractAddress": "0x099cc999dd431de6529fbb516e8c59ab0cecdde8",
      "function": "addManyAccessories(bytes[])",
      "arguments": [
        "[0x1515200c09030103010c0103010c010301000103010c01030203010002030200020301030200010301c1030001030300020304000300020304000300020304000300020304000300010301c104000300020304000300020c0400, 0x18121d0e010002b9010001b9019d01b9010002b90200010001b90293020001930100, 0x17121e0d0200017d0100017d017d0100027d01000100017d01f4017d01000100027d0100017d017d0100017d02000300017d01000100017d0300, 0x1514180d01170500011701000117030001170100020003170200, 0x17141e0d0100010d0300010d0100020d0100010d0100020d0200010d0102010d02000100010d0302010d01000200010d0102010d0200020d0100010d0100020d0100010d0300010d0100]"
      ],
      "transaction": {
        "from": "0x84d5e34ad1a91cf2ecad071a65948fa48f1b4216",
        "to": "0x099cc999dd431de6529fbb516e8c59ab0cecdde8",
        "gas": "0x85e04",
        "value": "0x0",
        "input": "0x0475d8630000000000000000000000000000000000000000000000000000000000000020000000000000000000000000000000000000000000000000000000000000000500000000000000000000000000000000000000000000000000000000000000a00000000000000000000000000000000000000000000000000000000000000120000000000000000000000000000000000000000000000000000000000000018000000000000000000000000000000000000000000000000000000000000001e00000000000000000000000000000000000000000000000000000000000000220000000000000000000000000000000000000000000000000000000000000005a1515200c09030103010c0103010c010301000103010c01030203010002030200020301030200010301c1030001030300020304000300020304000300020304000300020304000300010301c104000300020304000300020c0400000000000000000000000000000000000000000000000000000000000000000000000000002218121d0e010002b9010001b9019d01b9010002b90200010001b90293020001930100000000000000000000000000000000000000000000000000000000000000000000000000000000000000000000000000000000000000000000000000003a17121e0d0200017d0100017d017d0100027d01000100017d01f4017d01000100027d0100017d017d0100017d02000300017d01000100017d0300000000000000000000000000000000000000000000000000000000000000000000000000001a1514180d01170500011701000117030001170100020003170200000000000000000000000000000000000000000000000000000000000000000000000000004a17141e0d0100010d0300010d0100020d0100010d0100020d0200010d0102010d02000100010d0302010d01000200010d0102010d0200020d0100010d0100020d0100010d0300010d010000000000000000000000000000000000000000000000",
        "nonce": "0x94",
        "chainId": "0x14a34"
      },
      "additionalContracts": [
        {
          "transactionType": "CREATE",
          "contractName": null,
          "address": "0x9e65c0b408aec0e44a091b7d80ee6e8d2c37301e",
          "initCode": "0x61005b80600c6000396000f3001515200c09030103010c0103010c010301000103010c01030203010002030200020301030200010301c1030001030300020304000300020304000300020304000300020304000300010301c104000300020304000300020c0400"
        },
        {
          "transactionType": "CREATE",
          "contractName": null,
          "address": "0xe54622356a96735258c968ddcb8787256ae2852b",
          "initCode": "0x61002380600c6000396000f30018121d0e010002b9010001b9019d01b9010002b90200010001b90293020001930100"
        },
        {
          "transactionType": "CREATE",
          "contractName": null,
          "address": "0x7e219af342c0b79bedcab2685f4eec850f1aaf24",
          "initCode": "0x61003b80600c6000396000f30017121e0d0200017d0100017d017d0100027d01000100017d01f4017d01000100027d0100017d017d0100017d02000300017d01000100017d0300"
        },
        {
          "transactionType": "CREATE",
          "contractName": null,
          "address": "0x9253ff0d6ad8656c6dc10d63da4b21e3a86230fd",
          "initCode": "0x61001b80600c6000396000f3001514180d01170500011701000117030001170100020003170200"
        },
        {
          "transactionType": "CREATE",
          "contractName": null,
          "address": "0x6b17e91eea2950bddf8e056cb44647428573eeef",
          "initCode": "0x61004b80600c6000396000f30017141e0d0100010d0300010d0100020d0100010d0100020d0200010d0102010d02000100010d0302010d01000200010d0102010d0200020d0100010d0100020d0100010d0300010d0100"
        }
      ],
      "isFixedGasLimit": false
    },
    {
      "hash": "0xc254999f58f2f0643bc3d5c23d1af23cc7b1b85be164e4622baa2c78de6df72a",
      "transactionType": "CALL",
      "contractName": "AnonsDescriptor",
      "contractAddress": "0x099cc999dd431de6529fbb516e8c59ab0cecdde8",
      "function": "addManyAccessories(bytes[])",
      "arguments": [
        "[0x16151e0d050002530100020001530100015302fa01530400015302fa015305000253010001530100025304000200025304000800010001530600, 0x17151f0d0100015706000800020002570400015701000257040005000257010004000157026d01570200015701000157026d0157050002570100, 0x17141e0d01cb020001cb020001cb010001520100015201000152010002000352020001cb055201cb020003520200010001520100015201000152010001cb020001cb020001cb, 0x151720090e9901310c10013101ba0c3601ba018f012a018f0a2a018f020d010001030202020c0202020c0102010d020d010001030202020c0202020c0102010d02030100010d020c0202020c0202010c010302030100010d020c0202020c0202010c01030299010001990985019902310100013109100131023601000b36, 0x15171e090e3001300c1401300e300e000e000e00023001000b3002300100013009140130023001000b30]"
      ],
      "transaction": {
        "from": "0x84d5e34ad1a91cf2ecad071a65948fa48f1b4216",
        "to": "0x099cc999dd431de6529fbb516e8c59ab0cecdde8",
        "gas": "0x83ca2",
        "value": "0x0",
        "input": "0x0475d8630000000000000000000000000000000000000000000000000000000000000020000000000000000000000000000000000000000000000000000000000000000500000000000000000000000000000000000000000000000000000000000000a00000000000000000000000000000000000000000000000000000000000000100000000000000000000000000000000000000000000000000000000000000016000000000000000000000000000000000000000000000000000000000000001e00000000000000000000000000000000000000000000000000000000000000280000000000000000000000000000000000000000000000000000000000000003a16151e0d050002530100020001530100015302fa01530400015302fa015305000253010001530100025304000200025304000800010001530600000000000000000000000000000000000000000000000000000000000000000000000000003a17151f0d0100015706000800020002570400015701000257040005000257010004000157026d01570200015701000157026d0157050002570100000000000000000000000000000000000000000000000000000000000000000000000000004617141e0d01cb020001cb020001cb010001520100015201000152010002000352020001cb055201cb020003520200010001520100015201000152010001cb020001cb020001cb0000000000000000000000000000000000000000000000000000000000000000000000000000000000000000000000000000000000000000007e151720090e9901310c10013101ba0c3601ba018f012a018f0a2a018f020d010001030202020c0202020c0102010d020d010001030202020c0202020c0102010d02030100010d020c0202020c0202010c010302030100010d020c0202020c0202010c01030299010001990985019902310100013109100131023601000b360000000000000000000000000000000000000000000000000000000000000000002a15171e090e3001300c1401300e300e000e000e00023001000b3002300100013009140130023001000b3000000000000000000000000000000000000000000000",
        "nonce": "0x95",
        "chainId": "0x14a34"
      },
      "additionalContracts": [
        {
          "transactionType": "CREATE",
          "contractName": null,
          "address": "0x0d468c940a89553c4d7dae866315ff65c9578b68",
          "initCode": "0x61003b80600c6000396000f30016151e0d050002530100020001530100015302fa01530400015302fa015305000253010001530100025304000200025304000800010001530600"
        },
        {
          "transactionType": "CREATE",
          "contractName": null,
          "address": "0xbeb6367af5bd6a9bfa5dbda2178f19c2bb776cc0",
          "initCode": "0x61003b80600c6000396000f30017151f0d0100015706000800020002570400015701000257040005000257010004000157026d01570200015701000157026d0157050002570100"
        },
        {
          "transactionType": "CREATE",
          "contractName": null,
          "address": "0xe66db1c3467d7df487050ec7b27d448a3234b162",
          "initCode": "0x61004780600c6000396000f30017141e0d01cb020001cb020001cb010001520100015201000152010002000352020001cb055201cb020003520200010001520100015201000152010001cb020001cb020001cb"
        },
        {
          "transactionType": "CREATE",
          "contractName": null,
          "address": "0x4a132bfe8a99e34a9c69b365660a3c2fc22af967",
          "initCode": "0x61007f80600c6000396000f300151720090e9901310c10013101ba0c3601ba018f012a018f0a2a018f020d010001030202020c0202020c0102010d020d010001030202020c0202020c0102010d02030100010d020c0202020c0202010c010302030100010d020c0202020c0202010c01030299010001990985019902310100013109100131023601000b36"
        },
        {
          "transactionType": "CREATE",
          "contractName": null,
          "address": "0x3b62f41e2fd11f2f81701f270d4e261f37651993",
          "initCode": "0x61002b80600c6000396000f30015171e090e3001300c1401300e300e000e000e00023001000b3002300100013009140130023001000b30"
        }
      ],
      "isFixedGasLimit": false
    },
    {
      "hash": "0x0c0a4cca05ec044c48482db099caaa98943dbbabf23c9408d39b0689c295eb44",
      "transactionType": "CALL",
      "contractName": "AnonsDescriptor",
      "contractAddress": "0x099cc999dd431de6529fbb516e8c59ab0cecdde8",
      "function": "addManyAccessories(bytes[])",
      "arguments": [
        "[0x15171c090e3501350c3701350e350e00029301000b930e00028e01000b8e, 0x151720090e310e000e310e00023101000b310e00023101000b310e00023101000b310e00021001000b10, 0x151720090ee00e000ee00e0002e001000be00e0002e001000be00e0002e001000be00e00029001000b90, 0x151720090ef20e000ef20e0002f201000bf20e0002f201000bf20e0002f201000bf20e0002f101000bf1, 0x151720090e530e000e530e00025301000b530e00025301000b530e00025301000b530e0002fa01000bfa]"
      ],
      "transaction": {
        "from": "0x84d5e34ad1a91cf2ecad071a65948fa48f1b4216",
        "to": "0x099cc999dd431de6529fbb516e8c59ab0cecdde8",
        "gas": "0x7f669",
        "value": "0x0",
        "input": "0x0475d8630000000000000000000000000000000000000000000000000000000000000020000000000000000000000000000000000000000000000000000000000000000500000000000000000000000000000000000000000000000000000000000000a000000000000000000000000000000000000000000000000000000000000000e0000000000000000000000000000000000000000000000000000000000000014000000000000000000000000000000000000000000000000000000000000001a00000000000000000000000000000000000000000000000000000000000000200000000000000000000000000000000000000000000000000000000000000001e15171c090e3501350c3701350e350e00029301000b930e00028e01000b8e0000000000000000000000000000000000000000000000000000000000000000002a151720090e310e000e310e00023101000b310e00023101000b310e00023101000b310e00021001000b1000000000000000000000000000000000000000000000000000000000000000000000000000000000000000000000000000000000002a151720090ee00e000ee00e0002e001000be00e0002e001000be00e0002e001000be00e00029001000b9000000000000000000000000000000000000000000000000000000000000000000000000000000000000000000000000000000000002a151720090ef20e000ef20e0002f201000bf20e0002f201000bf20e0002f201000bf20e0002f101000bf100000000000000000000000000000000000000000000000000000000000000000000000000000000000000000000000000000000002a151720090e530e000e530e00025301000b530e00025301000b530e00025301000b530e0002fa01000bfa00000000000000000000000000000000000000000000",
        "nonce": "0x96",
        "chainId": "0x14a34"
      },
      "additionalContracts": [
        {
          "transactionType": "CREATE",
          "contractName": null,
          "address": "0x827ceb98aade8e87ae11f3d9296bbc020af706c5",
          "initCode": "0x61001f80600c6000396000f30015171c090e3501350c3701350e350e00029301000b930e00028e01000b8e"
        },
        {
          "transactionType": "CREATE",
          "contractName": null,
          "address": "0xdc22eb0962739fa94e9952bcb117d5eb6bd175cb",
          "initCode": "0x61002b80600c6000396000f300151720090e310e000e310e00023101000b310e00023101000b310e00023101000b310e00021001000b10"
        },
        {
          "transactionType": "CREATE",
          "contractName": null,
          "address": "0xd075592f617d0425f0d73b84e6efc4fe318ad0e6",
          "initCode": "0x61002b80600c6000396000f300151720090ee00e000ee00e0002e001000be00e0002e001000be00e0002e001000be00e00029001000b90"
        },
        {
          "transactionType": "CREATE",
          "contractName": null,
          "address": "0xcc403d5d97e08f6ab32ea1b013e888aed52e69fd",
          "initCode": "0x61002b80600c6000396000f300151720090ef20e000ef20e0002f201000bf20e0002f201000bf20e0002f201000bf20e0002f101000bf1"
        },
        {
          "transactionType": "CREATE",
          "contractName": null,
          "address": "0xd7d73a5ffc33ec4fff161b99782968d3b224671d",
          "initCode": "0x61002b80600c6000396000f300151720090e530e000e530e00025301000b530e00025301000b530e00025301000b530e0002fa01000bfa"
        }
      ],
      "isFixedGasLimit": false
    },
    {
      "hash": "0x09f32028dca20be201a846348add3fbc82a2d26762013e7202aecb758720f719",
      "transactionType": "CALL",
      "contractName": "AnonsDescriptor",
      "contractAddress": "0x099cc999dd431de6529fbb516e8c59ab0cecdde8",
      "function": "addManyAccessories(bytes[])",
      "arguments": [
        "[0x17141b0d0300011703000100011703000117010002000317020001170100031701000117, 0x18171d09023f0100033f0100033f0100033f0600013f0300013f0300013f0300013f0300013f0300013f0100023f0100013f0118013f0100013f0118013f0100013f0118013f013f0300013f0300013f0300013f0100, 0x1517200901280300012803000128030001280100010001280100012805000128010001280200010001280100012805000128010001280200012803000128030001280300012801000500012801000128050001280500012801000128050001280128030001280300012803000128010001000128010001280500012801000128020001000128010001280500012801000128020001280300012803000128030001280100050001110100011105000111, 0x17171b0902c7024002c7024002c7024002c701c70102014001150202021502020215010201c70240010001c70215020202150202011501400240010001c7024002c7024002c70240, 0x1517200902ba020001ba040001ba030001ba02ba030004ba040001ba01ba013601ba090002ba01ba013601ba090002ba02ba020001ba010001ba030001ba010002ba02ba030001ba010002ba010001ba010002ba02ba030001ba010002ba030002ba02ba080001ba010002ba02ba0a0002ba02ba0a0002ba02360a000236]"
      ],
      "transaction": {
        "from": "0x84d5e34ad1a91cf2ecad071a65948fa48f1b4216",
        "to": "0x099cc999dd431de6529fbb516e8c59ab0cecdde8",
        "gas": "0x8e407",
        "value": "0x0",
        "input": "0x0475d8630000000000000000000000000000000000000000000000000000000000000020000000000000000000000000000000000000000000000000000000000000000500000000000000000000000000000000000000000000000000000000000000a000000000000000000000000000000000000000000000000000000000000001000000000000000000000000000000000000000000000000000000000000000180000000000000000000000000000000000000000000000000000000000000026000000000000000000000000000000000000000000000000000000000000002e0000000000000000000000000000000000000000000000000000000000000002417141b0d030001170300010001170300011701000200031702000117010003170100011700000000000000000000000000000000000000000000000000000000000000000000000000000000000000000000000000000000000000000000005618171d09023f0100033f0100033f0100033f0600013f0300013f0300013f0300013f0300013f0300013f0100023f0100013f0118013f0100013f0118013f0100013f0118013f013f0300013f0300013f0300013f01000000000000000000000000000000000000000000000000000000000000000000000000000000000000b0151720090128030001280300012803000128010001000128010001280500012801000128020001000128010001280500012801000128020001280300012803000128030001280100050001280100012805000128050001280100012805000128012803000128030001280300012801000100012801000128050001280100012802000100012801000128050001280100012802000128030001280300012803000128010005000111010001110500011100000000000000000000000000000000000000000000000000000000000000000000000000000000000000000000004817171b0902c7024002c7024002c7024002c701c70102014001150202021502020215010201c70240010001c70215020202150202011501400240010001c7024002c7024002c70240000000000000000000000000000000000000000000000000000000000000000000000000000000000000000000000000000000000000007e1517200902ba020001ba040001ba030001ba02ba030004ba040001ba01ba013601ba090002ba01ba013601ba090002ba02ba020001ba010001ba030001ba010002ba02ba030001ba010002ba010001ba010002ba02ba030001ba010002ba030002ba02ba080001ba010002ba02ba0a0002ba02ba0a0002ba02360a0002360000",
        "nonce": "0x97",
        "chainId": "0x14a34"
      },
      "additionalContracts": [
        {
          "transactionType": "CREATE",
          "contractName": null,
          "address": "0x3a9f13db489fb34e404ddfb0b33de6aa73d70493",
          "initCode": "0x61002580600c6000396000f30017141b0d0300011703000100011703000117010002000317020001170100031701000117"
        },
        {
          "transactionType": "CREATE",
          "contractName": null,
          "address": "0x837f1333de5c3f8b8a8a35d262e106fc8dce9447",
          "initCode": "0x61005780600c6000396000f30018171d09023f0100033f0100033f0100033f0600013f0300013f0300013f0300013f0300013f0300013f0100023f0100013f0118013f0100013f0118013f0100013f0118013f013f0300013f0300013f0300013f0100"
        },
        {
          "transactionType": "CREATE",
          "contractName": null,
          "address": "0x593667e87ec5bcc49aa0627ed356ea750d3e45c9",
          "initCode": "0x6100b180600c6000396000f3001517200901280300012803000128030001280100010001280100012805000128010001280200010001280100012805000128010001280200012803000128030001280300012801000500012801000128050001280500012801000128050001280128030001280300012803000128010001000128010001280500012801000128020001000128010001280500012801000128020001280300012803000128030001280100050001110100011105000111"
        },
        {
          "transactionType": "CREATE",
          "contractName": null,
          "address": "0xd130264e0379042253f60453db14552818585901",
          "initCode": "0x61004980600c6000396000f30017171b0902c7024002c7024002c7024002c701c70102014001150202021502020215010201c70240010001c70215020202150202011501400240010001c7024002c7024002c70240"
        },
        {
          "transactionType": "CREATE",
          "contractName": null,
          "address": "0x2a7821f26e07f15866a868f4c6dd491f2ac447bf",
          "initCode": "0x61007f80600c6000396000f3001517200902ba020001ba040001ba030001ba02ba030004ba040001ba01ba013601ba090002ba01ba013601ba090002ba02ba020001ba010001ba030001ba010002ba02ba030001ba010002ba010001ba010002ba02ba030001ba010002ba030002ba02ba080001ba010002ba02ba0a0002ba02ba0a0002ba02360a000236"
        }
      ],
      "isFixedGasLimit": false
    },
    {
      "hash": "0x0e2693780ca424c4b3e9d7d7706cc89fea731b31cb9936775fbe458c08384b70",
      "transactionType": "CALL",
      "contractName": "AnonsDescriptor",
      "contractAddress": "0x099cc999dd431de6529fbb516e8c59ab0cecdde8",
      "function": "addManyAccessories(bytes[])",
      "arguments": [
        "[0x17131e0d017d0100017d010002b00100017d020002b00100017d020002b0060001b00200027d010001b00200027d010002b00100027d0100, 0x18131d0e030d0200030d020005000200010d02000400010d, 0x1512200e04030195020c01950195020c01950195020c01950195020c01950195020c01950195020c01950195020c01950195020c01950195020c0195019e020c019e, 0x1615200b020002ee0100019902000199010001ee010003ee020001990200010001ee030001ee020002990300028e010001ee010002990200018e0100018f018e01ee0100019901000100018e0100018f019901ee010001990100018f0100018e0100018f0100029903000100018e0200018f0300018f01000200018e0200038f0100018f010001c6020001c60100022a0200, 0x1512200e0447019502bd0195019502bd0195019502bd0195019502bd0195019502bd0195019502bd0195019502bd0195019502bd0195019502bd0195019e02bd019e]"
      ],
      "transaction": {
        "from": "0x84d5e34ad1a91cf2ecad071a65948fa48f1b4216",
        "to": "0x099cc999dd431de6529fbb516e8c59ab0cecdde8",
        "gas": "0x842d2",
        "value": "0x0",
        "input": "0x0475d8630000000000000000000000000000000000000000000000000000000000000020000000000000000000000000000000000000000000000000000000000000000500000000000000000000000000000000000000000000000000000000000000a00000000000000000000000000000000000000000000000000000000000000100000000000000000000000000000000000000000000000000000000000000014000000000000000000000000000000000000000000000000000000000000001c00000000000000000000000000000000000000000000000000000000000000280000000000000000000000000000000000000000000000000000000000000003817131e0d017d0100017d010002b00100017d020002b00100017d020002b0060001b00200027d010001b00200027d010002b00100027d01000000000000000000000000000000000000000000000000000000000000000000000000000000001818131d0e030d0200030d020005000200010d02000400010d000000000000000000000000000000000000000000000000000000000000000000000000000000421512200e04030195020c01950195020c01950195020c01950195020c01950195020c01950195020c01950195020c01950195020c01950195020c0195019e020c019e00000000000000000000000000000000000000000000000000000000000000000000000000000000000000000000000000000000000000000000000000921615200b020002ee0100019902000199010001ee010003ee020001990200010001ee030001ee020002990300028e010001ee010002990200018e0100018f018e01ee0100019901000100018e0100018f019901ee010001990100018f0100018e0100018f0100029903000100018e0200018f0300018f01000200018e0200038f0100018f010001c6020001c60100022a0200000000000000000000000000000000000000000000000000000000000000000000000000000000000000000000421512200e0447019502bd0195019502bd0195019502bd0195019502bd0195019502bd0195019502bd0195019502bd0195019502bd0195019502bd0195019e02bd019e000000000000000000000000000000000000000000000000000000000000",
        "nonce": "0x98",
        "chainId": "0x14a34"
      },
      "additionalContracts": [
        {
          "transactionType": "CREATE",
          "contractName": null,
          "address": "0xb1c52cb0bbe12fbe6c7f193148f6d72cc67178f1",
          "initCode": "0x61003980600c6000396000f30017131e0d017d0100017d010002b00100017d020002b00100017d020002b0060001b00200027d010001b00200027d010002b00100027d0100"
        },
        {
          "transactionType": "CREATE",
          "contractName": null,
          "address": "0x350851fb70bc0fc43533bdff852d6ab96376b7dd",
          "initCode": "0x61001980600c6000396000f30018131d0e030d0200030d020005000200010d02000400010d"
        },
        {
          "transactionType": "CREATE",
          "contractName": null,
          "address": "0xc15521ae731463aaaf3f475660c2b43b1e35fb03",
          "initCode": "0x61004380600c6000396000f3001512200e04030195020c01950195020c01950195020c01950195020c01950195020c01950195020c01950195020c01950195020c01950195020c0195019e020c019e"
        },
        {
          "transactionType": "CREATE",
          "contractName": null,
          "address": "0xd49f024385928c32a7b7cb043b22684b5de938f6",
          "initCode": "0x61009380600c6000396000f3001615200b020002ee0100019902000199010001ee010003ee020001990200010001ee030001ee020002990300028e010001ee010002990200018e0100018f018e01ee0100019901000100018e0100018f019901ee010001990100018f0100018e0100018f0100029903000100018e0200018f0300018f01000200018e0200038f0100018f010001c6020001c60100022a0200"
        },
        {
          "transactionType": "CREATE",
          "contractName": null,
          "address": "0x74d5967f1f807bb36634fc4f3b6ff18ad44a4205",
          "initCode": "0x61004380600c6000396000f3001512200e0447019502bd0195019502bd0195019502bd0195019502bd0195019502bd0195019502bd0195019502bd0195019502bd0195019502bd0195019e02bd019e"
        }
      ],
      "isFixedGasLimit": false
    },
    {
      "hash": "0xa95e36678d7d6aa097092601cc3d98cb101650938e936f3bb0ef381af43a7de7",
      "transactionType": "CALL",
      "contractName": "AnonsDescriptor",
      "contractAddress": "0x099cc999dd431de6529fbb516e8c59ab0cecdde8",
      "function": "addManyAccessories(bytes[])",
      "arguments": [
        "[0x16111f0f02d202d2020002d202d202d202d202d202d2, 0x17151e0d0200012405000224060002240100012404000200012401bf01240300030001240100012401000124050002240100050002240100, 0x17151e0c0100070f0100010f0700010f010f0100020f0100020f0100010f010f0100010f0200010f0200010f010f0100020f0100020f0100010f010f0700010f0100070f0100, 0x17141d0d03d2010003d201d2030001d2020001d2030001d2020001d2030001d2020001d2030001d2020003d2010003d2, 0x17131e0d02840100028401000184020002840100028401000284010006000284010001840100018402840100028401000184020001840200]"
      ],
      "transaction": {
        "from": "0x84d5e34ad1a91cf2ecad071a65948fa48f1b4216",
        "to": "0x099cc999dd431de6529fbb516e8c59ab0cecdde8",
        "gas": "0x838a3",
        "value": "0x0",
        "input": "0x0475d8630000000000000000000000000000000000000000000000000000000000000020000000000000000000000000000000000000000000000000000000000000000500000000000000000000000000000000000000000000000000000000000000a000000000000000000000000000000000000000000000000000000000000000e0000000000000000000000000000000000000000000000000000000000000014000000000000000000000000000000000000000000000000000000000000001c00000000000000000000000000000000000000000000000000000000000000220000000000000000000000000000000000000000000000000000000000000001616111f0f02d202d2020002d202d202d202d202d202d200000000000000000000000000000000000000000000000000000000000000000000000000000000003817151e0d0200012405000224060002240100012404000200012401bf012403000300012401000124010001240500022401000500022401000000000000000000000000000000000000000000000000000000000000000000000000000000004617151e0c0100070f0100010f0700010f010f0100020f0100020f0100010f010f0100010f0200010f0200010f010f0100020f0100020f0100010f010f0700010f0100070f01000000000000000000000000000000000000000000000000000000000000000000000000000000000000000000000000000000000000000000003017141d0d03d2010003d201d2030001d2020001d2030001d2020001d2030001d2020001d2030001d2020003d2010003d200000000000000000000000000000000000000000000000000000000000000000000000000000000000000000000003817131e0d028401000284010001840200028401000284010002840100060002840100018401000184028401000284010001840200018402000000000000000000",
        "nonce": "0x99",
        "chainId": "0x14a34"
      },
      "additionalContracts": [
        {
          "transactionType": "CREATE",
          "contractName": null,
          "address": "0x73d508b26de2f18156692417fa0781b237ba535d",
          "initCode": "0x61001780600c6000396000f30016111f0f02d202d2020002d202d202d202d202d202d2"
        },
        {
          "transactionType": "CREATE",
          "contractName": null,
          "address": "0xe5ccc4a838d437b55062810c2fe2fd35213107a1",
          "initCode": "0x61003980600c6000396000f30017151e0d0200012405000224060002240100012404000200012401bf01240300030001240100012401000124050002240100050002240100"
        },
        {
          "transactionType": "CREATE",
          "contractName": null,
          "address": "0x8925fad3c52dc5d6a852f8056ceea381de3fb68a",
          "initCode": "0x61004780600c6000396000f30017151e0c0100070f0100010f0700010f010f0100020f0100020f0100010f010f0100010f0200010f0200010f010f0100020f0100020f0100010f010f0700010f0100070f0100"
        },
        {
          "transactionType": "CREATE",
          "contractName": null,
          "address": "0xed885ab4cd35c9d422dc3fb68f30bf21dbfa0247",
          "initCode": "0x61003180600c6000396000f30017141d0d03d2010003d201d2030001d2020001d2030001d2020001d2030001d2020001d2030001d2020003d2010003d2"
        },
        {
          "transactionType": "CREATE",
          "contractName": null,
          "address": "0x4df8cc7cba9e5dcc71754e9de57f3c29596284c3",
          "initCode": "0x61003980600c6000396000f30017131e0d02840100028401000184020002840100028401000284010006000284010001840100018402840100028401000184020001840200"
        }
      ],
      "isFixedGasLimit": false
    },
    {
      "hash": "0x09b61d721ea211766bbae53812931c0c040896f1ec075b21573ee068e2f19f88",
      "transactionType": "CALL",
      "contractName": "AnonsDescriptor",
      "contractAddress": "0x099cc999dd431de6529fbb516e8c59ab0cecdde8",
      "function": "addManyAccessories(bytes[])",
      "arguments": [
        "[0x18151c0c0203020001030200010301000103010002030100020301000103010301000103010c0103010c01030100010302030100010301000103010001030100, 0x16161e0b0200010308000303080001030100030306000100020301000303040003000203010003030200050002030100030308000103010001030a000103, 0x17131e0d010001e8020001e8010002e8010001e8010001e802e8020001e80100060002e8010001e8020002e8010002e8010001e8020003e8, 0x19151c0d0503010002030203010002030100020301030200020301000203, 0x19171e09021601000b16021601000116097001160216010001160970011602160100011609700116021601000b16]"
      ],
      "transaction": {
        "from": "0x84d5e34ad1a91cf2ecad071a65948fa48f1b4216",
        "to": "0x099cc999dd431de6529fbb516e8c59ab0cecdde8",
        "gas": "0x7c990",
        "value": "0x0",
        "input": "0x0475d8630000000000000000000000000000000000000000000000000000000000000020000000000000000000000000000000000000000000000000000000000000000500000000000000000000000000000000000000000000000000000000000000a00000000000000000000000000000000000000000000000000000000000000100000000000000000000000000000000000000000000000000000000000000016000000000000000000000000000000000000000000000000000000000000001c00000000000000000000000000000000000000000000000000000000000000200000000000000000000000000000000000000000000000000000000000000004018151c0c0203020001030200010301000103010002030100020301000103010301000103010c0103010c01030100010302030100010301000103010001030100000000000000000000000000000000000000000000000000000000000000003e16161e0b0200010308000303080001030100030306000100020301000303040003000203010003030200050002030100030308000103010001030a0001030000000000000000000000000000000000000000000000000000000000000000003817131e0d010001e8020001e8010002e8010001e8010001e802e8020001e80100060002e8010001e8020002e8010002e8010001e8020003e80000000000000000000000000000000000000000000000000000000000000000000000000000001e19151c0d05030100020302030100020301000203010302000203010002030000000000000000000000000000000000000000000000000000000000000000002e19171e09021601000b16021601000116097001160216010001160970011602160100011609700116021601000b16000000000000000000000000000000000000",
        "nonce": "0x9a",
        "chainId": "0x14a34"
      },
      "additionalContracts": [
        {
          "transactionType": "CREATE",
          "contractName": null,
          "address": "0x2db6f80099a4392604458c3c2bb6056c6ff25234",
          "initCode": "0x61004180600c6000396000f30018151c0c0203020001030200010301000103010002030100020301000103010301000103010c0103010c01030100010302030100010301000103010001030100"
        },
        {
          "transactionType": "CREATE",
          "contractName": null,
          "address": "0xd7d497583e07c3511195b2bb72a4b3909a4677e6",
          "initCode": "0x61003f80600c6000396000f30016161e0b0200010308000303080001030100030306000100020301000303040003000203010003030200050002030100030308000103010001030a000103"
        },
        {
          "transactionType": "CREATE",
          "contractName": null,
          "address": "0x67a744b318296a3b12d34484e58d2c1304080991",
          "initCode": "0x61003980600c6000396000f30017131e0d010001e8020001e8010002e8010001e8010001e802e8020001e80100060002e8010001e8020002e8010002e8010001e8020003e8"
        },
        {
          "transactionType": "CREATE",
          "contractName": null,
          "address": "0x15762e5890352aeea90dc2a515be7288b72f972e",
          "initCode": "0x61001f80600c6000396000f30019151c0d0503010002030203010002030100020301030200020301000203"
        },
        {
          "transactionType": "CREATE",
          "contractName": null,
          "address": "0xdad6861256e2d277ddddd4f023ad17301f9c60ea",
          "initCode": "0x61002f80600c6000396000f30019171e09021601000b16021601000116097001160216010001160970011602160100011609700116021601000b16"
        }
      ],
      "isFixedGasLimit": false
    },
    {
      "hash": "0xfaa352347b84000578339b03f76c0be583e2b9f826792b19da5683a4cbc23e14",
      "transactionType": "CALL",
      "contractName": "AnonsDescriptor",
      "contractAddress": "0x099cc999dd431de6529fbb516e8c59ab0cecdde8",
      "function": "addManyAccessories(bytes[])",
      "arguments": [
        "[0x18131d0d01c9030001c9010001c9020001c9020001c9010001c9010002c9010001c9020002c901c9030002c9, 0x17131e0d01080300020801080200020801000208010001080200060001000108020002080108010001080100020801080100010801000208, 0x17151a0d010d0200020d0100010d0100010d0200020d0100010d0100020d0100020d0100020d, 0x16141d0d0600018007000280010001800200018001800100018001000180010001800700028002000380018001000180020001800100, 0x18151b0d030f0100010f0100010f0100010f0100010f0100010f0100010f0100010f0100010f0100010f0100020f]"
      ],
      "transaction": {
        "from": "0x84d5e34ad1a91cf2ecad071a65948fa48f1b4216",
        "to": "0x099cc999dd431de6529fbb516e8c59ab0cecdde8",
        "gas": "0x7b3cc",
        "value": "0x0",
        "input": "0x0475d8630000000000000000000000000000000000000000000000000000000000000020000000000000000000000000000000000000000000000000000000000000000500000000000000000000000000000000000000000000000000000000000000a00000000000000000000000000000000000000000000000000000000000000100000000000000000000000000000000000000000000000000000000000000016000000000000000000000000000000000000000000000000000000000000001c00000000000000000000000000000000000000000000000000000000000000220000000000000000000000000000000000000000000000000000000000000002c18131d0d01c9030001c9010001c9020001c9020001c9010001c9010002c9010001c9020002c901c9030002c90000000000000000000000000000000000000000000000000000000000000000000000000000000000000000000000000000003817131e0d010803000208010802000208010002080100010802000600010001080200020801080100010801000208010801000108010002080000000000000000000000000000000000000000000000000000000000000000000000000000002617151a0d010d0200020d0100010d0100010d0200020d0100010d0100020d0100020d0100020d0000000000000000000000000000000000000000000000000000000000000000000000000000000000000000000000000000000000000000003616141d0d060001800700028001000180020001800180010001800100018001000180070002800200038001800100018002000180010000000000000000000000000000000000000000000000000000000000000000000000000000000000002e18151b0d030f0100010f0100010f0100010f0100010f0100010f0100010f0100010f0100010f0100010f0100020f000000000000000000000000000000000000",
        "nonce": "0x9b",
        "chainId": "0x14a34"
      },
      "additionalContracts": [
        {
          "transactionType": "CREATE",
          "contractName": null,
          "address": "0xc9796b2886eda6b604db82e39d7e6d3b096353a7",
          "initCode": "0x61002d80600c6000396000f30018131d0d01c9030001c9010001c9020001c9020001c9010001c9010002c9010001c9020002c901c9030002c9"
        },
        {
          "transactionType": "CREATE",
          "contractName": null,
          "address": "0xa6c07f03c853fccc54e93ccef7db7ec9b9dcf178",
          "initCode": "0x61003980600c6000396000f30017131e0d01080300020801080200020801000208010001080200060001000108020002080108010001080100020801080100010801000208"
        },
        {
          "transactionType": "CREATE",
          "contractName": null,
          "address": "0x3b080ba8e8f17119e70dfc3bd96df5e6440287e5",
          "initCode": "0x61002780600c6000396000f30017151a0d010d0200020d0100010d0100010d0200020d0100010d0100020d0100020d0100020d"
        },
        {
          "transactionType": "CREATE",
          "contractName": null,
          "address": "0xfcd44a548a2eb630838ec2e8429acf6c306e6dab",
          "initCode": "0x61003780600c6000396000f30016141d0d0600018007000280010001800200018001800100018001000180010001800700028002000380018001000180020001800100"
        },
        {
          "transactionType": "CREATE",
          "contractName": null,
          "address": "0xfed513ac3b42cfdbcaf3ab59fdc4766205af3b2a",
          "initCode": "0x61002f80600c6000396000f30018151b0d030f0100010f0100010f0100010f0100010f0100010f0100010f0100010f0100010f0100010f0100020f"
        }
      ],
      "isFixedGasLimit": false
    },
    {
      "hash": "0x1e11e8b096cb9bda5839ddf850aca17ecb9844faf5fa3ee378e5d4dc0293541c",
      "transactionType": "CALL",
      "contractName": "AnonsDescriptor",
      "contractAddress": "0x099cc999dd431de6529fbb516e8c59ab0cecdde8",
      "function": "addManyAccessories(bytes[])",
      "arguments": [
        "[0x17131f0d010002990100019901000100019901000299010006000299010001990100019902990100039906000100029901000199010001000199010002990100, 0x17131f0d010002080100010801000100010801000208010006000208010001080100010802080100030806000100020801000108010001000108010002080100, 0x17131f0d010002ee010001ee0100010001ee010002ee010006000299010001800100018002990100038006000100025701000157010001000157010002570100, 0x16131e0d010002990100019901000100019901000299010006000299010001990100019902990100039906000100029901000199010001000199010002990100, 0x18131c0d01000529012901000129010001290100020001290100012901000200012902000129]"
      ],
      "transaction": {
        "from": "0x84d5e34ad1a91cf2ecad071a65948fa48f1b4216",
        "to": "0x099cc999dd431de6529fbb516e8c59ab0cecdde8",
        "gas": "0x7f3d4",
        "value": "0x0",
        "input": "0x0475d8630000000000000000000000000000000000000000000000000000000000000020000000000000000000000000000000000000000000000000000000000000000500000000000000000000000000000000000000000000000000000000000000a00000000000000000000000000000000000000000000000000000000000000100000000000000000000000000000000000000000000000000000000000000016000000000000000000000000000000000000000000000000000000000000001c00000000000000000000000000000000000000000000000000000000000000220000000000000000000000000000000000000000000000000000000000000004017131f0d010002990100019901000100019901000299010006000299010001990100019902990100039906000100029901000199010001000199010002990100000000000000000000000000000000000000000000000000000000000000004017131f0d010002080100010801000100010801000208010006000208010001080100010802080100030806000100020801000108010001000108010002080100000000000000000000000000000000000000000000000000000000000000004017131f0d010002ee010001ee0100010001ee010002ee010006000299010001800100018002990100038006000100025701000157010001000157010002570100000000000000000000000000000000000000000000000000000000000000004016131e0d010002990100019901000100019901000299010006000299010001990100019902990100039906000100029901000199010001000199010002990100000000000000000000000000000000000000000000000000000000000000002618131c0d010005290129010001290100012901000200012901000129010002000129020001290000000000000000000000000000000000000000000000000000",
        "nonce": "0x9c",
        "chainId": "0x14a34"
      },
      "additionalContracts": [
        {
          "transactionType": "CREATE",
          "contractName": null,
          "address": "0xe3a9cc8c6b787ea1acc7858ba7b377bb6a7aaab0",
          "initCode": "0x61004180600c6000396000f30017131f0d010002990100019901000100019901000299010006000299010001990100019902990100039906000100029901000199010001000199010002990100"
        },
        {
          "transactionType": "CREATE",
          "contractName": null,
          "address": "0xd29d6adc19756e0f299dc3d963eaeb0ea7813782",
          "initCode": "0x61004180600c6000396000f30017131f0d010002080100010801000100010801000208010006000208010001080100010802080100030806000100020801000108010001000108010002080100"
        },
        {
          "transactionType": "CREATE",
          "contractName": null,
          "address": "0x4282585e3df1131da89b6694b9664f333fc79e63",
          "initCode": "0x61004180600c6000396000f30017131f0d010002ee010001ee0100010001ee010002ee010006000299010001800100018002990100038006000100025701000157010001000157010002570100"
        },
        {
          "transactionType": "CREATE",
          "contractName": null,
          "address": "0xfe99a59f10297efe2c3a3d21def0a42c508ae36a",
          "initCode": "0x61004180600c6000396000f30016131e0d010002990100019901000100019901000299010006000299010001990100019902990100039906000100029901000199010001000199010002990100"
        },
        {
          "transactionType": "CREATE",
          "contractName": null,
          "address": "0x54f01fdb93c87c2c1a6ec19c150a28f0674facf0",
          "initCode": "0x61002780600c6000396000f30018131c0d01000529012901000129010001290100020001290100012901000200012902000129"
        }
      ],
      "isFixedGasLimit": false
    },
    {
      "hash": "0x13eeeca8b7c287f98c32f96b6ec63a31053bcd046b167dac7f227ff7dbdcd3dd",
      "transactionType": "CALL",
      "contractName": "AnonsDescriptor",
      "contractAddress": "0x099cc999dd431de6529fbb516e8c59ab0cecdde8",
      "function": "addManyAccessories(bytes[])",
      "arguments": [
        "[0x17131e0d02ba040002ba040001ba010002ba0200020002ba0200040002ba040002ba040001ba0100, 0x17131e0d020d02000269020d02000269010d0100010d01000269060003930100011701000293020001170100019303000217, 0x18151e0c0700018f0100040001c90100018f0100018f020001c9010001c90100038f01c9010001c9010001c90100018f020001c9010001c9010001c90200018f0100010001c9010001c90500, 0x18151b0c0131010001310100018f0100013101000131010001310100038f010001310100010001310100018f0100018f010001310100, 0x151720090392010007920100029202920300019203230192030001920192050001920123019205000700019206000292010004920100069201000192010001920123019203000192032301920300029205000192012301920100030001920700019202000292020007920100029202920300019203230192030001920123050003230500]"
      ],
      "transaction": {
        "from": "0x84d5e34ad1a91cf2ecad071a65948fa48f1b4216",
        "to": "0x099cc999dd431de6529fbb516e8c59ab0cecdde8",
        "gas": "0x8b66a",
        "value": "0x0",
        "input": "0x0475d8630000000000000000000000000000000000000000000000000000000000000020000000000000000000000000000000000000000000000000000000000000000500000000000000000000000000000000000000000000000000000000000000a00000000000000000000000000000000000000000000000000000000000000100000000000000000000000000000000000000000000000000000000000000016000000000000000000000000000000000000000000000000000000000000001e00000000000000000000000000000000000000000000000000000000000000240000000000000000000000000000000000000000000000000000000000000002817131e0d02ba040002ba040001ba010002ba0200020002ba0200040002ba040002ba040001ba0100000000000000000000000000000000000000000000000000000000000000000000000000000000000000000000000000000000000000003217131e0d020d02000269020d02000269010d0100010d010002690600039301000117010002930200011701000193030002170000000000000000000000000000000000000000000000000000000000000000000000000000000000000000004c18151e0c0700018f0100040001c90100018f0100018f020001c9010001c90100038f01c9010001c9010001c90100018f020001c9010001c9010001c90200018f0100010001c9010001c905000000000000000000000000000000000000000000000000000000000000000000000000000000000000000000000000000000003618151b0c0131010001310100018f0100013101000131010001310100038f010001310100010001310100018f0100018f01000131010000000000000000000000000000000000000000000000000000000000000000000000000000000000008415172009039201000792010002920292030001920323019203000192019205000192012301920500070001920600029201000492010006920100019201000192012301920300019203230192030002920500019201230192010003000192070001920200029202000792010002920292030001920323019203000192012305000323050000000000000000000000000000000000000000000000000000000000",
        "nonce": "0x9d",
        "chainId": "0x14a34"
      },
      "additionalContracts": [
        {
          "transactionType": "CREATE",
          "contractName": null,
          "address": "0x66a899aa6f9418e7aea67fb300d63c39ad821ce2",
          "initCode": "0x61002980600c6000396000f30017131e0d02ba040002ba040001ba010002ba0200020002ba0200040002ba040002ba040001ba0100"
        },
        {
          "transactionType": "CREATE",
          "contractName": null,
          "address": "0x9afe1a6cc9fd28627faf93a6b4ea0735eaa71fa0",
          "initCode": "0x61003380600c6000396000f30017131e0d020d02000269020d02000269010d0100010d01000269060003930100011701000293020001170100019303000217"
        },
        {
          "transactionType": "CREATE",
          "contractName": null,
          "address": "0x69ee7ff4c42d40ff592e5e7811202e785707db80",
          "initCode": "0x61004d80600c6000396000f30018151e0c0700018f0100040001c90100018f0100018f020001c9010001c90100038f01c9010001c9010001c90100018f020001c9010001c9010001c90200018f0100010001c9010001c90500"
        },
        {
          "transactionType": "CREATE",
          "contractName": null,
          "address": "0x7fe0877195cab245eb1d9cd92b61c4eb8d39e946",
          "initCode": "0x61003780600c6000396000f30018151b0c0131010001310100018f0100013101000131010001310100038f010001310100010001310100018f0100018f010001310100"
        },
        {
          "transactionType": "CREATE",
          "contractName": null,
          "address": "0x1e57a524ccf8dd1ec78254d0c6677040b3d92631",
          "initCode": "0x61008580600c6000396000f300151720090392010007920100029202920300019203230192030001920192050001920123019205000700019206000292010004920100069201000192010001920123019203000192032301920300029205000192012301920100030001920700019202000292020007920100029202920300019203230192030001920123050003230500"
        }
      ],
      "isFixedGasLimit": false
    },
    {
      "hash": "0x07be35f4acb4a649fabad2f825bac7fe024b4c7215c0c82c2e0270864c528625",
      "transactionType": "CALL",
      "contractName": "AnonsDescriptor",
      "contractAddress": "0x099cc999dd431de6529fbb516e8c59ab0cecdde8",
      "function": "addManyAccessories(bytes[])",
      "arguments": [
        "[0x151720090a0001eb03000a0001eb030002eb01000beb040001eb0900040001eb090002eb010004eb010006eb0a0001eb03000a0001eb030002eb01000beb040001eb0900040001190900, 0x17151c0d010003c9040002c9020001c90300020001c9020001c90200020001c9030002c9010001c90600, 0x18141f0d013b02f1013b03f101f1016f010901c10109016f01f101f1016f010901c10109016f01f101f1016f01f1010901f1016f013b010001d1010001d1010001d10100010001d10500050001d10100, 0x1517200903310100038001000331010002310e000131010003800100033101000380010001000180030001310300018003000131018002000231010003800100033101000e0002310200038001000331010002800300018003000131030001800200013101800200033101000380010002310e00015a0200025a010003410100035a0100, 0x1517200903980100039801000398010002980e000198010003980100039801000398010001000198030001980300019803000198019802000298010003980100039801000e000298020003980100039801000298030001980300019803000198020002980200039801000398010002980e00014b0200024b0100034b0100034b0100]"
      ],
      "transaction": {
        "from": "0x84d5e34ad1a91cf2ecad071a65948fa48f1b4216",
        "to": "0x099cc999dd431de6529fbb516e8c59ab0cecdde8",
        "gas": "0x8b80d",
        "value": "0x0",
        "input": "0x0475d8630000000000000000000000000000000000000000000000000000000000000020000000000000000000000000000000000000000000000000000000000000000500000000000000000000000000000000000000000000000000000000000000a000000000000000000000000000000000000000000000000000000000000001200000000000000000000000000000000000000000000000000000000000000180000000000000000000000000000000000000000000000000000000000000020000000000000000000000000000000000000000000000000000000000000002c0000000000000000000000000000000000000000000000000000000000000004a151720090a0001eb03000a0001eb030002eb01000beb040001eb0900040001eb090002eb010004eb010006eb0a0001eb03000a0001eb030002eb01000beb040001eb090004000119090000000000000000000000000000000000000000000000000000000000000000000000000000000000000000000000000000000000002a17151c0d010003c9040002c9020001c90300020001c9020001c90200020001c9030002c9010001c9060000000000000000000000000000000000000000000000000000000000000000000000000000000000000000000000000000000000005018141f0d013b02f1013b03f101f1016f010901c10109016f01f101f1016f010901c10109016f01f101f1016f01f1010901f1016f013b010001d1010001d1010001d10100010001d10500050001d101000000000000000000000000000000000000000000000000000000000000000000000000000000000000000000000000841517200903310100038001000331010002310e000131010003800100033101000380010001000180030001310300018003000131018002000231010003800100033101000e0002310200038001000331010002800300018003000131030001800200013101800200033101000380010002310e00015a0200025a010003410100035a01000000000000000000000000000000000000000000000000000000000000000000000000000000000000000000000000000000000000000000000000821517200903980100039801000398010002980e000198010003980100039801000398010001000198030001980300019803000198019802000298010003980100039801000e000298020003980100039801000298030001980300019803000198020002980200039801000398010002980e00014b0200024b0100034b0100034b0100000000000000000000000000000000000000000000000000000000000000",
        "nonce": "0x9e",
        "chainId": "0x14a34"
      },
      "additionalContracts": [
        {
          "transactionType": "CREATE",
          "contractName": null,
          "address": "0x1e3d5365c921e0216f933522b294877a2d2a6576",
          "initCode": "0x61004b80600c6000396000f300151720090a0001eb03000a0001eb030002eb01000beb040001eb0900040001eb090002eb010004eb010006eb0a0001eb03000a0001eb030002eb01000beb040001eb0900040001190900"
        },
        {
          "transactionType": "CREATE",
          "contractName": null,
          "address": "0x8fabec2ce57bf30d86269ca3bba1874a0c1705e5",
          "initCode": "0x61002b80600c6000396000f30017151c0d010003c9040002c9020001c90300020001c9020001c90200020001c9030002c9010001c90600"
        },
        {
          "transactionType": "CREATE",
          "contractName": null,
          "address": "0x170f56a6912b9929f72332c894a16a779b052402",
          "initCode": "0x61005180600c6000396000f30018141f0d013b02f1013b03f101f1016f010901c10109016f01f101f1016f010901c10109016f01f101f1016f01f1010901f1016f013b010001d1010001d1010001d10100010001d10500050001d10100"
        },
        {
          "transactionType": "CREATE",
          "contractName": null,
          "address": "0x8aae0bfb56cfa8078c3fc07d2cdc1fbb9c4d4634",
          "initCode": "0x61008580600c6000396000f3001517200903310100038001000331010002310e000131010003800100033101000380010001000180030001310300018003000131018002000231010003800100033101000e0002310200038001000331010002800300018003000131030001800200013101800200033101000380010002310e00015a0200025a010003410100035a0100"
        },
        {
          "transactionType": "CREATE",
          "contractName": null,
          "address": "0x83dc5a2303feda88dc5681f59ee9603ec4c3709d",
          "initCode": "0x61008380600c6000396000f3001517200903980100039801000398010002980e000198010003980100039801000398010001000198030001980300019803000198019802000298010003980100039801000e000298020003980100039801000298030001980300019803000198020002980200039801000398010002980e00014b0200024b0100034b0100034b0100"
        }
      ],
      "isFixedGasLimit": false
    },
    {
      "hash": "0xc333d02ab36ab2c749b871be71a7bc08daec076dedd3b33bd98d7338e01e4f81",
      "transactionType": "CALL",
      "contractName": "AnonsDescriptor",
      "contractAddress": "0x099cc999dd431de6529fbb516e8c59ab0cecdde8",
      "function": "addManyAccessories(bytes[])",
      "arguments": [
        "[0x18121c0e044001400115019e019501400115019e01950495, 0x151720090e7801780c1c017801780c1c01780178011c01780a1c0178027801000178091c0178027801000178091c0178027801000178091c0178027801000178091c0178027801000178091c0178027801000178091c0178021c01000b1c, 0x151720090e3f013f0c18013f013f0c18013f013f0118013f0a18013f023f0100013f0918013f023f0100013f0918013f023f0100013f0918013f023f0100013f0918013f023f0100013f0918013f023f0100013f0918013f021801000b18, 0x151720090e3301330c12013301330c1201330133011201330a120133023301000133091201330233010001330912013302330100013309120133023301000133091201330233010001330912013302330100013309120133021201000b12, 0x151720090ed901d90c2b01d901d90c2b01d901d9012b01d90a2b01d902d9010001d9092b01d902d9010001d9092b01d902d9010001d9092b01d902d9010001d9092b01d902d9010001d9092b01d902d9010001d9092b01d9022b01000b2b]"
      ],
      "transaction": {
        "from": "0x84d5e34ad1a91cf2ecad071a65948fa48f1b4216",
        "to": "0x099cc999dd431de6529fbb516e8c59ab0cecdde8",
        "gas": "0x87330",
        "value": "0x0",
        "input": "0x0475d8630000000000000000000000000000000000000000000000000000000000000020000000000000000000000000000000000000000000000000000000000000000500000000000000000000000000000000000000000000000000000000000000a000000000000000000000000000000000000000000000000000000000000000e0000000000000000000000000000000000000000000000000000000000000016000000000000000000000000000000000000000000000000000000000000001e00000000000000000000000000000000000000000000000000000000000000260000000000000000000000000000000000000000000000000000000000000001818121c0e044001400115019e019501400115019e019504950000000000000000000000000000000000000000000000000000000000000000000000000000005e151720090e7801780c1c017801780c1c01780178011c01780a1c0178027801000178091c0178027801000178091c0178027801000178091c0178027801000178091c0178027801000178091c0178027801000178091c0178021c01000b1c0000000000000000000000000000000000000000000000000000000000000000005e151720090e3f013f0c18013f013f0c18013f013f0118013f0a18013f023f0100013f0918013f023f0100013f0918013f023f0100013f0918013f023f0100013f0918013f023f0100013f0918013f023f0100013f0918013f021801000b180000000000000000000000000000000000000000000000000000000000000000005e151720090e3301330c12013301330c1201330133011201330a120133023301000133091201330233010001330912013302330100013309120133023301000133091201330233010001330912013302330100013309120133021201000b120000000000000000000000000000000000000000000000000000000000000000005e151720090ed901d90c2b01d901d90c2b01d901d9012b01d90a2b01d902d9010001d9092b01d902d9010001d9092b01d902d9010001d9092b01d902d9010001d9092b01d902d9010001d9092b01d902d9010001d9092b01d9022b01000b2b0000",
        "nonce": "0x9f",
        "chainId": "0x14a34"
      },
      "additionalContracts": [
        {
          "transactionType": "CREATE",
          "contractName": null,
          "address": "0x38d41c5073c6baaebb80ec4c6c5e83314fc168e1",
          "initCode": "0x61001980600c6000396000f30018121c0e044001400115019e019501400115019e01950495"
        },
        {
          "transactionType": "CREATE",
          "contractName": null,
          "address": "0x25d5c1adae80398cc3d6825a6252740e31edc442",
          "initCode": "0x61005f80600c6000396000f300151720090e7801780c1c017801780c1c01780178011c01780a1c0178027801000178091c0178027801000178091c0178027801000178091c0178027801000178091c0178027801000178091c0178027801000178091c0178021c01000b1c"
        },
        {
          "transactionType": "CREATE",
          "contractName": null,
          "address": "0xbdd6b12625c15eb78b9da035ed50afcc14d3d75a",
          "initCode": "0x61005f80600c6000396000f300151720090e3f013f0c18013f013f0c18013f013f0118013f0a18013f023f0100013f0918013f023f0100013f0918013f023f0100013f0918013f023f0100013f0918013f023f0100013f0918013f023f0100013f0918013f021801000b18"
        },
        {
          "transactionType": "CREATE",
          "contractName": null,
          "address": "0x0aa670be49040ccbff214c1a9ed5a27d6e288fe4",
          "initCode": "0x61005f80600c6000396000f300151720090e3301330c12013301330c1201330133011201330a120133023301000133091201330233010001330912013302330100013309120133023301000133091201330233010001330912013302330100013309120133021201000b12"
        },
        {
          "transactionType": "CREATE",
          "contractName": null,
          "address": "0x4d60d26c69ec6973103cf7df2996d01ee6bb5a84",
          "initCode": "0x61005f80600c6000396000f300151720090ed901d90c2b01d901d90c2b01d901d9012b01d90a2b01d902d9010001d9092b01d902d9010001d9092b01d902d9010001d9092b01d902d9010001d9092b01d902d9010001d9092b01d902d9010001d9092b01d9022b01000b2b"
        }
      ],
      "isFixedGasLimit": false
    }
  ],
  "receipts": [
    {
      "status": "0x1",
      "cumulativeGasUsed": "0x8491b",
      "logs": [],
      "logsBloom": "0x00000000000000000000000000000000000000000000000000000000000000000000000000000000000000000000000000000000000000000000000000000000000000000000000000000000000000000000000000000000000000000000000000000000000000000000000000000000000000000000000000000000000000000000000000000000000000000000000000000000000000000000000000000000000000000000000000000000000000000000000000000000000000000000000000000000000000000000000000000000000000000000000000000000000000000000000000000000000000000000000000000000000000000000000000000000",
      "type": "0x0",
      "transactionHash": "0xabf498cf259e09383fceca0e4de1f975332f69fe544384618c84ae0a7273d982",
      "transactionIndex": "0x3",
      "blockHash": "0x0000000000000000000000000000000000000000000000000000000000000000",
      "blockNumber": "0x23a1b5e",
      "gasUsed": "0x5d7dd",
      "effectiveGasPrice": "0x124f80",
      "blobGasUsed": "0x142f8",
      "from": "0x84d5e34ad1a91cf2ecad071a65948fa48f1b4216",
      "to": "0x099cc999dd431de6529fbb516e8c59ab0cecdde8",
      "contractAddress": null,
      "daFootprintGasScalar": "0x138",
      "l1BaseFeeScalar": "0x44d",
      "l1BlobBaseFee": "0x36f9b97",
      "l1BlobBaseFeeScalar": "0xa118b",
      "l1Fee": "0x261cbf4a0",
      "l1GasPrice": "0x3ecce2f5",
      "l1GasUsed": "0x1093"
    },
    {
      "status": "0x1",
      "cumulativeGasUsed": "0xe47a5",
      "logs": [],
      "logsBloom": "0x00000000000000000000000000000000000000000000000000000000000000000000000000000000000000000000000000000000000000000000000000000000000000000000000000000000000000000000000000000000000000000000000000000000000000000000000000000000000000000000000000000000000000000000000000000000000000000000000000000000000000000000000000000000000000000000000000000000000000000000000000000000000000000000000000000000000000000000000000000000000000000000000000000000000000000000000000000000000000000000000000000000000000000000000000000000",
      "type": "0x0",
      "transactionHash": "0x2630a763b73d80717328a36b4aeb94b728520f46d6684d0632e7123b9ce5afe3",
      "transactionIndex": "0x4",
      "blockHash": "0x0000000000000000000000000000000000000000000000000000000000000000",
      "blockNumber": "0x23a1b5e",
      "gasUsed": "0x5fe8a",
      "effectiveGasPrice": "0x124f80",
      "blobGasUsed": "0x19f98",
      "from": "0x84d5e34ad1a91cf2ecad071a65948fa48f1b4216",
      "to": "0x099cc999dd431de6529fbb516e8c59ab0cecdde8",
      "contractAddress": null,
      "daFootprintGasScalar": "0x138",
      "l1BaseFeeScalar": "0x44d",
      "l1BlobBaseFee": "0x36f9b97",
      "l1BlobBaseFeeScalar": "0xa118b",
      "l1Fee": "0x261cbf4a0",
      "l1GasPrice": "0x3ecce2f5",
      "l1GasUsed": "0x1555"
    },
    {
      "status": "0x1",
      "cumulativeGasUsed": "0x14548b",
      "logs": [],
      "logsBloom": "0x00000000000000000000000000000000000000000000000000000000000000000000000000000000000000000000000000000000000000000000000000000000000000000000000000000000000000000000000000000000000000000000000000000000000000000000000000000000000000000000000000000000000000000000000000000000000000000000000000000000000000000000000000000000000000000000000000000000000000000000000000000000000000000000000000000000000000000000000000000000000000000000000000000000000000000000000000000000000000000000000000000000000000000000000000000000",
      "type": "0x0",
      "transactionHash": "0x0adf3e2b1a3fca5a11ca4d588be1a8f311adcd46d04f9ebee32584a080562661",
      "transactionIndex": "0x5",
      "blockHash": "0x0000000000000000000000000000000000000000000000000000000000000000",
      "blockNumber": "0x23a1b5e",
      "gasUsed": "0x60ce6",
      "effectiveGasPrice": "0x124f80",
      "blobGasUsed": "0x15c90",
      "from": "0x84d5e34ad1a91cf2ecad071a65948fa48f1b4216",
      "to": "0x099cc999dd431de6529fbb516e8c59ab0cecdde8",
      "contractAddress": null,
      "daFootprintGasScalar": "0x138",
      "l1BaseFeeScalar": "0x44d",
      "l1BlobBaseFee": "0x36f9b97",
      "l1BlobBaseFeeScalar": "0xa118b",
      "l1Fee": "0x261cbf4a0",
      "l1GasPrice": "0x3ecce2f5",
      "l1GasUsed": "0x11e2"
    },
    {
      "status": "0x1",
      "cumulativeGasUsed": "0x1b2a30",
      "logs": [],
      "logsBloom": "0x00000000000000000000000000000000000000000000000000000000000000000000000000000000000000000000000000000000000000000000000000000000000000000000000000000000000000000000000000000000000000000000000000000000000000000000000000000000000000000000000000000000000000000000000000000000000000000000000000000000000000000000000000000000000000000000000000000000000000000000000000000000000000000000000000000000000000000000000000000000000000000000000000000000000000000000000000000000000000000000000000000000000000000000000000000000",
      "type": "0x0",
      "transactionHash": "0x3a4fbc198057ba039e3f6313d7e54b6bd8d8cf2e628df13feda8b89db1943ad7",
      "transactionIndex": "0x6",
      "blockHash": "0x0000000000000000000000000000000000000000000000000000000000000000",
      "blockNumber": "0x23a1b5e",
      "gasUsed": "0x6d5a5",
      "effectiveGasPrice": "0x124f80",
      "blobGasUsed": "0x20c10",
      "from": "0x84d5e34ad1a91cf2ecad071a65948fa48f1b4216",
      "to": "0x099cc999dd431de6529fbb516e8c59ab0cecdde8",
      "contractAddress": null,
      "daFootprintGasScalar": "0x138",
      "l1BaseFeeScalar": "0x44d",
      "l1BlobBaseFee": "0x36f9b97",
      "l1BlobBaseFeeScalar": "0xa118b",
      "l1Fee": "0x261cbf4a0",
      "l1GasPrice": "0x3ecce2f5",
      "l1GasUsed": "0x1ae0"
    },
    {
      "status": "0x1",
      "cumulativeGasUsed": "0x216e55",
      "logs": [],
      "logsBloom": "0x00000000000000000000000000000000000000000000000000000000000000000000000000000000000000000000000000000000000000000000000000000000000000000000000000000000000000000000000000000000000000000000000000000000000000000000000000000000000000000000000000000000000000000000000000000000000000000000000000000000000000000000000000000000000000000000000000000000000000000000000000000000000000000000000000000000000000000000000000000000000000000000000000000000000000000000000000000000000000000000000000000000000000000000000000000000",
      "type": "0x0",
      "transactionHash": "0x09d42b83da8c977fa59d980896321c8354156af72de5c65d3d372cc758846681",
      "transactionIndex": "0x7",
      "blockHash": "0x0000000000000000000000000000000000000000000000000000000000000000",
      "blockNumber": "0x23a1b5e",
      "gasUsed": "0x64425",
      "effectiveGasPrice": "0x124f80",
      "blobGasUsed": "0x19ab8",
      "from": "0x84d5e34ad1a91cf2ecad071a65948fa48f1b4216",
      "to": "0x099cc999dd431de6529fbb516e8c59ab0cecdde8",
      "contractAddress": null,
      "daFootprintGasScalar": "0x138",
      "l1BaseFeeScalar": "0x44d",
      "l1BlobBaseFee": "0x36f9b97",
      "l1BlobBaseFeeScalar": "0xa118b",
      "l1Fee": "0x261cbf4a0",
      "l1GasPrice": "0x3ecce2f5",
      "l1GasUsed": "0x1512"
    },
    {
      "status": "0x1",
      "cumulativeGasUsed": "0x2845ce",
      "logs": [],
      "logsBloom": "0x00000000000000000000000000000000000000000000000000000000000000000000000000000000000000000000000000000000000000000000000000000000000000000000000000000000000000000000000000000000000000000000000000000000000000000000000000000000000000000000000000000000000000000000000000000000000000000000000000000000000000000000000000000000000000000000000000000000000000000000000000000000000000000000000000000000000000000000000000000000000000000000000000000000000000000000000000000000000000000000000000000000000000000000000000000000",
      "type": "0x0",
      "transactionHash": "0xc16d7db67bc6a0d3d1d05589ac98cc56e66d75757ba15d2b97138bf7fd672716",
      "transactionIndex": "0x8",
      "blockHash": "0x0000000000000000000000000000000000000000000000000000000000000000",
      "blockNumber": "0x23a1b5e",
      "gasUsed": "0x6d779",
      "effectiveGasPrice": "0x124f80",
      "blobGasUsed": "0x21840",
      "from": "0x84d5e34ad1a91cf2ecad071a65948fa48f1b4216",
      "to": "0x099cc999dd431de6529fbb516e8c59ab0cecdde8",
      "contractAddress": null,
      "daFootprintGasScalar": "0x138",
      "l1BaseFeeScalar": "0x44d",
      "l1BlobBaseFee": "0x36f9b97",
      "l1BlobBaseFeeScalar": "0xa118b",
      "l1Fee": "0x261cbf4a0",
      "l1GasPrice": "0x3ecce2f5",
      "l1GasUsed": "0x1b81"
    },
    {
      "status": "0x1",
      "cumulativeGasUsed": "0x2f521f",
      "logs": [],
      "logsBloom": "0x00000000000000000000000000000000000000000000000000000000000000000000000000000000000000000000000000000000000000000000000000000000000000000000000000000000000000000000000000000000000000000000000000000000000000000000000000000000000000000000000000000000000000000000000000000000000000000000000000000000000000000000000000000000000000000000000000000000000000000000000000000000000000000000000000000000000000000000000000000000000000000000000000000000000000000000000000000000000000000000000000000000000000000000000000000000",
      "type": "0x0",
      "transactionHash": "0xa9379de6ebbddfea58d014a50c4b601bb4174844bbb850a895b62f63f4631ddf",
      "transactionIndex": "0x9",
      "blockHash": "0x0000000000000000000000000000000000000000000000000000000000000000",
      "blockNumber": "0x23a1b5e",
      "gasUsed": "0x70c51",
      "effectiveGasPrice": "0x124f80",
      "blobGasUsed": "0x22e30",
      "from": "0x84d5e34ad1a91cf2ecad071a65948fa48f1b4216",
      "to": "0x099cc999dd431de6529fbb516e8c59ab0cecdde8",
      "contractAddress": null,
      "daFootprintGasScalar": "0x138",
      "l1BaseFeeScalar": "0x44d",
      "l1BlobBaseFee": "0x36f9b97",
      "l1BlobBaseFeeScalar": "0xa118b",
      "l1Fee": "0x261cbf4a0",
      "l1GasPrice": "0x3ecce2f5",
      "l1GasUsed": "0x1ca7"
    },
    {
      "status": "0x1",
      "cumulativeGasUsed": "0x36432b",
      "logs": [],
      "logsBloom": "0x00000000000000000000000000000000000000000000000000000000000000000000000000000000000000000000000000000000000000000000000000000000000000000000000000000000000000000000000000000000000000000000000000000000000000000000000000000000000000000000000000000000000000000000000000000000000000000000000000000000000000000000000000000000000000000000000000000000000000000000000000000000000000000000000000000000000000000000000000000000000000000000000000000000000000000000000000000000000000000000000000000000000000000000000000000000",
      "type": "0x0",
      "transactionHash": "0x77accb2c2b5bc7c5ff05094e18d102e8ef9584f6ca8c89cc9d69433769212fa1",
      "transactionIndex": "0xa",
      "blockHash": "0x0000000000000000000000000000000000000000000000000000000000000000",
      "blockNumber": "0x23a1b5e",
      "gasUsed": "0x6f10c",
      "effectiveGasPrice": "0x124f80",
      "blobGasUsed": "0x1a0d0",
      "from": "0x84d5e34ad1a91cf2ecad071a65948fa48f1b4216",
      "to": "0x099cc999dd431de6529fbb516e8c59ab0cecdde8",
      "contractAddress": null,
      "daFootprintGasScalar": "0x138",
      "l1BaseFeeScalar": "0x44d",
      "l1BlobBaseFee": "0x36f9b97",
      "l1BlobBaseFeeScalar": "0xa118b",
      "l1Fee": "0x261cbf4a0",
      "l1GasPrice": "0x3ecce2f5",
      "l1GasUsed": "0x1563"
    },
    {
      "status": "0x1",
      "cumulativeGasUsed": "0x3c1c8a",
      "logs": [],
      "logsBloom": "0x00000000000000000000000000000000000000000000000000000000000000000000000000000000000000000000000000000000000000000000000000000000000000000000000000000000000000000000000000000000000000000000000000000000000000000000000000000000000000000000000000000000000000000000000000000000000000000000000000000000000000000000000000000000000000000000000000000000000000000000000000000000000000000000000000000000000000000000000000000000000000000000000000000000000000000000000000000000000000000000000000000000000000000000000000000000",
      "type": "0x0",
      "transactionHash": "0xb0e0fd9877ba7417a7ef7f5ea53b79b462bf9bc09a8ea437938e57fb8f67ffce",
      "transactionIndex": "0xb",
      "blockHash": "0x0000000000000000000000000000000000000000000000000000000000000000",
      "blockNumber": "0x23a1b5e",
      "gasUsed": "0x5d95f",
      "effectiveGasPrice": "0x124f80",
      "blobGasUsed": "0x190f8",
      "from": "0x84d5e34ad1a91cf2ecad071a65948fa48f1b4216",
      "to": "0x099cc999dd431de6529fbb516e8c59ab0cecdde8",
      "contractAddress": null,
      "daFootprintGasScalar": "0x138",
      "l1BaseFeeScalar": "0x44d",
      "l1BlobBaseFee": "0x36f9b97",
      "l1BlobBaseFeeScalar": "0xa118b",
      "l1Fee": "0x261cbf4a0",
      "l1GasPrice": "0x3ecce2f5",
      "l1GasUsed": "0x149a"
    },
    {
      "status": "0x1",
      "cumulativeGasUsed": "0x4214c4",
      "logs": [],
      "logsBloom": "0x00000000000000000000000000000000000000000000000000000000000000000000000000000000000000000000000000000000000000000000000000000000000000000000000000000000000000000000000000000000000000000000000000000000000000000000000000000000000000000000000000000000000000000000000000000000000000000000000000000000000000000000000000000000000000000000000000000000000000000000000000000000000000000000000000000000000000000000000000000000000000000000000000000000000000000000000000000000000000000000000000000000000000000000000000000000",
      "type": "0x0",
      "transactionHash": "0x0e2693780ca424c4b3e9d7d7706cc89fea731b31cb9936775fbe458c08384b70",
      "transactionIndex": "0xc",
      "blockHash": "0x0000000000000000000000000000000000000000000000000000000000000000",
      "blockNumber": "0x23a1b5e",
      "gasUsed": "0x5f83a",
      "effectiveGasPrice": "0x124f80",
      "blobGasUsed": "0x1ba68",
      "from": "0x84d5e34ad1a91cf2ecad071a65948fa48f1b4216",
      "to": "0x099cc999dd431de6529fbb516e8c59ab0cecdde8",
      "contractAddress": null,
      "daFootprintGasScalar": "0x138",
      "l1BaseFeeScalar": "0x44d",
      "l1BlobBaseFee": "0x36f9b97",
      "l1BlobBaseFeeScalar": "0xa118b",
      "l1Fee": "0x4c8fb330f",
      "l1GasPrice": "0x3ecce2f5",
      "l1GasUsed": "0x16b1"
    },
    {
      "status": "0x1",
      "cumulativeGasUsed": "0x479e24",
      "logs": [],
      "logsBloom": "0x00000000000000000000000000000000000000000000000000000000000000000000000000000000000000000000000000000000000000000000000000000000000000000000000000000000000000000000000000000000000000000000000000000000000000000000000000000000000000000000000000000000000000000000000000000000000000000000000000000000000000000000000000000000000000000000000000000000000000000000000000000000000000000000000000000000000000000000000000000000000000000000000000000000000000000000000000000000000000000000000000000000000000000000000000000000",
      "type": "0x0",
      "transactionHash": "0x3030480abe6b8a30526eebbbb1f2d536ecd25e6dceda34bdb11c343b37eace44",
      "transactionIndex": "0xd",
      "blockHash": "0x0000000000000000000000000000000000000000000000000000000000000000",
      "blockNumber": "0x23a1b5e",
      "gasUsed": "0x58960",
      "effectiveGasPrice": "0x124f80",
      "blobGasUsed": "0x14b80",
      "from": "0x84d5e34ad1a91cf2ecad071a65948fa48f1b4216",
      "to": "0x099cc999dd431de6529fbb516e8c59ab0cecdde8",
      "contractAddress": null,
      "daFootprintGasScalar": "0x138",
      "l1BaseFeeScalar": "0x44d",
      "l1BlobBaseFee": "0x36f9b97",
      "l1BlobBaseFeeScalar": "0xa118b",
      "l1Fee": "0x4c8fb330f",
      "l1GasPrice": "0x3ecce2f5",
      "l1GasUsed": "0x110c"
    },
    {
      "status": "0x1",
      "cumulativeGasUsed": "0x4d8104",
      "logs": [],
      "logsBloom": "0x00000000000000000000000000000000000000000000000000000000000000000000000000000000000000000000000000000000000000000000000000000000000000000000000000000000000000000000000000000000000000000000000000000000000000000000000000000000000000000000000000000000000000000000000000000000000000000000000000000000000000000000000000000000000000000000000000000000000000000000000000000000000000000000000000000000000000000000000000000000000000000000000000000000000000000000000000000000000000000000000000000000000000000000000000000000",
      "type": "0x0",
      "transactionHash": "0x7ca14bb3f6207609724dd9dbe974266c76c326ccf0570f66fb89c83b8e9d11d6",
      "transactionIndex": "0xe",
      "blockHash": "0x0000000000000000000000000000000000000000000000000000000000000000",
      "blockNumber": "0x23a1b5e",
      "gasUsed": "0x5e2e0",
      "effectiveGasPrice": "0x124f80",
      "blobGasUsed": "0x15b58",
      "from": "0x84d5e34ad1a91cf2ecad071a65948fa48f1b4216",
      "to": "0x099cc999dd431de6529fbb516e8c59ab0cecdde8",
      "contractAddress": null,
      "daFootprintGasScalar": "0x138",
      "l1BaseFeeScalar": "0x44d",
      "l1BlobBaseFee": "0x36f9b97",
      "l1BlobBaseFeeScalar": "0xa118b",
      "l1Fee": "0x4c8fb330f",
      "l1GasPrice": "0x3ecce2f5",
      "l1GasUsed": "0x11d5"
    },
    {
      "status": "0x1",
      "cumulativeGasUsed": "0x530d51",
      "logs": [],
      "logsBloom": "0x00000000000000000000000000000000000000000000000000000000000000000000000000000000000000000000000000000000000000000000000000000000000000000000000000000000000000000000000000000000000000000000000000000000000000000000000000000000000000000000000000000000000000000000000000000000000000000000000000000000000000000000000000000000000000000000000000000000000000000000000000000000000000000000000000000000000000000000000000000000000000000000000000000000000000000000000000000000000000000000000000000000000000000000000000000000",
      "type": "0x0",
      "transactionHash": "0x6431fc1bc8ee6f2a11f0d4a8cae92cb12a0c17e68a5bba0fc467223ed8a1e65c",
      "transactionIndex": "0xf",
      "blockHash": "0x0000000000000000000000000000000000000000000000000000000000000000",
      "blockNumber": "0x23a1b5e",
      "gasUsed": "0x58c4d",
      "effectiveGasPrice": "0x124f80",
      "blobGasUsed": "0x14b80",
      "from": "0x84d5e34ad1a91cf2ecad071a65948fa48f1b4216",
      "to": "0x099cc999dd431de6529fbb516e8c59ab0cecdde8",
      "contractAddress": null,
      "daFootprintGasScalar": "0x138",
      "l1BaseFeeScalar": "0x44d",
      "l1BlobBaseFee": "0x36f9b97",
      "l1BlobBaseFeeScalar": "0xa118b",
      "l1Fee": "0x4c8fb330f",
      "l1GasPrice": "0x3ecce2f5",
      "l1GasUsed": "0x110c"
    },
    {
      "status": "0x1",
      "cumulativeGasUsed": "0x59af48",
      "logs": [],
      "logsBloom": "0x00000000000000000000000000000000000000000000000000000000000000000000000000000000000000000000000000000000000000000000000000000000000000000000000000000000000000000000000000000000000000000000000000000000000000000000000000000000000000000000000000000000000000000000000000000000000000000000000000000000000000000000000000000000000000000000000000000000000000000000000000000000000000000000000000000000000000000000000000000000000000000000000000000000000000000000000000000000000000000000000000000000000000000000000000000000",
      "type": "0x0",
      "transactionHash": "0xa95e36678d7d6aa097092601cc3d98cb101650938e936f3bb0ef381af43a7de7",
      "transactionIndex": "0x10",
      "blockHash": "0x0000000000000000000000000000000000000000000000000000000000000000",
      "blockNumber": "0x23a1b5e",
      "gasUsed": "0x6a1f7",
      "effectiveGasPrice": "0x124f80",
      "blobGasUsed": "0x16788",
      "from": "0x84d5e34ad1a91cf2ecad071a65948fa48f1b4216",
      "to": "0x099cc999dd431de6529fbb516e8c59ab0cecdde8",
      "contractAddress": null,
      "daFootprintGasScalar": "0x138",
      "l1BaseFeeScalar": "0x44d",
      "l1BlobBaseFee": "0x36f9b97",
      "l1BlobBaseFeeScalar": "0xa118b",
      "l1Fee": "0x4c8fb330f",
      "l1GasPrice": "0x3ecce2f5",
      "l1GasUsed": "0x1275"
    },
    {
      "status": "0x1",
      "cumulativeGasUsed": "0x5f3cf7",
      "logs": [],
      "logsBloom": "0x00000000000000000000000000000000000000000000000000000000000000000000000000000000000000000000000000000000000000000000000000000000000000000000000000000000000000000000000000000000000000000000000000000000000000000000000000000000000000000000000000000000000000000000000000000000000000000000000000000000000000000000000000000000000000000000000000000000000000000000000000000000000000000000000000000000000000000000000000000000000000000000000000000000000000000000000000000000000000000000000000000000000000000000000000000000",
      "type": "0x0",
      "transactionHash": "0x0c0a4cca05ec044c48482db099caaa98943dbbabf23c9408d39b0689c295eb44",
      "transactionIndex": "0x11",
      "blockHash": "0x0000000000000000000000000000000000000000000000000000000000000000",
      "blockNumber": "0x23a1b5e",
      "gasUsed": "0x58daf",
      "effectiveGasPrice": "0x124f80",
      "blobGasUsed": "0x11988",
      "from": "0x84d5e34ad1a91cf2ecad071a65948fa48f1b4216",
      "to": "0x099cc999dd431de6529fbb516e8c59ab0cecdde8",
      "contractAddress": null,
      "daFootprintGasScalar": "0x138",
      "l1BaseFeeScalar": "0x44d",
      "l1BlobBaseFee": "0x36f9b97",
      "l1BlobBaseFeeScalar": "0xa118b",
      "l1Fee": "0x4c8fb330f",
      "l1GasPrice": "0x3ecce2f5",
      "l1GasUsed": "0xe7c"
    },
    {
      "status": "0x1",
      "cumulativeGasUsed": "0x650cc8",
      "logs": [],
      "logsBloom": "0x00000000000000000000000000000000000000000000000000000000000000000000000000000000000000000000000000000000000000000000000000000000000000000000000000000000000000000000000000000000000000000000000000000000000000000000000000000000000000000000000000000000000000000000000000000000000000000000000000000000000000000000000000000000000000000000000000000000000000000000000000000000000000000000000000000000000000000000000000000000000000000000000000000000000000000000000000000000000000000000000000000000000000000000000000000000",
      "type": "0x0",
      "transactionHash": "0x18dbce57b56928d813d783461e53abf1b27c1fa2141adcdb2a1a546a85540d28",
      "transactionIndex": "0x12",
      "blockHash": "0x0000000000000000000000000000000000000000000000000000000000000000",
      "blockNumber": "0x23a1b5e",
      "gasUsed": "0x5cfd1",
      "effectiveGasPrice": "0x124f80",
      "blobGasUsed": "0x189a8",
      "from": "0x84d5e34ad1a91cf2ecad071a65948fa48f1b4216",
      "to": "0x099cc999dd431de6529fbb516e8c59ab0cecdde8",
      "contractAddress": null,
      "daFootprintGasScalar": "0x138",
      "l1BaseFeeScalar": "0x44d",
      "l1BlobBaseFee": "0x36f9b97",
      "l1BlobBaseFeeScalar": "0xa118b",
      "l1Fee": "0x4c8fb330f",
      "l1GasPrice": "0x3ecce2f5",
      "l1GasUsed": "0x143c"
    },
    {
      "status": "0x1",
      "cumulativeGasUsed": "0x6b46b2",
      "logs": [],
      "logsBloom": "0x00000000000000000000000000000000000000000000000000000000000000000000000000000000000000000000000000000000000000000000000000000000000000000000000000000000000000000000000000000000000000000000000000000000000000000000000000000000000000000000000000000000000000000000000000000000000000000000000000000000000000000000000000000000000000000000000000000000000000000000000000000000000000000000000000000000000000000000000000000000000000000000000000000000000000000000000000000000000000000000000000000000000000000000000000000000",
      "type": "0x0",
      "transactionHash": "0xc254999f58f2f0643bc3d5c23d1af23cc7b1b85be164e4622baa2c78de6df72a",
      "transactionIndex": "0x13",
      "blockHash": "0x0000000000000000000000000000000000000000000000000000000000000000",
      "blockNumber": "0x23a1b5e",
      "gasUsed": "0x639ea",
      "effectiveGasPrice": "0x124f80",
      "blobGasUsed": "0x17148",
      "from": "0x84d5e34ad1a91cf2ecad071a65948fa48f1b4216",
      "to": "0x099cc999dd431de6529fbb516e8c59ab0cecdde8",
      "contractAddress": null,
      "daFootprintGasScalar": "0x138",
      "l1BaseFeeScalar": "0x44d",
      "l1BlobBaseFee": "0x36f9b97",
      "l1BlobBaseFeeScalar": "0xa118b",
      "l1Fee": "0x4c8fb330f",
      "l1GasPrice": "0x3ecce2f5",
      "l1GasUsed": "0x12fb"
    },
    {
      "status": "0x1",
      "cumulativeGasUsed": "0x70ff53",
      "logs": [],
      "logsBloom": "0x00000000000000000000000000000000000000000000000000000000000000000000000000000000000000000000000000000000000000000000000000000000000000000000000000000000000000000000000000000000000000000000000000000000000000000000000000000000000000000000000000000000000000000000000000000000000000000000000000000000000000000000000000000000000000000000000000000000000000000000000000000000000000000000000000000000000000000000000000000000000000000000000000000000000000000000000000000000000000000000000000000000000000000000000000000000",
      "type": "0x0",
      "transactionHash": "0xcab309cc296bacd58bccfe4673766da9cff833538395d631a03f6fda7f008197",
      "transactionIndex": "0x14",
      "blockHash": "0x0000000000000000000000000000000000000000000000000000000000000000",
      "blockNumber": "0x23a1b5e",
      "gasUsed": "0x5b8a1",
      "effectiveGasPrice": "0x124f80",
      "blobGasUsed": "0x168c0",
      "from": "0x84d5e34ad1a91cf2ecad071a65948fa48f1b4216",
      "to": "0x099cc999dd431de6529fbb516e8c59ab0cecdde8",
      "contractAddress": null,
      "daFootprintGasScalar": "0x138",
      "l1BaseFeeScalar": "0x44d",
      "l1BlobBaseFee": "0x36f9b97",
      "l1BlobBaseFeeScalar": "0xa118b",
      "l1Fee": "0x4c8fb330f",
      "l1GasPrice": "0x3ecce2f5",
      "l1GasUsed": "0x1283"
    },
    {
      "status": "0x1",
      "cumulativeGasUsed": "0x76f5f1",
      "logs": [],
      "logsBloom": "0x00000000000000000000000000000000000000000000000000000000000000000000000000000000000000000000000000000000000000000000000000000000000000000000000000000000000000000000000000000000000000000000000000000000000000000000000000000000000000000000000000000000000000000000000000000000000000000000000000000000000000000000000000000000000000000000000000000000000000000000000000000000000000000000000000000000000000000000000000000000000000000000000000000000000000000000000000000000000000000000000000000000000000000000000000000000",
      "type": "0x0",
      "transactionHash": "0xc99402337697819ff26482ec99b7cbbd37288ddce6a3e003e34c8b79563c779d",
      "transactionIndex": "0x15",
      "blockHash": "0x0000000000000000000000000000000000000000000000000000000000000000",
      "blockNumber": "0x23a1b5e",
      "gasUsed": "0x5f69e",
      "effectiveGasPrice": "0x124f80",
      "blobGasUsed": "0x1a208",
      "from": "0x84d5e34ad1a91cf2ecad071a65948fa48f1b4216",
      "to": "0x099cc999dd431de6529fbb516e8c59ab0cecdde8",
      "contractAddress": null,
      "daFootprintGasScalar": "0x138",
      "l1BaseFeeScalar": "0x44d",
      "l1BlobBaseFee": "0x36f9b97",
      "l1BlobBaseFeeScalar": "0xa118b",
      "l1Fee": "0x4c8fb330f",
      "l1GasPrice": "0x3ecce2f5",
      "l1GasUsed": "0x1570"
    },
    {
      "status": "0x1",
      "cumulativeGasUsed": "0x7c67ba",
      "logs": [],
      "logsBloom": "0x00000000000000000000000000000000000000000000000000000000000000000000000000000000000000000000000000000000000000000000000000000000000000000000000000000000000000000000000000000000000000000000000000000000000000000000000000000000000000000000000000000000000000000000000000000000000000000000000000000000000000000000000000000000000000000000000000000000000000000000000000000000000000000000000000000000000000000000000000000000000000000000000000000000000000000000000000000000000000000000000000000000000000000000000000000000",
      "type": "0x0",
      "transactionHash": "0x09f32028dca20be201a846348add3fbc82a2d26762013e7202aecb758720f719",
      "transactionIndex": "0x16",
      "blockHash": "0x0000000000000000000000000000000000000000000000000000000000000000",
      "blockNumber": "0x23a1b5e",
      "gasUsed": "0x571c9",
      "effectiveGasPrice": "0x124f80",
      "blobGasUsed": "0x10e90",
      "from": "0x84d5e34ad1a91cf2ecad071a65948fa48f1b4216",
      "to": "0x099cc999dd431de6529fbb516e8c59ab0cecdde8",
      "contractAddress": null,
      "daFootprintGasScalar": "0x138",
      "l1BaseFeeScalar": "0x44d",
      "l1BlobBaseFee": "0x36f9b97",
      "l1BlobBaseFeeScalar": "0xa118b",
      "l1Fee": "0x4c8fb330f",
      "l1GasPrice": "0x3ecce2f5",
      "l1GasUsed": "0xde9"
    },
    {
      "status": "0x1",
      "cumulativeGasUsed": "0x82d789",
      "logs": [],
      "logsBloom": "0x00000000000000000000000000000000000000000000000000000000000000000000000000000000000000000000000000000000000000000000000000000000000000000000000000000000000000000000000000000000000000000000000000000000000000000000000000000000000000000000000000000000000000000000000000000000000000000000000000000000000000000000000000000000000000000000000000000000000000000000000000000000000000000000000000000000000000000000000000000000000000000000000000000000000000000000000000000000000000000000000000000000000000000000000000000000",
      "type": "0x0",
      "transactionHash": "0xd9a10b1c4b2c521d69a489bed48fef8a3806c93281dfc694627a2613db0cc47c",
      "transactionIndex": "0x17",
      "blockHash": "0x0000000000000000000000000000000000000000000000000000000000000000",
      "blockNumber": "0x23a1b5e",
      "gasUsed": "0x66fcf",
      "effectiveGasPrice": "0x124f80",
      "blobGasUsed": "0x1a820",
      "from": "0x84d5e34ad1a91cf2ecad071a65948fa48f1b4216",
      "to": "0x099cc999dd431de6529fbb516e8c59ab0cecdde8",
      "contractAddress": null,
      "daFootprintGasScalar": "0x138",
      "l1BaseFeeScalar": "0x44d",
      "l1BlobBaseFee": "0x36f9b97",
      "l1BlobBaseFeeScalar": "0xa118b",
      "l1Fee": "0x4c8fb330f",
      "l1GasPrice": "0x3ecce2f5",
      "l1GasUsed": "0x15c0"
    },
    {
      "status": "0x1",
      "cumulativeGasUsed": "0x88d2a1",
      "logs": [],
      "logsBloom": "0x00000000000000000000000000000000000000000000000000000000000000000000000000000000000000000000000000000000000000000000000000000000000000000000000000000000000000000000000000000000000000000000000000000000000000000000000000000000000000000000000000000000000000000000000000000000000000000000000000000000000000000000000000000000000000000000000000000000000000000000000000000000000000000000000000000000000000000000000000000000000000000000000000000000000000000000000000000000000000000000000000000000000000000000000000000000",
      "type": "0x0",
      "transactionHash": "0x6426f06bff0504c6b1cabb2c206dbbb89da962ddfc440b69c11ef03c7e2e61eb",
      "transactionIndex": "0x18",
      "blockHash": "0x0000000000000000000000000000000000000000000000000000000000000000",
      "blockNumber": "0x23a1b5e",
      "gasUsed": "0x5fb18",
      "effectiveGasPrice": "0x124f80",
      "blobGasUsed": "0x16170",
      "from": "0x84d5e34ad1a91cf2ecad071a65948fa48f1b4216",
      "to": "0x099cc999dd431de6529fbb516e8c59ab0cecdde8",
      "contractAddress": null,
      "daFootprintGasScalar": "0x138",
      "l1BaseFeeScalar": "0x44d",
      "l1BlobBaseFee": "0x36f9b97",
      "l1BlobBaseFeeScalar": "0xa118b",
      "l1Fee": "0x4c8fb330f",
      "l1GasPrice": "0x3ecce2f5",
      "l1GasUsed": "0x1225"
    },
    {
      "status": "0x1",
      "cumulativeGasUsed": "0x8e71b3",
      "logs": [],
      "logsBloom": "0x00000000000000000000000000000000000000000000000000000000000000000000000000000000000000000000000000000000000000000000000000000000000000000000000000000000000000000000000000000000000000000000000000000000000000000000000000000000000000000000000000000000000000000000000000000000000000000000000000000000000000000000000000000000000000000000000000000000000000000000000000000000000000000000000000000000000000000000000000000000000000000000000000000000000000000000000000000000000000000000000000000000000000000000000000000000",
      "type": "0x0",
      "transactionHash": "0x42b967cddd1c2c29ff51b68255007d114e8940843cb2226b3e3324be4bf50c2b",
      "transactionIndex": "0x19",
      "blockHash": "0x0000000000000000000000000000000000000000000000000000000000000000",
      "blockNumber": "0x23a1b5e",
      "gasUsed": "0x59f12",
      "effectiveGasPrice": "0x124f80",
      "blobGasUsed": "0x13800",
      "from": "0x84d5e34ad1a91cf2ecad071a65948fa48f1b4216",
      "to": "0x099cc999dd431de6529fbb516e8c59ab0cecdde8",
      "contractAddress": null,
      "daFootprintGasScalar": "0x138",
      "l1BaseFeeScalar": "0x44d",
      "l1BlobBaseFee": "0x36f9b97",
      "l1BlobBaseFeeScalar": "0xa118b",
      "l1Fee": "0x4c8fb330f",
      "l1GasPrice": "0x3ecce2f5",
      "l1GasUsed": "0x1000"
    },
    {
      "status": "0x1",
      "cumulativeGasUsed": "0x941502",
      "logs": [],
      "logsBloom": "0x00000000000000000000000000000000000000000000000000000000000000000000000000000000000000000000000000000000000000000000000000000000000000000000000000000000000000000000000000000000000000000000000000000000000000000000000000000000000000000000000000000000000000000000000000000000000000000000000000000000000000000000000000000000000000000000000000000000000000000000000000000000000000000000000000000000000000000000000000000000000000000000000000000000000000000000000000000000000000000000000000000000000000000000000000000000",
      "type": "0x0",
      "transactionHash": "0x1e11e8b096cb9bda5839ddf850aca17ecb9844faf5fa3ee378e5d4dc0293541c",
      "transactionIndex": "0x1a",
      "blockHash": "0x0000000000000000000000000000000000000000000000000000000000000000",
      "blockNumber": "0x23a1b5e",
      "gasUsed": "0x5a34f",
      "effectiveGasPrice": "0x124f80",
      "blobGasUsed": "0x13e18",
      "from": "0x84d5e34ad1a91cf2ecad071a65948fa48f1b4216",
      "to": "0x099cc999dd431de6529fbb516e8c59ab0cecdde8",
      "contractAddress": null,
      "daFootprintGasScalar": "0x138",
      "l1BaseFeeScalar": "0x44d",
      "l1BlobBaseFee": "0x36f9b97",
      "l1BlobBaseFeeScalar": "0xa118b",
      "l1Fee": "0x370b422e9",
      "l1GasPrice": "0x3ecce2f5",
      "l1GasUsed": "0x1051"
    },
    {
      "status": "0x1",
      "cumulativeGasUsed": "0x99a88f",
      "logs": [],
      "logsBloom": "0x00000000000000000000000000000000000000000000000000000000000000000000000000000000000000000000000000000000000000000000000000000000000000000000000000000000000000000000000000000000000000000000000000000000000000000000000000000000000000000000000000000000000000000000000000000000000000000000000000000000000000000000000000000000000000000000000000000000000000000000000000000000000000000000000000000000000000000000000000000000000000000000000000000000000000000000000000000000000000000000000000000000000000000000000000000000",
      "type": "0x0",
      "transactionHash": "0x07be35f4acb4a649fabad2f825bac7fe024b4c7215c0c82c2e0270864c528625",
      "transactionIndex": "0x1b",
      "blockHash": "0x0000000000000000000000000000000000000000000000000000000000000000",
      "blockNumber": "0x23a1b5e",
      "gasUsed": "0x5938d",
      "effectiveGasPrice": "0x124f80",
      "blobGasUsed": "0x12e40",
      "from": "0x84d5e34ad1a91cf2ecad071a65948fa48f1b4216",
      "to": "0x099cc999dd431de6529fbb516e8c59ab0cecdde8",
      "contractAddress": null,
      "daFootprintGasScalar": "0x138",
      "l1BaseFeeScalar": "0x44d",
      "l1BlobBaseFee": "0x36f9b97",
      "l1BlobBaseFeeScalar": "0xa118b",
      "l1Fee": "0x370b422e9",
      "l1GasPrice": "0x3ecce2f5",
      "l1GasUsed": "0xf88"
    },
    {
      "status": "0x1",
      "cumulativeGasUsed": "0x9f6a77",
      "logs": [],
      "logsBloom": "0x00000000000000000000000000000000000000000000000000000000000000000000000000000000000000000000000000000000000000000000000000000000000000000000000000000000000000000000000000000000000000000000000000000000000000000000000000000000000000000000000000000000000000000000000000000000000000000000000000000000000000000000000000000000000000000000000000000000000000000000000000000000000000000000000000000000000000000000000000000000000000000000000000000000000000000000000000000000000000000000000000000000000000000000000000000000",
      "type": "0x0",
      "transactionHash": "0x13eeeca8b7c287f98c32f96b6ec63a31053bcd046b167dac7f227ff7dbdcd3dd",
      "transactionIndex": "0x1c",
      "blockHash": "0x0000000000000000000000000000000000000000000000000000000000000000",
      "blockNumber": "0x23a1b5e",
      "gasUsed": "0x5c1e8",
      "effectiveGasPrice": "0x124f80",
      "blobGasUsed": "0x11850",
      "from": "0x84d5e34ad1a91cf2ecad071a65948fa48f1b4216",
      "to": "0x099cc999dd431de6529fbb516e8c59ab0cecdde8",
      "contractAddress": null,
      "daFootprintGasScalar": "0x138",
      "l1BaseFeeScalar": "0x44d",
      "l1BlobBaseFee": "0x36f9b97",
      "l1BlobBaseFeeScalar": "0xa118b",
      "l1Fee": "0x370b422e9",
      "l1GasPrice": "0x3ecce2f5",
      "l1GasUsed": "0xe61"
    },
    {
      "status": "0x1",
      "cumulativeGasUsed": "0xa55f89",
      "logs": [],
      "logsBloom": "0x00000000000000000000000000000000000000000000000000000000000000000000000000000000000000000000000000000000000000000000000000000000000000000000000000000000000000000000000000000000000000000000000000000000000000000000000000000000000000000000000000000000000000000000000000000000000000000000000000000000000000000000000000000000000000000000000000000000000000000000000000000000000000000000000000000000000000000000000000000000000000000000000000000000000000000000000000000000000000000000000000000000000000000000000000000000",
      "type": "0x0",
      "transactionHash": "0xfaa352347b84000578339b03f76c0be583e2b9f826792b19da5683a4cbc23e14",
      "transactionIndex": "0x1d",
      "blockHash": "0x0000000000000000000000000000000000000000000000000000000000000000",
      "blockNumber": "0x23a1b5e",
      "gasUsed": "0x5f512",
      "effectiveGasPrice": "0x124f80",
      "blobGasUsed": "0x18738",
      "from": "0x84d5e34ad1a91cf2ecad071a65948fa48f1b4216",
      "to": "0x099cc999dd431de6529fbb516e8c59ab0cecdde8",
      "contractAddress": null,
      "daFootprintGasScalar": "0x138",
      "l1BaseFeeScalar": "0x44d",
      "l1BlobBaseFee": "0x36f9b97",
      "l1BlobBaseFeeScalar": "0xa118b",
      "l1Fee": "0x370b422e9",
      "l1GasPrice": "0x3ecce2f5",
      "l1GasUsed": "0x1414"
    },
    {
      "status": "0x1",
      "cumulativeGasUsed": "0xabaf81",
      "logs": [],
      "logsBloom": "0x00000000000000000000000000000000000000000000000000000000000000000000000000000000000000000000000000000000000000000000000000000000000000000000000000000000000000000000000000000000000000000000000000000000000000000000000000000000000000000000000000000000000000000000000000000000000000000000000000000000000000000000000000000000000000000000000000000000000000000000000000000000000000000000000000000000000000000000000000000000000000000000000000000000000000000000000000000000000000000000000000000000000000000000000000000000",
      "type": "0x0",
      "transactionHash": "0x09b61d721ea211766bbae53812931c0c040896f1ec075b21573ee068e2f19f88",
      "transactionIndex": "0x1e",
      "blockHash": "0x0000000000000000000000000000000000000000000000000000000000000000",
      "blockNumber": "0x23a1b5e",
      "gasUsed": "0x64ff8",
      "effectiveGasPrice": "0x124f80",
      "blobGasUsed": "0x1b588",
      "from": "0x84d5e34ad1a91cf2ecad071a65948fa48f1b4216",
      "to": "0x099cc999dd431de6529fbb516e8c59ab0cecdde8",
      "contractAddress": null,
      "daFootprintGasScalar": "0x138",
      "l1BaseFeeScalar": "0x44d",
      "l1BlobBaseFee": "0x36f9b97",
      "l1BlobBaseFeeScalar": "0xa118b",
      "l1Fee": "0x370b422e9",
      "l1GasPrice": "0x3ecce2f5",
      "l1GasUsed": "0x167c"
    },
    {
      "status": "0x1",
      "cumulativeGasUsed": "0xb4c43c",
      "logs": [],
      "logsBloom": "0x00000000000000000000000000000000000000000000000000000000000000000000000000000000000000000000000000000000000000000000000000000000000000000000000000000000000000000000000000000000000000000000000000000000000000000000000000000000000000000000000000000000000000000000000000000000000000000000000000000000000000000000000000000000000000000000000000000000000000000000000000000000000000000000000000000000000000000000000000000000000000000000000000000000000000000000000000000000000000000000000000000000000000000000000000000000",
      "type": "0x0",
      "transactionHash": "0xc333d02ab36ab2c749b871be71a7bc08daec076dedd3b33bd98d7338e01e4f81",
      "transactionIndex": "0x20",
      "blockHash": "0x0000000000000000000000000000000000000000000000000000000000000000",
      "blockNumber": "0x23a1b5e",
      "gasUsed": "0x61e1d",
      "effectiveGasPrice": "0x124f80",
      "blobGasUsed": "0x131e8",
      "from": "0x84d5e34ad1a91cf2ecad071a65948fa48f1b4216",
      "to": "0x099cc999dd431de6529fbb516e8c59ab0cecdde8",
      "contractAddress": null,
      "daFootprintGasScalar": "0x138",
      "l1BaseFeeScalar": "0x44d",
      "l1BlobBaseFee": "0x36f9b97",
      "l1BlobBaseFeeScalar": "0xa118b",
      "l1Fee": "0x370b422e9",
      "l1GasPrice": "0x3ecce2f5",
      "l1GasUsed": "0xfb0"
    }
  ],
  "libraries": [],
  "pending": [],
  "returns": {},
  "timestamp": 1770493338475,
  "chain": 84532,
  "commit": "bfb154c"
}