{
  "transactions": [
    {
      "hash": "0x4d89d14496de4a529b00c58cb29569718aa217bf75606e498344c9f2e687776e",
      "transactionType": "CALL",
      "contractName": "AnonsDescriptor",
      "contractAddress": "0x099cc999dd431de6529fbb516e8c59ab0cecdde8",
      "function": "addManyBodies(bytes[])",
      "arguments": [
        "[0x151720090e9f019f0ca3019f019f0ca3019f019f01a3019f0aa3019f029f0100019f09a3019f029f0100019f09a3019f029f0100019f09a3019f029f0100019f09a3019f029f0100019f09a3019f029f0100019f09a3019f02a301000ba3, 0x151720090e7101710ca4017101710ca40171017101a401710aa4017102710100017109a4017102710100017109a4017102710100017109a4017102710100017109a4017102710100017109a4017102710100017109a4017102a401000ba4, 0x151720090e7001700ca5017001700ca50170017001a501700aa5017002700100017009a5017002700100017009a5017002700100017009a5017002700100017009a5017002700100017009a5017002700100017009a5017002a501000ba5, 0x151720090e9f019f0c9d019f019f0c9d019f019f019d019f0a9d019f029f0100019f099d019f029f0100019f099d019f029f0100019f099d019f029f0100019f099d019f029f0100019f099d019f029f0100019f099d019f029d01000b9d, 0x151720090eac01ac0c9e01ac01ac0c9e01ac01ac019e01ac0a9e01ac02ac010001ac099e01ac02ac010001ac099e01ac02ac010001ac099e01ac02ac010001ac099e01ac02ac010001ac099e01ac02ac010001ac099e01ac029e01000b9e]"
      ],
      "transaction": {
        "from": "0x84d5e34ad1a91cf2ecad071a65948fa48f1b4216",
        "to": "0x099cc999dd431de6529fbb516e8c59ab0cecdde8",
        "gas": "0x9ad70",
        "value": "0x0",
        "input": "0x8a85a1e80000000000000000000000000000000000000000000000000000000000000020000000000000000000000000000000000000000000000000000000000000000500000000000000000000000000000000000000000000000000000000000000a0000000000000000000000000000000000000000000000000000000000000012000000000000000000000000000000000000000000000000000000000000001a0000000000000000000000000000000000000000000000000000000000000022000000000000000000000000000000000000000000000000000000000000002a0000000000000000000000000000000000000000000000000000000000000005e151720090e9f019f0ca3019f019f0ca3019f019f01a3019f0aa3019f029f0100019f09a3019f029f0100019f09a3019f029f0100019f09a3019f029f0100019f09a3019f029f0100019f09a3019f029f0100019f09a3019f02a301000ba30000000000000000000000000000000000000000000000000000000000000000005e151720090e7101710ca4017101710ca40171017101a401710aa4017102710100017109a4017102710100017109a4017102710100017109a4017102710100017109a4017102710100017109a4017102710100017109a4017102a401000ba40000000000000000000000000000000000000000000000000000000000000000005e151720090e7001700ca5017001700ca50170017001a501700aa5017002700100017009a5017002700100017009a5017002700100017009a5017002700100017009a5017002700100017009a5017002700100017009a5017002a501000ba50000000000000000000000000000000000000000000000000000000000000000005e151720090e9f019f0c9d019f019f0c9d019f019f019d019f0a9d019f029f0100019f099d019f029f0100019f099d019f029f0100019f099d019f029f0100019f099d019f029f0100019f099d019f029f0100019f099d019f029d01000b9d0000000000000000000000000000000000000000000000000000000000000000005e151720090eac01ac0c9e01ac01ac0c9e01ac01ac019e01ac0a9e01ac02ac010001ac099e01ac02ac010001ac099e01ac02ac010001ac099e01ac02ac010001ac099e01ac02ac010001ac099e01ac02ac010001ac099e01ac029e01000b9e0000",
        "nonce": "0x4d",
        "chainId": "0x14a34"
      },
      "additionalContracts": [
        {
          "transactionType": "CREATE",
          "contractName": null,
          "address": "0x2595ab2ee5293ebb7244f5b2f1277fcc29f70de8",
          "initCode": "0x61005f80600c6000396000f300151720090e9f019f0ca3019f019f0ca3019f019f01a3019f0aa3019f029f0100019f09a3019f029f0100019f09a3019f029f0100019f09a3019f029f0100019f09a3019f029f0100019f09a3019f029f0100019f09a3019f02a301000ba3"
        },
        {
          "transactionType": "CREATE",
          "contractName": null,
          "address": "0xe91722fbd28b28e61ed933ab9bd409c5cfe33f2b",
          "initCode": "0x61005f80600c6000396000f300151720090e7101710ca4017101710ca40171017101a401710aa4017102710100017109a4017102710100017109a4017102710100017109a4017102710100017109a4017102710100017109a4017102710100017109a4017102a401000ba4"
        },
        {
          "transactionType": "CREATE",
          "contractName": null,
          "address": "0xe41214019f65afb01953082a86b082bba248cf8e",
          "initCode": "0x61005f80600c6000396000f300151720090e7001700ca5017001700ca50170017001a501700aa5017002700100017009a5017002700100017009a5017002700100017009a5017002700100017009a5017002700100017009a5017002700100017009a5017002a501000ba5"
        },
        {
          "transactionType": "CREATE",
          "contractName": null,
          "address": "0xa1a6f85ee208a33c0e232c48c453aa31f1131daf",
          "initCode": "0x61005f80600c6000396000f300151720090e9f019f0c9d019f019f0c9d019f019f019d019f0a9d019f029f0100019f099d019f029f0100019f099d019f029f0100019f099d019f029f0100019f099d019f029f0100019f099d019f029f0100019f099d019f029d01000b9d"
        },
        {
          "transactionType": "CREATE",
          "contractName": null,
          "address": "0x9fa1009b54e670d4837737a1d3a0be9206afb060",
          "initCode": "0x61005f80600c6000396000f300151720090eac01ac0c9e01ac01ac0c9e01ac01ac019e01ac0a9e01ac02ac010001ac099e01ac02ac010001ac099e01ac02ac010001ac099e01ac02ac010001ac099e01ac02ac010001ac099e01ac02ac010001ac099e01ac029e01000b9e"
        }
      ],
      "isFixedGasLimit": false
    },
    {
      "hash": "0x1cf2c2d727c164480f61e9714861d40f21052e458bb3d9ad0fc03442c9c10ed0",
      "transactionType": "CALL",
      "contractName": "AnonsDescriptor",
      "contractAddress": "0x099cc999dd431de6529fbb516e8c59ab0cecdde8",
      "function": "addManyBodies(bytes[])",
      "arguments": [
        "[0x151720090e7001700ca6017001700ca60170017001a601700aa6017002700100017009a6017002700100017009a6017002700100017009a6017002700100017009a6017002700100017009a6017002700100017009a6017002a601000ba6, 0x151720090e7101710ca7017101710ca70171017101a701710aa7017102710100017109a7017102710100017109a7017102710100017109a7017102710100017109a7017102710100017109a7017102710100017109a7017102a701000ba7, 0x151720090e7201720c9a017201720c9a01720172019a01720a9a0172027201000172099a0172027201000172099a0172027201000172099a0172027201000172099a0172027201000172099a0172027201000172099a0172029a01000b9a, 0x151720090eb001b00ca801b001b00ca801b001b001a801b00aa801b002b0010001b009a801b002b0010001b009a801b002b0010001b009a801b002b0010001b009a801b002b0010001b009a801b002b0010001b009a801b002a801000ba8, 0x151720090eaf01af0ca901af01af0ca901af01af01a901af0aa901af02af010001af09a901af02af010001af09a901af02af010001af09a901af02af010001af09a901af02af010001af09a901af02af010001af09a901af02a901000ba9]"
      ],
      "transaction": {
        "from": "0x84d5e34ad1a91cf2ecad071a65948fa48f1b4216",
        "to": "0x099cc999dd431de6529fbb516e8c59ab0cecdde8",
        "gas": "0x8c789",
        "value": "0x0",
        "input": "0x8a85a1e80000000000000000000000000000000000000000000000000000000000000020000000000000000000000000000000000000000000000000000000000000000500000000000000000000000000000000000000000000000000000000000000a0000000000000000000000000000000000000000000000000000000000000012000000000000000000000000000000000000000000000000000000000000001a0000000000000000000000000000000000000000000000000000000000000022000000000000000000000000000000000000000000000000000000000000002a0000000000000000000000000000000000000000000000000000000000000005e151720090e7001700ca6017001700ca60170017001a601700aa6017002700100017009a6017002700100017009a6017002700100017009a6017002700100017009a6017002700100017009a6017002700100017009a6017002a601000ba60000000000000000000000000000000000000000000000000000000000000000005e151720090e7101710ca7017101710ca70171017101a701710aa7017102710100017109a7017102710100017109a7017102710100017109a7017102710100017109a7017102710100017109a7017102710100017109a7017102a701000ba70000000000000000000000000000000000000000000000000000000000000000005e151720090e7201720c9a017201720c9a01720172019a01720a9a0172027201000172099a0172027201000172099a0172027201000172099a0172027201000172099a0172027201000172099a0172027201000172099a0172029a01000b9a0000000000000000000000000000000000000000000000000000000000000000005e151720090eb001b00ca801b001b00ca801b001b001a801b00aa801b002b0010001b009a801b002b0010001b009a801b002b0010001b009a801b002b0010001b009a801b002b0010001b009a801b002b0010001b009a801b002a801000ba80000000000000000000000000000000000000000000000000000000000000000005e151720090eaf01af0ca901af01af0ca901af01af01a901af0aa901af02af010001af09a901af02af010001af09a901af02af010001af09a901af02af010001af09a901af02af010001af09a901af02af010001af09a901af02a901000ba90000",
        "nonce": "0x4e",
        "chainId": "0x14a34"
      },
      "additionalContracts": [
        {
          "transactionType": "CREATE",
          "contractName": null,
          "address": "0x76a9043279deec1d99cc7667a406eb7d67335e59",
          "initCode": "0x61005f80600c6000396000f300151720090e7001700ca6017001700ca60170017001a601700aa6017002700100017009a6017002700100017009a6017002700100017009a6017002700100017009a6017002700100017009a6017002700100017009a6017002a601000ba6"
        },
        {
          "transactionType": "CREATE",
          "contractName": null,
          "address": "0x0516debd42443a9996ec26adce8b568974602ff2",
          "initCode": "0x61005f80600c6000396000f300151720090e7101710ca7017101710ca70171017101a701710aa7017102710100017109a7017102710100017109a7017102710100017109a7017102710100017109a7017102710100017109a7017102710100017109a7017102a701000ba7"
        },
        {
          "transactionType": "CREATE",
          "contractName": null,
          "address": "0xbd96d7e32ae9b0fb74e5668732712ff82c759db1",
          "initCode": "0x61005f80600c6000396000f300151720090e7201720c9a017201720c9a01720172019a01720a9a0172027201000172099a0172027201000172099a0172027201000172099a0172027201000172099a0172027201000172099a0172027201000172099a0172029a01000b9a"
        },
        {
          "transactionType": "CREATE",
          "contractName": null,
          "address": "0x8cba5cdacc6e1bdaec00bec64c514aa20c33b6c9",
          "initCode": "0x61005f80600c6000396000f300151720090eb001b00ca801b001b00ca801b001b001a801b00aa801b002b0010001b009a801b002b0010001b009a801b002b0010001b009a801b002b0010001b009a801b002b0010001b009a801b002b0010001b009a801b002a801000ba8"
        },
        {
          "transactionType": "CREATE",
          "contractName": null,
          "address": "0xec07844ce53db05ed4b97dcaf817eeb9713b6e12",
          "initCode": "0x61005f80600c6000396000f300151720090eaf01af0ca901af01af0ca901af01af01a901af0aa901af02af010001af09a901af02af010001af09a901af02af010001af09a901af02af010001af09a901af02af010001af09a901af02af010001af09a901af02a901000ba9"
        }
      ],
      "isFixedGasLimit": false
    },
    {
      "hash": "0x0155ba64b0ef6ae4b0744ade9166f22cb93bc6b259b34eb182d0382d1188130b",
      "transactionType": "CALL",
      "contractName": "AnonsDescriptor",
      "contractAddress": "0x099cc999dd431de6529fbb516e8c59ab0cecdde8",
      "function": "addManyBodies(bytes[])",
      "arguments": [
        "[0x151720090eb101b10c9b01b101b10c9b01b101b1019b01b10a9b01b102b1010001b1099b01b102b1010001b1099b01b102b1010001b1099b01b102b1010001b1099b01b102b1010001b1099b01b102b1010001b1099b01b1029b01000b9b, 0x151720090ec701c70caa01c701c70caa01c701c701aa01c70aaa01c702c7010001c709aa01c702c7010001c709aa01c702c7010001c709aa01c702c7010001c709aa01c702c7010001c709aa01c702c7010001c709aa01c702aa01000baa, 0x151720090eae01ae0c9f01ae01ae0c9f01ae01ae019f01ae0a9f01ae02ae010001ae099f01ae02ae010001ae099f01ae02ae010001ae099f01ae02ae010001ae099f01ae02ae010001ae099f01ae02ae010001ae099f01ae029f01000b9f, 0x151720090ec701c70ca001c701c70ca001c701c701a001c70aa001c702c7010001c709a001c702c7010001c709a001c702c7010001c709a001c702c7010001c709a001c702c7010001c709a001c702c7010001c709a001c702a001000ba0, 0x151720090e7301730cab017301730cab0173017301ab01730aab017302730100017309ab017302730100017309ab017302730100017309ab017302730100017309ab017302730100017309ab017302730100017309ab017302ab01000bab]"
      ],
      "transaction": {
        "from": "0x84d5e34ad1a91cf2ecad071a65948fa48f1b4216",
        "to": "0x099cc999dd431de6529fbb516e8c59ab0cecdde8",
        "gas": "0x8c789",
        "value": "0x0",
        "input": "0x8a85a1e80000000000000000000000000000000000000000000000000000000000000020000000000000000000000000000000000000000000000000000000000000000500000000000000000000000000000000000000000000000000000000000000a0000000000000000000000000000000000000000000000000000000000000012000000000000000000000000000000000000000000000000000000000000001a0000000000000000000000000000000000000000000000000000000000000022000000000000000000000000000000000000000000000000000000000000002a0000000000000000000000000000000000000000000000000000000000000005e151720090eb101b10c9b01b101b10c9b01b101b1019b01b10a9b01b102b1010001b1099b01b102b1010001b1099b01b102b1010001b1099b01b102b1010001b1099b01b102b1010001b1099b01b102b1010001b1099b01b1029b01000b9b0000000000000000000000000000000000000000000000000000000000000000005e151720090ec701c70caa01c701c70caa01c701c701aa01c70aaa01c702c7010001c709aa01c702c7010001c709aa01c702c7010001c709aa01c702c7010001c709aa01c702c7010001c709aa01c702c7010001c709aa01c702aa01000baa0000000000000000000000000000000000000000000000000000000000000000005e151720090eae01ae0c9f01ae01ae0c9f01ae01ae019f01ae0a9f01ae02ae010001ae099f01ae02ae010001ae099f01ae02ae010001ae099f01ae02ae010001ae099f01ae02ae010001ae099f01ae02ae010001ae099f01ae029f01000b9f0000000000000000000000000000000000000000000000000000000000000000005e151720090ec701c70ca001c701c70ca001c701c701a001c70aa001c702c7010001c709a001c702c7010001c709a001c702c7010001c709a001c702c7010001c709a001c702c7010001c709a001c702c7010001c709a001c702a001000ba00000000000000000000000000000000000000000000000000000000000000000005e151720090e7301730cab017301730cab0173017301ab01730aab017302730100017309ab017302730100017309ab017302730100017309ab017302730100017309ab017302730100017309ab017302730100017309ab017302ab01000bab0000",
        "nonce": "0x4f",
        "chainId": "0x14a34"
      },
      "additionalContracts": [
        {
          "transactionType": "CREATE",
          "contractName": null,
          "address": "0xbcab27703abac8b58d61fbb44c52593c2b5b3fcc",
          "initCode": "0x61005f80600c6000396000f300151720090eb101b10c9b01b101b10c9b01b101b1019b01b10a9b01b102b1010001b1099b01b102b1010001b1099b01b102b1010001b1099b01b102b1010001b1099b01b102b1010001b1099b01b102b1010001b1099b01b1029b01000b9b"
        },
        {
          "transactionType": "CREATE",
          "contractName": null,
          "address": "0x205edcdfac97d140bcfe1d46239f92d9c33097eb",
          "initCode": "0x61005f80600c6000396000f300151720090ec701c70caa01c701c70caa01c701c701aa01c70aaa01c702c7010001c709aa01c702c7010001c709aa01c702c7010001c709aa01c702c7010001c709aa01c702c7010001c709aa01c702c7010001c709aa01c702aa01000baa"
        },
        {
          "transactionType": "CREATE",
          "contractName": null,
          "address": "0x5714ff86bc6cd426db18f3f137746215526bae6d",
          "initCode": "0x61005f80600c6000396000f300151720090eae01ae0c9f01ae01ae0c9f01ae01ae019f01ae0a9f01ae02ae010001ae099f01ae02ae010001ae099f01ae02ae010001ae099f01ae02ae010001ae099f01ae02ae010001ae099f01ae02ae010001ae099f01ae029f01000b9f"
        },
        {
          "transactionType": "CREATE",
          "contractName": null,
          "address": "0xaacbb3e29df67ef57306bbdfd93a06bf42025a1a",
          "initCode": "0x61005f80600c6000396000f300151720090ec701c70ca001c701c70ca001c701c701a001c70aa001c702c7010001c709a001c702c7010001c709a001c702c7010001c709a001c702c7010001c709a001c702c7010001c709a001c702c7010001c709a001c702a001000ba0"
        },
        {
          "transactionType": "CREATE",
          "contractName": null,
          "address": "0x8b8f9e1110695c19b0fcc490a7fd860dbc790f30",
          "initCode": "0x61005f80600c6000396000f300151720090e7301730cab017301730cab0173017301ab01730aab017302730100017309ab017302730100017309ab017302730100017309ab017302730100017309ab017302730100017309ab017302730100017309ab017302ab01000bab"
        }
      ],
      "isFixedGasLimit": false
    },
    {
      "hash": "0xb54ffb02bc60e6d3708f377e9934ba1d1303e0133dda1bd36ade7fe37033f4f4",
      "transactionType": "CALL",
      "contractName": "AnonsDescriptor",
      "contractAddress": "0x099cc999dd431de6529fbb516e8c59ab0cecdde8",
      "function": "addManyBodies(bytes[])",
      "arguments": [
        "[0x151720090eb101b10c7001b101b10c7001b101b1017001b10a7001b102b1010001b1097001b102b1010001b1097001b102b1010001b1097001b102b1010001b1097001b102b1010001b1097001b102b1010001b1097001b1027001000b70, 0x151720090eb301b30c7101b301b30c7101b301b3017101b30a7101b302b3010001b3097101b302b3010001b3097101b302b3010001b3097101b302b3010001b3097101b302b3010001b3097101b302b3010001b3097101b3027101000b71, 0x151720090eb401b40c7201b401b40c7201b401b4017201b40a7201b402b4010001b4097201b402b4010001b4097201b402b4010001b4097201b402b4010001b4097201b402b4010001b4097201b402b4010001b4097201b4027201000b72, 0x151720090e1601160ca1011601160ca10116011601a101160aa1011602160100011609a1011602160100011609a1011602160100011609a1011602160100011609a1011602160100011609a1011602160100011609a1011602a101000ba1, 0x151720090e8401840cac018401840cac0184018401ac01840aac018402840100018409ac018402840100018409ac018402840100018409ac018402840100018409ac018402840100018409ac018402840100018409ac018402ac01000bac]"
      ],
      "transaction": {
        "from": "0x84d5e34ad1a91cf2ecad071a65948fa48f1b4216",
        "to": "0x099cc999dd431de6529fbb516e8c59ab0cecdde8",
        "gas": "0x8c789",
        "value": "0x0",
        "input": "0x8a85a1e80000000000000000000000000000000000000000000000000000000000000020000000000000000000000000000000000000000000000000000000000000000500000000000000000000000000000000000000000000000000000000000000a0000000000000000000000000000000000000000000000000000000000000012000000000000000000000000000000000000000000000000000000000000001a0000000000000000000000000000000000000000000000000000000000000022000000000000000000000000000000000000000000000000000000000000002a0000000000000000000000000000000000000000000000000000000000000005e151720090eb101b10c7001b101b10c7001b101b1017001b10a7001b102b1010001b1097001b102b1010001b1097001b102b1010001b1097001b102b1010001b1097001b102b1010001b1097001b102b1010001b1097001b1027001000b700000000000000000000000000000000000000000000000000000000000000000005e151720090eb301b30c7101b301b30c7101b301b3017101b30a7101b302b3010001b3097101b302b3010001b3097101b302b3010001b3097101b302b3010001b3097101b302b3010001b3097101b302b3010001b3097101b3027101000b710000000000000000000000000000000000000000000000000000000000000000005e151720090eb401b40c7201b401b40c7201b401b4017201b40a7201b402b4010001b4097201b402b4010001b4097201b402b4010001b4097201b402b4010001b4097201b402b4010001b4097201b402b4010001b4097201b4027201000b720000000000000000000000000000000000000000000000000000000000000000005e151720090e1601160ca1011601160ca10116011601a101160aa1011602160100011609a1011602160100011609a1011602160100011609a1011602160100011609a1011602160100011609a1011602160100011609a1011602a101000ba10000000000000000000000000000000000000000000000000000000000000000005e151720090e8401840cac018401840cac0184018401ac01840aac018402840100018409ac018402840100018409ac018402840100018409ac018402840100018409ac018402840100018409ac018402840100018409ac018402ac01000bac0000",
        "nonce": "0x50",
        "chainId": "0x14a34"
      },
      "additionalContracts": [
        {
          "transactionType": "CREATE",
          "contractName": null,
          "address": "0x75de3a2475edf3f1e1b8c0aa172ef01c3adb94d6",
          "initCode": "0x61005f80600c6000396000f300151720090eb101b10c7001b101b10c7001b101b1017001b10a7001b102b1010001b1097001b102b1010001b1097001b102b1010001b1097001b102b1010001b1097001b102b1010001b1097001b102b1010001b1097001b1027001000b70"
        },
        {
          "transactionType": "CREATE",
          "contractName": null,
          "address": "0x157c0cc3419cf2f2fe38b13929e4cb5766a33dab",
          "initCode": "0x61005f80600c6000396000f300151720090eb301b30c7101b301b30c7101b301b3017101b30a7101b302b3010001b3097101b302b3010001b3097101b302b3010001b3097101b302b3010001b3097101b302b3010001b3097101b302b3010001b3097101b3027101000b71"
        },
        {
          "transactionType": "CREATE",
          "contractName": null,
          "address": "0xd01ef8a436308ff49c70c521fd1b2e23733a5801",
          "initCode": "0x61005f80600c6000396000f300151720090eb401b40c7201b401b40c7201b401b4017201b40a7201b402b4010001b4097201b402b4010001b4097201b402b4010001b4097201b402b4010001b4097201b402b4010001b4097201b402b4010001b4097201b4027201000b72"
        },
        {
          "transactionType": "CREATE",
          "contractName": null,
          "address": "0xa9f1f1b71745dcd1a0e8373b17459c8ba609099a",
          "initCode": "0x61005f80600c6000396000f300151720090e1601160ca1011601160ca10116011601a101160aa1011602160100011609a1011602160100011609a1011602160100011609a1011602160100011609a1011602160100011609a1011602160100011609a1011602a101000ba1"
        },
        {
          "transactionType": "CREATE",
          "contractName": null,
          "address": "0x73d12b82015a0f770c728e7bec3145f6906aea74",
          "initCode": "0x61005f80600c6000396000f300151720090e8401840cac018401840cac0184018401ac01840aac018402840100018409ac018402840100018409ac018402840100018409ac018402840100018409ac018402840100018409ac018402840100018409ac018402ac01000bac"
        }
      ],
      "isFixedGasLimit": false
    },
    {
      "hash": "0x273e1f6de11ae78bdfc0d30d686e0fa45c315063c509e901e8faa6f56e44fe2b",
      "transactionType": "CALL",
      "contractName": "AnonsDescriptor",
      "contractAddress": "0x099cc999dd431de6529fbb516e8c59ab0cecdde8",
      "function": "addManyBodies(bytes[])",
      "arguments": [
        "[0x151720090e4201420cad014201420cad0142014201ad01420aad014202420100014209ad014202420100014209ad014202420100014209ad014202420100014209ad014202420100014209ad014202420100014209ad014202ad01000bad, 0x151720090e8101810cae018101810cae0181018101ae01810aae018102810100018109ae018102810100018109ae018102810100018109ae018102810100018109ae018102810100018109ae018102810100018109ae018102ae01000bae, 0x151720090e1f011f0caf011f011f0caf011f011f01af011f0aaf011f021f0100011f09af011f021f0100011f09af011f021f0100011f09af011f021f0100011f09af011f021f0100011f09af011f021f0100011f09af011f02af01000baf, 0x151720090e4201420cb0014201420cb00142014201b001420ab0014202420100014209b0014202420100014209b0014202420100014209b0014202420100014209b0014202420100014209b0014202420100014209b0014202b001000bb0, 0x151720090e8101810c73018101810c7301810181017301810a730181028101000181097301810281010001810973018102810100018109730181028101000181097301810281010001810973018102810100018109730181027301000b73]"
      ],
      "transaction": {
        "from": "0x84d5e34ad1a91cf2ecad071a65948fa48f1b4216",
        "to": "0x099cc999dd431de6529fbb516e8c59ab0cecdde8",
        "gas": "0x8c789",
        "value": "0x0",
        "input": "0x8a85a1e80000000000000000000000000000000000000000000000000000000000000020000000000000000000000000000000000000000000000000000000000000000500000000000000000000000000000000000000000000000000000000000000a0000000000000000000000000000000000000000000000000000000000000012000000000000000000000000000000000000000000000000000000000000001a0000000000000000000000000000000000000000000000000000000000000022000000000000000000000000000000000000000000000000000000000000002a0000000000000000000000000000000000000000000000000000000000000005e151720090e4201420cad014201420cad0142014201ad01420aad014202420100014209ad014202420100014209ad014202420100014209ad014202420100014209ad014202420100014209ad014202420100014209ad014202ad01000bad0000000000000000000000000000000000000000000000000000000000000000005e151720090e8101810cae018101810cae0181018101ae01810aae018102810100018109ae018102810100018109ae018102810100018109ae018102810100018109ae018102810100018109ae018102810100018109ae018102ae01000bae0000000000000000000000000000000000000000000000000000000000000000005e151720090e1f011f0caf011f011f0caf011f011f01af011f0aaf011f021f0100011f09af011f021f0100011f09af011f021f0100011f09af011f021f0100011f09af011f021f0100011f09af011f021f0100011f09af011f02af01000baf0000000000000000000000000000000000000000000000000000000000000000005e151720090e4201420cb0014201420cb00142014201b001420ab0014202420100014209b0014202420100014209b0014202420100014209b0014202420100014209b0014202420100014209b0014202420100014209b0014202b001000bb00000000000000000000000000000000000000000000000000000000000000000005e151720090e8101810c73018101810c7301810181017301810a730181028101000181097301810281010001810973018102810100018109730181028101000181097301810281010001810973018102810100018109730181027301000b730000",
        "nonce": "0x51",
        "chainId": "0x14a34"
      },
      "additionalContracts": [
        {
          "transactionType": "CREATE",
          "contractName": null,
          "address": "0x57f949b853be036fe08ebe90058a0974f5e94bf2",
          "initCode": "0x61005f80600c6000396000f300151720090e4201420cad014201420cad0142014201ad01420aad014202420100014209ad014202420100014209ad014202420100014209ad014202420100014209ad014202420100014209ad014202420100014209ad014202ad01000bad"
        },
        {
          "transactionType": "CREATE",
          "contractName": null,
          "address": "0xcdc2389b08e6d6ea328e387135df099cc8a371b9",
          "initCode": "0x61005f80600c6000396000f300151720090e8101810cae018101810cae0181018101ae01810aae018102810100018109ae018102810100018109ae018102810100018109ae018102810100018109ae018102810100018109ae018102810100018109ae018102ae01000bae"
        },
        {
          "transactionType": "CREATE",
          "contractName": null,
          "address": "0x4dfe671821230fb0112e168afbbf9c62f7a58bc4",
          "initCode": "0x61005f80600c6000396000f300151720090e1f011f0caf011f011f0caf011f011f01af011f0aaf011f021f0100011f09af011f021f0100011f09af011f021f0100011f09af011f021f0100011f09af011f021f0100011f09af011f021f0100011f09af011f02af01000baf"
        },
        {
          "transactionType": "CREATE",
          "contractName": null,
          "address": "0xce31e5d25a1f394f5f12562a5e2974cba7582a87",
          "initCode": "0x61005f80600c6000396000f300151720090e4201420cb0014201420cb00142014201b001420ab0014202420100014209b0014202420100014209b0014202420100014209b0014202420100014209b0014202420100014209b0014202420100014209b0014202b001000bb0"
        },
        {
          "transactionType": "CREATE",
          "contractName": null,
          "address": "0xc6994b5c5ca83c3d272a570b241e5240092e5fc4",
          "initCode": "0x61005f80600c6000396000f300151720090e8101810c73018101810c7301810181017301810a730181028101000181097301810281010001810973018102810100018109730181028101000181097301810281010001810973018102810100018109730181027301000b73"
        }
      ],
      "isFixedGasLimit": false
    },
    {
      "hash": "0x3ac73d8e78834087a49b1c0c3bd3ff8fea8a4b4d85f67d298dc0ee42813ede91",
      "transactionType": "CALL",
      "contractName": "AnonsDescriptor",
      "contractAddress": "0x099cc999dd431de6529fbb516e8c59ab0cecdde8",
      "function": "addManyBodies(bytes[])",
      "arguments": [
        "[0x151720090e0601060cb1010601060cb10106010601b101060ab1010602060100010609b1010602060100010609b1010602060100010609b1010602060100010609b1010602060100010609b1010602060100010609b1010602b101000bb1, 0x151720090e7e017e0cb2017e017e0cb2017e017e01b2017e0ab2017e027e0100017e09b2017e027e0100017e09b2017e027e0100017e09b2017e027e0100017e09b2017e027e0100017e09b2017e027e0100017e09b2017e02b201000bb2, 0x151720090e0401040cb3010401040cb30104010401b301040ab3010402040100010409b3010402040100010409b3010402040100010409b3010402040100010409b3010402040100010409b3010402040100010409b3010402b301000bb3, 0x151720090e4001400cb4014001400cb40140014001b401400ab4014002400100014009b4014002400100014009b4014002400100014009b4014002400100014009b4014002400100014009b4014002400100014009b4014002b401000bb4, 0x151720090e0c010c0cb5010c010c0cb5010c010c01b5010c0ab5010c020c0100010c09b5010c020c0100010c09b5010c020c0100010c09b5010c020c0100010c09b5010c020c0100010c09b5010c020c0100010c09b5010c02b501000bb5]"
      ],
      "transaction": {
        "from": "0x84d5e34ad1a91cf2ecad071a65948fa48f1b4216",
        "to": "0x099cc999dd431de6529fbb516e8c59ab0cecdde8",
        "gas": "0x8c789",
        "value": "0x0",
        "input": "0x8a85a1e80000000000000000000000000000000000000000000000000000000000000020000000000000000000000000000000000000000000000000000000000000000500000000000000000000000000000000000000000000000000000000000000a0000000000000000000000000000000000000000000000000000000000000012000000000000000000000000000000000000000000000000000000000000001a0000000000000000000000000000000000000000000000000000000000000022000000000000000000000000000000000000000000000000000000000000002a0000000000000000000000000000000000000000000000000000000000000005e151720090e0601060cb1010601060cb10106010601b101060ab1010602060100010609b1010602060100010609b1010602060100010609b1010602060100010609b1010602060100010609b1010602060100010609b1010602b101000bb10000000000000000000000000000000000000000000000000000000000000000005e151720090e7e017e0cb2017e017e0cb2017e017e01b2017e0ab2017e027e0100017e09b2017e027e0100017e09b2017e027e0100017e09b2017e027e0100017e09b2017e027e0100017e09b2017e027e0100017e09b2017e02b201000bb20000000000000000000000000000000000000000000000000000000000000000005e151720090e0401040cb3010401040cb30104010401b301040ab3010402040100010409b3010402040100010409b3010402040100010409b3010402040100010409b3010402040100010409b3010402040100010409b3010402b301000bb30000000000000000000000000000000000000000000000000000000000000000005e151720090e4001400cb4014001400cb40140014001b401400ab4014002400100014009b4014002400100014009b4014002400100014009b4014002400100014009b4014002400100014009b4014002400100014009b4014002b401000bb40000000000000000000000000000000000000000000000000000000000000000005e151720090e0c010c0cb5010c010c0cb5010c010c01b5010c0ab5010c020c0100010c09b5010c020c0100010c09b5010c020c0100010c09b5010c020c0100010c09b5010c020c0100010c09b5010c020c0100010c09b5010c02b501000bb50000",
        "nonce": "0x52",
        "chainId": "0x14a34"
      },
      "additionalContracts": [
        {
          "transactionType": "CREATE",
          "contractName": null,
          "address": "0xc1fecc8509e12e0502321aea996ce6e616249ec3",
          "initCode": "0x61005f80600c6000396000f300151720090e0601060cb1010601060cb10106010601b101060ab1010602060100010609b1010602060100010609b1010602060100010609b1010602060100010609b1010602060100010609b1010602060100010609b1010602b101000bb1"
        },
        {
          "transactionType": "CREATE",
          "contractName": null,
          "address": "0xf2c51978d6773cb47ea3cc9f43c07dec70660955",
          "initCode": "0x61005f80600c6000396000f300151720090e7e017e0cb2017e017e0cb2017e017e01b2017e0ab2017e027e0100017e09b2017e027e0100017e09b2017e027e0100017e09b2017e027e0100017e09b2017e027e0100017e09b2017e027e0100017e09b2017e02b201000bb2"
        },
        {
          "transactionType": "CREATE",
          "contractName": null,
          "address": "0x2dd86cf058e8a40b3be2897e38f027a2feab5766",
          "initCode": "0x61005f80600c6000396000f300151720090e0401040cb3010401040cb30104010401b301040ab3010402040100010409b3010402040100010409b3010402040100010409b3010402040100010409b3010402040100010409b3010402040100010409b3010402b301000bb3"
        },
        {
          "transactionType": "CREATE",
          "contractName": null,
          "address": "0x119ccf1b5b3cfca5d2f149b58fc5a2685e584fda",
          "initCode": "0x61005f80600c6000396000f300151720090e4001400cb4014001400cb40140014001b401400ab4014002400100014009b4014002400100014009b4014002400100014009b4014002400100014009b4014002400100014009b4014002400100014009b4014002b401000bb4"
        },
        {
          "transactionType": "CREATE",
          "contractName": null,
          "address": "0xdd447e7510c35ebefe68185fb70f3a5bae0faa45",
          "initCode": "0x61005f80600c6000396000f300151720090e0c010c0cb5010c010c0cb5010c010c01b5010c0ab5010c020c0100010c09b5010c020c0100010c09b5010c020c0100010c09b5010c020c0100010c09b5010c020c0100010c09b5010c020c0100010c09b5010c02b501000bb5"
        }
      ],
      "isFixedGasLimit": false
    }
  ],
  "receipts": [
    {
      "status": "0x1",
      "cumulativeGasUsed": "0x2473f8",
      "logs": [],
      "logsBloom": "0x00000000000000000000000000000000000000000000000000000000000000000000000000000000000000000000000000000000000000000000000000000000000000000000000000000000000000000000000000000000000000000000000000000000000000000000000000000000000000000000000000000000000000000000000000000000000000000000000000000000000000000000000000000000000000000000000000000000000000000000000000000000000000000000000000000000000000000000000000000000000000000000000000000000000000000000000000000000000000000000000000000000000000000000000000000000",
      "type": "0x0",
      "transactionHash": "0x4d89d14496de4a529b00c58cb29569718aa217bf75606e498344c9f2e687776e",
      "transactionIndex": "0x8",
      "blockHash": "0x0000000000000000000000000000000000000000000000000000000000000000",
      "blockNumber": "0x23a1b02",
      "gasUsed": "0x69dfa",
      "effectiveGasPrice": "0x124f80",
      "blobGasUsed": "0x13e18",
      "from": "0x84d5e34ad1a91cf2ecad071a65948fa48f1b4216",
      "to": "0x099cc999dd431de6529fbb516e8c59ab0cecdde8",
      "contractAddress": null,
      "daFootprintGasScalar": "0x138",
      "l1BaseFeeScalar": "0x44d",
      "l1BlobBaseFee": "0x3c5cc56",
      "l1BlobBaseFeeScalar": "0xa118b",
      "l1Fee": "0x32cb6a6c8",
      "l1GasPrice": "0x3ca46d25",
      "l1GasUsed": "0x1051"
    },
    {
      "status": "0x1",
      "cumulativeGasUsed": "0x2acf26",
      "logs": [],
      "logsBloom": "0x00000000000000000000000000000000000000000000000000000000000000000000000000000000000000000000000000000000000000000000000000000000000000000000000000000000000000000000000000000000000000000000000000000000000000000000000000000000000000000000000000000000000000000000000000000000000000000000000000000000000000000000000000000000000000000000000000000000000000000000000000000000000000000000000000000000000000000000000000000000000000000000000000000000000000000000000000000000000000000000000000000000000000000000000000000000",
      "type": "0x0",
      "transactionHash": "0x1cf2c2d727c164480f61e9714861d40f21052e458bb3d9ad0fc03442c9c10ed0",
      "transactionIndex": "0x9",
      "blockHash": "0x3bf7432048441773d7b648f4442e206b94f4515ecaa28bf50967848e6d932fef",
      "blockNumber": "0x23a1b02",
      "gasUsed": "0x65b2e",
      "effectiveGasPrice": "0x124f80",
      "blobGasUsed": "0x14568",
      "from": "0x84d5e34ad1a91cf2ecad071a65948fa48f1b4216",
      "to": "0x099cc999dd431de6529fbb516e8c59ab0cecdde8",
      "contractAddress": null,
      "daFootprintGasScalar": "0x138",
      "l1BaseFeeScalar": "0x44d",
      "l1BlobBaseFee": "0x3c5cc56",
      "l1BlobBaseFeeScalar": "0xa118b",
      "l1Fee": "0x3b895aee8",
      "l1GasPrice": "0x3ca46d25",
      "l1GasUsed": "0x10bc"
    },
    {
      "status": "0x1",
      "cumulativeGasUsed": "0x312a54",
      "logs": [],
      "logsBloom": "0x00000000000000000000000000000000000000000000000000000000000000000000000000000000000000000000000000000000000000000000000000000000000000000000000000000000000000000000000000000000000000000000000000000000000000000000000000000000000000000000000000000000000000000000000000000000000000000000000000000000000000000000000000000000000000000000000000000000000000000000000000000000000000000000000000000000000000000000000000000000000000000000000000000000000000000000000000000000000000000000000000000000000000000000000000000000",
      "type": "0x0",
      "transactionHash": "0x3ac73d8e78834087a49b1c0c3bd3ff8fea8a4b4d85f67d298dc0ee42813ede91",
      "transactionIndex": "0xa",
      "blockHash": "0x3bf7432048441773d7b648f4442e206b94f4515ecaa28bf50967848e6d932fef",
      "blockNumber": "0x23a1b02",
      "gasUsed": "0x65b2e",
      "effectiveGasPrice": "0x124f80",
      "blobGasUsed": "0x13800",
      "from": "0x84d5e34ad1a91cf2ecad071a65948fa48f1b4216",
      "to": "0x099cc999dd431de6529fbb516e8c59ab0cecdde8",
      "contractAddress": null,
      "daFootprintGasScalar": "0x138",
      "l1BaseFeeScalar": "0x44d",
      "l1BlobBaseFee": "0x3c5cc56",
      "l1BlobBaseFeeScalar": "0xa118b",
      "l1Fee": "0x391e59c51",
      "l1GasPrice": "0x3ca46d25",
      "l1GasUsed": "0x100e"
    },
    {
      "status": "0x1",
      "cumulativeGasUsed": "0x378582",
      "logs": [],
      "logsBloom": "0x00000000000000000000000000000000000000000000000000000000000000000000000000000000000000000000000000000000000000000000000000000000000000000000000000000000000000000000000000000000000000000000000000000000000000000000000000000000000000000000000000000000000000000000000000000000000000000000000000000000000000000000000000000000000000000000000000000000000000000000000000000000000000000000000000000000000000000000000000000000000000000000000000000000000000000000000000000000000000000000000000000000000000000000000000000000",
      "type": "0x0",
      "transactionHash": "0x0155ba64b0ef6ae4b0744ade9166f22cb93bc6b259b34eb182d0382d1188130b",
      "transactionIndex": "0xb",
      "blockHash": "0x3bf7432048441773d7b648f4442e206b94f4515ecaa28bf50967848e6d932fef",
      "blockNumber": "0x23a1b02",
      "gasUsed": "0x65b2e",
      "effectiveGasPrice": "0x124f80",
      "blobGasUsed": "0x14568",
      "from": "0x84d5e34ad1a91cf2ecad071a65948fa48f1b4216",
      "to": "0x099cc999dd431de6529fbb516e8c59ab0cecdde8",
      "contractAddress": null,
      "daFootprintGasScalar": "0x138",
      "l1BaseFeeScalar": "0x44d",
      "l1BlobBaseFee": "0x3c5cc56",
      "l1BlobBaseFeeScalar": "0xa118b",
      "l1Fee": "0x3b895aee8",
      "l1GasPrice": "0x3ca46d25",
      "l1GasUsed": "0x10bc"
    },
    {
      "status": "0x1",
      "cumulativeGasUsed": "0x3de0b0",
      "logs": [],
      "logsBloom": "0x00000000000000000000000000000000000000000000000000000000000000000000000000000000000000000000000000000000000000000000000000000000000000000000000000000000000000000000000000000000000000000000000000000000000000000000000000000000000000000000000000000000000000000000000000000000000000000000000000000000000000000000000000000000000000000000000000000000000000000000000000000000000000000000000000000000000000000000000000000000000000000000000000000000000000000000000000000000000000000000000000000000000000000000000000000000",
      "type": "0x0",
      "transactionHash": "0x273e1f6de11ae78bdfc0d30d686e0fa45c315063c509e901e8faa6f56e44fe2b",
      "transactionIndex": "0xc",
      "blockHash": "0x3bf7432048441773d7b648f4442e206b94f4515ecaa28bf50967848e6d932fef",
      "blockNumber": "0x23a1b02",
      "gasUsed": "0x65b2e",
      "effectiveGasPrice": "0x124f80",
      "blobGasUsed": "0x13590",
      "from": "0x84d5e34ad1a91cf2ecad071a65948fa48f1b4216",
      "to": "0x099cc999dd431de6529fbb516e8c59ab0cecdde8",
      "contractAddress": null,
      "daFootprintGasScalar": "0x138",
      "l1BaseFeeScalar": "0x44d",
      "l1BlobBaseFee": "0x3c5cc56",
      "l1BlobBaseFeeScalar": "0xa118b",
      "l1Fee": "0x388f80e2f",
      "l1GasPrice": "0x3ca46d25",
      "l1GasUsed": "0xfe5"
    },
    {
      "status": "0x1",
      "cumulativeGasUsed": "0x443bde",
      "logs": [],
      "logsBloom": "0x00000000000000000000000000000000000000000000000000000000000000000000000000000000000000000000000000000000000000000000000000000000000000000000000000000000000000000000000000000000000000000000000000000000000000000000000000000000000000000000000000000000000000000000000000000000000000000000000000000000000000000000000000000000000000000000000000000000000000000000000000000000000000000000000000000000000000000000000000000000000000000000000000000000000000000000000000000000000000000000000000000000000000000000000000000000",
      "type": "0x0",
      "transactionHash": "0xb54ffb02bc60e6d3708f377e9934ba1d1303e0133dda1bd36ade7fe37033f4f4",
      "transactionIndex": "0xd",
      "blockHash": "0x3bf7432048441773d7b648f4442e206b94f4515ecaa28bf50967848e6d932fef",
      "blockNumber": "0x23a1b02",
      "gasUsed": "0x65b2e",
      "effectiveGasPrice": "0x124f80",
      "blobGasUsed": "0x14430",
      "from": "0x84d5e34ad1a91cf2ecad071a65948fa48f1b4216",
      "to": "0x099cc999dd431de6529fbb516e8c59ab0cecdde8",
      "contractAddress": null,
      "daFootprintGasScalar": "0x138",
      "l1BaseFeeScalar": "0x44d",
      "l1BlobBaseFee": "0x3c5cc56",
      "l1BlobBaseFeeScalar": "0xa118b",
      "l1Fee": "0x3b59bd4dc",
      "l1GasPrice": "0x3ca46d25",
      "l1GasUsed": "0x10ae"
    }
  ],
  "libraries": [],
  "pending": [],
  "returns": {},
  "timestamp": 1770493156707,
  "chain": 84532,
  "commit": "bfb154c"
}