{
  "transactions": [
    {
      "hash": "0xf4f0455419b548f243ed7c7e0d3123b2b11e1618102c3385782a860b9c1191b0",
      "transactionType": "CALL",
      "contractName": "AnonsDescriptor",
      "contractAddress": "0x099cc999dd431de6529fbb516e8c59ab0cecdde8",
      "function": "addManyAntenna(bytes[])",
      "arguments": [
        "[0x011a060701c31200010001c30f00010901000100100901000109010001c30f000109010001c31200, 0x0015070c040001c304000400015b04000300015b0100015b03000100015b0500015b0100015b0100015b0300015b0100015b085b0100085b0100, 0x0015070f010905c301090505010905c301090500010905000109050001090500, 0x0016030b0100095b0100015b0900015b0100095b0100, 0x0014070f02050100015b01000209015b020002090100015b010002090200015b020903000209030002090300, 0x00000000, 0x0014070f05090409018c050903090200030902000309020003090200, 0x0014070c0300020903000300020903000300020903000309025c03090309025c0309030002090300030002090300, 0x0017070a01c301090900010901c30209090002090100020907000209010001000209070002090100010002090700020901000200020905000209020002000209050002090200, 0x0015070c010907000109010001fc05000109010002000109030001090200030001090100010903000400010904000200045c03000200045c0300]"
      ],
      "transaction": {
        "from": "0x84d5e34ad1a91cf2ecad071a65948fa48f1b4216",
        "to": "0x099cc999dd431de6529fbb516e8c59ab0cecdde8",
        "gas": "0xec5b9",
        "value": "0x0",
        "input": "0x1168eccb0000000000000000000000000000000000000000000000000000000000000020000000000000000000000000000000000000000000000000000000000000000a000000000000000000000000000000000000000000000000000000000000014000000000000000000000000000000000000000000000000000000000000001a000000000000000000000000000000000000000000000000000000000000002000000000000000000000000000000000000000000000000000000000000000240000000000000000000000000000000000000000000000000000000000000028000000000000000000000000000000000000000000000000000000000000002e00000000000000000000000000000000000000000000000000000000000000320000000000000000000000000000000000000000000000000000000000000036000000000000000000000000000000000000000000000000000000000000003c000000000000000000000000000000000000000000000000000000000000004400000000000000000000000000000000000000000000000000000000000000028011a060701c31200010001c30f00010901000100100901000109010001c30f000109010001c31200000000000000000000000000000000000000000000000000000000000000000000000000000000000000000000000000000000000000003a0015070c040001c304000400015b04000300015b0100015b03000100015b0500015b0100015b0100015b0300015b0100015b085b0100085b010000000000000000000000000000000000000000000000000000000000000000000000000000200015070f010905c301090505010905c30109050001090500010905000109050000000000000000000000000000000000000000000000000000000000000000160016030b0100095b0100015b0900015b0100095b010000000000000000000000000000000000000000000000000000000000000000000000000000000000002c0014070f02050100015b01000209015b020002090100015b010002090200015b020903000209030002090300000000000000000000000000000000000000000000000000000000000000000000000000000000000000000000000000000000040000000000000000000000000000000000000000000000000000000000000000000000000000000000000000000000000000000000000000000000000000001c0014070f05090409018c05090309020003090200030902000309020000000000000000000000000000000000000000000000000000000000000000000000002e0014070c0300020903000300020903000300020903000309025c03090309025c030903000209030003000209030000000000000000000000000000000000000000000000000000000000000000000000000000000000000000000000000000460017070a01c301090900010901c302090900020901000209070002090100010002090700020901000100020907000209010002000209050002090200020002090500020902000000000000000000000000000000000000000000000000000000000000000000000000000000000000000000000000000000000000000000003a0015070c010907000109010001fc05000109010002000109030001090200030001090100010903000400010904000200045c03000200045c0300000000000000",
        "nonce": "0x5b",
        "chainId": "0x14a34"
      },
      "additionalContracts": [
        {
          "transactionType": "CREATE",
          "contractName": null,
          "address": "0xe5d3db3e9163fa6279f543de0a67239b01657539",
          "initCode": "0x61002980600c6000396000f300011a060701c31200010001c30f00010901000100100901000109010001c30f000109010001c31200"
        },
        {
          "transactionType": "CREATE",
          "contractName": null,
          "address": "0xcc66a0d3aafd6136bc37f638477b8f0b1da105ce",
          "initCode": "0x61003b80600c6000396000f3000015070c040001c304000400015b04000300015b0100015b03000100015b0500015b0100015b0100015b0300015b0100015b085b0100085b0100"
        },
        {
          "transactionType": "CREATE",
          "contractName": null,
          "address": "0x61e70d9ec1963484435e2ab30c9fb5c8c1100a2b",
          "initCode": "0x61002180600c6000396000f3000015070f010905c301090505010905c301090500010905000109050001090500"
        },
        {
          "transactionType": "CREATE",
          "contractName": null,
          "address": "0xd36ee8db6cdc00697924dda9ead60d21772f7fbe",
          "initCode": "0x61001780600c6000396000f3000016030b0100095b0100015b0900015b0100095b0100"
        },
        {
          "transactionType": "CREATE",
          "contractName": null,
          "address": "0x0e60737cba881a7db3a90f5307703db8c512a12c",
          "initCode": "0x61002d80600c6000396000f3000014070f02050100015b01000209015b020002090100015b010002090200015b020903000209030002090300"
        },
        {
          "transactionType": "CREATE",
          "contractName": null,
          "address": "0x7592123dd1aa2cd1e16f2c3cac94442ee9d74f04",
          "initCode": "0x61000580600c6000396000f30000000000"
        },
        {
          "transactionType": "CREATE",
          "contractName": null,
          "address": "0x22b627606a5d0daceda346f9a43331b839c4dd85",
          "initCode": "0x61001d80600c6000396000f3000014070f05090409018c050903090200030902000309020003090200"
        },
        {
          "transactionType": "CREATE",
          "contractName": null,
          "address": "0x9510c4a115ccaa81a2a88eff040b03fae43b8cde",
          "initCode": "0x61002f80600c6000396000f3000014070c0300020903000300020903000300020903000309025c03090309025c0309030002090300030002090300"
        },
        {
          "transactionType": "CREATE",
          "contractName": null,
          "address": "0x9f9e8bc4ec212065ca556993f3ceff64d404add6",
          "initCode": "0x61004780600c6000396000f3000017070a01c301090900010901c30209090002090100020907000209010001000209070002090100010002090700020901000200020905000209020002000209050002090200"
        },
        {
          "transactionType": "CREATE",
          "contractName": null,
          "address": "0xced076460a087039a66f3001e9b1bbe246276853",
          "initCode": "0x61003b80600c6000396000f3000015070c010907000109010001fc05000109010002000109030001090200030001090100010903000400010904000200045c03000200045c0300"
        }
      ],
      "isFixedGasLimit": false
    },
    {
      "hash": "0x912b3b340993493ef31d444d8f0194d4f1911e56bd39b8367ad507ecaca1c0f2",
      "transactionType": "CALL",
      "contractName": "AnonsDescriptor",
      "contractAddress": "0x099cc999dd431de6529fbb516e8c59ab0cecdde8",
      "function": "addManyAntenna(bytes[])",
      "arguments": [
        "[0x0115080c040001c3040003000309030002000109035c0109020001000109035c0100015c010901000109015c0100025c0200015c0109015c0200025c0300015c0300025c0400, 0x0011070e03c3010001c301090100020901000209010002090100020901000209, 0x0014070d020002fc0300010001fc040001fc01fc040001fc01000200026d03000200026d03000200026d03000200026d0300, 0x0015070b0100018c020003050300030005050100018c018c020001090305030003000209010501090300030004090300030004090300030004090300, 0x0013070e0200035b020003050200025b01000100020502000100015b0300010001050300015b0400, 0x0015060c0300018c0100018c03000200018c0300018c02000100018c0500018c0100018c0200018c0100018c0200018c0200018c0300018c02000400018c0400]"
      ],
      "transaction": {
        "from": "0x84d5e34ad1a91cf2ecad071a65948fa48f1b4216",
        "to": "0x099cc999dd431de6529fbb516e8c59ab0cecdde8",
        "gas": "0x9cade",
        "value": "0x0",
        "input": "0x1168eccb0000000000000000000000000000000000000000000000000000000000000020000000000000000000000000000000000000000000000000000000000000000600000000000000000000000000000000000000000000000000000000000000c00000000000000000000000000000000000000000000000000000000000000140000000000000000000000000000000000000000000000000000000000000018000000000000000000000000000000000000000000000000000000000000001e0000000000000000000000000000000000000000000000000000000000000024000000000000000000000000000000000000000000000000000000000000002a000000000000000000000000000000000000000000000000000000000000000460115080c040001c3040003000309030002000109035c0109020001000109035c0100015c010901000109015c0100025c0200015c0109015c0200025c0300015c0300025c0400000000000000000000000000000000000000000000000000000000000000000000000000000000000000000000000000000000000000000000200011070e03c3010001c30109010002090100020901000209010002090100020900000000000000000000000000000000000000000000000000000000000000320014070d020002fc0300010001fc040001fc01fc040001fc01000200026d03000200026d03000200026d03000200026d03000000000000000000000000000000000000000000000000000000000000000000000000000000000000000000003c0015070b0100018c020003050300030005050100018c018c0200010903050300030002090105010903000300040903000300040903000300040903000000000000000000000000000000000000000000000000000000000000000000000000280013070e0200035b020003050200025b01000100020502000100015b0300010001050300015b040000000000000000000000000000000000000000000000000000000000000000000000000000000000000000000000000000000000000000400015060c0300018c0100018c03000200018c0300018c02000100018c0500018c0100018c0200018c0100018c0200018c0200018c0300018c02000400018c0400",
        "nonce": "0x5c",
        "chainId": "0x14a34"
      },
      "additionalContracts": [
        {
          "transactionType": "CREATE",
          "contractName": null,
          "address": "0xbab11a1b750e06f3c1d26f910f46753a9312259d",
          "initCode": "0x61004780600c6000396000f3000115080c040001c3040003000309030002000109035c0109020001000109035c0100015c010901000109015c0100025c0200015c0109015c0200025c0300015c0300025c0400"
        },
        {
          "transactionType": "CREATE",
          "contractName": null,
          "address": "0xba7c44e3e82922c7a7dafac2306604918b911793",
          "initCode": "0x61002180600c6000396000f3000011070e03c3010001c301090100020901000209010002090100020901000209"
        },
        {
          "transactionType": "CREATE",
          "contractName": null,
          "address": "0xc0f82f92e3eb3d6e64c29707d8ea59523e41b37f",
          "initCode": "0x61003380600c6000396000f3000014070d020002fc0300010001fc040001fc01fc040001fc01000200026d03000200026d03000200026d03000200026d0300"
        },
        {
          "transactionType": "CREATE",
          "contractName": null,
          "address": "0xdf0368ee7ee40d948eb0b8edb0fae55002e7c68a",
          "initCode": "0x61003d80600c6000396000f3000015070b0100018c020003050300030005050100018c018c020001090305030003000209010501090300030004090300030004090300030004090300"
        },
        {
          "transactionType": "CREATE",
          "contractName": null,
          "address": "0x6d22e5f53ac0946ef6c528926d4293fa8dc8d353",
          "initCode": "0x61002980600c6000396000f3000013070e0200035b020003050200025b01000100020502000100015b0300010001050300015b0400"
        },
        {
          "transactionType": "CREATE",
          "contractName": null,
          "address": "0x05aba0005136ea64947457e779f1e019348004b1",
          "initCode": "0x61004180600c6000396000f3000015060c0300018c0100018c03000200018c0300018c02000100018c0500018c0100018c0200018c0100018c0200018c0200018c0300018c02000400018c0400"
        }
      ],
      "isFixedGasLimit": false
    }
  ],
  "receipts": [
    {
      "status": "0x1",
      "cumulativeGasUsed": "0x27042b",
      "logs": [],
      "logsBloom": "0x00000000000000000000000000000000000000000000000000000000000000000000000000000000000000000000000000000000000000000000000000000000000000000000000000000000000000000000000000000000000000000000000000000000000000000000000000000000000000000000000000000000000000000000000000000000000000000000000000000000000000000000000000000000000000000000000000000000000000000000000000000000000000000000000000000000000000000000000000000000000000000000000000000000000000000000000000000000000000000000000000000000000000000000000000000000",
      "type": "0x0",
      "transactionHash": "0x912b3b340993493ef31d444d8f0194d4f1911e56bd39b8367ad507ecaca1c0f2",
      "transactionIndex": "0x3",
      "blockHash": "0x0000000000000000000000000000000000000000000000000000000000000000",
      "blockNumber": "0x23a1b2b",
      "gasUsed": "0xab1e7",
      "effectiveGasPrice": "0x124f80",
      "blobGasUsed": "0x1e3d8",
      "from": "0x84d5e34ad1a91cf2ecad071a65948fa48f1b4216",
      "to": "0x099cc999dd431de6529fbb516e8c59ab0cecdde8",
      "contractAddress": null,
      "daFootprintGasScalar": "0x138",
      "l1BaseFeeScalar": "0x44d",
      "l1BlobBaseFee": "0x3839094",
      "l1BlobBaseFeeScalar": "0xa118b",
      "l1Fee": "0x153504399",
      "l1GasPrice": "0x3cfe7010",
      "l1GasUsed": "0x18d6"
    },
    {
      "status": "0x1",
      "cumulativeGasUsed": "0x2db644",
      "logs": [],
      "logsBloom": "0x00000000000000000000000000000000000000000000000000000000000000000000000000000000000000000000000000000000000000000000000000000000000000000000000000000000000000000000000000000000000000000000000000000000000000000000000000000000000000000000000000000000000000000000000000000000000000000000000000000000000000000000000000000000000000000000000000000000000000000000000000000000000000000000000000000000000000000000000000000000000000000000000000000000000000000000000000000000000000000000000000000000000000000000000000000000",
      "type": "0x0",
      "transactionHash": "0xf4f0455419b548f243ed7c7e0d3123b2b11e1618102c3385782a860b9c1191b0",
      "transactionIndex": "0x4",
      "blockHash": "0x0000000000000000000000000000000000000000000000000000000000000000",
      "blockNumber": "0x23a1b2b",
      "gasUsed": "0x6b219",
      "effectiveGasPrice": "0x124f80",
      "blobGasUsed": "0x17d78",
      "from": "0x84d5e34ad1a91cf2ecad071a65948fa48f1b4216",
      "to": "0x099cc999dd431de6529fbb516e8c59ab0cecdde8",
      "contractAddress": null,
      "daFootprintGasScalar": "0x138",
      "l1BaseFeeScalar": "0x44d",
      "l1BlobBaseFee": "0x3839094",
      "l1BlobBaseFeeScalar": "0xa118b",
      "l1Fee": "0x153504399",
      "l1GasPrice": "0x3cfe7010",
      "l1GasUsed": "0x139c"
    }
  ],
  "libraries": [],
  "pending": [],
  "returns": {},
  "timestamp": 1770493237927,
  "chain": 84532,
  "commit": "bfb154c"
}