{
  "transactions": [
    {
      "hash": "0xc80ca8b96984f869c4ff35d57486ca995397c6c01d9c7f0177ab46c20b5cf6d6",
      "transactionType": "CALL",
      "contractName": null,
      "contractAddress": "0xd29f7491e2269ba1f6f7b89ff3bbe6a65301e9af",
      "function": "addManyAntenna(bytes[])",
      "arguments": [
        "[0x011a060701c31200010001c30f00010901000100100901000109010001c30f000109010001c31200, 0x0015070c040001c304000400015b04000300015b0100015b03000100015b0500015b0100015b0100015b0300015b0100015b085b0100085b0100, 0x0015070f010905c301090505010905c301090500010905000109050001090500, 0x0016030b0100095b0100015b0900015b0100095b0100, 0x0014070f02050100015b01000209015b020002090100015b010002090200015b020903000209030002090300, 0x00000000, 0x0014070f05090409018c050903090200030902000309020003090200, 0x0014070c0300020903000300020903000300020903000309025c03090309025c0309030002090300030002090300, 0x0017070a01c301090900010901c30209090002090100020907000209010001000209070002090100010002090700020901000200020905000209020002000209050002090200, 0x0015070c010907000109010001fc05000109010002000109030001090200030001090100010903000400010904000200045c03000200045c0300]"
      ],
      "transaction": {
        "from": "0xf17b5dd382b048ff4c05c1c9e4e24cfc5c6adad9",
        "to": "0xd29f7491e2269ba1f6f7b89ff3bbe6a65301e9af",
        "gas": "0xec5d7",
        "value": "0x0",
        "input": "0x1168eccb0000000000000000000000000000000000000000000000000000000000000020000000000000000000000000000000000000000000000000000000000000000a000000000000000000000000000000000000000000000000000000000000014000000000000000000000000000000000000000000000000000000000000001a000000000000000000000000000000000000000000000000000000000000002000000000000000000000000000000000000000000000000000000000000000240000000000000000000000000000000000000000000000000000000000000028000000000000000000000000000000000000000000000000000000000000002e00000000000000000000000000000000000000000000000000000000000000320000000000000000000000000000000000000000000000000000000000000036000000000000000000000000000000000000000000000000000000000000003c000000000000000000000000000000000000000000000000000000000000004400000000000000000000000000000000000000000000000000000000000000028011a060701c31200010001c30f00010901000100100901000109010001c30f000109010001c31200000000000000000000000000000000000000000000000000000000000000000000000000000000000000000000000000000000000000003a0015070c040001c304000400015b04000300015b0100015b03000100015b0500015b0100015b0100015b0300015b0100015b085b0100085b010000000000000000000000000000000000000000000000000000000000000000000000000000200015070f010905c301090505010905c30109050001090500010905000109050000000000000000000000000000000000000000000000000000000000000000160016030b0100095b0100015b0900015b0100095b010000000000000000000000000000000000000000000000000000000000000000000000000000000000002c0014070f02050100015b01000209015b020002090100015b010002090200015b020903000209030002090300000000000000000000000000000000000000000000000000000000000000000000000000000000000000000000000000000000040000000000000000000000000000000000000000000000000000000000000000000000000000000000000000000000000000000000000000000000000000001c0014070f05090409018c05090309020003090200030902000309020000000000000000000000000000000000000000000000000000000000000000000000002e0014070c0300020903000300020903000300020903000309025c03090309025c030903000209030003000209030000000000000000000000000000000000000000000000000000000000000000000000000000000000000000000000000000460017070a01c301090900010901c302090900020901000209070002090100010002090700020901000100020907000209010002000209050002090200020002090500020902000000000000000000000000000000000000000000000000000000000000000000000000000000000000000000000000000000000000000000003a0015070c010907000109010001fc05000109010002000109030001090200030001090100010903000400010904000200045c03000200045c0300000000000000",
        "nonce": "0x98",
        "chainId": "0x2105"
      },
      "additionalContracts": [
        {
          "transactionType": "CREATE",
          "contractName": null,
          "address": "0xd2589d289892f643ff11c87e7c831e301602102e",
          "initCode": "0x61002980600c6000396000f300011a060701c31200010001c30f00010901000100100901000109010001c30f000109010001c31200"
        },
        {
          "transactionType": "CREATE",
          "contractName": null,
          "address": "0x38682b32a2bb1a8e9f4ea4f8d6d293c4780786f0",
          "initCode": "0x61003b80600c6000396000f3000015070c040001c304000400015b04000300015b0100015b03000100015b0500015b0100015b0100015b0300015b0100015b085b0100085b0100"
        },
        {
          "transactionType": "CREATE",
          "contractName": null,
          "address": "0xca1f261d5301d4fc8837c18208fa4efe5c14f13b",
          "initCode": "0x61002180600c6000396000f3000015070f010905c301090505010905c301090500010905000109050001090500"
        },
        {
          "transactionType": "CREATE",
          "contractName": null,
          "address": "0x717a8b9c095d0845be7a4b5365aa0faaa4d7aee6",
          "initCode": "0x61001780600c6000396000f3000016030b0100095b0100015b0900015b0100095b0100"
        },
        {
          "transactionType": "CREATE",
          "contractName": null,
          "address": "0xc83639be8d688b52538d68f1fecb1123d478197b",
          "initCode": "0x61002d80600c6000396000f3000014070f02050100015b01000209015b020002090100015b010002090200015b020903000209030002090300"
        },
        {
          "transactionType": "CREATE",
          "contractName": null,
          "address": "0xa878d50d1041fabc2f882562bd07c3cc9779389b",
          "initCode": "0x61000580600c6000396000f30000000000"
        },
        {
          "transactionType": "CREATE",
          "contractName": null,
          "address": "0x7cb26664225d5055ebd839b5f8343698e28b64db",
          "initCode": "0x61001d80600c6000396000f3000014070f05090409018c050903090200030902000309020003090200"
        },
        {
          "transactionType": "CREATE",
          "contractName": null,
          "address": "0x9722b86f6809a70938ce372642212c5070442fc9",
          "initCode": "0x61002f80600c6000396000f3000014070c0300020903000300020903000300020903000309025c03090309025c0309030002090300030002090300"
        },
        {
          "transactionType": "CREATE",
          "contractName": null,
          "address": "0x52f53de3d46f0265cac096adf18ad0b18dfa7ccc",
          "initCode": "0x61004780600c6000396000f3000017070a01c301090900010901c30209090002090100020907000209010001000209070002090100010002090700020901000200020905000209020002000209050002090200"
        },
        {
          "transactionType": "CREATE",
          "contractName": null,
          "address": "0x4c1b4e6ab3c8b11f520bfc9cba989b3d6bc3e228",
          "initCode": "0x61003b80600c6000396000f3000015070c010907000109010001fc05000109010002000109030001090200030001090100010903000400010904000200045c03000200045c0300"
        }
      ],
      "isFixedGasLimit": false
    },
    {
      "hash": "0x1a2441ce5f10822a3860a2a1f8acffcd0258024c1825fbacfa20ceab1b56b616",
      "transactionType": "CALL",
      "contractName": null,
      "contractAddress": "0xd29f7491e2269ba1f6f7b89ff3bbe6a65301e9af",
      "function": "addManyAntenna(bytes[])",
      "arguments": [
        "[0x0115080c040001c3040003000309030002000109035c0109020001000109035c0100015c010901000109015c0100025c0200015c0109015c0200025c0300015c0300025c0400, 0x0011070e03c3010001c301090100020901000209010002090100020901000209, 0x0014070d020002fc0300010001fc040001fc01fc040001fc01000200026d03000200026d03000200026d03000200026d0300, 0x0015070b0100018c020003050300030005050100018c018c020001090305030003000209010501090300030004090300030004090300030004090300, 0x0013070e0200035b020003050200025b01000100020502000100015b0300010001050300015b0400, 0x0015060c0300018c0100018c03000200018c0300018c02000100018c0500018c0100018c0200018c0100018c0200018c0200018c0300018c02000400018c0400]"
      ],
      "transaction": {
        "from": "0xf17b5dd382b048ff4c05c1c9e4e24cfc5c6adad9",
        "to": "0xd29f7491e2269ba1f6f7b89ff3bbe6a65301e9af",
        "gas": "0x93fb6",
        "value": "0x0",
        "input": "0x1168eccb0000000000000000000000000000000000000000000000000000000000000020000000000000000000000000000000000000000000000000000000000000000600000000000000000000000000000000000000000000000000000000000000c00000000000000000000000000000000000000000000000000000000000000140000000000000000000000000000000000000000000000000000000000000018000000000000000000000000000000000000000000000000000000000000001e0000000000000000000000000000000000000000000000000000000000000024000000000000000000000000000000000000000000000000000000000000002a000000000000000000000000000000000000000000000000000000000000000460115080c040001c3040003000309030002000109035c0109020001000109035c0100015c010901000109015c0100025c0200015c0109015c0200025c0300015c0300025c0400000000000000000000000000000000000000000000000000000000000000000000000000000000000000000000000000000000000000000000200011070e03c3010001c30109010002090100020901000209010002090100020900000000000000000000000000000000000000000000000000000000000000320014070d020002fc0300010001fc040001fc01fc040001fc01000200026d03000200026d03000200026d03000200026d03000000000000000000000000000000000000000000000000000000000000000000000000000000000000000000003c0015070b0100018c020003050300030005050100018c018c0200010903050300030002090105010903000300040903000300040903000300040903000000000000000000000000000000000000000000000000000000000000000000000000280013070e0200035b020003050200025b01000100020502000100015b0300010001050300015b040000000000000000000000000000000000000000000000000000000000000000000000000000000000000000000000000000000000000000400015060c0300018c0100018c03000200018c0300018c02000100018c0500018c0100018c0200018c0100018c0200018c0200018c0300018c02000400018c0400",
        "nonce": "0x99",
        "chainId": "0x2105"
      },
      "additionalContracts": [
        {
          "transactionType": "CREATE",
          "contractName": null,
          "address": "0x71c273b790ea6271a361617853aecf95b9daa74d",
          "initCode": "0x61004780600c6000396000f3000115080c040001c3040003000309030002000109035c0109020001000109035c0100015c010901000109015c0100025c0200015c0109015c0200025c0300015c0300025c0400"
        },
        {
          "transactionType": "CREATE",
          "contractName": null,
          "address": "0x0b9648eb64ca27c0763d2fe5b59aef84e0d47d67",
          "initCode": "0x61002180600c6000396000f3000011070e03c3010001c301090100020901000209010002090100020901000209"
        },
        {
          "transactionType": "CREATE",
          "contractName": null,
          "address": "0xaa373552d68b4a0614d387e9fc0a2fc19e7c8320",
          "initCode": "0x61003380600c6000396000f3000014070d020002fc0300010001fc040001fc01fc040001fc01000200026d03000200026d03000200026d03000200026d0300"
        },
        {
          "transactionType": "CREATE",
          "contractName": null,
          "address": "0x1279b129827777c4a1cccd04573c7366f2b577b5",
          "initCode": "0x61003d80600c6000396000f3000015070b0100018c020003050300030005050100018c018c020001090305030003000209010501090300030004090300030004090300030004090300"
        },
        {
          "transactionType": "CREATE",
          "contractName": null,
          "address": "0x1854cfb2d7fe6ed11aa0239628cb87d9f608a828",
          "initCode": "0x61002980600c6000396000f3000013070e0200035b020003050200025b01000100020502000100015b0300010001050300015b0400"
        },
        {
          "transactionType": "CREATE",
          "contractName": null,
          "address": "0x7810c2d9e1192d0f478e6f7d2a7f16ba08a1d1e2",
          "initCode": "0x61004180600c6000396000f3000015060c0300018c0100018c03000200018c0300018c02000100018c0500018c0100018c0200018c0100018c0200018c0200018c0300018c02000400018c0400"
        }
      ],
      "isFixedGasLimit": false
    }
  ],
  "receipts": [
    {
      "status": "0x1",
      "cumulativeGasUsed": "0x153dbc1",
      "logs": [],
      "logsBloom": "0x00000000000000000000000000000000000000000000000000000000000000000000000000000000000000000000000000000000000000000000000000000000000000000000000000000000000000000000000000000000000000000000000000000000000000000000000000000000000000000000000000000000000000000000000000000000000000000000000000000000000000000000000000000000000000000000000000000000000000000000000000000000000000000000000000000000000000000000000000000000000000000000000000000000000000000000000000000000000000000000000000000000000000000000000000000000",
      "type": "0x2",
      "transactionHash": "0xc80ca8b96984f869c4ff35d57486ca995397c6c01d9c7f0177ab46c20b5cf6d6",
      "transactionIndex": "0x6a",
      "blockHash": "0x46b4268634f1c9ab29d03c5304e6173af1b873056fb3f353462c505193737240",
      "blockNumber": "0x27f4bf8",
      "gasUsed": "0xab1fd",
      "effectiveGasPrice": "0xca31b7",
      "blobGasUsed": "0xdb5c",
      "from": "0xf17b5dd382b048ff4c05c1c9e4e24cfc5c6adad9",
      "to": "0xd29f7491e2269ba1f6f7b89ff3bbe6a65301e9af",
      "contractAddress": null,
      "daFootprintGasScalar": "0x8b",
      "l1BaseFeeScalar": "0x8dd",
      "l1BlobBaseFee": "0x2c1c8f",
      "l1BlobBaseFeeScalar": "0x101c12",
      "l1Fee": "0x1c83bc15",
      "l1GasPrice": "0x2d7e8f0",
      "l1GasUsed": "0x1941"
    },
    {
      "status": "0x1",
      "cumulativeGasUsed": "0x20a2303",
      "logs": [],
      "logsBloom": "0x00000000000000000000000000000000000000000000000000000000000000000000000000000000000000000000000000000000000000000000000000000000000000000000000000000000000000000000000000000000000000000000000000000000000000000000000000000000000000000000000000000000000000000000000000000000000000000000000000000000000000000000000000000000000000000000000000000000000000000000000000000000000000000000000000000000000000000000000000000000000000000000000000000000000000000000000000000000000000000000000000000000000000000000000000000000",
      "type": "0x2",
      "transactionHash": "0x1a2441ce5f10822a3860a2a1f8acffcd0258024c1825fbacfa20ceab1b56b616",
      "transactionIndex": "0x8b",
      "blockHash": "0xeb13572bdb08b57f7ccca9a36574ce46210ab229b11a7c7b135f44895b147ef0",
      "blockNumber": "0x27f4bf9",
      "gasUsed": "0x6b22f",
      "effectiveGasPrice": "0xc9db6f",
      "blobGasUsed": "0xadc0",
      "from": "0xf17b5dd382b048ff4c05c1c9e4e24cfc5c6adad9",
      "to": "0xd29f7491e2269ba1f6f7b89ff3bbe6a65301e9af",
      "contractAddress": null,
      "daFootprintGasScalar": "0x8b",
      "l1BaseFeeScalar": "0x8dd",
      "l1BlobBaseFee": "0x2c1c8f",
      "l1BlobBaseFeeScalar": "0x101c12",
      "l1Fee": "0x6433b2cd",
      "l1GasPrice": "0x2d7e8f0",
      "l1GasUsed": "0x1407"
    }
  ],
  "libraries": [],
  "pending": [],
  "returns": {},
  "timestamp": 1770583252545,
  "chain": 8453,
  "commit": "f532988"
}