{
  "transactions": [
    {
      "hash": "0xd97d2fb6baebda3e93943ff165e6d23656e1851a8b364f2ad9067c5a2e05b776",
      "transactionType": "CALL",
      "contractName": null,
      "contractAddress": "0xc45f4894f769602e1fdc888c935b294188a98064",
      "function": "addManyAntenna(bytes[])",
      "arguments": [
        "[0x011a060701c31200010001c30f00010901000100100901000109010001c30f000109010001c31200, 0x0015070c040001c304000400015b04000300015b0100015b03000100015b0500015b0100015b0100015b0300015b0100015b085b0100085b0100, 0x0015070f010905c301090505010905c301090500010905000109050001090500, 0x0016030b0100095b0100015b0900015b0100095b0100, 0x0014070f02050100015b01000209015b020002090100015b010002090200015b020903000209030002090300, 0x00000000, 0x0014070f05090409018c050903090200030902000309020003090200, 0x0014070c0300020903000300020903000300020903000309025c03090309025c0309030002090300030002090300, 0x0017070a01c301090900010901c30209090002090100020907000209010001000209070002090100010002090700020901000200020905000209020002000209050002090200, 0x0015070c010907000109010001fc05000109010002000109030001090200030001090100010903000400010904000200045c03000200045c0300]"
      ],
      "transaction": {
        "from": "0xf17b5dd382b048ff4c05c1c9e4e24cfc5c6adad9",
        "to": "0xc45f4894f769602e1fdc888c935b294188a98064",
        "gas": "0xec5b9",
        "value": "0x0",
        "input": "0x1168eccb0000000000000000000000000000000000000000000000000000000000000020000000000000000000000000000000000000000000000000000000000000000a000000000000000000000000000000000000000000000000000000000000014000000000000000000000000000000000000000000000000000000000000001a000000000000000000000000000000000000000000000000000000000000002000000000000000000000000000000000000000000000000000000000000000240000000000000000000000000000000000000000000000000000000000000028000000000000000000000000000000000000000000000000000000000000002e00000000000000000000000000000000000000000000000000000000000000320000000000000000000000000000000000000000000000000000000000000036000000000000000000000000000000000000000000000000000000000000003c000000000000000000000000000000000000000000000000000000000000004400000000000000000000000000000000000000000000000000000000000000028011a060701c31200010001c30f00010901000100100901000109010001c30f000109010001c31200000000000000000000000000000000000000000000000000000000000000000000000000000000000000000000000000000000000000003a0015070c040001c304000400015b04000300015b0100015b03000100015b0500015b0100015b0100015b0300015b0100015b085b0100085b010000000000000000000000000000000000000000000000000000000000000000000000000000200015070f010905c301090505010905c30109050001090500010905000109050000000000000000000000000000000000000000000000000000000000000000160016030b0100095b0100015b0900015b0100095b010000000000000000000000000000000000000000000000000000000000000000000000000000000000002c0014070f02050100015b01000209015b020002090100015b010002090200015b020903000209030002090300000000000000000000000000000000000000000000000000000000000000000000000000000000000000000000000000000000040000000000000000000000000000000000000000000000000000000000000000000000000000000000000000000000000000000000000000000000000000001c0014070f05090409018c05090309020003090200030902000309020000000000000000000000000000000000000000000000000000000000000000000000002e0014070c0300020903000300020903000300020903000309025c03090309025c030903000209030003000209030000000000000000000000000000000000000000000000000000000000000000000000000000000000000000000000000000460017070a01c301090900010901c302090900020901000209070002090100010002090700020901000100020907000209010002000209050002090200020002090500020902000000000000000000000000000000000000000000000000000000000000000000000000000000000000000000000000000000000000000000003a0015070c010907000109010001fc05000109010002000109030001090200030001090100010903000400010904000200045c03000200045c0300000000000000",
        "nonce": "0x29",
        "chainId": "0x2105"
      },
      "additionalContracts": [
        {
          "transactionType": "CREATE",
          "contractName": null,
          "address": "0x51d11e70d55cd84b11c1c05b923595e77b937ef5",
          "initCode": "0x61002980600c6000396000f300011a060701c31200010001c30f00010901000100100901000109010001c30f000109010001c31200"
        },
        {
          "transactionType": "CREATE",
          "contractName": null,
          "address": "0x40a8ec43a5bfe1b7372ada56d2edfbdb438f15e4",
          "initCode": "0x61003b80600c6000396000f3000015070c040001c304000400015b04000300015b0100015b03000100015b0500015b0100015b0100015b0300015b0100015b085b0100085b0100"
        },
        {
          "transactionType": "CREATE",
          "contractName": null,
          "address": "0x601e21f52b145f5052dddda46b80a2703a8b94d1",
          "initCode": "0x61002180600c6000396000f3000015070f010905c301090505010905c301090500010905000109050001090500"
        },
        {
          "transactionType": "CREATE",
          "contractName": null,
          "address": "0x78a0df07567d47c7d49ef4cb9209e003052cc31b",
          "initCode": "0x61001780600c6000396000f3000016030b0100095b0100015b0900015b0100095b0100"
        },
        {
          "transactionType": "CREATE",
          "contractName": null,
          "address": "0x4b8a84b32f2e620fcca281d111b22e2597495c2e",
          "initCode": "0x61002d80600c6000396000f3000014070f02050100015b01000209015b020002090100015b010002090200015b020903000209030002090300"
        },
        {
          "transactionType": "CREATE",
          "contractName": null,
          "address": "0x63d6d70867666de54cd116d50f4ac6f5c8f0c2d1",
          "initCode": "0x61000580600c6000396000f30000000000"
        },
        {
          "transactionType": "CREATE",
          "contractName": null,
          "address": "0x299c24e024782904b2e82f0c3cf6fc092516d76b",
          "initCode": "0x61001d80600c6000396000f3000014070f05090409018c050903090200030902000309020003090200"
        },
        {
          "transactionType": "CREATE",
          "contractName": null,
          "address": "0xe28f5f15528473602069fe442c4d2a025f604f47",
          "initCode": "0x61002f80600c6000396000f3000014070c0300020903000300020903000300020903000309025c03090309025c0309030002090300030002090300"
        },
        {
          "transactionType": "CREATE",
          "contractName": null,
          "address": "0x02e08d75ef150ea45f6361fdfbce0bcc11bc1376",
          "initCode": "0x61004780600c6000396000f3000017070a01c301090900010901c30209090002090100020907000209010001000209070002090100010002090700020901000200020905000209020002000209050002090200"
        },
        {
          "transactionType": "CREATE",
          "contractName": null,
          "address": "0x8080332025887e7ab15a121fe19b1bab1d20f8aa",
          "initCode": "0x61003b80600c6000396000f3000015070c010907000109010001fc05000109010002000109030001090200030001090100010903000400010904000200045c03000200045c0300"
        }
      ],
      "isFixedGasLimit": false
    },
    {
      "hash": "0xcbf9b063f6de922c55c4343870862742600b6a9ab2e850d3e3534b93024f24ec",
      "transactionType": "CALL",
      "contractName": null,
      "contractAddress": "0xc45f4894f769602e1fdc888c935b294188a98064",
      "function": "addManyAntenna(bytes[])",
      "arguments": [
        "[0x0115080c040001c3040003000309030002000109035c0109020001000109035c0100015c010901000109015c0100025c0200015c0109015c0200025c0300015c0300025c0400, 0x0011070e03c3010001c301090100020901000209010002090100020901000209, 0x0014070d020002fc0300010001fc040001fc01fc040001fc01000200026d03000200026d03000200026d03000200026d0300, 0x0015070b0100018c020003050300030005050100018c018c020001090305030003000209010501090300030004090300030004090300030004090300, 0x0013070e0200035b020003050200025b01000100020502000100015b0300010001050300015b0400, 0x0015060c0300018c0100018c03000200018c0300018c02000100018c0500018c0100018c0200018c0100018c0200018c0200018c0300018c02000400018c0400]"
      ],
      "transaction": {
        "from": "0xf17b5dd382b048ff4c05c1c9e4e24cfc5c6adad9",
        "to": "0xc45f4894f769602e1fdc888c935b294188a98064",
        "gas": "0x9cade",
        "value": "0x0",
        "input": "0x1168eccb0000000000000000000000000000000000000000000000000000000000000020000000000000000000000000000000000000000000000000000000000000000600000000000000000000000000000000000000000000000000000000000000c00000000000000000000000000000000000000000000000000000000000000140000000000000000000000000000000000000000000000000000000000000018000000000000000000000000000000000000000000000000000000000000001e0000000000000000000000000000000000000000000000000000000000000024000000000000000000000000000000000000000000000000000000000000002a000000000000000000000000000000000000000000000000000000000000000460115080c040001c3040003000309030002000109035c0109020001000109035c0100015c010901000109015c0100025c0200015c0109015c0200025c0300015c0300025c0400000000000000000000000000000000000000000000000000000000000000000000000000000000000000000000000000000000000000000000200011070e03c3010001c30109010002090100020901000209010002090100020900000000000000000000000000000000000000000000000000000000000000320014070d020002fc0300010001fc040001fc01fc040001fc01000200026d03000200026d03000200026d03000200026d03000000000000000000000000000000000000000000000000000000000000000000000000000000000000000000003c0015070b0100018c020003050300030005050100018c018c0200010903050300030002090105010903000300040903000300040903000300040903000000000000000000000000000000000000000000000000000000000000000000000000280013070e0200035b020003050200025b01000100020502000100015b0300010001050300015b040000000000000000000000000000000000000000000000000000000000000000000000000000000000000000000000000000000000000000400015060c0300018c0100018c03000200018c0300018c02000100018c0500018c0100018c0200018c0100018c0200018c0200018c0300018c02000400018c0400",
        "nonce": "0x2a",
        "chainId": "0x2105"
      },
      "additionalContracts": [
        {
          "transactionType": "CREATE",
          "contractName": null,
          "address": "0x6c381c6d9c73b42580c3ce3b5251dc53c88b6084",
          "initCode": "0x61004780600c6000396000f3000115080c040001c3040003000309030002000109035c0109020001000109035c0100015c010901000109015c0100025c0200015c0109015c0200025c0300015c0300025c0400"
        },
        {
          "transactionType": "CREATE",
          "contractName": null,
          "address": "0x6cebe4c100780e54aaf471e6acecfd8dbe2ecc0d",
          "initCode": "0x61002180600c6000396000f3000011070e03c3010001c301090100020901000209010002090100020901000209"
        },
        {
          "transactionType": "CREATE",
          "contractName": null,
          "address": "0x0965ad7caef24f00df6fa214fe4bdcfdf36df22a",
          "initCode": "0x61003380600c6000396000f3000014070d020002fc0300010001fc040001fc01fc040001fc01000200026d03000200026d03000200026d03000200026d0300"
        },
        {
          "transactionType": "CREATE",
          "contractName": null,
          "address": "0xbbd03b941bfc4b2df8197375b6ce16fcba1eb8ae",
          "initCode": "0x61003d80600c6000396000f3000015070b0100018c020003050300030005050100018c018c020001090305030003000209010501090300030004090300030004090300030004090300"
        },
        {
          "transactionType": "CREATE",
          "contractName": null,
          "address": "0xd13ee5dda0bfcbd1b5ccbc607d4b1a6e60314962",
          "initCode": "0x61002980600c6000396000f3000013070e0200035b020003050200025b01000100020502000100015b0300010001050300015b0400"
        },
        {
          "transactionType": "CREATE",
          "contractName": null,
          "address": "0x7d944ce662acc9ea2088180987f548447b75d7d1",
          "initCode": "0x61004180600c6000396000f3000015060c0300018c0100018c03000200018c0300018c02000100018c0500018c0100018c0200018c0100018c0200018c0200018c0300018c02000400018c0400"
        }
      ],
      "isFixedGasLimit": false
    }
  ],
  "receipts": [
    {
      "status": "0x1",
      "cumulativeGasUsed": "0x2e9ed8e",
      "logs": [],
      "logsBloom": "0x00000000000000000000000000000000000000000000000000000000000000000000000000000000000000000000000000000000000000000000000000000000000000000000000000000000000000000000000000000000000000000000000000000000000000000000000000000000000000000000000000000000000000000000000000000000000000000000000000000000000000000000000000000000000000000000000000000000000000000000000000000000000000000000000000000000000000000000000000000000000000000000000000000000000000000000000000000000000000000000000000000000000000000000000000000000",
      "type": "0x2",
      "transactionHash": "0xd97d2fb6baebda3e93943ff165e6d23656e1851a8b364f2ad9067c5a2e05b776",
      "transactionIndex": "0xb8",
      "blockHash": "0xf8e238bf4acb2f24dcbcb9ca050cf56835b480b6fff84f7362ae18bcafddf1b7",
      "blockNumber": "0x27efaf5",
      "gasUsed": "0xab1e7",
      "effectiveGasPrice": "0x4a9bc6",
      "blobGasUsed": "0xda46",
      "from": "0xf17b5dd382b048ff4c05c1c9e4e24cfc5c6adad9",
      "to": "0xc45f4894f769602e1fdc888c935b294188a98064",
      "contractAddress": null,
      "daFootprintGasScalar": "0x8b",
      "l1BaseFeeScalar": "0x8dd",
      "l1BlobBaseFee": "0x33cf1c",
      "l1BlobBaseFeeScalar": "0x101c12",
      "l1Fee": "0x874791a9",
      "l1GasPrice": "0x35fc04d",
      "l1GasUsed": "0x1926"
    },
    {
      "status": "0x1",
      "cumulativeGasUsed": "0x4127d49",
      "logs": [],
      "logsBloom": "0x00000000000000000000000000000000000000000000000000000000000000000000000000000000000000000000000000000000000000000000000000000000000000000000000000000000000000000000000000000000000000000000000000000000000000000000000000000000000000000000000000000000000000000000000000000000000000000000000000000000000000000000000000000000000000000000000000000000000000000000000000000000000000000000000000000000000000000000000000000000000000000000000000000000000000000000000000000000000000000000000000000000000000000000000000000000",
      "type": "0x2",
      "transactionHash": "0xcbf9b063f6de922c55c4343870862742600b6a9ab2e850d3e3534b93024f24ec",
      "transactionIndex": "0xa5",
      "blockHash": "0x0000000000000000000000000000000000000000000000000000000000000000",
      "blockNumber": "0x27efaf6",
      "gasUsed": "0x6b219",
      "effectiveGasPrice": "0x4abbad",
      "blobGasUsed": "0xacaa",
      "from": "0xf17b5dd382b048ff4c05c1c9e4e24cfc5c6adad9",
      "to": "0xc45f4894f769602e1fdc888c935b294188a98064",
      "contractAddress": null,
      "daFootprintGasScalar": "0x8b",
      "l1BaseFeeScalar": "0x8dd",
      "l1BlobBaseFee": "0x33cf1c",
      "l1BlobBaseFeeScalar": "0x101c12",
      "l1Fee": "0x26d488b6",
      "l1GasPrice": "0x35fc04d",
      "l1GasUsed": "0x13ec"
    }
  ],
  "libraries": [],
  "pending": [],
  "returns": {},
  "timestamp": 1770541774149,
  "chain": 8453,
  "commit": "0c27293"
}